:020000040800F2
:1000000058090020C9010008590500085B050008CF
:100010005F05000863050008670500080000000090
:100020000000000000000000000000006B05000858
:100030006D050008000000006F050008710500084C
:10004000E3010008E3010008E3010008E301000800
:10005000E3010008E3010008E3010008E3010008F0
:10006000E3010008E3010008E3010008E3010008E0
:10007000E3010008E3010008E3010008E3010008D0
:10008000E3010008E3010008E3010008E3010008C0
:10009000E3010008E3010008E3010008E3010008B0
:1000A000E3010008E3010008E3010008E3010008A0
:1000B000E301000883050008E3010008E3010008EC
:1000C000E3010008730500087B050008E301000850
:1000D000E301000897320008E3010008E30100088B
:1000E000E3010008E3010008E301000800F002F862
:1000F00000F05AF80AA090E8000C82448344AAF168
:100100000107DA4501D100F04FF8AFF2090EBAE865
:100110000F0013F0010F18BFFB1A43F0010318473B
:10012000C07D0000E07D00000A444FF0000C10F894
:10013000013B13F0070408BF10F8014B1D1108BF65
:1001400010F8015B641E05D010F8016B641E01F805
:10015000016BF9D113F0080F1EBF10F8014BAD1C55
:100160000C1B09D16D1E58BF01F801CBFAD505E073
:1001700014F8016B01F8016B6D1EF9D59142D6D3CD
:10018000704700000023002400250026103A28BFF5
:1001900078C1FBD8520728BF30C148BF0B607047F9
:1001A0001FB51FBD10B510BD06F048F81146FFF78A
:1001B000F7FF00F029F806F066F803B4FFF7F2FF46
:1001C00003BC06F067F8000009488047094800476B
:1001D000FEE7FEE7FEE7FEE7FEE7FEE7FEE7FEE7F7
:1001E000FEE7FEE704480549054A064B7047000054
:1001F0007B2E0008ED00000858030020580900205D
:1002000058050020580500208CB0202104A805F0D6
:1002100097FF00BF02F008FF02F0B2FE02F0BEFF3F
:100220004FF4E13002F0DCFF02F04DFF64210220C8
:1002300002F092FF0320009001231A46A749019083
:10024000A62005F0D0FB4FF4FA7005F0CFF900219D
:1002500040F2E73003F03AFF03F009FF03F0FCFF40
:1002600004F004F800231A461946184605F04FF921
:1002700004F008F803E09A49022002F055FF04F068
:1002800097F80028F7D1042004F072F904F0CCFFAD
:1002900005F0FEFA21E193480078012806D103F029
:1002A00047FE03F006FC00208E4908708E48007857
:1002B000012830D18D48B0F9000007F051FB044609
:1002C0008B48B0F9000007F04BFB05468948B0F9B0
:1002D000000007F045FB06468748B0F9000007F02C
:1002E0003FFB07468548B0F9000007F039FB804620
:1002F0008348B0F9000007F033FB8146814833465C
:100300003A464146CDE900540290484603F055F87C
:100310000020754908707C48007801287ED17B4810
:10032000007838B108217A4800F0D7FA00207749E0
:10033000087006E00821764800F0D1FA01207349E0
:10034000087004A804F0A6F818B9724904A805F0CA
:1003500071F96C494868704907F04EFB064607F092
:10036000C3FA04B2674908686B4907F045FB0646C3
:1003700007F0BAFA05B26048B0F900005F49B1F978
:100380000010CDE90254CDE900105D48B0F900300D
:100390005648B0F900205648B0F900105548B0F959
:1003A000000004F054FB202004F06AFD5B48B0F923
:1003B000000006F0A6FD80460022594B06F01CFC0A
:1003C00006460022574B06F0EFFD044606F06CFD92
:1003D0001FFA80FA5448B0F9000006F092FD064674
:1003E00000224F4B06F008FC044600224D4B06F05D
:1003F000DBFD804606F058FD1FFA80FB4B48B0F944
:10040000000006F07EFD80460022454B06F0F4FB1E
:1004100006460022434B06F0C7FD00E026E00446F6
:1004200006F042FD80B203904148B0F9000006F0AA
:1004300068FD804600223A4B06F0DEFB06460022AD
:10044000384B06F0B1FD044606F02EFD80B25B4647
:10045000CDF800A0029001462E48039A04F09AFBC2
:10046000202004F00DFD00202749087031A1294803
:10047000103005F08DFE30B900231A461946184693
:1004800005F045F829E02DA12248103005F080FE46
:1004900018BB204840682B4908601E4880682A49DC
:1004A00008601C4800682949086016488068284987
:1004B0000860144840682749086004F0CCFE1748DB
:1004C000B0F900301848B0F900201848B0F9001011
:1004D0001748B0F9000005F01AF8DCE6801A0600AB
:1004E00020A107002600002027000020C6000020D1
:1004F000C4000020C2000020C0000020BE00002078
:10050000BC0000206C0100202800002024000020F6
:10051000000C01400C0000200000C8423201002005
:1005200000408F4000005940300100202E01002083
:100530002C01002073746F700000000073746172EE
:10054000740000000C010020100100203401002084
:10055000180100201C010020704700BFFEE700BF0B
:10056000FEE700BFFEE700BFFEE770477047704739
:10057000704710B505F0CCFB10BD10B505F094FD2B
:1005800010BD1348008800F0010000B34FF6FE7064
:100590000F4908800F480078401C0E490870084633
:1005A0000078022802D101200B4908700948007820
:1005B000032802D101200949087006480078042860
:1005C00005D10120064908700020024908707047D3
:1005D00010040040290000202600002027000020F1
:1005E0002800002031490143314A1160704770B53D
:1005F000002100230F22C47804B32D4C246804F496
:10060000E064C4F5E064210AC1F10403CA404478FF
:1006100004FA03F18478144021430901254C06783B
:10062000A155047804F01F050124AC4005786D1134
:10063000AD0005F1E025C5F8004109E0047804F0BB
:100640001F050124AC401C4D0678761145F8264064
:1006500070BD1A4A0A400243154B1B1F1A607047AF
:1006600039B1134A121D12680243114B1B1D1A6047
:1006700006E00F4A121D126882430D4B1B1D1A60C3
:100680007047042808D14FF0E021096941F00401C6
:100690004FF0E022116107E04FF0E021096921F0FD
:1006A00004014FF0E0221161704700000000FA05DC
:1006B0000CED00E000E400E080E100E080FFFF1FBF
:1006C00010B50446CC48844208D10121042000F032
:1006D0002DFB0021042000F029FB46E0C74884429E
:1006E00008D10121082000F021FB0021082000F0A2
:1006F0001DFB3AE0C248844208D10121102000F0DD
:1007000015FB0021102000F011FB2EE0BD488442B3
:1007100008D10121202000F009FB0021202000F059
:1007200005FB22E0B848844208D10121402000F0B6
:10073000FDFA0021402000F0F9FA16E0B3488442A7
:1007400008D10121802000F0F1FA0021802000F082
:10075000EDFA0AE0AE48844207D10121801500F08D
:10076000E5FA0021A01500F0E1FA10BD10B5012155
:10077000084600F0DBFA0021012000F0D7FA10BD96
:100780002DE9F04102460025002600200023002428
:10079000002791F803C00CF00F0591F803C00CF08E
:1007A000100CBCF1000F03D091F802C04CEA050513
:1007B00091F800C0BCF1000F31D0146800202BE08C
:1007C0004FF0010C0CFA00F3B1F800C00CEA03067C
:1007D0009E4220D183004FF00F0C0CFA03F7BC436C
:1007E00005FA03FC4CEA040491F803C0BCF1280F9D
:1007F00006D14FF0010C0CFA00FCC2F814C00AE05C
:1008000091F803C0BCF1480F05D14FF0010C0CFA70
:1008100000FCC2F810C0401C0828D1D31460B1F805
:1008200000C0BCF1FF0F34DD546800202EE000F161
:10083000080C4FF0010808FA0CF3B1F800C00CEAFC
:1008400003069E4221D183004FF00F0C0CFA03F7F0
:10085000BC4305FA03FC4CEA040491F803C0BCF164
:10086000280F05D100F1080C08FA0CF8C2F8148022
:1008700091F803C0BCF1480F07D100F1080C4FF00C
:10088000010808FA0CF8C2F81080401C0828CED3E2
:100890005460BDE8F0814FF6FF7101800221817044
:1008A0000421C17070470246002093680B400BB1D1
:1008B000012000E0002070470146886880B2704740
:1008C00002460020D3680B400BB1012000E000205D
:1008D00070470146C86880B2704701617047416146
:1008E00070470AB1016100E041617047C160704723
:1008F0004FF480320A438261816182618269826938
:10090000704702460020434B18684FF6807318402A
:1009100040EA021008433F4B186070473E49C861E7
:100920007047F0B50A46002300240021002500F09E
:100930000046B6F1004F02D1364EF16901E0354E66
:100940007168C0F3034583B200F44016B6F5401F4A
:1009500008D121F070612F4E766826F070662D4F19
:100960007E6012E000F48016B6F5801F06D10326E3
:1009700006FA05F4A14341F0706106E0460D360128
:1009800003FA06F6B14341F0706122B1460D36011B
:1009900003FA06F6314300F00046B6F1004F02D1EB
:1009A0001C4EF16101E01B4E7160F0BD30B50022BC
:1009B0008B071C0F0F2303FA04F2164B08338C101D
:1009C00053F824309343134C08348D1044F82530E9
:1009D00023468C1053F824308C07240F00FA04F4BB
:1009E00023430C4C08348D1044F8253030BD0A499F
:1009F000DC3108607047000000080140000C014035
:100A0000001001400014014000180140001C01408A
:100A1000002001400000014000002042DF48006843
:100A200040F00100DD49086008464068DC490840A4
:100A3000DA49486008460068DA490840D749086042
:100A40000846006820F4802008600846406820F4CA
:100A5000FE0048604FF41F0088607047CF49096866
:100A600021F48031CD4A11601146096821F48021BA
:100A70001160B0F5803F03D0B0F5802F0ED106E0B5
:100A8000C649096841F48031C44A116007E0C3498E
:100A9000096841F4A021C14A116000E000BF00BF15
:100AA000704710B501460022002300204A11012A98
:100AB00002D1BA4C236806E0022A02D1B74C236A5D
:100AC00001E0B64C636A01F01F02012494401C400F
:100AD0000CB1012000E0002010BD38B500200090CE
:100AE0000024002500BF3120FFF7DBFF05460098FA
:100AF000401C00900098B0F5A06F01D0002DF2D0FE
:100B00003120FFF7CEFF08B1012400E00024204689
:100B100038BD01460020A14A106820F0F80040EAE4
:100B2000C10010607047A04908607047024600206D
:100B30009A4B586820F47C1042EA01031843974B03
:100B40005860704798490866704701460020934AEC
:100B5000506820F003000843506070478F48406899
:100B600000F00C007047014600208C4A506820F0CD
:100B7000F00008435060704701460020874A5068E3
:100B800020F4E06008435060704701460020834A2B
:100B9000506820F4605040EAC1005060704729B1AD
:100BA0007E4A527A02437D4B5A7204E07B4A527A63
:100BB00082437A4B5A7270477B49D831086070473C
:100BC00001460020754A506820F4404008435060B8
:100BD00070470021714A20321170704A82F820104B
:100BE000012802D004280AD104E001216B4A2032F6
:100BF000117005E00521694A2032117000E000BF44
:100C000000BF70476949086070476449096A014339
:100C1000624A11627047654944390860704730B5CF
:100C200000210022002400235C4D6D6805F00C01BA
:100C300021B1042905D0082923D105E05C4D0560C8
:100C400022E05C4D05601FE0544D6D6805F47012A4
:100C5000524D6D6805F48034022505EB92421CB9B3
:100C6000554D554305600BE04C4D6D6805F400355E
:100C70001DB14F4D5543056002E04E4D5543056093
:100C800002E04B4D056000BF00BF444D6D6805F0AC
:100C9000F0010909494D6B5C0568DD4045603F4D39
:100CA0006D6805F4E061090A444D6B5C4568DD4000
:100CB00085603A4D6D6805F46051C90A3F4D6B5C23
:100CC0004568DD40C560354D6D6805F44041890BD0
:100CD0003B4D6B5CC568B5FBF3F5056130BD29B1D3
:100CE0002E4A526902432D4B5A6104E02B4A526945
:100CF00082432A4B5A61704729B1284A92690243BC
:100D0000264B9A6104E0254A92698243234B9A61FB
:100D1000704729B1214AD2690243204BDA6104E0CD
:100D20001E4AD26982431D4BDA61704729B11B4AC2
:100D3000D2680243194BDA6004E0184AD268824351
:100D4000164BDA60704729B1144A12690243134BFB
:100D50001A6104E0114A12698243104B1A6170470C
:100D600012494039086070470F49C86470470B4901
:100D7000C87170470948406A40F08070074948626E
:100D8000704701460020054A92680A400AB10120D6
:100D900000E000207047014988727047001002404F
:100DA0000000FFF8FFFFF6FE0000424280044242CE
:100DB00000127A000024F40000093D002D000020FC
:100DC0003D00002010B50446FB48844209D10121B2
:100DD0008803FFF7ABFF00214FF48040FFF7A6FF29
:100DE00032E0F648844209D101214804FFF7ABFF05
:100DF00000214FF40030FFF7A6FF25E0F0488442C1
:100E000009D101218804FFF79EFF00214FF48020C3
:100E1000FFF799FF18E0EB48844209D10121C8048B
:100E2000FFF791FF00214FF40020FFF78CFF0BE04C
:100E3000E548844208D101210805FFF784FF00211D
:100E40004FF48010FFF77FFF10BD2DE9F04786B00B
:100E500005460E460024A24600BFA1460027B089E1
:100E600000B100BF2F462C8A4CF6FF700440F0887A
:100E700004432C82AC894EF6F3100440B0883189CB
:100E80000843718908430443AC81AC8A4FF6FF40A4
:100E90000440B0890443AC8201A8FFF7C0FEC648F5
:100EA000874202D1DDF810A001E0DDF80CA0A8898E
:100EB00000F4004040B10AEBCA0000EB0A103168B0
:100EC0004900B0FBF1F807E00AEBCA0000EB0A109A
:100ED00031688900B0FBF1F86420B8FBF0F0040140
:100EE0002009642101FB1089A88900F4004040B169
:100EF000322000EBC900B0FBF1F000F00700044322
:100F000008E0322000EB09106421B0FBF1F000F0A2
:100F10000F0004432C8106B0BDE8F0874FF4165152
:100F2000016000218180C18001810C21418100216B
:100F30008181704710B502460020108A4FF2FF03EE
:100F400018400B884C8823438C882343CC88234348
:100F50001843108210BD0021018041808180C18032
:100F6000704721B1828942F40052828104E0828973
:100F70004DF6FF731A4082817047F0B50346002496
:100F800000260025002040F66A17B94200D100BFB4
:100F90001846C1F3421401F01F06012707FA06F5AF
:100FA000012C01D10C3004E0022C01D1103000E002
:100FB00014301AB107682F43076002E00768AF4397
:100FC0000760F0BD1AB1838A0B43838202E0838AF3
:100FD0008B4383827047028A4FF6F0731A40028275
:100FE000028A0A430282704782894FF2FF731A40D5
:100FF000828182890A438281704721B1828942F0CD
:101000000202828104E082894FF6FD731A408281D8
:101010007047028A4FF6DF731A400282028A0A433F
:101020000282704721B1028A42F48042028204E0C7
:10103000028A4BF6FF731A4002827047C1F308021E
:101040008280704701468888C0F308007047818914
:1010500041F0010181817047028BD2B20283028B81
:1010600042EA012202837047028B02F47F4202832C
:10107000028B0A430283704721B1828A42F0200228
:10108000828204E0828A4FF6DF731A4082827047C0
:1010900021B1828A42F01002828204E0828A4FF6F5
:1010A000EF731A408282704721B1828A42F00802AF
:1010B000828204E0828A4FF6F7731A408282704778
:1010C00021B1828942F40042828103E08289C2F325
:1010D0000E028281704721B1828A42F400628282CC
:1010E00004E0828A4FF2FF731A4082827047828A3C
:1010F0004FF6FB731A408282828A0A4382827047CB
:1011000021B1828A42F00202828204E0828A4FF692
:10111000FD731A408282704702460020B1F5007FBD
:1011200000D100BF13880B400BB1012000E000206C
:10113000704701F40072B2F5007F00D100BFCA43CE
:101140000280704770B5024600240023002500206D
:1011500040F66A16B14200D100BFC1F3421501F05A
:101160001F03012606FA03F3012D02D196893340AD
:1011700006E0022D02D1168A334001E0968A334000
:101180000C12012606FA04F41688344013B10CB18F
:10119000012000E0002070BD10B50022002340F6C1
:1011A0006A14A14200D100BF0A1201249440A3B2E4
:1011B000DC43048010BD00000038014000440040C2
:1011C00000480040004C00400050004010B504466C
:1011D000F748844209D101214805FFF7B4FD0021F9
:1011E0004FF40010FFF7AFFD08E001218805FFF77D
:1011F000AAFD00214FF48000FFF7A5FD10BD2DE9E9
:10120000F04385B004460D460026B1460427DFF8BA
:10121000A483A6884FF6C07006406846FFF7FFFC1F
:10122000DDF80880E448B8FBF0F01FFA80F946EAE0
:101230000906A68020884FF6FE710840208000260F
:10124000DE49286888420CD828684000B8FBF0F0D6
:1012500087B2042F00DA04273E4309F101002084FD
:1012600027E0E8884BF6FF71884206D1286800EB3A
:101270004000B8FBF0F087B209E0286800EBC0013D
:1012800001EB0010B8FBF0F087B247F48047C7F3DA
:101290000B0008B947F0010747F4004006434FF43C
:1012A000967009FB00F04FF47A7190FBF1F0401C4E
:1012B0002084A683208840F00100208026884FF6F5
:1012C000F5300640A8886989084306432680A88926
:1012D00029890843208105B0BDE8F08341F28831B7
:1012E0000160002181804BF6FF71C18000210181E6
:1012F00041814FF480418181704721B1028842F0E1
:101300000102028004E002884FF6FE731A40028058
:10131000704721B1828842F40062828004E08288B2
:101320004FF2FF731A408280704721B1828842F4E5
:101330008052828004E082884EF6FF731A408280D9
:10134000704721B1028842F48072028004E0028872
:101350004FF6FF631A400280704721B1028842F4C1
:101360000072028004E002884FF6FF531A400280A8
:10137000704721B1028842F48062028004E0028852
:101380004FF6FF331A40028070470A4600218189D8
:101390004FF60173194002F0FE0319438181704733
:1013A00021B1828942F00102828104E082894FF6F4
:1013B000FE731A408281704721B1028842F04002D8
:1013C000028004E002884FF6BF731A400280704723
:1013D0001AB183880B43838002E083888B43838028
:1013E0007047018270470146088AC0B2704712B147
:1013F00041F0010102E04FF6FE731940018270478F
:1014000008B5024600200090009200980844009021
:101410000098008808BD21B1028842F40042028091
:1014200003E00288C2F30E0202807047B1F5006F3C
:1014300004D1028842F40062028004E002884FF284
:10144000FF731A4002807047B1F5005F04D1028833
:1014500042F40052028004E002884DF6FF731A4005
:101460000280704721B1028842F48052028004E079
:1014700002884EF6FF731A4002807047B1F5006F84
:1014800004D1028842F40062028004E002884FF234
:10149000FF731A400280704721B1028842F0200297
:1014A000028004E002884FF6DF731A400280704722
:1014B0000146088B0012704721B1028842F01002E9
:1014C000028004E002884FF6EF731A4002807047F2
:1014D00021B9028842F08002028004E002884FF6BF
:1014E0007F731A4002807047B1F5804F05D0828B20
:1014F0004BF6FF731A40828303E0828B42F48042F2
:101500008283704770B50246002400250023002026
:10151000958A138B1B0445EA030626F07F4404EAF0
:1015200001068E4201D1012000E0002070BD10B5FF
:1015300001460020002300228B8A0A8B120443EA12
:10154000020424F07F4010BD0CB5024600200023A9
:101550000193009300920B0F019321F07F41019BB7
:101560001BB1009B1433009303E0090C009B18335C
:101570000093009B1B680B400BB1012000E0002092
:101580000CBD002221F07F42D3438382704730B5E7
:10159000024600200023948801F0E06504EA154328
:1015A00021F07F41948A0C4054B14BB1012008E0F6
:1015B0000054004000127A0040420F00A086010053
:1015C000002030BD002221F07F42D3438382704748
:1015D00010B50446FE48844208D10121C014FFF72B
:1015E000A5FB0021E014FFF7A1FBC4E0B4F1804F9C
:1015F00008D101210846FFF7A6FB00210120FFF7D3
:10160000A2FBB8E0F348844208D101210220FFF791
:101610009AFB00210220FFF796FBACE0EE488442E3
:1016200008D101210420FFF78EFB00210420FFF7E1
:101630008AFBA0E0E948844208D101210820FFF795
:1016400082FB00210820FFF77EFB94E0E4488442FF
:1016500008D101211020FFF776FB00211020FFF7B1
:1016600072FB88E0DF48844208D101212020FFF787
:101670006AFB00212020FFF766FB7CE0DA48844209
:1016800008D101214014FFF751FB00216014FFF73E
:101690004DFB70E0D548844209D10121C804FFF711
:1016A00045FB00214FF40020FFF740FB63E0D048EA
:1016B000844209D101210805FFF738FB00214FF4CE
:1016C0008010FFF733FB56E0CA48844209D101215C
:1016D0004805FFF72BFB00214FF40010FFF726FB16
:1016E00049E0C548844208D101214020FFF72BFB87
:1016F00000214020FFF727FB3DE0C048844208D18D
:1017000001218020FFF71FFB00218020FFF71BFB3A
:1017100031E0BB48844208D101218015FFF713FB5B
:101720000021A015FFF70FFB25E0B648844209D140
:1017300001210804FFF7FAFA00214FF48030FFF787
:10174000F5FA18E0B048844209D101214804FFF7B6
:10175000EDFA00214FF40030FFF7E8FA0BE0AB4858
:10176000844208D101218804FFF7E0FA00214FF4F8
:101770008020FFF7DBFA10BD00220288944B9842CC
:101780000ED0994B98420BD0B0F1804F08D0914BBE
:10179000984205D0904B984202D0904B984204D189
:1017A0004FF68F731A404B881A438D4B984207D0DF
:1017B0008C4B984204D04FF6FF431A40CB881A4313
:1017C00002808B8883850B880385814B98420BD0E0
:1017D000854B984208D08B4B984205D08A4B984253
:1017E00002D08A4B984201D10B7A0386012383826F
:1017F000704770B5002400220023058C4FF6FE765A
:1018000035400584028C8388048B4FF68F752C40FD
:10181000B51E2C400D882C43751E2A400D892A4385
:101820004D882A436A4DA8420BD06F4DA84208D07C
:10183000744DA84205D0744DA84202D0734DA84201
:1018400013D14FF6F7752A404D892A434FF6FB75A1
:101850002A408D882A434FF6FF652B404FF6FF55EF
:101860002B408D892B43CD892B4383800483CD88E6
:101870008586028470BD70B5002400220023058C8B
:101880004FF6EF7635400584028C8388048B48F64A
:10189000FF752C404FF6FF452C400D884FF6FF7624
:1018A00006EA05252C434FF6DF752A400D8906EA26
:1018B00005152A434D8806EA05152A43444DA842DA
:1018C00002D0494DA8421DD14FF67F752A404D895F
:1018D0004FF6FF7606EA05152A434FF6BF752A40F4
:1018E0008D8806EA05152A434FF6FF352B404FF247
:1018F000FF752B408D8906EA85052B43CD8906EAC5
:1019000085052B4383800483CD880587028470BDC1
:1019100070B5002400220023058C4FF6FF66354089
:101920000584028C8388848B4FF68F752C404FF68C
:10193000FC752C400D882C434FF6FF552A400D892D
:101940004FF6FF7606EA05252A434D8806EA052567
:101950002A431F4DA84202D0234DA8421DD14FF269
:10196000FF752A404D894FF6FF7606EA05252A4382
:101970004FF6FF352A408D8806EA05252A434EF6A4
:10198000FF752B404DF6FF752B408D8906EA051536
:101990002B43CD8906EA05152B4383808483CD88AC
:1019A0008587028470BD70B5002200230024058C59
:1019B0004EF6FF7635400584038C8488828B48F68A
:1019C000FF752A404FF6FF452A400D8820E00000B1
:1019D000002C01400004004000080040000C0040C2
:1019E000001000400014004000340140004C014051
:1019F000005001400054014000180040001C00400D
:101A000000200040004001400044014000480140E7
:101A10004FF6FF7606EA05252A434DF6FF752B4063
:101A20000D8906EA05352B434D8806EA05352B431B
:101A3000FA4DA84202D0FA4DA84208D14BF6FF75E4
:101A40002C408D894FF6FF7606EA85152C4384805D
:101A50008283CD88A0F84050038470BD828B4FF202
:101A6000FF331A408283828B4FF6FF7303EA012310
:101A70001A4382837047F0B50C46154600220021B8
:101A80000026078C4EF6FF7C07EA0C070784828B42
:101A9000018C4FF6FF7707EA043640F6FF473A40DD
:101AA0004FF6FF7707EA05273A434FF6FF7707EA35
:101AB00003373A43D94FB8420ED0D94FB8420BD072
:101AC000B0F1804F08D0D74FB84205D0D64FB842BA
:101AD00002D0D64FB84206D14DF6FF77394046F4D2
:101AE0008057394305E047F6FF57394044F48057A3
:101AF000394382830184F0BD828B4FF6F3731A4021
:101B00008283828B0A4382837047F0B50C46154668
:101B1000002200210026078C4FF6FF6C07EA0C0715
:101B20000784828B018C4FF6FF7707EA04264FF675
:101B30000C773A404FF6FF7707EA03172F433A43F3
:101B4000B64FB8420ED0B64FB8420BD0B0F1804F6E
:101B500008D0B44FB84205D0B34FB84202D0B34F0B
:101B6000B84206D14FF6FF57394046F480773943E3
:101B700005E04FF2FF57394044F4807739438283C0
:101B80000184F0BD028B4FF2FF331A400283028BB7
:101B90004FF6FF7303EA01231A4302837047F0B53F
:101BA0000C461546002200210026078C4FF6EF7CDC
:101BB00007EA0C070784028B018C4FF6FF7707EAD0
:101BC000041640F6FF473A404FF6FF7707EA03371F
:101BD0003A434FF6FF7707EA05273A438F4FB8425B
:101BE0000ED08F4FB8420BD0B0F1804F08D08D4F40
:101BF000B84205D08C4FB84202D08C4FB84206D1C3
:101C00004FF6DF77394046F01007394305E04FF6CD
:101C10005F77394044F01007394302830184F0BDF7
:101C2000028B4FF6F3731A400283028B0A4302833E
:101C30007047F0B50C46154600220021068C4FF681
:101C4000FE773E400684028B018C4FF60C763240C4
:101C50007E1C06EA03162E433243704EB0420ED06D
:101C60006F4EB0420BD0B0F1804F08D06D4EB042F5
:101C700005D06D4EB04202D06C4EB04206D14FF648
:101C8000FD76314044F00106314305E04FF6F5762C
:101C9000314044F00106314302830184F0BD70B548
:101CA00005460C465D4885420ED05D4885420BD006
:101CB000B5F1804F08D05B48854205D05A4885422F
:101CC00002D05A48854200D100E000BF208850B9B8
:101CD0002389A28861882846FFF7ABFFE188284660
:101CE000FFF79EFF25E0208804280AD12389A288D7
:101CF00061882846FFF753FFE1882846FFF742FF37
:101D000017E0208808280AD12389A28861882846FC
:101D1000FFF7FBFEE1882846FFF7EEFE09E0238986
:101D2000A28861882846FFF7A6FEE1882846FFF7CB
:101D300095FE70BD2DE9F04105460C4600260127B1
:101D4000608808B9022600E00026A088012801D199
:101D5000022700E001272088A0B92389A288618892
:101D60002846FFF766FFE1882846FFF759FF2389D9
:101D70003A4631462846FFF712FFE1882846FFF72A
:101D800001FF13E02389A28861882846FFF707FF37
:101D9000E1882846FFF7F6FE23893A463146284671
:101DA000FFF747FFE1882846FFF73AFFBDE8F081DB
:101DB0000A884B881A438B881A43CB881A430B89AD
:101DC0001A434B891A438B891A43A0F84420704761
:101DD0004FF6FF71818000210180C1804180017236
:101DE00070470021018041808180C1800181418153
:101DF0008181C18170470021018041800121818062
:101E00000021C180018170470021018041808180D3
:101E1000C18001814181818170470000002C014017
:101E2000003401400004004000080040000C004065
:101E300021B1028842F00102028004E002884FF6DC
:101E4000FE731A400280704731B1B0F8442042F46A
:101E50000042A0F8442005E0B0F84420C2F30E028E
:101E6000A0F8442070471AB183890B43838102E0B4
:101E700083898B43838170478182704741EA0203E3
:101E8000A0F8483070471AB183890B43838102E080
:101E900083898B438381704701894FF6F872114023
:101EA000018170470A46002101894FF68F7319405E
:101EB00011430181704730B504460D46294620463E
:101EC000FFF7F0FF208940F00700208130BD2DE9A9
:101ED000F04104460D4616461F46602D06D13B468E
:101EE000012231462046FFF75AFE05E03B4601221B
:101EF00031462046FFF79DFE29462046FFF7D2FFD8
:101F0000208940F007002081BDE8F08130B50C4603
:101F100000210189C9B24FF6FF7505EA0325154373
:101F200025432943018130BD2DE9F04105460E4688
:101F300017469846002443463A4631462846FFF75E
:101F4000E5FF2C894FF6F870044044F007044FF683
:101F50008F70044044F070042C81BDE8F081F0B52E
:101F600004460D4616461F463B4632462946204645
:101F7000FFF7CCFF208940F480402081F0BD01852F
:101F8000828270470A46002101884FF68F731940FC
:101F9000114301807047F0B50C4615461E460021DE
:101FA000002200230189028B038C4FF6F877394019
:101FB00021434FF6FC473A4040F201173A434FF6AF
:101FC000DD773B404FF6FF7707EA06172F433B4389
:101FD000018102830384F0BD0A460021018B4FF684
:101FE0008F7319401143018370470A460021018B0A
:101FF00048F6FF7319404FF6FF7303EA02231943B3
:10200000018370470A460021818B4FF68F73194078
:102010001143818370470A460021818B48F6FF7384
:1020200019404FF6FF7303EA022319438183704777
:1020300021B1028842F08002028004E002884FF65B
:102040007F731A400280704721B1828842F00402F7
:10205000828004E082884FF6FB731A4082807047CA
:1020600021B1828842F00802828004E082884FF623
:10207000F7731A408280704721B1828842F00102D2
:10208000828004E082884FF6FE731A408280704797
:102090000A460021018B4FF6F77319401143018363
:1020A00070470A460021018B4FF2FF7319404FF62B
:1020B000FF7303EA02231943018370470A46002194
:1020C000818B4FF6F77319401143818370470A469D
:1020D0000021818B4FF2FF7319404FF6FF7303EA23
:1020E00002231943818370470A460021018B4FF672
:1020F000FB7319401143018370470A460021018B8D
:102100004FF6FF3319404FF6FF7303EA02231943DA
:10211000018370470A460021818B4FF6FB731940FB
:102120001143818370470A460021818B4FF6FF33AC
:1021300019404FF6FF7303EA022319438183704766
:102140000A460021018B4FF67F731940114301832A
:1021500070470A460021018BC1F30E014FF6FF7351
:1021600003EA02231943018370470A460021818B49
:102170004FF67F7319401143818370470A4600214F
:10218000818BC1F30E014FF6FF7303EA022319435B
:10219000818370470A460021018C4FF6FD73194078
:1021A0001143018470470A460021018C4FF6F773F2
:1021B00019401143018470470A460021018C4FF6F3
:1021C000DF7319404FF6FF7303EA021319430184CA
:1021D00070470A460021018C4FF67F7319404FF675
:1021E000FF7303EA02131943018470470A46002172
:1021F000018C4FF6FF5319404FF6FF7303EA022399
:102200001943018470470A460021018C4FF2FF7385
:1022100019404FF6FF7303EA022319430184704704
:102220000A460021018C4DF6FF7319404FF6FF73EB
:1022300003EA023319430184704730B500230124B7
:102240008C40A3B2048C9C430484048C02FA01F5F4
:10225000ADB22C43048430BD30B5002304248C403F
:10226000A3B2048C9C430484048C02FA01F5ADB241
:102270002C43048430BD70B503460020002418466A
:10228000183001258D40ACB21D8CA5431D8409B1C9
:10229000082909D100EB6100056825F0700505608B
:1022A0000568154305600EE00D1FC5F34E05284473
:1022B000056825F4E045056005684FF6FF7606EAF7
:1022C00002263543056070BD21B1028842F002024A
:1022D000028004E002884FF6FD731A4002807047C6
:1022E00021B1028842F00402028004E002884FF625
:1022F000FB731A400280704721B1828842F080024D
:10230000828004E082884FF67F731A408280704793
:1023100002884FF6F7731A40028002880A4302804F
:10232000704782884FF68F731A40828082880A43F2
:102330008280704702894FF6F8731A400281028941
:102340000A430281704702894FF67F731A40028167
:1023500002890A43028170478184704781857047F2
:10236000818670470187704781877047A0F84010C9
:10237000704702884FF6FF431A40028002880A43E2
:10238000028070470146888E70470146088F70476B
:102390000146888F70470146B1F8400070470146FA
:1023A000888C70470146088D704702460020138ACA
:1023B0000B400BB1012000E000207047CA430282AD
:1023C000704730B50246002000230024158A05EA34
:1023D0000103958905EA010413B10CB1012000E065
:1023E000002030BDCA4302827047000010B5044689
:1023F000BE48844208D101218014FEF797FC0021D9
:10240000A014FEF793FC16E0B948844208D10121DC
:102410000014FEF798FC00212014FEF794FC0AE05B
:10242000B448844207D10121C013FEF78CFC00217F
:10243000E013FEF788FC10BD10B50022028802F4FC
:1024400041520B884C8823438C882343CC882343F8
:102450000C8923434C8923438C892343CC89234310
:102460001A430280838B4FF2FF74234083830B8ACD
:10247000038210BD2DE9F04F85B005460C464FF0A4
:10248000000902274FF000084FF0010B0026B2466A
:10249000A88B4FF240010840A88302202884B5F899
:1024A0001C90A068022801D100BF38E0A08810B9B4
:1024B0004FF0010B01E04FF0020B8D48854200D137
:1024C00000E000BF6846FEF7AAFBDDF800A0E08848
:1024D000B0F5007F0AD14FEA1A2000EB80004000DF
:1024E000A168B0FBF1F0401D86B20BE04FEA4B1043
:1024F000BAFBF0F000EB80004000A168B0FBF1F007
:10250000401D86B20A20B6FBF0F606F00108A6EBE5
:102510000800C0F34F074FF6FF7000EA0828022FAB
:1025200001DBFF2F02DD02274FF00008E08840EAC0
:10253000080038432884A088A1890843618808439B
:102540002188084340F4006040EA0909A5F81C907E
:1025500005B0BDE8F08F0021018041808180C180FD
:10256000018141818181C181072101827047002160
:10257000018041808180C1800221816000218181B0
:10258000704721B1028842F04002028004E00288D4
:102590004FF6BF731A400280704721B1828B42F41C
:1025A0008062828304E0828B4FF6FF331A4082837D
:1025B000704730B5002400230C110125A540ABB2B3
:1025C0001AB185881D43858002E085889D438580FA
:1025D00030BD1AB183880B43838002E083888B432C
:1025E00083807047818170470146888970474FF624
:1025F000FF62914204D0028842F48072028004E0BB
:1026000002884FF6FF631A400280704721B182882A
:1026100042F00402828004E082884FF6FB731A4085
:102620008280704702884FF2FF731A40028002884E
:102630000A4302807047018841F48051018070474D
:1026400021B1028842F40052028004E002884DF673
:10265000FF731A400280704702460020012901D012
:10266000108B00E0908A70470146088A7047B1F5E8
:10267000804F04D1028842F48042028004E0028844
:102680004BF6FF731A400280704702460020138900
:102690000B400BB1012000E000207047CA430281CB
:1026A0007047F0B50246002000240023002501F009
:1026B0000F070126BE40B4B20B1101269E40B3B2F3
:1026C000968806EA03051689264016B10DB1012049
:1026D00000E00020F0BD10B5002201F00F0401233E
:1026E000A3409AB2D343038110BD000000300140E3
:1026F00000380040003C004010B50446FA488442CF
:1027000008D101214015FEF711FB00216015FEF7ED
:102710000DFB17E0F548844208D101210015FEF7B2
:1027200005FB00212015FEF701FB0BE0F048844279
:1027300008D10121C803FEF7F9FA00214FF4004047
:10274000FEF7F4FA10BD30B50246002000235068B1
:10275000E84C20400D790C6844EA05242043506081
:102760009068E54C2040D1E902542C434D7944EA6D
:10277000450420439060D06A20F470000C7C641EF5
:10278000E4B2234340EA0350D06230BD002101602F
:10279000017141718160C16001210174704721B1F3
:1027A000826842F00102826003E0826822F0010246
:1027B0008260704721B1826842F48072826003E0D7
:1027C000826822F480728260704710B50023CBB219
:1027D0001AB144681C43446002E044689C4344606E
:1027E00010BD816841F008018160704701460020FA
:1027F0008A6802F008020AB1012000E00020704758
:10280000816841F0040181607047014600208A68B8
:1028100002F004020AB1012000E00020704721B15B
:10282000826842F4A002826003E0826822F4A0027F
:1028300082607047014600208A6802F480020AB173
:10284000012000E00020704710B50A460021002357
:10285000416821F46041531E41EA4331416010BD9B
:1028600021B1426842F40062426003E0426822F40F
:10287000006242607047F0B504460D46002000211A
:10288000092D11DDE068A5F10A0606EB46070726CB
:1028900006FA07F18843A5F10A0606EB460603FA95
:1028A00006F10843E0600CE0206905EB45070726C8
:1028B00006FA07F1884305EB450603FA06F10843DB
:1028C0002061072A0FDA606B561E06EB86071F266B
:1028D00006FA07F18843561E06EB860605FA06F14E
:1028E0000843606322E00D2A0FDA206BD61F06EB47
:1028F00086071F2606FA07F18843D61F06EB8606D1
:1029000005FA06F10843206310E0E06AA2F10D0623
:1029100006EB86071F2606FA07F18843A2F10D068B
:1029200006EB860605FA06F10843E062F0BD21B128
:10293000826842F48012826003E0826822F480128E
:10294000826070470146C86C80B2704766484C3060
:102950000068704721B1426842F48062426003E03F
:10296000426822F480624260704721B1426842F4BA
:102970008052426003E0426822F480524260704715
:102980000A460021816821F4E041114381607047CB
:1029900021B1826842F40042826003E0826822F43E
:1029A00000428260704721B1826842F40212826064
:1029B00003E0826822F40212826070470146002020
:1029C0008A6802F400120AB1012000E0002070477A
:1029D000F0B504461546002000220026092911DD25
:1029E000E068A1F10A0707EB470C072707FA0CF28A
:1029F0009043A1F10A0707EB470703FA07F21043D8
:102A0000E0600CE0206901EB410C072707FA0CF2AB
:102A1000904301EB410703FA07F210432061A06BDA
:102A2000C0F30156EF1C06F1010CA7EB0C0707EBF6
:102A3000870C1F2707FA0CF29043EF1C06F1010CDC
:102A4000A7EB0C0707EB870701FA07F21043A06317
:102A5000F0BD10B50A4600210023816B21F440111E
:102A6000531E41EA0351816310BD08B50023009352
:102A70000090009B0B440093009B1A6008BD08B5B2
:102A8000024600200090009201F12800009B1844AB
:102A900000900098006880B208BD0A460021416895
:102AA000164B194011434160704741628262704782
:102AB0000A460021416821F01F011143416070471F
:102AC00040B109490831096841F40001064A083259
:102AD000116007E004490831096821F40001024A45
:102AE00008321160704700000024014000280140B6
:102AF000003C0140FFFEF0FFFDF7F1FFFFFD3FFF4F
:102B00000246002013680B400BB1012000E00020BA
:102B10007047CA430260704770B502460020002328
:102B200000240B125568CEB205EA060415681D4054
:102B300015B10CB1012000E0002070BD00220A1286
:102B4000D34303607047000001684FF6FE721140E6
:102B500001600021016041608160C1608D4988424F
:102B600008D18C490839496841F00F01894A083A6F
:102B700051608AE087491431884208D18549083973
:102B8000496841F0F001834A083A51607DE081498B
:102B90002831884208D17F490839496841F4706179
:102BA0007C4A083A516070E07A493C31884208D149
:102BB00078490839496841F47041764A083A5160C9
:102BC00063E074495031884208D172490839496834
:102BD00041F470216F4A083A516056E06D49643102
:102BE000884208D16B490839496841F47001694A43
:102BF000083A516049E067497831884208D165490F
:102C00000839496841F07061624A083A51603CE015
:102C10006149884206D1011F096841F00F01021F76
:102C2000116032E05C491431884208D15A49091FC9
:102C3000096841F0F001584A121F116025E0564919
:102C40002831884208D15449091F096841F470614C
:102C5000514A121F116018E04F493C31884208D197
:102C60004D49091F096841F470414B4A121F116018
:102C70000BE049495031884207D14749091F09688B
:102C800041F47021444A121F1160704710B50022B0
:102C9000026847F6F0739A430C6A8B6823430C6909
:102CA00023434C6923438C692343CC6923434C6AF7
:102CB00023438C6A23431A430260CB6843600B684A
:102CC00083604B68C36010BD00210160416081607A
:102CD000C160016141618161C161016241628162E2
:102CE000704721B1026842F00102026004E002680C
:102CF0004FF6FE731A40026070471AB103680B4327
:102D0000036002E003688B430360704741607047D3
:102D10000146486880B2704701460020002201F059
:102D200080531BB11C4B083B1A6802E0194B083B4F
:102D30001A6802EA01030BB1012000E0002070478D
:102D400000F0805119B11449091F086002E01149CF
:102D500008394860704701460020002201F0805386
:102D60001BB10D4B083B1A6802E00A4B083B1A687E
:102D700002EA01030BB1012000E00020704700F0DF
:102D8000805119B10449091F086002E0014908395E
:102D90004860704708000240080402400CB500205B
:102DA000019000906C48006840F480306A490860E7
:102DB00000BF6948006800F4003000900198401C92
:102DC0000190009818B90198B0F5A06FF1D1624850
:102DD000006800F4003010B10120009001E00020F4
:102DE00000900098012843D15C48006840F0100032
:102DF0005A4908600846006820F003000860084649
:102E0000006840F00200086053484068524948603A
:102E10000846406848600846406840F48060486062
:102E20000846406820F47C1048600846406840F43A
:102E3000F81048600846006840F08070086000BFE5
:102E40004548006800F000700028F9D0424840680A
:102E500020F00300404948600846406840F0020006
:102E6000486000BF3C48406800F00C000828F9D1D9
:102E70000CBD10B5FFF792FF10BD10B536480068C5
:102E800040F0010034490860084640683449084071
:102E90003149486008460068324908402E490860B8
:102EA0000846006820F4802008600846406820F446
:102EB000FE0048604FF41F008860FFF7DAFF4FF014
:102EC00000602949086010BD10B5002100200022D3
:102ED000214B5B6803F00C0121B1042906D00829BD
:102EE00028D107E0214B224C236027E0214B204CC6
:102EF000236023E0184B5B6803F47010164B5B688B
:102F000003F48032022303EB904022B91A4B43436F
:102F1000174C23600DE0104B5B6803F4003323B1C2
:102F2000124B4343124C236003E0124B4343104CBB
:102F3000236003E00D4B0E4C236000BF00BF064B27
:102F40005B68C3F303130D4CE15C094B1B68CB407A
:102F5000074C236010BD000000100240002002401A
:102F60000000FFF8FFFFF6FE08ED00E000127A0017
:102F7000440000200024F40000093D004800002027
:102F80004FF0E020006920F004004FF0E0210861DC
:102F90000920234908700846007800EB4001C1EB86
:102FA000C0104FF6FF7101EAC0001E49088070474B
:102FB00001461C4A12884A434FF0E0235A6100221E
:102FC0009A6101221A6100BF4FF0E022106900F0FF
:102FD00001021AB100F48032002AF5D000224FF02D
:102FE000E0231A619A61704701460D4A12784A43FC
:102FF0004FF0E0235A6100229A6101221A6100BF5A
:103000004FF0E022106900F001021AB100F48032A2
:10301000002AF5D000224FF0E0231A619A61704730
:10302000580000205A00002010B5FDF7F7FC4FF4BF
:103030008030FDF713FDFDF750FD012830D1002051
:10304000FDF791FD0020FDF7A0FD4FF48060FDF736
:1030500093FD1448006840F01000124908600846CB
:10306000006820F0030008600846006840F0020095
:1030700008604FF4E0114FF44030FDF757FD012098
:10308000FDF760FD00BF3920FDF70BFD0028FAD0E9
:103090000220FDF75AFD00BFFDF760FD0828FBD1B7
:1030A00010BD000000200240002109E0002201E0E4
:1030B000531C9AB242F234139A42F9DB4B1C99B278
:1030C0008142F3DB704708B501210820FDF714FEAB
:1030D00001211020FDF710FE01210846FDF70CFE2E
:1030E00001212A48FDF71DFC01212948FDF719FCA3
:1030F0000820ADF8000003208DF8020010208DF8A4
:10310000030069462348FDF73BFB4FF40050ADF840
:10311000000003208DF8020010208DF8030069469E
:103120001D48FDF72DFB08BD70B505460C460DE0AA
:1031300008211848FDF7D3FBA0B2FFF7B5FF08211F
:103140001448FDF7CAFBA0B2FFF7AEFF2800A5F1B7
:103150000101CDB2ECD170BD70B505460C460FE053
:103160004FF400510C48FDF7B8FBA0B2FFF79CFFED
:103170004FF400510848FDF7B2FBA0B2FFF794FFEF
:103180002800A5F10101CDB2EAD170BD00043000E4
:1031900000023000000C01400010014008B54FF45F
:1031A000A060FDF71FFA1D208DF8000000208DF8AB
:1031B000010001208DF802008DF803006846FDF73C
:1031C00016FA25208DF8000003208DF8010001205B
:1031D0008DF802008DF803006846FDF708FA08BD77
:1031E00010B586B00446012144F20400FDF784FDC9
:1031F0004FF40070ADF8140018208DF8170003206C
:103200008DF8160005A93448FDF7BAFA4FF480602E
:10321000ADF8140004208DF8170005A92E48FDF71D
:10322000AFFA01940020ADF80800ADF80A00ADF83F
:103230000C00ADF810000C20ADF80E0001A92748D5
:10324000FDF703FE012240F225512448FDF795FECB
:1032500001212248FDF785FE06B010BD70B5044679
:103260000D46E1B21D48FDF7E9FE00BF40211B48B5
:10327000FDF752FF0028F9D0204670BD10B5044676
:1032800000BF20211548FDF747FF0028F9D013485B
:10329000FDF7D8FE10BD10B540F225510F48FDF7DF
:1032A00051FF90B10D48FDF7CDFE0D490D4A126852
:1032B00088540C480068401C0A49086008460068A9
:1032C0001F2802D101200849086040F22551034817
:1032D000FDF762FF10BD000000080140003801400A
:1032E000780100205C000020600000200EB5012164
:1032F0000620FDF70EFD6846FEF76AFD4FF6FF70EB
:10330000ADF804000020ADF80000ADF80600ADF8FF
:1033100002006946FE48FEF72FFA00221146FC48DB
:10332000FEF72DFE0121FA48FEF7CEFF2021F848D6
:10333000FEF7B8FD0721F648FEF7FCFF8021F448B0
:10334000FFF701F80121F248FEF772FE4FF6FF7019
:10335000ADF804004820ADF800000020ADF80600EC
:10336000ADF802006946EB48FEF706FA0121E9488C
:10337000FEF75EFE0421E748FEF7DCFF0121E54889
:10338000FEF7AEFF2021E348FEF7CBFF8021E148A6
:10339000FEF7D9FF0121DF48FEF74AFD0121DC4895
:1033A000FEF746FD0EBD0020D949243108880004EF
:1033B000D84924310988084470470FB59DB0D648D4
:1033C0000168006804F018FB1590D4480168D248E1
:1033D000006804F011FB1490D1480168CE480068E1
:1033E00004F00AFB1390CD480168006804F004FB68
:1033F0001290CC480168C948006804F0FDFA1190A9
:10340000C7480168006804F0F7FA1090C5480168E1
:10341000C348006804F0F0FA0F90C24801680068E1
:1034200004F0EAFA0E902299209804F0E5FA0C9044
:10343000239904F0E1FA00210D9004F021FA01D162
:1034400021B000BDB8491D9804F0D6FA1D90B649C8
:103450001E9804F0D1FA1E90B3491F9804F0CCFADC
:103460001F902399084604F0C7FA0890229908464D
:1034700004F0C2FA06902099084604F0BDFA0590BF
:10348000069904F0CDF80790089904F0C9F809905E
:1034900004F09AF8CDE90A0103F09AFACDE90C019B
:1034A00003F0BCFA1C901C99209804F027F9209096
:1034B0001C99229804F022F922901C99239804F078
:1034C0001DF923901399119804F09EFB4FF0804151
:1034D0000D9004F091FA1B900F99149804F0A0F845
:1034E0004FF080410D9004F087FA1A9012991598C8
:1034F00004F08AFB0C90109904F086FB0D900E9955
:1035000004F08EF819901A99239804F075FA0D902A
:103510001999229804F070FA0C900D9904F074FB3C
:1035200018901999209804F067FA0D901B99239828
:1035300004F062FA0C900D9904F066FB17901B9949
:10354000229804F059FA0D901A99209804F054FA30
:103550000C900D9904F058FB16907449189804F0DB
:103560004BFA0D90724801680D9804F059F87049B3
:1035700008606E49179804F03FFA0D906D48016895
:103580000D9804F04DF86B4908606849169804F0EE
:1035900033FA0D90684801680D9804F041F86649C7
:1035A00008606648189904F027FA0C901D9904F0F9
:1035B00037F80D905E4801680D9804F031F81D90C1
:1035C0005E48179904F018FA0C901E9904F028F838
:1035D0000D90584801680D9804F022F81E90574845
:1035E000169904F009FA0C901F9904F019F80D903F
:1035F000514801680D9804F013F81F9049481F992D
:10360000006804F0F9F90B9045481E99006804F031
:10361000F3F909904148006880F0004007901D9937
:1036200004F0EAF90890099904F0EEFA0A900B996F
:1036300004F0EAFA0C90424801680C9804F0DCF9B6
:103640000D90354801680D9803F0EAFF3249086093
:1036500034481E99006804F0CFF90B9030481F9948
:10366000006804F0C9F909902B4801681D9804F01E
:10367000C3F90890099903F0D3FF0A900B9904F05D
:10368000C3FA0C902E4801680C9804F0B5F90D901F
:10369000224801680D9803F0C3FF204908602148C3
:1036A00001681D9804F0A8F90B901C481F99006848
:1036B00004F0A2F9099018481E99006804F09CF9DA
:1036C0000890099904F0A0FA0A900B9903F0A8FF5A
:1036D0000C901B4801680C9804F08EF90D9010486E
:1036E00001680D9803F09CFF0D49086008460168C9
:1036F0001D9804F081F90B9008481E99006804F0A9
:103700007BF9099004481F99006804F075F919E0E5
:1037100000080040000400406C0000207000002001
:10372000740000207800002089A18B3A6F12833A40
:103730007C0000208000002084000020CDCCCC3F05
:10374000880000200890099903F06AFF0A900B99FD
:1037500004F05AFA0C90BC4801680C9804F04CF93B
:103760000D90BA4801680D9803F05AFFB7490860F8
:1037700008460168006804F03FF90890B448016801
:10378000006804F039F90690B2480168006804F056
:1037900033F90490B0480168006804F02DF90390F3
:1037A000049903F03DFF0590069903F039FF079057
:1037B000089903F035FF099003F006FFCDE90A01EF
:1037C00003F006F9CDE90C0103F028F91C90A2489A
:1037D0001C99006803F092FF9F4908609D481C995E
:1037E000006803F08BFF9B49086099481C990068AA
:1037F00003F084FF9649086094481C99006803F020
:103800007DFF9249086095491F9804F0F5F80590EE
:1038100003F0DAFE924A934BCDE9060103F0C4FBB4
:10382000CDE90A0124980068079003F0CDFECDE9A8
:103830000801DDE90A2303F023F9CDE90C0103F0C7
:10384000EDF824990860844801684FF0804004F046
:10385000D3F804907E480168049804F0CDF80690EF
:103860007C4801684FF0404004F0C6F80490774867
:103870000168049804F0C0F80590069903F0D0FEA2
:10388000079003F0A1FECDE9080102F099FD4FF089
:103890006632754BCDE90A0103F086FBCDE90C01D8
:1038A00003F0BCF824994860249840680D906F4854
:1038B00001680D9804F0A8F92499486064480168EB
:1038C0004FF0804004F098F8019061480168019839
:1038D00004F092F803905F4801684FF0404004F014
:1038E0008BF801905B480168019804F085F802901C
:1038F000039904F089F94FF07E51049003F090FE93
:10390000059003F061FECDE90801534801684FF0CE
:10391000804004F071F802904E480168029804F06B
:103920006BF804904A4801684FF0804004F064F856
:10393000029046480168029804F05EF803900499EA
:1039400003F06EFE059003F03FFECDE90601DDE9D0
:10395000082302F07DFF4FF06632434BCDE90A01A8
:1039600003F022FBCDE90C0103F058F8249988609C
:10397000249880680D903E4801680D9804F044F941
:10398000249988603B48008840F6B831884258DC6A
:103990002498006801460D903748006803F040FE07
:1039A000354908602498406801460D903348006806
:1039B00003F036FE314908602498806801460D9076
:1039C0002F48006803F02CFE2D4908602948008824
:1039D00040F6B83188422FD12748006803F0F4FD43
:1039E0000022284BCDE90A0103F006F9CDE90C01CC
:1039F00003F014F8244908602048006803F0E4FD4F
:103A00000022204BCDE90A0103F0F6F8CDE90C01C4
:103A100003F004F81D4908601948006803F0D4FD5C
:103A20000022184BCDE90A0103F0E6F8CDE90C01BC
:103A300002F0F4FF164908600E480088401C0D494A
:103A4000088000BFFCE4000088000020780000200F
:103A500074000020700000206C00002089A18B3AC7
:103A6000FCA9F1D24D62603F66A64C409000002058
:103A700094000020AC000020B0000020B400002022
:103A8000B80000200070A740A0000020A400002083
:103A9000A8000020002109E0002201E0531C9AB296
:103AA00042F234139A42F9DB4B1C99B28142F3DBA8
:103AB0007047FE48407AFD49097A40EA0120FC49F6
:103AC0000988401A00B2FB490880F848C07AF749D3
:103AD000897A40EA0120F8490988401A00B2F7497A
:103AE0000880F248407BF149097B40EA0120F44913
:103AF0000988401A00B2F3490880EC484078EB4945
:103B0000097840EA0120F0490988401A00B2EF49DB
:103B10000880E648C078E549897840EA0120EC4908
:103B20000988401A00B2EB490880E0484079DF4933
:103B3000097940EA012000B2E7490880E348B0F97A
:103B40000000B0F5004F02DB47F6FF7002E0DF48EF
:103B5000B0F90000DD4908800846B0F9000010F512
:103B6000004F01DADD4802E0D848B0F90000D7493B
:103B70000880D848B0F90000B0F5004F02DB47F6E6
:103B8000FF7002E0D348B0F90000D249088008462F
:103B9000B0F9000010F5004F01DAD04802E0CD483E
:103BA000B0F90000CB490880CB48B0F90000B0F56F
:103BB000004F02DB47F6FF7002E0C748B0F9000093
:103BC000C54908800846B0F9000010F5004F01DA39
:103BD000C24802E0C048B0F90000BF490880B548BB
:103BE000B0F90000B0F5004F02DB47F6FF7002E0CD
:103BF000B048B0F90000AF4908800846B0F90000AD
:103C000010F5004F01DAB54802E0AA48B0F900000B
:103C1000A8490880A948B0F90000B0F5004F02DBC0
:103C200047F6FF7002E0A548B0F90000A3490880FC
:103C30000846B0F9000010F5004F01DAA74802E08D
:103C40009E48B0F900009D4908809E48B0F90000E8
:103C5000B0F5004F02DB47F6FF7002E09948B0F97B
:103C60000000984908800846B0F9000010F5004FA0
:103C700001DA9A4802E09348B0F9000091490880BF
:103C800097480068002856D19648007880B90020EF
:103C900087490880884908808949088092490860D6
:103CA000924908609249086001208E490870704767
:103CB0008D4800687F49B1F9001008448A490860BE
:103CC0008A4800687D49B1F90010084487490860B6
:103CD000874800687B49B1F90010084484490860AE
:103CE00080480078C82821D17F4800687D4909783C
:103CF00090FBF1F000B26E4908807C480068794979
:103D0000097890FBF1F000B26B49088078480068B0
:103D10007449097890FBF1F000B2694908800020ED
:103D20007049087001206E490860C0E76D4800784E
:103D3000401C6C4908706F48006800284ED16E48DE
:103D4000007880B9002060490880614908806B498B
:103D500008806B4908606B4908606B490860012066
:103D600065490870A3E7664800685849B1F9001032
:103D7000084463490860634800685649B1F9001077
:103D80000844604908605C480078C82821D15C4834
:103D900000685949097890FBF1F000B24A4908805F
:103DA000584800685449097890FBF1F000B248493E
:103DB0000880554800685049097890FBF1F000B23E
:103DC0004E49088000204C4908700120494908608C
:103DD0006DE749480078401C4749087000BF66E716
:103DE0002DE9FF4F81B00E4617461D464FF00008E3
:103DF000C146C246019803F0B3FD4449444A1278D3
:103E000041F82200304603F0ABFD4249404A1278A7
:103E100041F82200384603F0A3FD3F493C4A12789E
:103E200041F8220000242BE0404603F099FD009069
:103E3000364850F82410009803F0F2FB834603F054
:103E400053FD8046484603F08BFD0090314850F802
:103E50002410009803F0E4FB834603F045FD8146FF
:103E6000504603F07DFD00902B4850F82410009838
:103E700003F0D6FB834603F037FD8246601CC4B2D4
:103E8000142CD1DB142098FBF0F000B22880142011
:103E900099FBF0F000B2688014209AFBF0F000B2B9
:103EA000A8801B480078401C194937E09801002081
:103EB000C8000020BC000020CA000020BE00002076
:103EC000CC000020C0000020CE000020C200002056
:103ED000D0000020C4000020C60000200080FFFFAA
:103EE000D8000020F0000020E4000020E8000020BE
:103EF000EC000020DC00002000010020D2000020A7
:103F0000F4000020F8000020FC000020B401002094
:103F1000010100200402002054020020087008461D
:103F20000078142801D10020087005B0BDE8F08F9A
:103F300010B5654B0E223B21D02001F0D1FD10BD04
:103F4000F8B506460F4614461D466B460122394613
:103F5000304601F004FE2DB10120A0409DF8001074
:103F6000084305E00120A0409DF8001021EA000070
:103F7000C0B200906B4601223946304601F070FE17
:103F8000F8BD2DE9F8430746884614461D46089EAD
:103F90006B4601224146384601F0E1FD601CFF21DD
:103FA00001FA00F0C4F108012944491EFF220A4128
:103FB000104300F0FF09C5F1080006FA00F0C6B290
:103FC000C4F1070006419DF8000000EA09000090D6
:103FD0009DF80000304300906B4601224146384670
:103FE00001F03EFEBDE8F88338B504460323022203
:103FF0006B21D0200094FFF7C4FF38BD38B50446CC
:10400000022304221B21D0200094FFF7BAFF38BD01
:1040100038B50446022304221C21D0200094FFF767
:10402000B0FF38BD10B50446234606226B21D020D0
:10403000FFF786FF10BD10B50446234605226A210E
:10404000D020FFF77DFF10BD10B5044623460122A6
:104050003721D020FFF774FF10BD38B50446032385
:1040600002221A21D0200094FFF78BFF38BD10B533
:104070000020FFF7D7FFC820FFF70CFD0120FFF756
:10408000B3FF3220FFF706FD0320FFF7B7FF322012
:10409000FFF700FD0120FFF7BBFF3220FFF7FAFC1E
:1040A0000320FFF7DAFF3220FFF7F4FC0020FFF7D0
:1040B000C2FF3220FFF7EEFC0120FFF7C5FF3220E0
:1040C000FFF7E8FC10BD0000980100203EB5054652
:1040D0000C4601210846FCF71CFEADF80450ADF873
:1040E00000400020ADF80600ADF8020069464FF030
:1040F0008040FDF741FB01218807FDF799FE3EBD99
:1041000008B501210420FCF7F7FD0120ADF80000FF
:1041100018208DF8030003208DF8020069465848E6
:10412000FCF72EFB08BD1FB56020ADF80000012094
:10413000ADF802000020ADF8080069464FF080405D
:10414000FDF757FB0821C806FDF7A2FF01218807EC
:10415000FDF76EFE1FBD08B501210420FCF7CCFD64
:104160000220ADF8000018208DF8030003208DF820
:10417000020069464248FCF703FB08BD1FB56020FA
:10418000ADF800000120ADF802000020ADF80800F5
:1041900069464FF08040FDF76EFB0821C806FDF729
:1041A00080FF01218807FDF743FE1FBD08B50121EF
:1041B0000420FCF7A1FD0420ADF8000018208DF8C4
:1041C000030003208DF8020069462D48FCF7D8FA59
:1041D00008BD1FB56020ADF800000120ADF8020059
:1041E0000020ADF8080069464FF08040FDF790FBD5
:1041F0000821C806FDF762FF01218807FDF718FEB8
:104200001FBD08B501210420FCF776FD0820ADF89C
:10421000000018208DF8030003208DF80200694685
:104220001748FCF7ADFA08BD1FB56020ADF80000D7
:104230000120ADF802000020ADF8080069464FF0FB
:104240008040FDF7B0FB0821C806FDF740FF0121C3
:104250008807FDF7EDFD1FBD10B5FFF7A7FFFFF7BE
:104260004FFFFFF778FFFFF7CCFF10BD10B5FFF74A
:10427000B0FFFFF758FFFFF781FFFFF7D5FF10BD35
:104280000008014000B587B001210C20FCF734FD87
:104290001020ADF8180003208DF81A0010208DF8BA
:1042A0001B0006A9F048FCF76BFA0420ADF81800D3
:1042B00006A9EE48FCF764FA0120ADF818002820A2
:1042C0008DF81B0006A9E948FCF75AFA0521E748D2
:1042D000FCF705FB1021E448FCF701FB00F001FAB4
:1042E0000021E348FEF74DF90020ADF804004FF43B
:1042F0008270ADF806000020ADF80800ADF80A00A5
:10430000ADF80C004FF40070ADF80E001820ADF8B9
:1043100010000020ADF812000720ADF8140001A92C
:10432000D348FEF789F80121D148FEF72AF9002089
:10433000D04908600120D049C1F8900107B000BD04
:104340002DE9F04107460D4616460020CB4908608E
:10435000384600F09FF98046002405E0FF2000F079
:1043600099F92855601CC4B2B442F7DB0120C34957
:1043700008604046BDE8F0812DE9F04107460C4653
:1043800015460020BD490860384600F083F9804694
:10439000002605E014F8010B00F07CF9701CC6B291
:1043A000AE42F7DB0120B54908604046BDE8F08128
:1043B0001CB5B3A103C9CDE90001082000F0D5F96F
:1043C000052269463020FFF7D7FF052269461020F5
:1043D000FFF7B6FF002406E01DF80400A52800D072
:1043E00003E0601CC4B2052CF6DB00BF052C01D035
:1043F00001201CBD0020FCE770B505460C460020DE
:104400009E490860284600F045F90646204600F01F
:1044100041F901209849C1F89001304670BD70B54E
:104420000446002095490860204600F033F9FF203B
:1044300000F030F9054601208F49C1F89001284667
:1044400070BD70B50546102000F08FF90020894935
:10445000086020222946A020FFF78EFF01208A490C
:10446000C1F888010720FFF7DAFF0446214627201C
:10447000FFF7C2FF04F0100028B1FF21E120FFF791
:10448000BBFF102070BD04F0200008B12020F9E728
:10449000FF20F7E770B50446102000F066F907200A
:1044A000FFF7BDFF054629462720FFF7A5FF05F0CA
:1044B000400050B1202221466120FFF741FFFF213B
:1044C000E220FFF799FF002070BD0120FCE710B546
:1044D00000206849086005226C492A20FFF74CFF3C
:1044E00001212120FFF788FF01212220FFF784FF0F
:1044F00028212520FFF780FF20213120FFF77CFFB6
:104500000F212620FFF778FF0F212020FFF774FFEF
:1045100001205D49C1F8880110BD10B50020554942
:10452000086005225A493020FFF726FF0522574927
:104530002A20FFF721FF01212120FFF75DFF012144
:104540002220FFF759FF1A212420FFF755FF2821C9
:104550002520FFF751FF0F212620FFF74DFF0E21E9
:104560002020FFF749FF01204749C1F8880110BD0D
:1045700010B5044600203F490860052243492A201F
:10458000FFF7FAFE01212120FFF736FF012122204B
:10459000FFF732FF28212520FFF72EFF0F212620CD
:1045A000FFF72AFF012C07D120213120FFF724FF3C
:1045B0000F212020FFF720FF022C0CD105223449C7
:1045C0003020FFF7D9FE1A212420FFF715FF0E2116
:1045D0002020FFF711FF032C1DD120213120FFF7F0
:1045E0000BFFFF21E120FFF707FFFF21E220FFF78C
:1045F00003FF0F212020FFF7FFFE502000F04AF8B4
:10460000732000F047F801213C20FFF7F5FE072159
:104610003D20FFF7F1FE042C22D105221C49302059
:10462000FFF7AAFE1A212420FFF7E6FE0E21202024
:10463000FFF7E2FEFF21E120FFF7DEFEFF21E2208F
:10464000FFF7DAFE502000F025F8732000F022F882
:1046500001213C20FFF7D0FE07213D20FFF7CCFED3
:1046600001200449086010BD00080140000C014011
:104670000030014088812142000021429001214206
:10468000A5A5A5A5A500000000802142E77D0008A2
:10469000E27D000870B50546002405E0601CC4B248
:1046A000C82C01DD002070BD02213948FDF7EDFF67
:1046B0000028F3D029463648FDF794FF002405E092
:1046C000601CC4B2C82C01DD0020ECE70121304899
:1046D000FDF7DBFF0028F3D02D48FDF785FFC0B2C2
:1046E000E1E700B587B001210420FCF705FB0121BB
:1046F0000803FCF701FBE020ADF8180018208DF846
:104700001B0003208DF81A0006A92248FCF738F890
:10471000E0212048FCF7E1F80020ADF804004FF458
:104720008270ADF806000020ADF808000220ADF858
:104730000A000120ADF80C004002ADF80E00382050
:10474000ADF810000020ADF812000720ADF81400FD
:1047500001A90F48FDF770FE01210D48FDF711FF7B
:10476000FF20FFF797FF07B000BD10B504460848CB
:1047700000884FF6C7710840054908800846008840
:104780002043088001210248FDF7FBFE10BD000018
:104790000030014000080140FB490A780978491CB3
:1047A000F94B1970F94988547047F7490A78097824
:1047B000491CF54B1970F6498854704711B5002013
:1047C0009DF80120F0490B780978491CEE4C2170C6
:1047D000EE49CA549DF8003021460A780978491CF0
:1047E0002170EA498B549DF801100144C8B29DF82C
:1047F00000100144C8B218BD11B500209DF8012079
:10480000E1490B780978491CDF4C2170DF49CA5413
:104810009DF8003021460A780978491C2170DB494F
:104820008B549DF801100144C8B29DF8001001445A
:10483000C8B218BD11B500209DF80320D2490B78ED
:104840000978491CD04C2170D049CA549DF80220E7
:1048500021460B780978491C2170CC49CA549DF82F
:10486000012021460B780978491C2170C749CA5498
:104870009DF8002021460B780978491C2170C34916
:10488000CA549DF803100144C8B29DF802100144B7
:10489000C8B29DF801100144C8B29DF8001001444F
:1048A000C8B218BD11B500240020B749087088208F
:1048B000FFF77BFF2044C4B2A120FFF776FF20441E
:1048C000C4B20220FFF771FF2044C4B29DF801007A
:1048D000FFF76BFF2044C4B29DF80000FFF765FFAF
:1048E0002044C4B22046FFF760FF18BD30B505462E
:1048F00000240020A44908708820FFF74DFF2044C1
:10490000C4B2A120FFF748FF2044C4B20220FFF741
:1049100043FF2044C4B22846FFF750FF2044C4B2EE
:104920002046FFF739FF30BD30B505460024002092
:10493000954908708820FFF72FFF2044C4B2A120BA
:10494000FFF72AFF2044C4B20220FFF725FF2044CE
:10495000C4B22846FFF750FF2044C4B22046FFF7F8
:104960001BFF30BDF0B507460D461646002400205B
:10497000854908708820FFF70FFF2044C4B2A120AA
:10498000FFF70AFF2044C4B20620FFF705FF2044CA
:10499000C4B23846FFF730FF2044C4B22846FFF7C0
:1049A0002BFF2044C4B23046FFF726FF2044C4B298
:1049B0002046FFF7F1FEF0BD2DE9F04180460D469F
:1049C00016461F46002400206F4908708820FFF714
:1049D000E3FE2044C4B24046FFF7DEFE2044C4B2EA
:1049E0000C20FFF7D9FE2044C4B22846FFF722FF6F
:1049F0002044C4B23046FFF71DFF2044C4B23846FD
:104A0000FFF718FF2044C4B22046FFF7C5FEBDE8FB
:104A1000F08130B50546002400205B4908708820ED
:104A2000FFF7BAFE2044C4B2A120FFF7B5FE204430
:104A3000C4B20120FFF7B0FE2044C4B22846FFF7FD
:104A4000ABFE2044C4B22046FFF7A6FE30BD1FB522
:104A5000002400204C4908708820FFF79DFE204468
:104A6000C4B2AF20FFF798FE2044C4B21C20FFF769
:104A700093FE2044C4B29DF80100FFF78DFE204450
:104A8000C4B29DF80000FFF787FE2044C4B29DF831
:104A90000500FFF781FE2044C4B29DF80400FFF733
:104AA0007BFE2044C4B29DF80900FFF775FE204448
:104AB000C4B29DF80800FFF76FFE2044C4B29DF811
:104AC0000D00FFF769FE2044C4B29DF80C00FFF70B
:104AD00063FE2044C4B29DF81900FFF75DFE204438
:104AE000C4B29DF81800FFF757FE2044C4B29DF8E9
:104AF0001D00FFF751FE2044C4B29DF81C00FFF7D3
:104B00004BFE2044C4B20020FFF746FE0020FFF712
:104B100043FE0020FFF740FE0020FFF73DFE00208F
:104B2000FFF73AFE0020FFF737FE9DF82100FFF760
:104B300033FE2044C4B29DF82000FFF72DFE204430
:104B4000C4B29DF82500FFF727FE2044C4B29DF8AB
:104B50002400FFF721FE2044C4B20020FFF71CFE12
:104B60000020FFF719FE0020FFF716FE0020FFF7D8
:104B700013FE0020FFF710FE0020FFF70DFE204679
:104B8000FFF70AFE1FBD000008010020A40200205C
:104B9000020100202DE9FF4F85B081460024FE4927
:104BA0000988480002F0ADF907464FF06632FB4B2A
:104BB00002F0FAF905460022F94B02F01DF8824690
:104BC00001F02CFF0490F749049802F015FF054608
:104BD00002F0A6FE80B20390D9F8000002F0C0FEF9
:104BE0008346F149049802F007FF5946019002F00C
:104BF00003FF824602F0E8FC07460022EB4B01F07F
:104C0000FBFF054602F050F980B202900020E8490F
:104C100008708820FFF7C0FD2044C4B2AE20FFF723
:104C2000BBFD2044C4B21C20FFF7B6FD2044C4B233
:104C300099F80100FFF7B0FD2044C4B299F80000D4
:104C4000FFF7AAFD2044C4B299F80D00FFF7A4FDB8
:104C50002044C4B299F80C00FFF79EFD2044C4B272
:104C600099F80500FFF798FD2044C4B299F80400B4
:104C7000FFF792FD2044C4B299F80900FFF78CFDBC
:104C80002044C4B299F80800FFF786FD2044C4B25E
:104C90000020FFF781FD0020FFF77EFD0020FFF7D9
:104CA0007BFD0020FFF778FD0020FFF775FD002059
:104CB000FFF772FD9DF80D00FFF76EFD2044C4B2B2
:104CC0009DF80C00FFF768FD2044C4B20020FFF7F8
:104CD00063FD0020FFF760FD9DF81900FFF75CFD04
:104CE0002044C4B29DF81800FFF756FD2044C4B21A
:104CF0009DF81D00FFF750FD2044C4B29DF81C0034
:104D0000FFF74AFD2044C4B29DF82100FFF744FD9F
:104D10002044C4B29DF82000FFF73EFD2044C4B2F9
:104D20009DF84900FFF738FD2044C4B29DF84800C3
:104D3000FFF732FD2044C4B29DF80900FFF72CFDB7
:104D40002044C4B29DF80800FFF726FD2044C4B2F9
:104D50002046FFF721FD09B0BDE8F08F1FB5002404
:104D60000020934908708820FFF716FD2044C4B244
:104D7000AC20FFF711FD2044C4B21C20FFF70CFD4E
:104D80002044C4B2AD20FFF707FD2044C4B29DF813
:104D90000100FFF701FD2044C4B29DF80000FFF7B9
:104DA000FBFC2044C4B29DF80500FFF7F5FC20444D
:104DB000C4B29DF80400FFF7EFFC2044C4B29DF894
:104DC0000900FFF7E9FC2044C4B29DF80800FFF792
:104DD000E3FC2044C4B29DF80D00FFF7DDFC204445
:104DE000C4B29DF80C00FFF7D7FC2044C4B29DF874
:104DF0001900FFF7D1FC2044C4B29DF81800FFF75A
:104E0000CBFC2044C4B29DF81D00FFF7C5FC204434
:104E1000C4B29DF81C00FFF7BFFC2044C4B20020C0
:104E2000FFF7BAFC0020FFF7B7FC0020FFF7B4FC47
:104E30000020FFF7B1FC0020FFF7AEFC0020FFF7D9
:104E4000ABFC0020FFF7A8FC0020FFF7A5FC00202A
:104E5000FFF7A2FC0020FFF79FFC0020FFF79CFC5F
:104E60000020FFF799FC0020FFF796FC0020FFF7D9
:104E700093FC0020FFF790FC2046FFF78DFC1FBD40
:104E800070B5064600244B48FFF7DBFA054670BDB7
:104E9000704770B50446002506E029466A1CD5B265
:104EA000454A505C01F0FEF9A542F6DB70BD10B535
:104EB0000D2001F0F7F90A2001F0F4F910BD70B5EA
:104EC000044642F21070B4FBF0F03030C5B2284610
:104ED00001F0E8F942F21070B4FBF0F100FB114070
:104EE0004FF47A71B0FBF1F03030C5B2284601F0D2
:104EF000D9F94FF47A70B4FBF0F100FB1140642152
:104F0000B0FBF1F03030C5B2284601F0CBF9642097
:104F1000B4FBF0F100FB11400A21B0FBF1F000F10D
:104F20003005284601F0BEF90A20B4FBF0F100FB81
:104F3000114000F13005284601F0B4F970BD70B59C
:104F400004464FF47A70B4FBF0F03030C5B2284616
:104F500001F0A8F94FF47A70B4FBF0F100FB1140B6
:104F60006421B0FBF1F03030C5B2284601F09AF967
:104F70006420B4FBF0F100FB11400A21B0FBF1F01A
:104F800000F13005284601F08DF90A20B4FBF0F15C
:104F900000FB114012E000005601002066660A4046
:104FA0000000B040000020410000C84200388F409F
:104FB00008010020A40200200201002000F13005B9
:104FC000284601F06FF970BD70B504466420B4FB4B
:104FD000F0F03030C5B2284601F064F96420B4FB2B
:104FE000F0F100FB11400A21B0FBF1F000F13005B7
:104FF000284601F057F90A20B4FBF0F100FB1140FC
:1050000000F13005284601F04DF970BD70B5044639
:105010000A20B4FBF0F03030C5B2284601F042F966
:105020000A20B4FBF0F100FB114000F130052846E6
:1050300001F038F970BD2DE9FC5F4FF00009002444
:1050400000BF06E07348005D484400F0FF09601CA3
:10505000C4B21F2CF6DB6F48C07F484501D0BDE8C5
:10506000FC9F6C4800788A2800D0F8E769484078AF
:105070008B287DD1674880781C28FAD16548C07894
:10508000AD2840D164498868644902F0B5FC0190BC
:1050900002F046FC85B260494868604902F0ACFC09
:1050A000019002F03DFC86B25B4908685B4902F062
:1050B000A3FC019002F034FC87B259498868574933
:1050C00002F09AFC019002F02BFC1FFA80F8544980
:1050D0004868524902F090FC019002F021FC1FFA4E
:1050E00080FA4F4908684D4902F086FC019002F0B1
:1050F00017FC1FFA80FB3B46424651465846CDE915
:105100000065FFF72BFE4348C078AE287FD14149A8
:105110004979404A127941EA022002F021FC824694
:1051200002F052FA074600223E4B01F065FD0546AB
:1051300001F074FC3A4908603649C979354A9279D8
:1051400041EA022002F00CFC824602F03DFA0746DA
:105150000022344B01F050FD054601F05FFC304960
:1051600048602C49497A2B4A127A41EA022000E031
:105170004DE002F0F5FB824602F026FA07460022D7
:10518000284B01F039FD054601F048FC24498860B0
:105190002049C97A1F4A927A41EA022002F0E0FBD4
:1051A000824602F011FA074600221E4B01F024FD50
:1051B000054601F033FC184908601649497B154A39
:1051C000127B41EA022002F0CBFB824602F0FCF99E
:1051D00007460022134B01F00FFD054601F01EFCAF
:1051E0000D4948600B49C97B0A4A927B41EA02207B
:1051F00002F0B6FB824602F0E7F907460022094BAF
:1052000001F0FAFC054601F009FC0349886000BF83
:1052100025E7000078010020D40200200000C842E9
:10522000C4020020000059404FF07E50D64908606B
:10523000002048604FF07C508860D448C8604FF030
:105240007E50D3490860002048604FF07C50886051
:10525000CE48C860704770B5CE480168CE48006837
:1052600002F0D2FCCD490860CA48006802F0ACF9EF
:105270000446CB4ACB4B01F095FF0CD2C5480068E1
:1052800002F0A2F90446C64AC74B01F051FE02D211
:105290000020C6490860BC494868BE49096802F058
:1052A000ABFB0446C1480168204602F0A2FCBF499E
:1052B0000860BF49B948006802F09EFBB249C86067
:1052C000C868002102F064FB0AD2AF48C06880F0D1
:1052D0000044B849204602F0A3F9AB49C86006E093
:1052E000A949C868B34902F09BF9A749C860A64814
:1052F000C168AE48006802F04BFC03D2A248C06807
:10530000AA490860A048C168A848006802F040FCAB
:1053100005D29D48C06880F00040A4490860A648B6
:10532000B0F9000002F01CFB064697488168304641
:1053300002F062FB0446944908689849096802F043
:105340005BFB064699480168304602F069F905465C
:10535000214602F059FC994908609948016899482A
:10536000006802F051FC984908609548006802F016
:105370002BF904468A4A8B4B01F014FF0CD290485B
:10538000006802F021F90446854A874B01F0D0FD00
:1053900002D200208D4908607D4948688849096823
:1053A00002F02AFB044689480168204602F021FCED
:1053B000864908607E498448006802F01DFB7449F4
:1053C000C860C868002102F0E3FA0AD27048C068D9
:1053D00080F000447749204602F022F96C49C86009
:1053E00006E06B49C868734902F01AF96849C86059
:1053F0006748C1687548006802F0CAFB03D2644878
:10540000C068724908606248C1687048006802F06C
:10541000BFFB05D25E48C06880F000406B49086061
:105420006B48B0F9000002F09BFA064658488168C4
:10543000304602F0E1FA04465549086862490968B5
:1054400002F0DAFA064661480168304602F0E8F8F0
:105450000546214602F0D8FB5E4908605E480068B8
:1054600002F07EFA064655480168304602F0CCFB51
:10547000054658480168284602F0D2F8044602F072
:1054800033FA00B2554908805348006802F068FAC0
:1054900006464A480168304602F0C2F805464D48C3
:1054A0000168284602F0BCF8044602F01DFA00B27A
:1054B0004B4908804848006802F052FA06463F48C7
:1054C0000168304602F0ACF80546424801682846BB
:1054D00002F09AFB044602F007FA00B24149088044
:1054E0003D48006802F03CFA064634480168304600
:1054F00002F08AFB054637480168284602F084FB23
:10550000044602F0F1F900B23749088070BD2DE978
:10551000F04104460D4616461F46B4F57A7F01DB7E
:1055200040F2E734B5F57A7F01DB40F2E735B6F5B6
:105530007A7F01DB40F2E736B7F57A7F01DB40F294
:10554000E737002C00DA0024002D00DA0025002EB9
:1055500000DA0026002F00DA0027A9B24FF08040C1
:10556000FCF7FEFEB1B24FF08040FCF7FBFEA1B2AB
:105570004FF08040FCF7F8FEB9B24FF08040FCF7E6
:10558000F5FEBDE8F0810000C40200200000964353
:10559000D4020020180100200C010020240100206A
:1055A0009A9999999999B9BF9999B93F440100205D
:1055B000000020410000C842BC000020380100204B
:1055C0001C010020100100202801002048010020BB
:1055D000BE0000203C010020340100202C010020EE
:1055E0002E01002030010020320100203EB504468B
:1055F00001210220FBF78DFB0D48FBF7E9FFADF819
:1056000004404720ADF800000020ADF80600ADF8DA
:10561000020069460648FCF7AFF80122114604482B
:10562000FCF721FC01210248FCF702FC3EBD000012
:10563000000400402DE9F04704468946207861784F
:1056400040EA0120C9F80000A178E27841EA02218D
:10565000A1F2B27001F055FC07460022414B01F067
:10566000CBFA054601F0DAF9C9F80400217962792C
:1056700041EA0221A1F2E67001F043FC0546002256
:10568000384B01F0B9FA074601F0C8F9C9F808002B
:10569000A179E27941EA022002F062F9C9F80C002E
:1056A000D9F80000C8281EDA2F49D9F80C0002F0FA
:1056B0006FF918D22D480088B0F5FA7F0DD12CA1D2
:1056C00009F1100000F018FD4FF400512A48FBF7D3
:1056D00004F900202549088008E024480088401C7F
:1056E0002249088002E0002020490880D9F8000003
:1056F000C8281EDA2149D9F80C0002F049FA18D25C
:105700001F480088B0F5FA7F0DD11EA109F11000E5
:1057100000F0F2FC4FF400511748FBF7E0F80020CE
:105720001749088008E016480088401C1449088082
:1057300002E0002012490880207A612807D113482E
:105740000068134908601348006813490860207A0C
:10575000622804D100200E4908600F490860BDE8A6
:10576000F08700000080514000007A445001002082
:1057700073746172740000000010014000803B45AA
:105780005201002073746F7000000000A40000201C
:1057900090000020A80000209400002008B50121FE
:1057A0000846FBF79CFA01214FF40270FBF7A4FABC
:1057B0000220ADF8000000208DF80300694637484C
:1057C000FAF7DEFF08BD00B591B03548FDF7BCF92A
:1057D0003448069034480790002008900120099032
:1057E00000200A900B904FF480700C9080000D9078
:1057F00020200E9000020F900020109006A928484B
:10580000FDF744FA01212648FDF76BFA00200190CC
:1058100001208DF808008DF809004FF460200390F6
:105820000020049001208DF8140001A91D484C3877
:10583000FCF789FF0523012209211A484C38FDF79E
:105840001AF8012117484C38FCF7B4FF012115481C
:105850004C38FCF7A4FF13484C38FCF7C2FF00BFDC
:1058600010484C38FCF7C2FF0028F9D10D484C38DD
:10587000FCF7C6FF00BF0B484C38FCF7C6FF0028FA
:10588000F9D1012107484C38FCF7C9FF11B000BD20
:1058900010B5FFF783FFFFF796FF10BD000C014026
:1058A000080002404C24014056010020002109E07C
:1058B000002201E0531C9AB242F234139A42F9DBFF
:1058C0004B1C99B28142F3DB704708B500214FF4BD
:1058D0008000FBF71EFA4FF48060ADF80000032053
:1058E0008DF8020010208DF803006946FD48FAF794
:1058F00047FF0520FFF7DAFF4FF48061F948FAF718
:10590000ECFF4FF48061F748FAF7E9FF4FF480614C
:10591000F448FAF7E2FF4FF48061F248FAF7DFFF4C
:105920004FF48061EF48FAF7D8FF4FF48061ED48FB
:10593000FAF7D5FF4FF48061EA48FAF7CEFF4FF44B
:105940008061E848FAF7CBFF4FF48061E548FAF749
:10595000C4FF4FF48061E348FAF7C1FF4FF4806160
:10596000E048FAF7BAFF4FF48061DE48FAF7B7FF74
:105970004FF48061DB48FAF7B0FF4FF48061D948FB
:10598000FAF7ADFF4FF48061D648FAF7A6FF4FF45F
:105990008061D448FAF7A3FF4FF48061D148FAF749
:1059A0009CFF4FF48061CF48FAF799FF4FF4806174
:1059B000CC48FAF792FF4FF48061CA48FAF78FFF9C
:1059C0004FF48060ADF8000003208DF802001C2029
:1059D0008DF803006946C348FAF7D2FE0121880515
:1059E000FBF797F908BD2DE9F04387B004460D4653
:1059F00017461E46DDE90E8901210820FBF77CF9D8
:105A0000FFF763FF01218805FBF783F94FF440603E
:105A1000ADF8180003208DF81A001C208DF81B002B
:105A200006A9B048FAF7ACFEAF48FBF7CFFB002160
:105A3000AD48FBF762FC0020ADF80C004BF6FF70A0
:105A4000ADF80E00ADF810404FF48060ADF81200D4
:105A50000001ADF81400029502A9A348FBF7CFFBA3
:105A60000121A148FBF749FC01219F48FBF781FC7C
:105A70004FF4A060FAF7B6FD22208DF804008DF8EF
:105A800005708DF8066001208DF8070001A8FAF76F
:105A9000AEFD21208DF804008DF805808DF806906C
:105AA00001208DF8070001A8FAF7A1FD07B0BDE8B5
:105AB000F0834FF480608B49143108608948001DE1
:105AC000006840F480608749091D08607047854878
:105AD000001D006840F440608249091D086070475D
