:020000040800F2
:100000009805002001010008290400082B040008BD
:100010002F04000833040008370400080000000023
:100020000000000000000000000000003B04000889
:100030003D040008000000003F04000841040008DF
:100040001B0100081B0100081B0100081B01000820
:100050001B0100081B0100081B0100081B01000810
:100060001B0100081B0100081B0100081B01000800
:100070001B0100081B0100081B0100081B010008F0
:100080001B0100081B0100081B0100081B010008E0
:100090001B0100081B0100081B0100081B010008D0
:1000A0001B0100081B0100081B0100081B010008C0
:1000B0001B0100081B0100081B0100081B010008B0
:1000C0001B0100081B0100081B0100081B010008A0
:1000D0001B010008972500081B0100081B010008F0
:1000E0001B0100081B0100081B010008DFF80CD0F1
:1000F00005F0C2F8004800472501000898050020D7
:100100000648804706480047FEE7FEE7FEE7FEE7B1
:10011000FEE7FEE7FEE7FEE7FEE7FEE73322000824
:10012000ED0000089AB020210BA804F00EFC00207E
:100130000A900990A7A103C9CDE907010020069004
:10014000059002F04DF902F0F7F84FF4E13002F0BB
:10015000B9F902F085F902F049FA02F089FB0021B1
:1001600040F2E73003F05CFA03F08BF902F092FF03
:1001700003F01CFB03F024FB00231A461946184623
:1001800004F06DFB03F028FB02E020209349086097
:1001900003F0B8FB0028F8D103F049FC04F0F6F9AD
:1001A00016E102F09AFF16A802F0FBFD13A802F078
:1001B00050FE0BA803F01EFC002855D19DF82C1012
:1001C0009DF82D2041EA022004F031FE804604F023
:1001D000B2FE06460022824B04F0BAFD044604F04B
:1001E000EDFE0A900A9804F0A6FE064600227D4B1A
:1001F00004F03CFD044604F066FE09909DF82E10C4
:100200009DF82F2041EA0221A1F2B27004F01DFEF8
:1002100006460022744B04F09BFD044604F0CEFE1B
:1002200006909DF830109DF8312041EA0221A1F698
:10023000480004F00AFE064600226B4B04F088FDDD
:10024000044604F0BBFE05909DF83200612803D1FE
:1002500066A107A804F092FB9DF83200622803D142
:100260005CA107A804F08AFB5AA107A804F078FB58
:1002700030B900231A461946184604F0F0FA23E074
:100280005AA107A804F06CFBF0B95A490698086017
:1002900059490598086059490998086058491598BE
:1002A000086058491498086004F087F95648B0F976
:1002B00000305648B0F900205548B0F900105548B4
:1002C000B0F9000004F0CBFA53480068012806D1C9
:1002D00004F052F800205049086050490860504925
:1002E000149804F0ACFB064604F0C0FD04B24C497F
:1002F000159804F0A4FB064604F0B8FD05B20020F2
:100300000090034602460146CDE90254019003F0F5
:10031000A8FD202003F064FF3B48B0F9000004F082
:1003200094FD804600222E4B04F012FD064600226A
:100330003C4B04F09BFC044604F0E4FD1FFA80FAF9
:100340003248B0F9000004F080FD80460022244BC2
:1003500004F0FEFC06460022324B04F087FC044603
:1003600004F0D0FD1FFA80FB2948B0F9000004F02A
:100370006CFD804600221A4B04F0EAFC064600227F
:10038000284B04F073FC044604F0BCFD80B20490DA
:100390002048B0F9000004F058FD06460022104B3A
:1003A00004F0D6FC804600221E4B04F05FFC04469D
:1003B00004F0A8FD80B203904FF4A07053465A4653
:1003C0000090DDE9030103F0E8FD202003F008FFC1
:1003D000E7E6000073746F7000000000140C014029
:1003E00000408F4000388F4000805140737461722C
:1003F00074000000D4000020D8000020FC00002081
:10040000E0000020E4000020FA000020F8000020B6
:10041000F6000020F4000020300000202C00002016
:100420000000C84200005940704700BFFEE700BF0F
:10043000FEE700BFFEE700BFFEE77047704770476A
:100440007047000031490143314A1160704770B56F
:10045000002100230F22C47804B32D4C246804F437
:10046000E064C4F5E064210AC1F10403CA404478A1
:1004700004FA03F18478144021430901254C0678DD
:10048000A155047804F01F050124AC4005786D11D6
:10049000AD0005F1E025C5F8004109E0047804F05D
:1004A0001F050124AC401C4D0678761145F8264006
:1004B00070BD1A4A0A400243154B1B1F1A60704751
:1004C00039B1134A121D12680243114B1B1D1A60E9
:1004D00006E00F4A121D126882430D4B1B1D1A6065
:1004E0007047042808D14FF0E021096941F0040168
:1004F0004FF0E022116107E04FF0E021096921F09F
:1005000004014FF0E0221161704700000000FA057D
:100510000CED00E000E400E080E100E080FFFF1F60
:1005200010B50446CC48844208D10121042000F0D3
:100530002DFB0021042000F029FB46E0C74884423F
:1005400008D10121082000F021FB0021082000F043
:100550001DFB3AE0C248844208D10121102000F07E
:1005600015FB0021102000F011FB2EE0BD48844255
:1005700008D10121202000F009FB0021202000F0FB
:1005800005FB22E0B848844208D10121402000F058
:10059000FDFA0021402000F0F9FA16E0B348844249
:1005A00008D10121802000F0F1FA0021802000F024
:1005B000EDFA0AE0AE48844207D10121801500F02F
:1005C000E5FA0021A01500F0E1FA10BD10B50121F7
:1005D000084600F0DBFA0021012000F0D7FA10BD38
:1005E0002DE9F041024600250026002000230024CA
:1005F000002791F803C00CF00F0591F803C00CF030
:10060000100CBCF1000F03D091F802C04CEA0505B4
:1006100091F800C0BCF1000F31D0146800202BE02D
:100620004FF0010C0CFA00F3B1F800C00CEA03061D
:100630009E4220D183004FF00F0C0CFA03F7BC430D
:1006400005FA03FC4CEA040491F803C0BCF1280F3E
:1006500006D14FF0010C0CFA00FCC2F814C00AE0FD
:1006600091F803C0BCF1480F05D14FF0010C0CFA12
:1006700000FCC2F810C0401C0828D1D31460B1F8A7
:1006800000C0BCF1FF0F34DD546800202EE000F103
:10069000080C4FF0010808FA0CF3B1F800C00CEA9E
:1006A00003069E4221D183004FF00F0C0CFA03F792
:1006B000BC4305FA03FC4CEA040491F803C0BCF106
:1006C000280F05D100F1080C08FA0CF8C2F81480C4
:1006D00091F803C0BCF1480F07D100F1080C4FF0AE
:1006E000010808FA0CF8C2F81080401C0828CED384
:1006F0005460BDE8F0814FF6FF71018002218170E6
:100700000421C17070470246002093680B400BB172
:10071000012000E0002070470146886880B27047E1
:1007200002460020D3680B400BB1012000E00020FE
:1007300070470146C86880B27047016170474161E7
:1007400070470AB1016100E041617047C1607047C4
:100750004FF480320A4382618161826182698269D9
:10076000704702460020434B18684FF680731840CC
:1007700040EA021008433F4B186070473E49C86189
:100780007047F0B50A46002300240021002500F040
:100790000046B6F1004F02D1364EF16901E0354E08
:1007A0007168C0F3034583B200F44016B6F5401FEC
:1007B00008D121F070612F4E766826F070662D4FBB
:1007C0007E6012E000F48016B6F5801F06D1032685
:1007D00006FA05F4A14341F0706106E0460D3601CA
:1007E00003FA06F6B14341F0706122B1460D3601BD
:1007F00003FA06F6314300F00046B6F1004F02D18D
:100800001C4EF16101E01B4E7160F0BD30B500225D
:100810008B071C0F0F2303FA04F2164B08338C10BE
:1008200053F824309343134C08348D1044F825308A
:1008300023468C1053F824308C07240F00FA04F45C
:1008400023430C4C08348D1044F8253030BD0A4940
:10085000DC3108607047000000080140000C0140D6
:10086000001001400014014000180140001C01402C
:10087000002001400000014000002042DF480068E5
:1008800040F00100DD49086008464068DC49084046
:10089000DA49486008460068DA490840D7490860E4
:1008A0000846006820F4802008600846406820F46C
:1008B000FE0048604FF41F0088607047CF49096808
:1008C00021F48031CD4A11601146096821F480215C
:1008D0001160B0F5803F03D0B0F5802F0ED106E057
:1008E000C649096841F48031C44A116007E0C34930
:1008F000096841F4A021C14A116000E000BF00BFB7
:10090000704710B501460022002300204A11012A39
:1009100002D1BA4C236806E0022A02D1B74C236AFE
:1009200001E0B64C636A01F01F02012494401C40B0
:100930000CB1012000E0002010BD38B5002000906F
:100940000024002500BF3120FFF7DBFF054600989B
:10095000401C00900098B0F5A06F01D0002DF2D09F
:100960003120FFF7CEFF08B1012400E0002420462B
:1009700038BD01460020A14A106820F0F80040EA86
:10098000C10010607047A04908607047024600200F
:100990009A4B586820F47C1042EA01031843974BA5
:1009A0005860704798490866704701460020934A8E
:1009B000506820F003000843506070478F4840683B
:1009C00000F00C007047014600208C4A506820F06F
:1009D000F00008435060704701460020874A506885
:1009E00020F4E06008435060704701460020834ACD
:1009F000506820F4605040EAC1005060704729B14F
:100A00007E4A527A02437D4B5A7204E07B4A527A04
:100A100082437A4B5A7270477B49D83108607047DD
:100A200001460020754A506820F440400843506059
:100A300070470021714A20321170704A82F82010EC
:100A4000012802D004280AD104E001216B4A203297
:100A5000117005E00521694A2032117000E000BFE5
:100A600000BF70476949086070476449096A0143DB
:100A7000624A11627047654944390860704730B571
:100A800000210022002400235C4D6D6805F00C015C
:100A900021B1042905D0082923D105E05C4D05606A
:100AA00022E05C4D05601FE0544D6D6805F4701246
:100AB000524D6D6805F48034022505EB92421CB955
:100AC000554D554305600BE04C4D6D6805F4003500
:100AD0001DB14F4D5543056002E04E4D5543056035
:100AE00002E04B4D056000BF00BF444D6D6805F04E
:100AF000F0010909494D6B5C0568DD4045603F4DDB
:100B00006D6805F4E061090A444D6B5C4568DD40A1
:100B100085603A4D6D6805F46051C90A3F4D6B5CC4
:100B20004568DD40C560354D6D6805F44041890B71
:100B30003B4D6B5CC568B5FBF3F5056130BD29B174
:100B40002E4A526902432D4B5A6104E02B4A5269E6
:100B500082432A4B5A61704729B1284A926902435D
:100B6000264B9A6104E0254A92698243234B9A619D
:100B7000704729B1214AD2690243204BDA6104E06F
:100B80001E4AD26982431D4BDA61704729B11B4A64
:100B9000D2680243194BDA6004E0184AD2688243F3
:100BA000164BDA60704729B1144A12690243134B9D
:100BB0001A6104E0114A12698243104B1A617047AE
:100BC00012494039086070470F49C86470470B49A3
:100BD000C87170470948406A40F080700749486210
:100BE000704701460020054A92680A400AB1012078
:100BF00000E00020704701498872704700100240F1
:100C00000000FFF8FFFFF6FE00004242800442426F
:100C100000127A000024F40000093D0000000020CA
:100C20001000002010B50446FB48844209D1012180
:100C30008803FFF7ABFF00214FF48040FFF7A6FFCA
:100C400032E0F648844209D101214804FFF7ABFFA6
:100C500000214FF40030FFF7A6FF25E0F048844262
:100C600009D101218804FFF79EFF00214FF4802065
:100C7000FFF799FF18E0EB48844209D10121C8042D
:100C8000FFF791FF00214FF40020FFF78CFF0BE0EE
:100C9000E548844208D101210805FFF784FF0021BF
:100CA0004FF48010FFF77FFF10BD2DE9F04786B0AD
:100CB00005460E460024A24600BFA1460027B08983
:100CC00000B100BF2F462C8A4CF6FF700440F0881C
:100CD00004432C82AC894EF6F3100440B08831896D
:100CE0000843718908430443AC81AC8A4FF6FF4046
:100CF0000440B0890443AC8201A8FFF7C0FEC64897
:100D0000874202D1DDF810A001E0DDF80CA0A8892F
:100D100000F4004040B10AEBCA0000EB0A10316851
:100D20004900B0FBF1F807E00AEBCA0000EB0A103B
:100D300031688900B0FBF1F86420B8FBF0F00401E1
:100D40002009642101FB1089A88900F4004040B10A
:100D5000322000EBC900B0FBF1F000F007000443C3
:100D600008E0322000EB09106421B0FBF1F000F044
:100D70000F0004432C8106B0BDE8F0874FF41651F4
:100D8000016000218180C18001810C21418100210D
:100D90008181704710B502460020108A4FF2FF0390
:100DA00018400B884C8823438C882343CC882343EA
:100DB0001843108210BD0021018041808180C180D4
:100DC000704721B1828942F40052828104E0828915
:100DD0004DF6FF731A4082817047F0B50346002438
:100DE00000260025002040F66A17B94200D100BF56
:100DF0001846C1F3421401F01F06012707FA06F551
:100E0000012C01D10C3004E0022C01D1103000E0A3
:100E100014301AB107682F43076002E00768AF4338
:100E20000760F0BD1AB1838A0B43838202E0838A94
:100E30008B4383827047028A4FF6F0731A40028216
:100E4000028A0A430282704782894FF2FF731A4076
:100E5000828182890A438281704721B1828942F06E
:100E60000202828104E082894FF6FD731A4082817A
:100E70007047028A4FF6DF731A400282028A0A43E1
:100E80000282704721B1028A42F48042028204E069
:100E9000028A4BF6FF731A4002827047C1F30802C0
:100EA0008280704701468888C0F3080070478189B6
:100EB00041F0010181817047028BD2B20283028B23
:100EC00042EA012202837047028B02F47F420283CE
:100ED000028B0A430283704721B1828A42F02002CA
:100EE000828204E0828A4FF6DF731A408282704762
:100EF00021B1828A42F01002828204E0828A4FF697
:100F0000EF731A408282704721B1828A42F0080250
:100F1000828204E0828A4FF6F7731A408282704719
:100F200021B1828942F40042828103E08289C2F3C6
:100F30000E028281704721B1828A42F4006282826D
:100F400004E0828A4FF2FF731A4082827047828ADD
:100F50004FF6FB731A408282828A0A43828270476C
:100F600021B1828A42F00202828204E0828A4FF634
:100F7000FD731A408282704702460020B1F5007F5F
:100F800000D100BF13880B400BB1012000E000200E
:100F9000704701F40072B2F5007F00D100BFCA4370
:100FA0000280704770B5024600240023002500200F
:100FB00040F66A16B14200D100BFC1F3421501F0FC
:100FC0001F03012606FA03F3012D02D1968933404F
:100FD00006E0022D02D1168A334001E0968A3340A2
:100FE0000C12012606FA04F41688344013B10CB131
:100FF000012000E0002070BD10B50022002340F663
:101000006A14A14200D100BF0A1201249440A3B285
:10101000DC43048010BD0000003801400044004063
:1010200000480040004C00400050004010B504460D
:10103000FE48844208D10121C014FFF7A7FD00211A
:10104000E014FFF7A3FDC4E0B4F1804F08D1012103
:101050000846FFF7A8FD00210120FFF7A4FDB8E036
:10106000F348844208D101210220FFF79CFD0021B2
:101070000220FFF798FDACE0EE48844208D1012140
:101080000420FFF790FD00210420FFF78CFDA0E075
:10109000E948844208D101210820FFF784FD00219E
:1010A0000820FFF780FD94E0E448844208D1012144
:1010B0001020FFF778FD00211020FFF774FD88E075
:1010C000DF48844208D101212020FFF76CFD002178
:1010D0002020FFF768FD7CE0DA48844208D1012136
:1010E0004014FFF753FD00216014FFF74FFD70E03F
:1010F000D548844209D10121C804FFF747FD0021EA
:101100004FF40020FFF742FD63E0D048844209D14C
:1011100001210805FFF73AFD00214FF48010FFF789
:1011200035FD56E0CA48844209D101214805FFF740
:101130002DFD00214FF40010FFF728FD49E0C548C0
:10114000844208D101214020FFF72DFD00214020DD
:10115000FFF729FD3DE0C048844208D101218020ED
:10116000FFF721FD00218020FFF71DFD31E0BB4886
:10117000844208D101218015FFF715FD0021A0153B
:10118000FFF711FD25E0B648844209D1012108048A
:10119000FFF7FCFC00214FF48030FFF7F7FC18E06C
:1011A000B048844209D101214804FFF7EFFC002137
:1011B0004FF40030FFF7EAFC0BE0AB48844208D163
:1011C00001218804FFF7E2FC00214FF48020FFF7A3
:1011D000DDFC10BD00220288944B98420ED0994B42
:1011E00098420BD0B0F1804F08D0914B984205D077
:1011F000904B984202D0904B984204D14FF68F7397
:101200001A404B881A438D4B984207D08C4B98421A
:1012100004D04FF6FF431A40CB881A4302808B88D4
:1012200083850B880385814B98420BD0854B984270
:1012300008D08B4B984205D08A4B984202D08A4BFB
:10124000984201D10B7A038601238382704770B5DF
:10125000002400220023058C4FF6FE7635400584DD
:10126000028C8388048B4FF68F752C40B51E2C4062
:101270000D882C43751E2A400D892A434D882A4328
:101280006A4DA8420BD06F4DA84208D0744DA842B9
:1012900005D0744DA84202D0734DA84213D14FF629
:1012A000F7752A404D892A434FF6FB752A408D88F1
:1012B0002A434FF6FF652B404FF6FF552B408D8993
:1012C0002B43CD892B4383800483CD88858602847C
:1012D00070BD70B5002400220023058C4FF6EF7618
:1012E00035400584028C8388048B48F6FF752C40BA
:1012F0004FF6FF452C400D884FF6FF7606EA052590
:101300002C434FF6DF752A400D8906EA05152A435E
:101310004D8806EA05152A43444DA84202D0494D9E
:10132000A8421DD14FF67F752A404D894FF6FF76B2
:1013300006EA05152A434FF6BF752A408D8806EA4E
:1013400005152A434FF6FF352B404FF2FF752B4012
:101350008D8906EA85052B43CD8906EA85052B4351
:1013600083800483CD880587028470BD70B5002416
:1013700000220023058C4FF6FF6635400584028C61
:101380008388848B4FF68F752C404FF6FC752C406C
:101390000D882C434FF6FF552A400D894FF6FF76F6
:1013A00006EA05252A434D8806EA05252A431F4DEE
:1013B000A84202D0234DA8421DD14FF2FF752A400A
:1013C0004D894FF6FF7606EA05252A434FF6FF358D
:1013D0002A408D8806EA05252A434EF6FF752B40E4
:1013E0004DF6FF752B408D8906EA05152B43CD89F7
:1013F00006EA05152B4383808483CD888587028484
:1014000070BD70B5002200230024058C4EF6FF76D7
:1014100035400584038C8488828B48F6FF752A400A
:101420004FF6FF452A400D8820E00000002C0140C7
:101430000004004000080040000C00400010004084
:101440000014004000340140004C014000500140B5
:101450000054014000180040001C004000200040E3
:101460000040014000440140004801404FF6FF7633
:1014700006EA05252A434DF6FF752B400D8906EA3D
:1014800005352B434D8806EA05352B43FA4DA84216
:1014900002D0FA4DA84208D14BF6FF752C408D8939
:1014A0004FF6FF7606EA85152C4384808283CD882B
:1014B000A0F84050038470BD828B4FF2FF331A4076
:1014C0008283828B4FF6FF7303EA01231A438283E0
:1014D0007047F0B50C461546002200210026078C07
:1014E0004EF6FF7C07EA0C070784828B018C4FF6CF
:1014F000FF7707EA043640F6FF473A404FF6FF779A
:1015000007EA05273A434FF6FF7707EA03373A43DE
:10151000D94FB8420ED0D94FB8420BD0B0F1804F5E
:1015200008D0D74FB84205D0D64FB84202D0D64FD8
:10153000B84206D14DF6FF77394046F4805739431B
:1015400005E047F6FF57394044F48057394382831A
:101550000184F0BD828B4FF6F3731A408283828B35
:101560000A4382837047F0B50C46154600220021DD
:101570000026078C4FF6FF6C07EA0C070784828B66
:10158000018C4FF6FF7707EA04264FF60C773A40B6
:101590004FF6FF7707EA03172F433A43B64FB84297
:1015A0000ED0B64FB8420BD0B0F1804F08D0B44F38
:1015B000B84205D0B34FB84202D0B34FB84206D1BB
:1015C0004FF6FF57394046F48077394305E04FF234
:1015D000FF57394044F48077394382830184F0BD5A
:1015E000028B4FF2FF331A400283028B4FF6FF73D8
:1015F00003EA01231A4302837047F0B50C461546EF
:10160000002200210026078C4FF6EF7C07EA0C072A
:101610000784028B018C4FF6FF7707EA041640F629
:10162000FF473A404FF6FF7707EA03373A434FF652
:10163000FF7707EA05273A438F4FB8420ED08F4F06
:10164000B8420BD0B0F1804F08D08D4FB84205D0D2
:101650008C4FB84202D08C4FB84206D14FF6DF779C
:10166000394046F01007394305E04FF65F773940BF
:1016700044F01007394302830184F0BD028B4FF61A
:10168000F3731A400283028B0A4302837047F0B55A
:101690000C46154600220021068C4FF6FE773E4090
:1016A0000684028B018C4FF60C7632407E1C06EAD3
:1016B00003162E433243704EB0420ED06F4EB042EE
:1016C0000BD0B0F1804F08D06D4EB04205D06D4EBA
:1016D000B04202D06C4EB04206D14FF6FD7631409A
:1016E00044F00106314305E04FF6F576314044F011
:1016F0000106314302830184F0BD70B505460C46F6
:101700005D4885420ED05D4885420BD0B5F1804FD3
:1017100008D05B48854205D05A48854202D05A48D5
:10172000854200D100E000BF208850B92389A288FB
:1017300061882846FFF7ABFFE1882846FFF79EFF48
:1017400025E0208804280AD12389A28861882846B8
:10175000FFF753FFE1882846FFF742FF17E0208894
:1017600008280AD12389A28861882846FFF7FBFE52
:10177000E1882846FFF7EEFE09E02389A288618808
:101780002846FFF7A6FEE1882846FFF795FE70BDC4
:101790002DE9F04105460C4600260127608808B96E
:1017A000022600E00026A088012801D1022700E0DF
:1017B00001272088A0B92389A28861882846FFF7DD
:1017C00066FFE1882846FFF759FF23893A463146EC
:1017D0002846FFF712FFE1882846FFF701FF13E0D4
:1017E0002389A28861882846FFF707FFE1882846F9
:1017F000FFF7F6FE23893A4631462846FFF747FFB2
:10180000E1882846FFF73AFFBDE8F0810A884B8857
:101810001A438B881A43CB881A430B891A434B8986
:101820001A438B891A43A0F8442070474FF6FF7182
:10183000818000210180C1804180017270470021B8
:10184000018041808180C180018141818181C1818C
:101850007047002101804180012181800021C180E9
:10186000018170470021018041808180C180018118
:101870004181818170470000002C0140003401400B
:101880000004004000080040000C004021B1028824
:1018900042F00102028004E002884FF6FE731A4013
:1018A0000280704731B1B0F8442042F40042A0F801
:1018B000442005E0B0F84420C2F30E02A0F8442012
:1018C00070471AB183890B43838102E083898B437C
:1018D000838170478182704741EA0203A0F8483053
:1018E00070471AB183890B43838102E083898B435C
:1018F0008381704701894FF6F8721140018170476A
:101900000A46002101894FF68F7319401143018166
:10191000704730B504460D4629462046FFF7F0FFD4
:10192000208940F00700208130BD2DE9F0410446B8
:101930000D4616461F46602D06D13B460122314614
:101940002046FFF75AFE05E03B460122314620467D
:10195000FFF79DFE29462046FFF7D2FF208940F081
:1019600007002081BDE8F08130B50C4600210189D7
:10197000C9B24FF6FF7505EA0325154325432943F0
:10198000018130BD2DE9F04105460E4617469846C7
:10199000002443463A4631462846FFF7E5FF2C89A6
:1019A0004FF6F870044044F007044FF68F7004407F
:1019B00044F070042C81BDE8F081F0B504460D467A
:1019C00016461F463B46324629462046FFF7CCFFC7
:1019D000208940F480402081F0BD018582827047DB
:1019E0000A46002101884FF68F7319401143018088
:1019F0007047F0B50C4615461E4600210022002314
:101A00000189028B038C4FF6F877394021434FF65A
:101A1000FC473A4040F201173A434FF6DD773B402E
:101A20004FF6FF7707EA06172F433B4301810283F6
:101A30000384F0BD0A460021018B4FF68F731940D5
:101A40001143018370470A460021018B48F6FF735A
:101A500019404FF6FF7303EA0223194301837047CD
:101A60000A460021818B4FF68F7319401143818301
:101A700070470A460021818B48F6FF7319404FF6E4
:101A8000FF7303EA022319438183704721B102885F
:101A900042F08002028004E002884FF67F731A4011
:101AA0000280704721B1828842F00402828004E003
:101AB00082884FF6FB731A408280704721B182887A
:101AC00042F00802828004E082884FF6F7731A40E1
:101AD0008280704721B1828842F00102828004E056
:101AE00082884FF6FE731A40828070470A460021B2
:101AF000018B4FF6F77319401143018370470A4673
:101B00000021018B4FF2FF7319404FF6FF7303EA78
:101B100002231943018370470A460021818B4FF647
:101B2000F77319401143818370470A460021818B66
:101B30004FF2FF7319404FF6FF7303EA0223194374
:101B4000818370470A460021018B4FF6FB731940D1
:101B50001143018370470A460021018B4FF6FF3382
:101B600019404FF6FF7303EA0223194301837047BC
:101B70000A460021818B4FF6FB7319401143818384
:101B800070470A460021818B4FF6FF3319404FF60C
:101B9000FF7303EA02231943818370470A46002139
:101BA000018B4FF67F7319401143018370470A463A
:101BB0000021018BC1F30E014FF6FF7303EA0223EC
:101BC0001943018370470A460021818B4FF67F73CA
:101BD00019401143818370470A460021818BC1F36C
:101BE0000E014FF6FF7303EA022319438183704706
:101BF0000A460021018C4FF6FD7319401143018400
:101C000070470A460021018C4FF6F77319401143C3
:101C1000018470470A460021018C4FF6DF7319409A
:101C20004FF6FF7303EA02131943018470470A4613
:101C30000021018C4FF67F7319404FF6FF7303EAC2
:101C400002131943018470470A460021018C4FF6A4
:101C5000FF5319404FF6FF7303EA0223194301842F
:101C600070470A460021018C4FF2FF7319404FF66E
:101C7000FF7303EA02231943018470470A460021D7
:101C8000018C4DF6FF7319404FF6FF7303EA0233E0
:101C900019430184704730B5002301248C40A3B25E
:101CA000048C9C430484048C02FA01F5ADB22C43ED
:101CB000048430BD30B5002304248C40A3B2048CCE
:101CC0009C430484048C02FA01F5ADB22C430484D5
:101CD00030BD70B503460020002418461830012599
:101CE0008D40ACB21D8CA5431D8409B1082909D1D2
:101CF00000EB6100056825F0700505600568154377
:101D000005600EE00D1FC5F34E052844056825F457
:101D1000E045056005684FF6FF7606EA0226354382
:101D2000056070BD21B1028842F00202028004E029
:101D300002884FF6FD731A400280704721B1028875
:101D400042F00402028004E002884FF6FB731A405E
:101D50000280704721B1828842F08002828004E0D4
:101D600082884FF67F731A408280704702884FF650
:101D7000F7731A40028002880A4302807047828803
:101D80004FF68F731A40828082880A4382807047A0
:101D900002894FF6F8731A40028102890A430281D0
:101DA000704702894FF67F731A40028102890A4305
:101DB00002817047818470478185704781867047B2
:101DC0000187704781877047A0F8401070470288EC
:101DD0004FF6FF431A40028002880A430280704790
:101DE0000146888E70470146088F70470146888FEC
:101DF00070470146B1F8400070470146888C704733
:101E00000146088D704702460020138A0B400BB133
:101E1000012000E000207047CA430282704730B5BD
:101E20000246002000230024158A05EA0103958953
:101E300005EA010413B10CB1012000E0002030BD1F
:101E4000CA4302827047000010B50446BE4884426F
:101E500008D101218014FEF799FE0021A014FEF79D
:101E600095FE16E0B948844208D101210014FEF71E
:101E70009AFE00212014FEF796FE0AE0B448844240
:101E800007D10121C013FEF78EFE0021E013FEF7FB
:101E90008AFE10BD10B50022028802F441520B8860
:101EA0004C8823438C882343CC8823430C892343C9
:101EB0004C8923438C892343CC8923431A430280D2
:101EC000838B4FF2FF74234083830B8A038210BD00
:101ED0002DE9F04F85B005460C464FF0000902276A
:101EE0004FF000084FF0010B0026B246A88B4FF2CE
:101EF00040010840A88302202884B5F81C90A068FF
:101F0000022801D100BF38E0A08810B94FF0010BC2
:101F100001E04FF0020B8D48854200D100E000BF88
:101F20006846FEF7ACFDDDF800A0E088B0F5007F64
:101F30000AD14FEA1A2000EB80004000A168B0FBF4
:101F4000F1F0401D86B20BE04FEA4B10BAFBF0F007
:101F500000EB80004000A168B0FBF1F0401D86B2AC
:101F60000A20B6FBF0F606F00108A6EB0800C0F365
:101F70004F074FF6FF7000EA0828022F01DBFF2F02
:101F800002DD02274FF00008E08840EA08003843ED
:101F90002884A088A18908436188084321880843D0
:101FA00040F4006040EA0909A5F81C9005B0BDE8BE
:101FB000F08F0021018041808180C18001814181B9
:101FC0008181C18107210182704700210180418008
:101FD0008180C1800221816000218181704721B10F
:101FE000028842F04002028004E002884FF6BF738C
:101FF0001A400280704721B1828B42F48062828352
:1020000004E0828B4FF6FF331A408283704730B56D
:10201000002400230C110125A540ABB21AB185881C
:102020001D43858002E085889D43858030BD1AB1BF
:1020300083880B43838002E083888B4383807047CF
:10204000818170470146888970474FF6FF6291424F
:1020500004D0028842F48072028004E002884FF6C5
:10206000FF631A400280704721B1828842F0040267
:10207000828004E082884FF6FB731A4082807047AA
:1020800002884FF2FF731A40028002880A430280DE
:102090007047018841F480510180704721B1028866
:1020A00042F40052028004E002884DF6FF731A40A9
:1020B0000280704702460020012901D0108B00E009
:1020C000908A70470146088A7047B1F5804F04D165
:1020D000028842F48042028004E002884BF6FF73DB
:1020E0001A40028070470246002013890B400BB152
:1020F000012000E000207047CA4302817047F0B51C
:102100000246002000240023002501F00F070126CD
:10211000BE40B4B20B1101269E40B3B2968806EAC7
:1021200003051689264016B10DB1012000E00020FC
:10213000F0BD10B5002201F00F040123A3409AB2B4
:10214000D343038110BD000000300140003800403F
:10215000003C00400CB50020019000906C480068E5
:1021600040F480306A49086000BF6948006800F4A4
:10217000003000900198401C0190009818B9019817
:10218000B0F5A06FF1D16248006800F4003010B1E2
:102190000120009001E0002000900098012843D128
:1021A0005C48006840F010005A4908600846006822
:1021B00020F0030008600846006840F00200086054
:1021C000534840685249486008464068486008469D
:1021D000406840F4806048600846406820F47C1005
:1021E00048600846406840F4E810486008460068C7
:1021F00040F08070086000BF4548006800F0007043
:102200000028F9D04248406820F003004049486067
:102210000846406840F00200486000BF3C48406803
:1022200000F00C000828F9D10CBD10B5FFF792FFA3
:1022300010BD10B53648006840F001003449086010
:1022400008464068344908403149486008460068FB
:10225000324908402E4908600846006820F4802072
:1022600008600846406820F4FE0048604FF41F00F4
:102270008860FFF7DAFF4FF000602949086010BD61
:1022800010B5002100200022214B5B6803F00C01F7
:1022900021B1042906D0082928D107E0214B224C7E
:1022A000236027E0214B204C236023E0184B5B6820
:1022B00003F47010164B5B6803F48032022303EBC7
:1022C000904022B91A4B4343174C23600DE0104B4A
:1022D0005B6803F4003323B1124B4343124C236079
:1022E00003E0124B4343104C236003E00D4B0E4CB4
:1022F000236000BF00BF064B5B68C3F303130D4CA4
:10230000E15C094B1B68CB40074C236010BD00000B
:1023100000100240002002400000FFF8FFFFF6FE20
:1023200008ED00E000127A00140000200024F40000
:1023300000093D00180000204FF0E020006920F067
:1023400004004FF0E0210861092023490870084685
:10235000007800EB4001C1EBC0104FF6FF7101EABD
:10236000C0001E490880704701461C4A12884A4333
:102370004FF0E0235A6100229A6101221A6100BFE6
:102380004FF0E022106900F001021AB100F480322F
:10239000002AF5D000224FF0E0231A619A617047BD
:1023A00001460D4A12784A434FF0E0235A61002259
:1023B0009A6101221A6100BF4FF0E022106900F01B
:1023C00001021AB100F48032002AF5D000224FF049
:1023D000E0231A619A617047280000202A0000203B
:1023E00010B5FEF74BFA4FF48030FEF767FAFEF7B0
:1023F000A4FA012830D10020FEF7E5FA0020FEF70C
:10240000F4FA4FF48060FEF7E7FA1448006840F0F1
:102410001000124908600846006820F003000860B8
:102420000846006840F0020008604FF4E0114FF4E5
:102430004030FEF7ABFA0120FEF7B4FA00BF3920B6
:10244000FEF75FFA0028FAD00220FEF7AEFA00BFCE
:10245000FEF7B4FA0828FBD110BD000000200240AE
:1024600008B501210820FEF777FB2020ADF8000019
:1024700003208DF8020010208DF8030069461048F3
:10248000FEF7AEF808BD70B505460C460DE02020FD
:102490000B49143108602046FFF782FF20200849CD
:1024A000103108602046FFF77BFF2800A5F10101ED
:1024B000CDB2ECD1202002491431086070BD00007B
:1024C000000C014010B586B00446012144F204001E
:1024D000FEF742FB4FF40070ADF8140018208DF8A1
:1024E000170003208DF8160005A93B48FEF778F881
:1024F0004FF48060ADF8140004208DF8170005A992
:102500003548FEF76DF801940020ADF80800ADF8ED
:102510000A00ADF80C00ADF810000C20ADF80E006C
:1025200001A92E48FEF7C1FB25208DF800000320ED
:102530008DF801008DF8020001208DF80300684637
:10254000FDF785FF012240F225512448FEF745FCA6
:1025500001212248FEF735FC06B010BD70B50446D7
:102560000D46E1B21D48FEF799FC00BF40211B4813
:10257000FEF702FD0028F9D0204670BD10B50446D4
:1025800000BF20211548FEF7F7FC0028F9D01348BA
:10259000FEF788FC10BD10B540F225510F48FEF73C
:1025A00001FD90B10D48FEF77DFC0D490D4A126802
:1025B00088540C480068401C0A49086008460068B6
:1025C0001F2802D101200849086040F22551034824
:1025D000FEF712FD10BD0000000801400038014068
:1025E0001C0100202C0000203000002008B5012133
:1025F0000820FEF7B1FA4FF44060ADF8000010205B
:102600008DF8030003208DF8020069469548FDF718
:10261000E7FF4FF440619348FEF78FF8012092499D
:1026200008609249C1F8AC0108BD10B58D48001D85
:10263000006820F470408B49091D08600846006856
:1026400040F44050086001208749091D086087490F
:10265000C1F8A8010420FFF7A3FE00208249091D4C
:1026600008600420FFF79CFE00208049C1F8A80103
:1026700010BD10B57B48001D006820F470407949FA
:10268000091D08600846006840F4405008600020BA
:10269000754908607549C1F8AC010420FFF780FE58
:1026A0000120714908607149C1F8AC010420FFF7AD
:1026B00077FE10BD10B500246A48001D006820F4A4
:1026C00070406849091D08600846006840F40040F1
:1026D000086001206449091D0860FFF761FE0120C0
:1026E0006249C1F8A801FFF75BFE07E0601CC4B2B5
:1026F000FA2C03DDFFF7BDFF012010BD5A487C38DE
:1027000000680028F2D15849086000BFF5E710B50D
:102710000020554908605348001D006820F47040AF
:102720005049091D08600846006840F440500860A0
:1027300000204E49C1F8AC010220FFF731FE012014
:10274000494908600220FFF72BFE00204749C1F8E5
:10275000A80110BD10B50020434908604148001D84
:10276000006820F470403F49091D08600846006871
:1027700040F44050086001203C49C1F8AC010220FF
:10278000FFF70EFE0120384908600220FFF708FE1F
:1027900000203649C1F8A80110BD70B50446314883
:1027A000001D006820F470402E49091D086008468D
:1027B000006840F44050086000202B490860002564
:1027C0001EE0E00920B101202749091D086003E04F
:1027D00000202549091D08606006040E0220FFF74D
:1027E000DFFD0120204908600220FFF7D9FD00200D
:1027F0001E49C1F8A8010220FFF7D2FD681CC5B22E
:10280000082DDEDBFFF756FF70BD70B500241548BC
:10281000001D006820F470401249091D0860084638
:10282000006840F400400860002516E000200E49D2
:1028300008600220FFF7B4FD01200C49C1F8A8018F
:102840006006040E08487C38006808B1601CC4B2F9
:102850000120FFF7A5FD681CC5B2082DE6DB204668
:1028600070BD0000000C0140A8812142008021427F
:102870000EB501210620FEF77CF96846FEF7D6FF6B
:102880004FF6FF70ADF804000020ADF80000ADF881
:102890000600ADF802006946FE48FEF79BFC0022E8
:1028A0001146FC48FFF799F80121FA48FFF73AFA78
:1028B0002021F848FFF724F80721F648FFF768FAC7
:1028C0008021F448FFF76DFA0121F248FFF7DEF8A6
:1028D0004FF6FF70ADF804004820ADF8000000206E
:1028E000ADF80600ADF802006946EB48FEF772FC51
:1028F0000121E948FFF7CAF80421E748FFF748FA41
:102900000121E548FFF71AFA2021E348FFF737FADB
:102910008021E148FFF745FA0121DF48FEF7B6FFC5
:102920000121DC48FEF7B2FF0EBD0020D949243159
:1029300008880004D84924310988084470472DE9E3
:10294000FF4F91B0814692461D46DDF878B0FFF703
:10295000ECFFD249086008460068D14909688842FE
:102960000FD2CF4909684FF6FF72511ACB4A12684D
:10297000881802F065FACB490B9002F092F80446F1
:102980000BE0C6490968C64A1268881A02F058FA6C
:10299000C4490B9002F085F80446C0480068C0495D
:1029A00008601F99084602F04AF8594606905846B2
:1029B00002F045F829460490284602F040F80390BA
:1029C000049901F0E4FF0590069901F0E0FF0790FB
:1029D00002F0B1FACDE9080103F00CF8CDE90A01E3
:1029E00002F0ECFA0F9028460F9902F05AF80546CB
:1029F00058460F9902F055F883460F991F9802F038
:102A000050F81F90A8480168A848006802F017F81D
:102A10000A90A7480168A748006802F010F80990DA
:102A20000A9902F006F84FF080410B9002F007F887
:102A30000E909F4801689C48006802F000F80A90D8
:102A40009C4801689948006801F0F9FF09900A99CB
:102A500001F09DFF4FF080410B9001F0F0FF0D90D1
:102A600093480168006801F0EAFF0B908E48016806
:102A7000006801F0E4FF09908E480168006801F0E9
:102A8000DEFF079089480168006801F0D8FF0690D2
:102A9000079901F0CEFF0890099901F0CAFF0A904A
:102AA0000B9901F074FF0C900D991F9801F0C7FF6E
:102AB0000B9058460C9901F0C2FF0A900B9901F057
:102AC000B8FF064628460C9901F0B9FF0B900E9905
:102AD0001F9801F0B4FF0A900B9901F0AAFF074676
:102AE00058460E9901F0ABFF0B9028460D9901F066
:102AF000A6FF0A900B9901F09CFF80466E49304674
:102B000001F09DFF0B906D4801680B9801F03FFFAD
:102B10006A4908606849384601F091FF0B9068489F
:102B200001680B9801F033FF65490860624940462F
:102B300001F085FF0B90634801680B9801F027FFB7
:102B4000604908603146604801F079FF49460A90C3
:102B500001F01DFF0B90594801680B9801F017FF19
:102B600081463946584801F06AFF0A90129901F0EF
:102B70000EFF0B90524801680B9801F008FF12906D
:102B80004146514801F05BFF51460A9001F0FFFEBB
:102B90000B904C4801680B9801F0F9FE82465146B3
:102BA0004348006801F04BFF09903F4812990068C4
:102BB00001F045FF07903F48006880F0004049461B
:102BC000059001F03CFF0690079901F032FF089054
:102BD000099901F02EFF21460A9001F030FF0B9079
:102BE000324801680B9801F0D2FE30490860304845
:102BF0001299006801F023FF514609902A480068A5
:102C000001F01DFF079029480168484601F017FFB1
:102C10000690079901F0BBFE0890099901F009FFA1
:102C200021460A9001F00BFF0B90224801680B9897
:102C300001F0ADFE1F4908601D480168484601F0DB
:102C4000FEFE514609901B48006801F0F8FE07900F
:102C500016481299006801F0F2FE0690079901F0FB
:102C6000E8FE0890099901F092FE21460A9001F0D1
:102C7000E6FE0B900C4801680B9801F088FE0A49AB
:102C8000086008460168484601F0D9FE09900948E5
:102C900012991BE0000800400004004038000020AA
:102CA000340000200024F449440000203C000020AF
:102CB00048000020400000206F12033C4C00002020
:102CC000500000205400002000002041006801F066
:102CD000B6FE51460790CC48006801F0B0FE069061
:102CE000079901F054FE0890099901F0A2FE2146CF
:102CF0000A9001F0A4FE0B90C44801680B9801F003
:102D000046FEC249086008460168006801F097FE67
:102D10000690BF480168006801F091FE0490BD482C
:102D20000168006801F08BFE0290B74801680068F6
:102D300001F085FE0190029901F029FE03900499AB
:102D400001F025FE0590069901F021FE079002F0A2
:102D5000F2F8CDE9080102F04DFECDE90A0102F0DA
:102D60002DF90F90A8480F99006801F09AFEA64926
:102D70000860A8480F99006801F093FEA549086013
:102D8000A3480F99006801F08CFEA14908609F4894
:102D90000F99006801F085FE9C49086015B0BDE8F8
:102DA000F08F2DE9FF5F82469B48006802F0C3F870
:102DB00080469A4A9A4B01F059FF06460022994BE9
:102DC00001F0C6FF044602F0F9F883469648006811
:102DD00002F0B1F88046914A914B01F047FF064658
:102DE0000022904B01F0B4FF044602F0E7F8039094
:102DF0008E48006802F09FF88046884A884B01F0B0
:102E000035FF06460022874B01F0A2FF044602F080
:102E1000D5F802908648006886490968CDE9001017
:102E200085485A460368DDE90201FFF788FD7648C8
:102E30000068CAF8000077480068CAF804007448BF
:102E40000068CAF8080071480068CAF80C00BDE8BC
:102E5000FF9F2DE9F04F8DB0824608A8FFF7A1FF34
:102E60004FF080400B9901F0EAFD00900B9901F0C2
:102E7000E6FD01904FF040400A9901F0E0FD00901E
:102E80000A9901F0DCFD8346019901F0D2FD8146EB
:102E90004FF07E5101F07BFD804602F04CF8064673
:102EA0000F464FF08040089901F0C9FD01900B9941
:102EB00001F0C5FD81464FF08040099901F0BFFD4A
:102EC00001900A9901F0BBFD8346494601F05FFD80
:102ED000804602F030F832463B46CDE9020102F06E
:102EE000C9FC00224F4BCDE9040101F0BFFE4B4A63
:102EF0004B4BCDE9060101F02BFF044602F05EF8D2
:102F0000CAF800004FF08040089901F098FD039046
:102F10000A9901F094FD05904FF04040099901F0A5
:102F20008EFD03900B9901F08AFD0490059901F044
:102F30002EFD834601F0FFFFCDE9060102F052FAB3
:102F400080460022374B01F091FE0646334A344B4F
:102F500001F0FEFE044602F031F8CAF804004FF01A
:102F600080400A9901F06BFD00900A9901F067FD1D
:102F700001904FF04040099901F061FD00900999DE
:102F800001F05DFD8346019901F053FD81464FF04C
:102F90007E5101F0FCFC804601F0CDFFCDE902013D
:102FA0004FF08040089901F04AFD0190099901F025
:102FB00046FD81464FF080400A9901F040FD0190A6
:102FC0000B9901F03CFD8346494601F0E0FC804648
:102FD00001F0B1FF0646DDE9022302F04BFC0022BE
:102FE000104BCDE9040101F041FE04460B4A0C4BA5
:102FF00001F0AEFECDE9060101F0E0FFCAF80800DD
:103000000DB0BDE8F08F00003C000020480000201B
:1030100044000020400000206C0000206E861BF061
:10302000F92109400080664068000020640000200B
:1030300084000020800000207C00002070B506463F
:103040000C461546FFF7F1FA3046FFF7A6FB20467F
:10305000FFF7A3FB2846FFF7A0FBFFF70AFB70BDB5
:1030600070B504460D46FFF7E0FA2046FFF795FBE2
:103070002846FFF792FBFFF7D8FA611CC8B2FFF7AA
:103080008CFBFFF7C2FB0646FFF764FBFFF7F1FA84
:10309000304670BD10B500226B21D020FFF7CEFF67
:1030A000C820FFF761F903226B21D020FFF7C6FF8C
:1030B00007221921D020FFF7C1FF06221A21D020B4
:1030C000FFF7BCFF08221B21D020FFF7B7FF092222
:1030D0001C21D020FFF7B2FF10BD2DE9F04F93B0B7
:1030E0004421D020FFF7BCFFFE4908704321D020C7
:1030F000FFF7B6FFFB49487008460078497840EA78
:10310000012000B2F84908800846B0F9000001F03B
:103110009CFE80460022F54B01F01AFE0646F4485C
:103120000CC8304601F09CFD044601F047FFF14910
:1031300008604621D020FFF793FFEA4988704521B7
:10314000D020FFF78DFFE749C87008468078C9781E
:1031500040EA012000B2E84908800846B0F90000C2
:1031600001F073FE06460022E04B01F0F1FD8046BF
:10317000E2480CC8404601F073FD044601F01EFF12
:10318000DF4908604821D020FFF76AFFD549087160
:103190004721D020FFF764FFD249487108460079E3
:1031A000497940EA012000B2D64908800846B0F9C2
:1031B000000001F04AFE80460022CC4B01F0C8FD21
:1031C0000646D1480CC8304601F04AFD044601F0DD
:1031D000F5FECE4908603C21D020FFF741FFC149F0
:1031E00088713B21D020FFF73BFFBE49C8710846DC
:1031F0008079C97940EA012000B2C54908800846B3
:10320000B0F9000001F021FE06460022C14B01F09A
:103210009FFD044601F0D2FEBF4908603E21D02048
:10322000FFF71EFFAF4908723D21D020FFF718FFBE
:10323000AC4948720846007A497A40EA012000B257
:10324000B64908800846B0F9000001F0FEFD0646C8
:103250000022B04B01F07CFD044601F0AFFEB04906
:1032600008604021D020FFF7FBFE9E4988723F2175
:10327000D020FFF7F5FE9B49C8720846807AC97ACC
:1032800040EA012000B2A74908800846B0F90000D2
:1032900001F0DBFD064600229E4B01F059FD04467D
:1032A00001F08CFEA04908609D480168006801F0AB
:1032B000C6FB02909C480168006801F0C0FB0190C9
:1032C000029901F064FB039001F035FECDE90401A1
:1032D00002F090FB804689468F48006801F02BFE83
:1032E000064642464B4601F033FD044602F0B2F971
:1032F00000228E4BCDE9060101F0B8FC82468C4AD3
:103300008C4B01F025FD8C4A8C4BCDE9080101F076
:10331000A7FC00228A4BCDE90A0101F019FD002229
:10332000824BCDE90C0101F0A1FC0022854BCDE9D7
:103330000E0101F095FCCDE9100101F03FFE82493C
:10334000086079480168006801F079FB834672489B
:103350000168006801F073FB5946019001F017FB0A
:10336000824601F0E8FDCDE9020102F043FBCDE920
:1033700004016B48006801F0DEFD0646DDE9042328
:1033800001F0E6FCCDE9060102F064F90022674B8A
:10339000CDE9080101F06AFC654A664BCDE90A01F6
:1033A00001F0D6FC694A6A4BCDE90C0101F058FCEA
:1033B00080465F4A5242674B01F0CAFC00225B4BD9
:1033C000CDE90E0101F052FC044600225D4B01F0F4
:1033D00047FCCDE9100101F0F1FD5F49086050485C
:1033E0000168006801F02BFB83464B4801680068C8
:1033F00001F025FB5946019001F0C9FA824601F01F
:103400009AFDCDE9020102F0F5FA06460F4646485C
:10341000006801F090FD32463B46CDE9040101F021
:1034200097FC044602F016F90022404BCDE9060154
:1034300001F01CFC3E4A3F4BCDE9080101F088FC3D
:10344000464A474BCDE90A0101F00AFC4FF06632CB
:10345000444BCDE90C0101F07BFC0022334BCDE95C
:103460000E0101F003FC80460022364B01F0F8FB10
:10347000CDE9100101F0A2FD3B49086013B0BDE8A1
:10348000F08F2DE9F84F00250026A946AA46AB4645
:1034900000200090C820FEF783FF00246CE0FFF7B7
:1034A0001CFE14480168284601F071FA05461448CC
:1034B0000168304601F06BFA064614480168484638
:1034C00001F065FA814620480168504601F05FFA34
:1034D000824621480168584601F059FA834622483D
:1034E000016843E03C01002058000020006050408B
:1034F00098000020640000205A000020A000002056
:10350000680000205C000020A80000206C00002063
:103510005E0000200000D04070000020600000200D
:1035200074000020620000207800002000806640C7
:103530001F85EB51B81E094042E90B21E70256C036
:1035400000106640008056407C000020C6850321A4
:10355000594456C047516640800000203BAA9A203B
:10356000EA7456C06676664084000020009801F038
:103570000EFA0090601CC4B2322C90DB284601F099
:10358000DAFC074600221E4B01F0E2FB1D4A03C293
:10359000304601F0D0FC07460022194B01F0D8FB61
:1035A000194A03C2484601F0C6FC07460022144BE4
:1035B00001F0CEFB154A03C2504601F0BCFC0746A1
:1035C00000220F4B01F0C4FB114A03C2584601F020
:1035D000B2FC074600220A4B01F0BAFB0D4A03C2B7
:1035E000009801F0A8FC07460022054B01F0B0FB53
:1035F000094A03C2012009490860BDE8F88F0000AC
:103600000000494098000020A0000020A8000020F1
:10361000B0000020B8000020C0000020C80000203A
:103620003EB505460C4601210846FDF7A2FAADF865
:103630000450ADF800400020ADF80600ADF80200DF
:1036400069464FF08040FDF7C5FD01218807FEF770
:103650001DF93EBD08B501210420FDF77DFA0120CA
:10366000ADF8000018208DF8030003208DF802004B
:1036700069465848FCF7B4FF08BD1FB56020ADF897
:1036800000000120ADF802000020ADF808006946F6
:103690004FF08040FDF7DBFD0821C806FEF726FA53
:1036A00001218807FEF7F2F81FBD08B501210420AB
:1036B000FDF752FA0220ADF8000018208DF8030043
:1036C00003208DF8020069464248FCF789FF08BDD7
:1036D0001FB56020ADF800000120ADF80200002009
:1036E000ADF8080069464FF08040FDF7F2FD082173
:1036F000C806FEF704FA01218807FEF7C7F81FBDC8
:1037000008B501210420FDF727FA0420ADF80000D8
:1037100018208DF8030003208DF8020069462D481B
:10372000FCF75EFF08BD1FB56020ADF8000001206A
:10373000ADF802000020ADF8080069464FF0804067
:10374000FDF714FE0821C806FEF7E6F901218807F7
:10375000FEF79CF81FBD08B501210420FDF7FCF918
:103760000820ADF8000018208DF8030003208DF824
:10377000020069461748FCF733FF08BD1FB56020FB
:10378000ADF800000120ADF802000020ADF80800FF
:1037900069464FF08040FDF734FE0821C806FEF769
:1037A000C4F901218807FEF771F81FBD10B5FFF7B6
:1037B000A7FFFFF74FFFFFF778FFFFF7CCFF10BD24
:1037C00010B5FFF7B0FFFFF758FFFFF781FFFFF7D6
:1037D000D5FF10BD0008014000B587B001210C20C5
:1037E000FDF7BAF91020ADF8180003208DF81A0083
:1037F00010208DF81B0006A9B548FCF7F1FE042047
:10380000ADF8180006A9B348FCF7EAFE0120ADF8B0
:10381000180028208DF81B0006A9AE48FCF7E0FE32
:103820000521AC48FCF78BFF1021A948FCF787FF66
:1038300000F08BF90021A848FEF7D1FB0020ADF87D
:1038400004004FF48270ADF806000020ADF80800C7
:10385000ADF80A00ADF80C004FF40070ADF80E00A2
:103860001820ADF810000020ADF812000720ADF8C8
:10387000140001A99848FEF70DFB01219648FEF7B8
:10388000AEFB00209549086001209549C1F89001E0
:1038900007B000BD2DE9F04107460D461646002051
:1038A00090490860384600F029F98046002405E078
:1038B000FF2000F023F92855601CC4B2B442F7DBA6
:1038C0000120884908604046BDE8F0812DE9F041BB
:1038D00007460C461546002082490860384600F02D
:1038E0000DF98046002605E014F8010B00F006F9FA
:1038F000701CC6B2AE42F7DB01207A490860404630
:10390000BDE8F0811CB578A103C9CDE9000108200C
:1039100000F05FF9052269463020FFF7D7FF052246
:1039200069461020FFF7B6FF002406E01DF80400EA
:10393000A52800D003E0601CC4B2052CF6DB00BF54
:10394000052C01D001201CBD0020FCE770B5054608
:103950000C46002063490860284600F0CFF8064670
:10396000204600F0CBF801205D49C1F890013046B7
:1039700070BD70B5044600205A490860204600F02A
:10398000BDF8FF2000F0BAF8054601205449C1F8FF
:103990009001284670BD70B50546102000F019F959
:1039A00000204E49086020222946A020FFF78EFF04
:1039B00001204F49C1F8880100BF48488838006895
:1039C0000028FAD10720FFF7D4FF0446214627201C
:1039D000FFF7BCFF04F0100028B1FF21E120FFF742
:1039E000B5FF102070BD04F0200008B12020F9E7D9
:1039F000FF20F7E770B50446102000F0EAF8072032
:103A0000FFF7B7FF054629462720FFF79FFF05F080
:103A1000400050B1202221466120FFF73BFFFF21EB
:103A2000E220FFF793FF002070BD0120FCE710B5F6
:103A300000202A49086005222E492A20FFF746FF68
:103A400001212120FFF782FF01212220FFF77EFFC5
:103A500028212520FFF77AFF20213120FFF776FF6C
:103A60000F212620FFF772FF0F212020FFF76EFFA6
:103A700001201F49C1F8880110BD10B50020174969
:103A8000086005221C493020FFF720FF0522194954
:103A90002A20FFF71BFF01212120FFF757FF0121FB
:103AA0002220FFF753FF1A212420FFF74FFF282180
:103AB0002520FFF74BFF0F212620FFF747FF0E21A0
:103AC0002020FFF743FF01200949C1F8880110BDFC
:103AD00000080140000C0140003001408881214273
:103AE0000000214290012142A5A5A5A5A500000046
:103AF00000802142455A0008405A000870B505462A
:103B0000002405E0601CC4B2C82C01DD002070BD9B
:103B100002213948FEF7E7FA0028F3D02946364853
:103B2000FEF78EFA002405E0601CC4B2C82C01DD4B
:103B30000020ECE701213048FEF7D5FA0028F3D049
:103B40002D48FEF77FFAC0B2E1E700B587B001214A
:103B50000420FDF701F801210803FCF7FDFFE02038
:103B6000ADF8180018208DF81B0003208DF81A00FE
:103B700006A92248FCF734FDE0212048FCF7DDFDD2
:103B80000020ADF804004FF48270ADF8060000206C
:103B9000ADF808000220ADF80A000120ADF80C00D5
:103BA0004002ADF80E003820ADF810000020ADF84E
:103BB00012000720ADF8140001A90F48FEF76AF9BA
:103BC00001210D48FEF70BFAFF20FFF797FF07B022
:103BD00000BD10B50446084800884FF6C77108407C
:103BE00005490880084600882043088001210248D2
:103BF000FEF7F5F910BD000000300140000801405B
:103C0000FE490A780978491CFC4B1970FC49885414
:103C10007047FA490A780978491CF84B1970F94934
:103C20008854704711B500209DF80120F3490B78A6
:103C30000978491CF14C2170F149CA549DF80030B3
:103C400021460A780978491C2170ED498B549DF86A
:103C500001100144C8B29DF800100144C8B218BD5B
:103C600011B500209DF80120E4490B780978491C22
:103C7000E24C2170E249CA549DF8003021460A788E
:103C80000978491C2170DE498B549DF801100144CC
:103C9000C8B29DF800100144C8B218BD11B500208B
:103CA0009DF80320D5490B780978491CD34C217025
:103CB000D349CA549DF8022021460B780978491C43
:103CC0002170CF49CA549DF8012021460B7809780C
:103CD000491C2170CA49CA549DF8002021460B781E
:103CE0000978491C2170C649CA549DF80310014443
:103CF000C8B29DF802100144C8B29DF801100144F9
:103D0000C8B29DF800100144C8B218BD11B5002416
:103D10000020BA4908708820FFF77BFF2044C4B216
:103D2000A120FFF776FF2044C4B20220FFF771FF05
:103D30002044C4B29DF80100FFF76BFF2044C4B2D9
:103D40009DF80000FFF765FF2044C4B22046FFF74E
:103D500060FF18BD30B5054600240020A749087053
:103D60008820FFF74DFF2044C4B2A120FFF748FF91
:103D70002044C4B20220FFF743FF2044C4B22846C7
:103D8000FFF750FF2044C4B22046FFF739FF30BD93
:103D900030B5054600240020984908708820FFF7B8
:103DA0002FFF2044C4B2A120FFF72AFF2044C4B251
:103DB0000220FFF725FF2044C4B22846FFF750FF3A
:103DC0002044C4B22046FFF71BFF30BD2DE9F0416F
:103DD00080460D4616461F4600240020874908707D
:103DE0008820FFF70DFF2044C4B24046FFF708FFCC
:103DF0002044C4B20C20FFF703FF2044C4B228467D
:103E0000FFF74CFF2044C4B23046FFF747FF204481
:103E1000C4B23846FFF742FF2044C4B22046FFF741
:103E2000EFFEBDE8F08130B505460024002073495F
:103E300008708820FFF7E4FE2044C4B2A120FFF7F9
:103E4000DFFE2044C4B20120FFF7DAFE2044C4B2F2
:103E50002846FFF7D5FE2044C4B22046FFF7D0FE27
:103E600030BD1FB500240020644908708820FFF78A
:103E7000C7FE2044C4B2AF20FFF7C2FE2044C4B244
:103E80001C20FFF7BDFE2044C4B29DF80100FFF7DF
:103E9000B7FE2044C4B29DF80000FFF7B1FE2044F5
:103EA000C4B29DF80500FFF7ABFE2044C4B29DF8F4
:103EB0000400FFF7A5FE2044C4B29DF80900FFF7F7
:103EC0009FFE2044C4B29DF80800FFF799FE2044ED
:103ED000C4B29DF80D00FFF793FE2044C4B29DF8D4
:103EE0000C00FFF78DFE2044C4B29DF81900FFF7C7
:103EF00087FE2044C4B29DF81800FFF781FE2044DD
:103F0000C4B29DF81D00FFF77BFE2044C4B29DF8AB
:103F10001C00FFF775FE2044C4B20020FFF770FEBE
:103F20000020FFF76DFE0020FFF76AFE0020FFF77C
:103F300067FE0020FFF764FE0020FFF761FE9DF89A
:103F40002100FFF75DFE2044C4B29DF82000FFF77A
:103F500057FE2044C4B29DF82500FFF751FE2044CF
:103F6000C4B29DF82400FFF74BFE2044C4B20020E9
:103F7000FFF746FE0020FFF743FE0020FFF740FE5C
:103F80000020FFF73DFE0020FFF73AFE0020FFF77C
:103F900037FE2046FFF734FE1FBD1FB5002400206A
:103FA000164908708820FFF72BFE2044C4B2AE20CB
:103FB000FFF726FE2044C4B21C20FFF721FE204458
:103FC000C4B20020FFF71CFE0020FFF719FE0020FE
:103FD000FFF716FE0020FFF713FE0020FFF710FE8C
:103FE0000020FFF70DFE0020FFF70AFE0020FFF77C
:103FF00007FE0020FFF704FE002005E0D2000020AD
:1040000048010020CC000020FFF7FAFD0020FFF758
:10401000F7FD0020FFF7F4FD0020FFF7F1FD002081
:10402000FFF7EEFD0020FFF7EBFD0020FFF7E8FDB6
:104030000020FFF7E5FD0020FFF7E2FD9DF80100FD
:10404000FFF7DEFD2044C4B29DF80000FFF7D8FD65
:104050002044C4B29DF80500FFF7D2FD2044C4B24D
:104060009DF80400FFF7CCFD2044C4B29DF8090080
:10407000FFF7C6FD2044C4B29DF80800FFF7C0FD5D
:104080002044C4B29DF80D00FFF7BAFD2044C4B22D
:104090009DF80C00FFF7B4FD2044C4B29DF8190050
:1040A000FFF7AEFD2044C4B29DF81800FFF7A8FD4D
:1040B0002044C4B22046FFF7A3FD1FBD1FB5002456
:1040C0000020FD4908708820FFF79AFD2044C4B203
:1040D000AC20FFF795FD2044C4B21C20FFF790FDF3
:1040E0002044C4B2AD20FFF78BFD2044C4B29DF83C
:1040F0000100FFF785FD2044C4B29DF80000FFF7E2
:104100007FFD2044C4B29DF80500FFF779FD2044EF
:10411000C4B29DF80400FFF773FD2044C4B29DF8BB
:104120000900FFF76DFD2044C4B29DF80800FFF7B9
:1041300067FD2044C4B29DF80D00FFF761FD2044E7
:10414000C4B29DF80C00FFF75BFD2044C4B29DF89B
:104150001900FFF755FD2044C4B29DF81800FFF781
:104160004FFD2044C4B29DF81D00FFF749FD2044D7
:10417000C4B29DF81C00FFF743FD2044C4B20020E8
:10418000FFF73EFD0020FFF73BFD0020FFF738FD65
:104190000020FFF735FD0020FFF732FD0020FFF77C
:1041A0002FFD0020FFF72CFD0020FFF729FD002048
:1041B000FFF726FD0020FFF723FD0020FFF720FD7D
:1041C0000020FFF71DFD0020FFF71AFD0020FFF77C
:1041D00017FD0020FFF714FD2046FFF711FD1FBD5E
:1041E00070B50446002506E029466A1CD5B2B34ADC
:1041F000505C01F053F8A542F6DB70BD70B5044683
:10420000002506E029466A1CD5B2AD4A505C01F093
:1042100045F8A542F6DB70BD10B50D2001F03EF863
:104220000A2001F03BF810BD70B5044642F2107050
:10423000B4FBF0F03030C5B2284601F02FF842F25E
:104240001070B4FBF0F100FB11404FF47A71B0FB39
:10425000F1F03030C5B2284601F020F84FF47A7002
:10426000B4FBF0F100FB11406421B0FBF1F0303001
:10427000C5B2284601F012F86420B4FBF0F100FB4F
:1042800011400A21B0FBF1F000F13005284601F0A1
:1042900005F80A20B4FBF0F100FB114000F13005F5
:1042A000284600F0FBFF70BD70B504464FF47A70ED
:1042B000B4FBF0F03030C5B2284600F0EFFF4FF409
:1042C0007A70B4FBF0F100FB11406421B0FBF1F017
:1042D0003030C5B2284600F0E1FF6420B4FBF0F1B5
:1042E00000FB11400A21B0FBF1F000F13005284637
:1042F00000F0D4FF0A20B4FBF0F100FB114000F104
:104300003005284600F0CAFF70BD70B50446642031
:10431000B4FBF0F03030C5B2284600F0BFFF642097
:10432000B4FBF0F100FB11400A21B0FBF1F000F109
:104330003005284600F0B2FF0A20B4FBF0F100FB84
:10434000114000F13005284600F0A8FF70BD70B59F
:1043500004460A20B4FBF0F03030C5B2284600F025
:104360009DFF0A20B4FBF0F100FB114000F1300585
:10437000284600F093FF70BD2DE9FC5F4FF0000967
:10438000002400BF06E04F48005D484400F0FF09EC
:10439000601CC4B21F2CF6DB4A48C07F484501D0E0
:1043A000BDE8FC9F474800788A2800D0F8E74548D8
:1043B00040788B287ED1434880781C28FAD1414828
:1043C000C078AD2843D140498868404900F037FBA8
:1043D000019000F064FD85B23B4948683B4900F01C
:1043E0002EFB019000F05BFD86B237490868374923
:1043F00000F025FB019000F052FD87B23449886837
:10440000324900F01CFB019000F049FD1FFA80F8D2
:104410002F4948682D4900F012FB019000F03FFD44
:104420001FFA80FA2A490868284900F008FB019021
:1044300000F035FD1FFA80FB3B4642465146584688
:10444000CDE90065FFF73AFE2020FFF7C9FE1D48C1
:10445000C078AE28AED11B4949791A4A127941EA8F
:10446000022000F0E4FC824600F065FD07460022D1
:10447000184B00F06DFC054600F0A0FD14490860E3
:104480001049C9790F4A927941EA022000F0CFFC25
:10449000824600F050FD074600220E4B00F058FC0B
:1044A000054600F08BFD0A4948600649497A054AED
:1044B000127A11E060E00000D200002048010020E4
:1044C000CC0000201C010020780100200000C84220
:1044D000680100200000594041EA022000F0A7FCDA
:1044E000824600F028FD07460022244B00F030FCF5
:1044F000054600F063FD224988602249C97A214AB5
:10450000927A41EA022000F092FC824600F013FD0C
:1045100007460022194B00F01BFC054600F04EFD3B
:10452000194908601749497B164A127B41EA022063
:1045300000F07DFC824600F0FEFC074600220F4B97
:1045400000F006FC054600F039FD0F4948600D49B2
:10455000C97B0C4A927B41EA022000F068FC82464B
:1045600000F0E9FC07460022044B00F0F1FB054691
:1045700000F024FD0449886000BF11E700005940A5
:10458000680100201C010020780100204FF07E50BF
:10459000D1490860002048604FF07C508860CF48C7
:1045A000C8604FF07E50CE490860002048604FF050
:1045B0007C508860C948C860704770B5C9480168B8
:1045C000C948006800F035FAC8490860C548006865
:1045D00000F0B1FC0446C64AC64B00F0D7FC0CD232
:1045E000C048006800F0A7FC0446C14AC24B00F076
:1045F000B5FC02D20020C1490860B7494868B949F2
:10460000096800F01CFA0446BC480168204600F026
:1046100013FABA490860BA49B448006800F00FFAC2
:10462000AD49C860C868002100F0E4FC0AD2AA487D
:10463000C06880F00044B349204600F0A8F9A649BC
:10464000C86006E0A449C868AE4900F0A0F9A249D4
:10465000C860A148C168A948006800F0D5FC03D231
:104660009D48C068A54908609B48C168A348006888
:1046700000F0CAFC05D29848C06880F000409F490D
:10468000086095498868A049096800F0D8F905468E
:10469000914908689549096800F0D1F9064697489C
:1046A0000168304600F073F90446294600F0C1F96C
:1046B00096490860964801689648006800F0B9F984
:1046C000954908609248006800F035FC0446884A25
:1046D000884B00F05BFC0CD28D48006800F02BFC8E
:1046E0000446834A844B00F039FC02D200208B49F7
:1046F00008607B4948688649096800F0A0F90446CB
:1047000086480168204600F097F9844908607C4992
:104710008148006800F093F97149C860C8680021B9
:1047200000F068FC0AD26E48C06880F00044754909
:10473000204600F02CF96A49C86006E06849C8685C
:10474000704900F024F96649C8606548C16873483B
:10475000006800F059FC03D26148C0686F490860E6
:104760005F48C1686D48006800F04EFC05D25C48A7
:10477000C06880F000406949086059498868684904
:10478000096800F05CF905465549086862490968FE
:1047900000F055F9064661480168304600F0F7F828
:1047A0000446294600F045F95E4908605E48006805
:1047B00000F03DFB064655480168304600F039F9E7
:1047C000054658480168284600F0E1F8044600F024
:1047D0004DFB00B2554908805348006800F027FBA4
:1047E00006464A480168304600F0D1F805464D4873
:1047F0000168284600F0CBF8044600F037FB00B211
:104800004B4908804848006800F011FB06463F48C5
:104810000168304600F0BBF805464248016828466A
:1048200000F007F9044600F021FB00B2414908807E
:104830003D48006800F0FBFA0646344801683046FF
:1048400000F0F7F8054637480168284600F0F1F80F
:10485000044600F00BFB00B23749088070BD2DE91B
:10486000F04104460D4616461F46B4F57A7F01DB3B
:1048700040F2E734B5F57A7F01DB40F2E735B6F573
:104880007A7F01DB40F2E736B7F57A7F01DB40F251
:10489000E737002C00DA0024002D00DA0025002E76
:1048A00000DA0026002F00DA0027A9B24FF080407E
:1048B000FDF784FAB1B24FF08040FDF781FAA1B262
:1048C0004FF08040FDF77EFAB9B24FF08040FDF71F
:1048D0007BFABDE8F08100006801002000009643EB
:1048E00078010020E0000020D4000020EC0000202F
:1048F0009A9999999999B9BF9999B93F0C01002052
:10490000000020410000C842640000200001002097
:10491000E4000020D8000020F0000020100100205A
:104920006800002004010020FC000020F4000020AA
:10493000F6000020F8000020FA000020D2B201E0CA
:1049400000F8012B491EFBD270470022F6E710B594
:1049500013460A4604461946FFF7F0FF204610BDED
:1049600010B5002200E0521C835C8C5CA34201D194
:10497000002BF8D1D8B2E1B2401A10BD034611F8AD
:10498000012B00F8012B002AF9D118467047F0B42A
:1049900080EA0102D40F4200B2EB410F02D202467C
:1049A000084611464A0042D0C30DDDB2C1F3C752DA
:1049B000AD1A202D35DAC1F3160141F4000204B11D
:1049C0005242C5F1200602FA06F12A411044B3EB27
:1049D000D05F23D0C4B1012DA0EBC35009DCF0BCE3
:1049E0004FF0004202EAC352DBB200F5000000F0D3
:1049F0004FBB400000F1807000EBC350A0F180700D
:104A000040EAD170490009E0490841EAC071A0EBD1
:104A1000C35000F50000400800EBC350F0BC00F0AC
:104A20002EBB6142012202EB4101001BF6E7F0BC04
:104A3000704781F00041AAE780F00040A7E780EAD4
:104A4000010210B502F00043400022D04A001FD0FE
:104A5000010E01EB1261C0F35600C2F3560240F49E
:104A6000000042F40002A0FB022000047F3914047D
:104A700000D0401C50EA124001D44000491EC2B28E
:104A80000C0604EBD010401C4008802A02D003E042
:104A9000002010BD20F00100002900DA002018439A
:104AA00010BD30B480EA010202F0004530F000424F
:104AB00021F0004013D090B1C30DD40DC2F3160104
:104AC000C0F31600E41A41F4000140F400027D3402
:104AD000914201D3641C00E04900002C02DA30BC92
:104AE000002070474FF400000023914201D3891A3F
:104AF000034340084FEA4101F7D151B1914202D13D
:104B00004FF0004105E002D24FF0010101E06FF0EB
:104B1000010103EBC450284430BC00F0B0BA2DE9C9
:104B2000FE4F804681EA0300C00F0C46009021F042
:104B3000004123F00045B8EB0200A94105D24046F0
:104B4000214690461C460B46024623F00040104387
:104B500047D0270DC7F30A00C3F30A510290401A49
:104B6000019040286BDAC3F3130040F4801B0098D7
:104B7000924620B10023D2EB030A63EB0B0B0198A2
:104B80005946C0F14002504600F048FA06460D462C
:104B900050465946019A00F060FA10EB0800614156
:104BA000002487EA115284EAE7731A4340D0009A3E
:104BB00062B3019A012A4FEA075215DC001B61EB30
:104BC00002014FF0004202EA0752CDE90042001C08
:104BD00041F5801132462B4600F097FA03B0BDE84C
:104BE000F08F40462146F9E7001B61EB0201001CF3
:104BF00041F5801300185B412018A2F5001747EB20
:104C0000030140EAD570B6196D4111E06D084FEA15
:104C1000360645EAC0754FEA0752001B61EB0201F8
:104C2000001C41F5801149084FEA3000001951413C
:104C300032462B4603B0BDE8F04F00F057BA00985B
:104C4000012240000023D0EB020263EBE0730098E6
:104C500021464FEAE074B8EB000061EB0401E9E79C
:104C600083F000435BE781F0004158E72DE9FE4FF8
:104C700081EA030404F0004421F0004100944FF065
:104C8000000B23F0004350EA01045ED052EA030413
:104C90005BD0C3F30A54C1F30A552C44A4F2F33495
:104CA0000194A0FB0254C1F3130141F48011C3F33A
:104CB000130343F4801301FB024400FB034E840AF8
:104CC000970A44EA815447EA8357A4FB0768029590
:104CD0008D0A05FB07854FEA932C04FB0C5427052E
:104CE000029D4FEA065847EA1637B5EB08056EEB0A
:104CF000070C870E920E47EA811742EA8312A7FB40
:104D00000201B6EB0B0164EB00042B0D43EA0C33FC
:104D10005E1844EB1C50DA465146E7FB0201C5F32E
:104D200013044FEA0B3343EA14534FEA0432019C55
:104D300043EA0603A4F10C040294009CCDE900B4FC
:104D400000F0E3F903B0BDE8F08F00200146F9E779
:104D50002DE9F04D81EA030404F0004B21F00045F9
:104D600014464FF0000A23F0004150EA050220D01B
:104D700054EA01021DD0C5F30A570246C5F31303D6
:104D8000C1F31300C1F30A5640F4801543F48013B5
:104D9000A7EB0608101BD64608F2FD3873EB05009A
:104DA00002D308F1010801E092185B41B8F1000F4D
:104DB00003DA00200146BDE8F08D00204FF4801199
:104DC000064684460EE0171B73EB050705D3121B3E
:104DD00063EB050306434CEA010C49084FEA300037
:104DE00092185B4150EA0107EDD152EA030012D05C
:104DF00082EA040083EA0501084305D0101BAB4199
:104E000006D20122002306E000224FF0004302E018
:104E10006FF0010253101AEB06004CEB085110EB37
:104E20000A0041EB0B01BDE8F04D00F05FB9C10F86
:104E300080EAE0700844CA079623002100F028B9F0
:104E400096230022114600F023B90EB5C10F80EA67
:104E5000E0700844CA07002140F233438DE80E0099
:104E60000A460B4600F051F903B000BD00F00042C5
:104E700020F00040C10DC0F3160040F400007F296F
:104E800001DA00207047962903DCC1F19601C84081
:104E900001E096398840002AF4D04042704720F063
:104EA0000040C10DC0F3160040F400007F2901DA74
:104EB00000207047962903DCC1F19601C840704775
:104EC00096398840704770B5C1F30A5201F0004529
:104ED0000024C1F3130140F2FF3341F480119A42E0
:104EE00001DA002070BD40F233439A42A2F233420D
:104EF00003DC524200F0A1F800E090402C43F1D0D6
:104F0000404270BDC1F30A5210B5C1F3130140F223
:104F1000FF3341F480119A4201DA002010BD40F2C3
:104F200033439A42A2F2334203DC524200F085F846
:104F300010BD904010BD00F0004230F000400AD09B
:104F4000C10D01F56071C0F3160042EA0151C208BB
:104F500040071143704700200146704730B5041EDA
:104F600071F1000404DB4FF00044404264EB0101A6
:104F7000141E73F1000405DB1C464FF0004352423F
:104F800063EB04038B4208BF824230BD30B5041E80
:104F900071F1000404DB4FF00044404264EB010176
:104FA000141E73F1000405DB1C464FF0004352420F
:104FB00063EB0403994208BF904230BD01F0004307
:104FC00030B421F0004150EA010206D00A0DA2F5EA
:104FD0006072C1F31301002A02DC30BC002070476C
:104FE000440F44EAC104C100E01830BC00EBC250D9
:104FF00000F045B8002801DBC0F10040002901DBCA
:10500000C1F1004181427047002801DBC0F100403E
:10501000002901DBC1F1004188427047202A04DBEE
:10502000203A00FA02F1002070479140C2F12003BB
:1050300020FA03F3194390407047202A04DB203AFA
:1050400021FA02F00021704721FA02F3D040C2F1A8
:1050500020029140084319467047202A06DBCB17EF
:10506000203A41FA02F043EAE07306E041FA02F323
:10507000D040C2F1200291400843194670470029F0
:10508000A8BF7047401C490008BF20F001007047CE
:1050900010B4B0FA80FC00FA0CF050EA010404BF2E
:1050A00010BC704749B1CCF1200421FA04F411FA84
:1050B0000CF118BF012121430843A3EB0C01CB1DC8
:1050C0004FEA00614FEA102042BF002010BC704739
:1050D00000EBC35010440029A4BF10BC7047401C13
:1050E000490008BF20F0010010BC704710B5141E25
:1050F00073F1000408DA401C41F1000192185B4191
:105100001A4301D120F0010010BD2DE9F04D924667
:105110009B4611B1B1FA81F202E0B0FA80F220327E
:105120009046FFF77BFF04460F4640EA0A0041EA3B
:105130000B0153465A46084313D0114653EA010067
:1051400019D0C8F140025046FFF777FF05460E46DA
:10515000504659464246FFF761FF084305D00120FB
:1051600004E020463946BDE8F08D0020054346EABC
:10517000E0762C4337430A986305E40AA0EB080065
:105180000022FD0A44EA47540A3002D500200146B5
:10519000E9E7010510196941DDE908450019694190
:1051A000BDE8F04DA2E770B521F0004303430CD0F9
:1051B000C1F30A550024D5EB040564EB0403D617AC
:1051C000AD1AB34102DB0020014670BD201841EB4F
:1051D000025170BD2DE9F04D00231A461B1A8A4179
:1051E00003DB00200146BDE8F08DC1F30A52C1F394
:1051F000130141F480154FF0000BD10702D10018C4
:105200006D41521E0027044640F2FF11384601EB63
:10521000620A3E468046024600204FF48011FFF7A6
:105220000CFFC2197141BB1846EB0100B4EB030C33
:1052300075EB000C04D3E41A65EB000517460E4627
:10524000241908F101006D4180463428E3DDF91985
:1052500046EB0600091BA84103D24FF0FF3213466C
:1052600001E0002213461BEB070046EB0A51BDE8A4
:10527000F04DFFF73BBF0000064C074D06E0E0682D
:1052800040F0010394E8070098471034AC42F6D38D
:10529000FAF730FF405B0008605B000810B5044679
:1052A00021460648FBF7FAFD00BF40210348FBF703
:1052B00063FE0028F9D0204610BD000000380140F0
:1052C000490050EAC12018BF04204A0D18BF40F021
:1052D000010040F2FF72B2EB515F08BF40F00200E4
:1052E000012808BF052070472DE9F0414F1E00EB53
:1052F000C7010446D1E9000115461E4637F00602F3
:105300000DD02A463346FFF7B1FC7F1E04EBC703DE
:10531000D3E90023FFF703FC37F00602F1D1022F97
:1053200025D0042F13D0062F18BFBDE8F0812A46E0
:105330003346FFF79BFCD4E90A23FFF7F0FB2A462C
:105340003346FFF793FCD4E90823FFF7E8FB2A462E
:105350003346FFF78BFCD4E90623FFF7E0FB2A4630
:105360003346FFF783FCD4E90423FFF7D8FB2A4632
:105370003346FFF77BFCD4E90223FFF7D0FB2A4634
:105380003346FFF773FCD4E90023BDE8F041FFF793
:10539000C6BB0122FFF707BFFFF7C1BB00221346C0
:1053A00010461146FFF7D4BC024A00201107FFF750
:1053B000FABE000001FDFFFF02E008C8121F08C18D
:1053C000002AFAD170477047002001E001C1121F86
:1053D000002AFBD1704700000149086070470000B7
:1053E000180100202DE9F04D8D4F21F0004A86B0C4
:1053F00005460C46BA452ADBAAEB070028430AD02B
:105400008848824501DC1AD1CDB106B02846BDE8F6
:10541000F04DFFF7BEBF844A844B2846FFF726FCB9
:1054200007460E46824A834B28462146FFF71EFC5C
:1054300006B03A463346BDE8F04DFFF770BB012099
:10544000FFF7CAFF06B0BDE8F04DFFF7A7BF7A48E7
:10545000824542DABAF1795F0BDA2846FFF730FF6E
:10546000042808BFFFF7A0FF284606B02146BDE884
:10547000F08D2A460B461046FFF7F8FB834602469E
:105480006E480E460B4606217844FFF72DFF5A461C
:105490003346FFF7EBFB804669488A465A46334657
:1054A00004217844FFF720FF5A463346FFF7DEFB1E
:1054B00000223B46FFF733FB02460B46404651466F
:1054C000FFF746FC2A462346FFF7D0FB06B02A46E4
:1054D0002346BDE8F04DFFF722BB284624F00041EB
:1054E00000223D463B46FFF7BEFB4FF0FF32FFF781
:1054F0005AFE0646024653480F460B46062178449C
:10550000FFF7F2FE32463B46FFF7B0FBCDE9000164
:105510004D4832463B4604217844FFF7E5FE3246CB
:105520003B46FFF7A3FB00222B46FFF7F8FA834622
:1055300002913046394600F05DFA804643480D46F8
:10554000504517DCDDE900015A46029BFFF700FCDD
:1055500042462B46FFF78AFB42462B46FFF7DFFA0F
:105560000122FFF720FE304A304BFFF779FB304A2B
:10557000304B4CE04FF0000A52460B464046FFF7D6
:10558000CEFACDE9031052462B4610461946FFF7D6
:105590006DFB32463B46FFF766FBDDE90332FFF762
:1055A000D7FB06460F46DDE900015A46029BFFF78E
:1055B000CFFB83460091012230463946FFF7F3FDC9
:1055C000194A1A4BFFF74FFB06460F460122404689
:1055D0002946FFF7E8FD5A46009BFFF747FB324696
:1055E0003B46FFF73DFB06460F4601225046294643
:1055F000FFF7D9FD0E4DDFF858802A464346FFF7E6
:1056000032FB32463B46FFF72EFB2A464346FFF766
:105610002AFB002CD8BF81F0004106B0BDE8F08D18
:105620000000F03F0000F07F075C143326A6913C99
:10563000182D4454FB21F93F0000E03FC405000051
:10564000DA0500004E050000640500003333EF3F2B
:10565000FB21E93F2DE9F84F04460D4621F00040BB
:1056600000917349814211DC7249884201DC06D104
:105670002CB120462946BDE8F84FFFF78ABE6E4898
:10568000002DCCBF6D496E49BDE8F88F6D49814250
:1056900011DD6D498142D8BF4FF0FF366DDD2046E8
:1056A0002946FFF70DFE042808BFFFF77DFE2046C0
:1056B0002946BDE8F88F6549654F25F000458142D0
:1056C00033DD6449814219DD002632464FF08043C4
:1056D00020462946FFF723FA80468A4601222046C3
:1056E0002946FFF760FD00223B46FFF7B9FA424624
:1056F0005346FFF72DFB04460D463EE001260022EF
:10570000BA463B4620462946FFF709FA80460F462F
:105710000022534620462946FFF7A2FA42463B465E
:10572000FFF716FB04460D4627E04B4981421BDD7F
:10573000DFF828A102260022534620462946FFF71B
:1057400095FA00223B46FFF7EAF980460F46002211
:10575000534620462946FFF783FA42463B46FFF769
:10576000F7FA04460D4608E0032622462B460020A1
:105770003B49FFF7EDFA04460D4622462B461046FC
:105780001946FFF773FA8B46824602460B46FFF72F
:105790006DFA07460246334888460B460621784490
:1057A000FFF7A2FD52465B46FFF760FA82462E489D
:1057B0008B463A46434605217844FFF795FD3A4625
:1057C0004346FFF753FA02460B46002E5046594611
:1057D0000CDAFFF7A4F922462B46FFF747FA01B08F
:1057E00022462B46BDE8F04FFFF73DBAFFF797F989
:1057F00022462B46FFF73AFA1C4A7A4402EBC603CC
:10580000D3E90023FFF72CFA22462B46FFF728FAAC
:10581000174A7A4402EBC603D3E90023FFF723FAC1
:10582000009A002AB8BF81F00041BDE8F88F00005F
:10583000000010440000F07F182D4454FB21F93F74
:10584000FB21F9BF0000DC3F0000203E0000F33FD9
:105850000000F03F0000E63F008003400000F83FFA
:105860000000F0BF6603000024030000C202000035
:105870008A0200002DE9F04D9446CCF1000423F09B
:1058800000464CEA0404524F46EAD4749A468846CD
:1058900021F00042BC4206D8454240EA050442EAF3
:1058A000D474BC4204D9BDE8F04D6246FFF774BD24
:1058B000AAF14055A5F17F6555EA0C040BD00224EE
:1058C00004EAAA74434DDFF810E144EAD87452EABE
:1058D000000B04D00CE0BDE8F04DFFF7BBBE002C80
:1058E00014BF012CBDE8F08D022C30D0032C32D037
:1058F00056EA0C0B0AD0BE4220D1BA4209D126F09A
:10590000804622F080423346114617E000291ADB18
:1059100025E0DFF8C8B0FB44002C04BFDBE9000140
:10592000BDE8F08D012C02BFDBE9000181F00041F0
:10593000BDE8F08D022C0AD0032C0CD0BA4212D153
:10594000B8F1000F0BDA23482549BDE8F08D284651
:105950002449BDE8F08D28467146BDE8F08D1D480C
:105960002149BDE8F08D921B12153C2AC4BF19488D
:105970001D490EDCBAF1000FBEBF12F13C0F002032
:10598000014606DB6246FFF7E3F921F00041FFF72D
:1059900061FE002C08BFBDE8F08D012C04BF81F032
:1059A0000041BDE8F08D114A114B022C07D0FFF7E2
:1059B00057F92A46BDE8F04D0A4BFFF751B9FFF7FA
:1059C0004FF92A46BDE8F04D064BFFF74CB90000F1
:1059D0000000F07F182D4454FB2109C01E02000076
:1059E000FB21F9BFFB210940FB21F93F075C143380
:1059F00026A6A13C2DE9F04106460F46FFF7EAFB3B
:105A000004000D4618BF0120284320F00040C0F1DB
:105A10007F6000F1E040C00F0ED0301C18BF0120A5
:105A2000384320F00040C0F17F6000F1E040C00F3B
:105A300004BF0120FFF7D0FC20462946BDE8F081D5
:105A40003443101001344310100100000000000026
:105A5000555555555555C53F7D6FEB0312D6D4BFEF
:105A60005544880E55C1C93F3B8F68B52882A4BFF5
:105A700088B20175E0EF493F09F7FD0DE13D023FB6
:105A80004B2D8A1C273A03C0C88A599CE52A00403E
:105A900059018D1B6C06E6BF82922EB1C5B8B33F8B
:105AA0004FBB610567ACDD3F182D4454FB21E93F36
:105AB0009BF681D20B73EF3F182D4454FB21F93F25
:105AC000E2652F227F2B7A3C075C143326A6813CAB
:105AD000BDCBF07A8807703C075C143326A6913C56
