:020000040800F2
:100000009805002001010008D1030008D30300086F
:10001000D7030008DB030008DF030008000000002E
:10002000000000000000000000000000E3030008E2
:10003000E503000800000000E7030008E9030008EA
:100040001B0100081B0100081B0100081B01000820
:100050001B0100081B0100081B0100081B01000810
:100060001B0100081B0100081B0100081B01000800
:100070001B0100081B0100081B0100081B010008F0
:100080001B0100081B0100081B0100081B010008E0
:100090001B0100081B0100081B0100081B010008D0
:1000A0001B0100081B0100081B0100081B010008C0
:1000B0001B0100081B0100081B0100081B010008B0
:1000C0001B0100081B0100081B0100081B010008A0
:1000D0001B0100083F2500081B0100081B01000848
:1000E0001B0100081B0100081B010008DFF80CD0F1
:1000F00005F0A2F8004800472501000898050020F7
:100100000648804706480047FEE7FEE7FEE7FEE7B1
:10011000FEE7FEE7FEE7FEE7FEE7FEE7DB2100087D
:10012000ED00000890B000200790089006908246ED
:1001300093A103C9CDE9040102F026F902F0D0F839
:100140004FF4E13002F092F902F05EF902F022FA87
:1001500002F062FB002140F2E73003F035FA03F0D1
:1001600064F902F06BFF03F0F5FA03F0FDFA0023E7
:100170001A461946184604F04EFB03F001FB02E054
:1001800020208149086003F091FB0028F8D103F09A
:1001900022FC04F0CFF9F1E002F073FF0CA802F0AA
:1001A000D5FD09A802F02AFE07A803F0F7FB0028F6
:1001B00037D19DF81C109DF81D2041EA022004F063
:1001C00000FE804604F081FE064600226F4B04F0DC
:1001D00089FD044604F0BCFE0690069804F075FE06
:1001E000044600226A4B04F00BFD064604F035FE7F
:1001F0008246514667A005F043F89DF81E0061282D
:1002000003D165A104A804F083FB9DF81E006228B9
:1002100003D15BA104A804F07BFB04A960A005F056
:100220002FF857A104A804F065FB30B900231A4643
:100230001946184604F0EFFA1DE057A104A804F08F
:1002400059FBC0B95748C0F800A057490B9808603F
:1002500056490A98086004F084F95548B0F900300E
:100260005448B0F900205448B0F900105348B0F990
:10027000000004F0D0FA52480068012806D104F0CA
:100280004FF800204E4908604E4908604E490A98D0
:1002900004F09FFB064604F0B3FD04B24A490B98F4
:1002A00004F097FB064604F0ABFD05B20020009079
:1002B000034602460146CDE90254019003F0A5FD34
:1002C000202003F061FF3A48B0F9000004F087FDF8
:1002D000804600222D4B04F005FD064600223B4BD4
:1002E00004F08EFC044604F0D7FD1FFA80FB314871
:1002F000B0F9000004F073FD80460022234B04F0A7
:10030000F1FC06460022314B04F07AFC044604F06E
:10031000C3FD80B203902848B0F9000004F05FFDEF
:1003200080460022194B04F0DDFC06460022274BD4
:1003300004F066FC044604F0AFFD80B202901F4852
:10034000B0F9000004F04BFD064600220F4B04F00C
:10035000C9FC044600221D4B04F052FC804604F008
:100360009BFD80B201904FF4A0705B46009001A805
:1003700007C803F0E6FD202003F006FF0CE70000AD
:1003800073746F7000000000140C014000408F4037
:1003900000388F4025640A00737461727400000095
:1003A00025730000F8000020DC000020E0000020A1
:1003B000F6000020F4000020F2000020F0000020F1
:1003C000300000202C0000200000C84200005940EE
:1003D000704700BFFEE700BFFEE700BFFEE700BFBB
:1003E000FEE770477047704770470000314901438E
:1003F000314A1160704770B5002100230F22C47884
:1004000004B32D4C246804F4E064C4F5E064210ACC
:10041000C1F10403CA40447804FA03F1847814401B
:1004200021430901254C0678A155047804F01F05E5
:100430000124AC4005786D11AD0005F1E025C5F84B
:10044000004109E0047804F01F050124AC401C4D74
:100450000678761145F8264070BD1A4A0A400243D4
:10046000154B1B1F1A60704739B1134A121D1268D1
:100470000243114B1B1D1A6006E00F4A121D126841
:1004800082430D4B1B1D1A607047042808D14FF0A2
:10049000E021096941F004014FF0E022116107E019
:1004A0004FF0E021096921F004014FF0E0221161D1
:1004B000704700000000FA050CED00E000E400E0E9
:1004C00080E100E080FFFF1F10B50446CC48844265
:1004D00008D10121042000F02DFB0021042000F0B0
:1004E00029FB46E0C748844208D10121082000F0DA
:1004F00021FB0021082000F01DFB3AE0C2488442A5
:1005000008D10121102000F015FB0021102000F07F
:1005100011FB2EE0BD48844208D10121202000F0CB
:1005200009FB0021202000F005FB22E0B8488442AE
:1005300008D10121402000F0FDFA0021402000F008
:10054000F9FA16E0B348844208D10121802000F076
:10055000F1FA0021802000F0EDFA0AE0AE48844272
:1005600007D10121801500F0E5FA0021A01500F067
:10057000E1FA10BD10B50121084600F0DBFA0021B8
:10058000012000F0D7FA10BD2DE9F0410246002508
:100590000026002000230024002791F803C00CF05F
:1005A0000F0591F803C00CF0100CBCF1000F03D044
:1005B00091F802C04CEA050591F800C0BCF1000FAB
:1005C00031D0146800202BE04FF0010C0CFA00F33E
:1005D000B1F800C00CEA03069E4220D183004FF020
:1005E0000F0C0CFA03F7BC4305FA03FC4CEA0404B5
:1005F00091F803C0BCF1280F06D14FF0010C0CFAA2
:1006000000FCC2F814C00AE091F803C0BCF1480F26
:1006100005D14FF0010C0CFA00FCC2F810C0401CD0
:100620000828D1D31460B1F800C0BCF1FF0F34DD4D
:10063000546800202EE000F1080C4FF0010808FA81
:100640000CF3B1F800C00CEA03069E4221D18300EE
:100650004FF00F0C0CFA03F7BC4305FA03FC4CEA0D
:10066000040491F803C0BCF1280F05D100F1080C77
:1006700008FA0CF8C2F8148091F803C0BCF1480FD6
:1006800007D100F1080C4FF0010808FA0CF8C2F885
:100690001080401C0828CED35460BDE8F0814FF68E
:1006A000FF710180022181700421C17070470246F0
:1006B000002093680B400BB1012000E00020704740
:1006C0000146886880B2704702460020D3680B401C
:1006D0000BB1012000E0002070470146C86880B2DD
:1006E000704701617047416170470AB1016100E0E4
:1006F00041617047C16070474FF480320A438261A4
:100700008161826182698269704702460020434BA1
:1007100018684FF68073184040EA021008433F4BB8
:10072000186070473E49C8617047F0B50A4600231B
:1007300000240021002500F00046B6F1004F02D150
:10074000364EF16901E0354E7168C0F3034583B25E
:1007500000F44016B6F5401F08D121F070612F4E0D
:10076000766826F070662D4F7E6012E000F48016E9
:10077000B6F5801F06D1032606FA05F4A14341F021
:10078000706106E0460D360103FA06F6B14341F00A
:10079000706122B1460D360103FA06F6314300F0CE
:1007A0000046B6F1004F02D11C4EF16101E01B4E34
:1007B0007160F0BD30B500228B071C0F0F2303FAC8
:1007C00004F2164B08338C1053F824309343134C27
:1007D00008348D1044F8253023468C1053F824300B
:1007E0008C07240F00FA04F423430C4C08348D10BA
:1007F00044F8253030BD0A49DC31086070470000FC
:1008000000080140000C01400010014000140140AC
:1008100000180140001C0140002001400000014080
:1008200000002042DF48006840F00100DD49086018
:1008300008464068DC490840DA49486008460068D4
:10084000DA490840D74908600846006820F480204B
:1008500008600846406820F4FE0048604FF41F001E
:1008600088607047CF49096821F48031CD4A116012
:100870001146096821F480211160B0F5803F03D052
:10088000B0F5802F0ED106E0C649096841F48031E9
:10089000C44A116007E0C349096841F4A021C14A74
:1008A000116000E000BF00BF704710B50146002294
:1008B000002300204A11012A02D1BA4C236806E025
:1008C000022A02D1B74C236A01E0B64C636A01F0F8
:1008D0001F02012494401C400CB1012000E00020C4
:1008E00010BD38B5002000900024002500BF312045
:1008F000FFF7DBFF05460098401C00900098B0F51C
:10090000A06F01D0002DF2D03120FFF7CEFF08B14B
:10091000012400E00024204638BD01460020A14A01
:10092000106820F0F80040EAC10010607047A0494C
:1009300008607047024600209A4B586820F47C10EB
:1009400042EA01031843974B58607047984908667C
:10095000704701460020934A506820F00300084386
:10096000506070478F48406800F00C0070470146A7
:1009700000208C4A506820F0F00008435060704717
:1009800001460020874A506820F4E0600843506028
:10099000704701460020834A506820F4605040EAC6
:1009A000C1005060704729B17E4A527A02437D4BA4
:1009B0005A7204E07B4A527A82437A4B5A727047E9
:1009C0007B49D8310860704701460020754A50685D
:1009D00020F440400843506070470021714A2032A3
:1009E0001170704A82F82010012802D004280AD120
:1009F00004E001216B4A2032117005E00521694AAB
:100A00002032117000E000BF00BF704769490860E4
:100A100070476449096A0143624A11627047654937
:100A200044390860704730B50021002200240023BB
:100A30005C4D6D6805F00C0121B1042905D0082931
:100A400023D105E05C4D056022E05C4D05601FE0B0
:100A5000544D6D6805F47012524D6D6805F4803484
:100A6000022505EB92421CB9554D554305600BE03C
:100A70004C4D6D6805F400351DB14F4D5543056073
:100A800002E04E4D5543056002E04B4D056000BF4E
:100A900000BF444D6D6805F0F0010909494D6B5CDC
:100AA0000568DD4045603F4D6D6805F4E061090A69
:100AB000444D6B5C4568DD4085603A4D6D6805F4DA
:100AC0006051C90A3F4D6B5C4568DD40C560354DDE
:100AD0006D6805F44041890B3B4D6B5CC568B5FB07
:100AE000F3F5056130BD29B12E4A526902432D4B01
:100AF0005A6104E02B4A526982432A4B5A6170477B
:100B000029B1284A92690243264B9A6104E0254A9A
:100B100092698243234B9A61704729B1214AD26975
:100B20000243204BDA6104E01E4AD26982431D4B26
:100B3000DA61704729B11B4AD2680243194BDA6067
:100B400004E0184AD2688243164BDA60704729B134
:100B5000144A12690243134B1A6104E0114A1269E4
:100B60008243104B1A617047124940390860704740
:100B70000F49C86470470B49C87170470948406AFB
:100B800040F0807007494862704701460020054ADE
:100B900092680A400AB1012000E000207047014934
:100BA00088727047001002400000FFF8FFFFF6FE59
:100BB000000042428004424200127A000024F40005
:100BC00000093D00000000201000002010B5044680
:100BD000FB48844209D101218803FFF7ABFF0021C4
:100BE0004FF48040FFF7A6FF32E0F648844209D177
:100BF00001214804FFF7ABFF00214FF40030FFF75D
:100C0000A6FF25E0F048844209D101218804FFF7BE
:100C10009EFF00214FF48020FFF799FF18E0EB487A
:100C2000844209D10121C804FFF791FF00214FF44C
:100C30000020FFF78CFF0BE0E548844208D101213A
:100C40000805FFF784FF00214FF48010FFF77FFFB6
:100C500010BD2DE9F04786B005460E460024A24699
:100C600000BFA1460027B08900B100BF2F462C8AE3
:100C70004CF6FF700440F08804432C82AC894EF699
:100C8000F3100440B0883189084371890843044354
:100C9000AC81AC8A4FF6FF400440B0890443AC827B
:100CA00001A8FFF7C0FEC648874202D1DDF810A0B8
:100CB00001E0DDF80CA0A88900F4004040B10AEB87
:100CC000CA0000EB0A1031684900B0FBF1F807E0F8
:100CD0000AEBCA0000EB0A1031688900B0FBF1F89A
:100CE0006420B8FBF0F004012009642101FB1089A5
:100CF000A88900F4004040B1322000EBC900B0FBED
:100D0000F1F000F00700044308E0322000EB091086
:100D10006421B0FBF1F000F00F0004432C8106B019
:100D2000BDE8F0874FF41651016000218180C18039
:100D300001810C21418100218181704710B502465B
:100D40000020108A4FF2FF0318400B884C88234381
:100D50008C882343CC8823431843108210BD002184
:100D6000018041808180C180704721B1828942F435
:100D70000052828104E082894DF6FF731A4082811D
:100D80007047F0B50346002400260025002040F6F9
:100D90006A17B94200D100BF1846C1F3421401F0EE
:100DA0001F06012707FA06F5012C01D10C3004E0DB
:100DB000022C01D1103000E014301AB107682F4323
:100DC000076002E00768AF430760F0BD1AB1838A8D
:100DD0000B43838202E0838A8B4383827047028ABB
:100DE0004FF6F0731A400282028A0A430282704769
:100DF00082894FF2FF731A40828182890A4382817D
:100E0000704721B1828942F00202828104E0828926
:100E10004FF6FD731A4082817047028A4FF6DF73E6
:100E20001A400282028A0A430282704721B1028A72
:100E300042F48042028204E0028A4BF6FF731A40B9
:100E400002827047C1F30802828070470146888899
:100E5000C0F308007047818941F00101818170472A
:100E6000028BD2B20283028B42EA012202837047D4
:100E7000028B02F47F420283028B0A430283704793
:100E800021B1828A42F02002828204E0828A4FF6F7
:100E9000DF731A408282704721B1828A42F01002C9
:100EA000828204E0828A4FF6EF731A408282704792
:100EB00021B1828A42F00802828204E0828A4FF6DF
:100EC000F7731A408282704721B1828942F400424E
:100ED000828103E08289C2F30E028281704721B1D0
:100EE000828A42F40062828204E0828A4FF2FF73B7
:100EF0001A4082827047828A4FF6FB731A408282C0
:100F0000828A0A438282704721B1828A42F00202B9
:100F1000828204E0828A4FF6FD731A408282704713
:100F200002460020B1F5007F00D100BF13880B40BE
:100F30000BB1012000E00020704701F40072B2F50F
:100F4000007F00D100BFCA430280704770B50246DF
:100F5000002400230025002040F66A16B14200D18B
:100F600000BFC1F3421501F01F03012606FA03F387
:100F7000012D02D19689334006E0022D02D1168A56
:100F8000334001E0968A33400C12012606FA04F43D
:100F90001688344013B10CB1012000E0002070BD70
:100FA00010B50022002340F66A14A14200D100BF10
:100FB0000A1201249440A3B2DC43048010BD000057
:100FC000003801400044004000480040004C004010
:100FD0000050004010B50446FE48844208D101216B
:100FE000C014FFF7A7FD0021E014FFF7A3FDC4E044
:100FF000B4F1804F08D101210846FFF7A8FD002178
:101000000120FFF7A4FDB8E0F348844208D1012194
:101010000220FFF79CFD00210220FFF798FDACE0C5
:10102000EE48844208D101210420FFF790FD002101
:101030000420FFF78CFDA0E0E948844208D101219B
:101040000820FFF784FD00210820FFF780FD94E0D1
:10105000E448844208D101211020FFF778FD0021E7
:101060001020FFF774FD88E0DF48844208D1012199
:101070002020FFF76CFD00212020FFF768FD7CE0B9
:10108000DA48844208D101214014FFF753FD0021C2
:101090006014FFF74FFD70E0D548844209D101216B
:1010A000C804FFF747FD00214FF40020FFF742FD81
:1010B00063E0D048844209D101210805FFF73AFDD9
:1010C00000214FF48010FFF735FD56E0CA488442F6
:1010D00009D101214805FFF72DFD00214FF4001033
:1010E000FFF728FD49E0C548844208D1012140208E
:1010F000FFF72DFD00214020FFF729FD3DE0C0480E
:10110000844208D101218020FFF721FD00218020A9
:10111000FFF71DFD31E0BB48844208D10121801555
:10112000FFF715FD0021A015FFF711FD25E0B648DA
:10113000844209D101210804FFF7FCFC00214FF48F
:101140008030FFF7F7FC18E0B048844209D1012154
:101150004804FFF7EFFC00214FF40030FFF7EAFCF2
:101160000BE0AB48844208D101218804FFF7E2FC80
:1011700000214FF48020FFF7DDFC10BD0022028823
:10118000944B98420ED0994B98420BD0B0F1804FBF
:1011900008D0914B984205D0904B984202D0904B8A
:1011A000984204D14FF68F731A404B881A438D4BE7
:1011B000984207D08C4B984204D04FF6FF431A4018
:1011C000CB881A4302808B8883850B880385814BEB
:1011D00098420BD0854B984208D08B4B984205D053
:1011E0008A4B984202D08A4B984201D10B7A0386EF
:1011F00001238382704770B5002400220023058CF0
:101200004FF6FE7635400584028C8388048B4FF6BA
:101210008F752C40B51E2C400D882C43751E2A401E
:101220000D892A434D882A436A4DA8420BD06F4D41
:10123000A84208D0744DA84205D0744DA84202D0EF
:10124000734DA84213D14FF6F7752A404D892A43B2
:101250004FF6FB752A408D882A434FF6FF652B40D9
:101260004FF6FF552B408D892B43CD892B4383802F
:101270000483CD888586028470BD70B50024002269
:101280000023058C4FF6EF7635400584028C838869
:10129000048B48F6FF752C404FF6FF452C400D8817
:1012A0004FF6FF7606EA05252C434FF6DF752A40F8
:1012B0000D8906EA05152A434D8806EA05152A43D5
:1012C000444DA84202D0494DA8421DD14FF67F752A
:1012D0002A404D894FF6FF7606EA05152A434FF658
:1012E000BF752A408D8806EA05152A434FF6FF355B
:1012F0002B404FF2FF752B408D8906EA85052B4365
:10130000CD8906EA85052B4383800483CD88058734
:10131000028470BD70B5002400220023058C4FF6B6
:10132000FF6635400584028C8388848B4FF68F7569
:101330002C404FF6FC752C400D882C434FF6FF5582
:101340002A400D894FF6FF7606EA05252A434D8887
:1013500006EA05252A431F4DA84202D0234DA84284
:101360001DD14FF2FF752A404D894FF6FF7606EAF0
:1013700005252A434FF6FF352A408D8806EA0525C4
:101380002A434EF6FF752B404DF6FF752B408D8995
:1013900006EA05152B43CD8906EA05152B43838004
:1013A0008483CD888587028470BD70B500220023B8
:1013B0000024058C4EF6FF7635400584038C848826
:1013C000828B48F6FF752A404FF6FF452A400D886C
:1013D00020E00000002C0140000400400008004014
:1013E000000C004000100040001400400034014098
:1013F000004C0140005001400054014000180040E2
:10140000001C00400020004000400140004401401A
:10141000004801404FF6FF7606EA05252A434DF6BF
:10142000FF752B400D8906EA05352B434D8806EAEA
:1014300005352B43FA4DA84202D0FA4DA84208D1F7
:101440004BF6FF752C408D894FF6FF7606EA851521
:101450002C4384808283CD88A0F84050038470BDE3
:10146000828B4FF2FF331A408283828B4FF6FF73D9
:1014700003EA01231A4382837047F0B50C461546F0
:10148000002200210026078C4EF6FF7C07EA0C079D
:101490000784828B018C4FF6FF7707EA043640F60B
:1014A000FF473A404FF6FF7707EA05273A434FF6E2
:1014B000FF7707EA03373A43D94FB8420ED0D94FE6
:1014C000B8420BD0B0F1804F08D0D74FB84205D00A
:1014D000D64FB84202D0D64FB84206D14DF6FF776C
:1014E000394046F48057394305E047F6FF57394005
:1014F00044F48057394382830184F0BD828B4FF6D8
:10150000F3731A408283828B0A4382837047F0B55B
:101510000C461546002200210026078C4FF6FF6C72
:1015200007EA0C070784828B018C4FF6FF7707EAE6
:1015300004264FF60C773A404FF6FF7707EA031779
:101540002F433A43B64FB8420ED0B64FB8420BD0F5
:10155000B0F1804F08D0B44FB84205D0B34FB84275
:1015600002D0B34FB84206D14FF6FF57394046F488
:101570008077394305E04FF2FF57394044F48077D4
:10158000394382830184F0BD028B4FF2FF331A404E
:101590000283028B4FF6FF7303EA01231A4302838F
:1015A0007047F0B50C461546002200210026078C36
:1015B0004FF6EF7C07EA0C070784028B018C4FF68D
:1015C000FF7707EA041640F6FF473A404FF6FF77E9
:1015D00007EA03373A434FF6FF7707EA05273A430E
:1015E0008F4FB8420ED08F4FB8420BD0B0F1804F22
:1015F00008D08D4FB84205D08C4FB84202D08C4FE6
:10160000B84206D14FF6DF77394046F0100739432C
:1016100005E04FF65F77394044F010073943028305
:101620000184F0BD028B4FF6F3731A400283028BE4
:101630000A4302837047F0B50C461546002200218C
:10164000068C4FF6FE773E400684028B018C4FF6E7
:101650000C7632407E1C06EA03162E433243704E4F
:10166000B0420ED06F4EB0420BD0B0F1804F08D0D8
:101670006D4EB04205D06D4EB04202D06C4EB042BD
:1016800006D14FF6FD76314044F00106314305E0C6
:101690004FF6F576314044F0010631430283018470
:1016A000F0BD70B505460C465D4885420ED05D48DC
:1016B00085420BD0B5F1804F08D05B48854205D0FC
:1016C0005A48854202D05A48854200D100E000BF06
:1016D000208850B92389A28861882846FFF7ABFF8C
:1016E000E1882846FFF79EFF25E0208804280AD1DC
:1016F0002389A28861882846FFF753FFE18828469E
:10170000FFF742FF17E0208808280AD12389A28822
:1017100061882846FFF7FBFEE1882846FFF7EEFECA
:1017200009E02389A28861882846FFF7A6FEE188A0
:101730002846FFF795FE70BD2DE9F04105460C46A1
:1017400000260127608808B9022600E00026A0884C
:10175000012801D1022700E001272088A0B92389B0
:10176000A28861882846FFF766FFE1882846FFF7D0
:1017700059FF23893A4631462846FFF712FFE18890
:101780002846FFF701FF13E02389A28861882846D5
:10179000FFF707FFE1882846FFF7F6FE23893A4660
:1017A00031462846FFF747FFE1882846FFF73AFF12
:1017B000BDE8F0810A884B881A438B881A43CB888E
:1017C0001A430B891A434B891A438B891A43A0F891
:1017D000442070474FF6FF71818000210180C18055
:1017E0004180017270470021018041808180C18069
:1017F000018141818181C181704700210180418047
:10180000012181800021C180018170470021018078
:1018100041808180C18001814181818170470000C8
:10182000002C01400034014000040040000800404A
:10183000000C004021B1028842F00102028004E065
:1018400002884FF6FE731A400280704731B1B0F83B
:10185000442042F40042A0F8442005E0B0F84420BF
:10186000C2F30E02A0F8442070471AB183890B43DB
:10187000838102E083898B43838170478182704733
:1018800041EA0203A0F8483070471AB183890B433C
:10189000838102E083898B438381704701894FF6FE
:1018A000F8721140018170470A46002101894FF604
:1018B0008F73194011430181704730B504460D46BE
:1018C00029462046FFF7F0FF208940F007002081DD
:1018D00030BD2DE9F04104460D4616461F46602DE9
:1018E00006D13B46012231462046FFF75AFE05E06D
:1018F0003B46012231462046FFF79DFE2946204601
:10190000FFF7D2FF208940F007002081BDE8F08179
:1019100030B50C4600210189C9B24FF6FF7505EAC2
:101920000325154325432943018130BD2DE9F041AD
:1019300005460E4617469846002443463A46314629
:101940002846FFF7E5FF2C894FF6F870044044F075
:1019500007044FF68F70044044F070042C81BDE8FA
:10196000F081F0B504460D4616461F463B4632460A
:1019700029462046FFF7CCFF208940F48040208193
:10198000F0BD0185828270470A46002101884FF62A
:101990008F731940114301807047F0B50C4615460E
:1019A0001E460021002200230189028B038C4FF682
:1019B000F877394021434FF6FC473A4040F201178F
:1019C0003A434FF6DD773B404FF6FF7707EA0617BD
:1019D0002F433B43018102830384F0BD0A4600216B
:1019E000018B4FF68F7319401143018370470A46EC
:1019F0000021018B48F6FF7319404FF6FF7303EA8D
:101A000002231943018370470A460021818B4FF658
:101A10008F7319401143818370470A460021818BDF
:101A200048F6FF7319404FF6FF7303EA0223194388
:101A30008183704721B1028842F08002028004E075
:101A400002884FF67F731A400280704721B1828866
:101A500042F00402828004E082884FF6FB731A4051
:101A60008280704721B1828842F00802828004E0BF
:101A700082884FF6F7731A408280704721B18288BE
:101A800042F00102828004E082884FF6FE731A4021
:101A9000828070470A460021018B4FF6F773194088
:101AA0001143018370470A460021018B4FF2FF73F7
:101AB00019404FF6FF7303EA02231943018370476D
:101AC0000A460021818B4FF6F77319401143818339
:101AD00070470A460021818B4FF2FF7319404FF681
:101AE000FF7303EA02231943818370470A460021EA
:101AF000018B4FF6FB7319401143018370470A466F
:101B00000021018B4FF6FF3319404FF6FF7303EAB4
:101B100002231943018370470A460021818B4FF647
:101B2000FB7319401143818370470A460021818B62
:101B30004FF6FF3319404FF6FF7303EA02231943B0
:101B4000818370470A460021018B4FF67F7319404D
:101B50001143018370470A460021018BC1F30E0136
:101B60004FF6FF7303EA02231943018370470A46C5
:101B70000021818B4FF67F73194011438183704799
:101B80000A460021818BC1F30E014FF6FF7303EA71
:101B900002231943818370470A460021018C4FF6C6
:101BA000FD7319401143018470470A460021018CDE
:101BB0004FF6F77319401143018470470A4600211C
:101BC000018C4FF6DF7319404FF6FF7303EA0213DF
:101BD0001943018470470A460021018C4FF67F7338
:101BE00019404FF6FF7303EA02131943018470474B
:101BF0000A460021018C4FF6FF5319404FF6FF7340
:101C000003EA02231943018470470A460021018C2C
:101C10004FF2FF7319404FF6FF7303EA0223194393
:101C2000018470470A460021018C4DF6FF7319406C
:101C30004FF6FF7303EA023319430184704730B54E
:101C4000002301248C40A3B2048C9C430484048CA4
:101C500002FA01F5ADB22C43048430BD30B5002347
:101C600004248C40A3B2048C9C430484048C02FAA8
:101C700001F5ADB22C43048430BD70B5034600209D
:101C800000241846183001258D40ACB21D8CA543A8
:101C90001D8409B1082909D100EB6100056825F010
:101CA000700505600568154305600EE00D1FC5F35E
:101CB0004E052844056825F4E045056005684FF6A3
:101CC000FF7606EA02263543056070BD21B1028821
:101CD00042F00202028004E002884FF6FD731A40CF
:101CE0000280704721B1028842F00402028004E0C1
:101CF00002884FF6FB731A400280704721B1828838
:101D000042F08002828004E082884FF67F731A409E
:101D10008280704702884FF6F7731A40028002886B
:101D20000A430280704782884FF68F731A40828080
:101D300082880A438280704702894FF6F8731A40FE
:101D4000028102890A430281704702894FF67F733C
:101D50001A40028102890A430281704781847047D8
:101D600081857047818670470187704781877047FA
:101D7000A0F84010704702884FF6FF431A400280D7
:101D800002880A43028070470146888E70470146E8
:101D9000088F70470146888F70470146B1F84000B0
:101DA00070470146888C70470146088D704702468F
:101DB0000020138A0B400BB1012000E00020704787
:101DC000CA430282704730B5024600200023002437
:101DD000158A05EA0103958905EA010413B10CB1DE
:101DE000012000E0002030BDCA430282704700009D
:101DF00010B50446BE48844208D101218014FEF784
:101E000099FE0021A014FEF795FE16E0B948844221
:101E100008D101210014FEF79AFE00212014FEF7DC
:101E200096FE0AE0B448844207D10121C013FEF7B0
:101E30008EFE0021E013FEF78AFE10BD10B50022D1
:101E4000028802F441520B884C8823438C88234338
:101E5000CC8823430C8923434C8923438C89234317
:101E6000CC8923431A430280838B4FF2FF742340B3
:101E700083830B8A038210BD2DE9F04F85B00546A0
:101E80000C464FF0000902274FF000084FF0010BFD
:101E90000026B246A88B4FF240010840A8830220DA
:101EA0002884B5F81C90A068022801D100BF38E052
:101EB000A08810B94FF0010B01E04FF0020B8D48E4
:101EC000854200D100E000BF6846FEF7ACFDDDF8BA
:101ED00000A0E088B0F5007F0AD14FEA1A2000EB9D
:101EE00080004000A168B0FBF1F0401D86B20BE01D
:101EF0004FEA4B10BAFBF0F000EB80004000A16805
:101F0000B0FBF1F0401D86B20A20B6FBF0F606F0F9
:101F10000108A6EB0800C0F34F074FF6FF7000EA78
:101F20000828022F01DBFF2F02DD02274FF00008F7
:101F3000E08840EA080038432884A088A189084343
:101F4000618808432188084340F4006040EA090999
:101F5000A5F81C9005B0BDE8F08F002101804180FC
:101F60008180C180018141818181C18107210182FC
:101F700070470021018041808180C1800221816001
:101F800000218181704721B1028842F04002028025
:101F900004E002884FF6BF731A400280704721B1F7
:101FA000828B42F48062828304E0828B4FF6FF339F
:101FB0001A408283704730B5002400230C1101259C
:101FC000A540ABB21AB185881D43858002E08588A3
:101FD0009D43858030BD1AB183880B43838002E026
:101FE00083888B438380704781817047014688894D
:101FF00070474FF6FF62914204D0028842F480722B
:10200000028004E002884FF6FF631A4002807047A6
:1020100021B1828842F00402828004E082884FF677
:10202000FB731A408280704702884FF2FF731A4098
:10203000028002880A4302807047018841F480517F
:102040000180704721B1028842F40052028004E00E
:1020500002884DF6FF731A40028070470246002046
:10206000012901D0108B00E0908A70470146088A50
:102070007047B1F5804F04D1028842F4804202805B
:1020800004E002884BF6FF731A4002807047024654
:10209000002013890B400BB1012000E000207047A5
:1020A000CA4302817047F0B5024600200024002395
:1020B000002501F00F070126BE40B4B20B11012626
:1020C0009E40B3B2968806EA03051689264016B1EB
:1020D0000DB1012000E00020F0BD10B5002201F09C
:1020E0000F040123A3409AB2D343038110BD000023
:1020F0000030014000380040003C00400CB500209A
:10210000019000906C48006840F480306A49086093
:1021100000BF6948006800F4003000900198401C3E
:102120000190009818B90198B0F5A06FF1D16248FC
:10213000006800F4003010B10120009001E00020A0
:1021400000900098012843D15C48006840F01000DE
:102150005A4908600846006820F0030008600846F5
:10216000006840F0020008605348406852494860E7
:102170000846406848600846406840F4806048600F
:102180000846406820F47C1048600846406840F4E7
:10219000E81048600846006840F08070086000BFA2
:1021A0004548006800F000700028F9D042484068B7
:1021B00020F00300404948600846406840F00200B3
:1021C000486000BF3C48406800F00C000828F9D186
:1021D0000CBD10B5FFF792FF10BD10B53648006872
:1021E00040F001003449086008464068344908401E
:1021F0003149486008460068324908402E49086065
:102200000846006820F4802008600846406820F4F2
:10221000FE0048604FF41F008860FFF7DAFF4FF0C0
:1022200000602949086010BD10B50021002000227F
:10223000214B5B6803F00C0121B1042906D0082969
:1022400028D107E0214B224C236027E0214B204C72
:10225000236023E0184B5B6803F47010164B5B6837
:1022600003F48032022303EB904022B91A4B43431C
:10227000174C23600DE0104B5B6803F4003323B16F
:10228000124B4343124C236003E0124B4343104C68
:10229000236003E00D4B0E4C236000BF00BF064BD4
:1022A0005B68C3F303130D4CE15C094B1B68CB4027
:1022B000074C236010BD00000010024000200240C7
:1022C0000000FFF8FFFFF6FE08ED00E000127A00C4
:1022D000140000200024F40000093D001800002034
:1022E0004FF0E020006920F004004FF0E021086189
:1022F0000920234908700846007800EB4001C1EB33
:10230000C0104FF6FF7101EAC0001E4908807047F7
:1023100001461C4A12884A434FF0E0235A610022CA
:102320009A6101221A6100BF4FF0E022106900F0AB
:1023300001021AB100F48032002AF5D000224FF0D9
:10234000E0231A619A61704701460D4A12784A43A8
:102350004FF0E0235A6100229A6101221A6100BF06
:102360004FF0E022106900F001021AB100F480324F
:10237000002AF5D000224FF0E0231A619A617047DD
:10238000280000202A00002010B5FEF74BFA4FF479
:102390008030FEF767FAFEF7A4FA012830D100205A
:1023A000FEF7E5FA0020FEF7F4FA4FF48060FEF73E
:1023B000E7FA1448006840F0100012490860084627
:1023C000006820F0030008600846006840F0020042
:1023D00008604FF4E0114FF44030FEF7ABFA0120F3
:1023E000FEF7B4FA00BF3920FEF75FFA0028FAD0F2
:1023F0000220FEF7AEFA00BFFEF7B4FA0828FBD1C0
:1024000010BD00000020024008B501210820FEF7A1
:1024100077FB2020ADF8000003208DF8020010208B
:102420008DF8030069461048FEF7AEF808BD70B598
:1024300005460C460DE020200B491431086020466B
:10244000FFF782FF20200849103108602046FFF77F
:102450007BFF2800A5F10101CDB2ECD1202002497B
:102460001431086070BD0000000C014010B586B04A
:102470000446012144F20400FEF742FB4FF40070D1
:10248000ADF8140018208DF8170003208DF8160001
:1024900005A93B48FEF778F84FF48060ADF81400CA
:1024A00004208DF8170005A93548FEF76DF8019452
:1024B0000020ADF80800ADF80A00ADF80C00ADF84A
:1024C00010000C20ADF80E0001A92E48FEF7C1FB4C
:1024D00025208DF8000003208DF801008DF8020002
:1024E00001208DF803006846FDF785FF012240F2C8
:1024F00025512448FEF745FC01212248FEF735FC12
:1025000006B010BD70B504460D46E1B21D48FEF799
:1025100099FC00BF40211B48FEF702FD0028F9D0BE
:10252000204670BD10B5044600BF20211548FEF7B7
:10253000F7FC0028F9D01348FEF788FC10BD10B551
:1025400040F225510F48FEF701FD90B10D48FEF70E
:102550007DFC0D490D4A126888540C480068401CE7
:102560000A490860084600681F2802D1012008496E
:10257000086040F225510348FEF712FD10BD00002F
:1025800000080140003801401C0100202C00002000
:102590003000002008B501210820FEF7B1FA4FF401
:1025A0004060ADF8000010208DF8030003208DF886
:1025B000020069469548FDF7E7FF4FF440619348F4
:1025C000FEF78FF80120924908609249C1F8AC01EA
:1025D00008BD10B58D48001D006820F470408B497F
:1025E000091D08600846006840F44050086001205A
:1025F0008749091D08608749C1F8A8010420FFF731
:10260000A3FE00208249091D08600420FFF79CFEFC
:1026100000208049C1F8A80110BD10B57B48001DFD
:10262000006820F470407949091D08600846006878
:1026300040F4405008600020754908607549C1F8B1
:10264000AC010420FFF780FE012071490860714948
:10265000C1F8AC010420FFF777FE10BD10B50024CF
:102660006A48001D006820F470406849091D086030
:102670000846006840F40040086001206449091DD4
:102680000860FFF761FE01206249C1F8A801FFF769
:102690005BFE07E0601CC4B2FA2C03DDFFF7BDFF50
:1026A000012010BD5A487C3800680028F2D15849F2
:1026B000086000BFF5E710B5002055490860534891
:1026C000001D006820F470405049091D086008464C
:1026D000006840F44050086000204E49C1F8AC0149
:1026E0000220FFF731FE0120494908600220FFF770
:1026F0002BFE00204749C1F8A80110BD10B50020ED
:10270000434908604148001D006820F470403F497B
:10271000091D08600846006840F440500860012028
:102720003C49C1F8AC010220FFF70EFE01203849F8
:1027300008600220FFF708FE00203649C1F8A80112
:1027400010BD70B504463148001D006820F470408B
:102750002E49091D08600846006840F44050086092
:1027600000202B49086000251EE0E00920B101206F
:102770002749091D086003E000202549091D08605C
:102780006006040E0220FFF7DFFD012020490860EB
:102790000220FFF7D9FD00201E49C1F8A801022040
:1027A000FFF7D2FD681CC5B2082DDEDBFFF756FF30
:1027B00070BD70B500241548001D006820F47040FD
:1027C0001249091D08600846006840F4004008608E
:1027D000002516E000200E4908600220FFF7B4FD36
:1027E00001200C49C1F8A8016006040E08487C3895
:1027F000006808B1601CC4B20120FFF7A5FD681C89
:10280000C5B2082DE6DB204670BD0000000C01407B
:10281000A8812142008021420EB501210620FEF749
:102820007CF96846FEF7D6FF4FF6FF70ADF804005E
:102830000020ADF80000ADF80600ADF802006946D2
:10284000FE48FEF79BFC00221146FC48FFF799F872
:102850000121FA48FFF73AFA2021F848FFF724F857
:102860000721F648FFF768FA8021F448FFF76DFA70
:102870000121F248FFF7DEF84FF6FF70ADF80400D3
:102880004820ADF800000020ADF80600ADF80200C9
:102890006946EB48FEF772FC0121E948FFF7CAF8E8
:1028A0000421E748FFF748FA0121E548FFF71AFA43
:1028B0002021E348FFF737FA8021E148FFF745FA86
:1028C0000121DF48FEF7B6FF0121DC48FEF7B2FF29
:1028D0000EBD0020D949243108880004D84924318C
:1028E0000988084470472DE9FF4F91B08146924610
:1028F0001D46DDF878B0FFF7ECFFD24908600846C6
:102900000068D149096888420FD2CF4909684FF65B
:10291000FF72511ACB4A1268881802F05BFACB4951
:102920000B9002F088F804460BE0C6490968C64AD5
:102930001268881A02F04EFAC4490B9002F07BF834
:102940000446C0480068C04908601F99084602F064
:1029500040F859460690584602F03BF82946049044
:10296000284602F036F80390049901F0DAFF05904A
:10297000069901F0D6FF079002F0A7FACDE9080109
:1029800003F004F9CDE90A0102F0E2FA0F902846BB
:102990000F9902F050F8054658460F9902F04BF88F
:1029A00083460F991F9802F046F81F90A8480168C7
:1029B000A848006802F00DF80A90A7480168A748E7
:1029C000006802F006F809900A9901F0FCFF4FF048
:1029D00080410B9001F0FDFF0E909F4801689C48DC
:1029E000006801F0F6FF0A909C4801689948006869
:1029F00001F0EFFF09900A9901F093FF4FF0804139
:102A00000B9001F0E6FF0D9093480168006801F01B
:102A1000E0FF0B908E480168006801F0DAFF099032
:102A20008E480168006801F0D4FF0790894801686A
:102A3000006801F0CEFF0690079901F0C4FF0890EE
:102A4000099901F0C0FF0A900B9901F06AFF0C9000
:102A50000D991F9801F0BDFF0B9058460C9901F09D
:102A6000B8FF0A900B9901F0AEFF064628460C9974
:102A700001F0AFFF0B900E991F9801F0AAFF0A908A
:102A80000B9901F0A0FF074658460E9901F0A1FFEF
:102A90000B9028460D9901F09CFF0A900B9901F0CC
:102AA00092FF80466E49304601F093FF0B906D48CF
:102AB00001680B9801F035FF6A490860684938469B
:102AC00001F087FF0B90684801680B9801F029FF1F
:102AD000654908606249404601F07BFF0B906348FE
:102AE00001680B9801F01DFF6049086031464FF006
:102AF000804001F06EFF49460A9001F012FF0B90F2
:102B0000584801680B9801F00CFF814639464FF098
:102B1000804001F05EFF0A90129901F002FF0B90D5
:102B2000514801680B9801F0FCFE129041464FF0AD
:102B3000804001F04EFF51460A9001F0F2FE0B90EA
:102B40004A4801680B9801F0ECFE82465146424823
:102B5000006801F03EFF09903D481299006801F0BD
:102B600038FF07903D48006880F0004049460590D6
:102B700001F02FFF0690079901F025FF08900999B1
:102B800001F021FF21460A9001F023FF0B9031480C
:102B900001680B9801F0C5FE2E4908602E48129975
:102BA000006801F016FF514609902948006801F0BD
:102BB00010FF079027480168484601F00AFF069079
:102BC000079901F0AEFE0890099901F0FCFE21463C
:102BD0000A9001F0FEFE0B90204801680B9801F06E
:102BE000A0FE1E4908601C480168484601F0F1FE3D
:102BF000514609901948006801F0EBFE079015480E
:102C00001299006801F0E5FE0690079901F0DBFEDD
:102C10000890099901F085FE21460A9001F0D9FE3D
:102C20000B900B4801680B9801F07BFE0849086087
:102C300008460168484601F0CCFE19E00008004053
:102C40000004004038000020340000200024F44933
:102C5000440000203C0000204800002040000020EC
:102C60000AD7A33B4C000020500000205400002055
:102C70000990CF481299006801F0ABFE51460790C9
:102C8000CC48006801F0A5FE0690079901F049FEC6
:102C90000890099901F097FE21460A9001F099FEEB
:102CA0000B90C54801680B9801F03BFEC2490860D3
:102CB00008460168006801F08CFE0690BF48016874
:102CC000006801F086FE0490B9480168006801F0D0
:102CD00080FE0290B7480168006801F07AFE01901A
:102CE000029901F01EFE0390049901F01AFE05906E
:102CF000069901F016FE079002F0E7F8CDE9080109
:102D000002F044FFCDE90A0102F022F90F90A94830
:102D10000F99006801F08FFEA6490860A4480F993A
:102D2000006801F088FEA2490860A4480F99006875
:102D300001F081FEA14908609F480F99006801F0E9
:102D40007AFE9D49086015B0BDE8F08F2DE9FF5F60
:102D500082469B48006802F0B8F88046994A9A4B30
:102D600001F04EFF06460022984B01F0BBFF0446DF
:102D700002F0EEF883469648006802F0A6F8804616
:102D8000904A914B01F03CFF064600228F4B01F028
:102D9000A9FF044602F0DCF803908E48006802F0B8
:102DA00094F88046874A884B01F02AFF06460022A5
:102DB000864B01F097FF044602F0CAF8029086485D
:102DC000006886490968CDE9001085485A460368BD
:102DD000DDE90201FFF787FD76480068CAF80000C8
:102DE00073480068CAF8040074480068CAF808000C
:102DF00071480068CAF80C00BDE8FF9F2DE9F04F4C
:102E00008DB0824608A8FFF7A1FF4FF080400B99D4
:102E100001F0DFFD00900B9901F0DBFD01904FF018
:102E200040400A9901F0D5FD00900A9901F0D1FDCA
:102E30008346019901F0C7FD81464FF07E5101F0B4
:102E400070FD804602F041F806460F464FF0804084
:102E5000089901F0BEFD01900B9901F0BAFD814681
:102E60004FF08040099901F0B4FD01900A9901F0FA
:102E7000B0FD8346494601F054FD804602F025F836
:102E800032463B46CDE9020102F0C0FD00224F4B25
:102E9000CDE9040101F0B4FE4A4A4B4BCDE90601ED
:102EA00001F020FF044602F053F8CAF800004FF08A
:102EB0008040089901F08DFD03900A9901F089FD89
:102EC00005904FF04040099901F083FD03900B9964
:102ED00001F07FFD0490059901F023FD834601F088
:102EE000F4FFCDE9060102F049FB80460022374B92
:102EF00001F086FE0646334A334B01F0F3FE0446EA
:102F000002F026F8CAF804004FF080400A9901F058
:102F100060FD00900A9901F05CFD01904FF0404087
:102F2000099901F056FD0090099901F052FD834680
:102F3000019901F048FD81464FF07E5101F0F1FC0E
:102F4000804601F0C2FFCDE902014FF080400899B0
:102F500001F03FFD0190099901F03BFD81464FF0E2
:102F600080400A9901F035FD01900B9901F031FD87
:102F70008346494601F0D5FC804601F0A6FF06468F
:102F8000DDE9022302F042FD0022104BCDE90401ED
:102F900001F036FE04460B4A0B4B01F0A3FECDE9CF
:102FA000060101F0D5FFCAF808000DB0BDE8F08FAA
:102FB000400000203C000020480000204400002089
:102FC0006C0000206E861BF0F921094000806640ED
:102FD00068000020640000208400002080000020A1
:102FE0007C00002070B506460C461546FFF7F1FA46
:102FF0003046FFF7A6FB2046FFF7A3FB2846FFF766
:10300000A0FBFFF70AFB70BD70B504460D46FFF745
:10301000E0FA2046FFF795FB2846FFF792FBFFF703
:10302000D8FA611CC8B2FFF78CFBFFF7C2FB06465B
:10303000FFF764FBFFF7F1FA304670BD10B50022D0
:103040006B21D020FFF7CEFFC820FFF761F90322E4
:103050006B21D020FFF7C6FF07221921D020FFF7F0
:10306000C1FF06221A21D020FFF7BCFF08221B2136
:10307000D020FFF7B7FF09221C21D020FFF7B2FFB5
:1030800010BD2DE9F04F93B04421D020FFF7BCFFD5
:10309000FE4908704321D020FFF7B6FFFB49487076
:1030A00008460078497840EA012000B2F8490880D3
:1030B0000846B0F9000001F092FE80460022F54B70
:1030C00001F010FE0646F4480CC8304601F092FDAF
:1030D000044601F03DFFF14908604621D020FFF78A
:1030E00093FFEA4988704521D020FFF78DFFE7491B
:1030F000C87008468078C97840EA012000B2E849E3
:1031000008800846B0F9000001F069FE064600227A
:10311000E04B01F0E7FD8046E2480CC8404601F074
:1031200069FD044601F014FFDF4908604821D02002
:10313000FFF76AFFD54908714721D020FFF764FFE8
:10314000D249487108460079497940EA012000B225
:10315000D64908800846B0F9000001F040FE8046DC
:103160000022CC4B01F0BEFD0646D1480CC83046CB
:1031700001F040FD044601F0EBFECE4908603C2121
:10318000D020FFF741FFC14988713B21D020FFF7D4
:103190003BFFBE49C87108468079C97940EA0120E1
:1031A00000B2C54908800846B0F9000001F017FEDA
:1031B00006460022C14B01F095FD044601F0C8FE11
:1031C000BF4908603E21D020FFF71EFFAF490872BB
:1031D0003D21D020FFF718FFAC4948720846007A1D
:1031E000497A40EA012000B2B64908800846B0F9A1
:1031F000000001F0F4FD06460022B04B01F072FD24
:10320000044601F0A5FEB04908604021D020FFF738
:10321000FBFE9E4988723F21D020FFF7F5FE9B49B7
:10322000C8720846807AC97A40EA012000B2A749EC
:1032300008800846B0F9000001F0D1FD06460022E2
:103240009E4B01F04FFD044601F082FEA04908604C
:103250009D480168006801F0BCFB02909C48016831
:10326000006801F0B6FB0190029901F05AFB03904F
:1032700001F02BFECDE9040102F088FC804689466E
:103280008F48006801F021FE064642464B4601F099
:1032900029FD044602F0AAFA00228E4BCDE9060170
:1032A00001F0AEFC82468C4A8C4B01F01BFD8C4A2F
:1032B0008C4BCDE9080101F09DFC00228A4BCDE941
:1032C0000A0101F00FFD0022824BCDE90C0101F053
:1032D00097FC0022854BCDE90E0101F08BFCCDE976
:1032E000100101F035FE82490860794801680068E4
:1032F00001F06FFB834672480168006801F069FBCA
:103300005946019001F00DFB824601F0DEFDCDE94A
:10331000020102F03BFCCDE904016B48006801F0BA
:10332000D4FD0646DDE9042301F0DCFCCDE906010D
:1033300002F05CFA0022674BCDE9080101F060FC65
:10334000654A664BCDE90A0101F0CCFC694A6A4B3B
:10335000CDE90C0101F04EFC80465F4A5242674BBA
:1033600001F0C0FC00225B4BCDE90E0101F048FCEE
:10337000044600225D4B01F03DFCCDE9100101F057
:10338000E7FD5F49086050480168006801F021FBD3
:1033900083464B480168006801F01BFB59460190C9
:1033A00001F0BFFA824601F090FDCDE9020102F082
:1033B000EDFB06460F464648006801F086FD3246A2
:1033C0003B46CDE9040101F08DFC044602F00EFA03
:1033D0000022404BCDE9060101F012FC3E4A3F4B72
:1033E000CDE9080101F07EFC464A474BCDE90A01D0
:1033F00001F000FC4FF06632444BCDE90C0101F0C6
:1034000071FC0022334BCDE90E0101F0F9FB80463F
:103410000022364B01F0EEFBCDE9100101F098FDE2
:103420003B49086013B0BDE8F08F2DE9F84F002547
:103430000026A946AA46AB4600200090C820FEF709
:1034400083FF00246CE0FFF71CFE14480168284647
:1034500001F067FA054614480168304601F061FA48
:10346000064614480168484601F05BFA8146204848
:103470000168504601F055FA8246214801685846D5
:1034800001F04FFA83462248016843E03C010020E6
:103490005800002000605040980000206400002088
:1034A0005A000020A0000020680000205C000020DE
:1034B000A80000206C0000205E0000200000D0402A
:1034C00070000020600000207400002062000020D6
:1034D00078000020008066401F85EB51B81E09402F
:1034E00042E90B21E70256C00010664000805640BA
:1034F0007C000020C6850321594456C047516640D0
:10350000800000203BAA9A20EA7456C06676664086
:1035100084000020009801F004FA0090601CC4B2FE
:10352000322C90DB284601F0D0FC074600221E4BCF
:1035300001F0D8FB1D4A03C2304601F0C6FC074625
:103540000022194B01F0CEFB194A03C2484601F094
:10355000BCFC07460022144B01F0C4FB154A03C211
:10356000504601F0B2FC074600220F4B01F0BAFBB7
:10357000114A03C2584601F0A8FC074600220A4B34
:1035800001F0B0FB0D4A03C2009801F09EFC074613
:103590000022054B01F0A6FB094A03C2012009499C
:1035A0000860BDE8F88F0000000049409800002046
:1035B000A0000020A8000020B0000020B8000020DB
:1035C000C0000020C80000203EB505460C46012181
:1035D0000846FDF7A2FAADF80450ADF8004000200F
:1035E000ADF80600ADF8020069464FF08040FDF7E7
:1035F000C5FD01218807FEF71DF93EBD08B5012173
:103600000420FDF77DFA0120ADF8000018208DF8A8
:10361000030003208DF8020069465848FCF7B4FF08
:1036200008BD1FB56020ADF800000120ADF8020014
:103630000020ADF8080069464FF08040FDF7DBFD43
:103640000821C806FEF726FA01218807FEF7F2F8DE
:103650001FBD08B501210420FDF752FA0220ADF884
:10366000000018208DF8030003208DF80200694641
:103670004248FCF789FF08BD1FB56020ADF8000087
:103680000120ADF802000020ADF8080069464FF0B7
:103690008040FDF7F2FD0821C806FEF704FA01217B
:1036A0008807FEF7C7F81FBD08B501210420FDF704
:1036B00027FA0420ADF8000018208DF8030003203D
:1036C0008DF8020069462D48FCF75EFF08BD1FB566
:1036D0006020ADF800000120ADF802000020ADF838
:1036E000080069464FF08040FDF714FE0821C80627
:1036F000FEF7E6F901218807FEF79CF81FBD08B523
:1037000001210420FDF7FCF90820ADF80000182085
:103710008DF8030003208DF8020069461748FCF776
:1037200033FF08BD1FB56020ADF800000120ADF8E3
:1037300002000020ADF8080069464FF08040FDF718
:1037400034FE0821C806FEF7C4F901218807FEF7F8
:1037500071F81FBD10B5FFF7A7FFFFF74FFFFFF789
:1037600078FFFFF7CCFF10BD10B5FFF7B0FFFFF7F4
:1037700058FFFFF781FFFFF7D5FF10BD000801409C
:1037800000B587B001210C20FDF7BAF91020ADF883
:10379000180003208DF81A0010208DF81B0006A9D0
:1037A000B548FCF7F1FE0420ADF8180006A9B348AF
:1037B000FCF7EAFE0120ADF8180028208DF81B0068
:1037C00006A9AE48FCF7E0FE0521AC48FCF78BFFEC
:1037D0001021A948FCF787FF00F08BF90021A848C9
:1037E000FEF7D1FB0020ADF804004FF48270ADF875
:1037F00006000020ADF80800ADF80A00ADF80C0096
:103800004FF40070ADF80E001820ADF81000002045
:10381000ADF812000720ADF8140001A99848FEF792
:103820000DFB01219648FEF7AEFB0020954908608C
:1038300001209549C1F8900107B000BD2DE9F04184
:1038400007460D461646002090490860384600F0AD
:1038500029F98046002405E0FF2000F023F92855CF
:10386000601CC4B2B442F7DB0120884908604046BE
:10387000BDE8F0812DE9F04107460C4615460020D1
:1038800082490860384600F00DF98046002605E0C0
:1038900014F8010B00F006F9701CC6B2AE42F7DB5B
:1038A00001207A4908604046BDE8F0811CB578A146
:1038B00003C9CDE90001082000F05FF9052269463F
:1038C0003020FFF7D7FF052269461020FFF7B6FF2B
:1038D000002406E01DF80400A52800D003E0601CC9
:1038E000C4B2052CF6DB00BF052C01D001201CBDA5
:1038F0000020FCE770B505460C46002063490860CF
:10390000284600F0CFF80646204600F0CBF801200C
:103910005D49C1F89001304670BD70B50446002085
:103920005A490860204600F0BDF8FF2000F0BAF8C0
:10393000054601205449C1F89001284670BD70B574
:103940000546102000F019F900204E4908600522B4
:103950002946A020FFF78EFF01204F49C1F88801BA
:1039600000BF4848883800680028FAD10720FFF7D0
:10397000D4FF044621462720FFF7BCFF04F01000C7
:1039800028B1FF21E120FFF7B5FF102070BD04F042
:10399000200008B12020F9E7FF20F7E770B50446C2
:1039A000102000F0EAF80720FFF7B7FF0546294688
:1039B0002720FFF79FFF05F0400050B10522214668
:1039C0006120FFF73BFFFF21E220FFF793FF00207C
:1039D00070BD0120FCE710B500202A4908600522CF
:1039E0002E492A20FFF746FF01212120FFF782FF01
:1039F00001212220FFF77EFF28212520FFF77AFFF3
:103A000005213120FFF776FF0F212620FFF772FFF7
:103A10000F212020FFF76EFF01201F49C1F8880108
:103A200010BD10B500201749086005221C49302040
:103A3000FFF720FF052219492A20FFF71BFF01216C
:103A40002120FFF757FF01212220FFF753FF1A2102
:103A50002420FFF74FFF28212520FFF74BFF0F21E0
:103A60002620FFF747FF0E212020FFF743FF01200C
:103A70000949C1F8880110BD00080140000C01404F
:103A80000030014088812142000021429001214202
:103A9000A5A5A5A5A500000000802142DD5B0008CA
:103AA000D85B000870B50546002405E0601CC4B270
:103AB000C82C01DD002070BD02213948FEF7E7FA6D
:103AC0000028F3D029463648FEF78EFA002405E098
:103AD000601CC4B2C82C01DD0020ECE70121304895
:103AE000FEF7D5FA0028F3D02D48FEF77FFAC0B2D2
:103AF000E1E700B587B001210420FDF701F80121BD
:103B00000803FCF7FDFFE020ADF8180018208DF841
:103B10001B0003208DF81A0006A92248FCF734FD8B
:103B2000E0212048FCF7DDFD0020ADF804004FF453
:103B30008270ADF806000020ADF808000220ADF854
:103B40000A000120ADF80C004002ADF80E0038204C
:103B5000ADF810000020ADF812000720ADF81400F9
:103B600001A90F48FEF76AF901210D48FEF70BFA8B
:103B7000FF20FFF797FF07B000BD10B504460848C7
:103B800000884FF6C771084005490880084600883C
:103B90002043088001210248FEF7F5F910BD00001E
:103BA0000030014000080140FE490A780978491CAC
:103BB000FC4B1970FC4988547047FA490A78097817
:103BC000491CF84B1970F9498854704711B5002009
:103BD0009DF80120F3490B780978491CF14C2170BC
:103BE000F149CA549DF8003021460A780978491CE9
:103BF0002170ED498B549DF801100144C8B29DF825
:103C000000100144C8B218BD11B500209DF8012074
:103C1000E4490B780978491CE24C2170E249CA5406
:103C20009DF8003021460A780978491C2170DE4948
:103C30008B549DF801100144C8B29DF80010014456
:103C4000C8B218BD11B500209DF80320D5490B78E6
:103C50000978491CD34C2170D349CA549DF80220DD
:103C600021460B780978491C2170CF49CA549DF828
:103C7000012021460B780978491C2170CA49CA5491
:103C80009DF8002021460B780978491C2170C6490F
:103C9000CA549DF803100144C8B29DF802100144B3
:103CA000C8B29DF801100144C8B29DF8001001444B
:103CB000C8B218BD11B500240020BA490870882088
:103CC000FFF77BFF2044C4B2A120FFF776FF20441A
:103CD000C4B20220FFF771FF2044C4B29DF8010076
:103CE000FFF76BFF2044C4B29DF80000FFF765FFAB
:103CF0002044C4B22046FFF760FF18BD30B505462A
:103D000000240020A74908708820FFF74DFF2044B9
:103D1000C4B2A120FFF748FF2044C4B20220FFF73D
:103D200043FF2044C4B22846FFF750FF2044C4B2EA
:103D30002046FFF739FF30BD30B50546002400208E
:103D4000984908708820FFF72FFF2044C4B2A120B3
:103D5000FFF72AFF2044C4B20220FFF725FF2044CA
:103D6000C4B22846FFF750FF2044C4B22046FFF7F4
:103D70001BFF30BD2DE9F04180460D4616461F461B
:103D800000240020874908708820FFF70DFF204499
:103D9000C4B24046FFF708FF2044C4B20C20FFF72E
:103DA00003FF2044C4B22846FFF74CFF2044C4B2AE
:103DB0003046FFF747FF2044C4B23846FFF742FFC2
:103DC0002044C4B22046FFF7EFFEBDE8F08130B5D5
:103DD000054600240020734908708820FFF7E4FEA0
:103DE0002044C4B2A120FFF7DFFE2044C4B201206A
:103DF000FFF7DAFE2044C4B22846FFF7D5FE204480
:103E0000C4B22046FFF7D0FE30BD1FB5002400200D
:103E1000644908708820FFF7C7FE2044C4B2AF2071
:103E2000FFF7C2FE2044C4B21C20FFF7BDFE2044B1
:103E3000C4B29DF80100FFF7B7FE2044C4B29DF85C
:103E40000000FFF7B1FE2044C4B29DF80500FFF763
:103E5000ABFE2044C4B29DF80400FFF7A5FE204449
:103E6000C4B29DF80900FFF79FFE2044C4B29DF83C
:103E70000800FFF799FE2044C4B29DF80D00FFF73B
:103E800093FE2044C4B29DF80C00FFF78DFE204441
:103E9000C4B29DF81900FFF787FE2044C4B29DF814
:103EA0001800FFF781FE2044C4B29DF81D00FFF703
:103EB0007BFE2044C4B29DF81C00FFF775FE204431
:103EC000C4B20020FFF770FE0020FFF76DFE002057
:103ED000FFF76AFE0020FFF767FE0020FFF764FE91
:103EE0000020FFF761FE9DF82100FFF75DFE2044F2
:103EF000C4B29DF82000FFF757FE2044C4B29DF8DD
:103F00002500FFF751FE2044C4B29DF82400FFF7BE
:103F10004BFE2044C4B20020FFF746FE0020FFF70E
:103F200043FE0020FFF740FE0020FFF73DFE00208B
:103F3000FFF73AFE0020FFF737FE2046FFF734FE7A
:103F40001FBD1FB500240020164908708820FFF708
:103F50002BFE2044C4B2AE20FFF726FE2044C4B29C
:103F60001C20FFF721FE2044C4B20020FFF71CFEF6
:103F70000020FFF719FE0020FFF716FE0020FFF7D4
:103F800013FE0020FFF710FE0020FFF70DFE0020BB
:103F9000FFF70AFE0020FFF707FE0020FFF704FEF0
:103FA000002005E0D200002048010020CC000020C5
:103FB000FFF7FAFD0020FFF7F7FD0020FFF7F4FD03
:103FC0000020FFF7F1FD0020FFF7EEFD0020FFF7D6
:103FD000EBFD0020FFF7E8FD0020FFF7E5FD0020E6
:103FE000FFF7E2FD9DF80100FFF7DEFD2044C4B2BB
:103FF0009DF80000FFF7D8FD2044C4B29DF80500ED
:10400000FFF7D2FD2044C4B29DF80400FFF7CCFDB9
:104010002044C4B29DF80900FFF7C6FD2044C4B295
:104020009DF80800FFF7C0FD2044C4B29DF80D00C4
:10403000FFF7BAFD2044C4B29DF80C00FFF7B4FDB1
:104040002044C4B29DF81900FFF7AEFD2044C4B26D
:104050009DF81800FFF7A8FD2044C4B22046FFF7E2
:10406000A3FD1FBD1FB500240020FD490870882056
:10407000FFF79AFD2044C4B2AC20FFF795FD204421
:10408000C4B21C20FFF790FD2044C4B2AD20FFF75E
:104090008BFD2044C4B29DF80100FFF785FD20444C
:1040A000C4B29DF80000FFF77FFD2044C4B29DF824
:1040B0000500FFF779FD2044C4B29DF80400FFF726
:1040C00073FD2044C4B29DF80900FFF76DFD204444
:1040D000C4B29DF80800FFF767FD2044C4B29DF804
:1040E0000D00FFF761FD2044C4B29DF80C00FFF7FE
:1040F0005BFD2044C4B29DF81900FFF755FD204434
:10410000C4B29DF81800FFF74FFD2044C4B29DF8DB
:104110001D00FFF749FD2044C4B29DF81C00FFF7C5
:1041200043FD2044C4B20020FFF73EFD0020FFF70E
:104130003BFD0020FFF738FD0020FFF735FD002094
:10414000FFF732FD0020FFF72FFD0020FFF72CFDC9
:104150000020FFF729FD0020FFF726FD0020FFF7D4
:1041600023FD0020FFF720FD0020FFF71DFD0020AC
:10417000FFF71AFD0020FFF717FD0020FFF714FDE1
:104180002046FFF711FD1FBD70B50446002506E06F
:1041900029466A1CD5B2B34A505C01F05FF8A542CB
:1041A000F6DB70BD70B50446002506E029466A1CA2
:1041B000D5B2AD4A505C01F051F8A542F6DB70BDB6
:1041C00010B50D2001F04AF80A2001F047F810BDA3
:1041D00070B5044642F21070B4FBF0F03030C5B256
:1041E000284601F03BF842F21070B4FBF0F100FBFE
:1041F00011404FF47A71B0FBF1F03030C5B228466F
:1042000001F02CF84FF47A70B4FBF0F100FB114090
:104210006421B0FBF1F03030C5B2284601F01EF841
:104220006420B4FBF0F100FB11400A21B0FBF1F077
:1042300000F13005284601F011F80A20B4FBF0F136
:1042400000FB114000F13005284601F007F870BD71
:1042500070B504464FF47A70B4FBF0F03030C5B25C
:10426000284600F0FBFF4FF47A70B4FBF0F100FB3E
:1042700011406421B0FBF1F03030C5B2284600F0A7
:10428000EDFF6420B4FBF0F100FB11400A21B0FB0C
:10429000F1F000F13005284600F0E0FF0A20B4FB01
:1042A000F0F100FB114000F13005284600F0D6FF88
:1042B00070BD70B504466420B4FBF0F03030C5B278
:1042C000284600F0CBFF6420B4FBF0F100FB114066
:1042D0000A21B0FBF1F000F13005284600F0BEFFE6
:1042E0000A20B4FBF0F100FB114000F13005284634
:1042F00000F0B4FF70BD70B504460A20B4FBF0F0C6
:104300003030C5B2284600F0A9FF0A20B4FBF0F116
:1043100000FB114000F13005284600F09FFF70BD02
:104320002DE9FC5F4FF00009002400BF06E04F4874
:10433000005D484400F0FF09601CC4B21F2CF6DB8E
:104340004A48C07F484501D0BDE8FC9F47480078F7
:104350008A2800D0F8E7454840788B287ED143482A
:1043600080781C28FAD14148C078AD2843D1404913
:104370008868404900F02DFB019000F05AFD85B29D
:104380003B4948683B4900F024FB019000F051FD97
:1043900086B237490868374900F01BFB019000F0EE
:1043A00048FD87B234498868324900F012FB019019
:1043B00000F03FFD1FFA80F82F4948682D4900F0B2
:1043C00008FB019000F035FD1FFA80FA2A490868C1
:1043D000284900F0FEFA019000F02BFD1FFA80FB47
:1043E0003B46424651465846CDE90065FFF73AFE46
:1043F0002020FFF7C9FE1D48C078AE28AED11B496A
:1044000049791A4A127941EA022000F0DAFC824620
:1044100000F05BFD07460022184B00F063FC0546E8
:1044200000F096FD144908601049C9790F4A927945
:1044300041EA022000F0C5FC824600F046FD074636
:1044400000220E4B00F04EFC054600F081FD0A49AB
:1044500048600649497A054A127A11E060E0000096
:10446000D200002048010020CC0000201C010020C8
:10447000780100200000C842680100200000594077
:1044800041EA022000F09DFC824600F01EFD074636
:104490000022244B00F026FC054600F059FD22497D
:1044A00088602249C97A214A927A41EA022000F0C2
:1044B00088FC824600F009FD07460022194B00F0F7
:1044C00011FC054600F044FD194908601749497B75
:1044D000164A127B41EA022000F073FC824600F08B
:1044E000F4FC074600220F4B00F0FCFB054600F0F1
:1044F0002FFD0F4948600D49C97B0C4A927B41EA68
:10450000022000F05EFC824600F0DFFC074600223D
:10451000044B00F0E7FB054600F01AFD04498860F3
:1045200000BF11E700005940680100201C01002075
:10453000780100204FF07E50D54908600020486087
:104540004FF07C508860D348C8604FF07E50D2490D
:104550000860002048604FF07C508860CD48C860FB
:10456000704770B5CD48007800F034FC0446CC4864
:104570000168204600F027FACA490860C848006868
:1045800000F0A3FC0446C84AC84B00F0C9FC0CD29A
:10459000C348006800F099FC0446C34AC44B00F0CD
:1045A000A7FC02D20020C3490860B9494868BC4949
:1045B000096800F00EFA0446BE480168204600F083
:1045C00005FABC490860BC49B648006800F001FA29
:1045D000AF49C860C868002100F0D6FC0AD2AC48D8
:1045E000C06880F00044B549204600F09AF9A84917
:1045F000C86006E0A649C868B04900F092F9A4492D
:10460000C860A348C168AB48006800F0C7FC03D28B
:104610009F48C068A74908609D48C168A5480068D0
:1046200000F0BCFC05D29A48C06880F00040A14967
:10463000086097498868A249096800F0CAF90546E8
:10464000934908689749096800F0C3F906469948F4
:104650000168304600F065F90446294600F0B3F9D8
:10466000984908609848007800F0B4FB04469748E1
:104670000168204600F0A7F9954908609348006852
:1046800000F023FC0446884A884B00F049FC0CD219
:104690008E48006800F019FC0446834A844B00F001
:1046A00027FC02D200208B4908607B494868874973
:1046B000096800F08EF9044686480168204600F03B
:1046C00085F9844908607C498148006800F081F9D7
:1046D0007149C860C868002100F056FC0AD26E48D3
:1046E000C06880F000447549204600F01AF96A4914
:1046F000C86006E06849C868704900F012F9664968
:10470000C8606548C1687348006800F047FC03D280
:104710006148C0686F4908605F48C1686D480068BB
:1047200000F03CFC05D25C48C06880F0004069495C
:104730000860594988686849096800F04AF90546DF
:10474000554908686249096800F043F9064661481E
:104750000168304600F0E5F80446294600F033F9D8
:104760005E4908605E48006800F02BFB064655482D
:104770000168304600F027F9054658480168284688
:1047800000F0CFF8044600F03BFB00B2554908802A
:104790005348006800F015FB06464A480168304659
:1047A00000F0BFF805464D480168284600F0B9F80A
:1047B000044600F025FB00B24B49088048480068D9
:1047C00000F0FFFA06463F480168304600F0A9F8BD
:1047D000054642480168284600F0F5F8044600F016
:1047E0000FFB00B2414908803D48006800F0E9FA3B
:1047F000064634480168304600F0E5F8054637487B
:104800000168284600F0DFF8044600F0F9FA00B22B
:104810003749088070BD2DE9F04104460D46164623
:104820001F46B4F57A7F01DB40F2E734B5F57A7FB5
:1048300001DB40F2E735B6F57A7F01DB40F2E7367F
:10484000B7F57A7F01DB40F2E737002C00DA00246D
:10485000002D00DA0025002E00DA0026002F00DAF5
:104860000027A9B24FF08040FDF77CFAB1B24FF0BB
:104870008040FDF779FAA1B24FF08040FDF776FA5B
:10488000B9B24FF08040FDF773FABDE8F081000047
:10489000680100200000964378010020D400002029
:1048A000DC000020E80000209A9999999999B9BFF5
:1048B0009999B93F08010020000020410000C8423A
:1048C00064000020FC000020D5000020E000002053
:1048D000EC0000200C0100206800002000010020F6
:1048E000F8000020F0000020F2000020F40000207A
:1048F000F600002010B5002200E0521C835C8C5CA6
:10490000A34201D1002BF8D1D8B2E1B2401A10BDB8
:10491000034611F8012B00F8012B002AF9D11846A3
:104920007047F0B480EA0102D40F4200B2EB410FAD
:1049300002D20246084611464A0042D0C30DDDB2FB
:10494000C1F3C752AD1A202D35DAC1F3160141F477
:10495000000204B15242C5F1200602FA06F12A41D2
:104960001044B3EBD05F23D0C4B1012DA0EBC350F2
:1049700009DCF0BC4FF0004202EAC352DBB200F5A2
:10498000000000F065BB400000F1807000EBC350F8
:10499000A0F1807040EAD170490009E0490841EA7D
:1049A000C071A0EBC35000F50000400800EBC350FD
:1049B000F0BC00F044BB6142012202EB4101001B4C
:1049C000F6E7F0BC704781F00041AAE780F00040B4
:1049D000A7E780EA010210B502F00043400022D0B0
:1049E0004A001FD0010E01EB1261C0F35600C2F362
:1049F000560240F4000042F40002A0FB0220000432
:104A00007F39140400D0401C50EA124001D4400009
:104A1000491EC2B20C0604EBD010401C4008802A8C
:104A200002D003E0002010BD20F00100002900DAD0
:104A30000020184310BD30B480EA010202F00045A6
:104A400030F0004221F0004013D090B1C30DD40DDE
:104A5000C2F31601C0F31600E41A41F4000140F459
:104A600000027D34914201D3641C00E04900002C17
:104A700002DA30BC002070474FF40000002391425E
:104A800001D3891A034340084FEA4101F7D151B1DC
:104A9000914202D14FF0004105E002D24FF00101F6
:104AA00001E06FF0010103EBC450284430BC00F07A
:104AB000C6BA2DE9FE4F804681EA0300C00F0C46BE
:104AC000009021F0004123F00045B8EB0200A9411D
:104AD00005D24046214690461C460B46024623F02E
:104AE0000040104347D0270DC7F30A00C3F30A5113
:104AF0000290401A019040286BDAC3F3130040F48F
:104B0000801B0098924620B10023D2EB030A63EB8E
:104B10000B0B01985946C0F14002504600F05EFA76
:104B200006460D4650465946019A00F076FA10EBBB
:104B300008006141002487EA115284EAE7731A43AE
:104B400040D0009A62B3019A012A4FEA075215DC5D
:104B5000001B61EB02014FF0004202EA0752CDE96F
:104B60000042001C41F5801132462B4600F0ADFAA0
:104B700003B0BDE8F08F40462146F9E7001B61EB2A
:104B80000201001C41F5801300185B412018A2F5BA
:104B9000001747EB030140EAD570B6196D4111E0EB
:104BA0006D084FEA360645EAC0754FEA0752001B0A
:104BB00061EB0201001C41F5801149084FEA300009
:104BC0000019514132462B4603B0BDE8F04F00F0CA
:104BD0006DBA0098012240000023D0EB020263EB83
:104BE000E073009821464FEAE074B8EB000061EBF7
:104BF0000401E9E783F000435BE781F0004158E7F7
:104C00002DE9FE4F81EA030404F0004421F0004145
:104C100000944FF0000B23F0004350EA01045ED0F3
:104C200052EA03045BD0C3F30A54C1F30A552C447F
:104C3000A4F2F3340194A0FB0254C1F3130141F434
:104C40008011C3F3130343F4801301FB024400FB00
:104C5000034E840A970A44EA815447EA8357A4FB27
:104C6000076802958D0A05FB07854FEA932C04FB24
:104C70000C542705029D4FEA065847EA1637B5EB54
:104C800008056EEB070C870E920E47EA811742EA81
:104C90008312A7FB0201B6EB0B0164EB00042B0DA2
:104CA00043EA0C335E1844EB1C50DA465146E7FBEE
:104CB0000201C5F313044FEA0B3343EA14534FEADE
:104CC0000432019C43EA0603A4F10C040294009C04
:104CD000CDE900B400F0F9F903B0BDE8F08F002091
:104CE0000146F9E72DE9F04D81EA030404F0004B99
:104CF00021F0004514464FF0000A23F0004150EA2D
:104D0000050220D054EA01021DD0C5F30A5702461D
:104D1000C5F31303C1F31300C1F30A5640F4801521
:104D200043F48013A7EB0608101BD64608F2FD38A3
:104D300073EB050002D308F1010801E092185B4112
:104D4000B8F1000F03DA00200146BDE8F08D002025
:104D50004FF48011064684460EE0171B73EB0507DF
:104D600005D3121B63EB050306434CEA010C49080B
:104D70004FEA300092185B4150EA0107EDD152EA48
:104D8000030012D082EA040083EA0501084305D03B
:104D9000101BAB4106D20122002306E000224FF097
:104DA000004302E06FF0010253101AEB06004CEBD7
:104DB000085110EB0A0041EB0B01BDE8F04D00F08B
:104DC00075B9C10F80EAE0700844CA079623002134
:104DD00000F03EB996230022114600F039B90EB515
:104DE000C10F80EAE0700844CA07002140F2334353
:104DF0008DE80E000A460B4600F067F903B000BDCF
:104E000000F0004220F00040C10DC0F3160040F455
:104E100000007F2901DA00207047962903DCC1F1E8
:104E20009601C84001E096398840002AF4D04042FB
:104E3000704720F00040C10DC0F3160040F40000A0
:104E40007F2901DA00207047962903DCC1F1960121
:104E5000C840704796398840704770B5C1F30A5210
:104E600001F000450024C1F3130140F2FF3341F487
:104E700080119A4201DA002070BD40F233439A4219
:104E8000A2F2334203DC524200F0B7F800E0904057
:104E90002C43F1D0404270BDC1F30A5210B5C1F3AA
:104EA000130140F2FF3341F480119A4201DA0020ED
:104EB00010BD40F233439A42A2F2334203DC524225
:104EC00000F09BF810BD904010BD00F0004230F0A3
:104ED00000400AD0C10D01F56071C0F3160042EA2E
:104EE0000151C20840071143704700200146704736
:104EF00030B5041E71F1000404DB4FF00044404261
:104F000064EB0101141E73F1000405DB1C464FF035
:104F10000043524263EB04038B4208BF824230BD20
:104F200030B5041E71F1000404DB4FF00044404230
:104F300064EB0101141E73F1000405DB1C464FF005
:104F40000043524263EB0403994208BF904230BDD4
:104F500001F0004330B421F0004150EA010206D0D4
:104F60000A0DA2F56072C1F31301002A02DC30BC05
:104F700000207047440F44EAC104C100E01830BC6F
:104F800000EBC25000F05BB8002801DBC0F100402C
:104F9000002901DBC1F1004181427047002801DB9B
:104FA000C0F10040002901DBC1F100418842704797
:104FB00030B50B46014600202022012409E021FAE9
:104FC00002F59D4205D303FA02F5491B04FA02F5E6
:104FD0002844151EA2F10102F1DC30BD202A04DBB9
:104FE000203A00FA02F1002070479140C2F12003FC
:104FF00020FA03F3194390407047202A04DB203A3B
:1050000021FA02F00021704721FA02F3D040C2F1E8
:1050100020029140084319467047202A06DBCB172F
:10502000203A41FA02F043EAE07306E041FA02F363
:10503000D040C2F120029140084319467047002930
:10504000A8BF7047401C490008BF20F0010070470E
:1050500010B4B0FA80FC00FA0CF050EA010404BF6E
:1050600010BC704749B1CCF1200421FA04F411FAC4
:105070000CF118BF012121430843A3EB0C01CB1D08
:105080004FEA00614FEA102042BF002010BC704779
:1050900000EBC35010440029A4BF10BC7047401C53
:1050A000490008BF20F0010010BC704710B5141E65
:1050B00073F1000408DA401C41F1000192185B41D1
:1050C0001A4301D120F0010010BD2DE9F04D9246A8
:1050D0009B4611B1B1FA81F202E0B0FA80F22032BF
:1050E0009046FFF77BFF04460F4640EA0A0041EA7C
:1050F0000B0153465A46084313D0114653EA0100A8
:1051000019D0C8F140025046FFF777FF05460E461A
:10511000504659464246FFF761FF084305D001203B
:1051200004E020463946BDE8F08D0020054346EAFC
:10513000E0762C4337430A986305E40AA0EB0800A5
:105140000022FD0A44EA47540A3002D500200146F5
:10515000E9E7010510196941DDE9084500196941D0
:10516000BDE8F04DA2E770B521F0004303430CD039
:10517000C1F30A550024D5EB040564EB0403D617EC
:10518000AD1AB34102DB0020014670BD201841EB8F
:10519000025170BD2DE9F04D00231A461B1A8A41B9
:1051A00003DB00200146BDE8F08DC1F30A52C1F3D4
:1051B000130141F480154FF0000BD10702D1001804
:1051C0006D41521E0027044640F2FF11384601EBA4
:1051D000620A3E468046024600204FF48011FFF7E7
:1051E0000CFFC2197141BB1846EB0100B4EB030C74
:1051F00075EB000C04D3E41A65EB000517460E4668
:10520000241908F101006D4180463428E3DDF919C5
:1052100046EB0600091BA84103D24FF0FF321346AC
:1052200001E0002213461BEB070046EB0A51BDE8E4
:10523000F04DFFF73BBF0000064C074D06E0E0686D
:1052400040F0010394E8070098471034AC42F6D3CD
:10525000FAF750FFD85C0008F85C000810B5044667
:1052600021460648FBF7EEFD00BF40210348FBF74F
:1052700057FE0028F9D0204610BD0000003801403C
:105280000FB4054B10B503A9044A029800F09AF830
:1052900010BC5DF814FB0000052500081401002077
:1052A000490050EAC12018BF04204A0D18BF40F041
:1052B000010040F2FF72B2EB515F08BF40F0020004
:1052C000012808BF052070472DE9F0414F1E00EB73
:1052D000C7010446D1E9000115461E4637F0060213
:1052E0000DD02A463346FFF78BFC7F1E04EBC70325
:1052F000D3E90023FFF7DDFB37F00602F1D1022FDF
:1053000025D0042F13D0062F18BFBDE8F0812A4600
:105310003346FFF775FCD4E90A23FFF7CAFB2A4698
:105320003346FFF76DFCD4E90823FFF7C2FB2A469A
:105330003346FFF765FCD4E90623FFF7BAFB2A469C
:105340003346FFF75DFCD4E90423FFF7B2FB2A469E
:105350003346FFF755FCD4E90223FFF7AAFB2A46A0
:105360003346FFF74DFCD4E90023BDE8F041FFF7D9
:10537000A0BB0122FFF7F7BEFFF79BBB002213463D
:1053800010461146FFF7AEBC024A00201107FFF796
:10539000EABE000001FDFFFF02E008C8121F08C1BD
:1053A000002AFAD170477047002001E001C1121FA6
:1053B000002AFBD1704700000149086070470000D7
:1053C000180100202DE9FF4F8BB09A460F46054685
:1053D000002606E025280BD052460D9990476D1CFB
:1053E000761C28780028F5D10FB03046BDE8F08F44
:1053F0000024A0460122604900E0044315F8013F63
:10540000203B02FA03F00842F7D128782E2817D162
:1054100015F8010F44F004042A280ED06FF02F0273
:105420002878A0F1300109290AD808EB880102EB9D
:10543000410100EB01086D1CF2E757F8048B6D1C6D
:10544000287869283ED006DC0028CDD063280BD010
:10545000642804D136E0732810D075284BD052460A
:105460000D999047761C85E017F8040B8DF8000025
:1054700000208DF80100E946012003E057F8049B65
:105480004FF0FF3061074FF0000401D40AE0641CC4
:1054900044450DDA8442FADB19F804100029F6D1EC
:1054A00006E0641C8442FCDB19F804100029F8D1E2
:1054B000264404E019F8010B52460D999047641EEA
:1054C000F8D257E001CF4FF00A0B002802DA404231
:1054D0002D2102E0210504D52B218DF82410012176
:1054E00003E0E10705D02021F7E70DF1200908913D
:1054F0000CE00021F9E701CF4FF00A0BF9E759461C
:10550000FFF756FD01F1300209F8012D0028F6D110
:10551000ADEB090000F1200B600701D44FF001084A
:10552000D84502DDA8EB0B0000E0002080460024F7
:1055300006E009A85246005D0D999047641C761C50
:1055400008988442F5DB04E0302052460D999047DC
:10555000761CB8F10001A8F10108F5DC05E019F8A6
:10556000010B52460D999047761CBBF10001ABF13F
:10557000010BF4DC6D1C34E7092801002DE9F04D26
:105580008D4F21F0004A86B005460C46BA452ADB0D
:10559000AAEB070028430AD08848824501DC1AD1CB
:1055A000CDB106B02846BDE8F04DFFF7E2BE844A13
:1055B000844B2846FFF724FB07460E46824A834B5E
:1055C00028462146FFF71CFB06B03A463346BDE8A5
:1055D000F04DFFF76EBA0120FFF7EEFE06B0BDE812
:1055E000F04DFFF7CBBE7A48824542DABAF1795FD7
:1055F0000BDA2846FFF754FE042808BFFFF7C4FE65
:10560000284606B02146BDE8F08D2A460B461046D6
:10561000FFF7F6FA834602466E480E460B46062111
:105620007844FFF751FE5A463346FFF7E9FA8046C1
:1056300069488A465A46334604217844FFF744FEB7
:105640005A463346FFF7DCFA00223B46FFF731FAB1
:1056500002460B4640465146FFF744FB2A46234686
:10566000FFF7CEFA06B02A462346BDE8F04DFFF715
:1056700020BA284624F0004100223D463B46FFF771
:10568000BCFA4FF0FF32FFF76EFD06460246534864
:105690000F460B4606217844FFF716FE32463B467E
:1056A000FFF7AEFACDE900014D4832463B460421F2
:1056B0007844FFF709FE32463B46FFF7A1FA002285
:1056C0002B46FFF7F6F9834602913046394600F043
:1056D0005DFA804643480D46504517DCDDE9000180
:1056E0005A46029BFFF7FEFA42462B46FFF788FA1E
:1056F00042462B46FFF7DDF90122FFF734FD304A21
:10570000304BFFF777FA304A304B4CE04FF0000A4D
:1057100052460B464046FFF7CCF9CDE903105246FE
:105720002B4610461946FFF76BFA32463B46FFF709
:1057300064FADDE90332FFF7D5FA06460F46DDE9E4
:1057400000015A46029BFFF7CDFA834600910122E1
:1057500030463946FFF707FD194A1A4BFFF74DFA55
:1057600006460F46012240462946FFF7FCFC5A46F2
:10577000009BFFF745FA32463B46FFF73BFA0646E9
:105780000F46012250462946FFF7EDFC0E4DDFF88B
:1057900058802A464346FFF730FA32463B46FFF729
:1057A0002CFA2A464346FFF728FA002CD8BF81F08E
:1057B000004106B0BDE8F08D0000F03F0000F07F32
:1057C000075C143326A6913C182D4454FB21F93F65
:1057D0000000E03FC4050000DA0500004E050000AF
:1057E000640500003333EF3FFB21E93F2DE9F84F1B
:1057F00004460D4621F0004000917349814211DCBE
:105800007249884201DC06D12CB120462946BDE808
:10581000F84FFFF7AEBD6E48002DCCBF6D496E4905
:10582000BDE8F88F6D49814211DD6D498142D8BFD5
:105830004FF0FF366DDD20462946FFF731FD042885
:1058400008BFFFF7A1FD20462946BDE8F88F65494E
:10585000654F25F00045814233DD6449814219DD01
:10586000002632464FF0804320462946FFF721F9B3
:1058700080468A46012220462946FFF774FC002212
:105880003B46FFF7B7F942465346FFF72BFA04466B
:105890000D463EE001260022BA463B4620462946F8
:1058A000FFF707F980460F46002253462046294657
:1058B000FFF7A0F942463B46FFF714FA04460D46AF
:1058C00027E04B4981421BDDDFF828A10226002298
:1058D000534620462946FFF793F900223B46FFF73F
:1058E000E8F880460F460022534620462946FFF737
:1058F00081F942463B46FFF7F5F904460D4608E0BC
:10590000032622462B4600203B49FFF7EBF90446CD
:105910000D4622462B4610461946FFF771F98B4675
:10592000824602460B46FFF76BF9074602463348AC
:1059300088460B4606217844FFF7C6FC52465B4674
:10594000FFF75EF982462E488B463A4643460521CC
:105950007844FFF7B9FC3A464346FFF751F902464F
:105960000B46002E504659460CDAFFF7A2F82246A5
:105970002B46FFF745F901B022462B46BDE8F04F14
:10598000FFF73BB9FFF795F822462B46FFF738F9AA
:105990001C4A7A4402EBC603D3E90023FFF72AF935
:1059A00022462B46FFF726F9174A7A4402EBC60334
:1059B000D3E90023FFF721F9009A002AB8BF81F04C
:1059C0000041BDE8F88F0000000010440000F07FA7
:1059D000182D4454FB21F93FFB21F9BF0000DC3FA7
:1059E0000000203E0000F33F0000F03F0000E63FD3
:1059F000008003400000F83F0000F0BF6603000095
:105A000024030000C20200008A0200002DE9F04DCC
:105A10009446CCF1000423F000464CEA0404524FB3
:105A200046EAD4749A46884621F00042BC4206D821
:105A3000454240EA050442EAD474BC4204D9BDE8B8
:105A4000F04D6246FFF798BCAAF14055A5F17F657D
:105A500055EA0C040BD0022404EAAA74434DDFF883
:105A600010E144EAD87452EA000B04D00CE0BDE81F
:105A7000F04DFFF7BBBE002C14BF012CBDE8F08D2C
:105A8000022C30D0032C32D056EA0C0B0AD0BE4286
:105A900020D1BA4209D126F0804622F08042334616
:105AA000114617E000291ADB25E0DFF8C8B0FB44F7
:105AB000002C04BFDBE90001BDE8F08D012C02BF22
:105AC000DBE9000181F00041BDE8F08D022C0AD035
:105AD000032C0CD0BA4212D1B8F1000F0BDA2348D4
