:020000040800F2
:10000000E80A0020C9010008190400081B040008C0
:100010001F04000823040008270400080000000053
:100020000000000000000000000000002B04000899
:100030002D040008000000002F040008310400080F
:10004000E3010008E3010008E3010008E301000800
:10005000E3010008E3010008E3010008E3010008F0
:10006000E3010008E3010008E3010008E3010008E0
:10007000E3010008E3010008E3010008E3010008D0
:10008000E3010008E3010008E3010008E3010008C0
:10009000E3010008E3010008E3010008E3010008B0
:1000A000E3010008E3010008E3010008E3010008A0
:1000B000E301000843040008E3010008E30100082D
:1000C000E3010008330400083B040008E3010008D2
:1000D000E30100084F310008E3010008E3010008D4
:1000E000E3010008E3010008E301000800F002F862
:1000F00000F05AF80AA090E8000C82448344AAF168
:100100000107DA4501D100F04FF8AFF2090EBAE865
:100110000F0013F0010F18BFFB1A43F0010318473B
:10012000A0860000C08600000A444FF0000C10F8C2
:10013000013B13F0070408BF10F8014B1D1108BF65
:1001400010F8015B641E05D010F8016B641E01F805
:10015000016BF9D113F0080F1EBF10F8014BAD1C55
:100160000C1B09D16D1E58BF01F801CBFAD505E073
:1001700014F8016B01F8016B6D1EF9D59142D6D3CD
:10018000704700000023002400250026103A28BFF5
:1001900078C1FBD8520728BF30C148BF0B607047F9
:1001A0001FB51FBD10B510BD06F016FD1146FFF7B7
:1001B000F7FF00F029F806F034FD03B4FFF7F2FF73
:1001C00003BC06F035FD0000094880470948004798
:1001D000FEE7FEE7FEE7FEE7FEE7FEE7FEE7FEE7F7
:1001E000FEE7FEE704480549054A064B7047000054
:1001F000332D0008ED000008E8040020E80A002084
:10020000E8060020E80600200EB502F069FE02F0C4
:1002100013FE02F01FFF4FF4E13002F03DFF02F049
:10022000AEFE0320009001231A4664490190A620E7
:1002300006F033F94FF4FA7005F06CFF04F0D0FAD1
:1002400003E008215E4800F0A6FA04F05FFB0028F6
:10025000F7D1042004F03BFC022140F2E73004F027
:10026000CFF904F093FA04F09BFA04F09CF905F03E
:1002700049F906F067F86421022002F0C9FE9BE00C
:1002800050480078012854D14F480078401C4E490E
:10029000087004F0A4F803F0C8FC4C4B4C48B0F9CB
:1002A00000204C48B0F900104B48B0F9000004F0B1
:1002B00027F800204349087043480078022838D1C5
:1002C00000204149087045480078401C43490870A7
:1002D0003F48B0F9000007F0B3FF04463D48B0F9CD
:1002E000000007F0ADFF05463B48B0F9000007F0FD
:1002F000A7FF06463A48B0F9000007F0A1FF0746FD
:100300003848B0F9000007F09BFF80463648B0F946
:10031000000007F095FF8146344833463A4641468F
:10032000CDE900540290484602F0A3FF0020304976
:1003300008703048007801283ED12F480078401CD2
:100340002D4908702D480078401C2C4908702C4815
:100350000078401C2A4908702A480078401C294926
:100360000870254800780A2805D101202649087020
:10037000002021490870214800780F2805D101206C
:100380002249087000201D4908701E480078142872
:1003900005D101201E49087000201A49087018482C
:1003A0000078192805D101201A4908700020144945
:1003B000087000200F49087062E70000801A0600EC
:1003C000000C01402F0000202D0000201000002014
:1003D000BA000020B8000020B60000202E00002047
:1003E000B4000020B2000020B0000020E80100208E
:1003F0003000002031000020290000202A000020C9
:100400002C0000202B000020060000200700002008
:10041000090000200A000020704700BFFEE700BF6F
:10042000FEE700BFFEE700BFFEE77047704770477A
:10043000704710B506F0C6F910BD10B506F08EFB7A
:1004400010BD10B51048008800F00100D8B14FF67B
:10045000FE700D4908800D480078401C0B4908705B
:100460000B480078401C0A490870084800780228A8
:1004700007D1012007490870074908700020034987
:10048000087004F009FD10BD100400403200002087
:10049000330000202F0000203100002031490143AB
:1004A000314A1160704770B5002100230F22C478D3
:1004B00004B32D4C246804F4E064C4F5E064210A1C
:1004C000C1F10403CA40447804FA03F1847814406B
:1004D00021430901254C0678A155047804F01F0535
:1004E0000124AC4005786D11AD0005F1E025C5F89B
:1004F000004109E0047804F01F050124AC401C4DC4
:100500000678761145F8264070BD1A4A0A40024323
:10051000154B1B1F1A60704739B1134A121D126820
:100520000243114B1B1D1A6006E00F4A121D126890
:1005300082430D4B1B1D1A607047042808D14FF0F1
:10054000E021096941F004014FF0E022116107E068
:100550004FF0E021096921F004014FF0E022116120
:10056000704700000000FA050CED00E000E400E038
:1005700080E100E080FFFF1F10B50446CC488442B4
:1005800008D10121042000F02DFB0021042000F0FF
:1005900029FB46E0C748844208D10121082000F029
:1005A00021FB0021082000F01DFB3AE0C2488442F4
:1005B00008D10121102000F015FB0021102000F0CF
:1005C00011FB2EE0BD48844208D10121202000F01B
:1005D00009FB0021202000F005FB22E0B8488442FE
:1005E00008D10121402000F0FDFA0021402000F058
:1005F000F9FA16E0B348844208D10121802000F0C6
:10060000F1FA0021802000F0EDFA0AE0AE488442C1
:1006100007D10121801500F0E5FA0021A01500F0B6
:10062000E1FA10BD10B50121084600F0DBFA002107
:10063000012000F0D7FA10BD2DE9F0410246002557
:100640000026002000230024002791F803C00CF0AE
:100650000F0591F803C00CF0100CBCF1000F03D093
:1006600091F802C04CEA050591F800C0BCF1000FFA
:1006700031D0146800202BE04FF0010C0CFA00F38D
:10068000B1F800C00CEA03069E4220D183004FF06F
:100690000F0C0CFA03F7BC4305FA03FC4CEA040404
:1006A00091F803C0BCF1280F06D14FF0010C0CFAF1
:1006B00000FCC2F814C00AE091F803C0BCF1480F76
:1006C00005D14FF0010C0CFA00FCC2F810C0401C20
:1006D0000828D1D31460B1F800C0BCF1FF0F34DD9D
:1006E000546800202EE000F1080C4FF0010808FAD1
:1006F0000CF3B1F800C00CEA03069E4221D183003E
:100700004FF00F0C0CFA03F7BC4305FA03FC4CEA5C
:10071000040491F803C0BCF1280F05D100F1080CC6
:1007200008FA0CF8C2F8148091F803C0BCF1480F25
:1007300007D100F1080C4FF0010808FA0CF8C2F8D4
:100740001080401C0828CED35460BDE8F0814FF6DD
:10075000FF710180022181700421C170704702463F
:10076000002093680B400BB1012000E0002070478F
:100770000146886880B2704702460020D3680B406B
:100780000BB1012000E0002070470146C86880B22C
:10079000704701617047416170470AB1016100E033
:1007A00041617047C16070474FF480320A438261F3
:1007B0008161826182698269704702460020434BF1
:1007C00018684FF68073184040EA021008433F4B08
:1007D000186070473E49C8617047F0B50A4600236B
:1007E00000240021002500F00046B6F1004F02D1A0
:1007F000364EF16901E0354E7168C0F3034583B2AE
:1008000000F44016B6F5401F08D121F070612F4E5C
:10081000766826F070662D4F7E6012E000F4801638
:10082000B6F5801F06D1032606FA05F4A14341F070
:10083000706106E0460D360103FA06F6B14341F059
:10084000706122B1460D360103FA06F6314300F01D
:100850000046B6F1004F02D11C4EF16101E01B4E83
:100860007160F0BD30B500228B071C0F0F2303FA17
:1008700004F2164B08338C1053F824309343134C76
:1008800008348D1044F8253023468C1053F824305A
:100890008C07240F00FA04F423430C4C08348D1009
:1008A00044F8253030BD0A49DC310860704700004B
:1008B00000080140000C01400010014000140140FC
:1008C00000180140001C01400020014000000140D0
:1008D00000002042DF48006840F00100DD49086068
:1008E00008464068DC490840DA4948600846006824
:1008F000DA490840D74908600846006820F480209B
:1009000008600846406820F4FE0048604FF41F006D
:1009100088607047CF49096821F48031CD4A116061
:100920001146096821F480211160B0F5803F03D0A1
:10093000B0F5802F0ED106E0C649096841F4803138
:10094000C44A116007E0C349096841F4A021C14AC3
:10095000116000E000BF00BF704710B501460022E3
:10096000002300204A11012A02D1BA4C236806E074
:10097000022A02D1B74C236A01E0B64C636A01F047
:100980001F02012494401C400CB1012000E0002013
:1009900010BD38B5002000900024002500BF312094
:1009A000FFF7DBFF05460098401C00900098B0F56B
:1009B000A06F01D0002DF2D03120FFF7CEFF08B19B
:1009C000012400E00024204638BD01460020A14A51
:1009D000106820F0F80040EAC10010607047A0499C
:1009E00008607047024600209A4B586820F47C103B
:1009F00042EA01031843974B5860704798490866CC
:100A0000704701460020934A506820F003000843D5
:100A1000506070478F48406800F00C0070470146F6
:100A200000208C4A506820F0F00008435060704766
:100A300001460020874A506820F4E0600843506077
:100A4000704701460020834A506820F4605040EA15
:100A5000C1005060704729B17E4A527A02437D4BF3
:100A60005A7204E07B4A527A82437A4B5A72704738
:100A70007B49D8310860704701460020754A5068AC
:100A800020F440400843506070470021714A2032F2
:100A90001170704A82F82010012802D004280AD16F
:100AA00004E001216B4A2032117005E00521694AFA
:100AB0002032117000E000BF00BF70476949086034
:100AC00070476449096A0143624A11627047654987
:100AD00044390860704730B500210022002400230B
:100AE0005C4D6D6805F00C0121B1042905D0082981
:100AF00023D105E05C4D056022E05C4D05601FE000
:100B0000544D6D6805F47012524D6D6805F48034D3
:100B1000022505EB92421CB9554D554305600BE08B
:100B20004C4D6D6805F400351DB14F4D55430560C2
:100B300002E04E4D5543056002E04B4D056000BF9D
:100B400000BF444D6D6805F0F0010909494D6B5C2B
:100B50000568DD4045603F4D6D6805F4E061090AB8
:100B6000444D6B5C4568DD4085603A4D6D6805F429
:100B70006051C90A3F4D6B5C4568DD40C560354D2D
:100B80006D6805F44041890B3B4D6B5CC568B5FB56
:100B9000F3F5056130BD29B12E4A526902432D4B50
:100BA0005A6104E02B4A526982432A4B5A617047CA
:100BB00029B1284A92690243264B9A6104E0254AEA
:100BC00092698243234B9A61704729B1214AD269C5
:100BD0000243204BDA6104E01E4AD26982431D4B76
:100BE000DA61704729B11B4AD2680243194BDA60B7
:100BF00004E0184AD2688243164BDA60704729B184
:100C0000144A12690243134B1A6104E0114A126933
:100C10008243104B1A61704712494039086070478F
:100C20000F49C86470470B49C87170470948406A4A
:100C300040F0807007494862704701460020054A2D
:100C400092680A400AB1012000E000207047014983
:100C500088727047001002400000FFF8FFFFF6FEA8
:100C6000000042428004424200127A000024F40054
:100C700000093D00340000204400002010B5044667
:100C8000FB48844209D101218803FFF7ABFF002113
:100C90004FF48040FFF7A6FF32E0F648844209D1C6
:100CA00001214804FFF7ABFF00214FF40030FFF7AC
:100CB000A6FF25E0F048844209D101218804FFF70E
:100CC0009EFF00214FF48020FFF799FF18E0EB48CA
:100CD000844209D10121C804FFF791FF00214FF49C
:100CE0000020FFF78CFF0BE0E548844208D101218A
:100CF0000805FFF784FF00214FF48010FFF77FFF06
:100D000010BD2DE9F04786B005460E460024A246E8
:100D100000BFA1460027B08900B100BF2F462C8A32
:100D20004CF6FF700440F08804432C82AC894EF6E8
:100D3000F3100440B08831890843718908430443A3
:100D4000AC81AC8A4FF6FF400440B0890443AC82CA
:100D500001A8FFF7C0FEC648874202D1DDF810A007
:100D600001E0DDF80CA0A88900F4004040B10AEBD6
:100D7000CA0000EB0A1031684900B0FBF1F807E047
:100D80000AEBCA0000EB0A1031688900B0FBF1F8E9
:100D90006420B8FBF0F004012009642101FB1089F4
:100DA000A88900F4004040B1322000EBC900B0FB3C
:100DB000F1F000F00700044308E0322000EB0910D6
:100DC0006421B0FBF1F000F00F0004432C8106B069
:100DD000BDE8F0874FF41651016000218180C18089
:100DE00001810C21418100218181704710B50246AB
:100DF0000020108A4FF2FF0318400B884C882343D1
:100E00008C882343CC8823431843108210BD0021D3
:100E1000018041808180C180704721B1828942F484
:100E20000052828104E082894DF6FF731A4082816C
:100E30007047F0B50346002400260025002040F648
:100E40006A17B94200D100BF1846C1F3421401F03D
:100E50001F06012707FA06F5012C01D10C3004E02A
:100E6000022C01D1103000E014301AB107682F4372
:100E7000076002E00768AF430760F0BD1AB1838ADC
:100E80000B43838202E0838A8B4383827047028A0A
:100E90004FF6F0731A400282028A0A4302827047B8
:100EA00082894FF2FF731A40828182890A438281CC
:100EB000704721B1828942F00202828104E0828976
:100EC0004FF6FD731A4082817047028A4FF6DF7336
:100ED0001A400282028A0A430282704721B1028AC2
:100EE00042F48042028204E0028A4BF6FF731A4009
:100EF00002827047C1F308028280704701468888E9
:100F0000C0F308007047818941F001018181704779
:100F1000028BD2B20283028B42EA01220283704723
:100F2000028B02F47F420283028B0A4302837047E2
:100F300021B1828A42F02002828204E0828A4FF646
:100F4000DF731A408282704721B1828A42F0100218
:100F5000828204E0828A4FF6EF731A4082827047E1
:100F600021B1828A42F00802828204E0828A4FF62E
:100F7000F7731A408282704721B1828942F400429D
:100F8000828103E08289C2F30E028281704721B11F
:100F9000828A42F40062828204E0828A4FF2FF7306
:100FA0001A4082827047828A4FF6FB731A4082820F
:100FB000828A0A438282704721B1828A42F0020209
:100FC000828204E0828A4FF6FD731A408282704763
:100FD00002460020B1F5007F00D100BF13880B400E
:100FE0000BB1012000E00020704701F40072B2F55F
:100FF000007F00D100BFCA430280704770B502462F
:10100000002400230025002040F66A16B14200D1DA
:1010100000BFC1F3421501F01F03012606FA03F3D6
:10102000012D02D19689334006E0022D02D1168AA5
:10103000334001E0968A33400C12012606FA04F48C
:101040001688344013B10CB1012000E0002070BDBF
:1010500010B50022002340F66A14A14200D100BF5F
:101060000A1201249440A3B2DC43048010BD0000A6
:10107000003801400044004000480040004C00405F
:101080000050004010B50446F748844209D10121C0
:101090004805FFF7B4FD00214FF40010FFF7AFFD46
:1010A00008E001218805FFF7AAFD00214FF4800028
:1010B000FFF7A5FD10BD2DE9F04385B004460D46B0
:1010C0000026B1460427DFF8A483A6884FF6C07037
:1010D00006406846FFF7FFFCDDF80880E448B8FBEF
:1010E000F0F01FFA80F946EA0906A68020884FF63C
:1010F000FE71084020800026DE49286888420CD80E
:1011000028684000B8FBF0F087B2042F00DA04270B
:101110003E4309F10100208427E0E8884BF6FF7187
:10112000884206D1286800EB4000B8FBF0F087B297
:1011300009E0286800EBC00101EB0010B8FBF0F0FB
:1011400087B247F48047C7F30B0008B947F001079F
:1011500047F4004006434FF4967009FB00F04FF44B
:101160007A7190FBF1F0401C2084A683208840F027
:101170000100208026884FF6F5300640A88869894E
:10118000084306432680A88929890843208105B0A1
:10119000BDE8F08341F288310160002181804BF687
:1011A000FF71C1800021018141814FF48041818123
:1011B000704721B1028842F00102028004E00288F7
:1011C0004FF6FE731A400280704721B1828842F4C4
:1011D0000062828004E082884FF2FF731A408280AE
:1011E000704721B1828842F48052828004E0828874
:1011F0004EF6FF731A408280704721B1028842F494
:101200008072028004E002884FF6FF631A40028079
:10121000704721B1028842F40072028004E0028823
:101220004FF6FF531A400280704721B1028842F402
:101230008062028004E002884FF6FF331A40028089
:1012400070470A46002181894FF60173194002F068
:10125000FE0319438181704721B1828942F0010266
:10126000828104E082894FF6FE731A4082817047C2
:1012700021B1028842F04002028004E002884FF669
:10128000BF731A40028070471AB183880B43838072
:1012900002E083888B438380704701827047014658
:1012A000088AC0B2704712B141F0010102E04FF666
:1012B000FE7319400182704708B502460020009075
:1012C00000920098084400900098008808BD21B161
:1012D000028842F40042028003E00288C2F30E0258
:1012E00002807047B1F5006F04D1028842F40062B9
:1012F000028004E002884FF2FF731A4002807047B8
:10130000B1F5005F04D1028842F40052028004E08B
:1013100002884DF6FF731A400280704721B102889F
:1013200042F48052028004E002884EF6FF731A40B5
:1013300002807047B1F5006F04D1028842F4006268
:10134000028004E002884FF2FF731A400280704767
:1013500021B1028842F02002028004E002884FF6A8
:10136000DF731A40028070470146088B00127047F5
:1013700021B1028842F01002028004E002884FF698
:10138000EF731A400280704721B9028842F0800250
:10139000028004E002884FF67F731A400280704793
:1013A000B1F5804F05D0828B4BF6FF731A408283D4
:1013B00003E0828B42F480428283704770B502461C
:1013C0000024002500230020958A138B1B0445EA86
:1013D000030626F07F4404EA01068E4201D1012073
:1013E00000E0002070BD10B501460020002300225F
:1013F0008B8A0A8B120443EA020424F07F4010BD5A
:101400000CB50246002000230193009300920B0FBD
:10141000019321F07F41019B1BB1009B143300938A
:1014200003E0090C009B18330093009B1B680B40E2
:101430000BB1012000E000200CBD002221F07F4212
:10144000D3438382704730B502460020002394883E
:1014500001F0E06504EA154321F07F41948A0C40D5
:1014600054B14BB1012008E00054004000127A0052
:1014700040420F00A0860100002030BD002221F074
:101480007F42D3438382704710B50446FE488442AE
:1014900008D10121C014FFF7A5FB0021E014FFF7DC
:1014A000A1FBC4E0B4F1804F08D101210846FFF749
:1014B000A6FB00210120FFF7A2FBB8E0F34884421D
:1014C00008D101210220FFF79AFB00210220FFF73B
:1014D00096FBACE0EE48844208D101210420FFF7DE
:1014E0008EFB00210420FFF78AFBA0E0E94884423C
:1014F00008D101210820FFF782FB00210820FFF717
:101500007EFB94E0E448844208D101211020FFF7DB
:1015100076FB00211020FFF772FB88E0DF48844251
:1015200008D101212020FFF76AFB00212020FFF7CE
:1015300066FB7CE0DA48844208D101214014FFF7C1
:1015400051FB00216014FFF74DFB70E0D548844249
:1015500009D10121C804FFF745FB00214FF4002009
:10156000FFF740FB63E0D048844209D10121080520
:10157000FFF738FB00214FF48010FFF733FB56E0F4
:10158000CA48844209D101214805FFF72BFB0021FD
:101590004FF40010FFF726FB49E0C548844208D10C
:1015A00001214020FFF72BFB00214020FFF727FB04
:1015B0003DE0C048844208D101218020FFF71FFB95
:1015C00000218020FFF71BFB31E0BB48844208D19B
:1015D00001218015FFF713FB0021A015FFF70FFB7A
:1015E00025E0B648844209D101210804FFF7FAFA40
:1015F00000214FF48030FFF7F5FA18E0B04884423C
:1016000009D101214804FFF7EDFA00214FF4003021
:10161000FFF7E8FA0BE0AB48844208D101218804C7
:10162000FFF7E0FA00214FF48020FFF7DBFA10BD4E
:1016300000220288944B98420ED0994B98420BD0CE
:10164000B0F1804F08D0914B984205D0904B984212
:1016500002D0904B984204D14FF68F731A404B88BA
:101660001A438D4B984207D08C4B984204D04FF6CA
:10167000FF431A40CB881A4302808B8883850B88EE
:101680000385814B98420BD0854B984208D08B4BF9
:10169000984205D08A4B984202D08A4B984201D199
:1016A0000B7A038601238382704770B500240022E1
:1016B0000023058C4FF6FE7635400584028C838826
:1016C000048B4FF68F752C40B51E2C400D882C4393
:1016D000751E2A400D892A434D882A436A4DA84227
:1016E0000BD06F4DA84208D0744DA84205D0744D60
:1016F000A84202D0734DA84213D14FF6F7752A4085
:101700004D892A434FF6FB752A408D882A434FF6B0
:10171000FF652B404FF6FF552B408D892B43CD891C
:101720002B4383800483CD888586028470BD70B589
:10173000002400220023058C4FF6EF763540058407
:10174000028C8388048B48F6FF752C404FF6FF45CA
:101750002C400D884FF6FF7606EA05252C434FF600
:10176000DF752A400D8906EA05152A434D8806EAE9
:1017700005152A43444DA84202D0494DA8421DD127
:101780004FF67F752A404D894FF6FF7606EA05151C
:101790002A434FF6BF752A408D8806EA05152A436D
:1017A0004FF6FF352B404FF2FF752B408D8906EA2F
:1017B00085052B43CD8906EA85052B438380048369
:1017C000CD880587028470BD70B5002400220023F7
:1017D000058C4FF6FF6635400584028C8388848B28
:1017E0004FF68F752C404FF6FC752C400D882C431E
:1017F0004FF6FF552A400D894FF6FF7606EA05257C
:101800002A434D8806EA05252A431F4DA84202D0E7
:10181000234DA8421DD14FF2FF752A404D894FF646
:10182000FF7606EA05252A434FF6FF352A408D88C4
:1018300006EA05252A434EF6FF752B404DF6FF7547
:101840002B408D8906EA05152B43CD8906EA05153F
:101850002B4383808483CD888587028470BD70B5D7
:10186000002200230024058C4EF6FF7635400584C7
:10187000038C8488828B48F6FF752A404FF6FF451B
:101880002A400D8820E00000002C014000040040A8
:1018900000080040000C0040001000400014004010
:1018A00000340140004C0140005001400054014010
:1018B00000180040001C0040002000400040014093
:1018C00000440140004801404FF6FF7606EA052536
:1018D0002A434DF6FF752B400D8906EA05352B434B
:1018E0004D8806EA05352B43FA4DA84202D0FA4D41
:1018F000A84208D14BF6FF752C408D894FF6FF7634
:1019000006EA85152C4384808283CD88A0F8405058
:10191000038470BD828B4FF2FF331A408283828B27
:101920004FF6FF7303EA01231A4382837047F0B531
:101930000C461546002200210026078C4EF6FF7C3F
:1019400007EA0C070784828B018C4FF6FF7707EAC2
:10195000043640F6FF473A404FF6FF7707EA05277F
:101960003A434FF6FF7707EA03373A43D94FB84275
:101970000ED0D94FB8420BD0B0F1804F08D0D74F1E
:10198000B84205D0D64FB84202D0D64FB84206D1A1
:101990004DF6FF77394046F48057394305E047F666
:1019A000FF57394044F48057394382830184F0BDA6
:1019B000828B4FF6F3731A408283828B0A438283B1
:1019C0007047F0B50C461546002200210026078C12
:1019D0004FF6FF6C07EA0C070784828B018C4FF6E9
:1019E000FF7707EA04264FF60C773A404FF6FF7769
:1019F00007EA03172F433A43B64FB8420ED0B64F0B
:101A0000B8420BD0B0F1804F08D0B44FB84205D0E7
:101A1000B34FB84202D0B34FB84206D14FF6FF578A
:101A2000394046F48077394305E04FF2FF5739409B
:101A300044F48077394382830184F0BD028B4FF2F6
:101A4000FF331A400283028B4FF6FF7303EA012330
:101A50001A4302837047F0B50C4615460022002158
:101A60000026078C4FF6EF7C07EA0C070784028BF1
:101A7000018C4FF6FF7707EA041640F6FF473A401D
:101A80004FF6FF7707EA03373A434FF6FF7707EA47
:101A900005273A438F4FB8420ED08F4FB8420BD034
:101AA000B0F1804F08D08D4FB84205D08C4FB8426E
:101AB00002D08C4FB84206D14FF6DF77394046F05E
:101AC0001007394305E04FF65F77394044F01007BF
:101AD000394302830184F0BD028B4FF6F3731A4041
:101AE0000283028B0A4302837047F0B50C46154609
:101AF00000220021068C4FF6FE773E400684028BC2
:101B0000018C4FF60C7632407E1C06EA03162E43FB
:101B10003243704EB0420ED06F4EB0420BD0B0F197
:101B2000804F08D06D4EB04205D06D4EB04202D00D
:101B30006C4EB04206D14FF6FD76314044F00106BE
:101B4000314305E04FF6F576314044F0010631436C
:101B500002830184F0BD70B505460C465D488542A0
:101B60000ED05D4885420BD0B5F1804F08D05B4860
:101B7000854205D05A48854202D05A48854200D154
:101B800000E000BF208850B92389A28861882846D8
:101B9000FFF7ABFFE1882846FFF79EFF25E020888E
:101BA00004280AD12389A28861882846FFF753FFB9
:101BB000E1882846FFF742FF17E0208808280AD16D
:101BC0002389A28861882846FFF7FBFEE188284622
:101BD000FFF7EEFE09E02389A28861882846FFF717
:101BE000A6FEE1882846FFF795FE70BD2DE9F0417D
:101BF00005460C4600260127608808B9022600E049
:101C00000026A088012801D1022700E001272088B2
:101C1000A0B92389A28861882846FFF766FFE1887A
:101C20002846FFF759FF23893A4631462846FFF7F1
:101C300012FFE1882846FFF701FF13E02389A288FD
:101C400061882846FFF707FFE1882846FFF7F6FE80
:101C500023893A4631462846FFF747FFE188284660
:101C6000FFF73AFFBDE8F0810A884B881A438B885A
:101C70001A43CB881A430B891A434B891A438B8921
:101C80001A43A0F8442070474FF6FF71818000216D
:101C90000180C18041800172704700210180418034
:101CA0008180C180018141818181C1817047002192
:101CB00001804180012181800021C1800181704724
:101CC0000021018041808180C18001814181818129
:101CD00070470000002C0140003401400004004027
:101CE00000080040000C004021B1028842F00102CF
:101CF000028004E002884FF6FE731A4002807047AB
:101D000031B1B0F8442042F40042A0F8442005E08C
:101D1000B0F84420C2F30E02A0F8442070471AB174
:101D200083890B43838102E083898B4383817047DE
:101D30008182704741EA0203A0F8483070471AB127
:101D400083890B43838102E083898B4383817047BE
:101D500001894FF6F8721140018170470A4600214F
:101D600001894FF68F73194011430181704730B5D7
:101D700004460D4629462046FFF7F0FF208940F033
:101D80000700208130BD2DE9F04104460D4616467E
:101D90001F46602D06D13B46012231462046FFF703
:101DA0005AFE05E03B46012231462046FFF79DFEE4
:101DB00029462046FFF7D2FF208940F00700208106
:101DC000BDE8F08130B50C4600210189C9B24FF65B
:101DD000FF7505EA0325154325432943018130BDDD
:101DE0002DE9F04105460E46174698460024434625
:101DF0003A4631462846FFF7E5FF2C894FF6F87042
:101E0000044044F007044FF68F70044044F070041F
:101E10002C81BDE8F081F0B504460D4616461F46FC
:101E20003B46324629462046FFF7CCFF208940F446
:101E300080402081F0BD0185828270470A460021E2
:101E400001884FF68F731940114301807047F0B538
:101E50000C4615461E460021002200230189028BF4
:101E6000038C4FF6F877394021434FF6FC473A4050
:101E700040F201173A434FF6DD773B404FF6FF77CC
:101E800007EA06172F433B43018102830384F0BD19
:101E90000A460021018B4FF68F73194011430183CD
:101EA00070470A460021018B48F6FF7319404FF630
:101EB000FF7303EA02231943018370470A46002196
:101EC000818B4FF68F7319401143818370470A4607
:101ED0000021818B48F6FF7319404FF6FF7303EA28
:101EE000022319438183704721B1028842F08002A6
:101EF000028004E002884FF67F731A400280704728
:101F000021B1828842F00402828004E082884FF688
:101F1000FB731A408280704721B1828842F0080228
:101F2000828004E082884FF6F7731A4082807047FF
:101F300021B1828842F00102828004E082884FF65B
:101F4000FE731A40828070470A460021018B4FF6CB
:101F5000F77319401143018370470A460021018B32
:101F60004FF2FF7319404FF6FF7303EA0223194340
:101F7000018370470A460021818B4FF6F7731940A1
:101F80001143818370470A460021818B4FF2FF7312
:101F900019404FF6FF7303EA022319438183704708
:101FA0000A460021018B4FF6FB7319401143018350
:101FB00070470A460021018B4FF6FF3319404FF658
:101FC000FF7303EA02231943018370470A46002185
:101FD000818B4FF6FB7319401143818370470A468A
:101FE0000021818B4FF6FF3319404FF6FF7303EA50
:101FF00002231943818370470A460021018B4FF663
:102000007F7319401143018370470A460021018BF9
:10201000C1F30E014FF6FF7303EA02231943018354
:1020200070470A460021818B4FF67F731940114398
:10203000818370470A460021818BC1F30E014FF660
:10204000FF7303EA02231943818370470A46002184
:10205000018C4FF6FD7319401143018470470A4605
:102060000021018C4FF6F77319401143018470472A
:102070000A460021018C4FF6DF7319404FF6FF73BB
:1020800003EA02131943018470470A460021018CB8
:102090004FF67F7319404FF6FF7303EA021319439B
:1020A000018470470A460021018C4FF6FF53194006
:1020B0004FF6FF7303EA02231943018470470A466F
:1020C0000021018C4FF2FF7319404FF6FF7303EAB2
:1020D00002231943018470470A460021018C4DF602
:1020E000FF7319404FF6FF7303EA0233194301846B
:1020F000704730B5002301248C40A3B2048C9C436C
:102100000484048C02FA01F5ADB22C43048430BD82
:1021100030B5002304248C40A3B2048C9C43048477
:10212000048C02FA01F5ADB22C43048430BD70B5C5
:102130000346002000241846183001258D40ACB21B
:102140001D8CA5431D8409B1082909D100EB61004C
:10215000056825F0700505600568154305600EE00B
:102160000D1FC5F34E052844056825F4E0450560BC
:1021700005684FF6FF7606EA02263543056070BD16
:1021800021B1028842F00202028004E002884FF688
:10219000FD731A400280704721B1028842F00402A8
:1021A000028004E002884FF6FB731A4002807047F9
:1021B00021B1828842F08002828004E082884FF65A
:1021C0007F731A408280704702884FF6F7731A4077
:1021D000028002880A430280704782884FF68F731C
:1021E0001A40828082880A438280704702894FF6B3
:1021F000F8731A40028102890A43028170470289FA
:102200004FF67F731A40028102890A4302817047A8
:102210008184704781857047818670470187704748
:1022200081877047A0F84010704702884FF6FF433F
:102230001A40028002880A43028070470146888E55
:1022400070470146088F70470146888F70470146E6
:10225000B1F8400070470146888C70470146088DF0
:10226000704702460020138A0B400BB1012000E0AA
:1022700000207047CA430282704730B502460020F2
:1022800000230024158A05EA0103958905EA010463
:1022900013B10CB1012000E0002030BDCA4302821E
:1022A0007047000010B50446BE48844208D10121A1
:1022B0008014FEF797FC0021A014FEF793FC16E0B3
:1022C000B948844208D101210014FEF798FC00218E
:1022D0002014FEF794FC0AE0B448844207D101219F
:1022E000C013FEF78CFC0021E013FEF788FC10BD44
:1022F00010B50022028802F441520B884C88234317
:102300008C882343CC8823430C8923434C89234363
:102310008C892343CC8923431A430280838B4FF259
:10232000FF74234083830B8A038210BD2DE9F04F95
:1023300085B005460C464FF0000902274FF0000813
:102340004FF0010B0026B246A88B4FF24001084027
:10235000A88302202884B5F81C90A068022801D127
:1023600000BF38E0A08810B94FF0010B01E04FF03A
:10237000020B8D48854200D100E000BF6846FEF7A1
:10238000AAFBDDF800A0E088B0F5007F0AD14FEA93
:102390001A2000EB80004000A168B0FBF1F0401D66
:1023A00086B20BE04FEA4B10BAFBF0F000EB800076
:1023B0004000A168B0FBF1F0401D86B20A20B6FBD8
:1023C000F0F606F00108A6EB0800C0F34F074FF641
:1023D000FF7000EA0828022F01DBFF2F02DD022731
:1023E0004FF00008E08840EA080038432884A088BD
:1023F000A1890843618808432188084340F40060AC
:1024000040EA0909A5F81C9005B0BDE8F08F00214D
:10241000018041808180C180018141818181C181B0
:102420000721018270470021018041808180C180A5
:102430000221816000218181704721B1028842F030
:102440004002028004E002884FF6BF731A40028007
:10245000704721B1828B42F48062828304E0828BD8
:102460004FF6FF331A408283704730B500240023B3
:102470000C110125A540ABB21AB185881D4385809A
:1024800002E085889D43858030BD1AB183880B4367
:10249000838002E083888B4383807047818170470B
:1024A0000146888970474FF6FF62914204D0028846
:1024B00042F48072028004E002884FF6FF631A4003
:1024C0000280704721B1828842F00402828004E0D9
:1024D00082884FF6FB731A408280704702884FF261
:1024E000FF731A40028002880A4302807047018805
:1024F00041F480510180704721B1028842F40052BA
:10250000028004E002884DF6FF731A400280704793
:1025100002460020012901D0108B00E0908A70470C
:102520000146088A7047B1F5804F04D1028842F411
:102530008042028004E002884BF6FF731A4002805A
:1025400070470246002013890B400BB1012000E0C8
:1025500000207047CA4302817047F0B50246002050
:1025600000240023002501F00F070126BE40B4B26D
:102570000B1101269E40B3B2968806EA0305168920
:10258000264016B10DB1012000E00020F0BD10B5CD
:10259000002201F00F040123A3409AB2D343038128
:1025A00010BD00000030014000380040003C0040F9
:1025B00010B50446FA48844208D101214015FEF7BF
:1025C00011FB00216015FEF70DFB17E0F548844272
:1025D00008D101210015FEF705FB00212015FEF7AB
:1025E00001FB0BE0F048844208D10121C803FEF74B
:1025F000F9FA00214FF40040FEF7F4FA10BD30B5AF
:102600000246002000235068E84C20400D790C68F9
:1026100044EA0524204350609068E54C2040D1E90D
:1026200002542C434D7944EA450420439060D06A1B
:1026300020F470000C7C641EE4B2234340EA035093
:10264000D06230BD00210160017141718160C160C3
:1026500001210174704721B1826842F00102826059
:1026600003E0826822F001028260704721B1826833
:1026700042F48072826003E0826822F48072826099
:10268000704710B50023CBB21AB144681C434460B4
:1026900002E044689C43446010BD816841F0080139
:1026A00081607047014600208A6802F008020AB182
:1026B000012000E000207047816841F00401816042
:1026C0007047014600208A6802F004020AB1012026
:1026D00000E00020704721B1826842F4A0028260CD
:1026E00003E0826822F4A002826070470146002065
:1026F0008A6802F480020AB1012000E000207047DD
:1027000010B50A4600210023416821F46041531EA0
:1027100041EA4331416010BD21B1426842F4006298
:10272000426003E0426822F4006242607047F0B504
:1027300004460D4600200021092D11DDE068A5F1B9
:102740000A0606EB4607072606FA07F18843A5F1B5
:102750000A0606EB460603FA06F10843E0600CE0C1
:10276000206905EB4507072606FA07F1884305EBC4
:10277000450603FA06F108432061072A0FDA606B69
:10278000561E06EB86071F2606FA07F18843561EDB
:1027900006EB860605FA06F10843606322E00D2A7F
:1027A0000FDA206BD61F06EB86071F2606FA07F105
:1027B0008843D61F06EB860605FA06F10843206318
:1027C00010E0E06AA2F10D0606EB86071F2606FA66
:1027D00007F18843A2F10D0606EB860605FA06F11D
:1027E0000843E062F0BD21B1826842F48012826049
:1027F00003E0826822F48012826070470146C86C50
:1028000080B2704766484C300068704721B142681A
:1028100042F48062426003E0426822F480624260D7
:10282000704721B1426842F48052426003E042683E
:1028300022F48052426070470A460021816821F4E8
:10284000E04111438160704721B1826842F4004247
:10285000826003E0826822F400428260704721B106
:10286000826842F40212826003E0826822F402125B
:1028700082607047014600208A6802F400120AB1A3
:10288000012000E000207047F0B504461546002006
:1028900000220026092911DDE068A1F10A0707EBF3
:1028A000470C072707FA0CF29043A1F10A0707EB40
:1028B000470703FA07F21043E0600CE0206901EBE0
:1028C000410C072707FA0CF2904301EB410703FA8A
:1028D00007F210432061A06BC0F30156EF1C06F114
:1028E000010CA7EB0C0707EB870C1F2707FA0CF26C
:1028F0009043EF1C06F1010CA7EB0C0707EB8707D1
:1029000001FA07F21043A063F0BD10B50A4600219A
:102910000023816B21F44011531E41EA035181636E
:1029200010BD08B5002300930090009B0B4400935A
:10293000009B1A6008BD08B5024600200090009276
:1029400001F12800009B184400900098006880B2B4
:1029500008BD0A4600214168164B194011434160E9
:1029600070474162826270470A460021416821F047
:102970001F0111434160704740B10949083109689E
:1029800041F40001064A0832116007E004490831A9
:10299000096821F40001024A083211607047000002
:1029A0000024014000280140003C0140FFFEF0FFF0
:1029B000FDF7F1FFFFFD3FFF0246002013680B40CB
:1029C0000BB1012000E000207047CA43026070474D
:1029D00070B502460020002300240B125568CEB2C9
:1029E00005EA060415681D4015B10CB1012000E090
:1029F000002070BD00220A12D3430360704700001C
:102A000001684FF6FE7211400160002101604160D3
:102A10008160C1608D49884208D18C490839496874
:102A200041F00F01894A083A51608AE08749143120
:102A3000884208D185490839496841F0F001834A44
:102A4000083A51607DE081492831884208D17F49A8
:102A50000839496841F470617C4A083A516070E075
:102A60007A493C31884208D178490839496841F4AB
:102A70007041764A083A516063E0744950318842A7
:102A800008D172490839496841F470216F4A083AFF
:102A9000516056E06D496431884208D16B4908396C
:102AA000496841F47001694A083A516049E0674950
:102AB0007831884208D165490839496841F0706128
:102AC000624A083A51603CE06149884206D1011FE0
:102AD000096841F00F01021F116032E05C491431B6
:102AE000884208D15A49091F096841F0F001584A43
:102AF000121F116025E056492831884208D15449F7
:102B0000091F096841F47061514A121F116018E0F1
:102B10004F493C31884208D14D49091F096841F4A9
:102B200070414B4A121F11600BE0494950318842F5
:102B300007D14749091F096841F47021444A121F0F
:102B40001160704710B50022026847F6F0739A438F
:102B50000C6A8B6823430C6923434C6923438C69BB
:102B60002343CC6923434C6A23438C6A23431A438F
:102B70000260CB6843600B6883604B68C36010BD24
:102B80000021016041608160C1600161416181613A
:102B9000C161016241628162704721B1026842F005
:102BA0000102026004E002684FF6FE731A40026000
:102BB00070471AB103680B43036002E003688B435C
:102BC00003607047416070470146486880B27047B3
:102BD00001460020002201F080531BB11C4B083B32
:102BE0001A6802E0194B083B1A6802EA01030BB1AC
:102BF000012000E00020704700F0805119B1144915
:102C0000091F086002E01149083948607047014611
:102C10000020002201F080531BB10D4B083B1A68C5
:102C200002E00A4B083B1A6802EA01030BB10120DB
:102C300000E00020704700F0805119B10449091FDD
:102C4000086002E001490839486070470800024006
:102C5000080402400CB50020019000906C48006808
:102C600040F480306A49086000BF6948006800F499
:102C7000003000900198401C0190009818B901980C
:102C8000B0F5A06FF1D16248006800F4003010B1D7
:102C90000120009001E0002000900098012843D11D
:102CA0005C48006840F010005A4908600846006817
:102CB00020F0030008600846006840F00200086049
:102CC0005348406852494860084640684860084692
:102CD000406840F4806048600846406820F47C10FA
:102CE00048600846406840F4F810486008460068AC
:102CF00040F08070086000BF4548006800F0007038
:102D00000028F9D04248406820F00300404948605C
:102D10000846406840F00200486000BF3C484068F8
:102D200000F00C000828F9D10CBD10B5FFF792FF98
:102D300010BD10B53648006840F001003449086005
:102D400008464068344908403149486008460068F0
:102D5000324908402E4908600846006820F4802067
:102D600008600846406820F4FE0048604FF41F00E9
:102D70008860FFF7DAFF4FF000602949086010BD56
:102D800010B5002100200022214B5B6803F00C01EC
:102D900021B1042906D0082928D107E0214B224C73
:102DA000236027E0214B204C236023E0184B5B6815
:102DB00003F47010164B5B6803F48032022303EBBC
:102DC000904022B91A4B4343174C23600DE0104B3F
:102DD0005B6803F4003323B1124B4343124C23606E
:102DE00003E0124B4343104C236003E00D4B0E4CA9
:102DF000236000BF00BF064B5B68C3F303130D4C99
:102E0000E15C094B1B68CB40074C236010BD000000
:102E100000100240002002400000FFF8FFFFF6FE15
:102E200008ED00E000127A00480000200024F400C1
:102E300000093D004C0000204FF0E020006920F028
:102E400004004FF0E021086109202349087008467A
:102E5000007800EB4001C1EBC0104FF6FF7101EAB2
:102E6000C0001E490880704701461C4A12884A4328
:102E70004FF0E0235A6100229A6101221A6100BFDB
:102E80004FF0E022106900F001021AB100F4803224
:102E9000002AF5D000224FF0E0231A619A617047B2
:102EA00001460D4A12784A434FF0E0235A6100224E
:102EB0009A6101221A6100BF4FF0E022106900F010
:102EC00001021AB100F48032002AF5D000224FF03E
:102ED000E0231A619A6170475C0000205E000020C8
:102EE00010B5FDF7F7FC4FF48030FDF713FDFDF74B
:102EF00050FD012830D10020FDF791FD0020FDF7A5
:102F0000A0FD4FF48060FDF793FD1448006840F089
:102F10001000124908600846006820F003000860AD
:102F20000846006840F0020008604FF4E0114FF4DA
:102F30004030FDF757FD0120FDF760FD00BF39204F
:102F4000FDF70BFD0028FAD00220FDF75AFD00BF67
:102F5000FDF760FD0828FBD110BD000000200240F5
:102F6000002109E0002201E0531C9AB242F234131E
:102F70009A42F9DB4B1C99B28142F3DB704708B5EA
:102F800001210820FDF714FE01211020FDF710FE9D
:102F900001210846FDF70CFE01212A48FDF71DFC22
:102FA00001212948FDF719FC0820ADF80000032095
:102FB0008DF8020010208DF8030069462348FDF7C4
:102FC0003BFB4FF40050ADF8000003208DF80200E9
:102FD00010208DF8030069461D48FDF72DFB08BD44
:102FE00070B505460C460DE008211848FDF7D3FBE7
:102FF000A0B2FFF7B5FF08211448FDF7CAFBA0B245
:10300000FFF7AEFF2800A5F10101CDB2ECD170BDF4
:1030100070B505460C460FE04FF400510C48FDF723
:10302000B8FBA0B2FFF79CFF4FF400510848FDF732
:10303000B2FBA0B2FFF794FF2800A5F10101CDB2C9
:10304000EAD170BD0004300000023000000C0140E5
:103050000010014008B54FF4A060FDF71FFA1D20D5
:103060008DF8000000208DF8010001208DF802008D
:103070008DF803006846FDF716FA25208DF800004C
:1030800003208DF8010001208DF802008DF8030067
:103090006846FDF708FA08BD10B586B00446012160
:1030A00044F20400FDF784FD4FF40070ADF8140005
:1030B00018208DF8170003208DF8160005A9344854
:1030C000FDF7BAFA4FF48060ADF8140004208DF8D3
:1030D000170005A92E48FDF7AFFA01940020ADF8BE
:1030E0000800ADF80A00ADF80C00ADF810000C2097
:1030F000ADF80E0001A92748FDF703FE012240F2BA
:1031000025512448FDF795FE01212248FDF785FE53
:1031100006B010BD70B504460D46E1B21D48FDF77E
:10312000E9FE00BF40211B48FDF752FF0028F9D0FF
:10313000204670BD10B5044600BF20211548FDF79C
:1031400047FF0028F9D01348FDF7D8FE10BD10B591
:1031500040F225510F48FDF751FF90B10D48FDF7A2
:10316000CDFE0D490D4A126888540C480068401C79
:103170000A490860084600681F2802D10120084952
:10318000086040F225510348FDF762FF10BD0000C2
:1031900000080140003801400002002060000020CB
:1031A000640000200EB501210620FDF70EFD6846E3
:1031B000FEF76AFD4FF6FF70ADF804000020ADF891
:1031C0000000ADF80600ADF802006946FE48FEF7C3
:1031D0002FFA00221146FC48FEF72DFE0121FA4885
:1031E000FEF7CEFF2021F848FEF7B8FD0721F6488C
:1031F000FEF7FCFF8021F448FFF701F80121F248B7
:10320000FEF772FE4FF6FF70ADF804004820ADF8EF
:1032100000000020ADF80600ADF802006946EB485A
:10322000FEF706FA0121E948FEF75EFE0421E748B1
:10323000FEF7DCFF0121E548FEF7AEFF2021E34861
:10324000FEF7CBFF8021E148FEF7D9FF0121DF48DF
:10325000FEF74AFD0121DC48FEF746FD0EBD0020C9
:10326000D949243108880004D84924310988084400
:1032700070470FB59FB0D6480168006805F02CF87C
:103280001690D4480168D248006805F025F81590DA
:10329000D1480168CE48006805F01EF81490CD486A
:1032A0000168006805F018F81390CC480168C94817
:1032B000006805F011F81290C7480168006805F031
:1032C0000BF81190C5480168C348006805F004F880
:1032D0001090C2480168006804F0FEFF0F900020C3
:1032E0000E902499229804F0F7FF0C90259904F091
:1032F000F3FF00210D9004F053FF01D123B000BD76
:1033000021980E90B6491F9804F0E6FF1F90B4492B
:10331000209804F0E1FF2090B149219804F0DCFFEF
:1033200021902599084604F0D7FF08902499084673
:1033300004F0D2FF06902299084604F0CDFF0590D4
:10334000069904F0FDFD0790089904F0F9FD099035
:1033500004F0CAFDCDE90A0103F0F6FFCDE90C0146
:1033600004F018F81D901D99229804F057FE229041
:103370001D99249804F052FE24901D99259804F07C
:103380004DFE25901499129805F0AEF84FF080414B
:103390000D9004F0A1FF1C901099159804F0D0FD39
:1033A0004FF080410D9004F097FF1B9013991698F1
:1033B00005F09AF80C90119905F096F80D900F9978
:1033C00004F0BEFD1A901B99259804F085FF0D901E
:1033D0001A99249804F080FF0C900D9905F084F858
:1033E00019901A99229804F077FF0D901C9925984E
:1033F00004F072FF0C900D9905F076F818901C9966
:10340000249804F069FF0D901B99229804F064FF42
:103410000C900D9905F068F817907249199804F00E
:103420005BFF0D90704801680D9804F089FD6E49AE
:1034300008606C49189804F04FFF0D906B480168C4
:103440000D9804F07DFD694908606649179804F0FD
:1034500043FF0D90664801680D9804F071FD6449C2
:1034600008606448199904F037FF0C901F9904F024
:1034700067FD0D905C4801680D9804F061FD1F9098
:103480005C48189904F028FF0C90209904F058FD2E
:103490000D90564801680D9804F052FD2090554853
:1034A000179904F019FF0C90219904F049FD0D9033
:1034B0004F4801680D9804F043FD21904748219939
:1034C000006804F009FF0B9043482099006804F05D
:1034D00003FF09903F48006880F0004007901F9963
:1034E00004F0FAFE0890099904F0FEFF0A900B9987
:1034F00004F0FAFF0C90404801680C9804F0ECFED0
:103500000D90334801680D9804F01AFD30490860A9
:1035100032482099006804F0DFFE0B902E48219974
:10352000006804F0D9FE0990294801681F9804F04A
:10353000D3FE0890099904F003FD0A900B9904F05A
:10354000D3FF0C902C4801680C9804F0C5FE0D9038
:10355000204801680D9804F0F3FC1E4908601F48DC
:1035600001681F9804F0B8FE0B901A482199006872
:1035700004F0B2FE099016482099006804F0ACFEF1
:103580000890099904F0B0FF0A900B9904F0D8FC58
:103590000C90194801680C9804F09EFE0D900E489E
:1035A00001680D9804F0CCFC0B49086008460168DE
:1035B0001F9804F091FE0B9006482099006804F0D3
:1035C0008BFE0990024819E000080040000400400A
:1035D0007000002074000020780000207C00002093
:1035E00089A18B3A6F12833A80000020840000206A
:1035F00088000020CDCCCC3F8C00002021990068B1
:1036000004F06AFE0890099904F09AFC0A900B995C
:1036100004F06AFF0C90FE4801680C9804F05CFE10
:103620000D90FC4801680D9804F08AFCF949086087
:1036300008460168006804F04FFE0890F6480168EB
:10364000006804F049FE0690F4480168006804F040
:1036500043FE0490F2480168006804F03DFE0390C8
:10366000049904F06DFC0590069904F069FC07903C
:10367000089904F065FC099004F036FCCDE90A01D4
:1036800003F062FECDE90C0103F084FE1D90E448D6
:103690001D99006804F0C2FCE1490860DF481D99EB
:1036A000006804F0BBFCDD490860DB481D99006838
:1036B00004F0B4FCD8490860D6481D99006804F0AD
:1036C000ADFCD4490860D7490E9804F0D1FD06D26C
:1036D000D5490E9804F0CCFE01D200200E90D349BB
:1036E0000E9804F0F9FD059004F0FEFBD04AD14B92
:1036F000CDE9060104F0E8F8CDE90A01CE480068FA
:10370000079004F0F1FBCDE90801DDE90A2303F09D
:1037100073FECDE90C0103F03DFEC7490860C048C7
:1037200001684FF0804004F0D7FD0490BA4801686A
:10373000049804F0D1FD0690B84801684FF040406D
:1037400004F0CAFD0490B3480168049804F0C4FD75
:103750000590069904F0F4FB079004F0C5FBCDE951
:10376000080103F0E9FA4FF06632B44BCDE90A01E3
:1037700004F0AAF8CDE90C0103F00CFEAE49486054
:10378000A54801684FF0804004F0A6FD0190A248D2
:103790000168019804F0A0FD0390A04801684FF073
:1037A000404004F099FD01909C480168019804F0A4
:1037B00093FD0290039904F097FE4FF07E51049020
:1037C00004F0BEFB059004F08FFBCDE9080194489E
:1037D00001684FF0804004F07FFD02908F4801683F
:1037E000029804F079FD04908B4801684FF0804006
:1037F00004F072FD029087480168029804F06CFDA5
:103800000390049904F09CFB059004F06DFBCDE956
:103810000601DDE9082303F0D7FC4FF06632874B41
:10382000CDE90A0104F050F8CDE90C0103F0B2FD36
:10383000814988608248B0F9000003F0F1FFCDE9CA
:1038400008018048B0F9000003F0EAFF00227E4B37
:10385000CDE9040104F038F8CDE90601DDE90823DB
:1038600003F0B2FC4FF06632744BCDE90A0104F06C
:103870002BF8CDE90C0103F08DFD74490860704808
:10388000B0F9000003F0CCFFCDE908017048B0F9B1
:10389000000003F0C5FF00226B4BCDE9040104F0EA
:1038A00013F8CDE90601DDE9082303F08DFC81F072
:1038B00000414FF06632614BCDE90A0104F004F893
:1038C000CDE90C0103F066FD60494860259804F0DD
:1038D0000BFBCDE90801249804F006FBCDE90601B5
:1038E000DDE9082303F070FC4FF06632534BCDE95D
:1038F0000A0103F0E9FFCDE90C0103F04BFD554946
:103900000860259804F0F0FACDE90801229804F047
:10391000EBFACDE90601DDE9082303F055FC81F05F
:1039200000414FF06632454BCDE90A0103F0CCFF70
:10393000CDE90C0103F02EFD464948604648B0F938
:10394000000003F06DFFCDE908014448B0F9000024
:1039500003F066FF00223C4BCDE9040103F0B4FF05
:10396000CDE90601DDE9082303F02EFC4FF06632B5
:10397000324BCDE90A0103F0A7FFCDE90C0103F0BA
:1039800009FD374908603448B0F9000003F048FFEA
:10399000CDE908013348B0F9000003F041FF0022EF
:1039A000294BCDE9040103F08FFFCDE90601DDE9E4
:1039B000082303F009FC81F000414FF066321F4BF1
:1039C000CDE90A0103F080FFCDE90C0103F0E2FC30
:1039D000234948602448B0F9000003F021FFCDE9F5
:1039E00008012248B0F9000003F01AFF0022164B2C
:1039F000CDE9040103F068FFCDE90601DDE9082304
:103A000003F0E2FB4FF066320C4BCDE90A012FE0E8
:103A10008C0000207C000020780000207400002032
:103A2000700000200000A0400000A0C0F1FF793D20
:103A3000FCA9F1D24D62603F2002002066A64C40F6
:103A4000CC000020CA0000200000F03F2C02002023
:103A5000C800002038020020C0000020BE00002066
:103A600044020020BC000020E4000020E20000200E
:103A700003F02AFFCDE90C0103F08CFC55490860E6
:103A80005548B0F9000003F0CBFECDE908015348DA
:103A9000B0F9000003F0C4FE0022514BCDE904014F
:103AA00003F012FFCDE90601DDE9082303F08CFBEA
:103AB00081F000414FF066324A4BCDE90A0103F034
:103AC00003FFCDE90C0103F065FC4249486046481C
:103AD000B0F9000003F0A4FECDE908014348B0F9B5
:103AE000000003F09DFE00223D4BCDE9040103F0F0
:103AF000EBFECDE90601DDE9082303F065FB4FF09D
:103B00006632384BCDE90A0103F0DEFECDE90C0147
:103B100003F040FC364908603348B0F9000003F078
:103B20007FFECDE908013348B0F9000003F078FECC
:103B300000222B4BCDE9040103F0C6FECDE90601BE
:103B4000DDE9082303F040FB81F000414FF06632CD
:103B5000244BCDE90A0103F0B7FECDE90C0103F0D7
:103B600019FC23494860244800680D9023480168E7
:103B70000D9804F0B9FC269988601F4840680D90A4
:103B80001F4801680D9804F0AFFC269948601A4858
:103B900080680D901B4801680D9804F0A5FC2699DB
:103BA000086000211848006804F0FAFA0ED01248A4
:103BB00000681249086010484068114908600E48C2
:103BC00080681049086000200F49086000BFFFF7B7
:103BD00095BB000050020020E4000020E00000201F
:103BE0000000F03F66A64C402C0100202A01002076
:103BF0005C0200202801002020020020A4000020F8
:103C0000A8000020AC00002024000020002109E0D2
:103C1000002201E0531C9AB242F234139A42F9DBBB
:103C20004B1C99B28142F3DB70472DE9F047F9480C
:103C3000407AF849097A40EA0120F7490988401A90
:103C400000B2F6490880F348C07AF249897A40EA1E
:103C50000120F3490988401A00B2F2490880ED4872
:103C6000407BEC49097B40EA0120EF490988401A72
:103C700000B2EE490880E7484078E649097840EA12
:103C8000012000B2EA490880E248C078E149897819
:103C900040EA012000B2E7490880DE484079DD496A
:103CA000097940EA012000B2E3490880E048008831
:103CB000E2490988401A00B2E1490880DD480088DD
:103CC000E0490988401A00B2DF490880DA480088D4
:103CD000DE490988401A00B2DD490880D4480088CE
:103CE000DC490988401A00B2DB4908800846B0F96F
:103CF000000004F0A5FA0546D8480168284604F0FB
:103D0000EBFA044604F080FA00B2D5490880C948AD
:103D10000088D4490988401A00B2D349088008466F
:103D2000B0F9000004F08CFA0546D0480168284636
:103D300004F0D2FA044604F067FA00B2CC490880D5
:103D4000BD480088CB490988401A00B2CA4908809A
:103D50000846B0F9000004F073FA0546C748016848
:103D6000284604F0B9FA044604F04EFA00B2C449F9
:103D70000880C448B0F9000004F062FA0746C2485F
:103D80000168384604F0A8FA0546A948B0F90000D1
:103D900004F056FA0746BD480168384604F09CFA1C
:103DA0000646294604F0CCF8044604F02DFA00B289
:103DB000B7490880B348B0F9000004F041FA07465B
:103DC000B4480168384604F087FA05469948B0F9C6
:103DD000000004F035FA0746AF480168384604F0A1
:103DE0007BFA0646294604F0ABF8044604F00CFAC8
:103DF00000B2AA490880A348B0F9000004F020FAF4
:103E00000746A7480168384604F066FA05468A481E
:103E1000B0F9000004F014FA0746A24801683846D9
:103E200004F05AFA0646294604F08AF8044604F0DB
:103E3000EBF900B29C4908808F48B0F9000004F00B
:103E4000FFF9074699480168384604F045FA0546E7
:103E50008548B0F9000004F0F3F981469448016800
:103E6000484604F039FA07467B48B0F9000004F0F0
:103E7000E7F981468F480168484604F02DFA8046EC
:103E8000394604F05DF80646294604F059F8044620
:103E900004F0BAF900B2884908807748B0F9000008
:103EA00004F0CEF9074685480168384604F014FA54
:103EB00005466D48B0F9000004F0C2F9814680481B
:103EC0000168484604F008FA07466348B0F9000064
:103ED00004F0B6F981467B480168484604F0FCF9D5
:103EE0008046394604F02CF80646294604F028F8A6
:103EF000044604F089F900B2734908805E48B0F9BD
:103F0000000004F09DF9074670480168384604F047
:103F1000E3F905465448B0F9000004F091F98146F0
:103F20006B480168484604F0D7F907464A48B0F99B
:103F3000000004F085F9814666480168484604F0AF
:103F4000CBF98046394603F0FBFF0646294603F0CD
:103F5000F7FF044604F058F900B25F49088038487A
:103F6000B0F90000B0F5004F02DB47F6FF7002E049
:103F70003348B0F90000324908800846B0F9000023
:103F800010F5004F01DA554802E02D48B0F9000065
:103F90002B4908802C48B0F90000B0F5004F02DB37
:103FA00047F6FF7002E02848B0F900002649088073
:103FB0000846B0F9000010F5004F01DA474802E06A
:103FC0002148B0F90000204908802148B0F90000DC
:103FD000B0F5004F02DB47F6FF7002E01C48B0F975
:103FE00000001B4908800846B0F9000010F5004F9A
:103FF00001DA3A4802E01648B0F900001449088096
:104000000648B0F90000B0F5004F69DB47F6FF70D5
:1040100069E065E0680200202E010020B000002069
:1040200030010020B200002032010020B400002046
:10403000BC000020BE000020C00000203401002091
:10404000B600002036010020B80000203801002012
:10405000BA000020CE000020C2000020D4000020C2
:10406000C8000020D0000020C4000020D80000209C
:10407000CA000020D2000020C6000020DC00002082
:10408000CC00002000010020EC000020E80000200F
:10409000E0000020F4000020F0000020E2000020FA
:1040A000FC000020F8000020E40000201C0100209B
:1040B0001001002004010020280100202001002020
:1040C00014010020080100202A0100202401002002
:1040D000180100200C0100202C0100200080FFFFAF
:1040E000F748B0F90000F64908800846B0F900002A
:1040F00010F5004F01DAF34802E0F148B0F9000092
:10410000EF490880F048B0F90000B0F5004F02DB3D
:1041100047F6FF7002E0EC48B0F90000EA49088079
:104120000846B0F9000010F5004F01DAE54802E05A
:10413000E548B0F90000E4490880E448B0F900001F
:10414000B0F5004F02DB47F6FF7002E0DF48B0F940
:104150000000DE4908800846B0F9000010F5004F65
:1041600001DAD84802E0D948B0F90000D749088000
:10417000D748B0F90000D7490880D748B0F9000007
:104180004880D648B0F900008880D54800680028EB
:1041900057D1D448007888B90020D3490880D34942
:1041A0000880D3490880D3490860D3490860D349BF
:1041B00008600120CB490870BDE8F087CD48006851
:1041C000BF49B1F900100844CA490860CA480068EC
:1041D000BD49B1F900100844C7490860C7480068E4
:1041E000BA49B1F900100844C4490860BD480078D4
:1041F000C82821D1BF480068BA49097890FBF1F07E
:1042000000B2B9490880BC480068B649097890FBFB
:10421000F1F000B2B5490880B8480068B1490978A2
:1042200090FBF1F000B2B24908800020AD4908705F
:104230000120AB490860BFE7AA480078401CA949A3
:104240000870AF480068002858D1AE48007880B99F
:104250000020AD490880AD490880AD490880AD49CE
:104260000860AD490860AD4908600120A5490870A3
:10427000A2E7A84800689649B1F900100844A5498A
:104280000860A54800689449B1F900100844A249A3
:104290000860A24800689149B1F9001008449F499C
:1042A000086098480078C82823D19A480068954942
:1042B000097890FBF1F000B29349088096480068B5
:1042C0009049097890FBF1F000B29049088093483A
:1042D00000688C49097890FBF1F0A0F5005000B21D
:1042E0008B490880002087490870012084490860B4
:1042F00062E784480078401C8249087000BF5BE791
:104300002DE9FF4F81B00E4617461D464FF00008BD
:10431000C146C246019803F093FF8149814A127851
:1043200041F82200304603F08BFF7F497D4A127826
:1043300041F82200384603F083FF7C49794A12781D
:1043400041F8220000242BE0404603F079FF009062
:10435000734850F82410009803F0F2FD834603F0F0
:1043600053FF8046484603F06BFF00906E4850F8BC
:104370002410009803F0E4FD834603F045FF8146D6
:10438000504603F05DFF0090684850F824100098F4
:1043900003F0D6FD834603F037FF8246601CC4B2AB
:1043A000142CD1DB142098FBF0F000B228801420EC
:1043B00099FBF0F000B2688014209AFBF0F000B294
:1043C000A88058480078401C564908700846007874
:1043D000142801D10020087005B0BDE8F08F10B599
:1043E000534B0E223B21D02002F0D4F810BDF8B57B
:1043F00006460F4614461D466B4601223946304696
:1044000002F007F92DB10120A0409DF800100843EB
:1044100005E00120A0409DF8001021EA0000C0B294
:1044200000906B4601223946304602F073F9F8BD20
:104430002DE9F8430746884614461D46089E6B46FC
:1044400001224146384602F0E4F8601CFF2101FADF
:1044500000F0C4F108012944491EFF220A4110431B
:1044600000F0FF09C5F1080006FA00F0C6B2C4F179
:10447000070006419DF8000000EA090000909DF841
:104480000000304300906B4601224146384602F05E
:1044900041F9BDE8F88338B50446032302226B21B5
:1044A000D0200094FFF7C4FF38BD38B5044602237E
:1044B00004221B21D0200094FFF7BAFF38BD000072
:1044C000B00000200080FFFFB2000020B4000020F8
:1044D000B60000201C000020B8000020BA00002018
:1044E00040010020580100202E0100203001002052
:1044F000320100204C010020500100205401002016
:104500004401002068010020340100203601002011
:10451000380100205C0100206001002064010020BF
:104520008402002069010020D4020020240300201E
:104530006802002038B50446022304221C21D02042
:104540000094FFF775FF38BD10B5044623460622D8
:104550006B21D020FFF74BFF10BD10B5044623465A
:1045600005226A21D020FFF742FF10BD10B5044696
:10457000234601223721D020FFF739FF10BD38B57F
:104580000446032302221A21D0200094FFF750FF93
:1045900038BD38B50446082307221921D0200094DD
:1045A000FFF746FF38BD10B50020FFF7CDFFC8204C
:1045B000FFF72CFB0120FFF76EFF3220FFF726FBF1
:1045C0000320FFF772FF3220FFF720FB0120FFF7E7
:1045D000B1FF3220FFF71AFB0320FFF7D0FF322094
:1045E000FFF714FB0020FFF7B8FF3220FFF70EFBA8
:1045F0000120FFF7BBFF3220FFF708FB10BD0000D2
:104600003EB505460C4601210846FCF7DEFAADF83A
:104610000450ADF800400020ADF80600ADF80200EF
:1046200069464FF08040FDF703F801218807FDF748
:104630005BFB3EBD08B501210420FCF7B9FA01205F
:10464000ADF8000018208DF8030003208DF802005B
:1046500069466248FBF7F0FF08BD1FB56020ADF862
:1046600000000120ADF802000020ADF80800694606
:104670004FF08040FDF719F80821C806FDF764FCEB
:1046800001218807FDF730FB1FBD08B5012104207B
:10469000FCF78EFA0220ADF8000018208DF8030018
:1046A00003208DF8020069464C48FBF7C5FF08BDA2
:1046B0001FB56020ADF800000120ADF80200002019
:1046C000ADF8080069464FF08040FDF730F808214A
:1046D000C806FDF742FC01218807FDF705FB1FBD59
:1046E00008B501210420FCF763FA0420ADF80000AE
:1046F00018208DF8030003208DF802006946374822
:10470000FBF79AFF08BD1FB56020ADF8000001203F
:10471000ADF802000020ADF8080069464FF0804077
:10472000FDF752F80821C806FDF724FC012188078F
:10473000FDF7DAFA1FBD08B501210420FCF738FAAD
:104740000820ADF8000018208DF8030003208DF834
:10475000020069462148FBF76FFF08BD1FB56020C6
:10476000ADF800000120ADF802000020ADF808000F
:1047700069464FF08040FDF772F80821C806FDF742
:1047800002FC01218807FDF7AFFA1FBD10B5FFF746
:10479000A7FFFFF74FFFFFF778FFFFF7CCFF10BD34
:1047A00010B5FFF7B0FFFFF758FFFFF781FFFFF7E6
:1047B000D5FF00214FF08040FDF72EFD00214FF086
:1047C0008040FDF72BFD00214FF08040FDF728FDD4
:1047D00000214FF08040FDF725FD10BD000801408D
:1047E00000B587B001210C20FCF7E2F91020ADF8EC
:1047F000180003208DF81A0010208DF81B0006A960
:10480000F148FBF719FF0420ADF8180006A9EF489E
:10481000FBF712FF0120ADF8180028208DF81B00CF
:1048200006A9EA48FBF708FF0521E848FBF7B3FFB4
:104830001021E548FBF7AFFF00F003FA0021E44840
:10484000FDF7FBFD0020ADF804004FF48270ADF8D9
:1048500006000020ADF80800ADF80A00ADF80C0025
:104860004FF40070ADF80E001820ADF810000020D5
:10487000ADF812000720ADF8140001A9D448FDF7E7
:1048800037FD0121D248FDF7D8FD0020D14908604D
:104890000120D149C1F8900107B000BD2DE9F041D8
:1048A00007460D4616460020CC490860384600F001
:1048B000A1F98046002405E0FF2000F09BF928556F
:1048C000601CC4B2B442F7DB0120C4490860404612
:1048D000BDE8F0812DE9F04107460C461546002061
:1048E000BE490860384600F085F98046002605E09C
:1048F00014F8010B00F07EF9701CC6B2AE42F7DB73
:104900000120B64908604046BDE8F0811CB5B4A15D
:1049100003C9CDE90001082000F0D7F90522694656
:104920003020FFF7D7FF052269461020FFF7B6FFBA
:10493000002406E01DF80400A52800D003E0601C58
:10494000C4B2052CF6DB00BF052C01D001201CBD34
:104950000020FCE770B505460C4600209F49086022
:10496000284600F047F90646204600F043F90120AA
:104970009949C1F89001304670BD70B504460020D9
:1049800096490860204600F035F9FF2000F032F922
:10499000054601209049C1F89001284670BD70B5C8
:1049A00005460E46102000F090F900208949086065
:1049B00032462946A020FFF78DFF01208A49C1F821
:1049C00088010720FFF7D9FF044621462720FFF77B
:1049D000C1FF04F0100028B1FF21E120FFF7BAFF6A
:1049E000102070BD04F0200008B12020F9E7FF205E
:1049F000F7E770B50446102000F067F90720FFF7CD
:104A0000BCFF054629462720FFF7A4FF05F040001C
:104A100050B1202221466120FFF740FFFF21E22014
:104A2000FFF798FF002070BD0120FCE710B50020C3
:104A30006849086005226D492A20FFF74BFF0121D4
:104A40002120FFF787FF01212220FFF783FF282184
:104A50002520FFF77FFF20213120FFF77BFF0F216B
:104A60002620FFF777FF0F212020FFF773FF01209B
:104A70005D49C1F8880110BD10B500205549086096
:104A800005225B493020FFF725FF052257492A20E0
:104A9000FFF720FF01212120FFF75CFF01212220E9
:104AA000FFF758FF1A212420FFF754FF2821252063
:104AB000FFF750FF0F212620FFF74CFF0E2120208B
:104AC000FFF748FF01204849C1F8880110BD10B523
:104AD000044600203F490860052244492A20FFF788
:104AE000F9FE01212120FFF735FF01212220FFF7E8
:104AF00031FF28212520FFF72DFF0F212620FFF76A
:104B000029FF012C07D120213120FFF723FF0F219E
:104B10002020FFF71FFF022C0CD105223449302042
:104B2000FFF7D8FE1A212420FFF714FF0E212020C2
:104B3000FFF710FF032C1DD120213120FFF70AFFC2
:104B4000FF21E120FFF706FFFF21E220FFF702FF30
:104B50000F212020FFF7FEFE502000F04BF87320BD
:104B600000F048F801213C20FFF7F4FE07213D202A
:104B7000FFF7F0FE042C22D105221D493020FFF75B
:104B8000A9FE1A212420FFF7E5FE0E212020FFF7C1
:104B9000E1FEFF21E120FFF7DDFEFF21E220FFF72C
:104BA000D9FE502000F026F8732000F023F80121F0
:104BB0003C20FFF7CFFE07213D20FFF7CBFE012071
:104BC0000449086010BD000000080140000C0140CD
:104BD00000300140888121420000214290012142A1
:104BE000A5A5A5A5A500000000802142C786000854
:104BF000C286000870B50546002405E0601CC4B2FA
:104C0000C82C01DD002070BD02213948FDF799FC58
:104C10000028F3D029463648FDF740FC002405E083
:104C2000601CC4B2C82C01DD0020ECE70121304833
:104C3000FDF787FC0028F3D02D48FDF731FCC0B20A
:104C4000E1E700B587B001210420FBF7B1FF0121A6
:104C50000803FBF7ADFFE020ADF8180018208DF831
:104C60001B0003208DF81A0006A92248FBF7E4FC7C
:104C7000E0212048FBF78DFD0020ADF804004FF443
:104C80008270ADF806000020ADF808000220ADF8F3
:104C90000A000120ADF80C004002ADF80E003820EB
:104CA000ADF810000020ADF812000720ADF8140098
:104CB00001A90F48FDF71CFB01210D48FDF7BDFBC5
:104CC000FF20FFF797FF07B000BD10B50446084866
:104CD00000884FF6C77108400549088008460088DB
:104CE0002043088001210248FDF7A7FB10BD00000A
:104CF000003001400008014010B50024FE48FFF7D5
:104D000078FE18B9FD49FC4801F028FA10BD10B52D
:104D10001020FFF7DAFF1720FFF72FFE10BD70B548
:104D200004460025E1B2F648FFF739FE064670BD9D
:104D3000F4490A780978491CF24B1970F0498854F3
:104D4000704711B500209DF80120EE490B780978D5
:104D5000491CEC4C2170EA49CA549DF800302146A8
:104D60000A780978491C2170E5498B549DF8011097
:104D70000144C8B29DF800100144C8B218BD2DE925
:104D8000F04380460D4616461F46DDF81C90002471
:104D90000020DC490870AA20FFF7CAFF2044C4B2F3
:104DA000AA20FFF7C5FF2044C4B24046FFF7C0FF6A
:104DB0002044C4B20820FFF7BBFF2044C4B22846F9
:104DC000FFF7BFFF2044C4B23046FFF7BAFF2044CC
:104DD000C4B23846FFF7B5FF2044C4B24846FFF7D7
:104DE000B0FF2044C4B22046FFF7A2FFBDE8F08325
:104DF0002DE9F04F80460D4616461F46DDE90AAB09
:104E0000DDF8249000240020BE490870AA20FFF796
:104E10008FFF2044C4B2AA20FFF78AFF2044C4B207
:104E20000220FFF785FF2044C4B21220FFF780FF65
:104E30002044C4B24046FFF784FF2044C4B2284651
:104E4000FFF77FFF2044C4B23046FFF77AFF2044CB
:104E5000C4B23846FFF775FF2044C4B24846FFF796
:104E600070FF2044C4B25046FFF76BFF2044C4B229
:104E70005846FFF766FF2044C4B20C98FFF761FF65
:104E80002044C4B20D98FFF75CFF2044C4B2204612
:104E9000FFF74EFFBDE8F08F2DE9F04385B04FF0EE
:104EA0001008FFF729FF9848007840B30020964982
:104EB00008709648B0F900209548B0F9000095496F
:104EC000B1F90010944BB3F90030CDE90131CDE9CF
:104ED00003029248B0F9000000909148B0F9003008
:104EE0009048B0F900209048B0F900108F48B0F910
:104EF0000000FFF77DFF1720FFF711FF0EE08C4841
:104F0000007818B100208A49087007E089480078C5
:104F100018B100208749087000E000BF864800787B
:104F200080B300208449087084490868844903F0EC
:104F3000D3F9814603F068F904B2824908688049D0
:104F400003F0CAF9814603F05FF905B27E490868AB
:104F50007B4903F0C1F9814603F056F906B27B495B
:104F60000868774903F0B8F9814603F04DF907B2B4
:104F70002B4632463946F1200094FFF700FF0D2002
:104F8000FFF7CDFE05B0BDE8F08311B500209DF818
:104F900001205C490B780978491C5A4C217058490A
:104FA000CA549DF8003021460A780978491C2170BE
:104FB00053498B549DF801100144C8B29DF800106C
:104FC0000144C8B218BD11B500209DF803204D4919
:104FD0000B780978491C4B4C21704949CA549DF8FB
:104FE000022021460B780978491C21704449CA5493
:104FF0009DF8012021460B780978491C2170404911
:10500000CA549DF8002021460B780978491C21706C
:105010003B49CA549DF801100144C8B29DF80010E4
:105020000144C8B29DF802100144C8B29DF80310B3
:105030000144C8B218BD11B500209DF803203149C4
:105040000B780978491C2F4C21702D49CA549DF8C2
:10505000022021460B780978491C21702849CA543E
:105060009DF8012021460B780978491C21702449BC
:10507000CA549DF8002021460B780978491C2170FC
:105080001F49CA549DF803100144C8B29DF802108C
:105090000144C8B29DF801100144C8B29DF8001047
:1050A0000144C8B218BD2DE9F04180460D461646B0
:1050B0001F460024002013490870AA20FFF738FE7D
:1050C0002044C4B2AA20FFF733FE2044C4B24046B5
:1050D000FFF72EFE2044C4B20620FFF729FE20442D
:1050E000C4B22846FFF72DFE2044C4B23046FFF775
:1050F00028FE2044C4B22BE0A80300209403002023
:105100007403002070010020060000202C01002004
:105110002A01002028010020CC000020CA00002025
:10512000C8000020BA000020B8000020B60000200F
:1051300007000020090000200A0000205C02002077
:105140000000C8422C020020380200204402002047
:105150003846FFF7F6FD2044C4B22046FFF7E8FDCD
:10516000BDE8F0812DE9F04F80460D4616461F46FA
:10517000DDE90AABDDF8249000240020DC4908704A
:10518000AA20FFF7D5FD2044C4B2AA20FFF7D0FD26
:105190002044C4B24046FFF7CBFD2044C4B21220E5
:1051A000FFF7C6FD2044C4B22846FFF7CAFD2044DD
:1051B000C4B23046FFF7C5FD2044C4B23846FFF7FD
:1051C000C0FD2044C4B24846FFF7BBFD2044C4B232
:1051D0005046FFF7B6FD2044C4B25846FFF7B1FD74
:1051E0002044C4B22046FFF7A3FDBDE8F08FF0B520
:1051F00007460D46164600240020BD490870AA2027
:10520000FFF796FD2044C4B2AA20FFF791FD204489
:10521000C4B23846FFF78CFD2044C4B20820FFF723
:1052200087FD2044C4B22846FFF705FF2044C4B2DE
:105230003046FFF700FF2044C4B22046FFF778FD58
:10524000F0BD2DE9F04F80460D4616461F46DDE9BC
:105250000AABDDF8249000240020A5490870AA209C
:10526000FFF766FD2044C4B2AA20FFF761FD204489
:10527000C4B24046FFF75CFD2044C4B21820FFF7DB
:1052800057FD2044C4B22846FFF7D5FE2044C4B2DF
:105290003046FFF7D0FE2044C4B23846FFF7CBFEBD
:1052A0002044C4B24846FFF7C6FE2044C4B250466C
:1052B000FFF7C1FE2044C4B25846FFF7BCFE2044AD
:1052C000C4B22046FFF734FDBDE8F08F2DE9F0436E
:1052D00080460D4616461F46DDF81C90002400202F
:1052E00083490870AA20FFF723FD2044C4B2AA20F6
:1052F000FFF71EFD2044C4B24046FFF719FD2044CD
:10530000C4B21020FFF714FD2044C4B22846FFF7B2
:1053100092FE2044C4B23046FFF78DFE2044C4B252
:105320003846FFF788FE2044C4B24846FFF783FEA4
:105330002044C4B22046FFF7FBFCBDE8F0832DE912
:10534000F04780460D4616461F46DDE9089A0024C0
:10535000002067490870AA20FFF7EAFC2044C4B285
:10536000AA20FFF7E5FC2044C4B20120FFF7E0FCCF
:105370002044C4B20D20FFF7DBFC2044C4B24046F9
:10538000FFF7DFFC2044C4B22846FFF7DAFC2044D4
:10539000C4B23046FFF7D5FC2044C4B23846FFF70C
:1053A000D0FC2044C4B24846FFF70DFE2044C4B2EE
:1053B000BAF1000F05D0A020FFF7BAFC2044C4B218
:1053C00004E0A120FFF7B4FC2044C4B22046FFF75C
:1053D000AFFCBDE8F0872DE9FC5F83464FF0000A83
:1053E00044490988480002F01BFA06464FF066322D
:1053F000414B02F069FA04460022404B02F0B8F833
:10540000804601F0C7FF01903D49019802F064FF1A
:10541000044602F0F9FE00B2009000203449087002
:10542000AA20FFF785FC504400F0FF0AAA20FFF7EE
:105430007FFC504400F0FF0A0320FFF779FC504442
:1054400000F0FF0A1420FFF773FC504400F0FF0A3D
:10545000BBF8001008B2FFF774FC504400F0FF0ADC
:10546000BBF8081008B2FFF76CFC504400F0FF0ACC
:10547000BBF8041008B2FFF764FC504400F0FF0AC8
:10548000BBF8061008B2FFF75CFC504400F0FF0ABE
:10549000BBF80C1008B2FFF754FC504400F0FF0AB0
:1054A000BBF80E1008B2FFF74CFC504400F0FF0AA6
:1054B000BBF8101008B2FFF744FC504400F0FF0A9C
:1054C0000098FFF73EFC504400F0FF0A0020FFF771
:1054D00038FC504400F0FF0A0020FFF732FC504433
:1054E00000F0FF0A5046FFF723FCBDE8FC9F0000D8
:1054F00070010020C601002066660A400000B0402E
:105500000000C842FD48FE490860FE4848604FF070
:1055100082408860FC48C860002008614861F74804
:10552000FA490860F74848604FF082408860F648C2
:10553000C860002008614861F548F649086000200D
:1055400048604FF07C508860F348C86000200861D4
:105550004861F248F2490860EA484860F1488860CA
:10556000F148C860002008614861F048F0490860CF
:10557000E4484860EF488860EB48C8600020086154
:1055800048614FF08240EC490860EC484860886010
:10559000E548C86000200861486170472DE9F04780
:1055A00004460D4616462168286802F09DFFE4492E
:1055B00008600A461168D24A106902F0C1FCD0495D
:1055C00008610A46D168106902F052FF03D2CC4844
:1055D000C068CB490861CA48C06880F00047C84825
:1055E0000169384602F044FF05D2C548C06880F022
:1055F0000040C3490861C82E02DA0020C049086192
:10560000D04A1168CE4A106802F06EFF8146BC484D
:105610008168484602F060FE0746B94A1169506841
:1056200002F05AFE8146C64A1168B54A106802F077
:1056300053FE8246494602F083FC8046394602F01A
:105640007FFCAF494861BE480068BE490860616898
:10565000686802F049FFBA4948600A465168AB4A97
:10566000106902F06DFCA94908610A46D168106909
:1056700002F0FEFE03D2A548C068A4490861A34811
:10568000C06880F00047A1480169384602F0F0FE8A
:1056900005D29E48C06880F000409C490861C82E31
:1056A00002DA002099490861A64A5168A44A506864
:1056B00002F01AFF814695488168484602F00CFEC8
:1056C00007468F4A1169914A506802F005FE8146EB
:1056D0009B4A51688D4A106802F0FEFD8246494699
:1056E00002F02EFC8046394602F02AFC87494861C8
:1056F0009348406893494860BDE8F0872DE9F04140
:1057000004469148B0F9000002F09AFD06468F4920
:1057100002F0E2FD05467A484169284602F0D9FECA
:105720008B4908600A4611687D4A106902F008FC3E
:105730007B4908610A46D168106902F099FE03D2DC
:105740007748C068764908617548C06880F00045B0
:1057500073480169284602F08BFE05D27048C06884
:1057600080F000406E4908617A4A1168784A1068F2
:1057700002F0BAFE07466A488168384602F0ACFD7E
:105780000546674A1169506802F0A6FD0746704A4F
:105790001168634A106802F09FFD8046394602F0A6
:1057A000CFFB0646294602F0CBFB5D4948616848BD
:1057B0000068684908606848B0F9000002F040FDE0
:1057C0000646624902F088FD054650484169284670
:1057D00002F07FFE5E4948600A465168544A1069EB
:1057E00002F0AEFB524908610A46D168106902F026
:1057F0003FFE03D24E48C0684D4908614C48C0681E
:1058000080F000454A480169284602F031FE05D281
:105810004748C06880F00040454908614D4A5168DA
:105820004B4A506802F060FE07464148816838469E
:1058300002F052FD05463E4A1169506802F04CFDE7
:105840000746434A51683A4A106802F045FD8046CF
:10585000394602F075FB0646294602F071FB3449D1
:1058600048613B4840683B4948603C48B0F900000B
:10587000404202F0E5FC0546344902F02DFD344972
:1058800088600A4691682C4A106902F059FB2A493F
:1058900008610A46D168106902F0EAFD03D2264881
:1058A000C068254908612448C06880F00045224846
:1058B0000169284602F0DCFD05D21F48C06880F06F
:1058C00000401D490861234A9168214A906802F00E
:1058D0000BFE074618488168384602F0FDFC054675
:1058E000154A1169506802F0F7FC0746184A91689A
:1058F000114A106802F0F0FC804631E00000A04040
:10590000C80300200AD7A33C00007A44E00300202B
:1059100000006040F8030020000096430000204093
:10592000100400200000584100409C45CDCC4C4064
:10593000280400200000704140040020CDCCCC3D64
:105940005804002064040020B0000020F1FF793DDD
:10595000700400207C040020B2000020B40000206D
:10596000394602F0EDFA0646294602F0E9FAFE4908
:105970004861FE488068FE498860FE48807A0128B8
:1059800070D1FD48007800286ED1204602F058FC06
:105990008046FA484169404602F0A6FD0746F848AD
:1059A0004169384602F0CCFA0646EF484169304674
:1059B00002F0C6FA054602F027FC00B2F149088061
:1059C000204602F03DFC8046EC484169404602F02A
:1059D000B7FA0746EA484169384602F0B1FA064686
:1059E000E1484169304602F07FFD054602F00CFCBB
:1059F00000B2E5490880204602F022FC8046DF48DC
:105A00004169404602F09CFA0746DD484169384644
:105A100002F06AFD0646D4484169304602F090FA29
:105A2000054602F0F1FB00B2D8490880204602F09A
:105A300007FC8046D1484169404602F055FD0746C3
:105A4000CF484169384602F04FFD0646C6484169D5
:105A5000304602F049FD054602F0D6FB00B2CC49C3
:105A600008800DE054E0FFE7C3480078012807D123
:105A7000C4480480C4480480C4480480C4480480E6
:105A8000C048B0F90000B0F57A7F03DB40F2E730A0
:105A9000BC490880BC48B0F90000B0F57A7F03DB50
:105AA00040F2E730B8490880B848B0F90000B0F5D6
:105AB0007A7F03DB40F2E730B4490880B448B0F99C
:105AC0000000B0F57A7F03DB40F2E730B049088090
:105AD000AC48B0F90000002802DA0020A94908808B
