:020000040800F2
:10000000280A0020C9010008190300081B03000882
:100010001F03000823030008270300080000000056
:100020000000000000000000000000002B0300089A
:100030002D030008000000002F0300083103000812
:10004000E3010008E3010008E3010008E301000800
:10005000E3010008E3010008E3010008E3010008F0
:10006000E3010008E3010008E3010008E3010008E0
:10007000E3010008E3010008E3010008E3010008D0
:10008000E3010008E3010008E3010008E3010008C0
:10009000E3010008E3010008E3010008E3010008B0
:1000A000E3010008E3010008E3010008E3010008A0
:1000B000E301000843030008E3010008E30100082E
:1000C000E3010008330300083B030008E3010008D4
:1000D000E30100084F300008E3010008E3010008D5
:1000E000E3010008E3010008E301000800F002F862
:1000F00000F05AF80AA090E8000C82448344AAF168
:100100000107DA4501D100F04FF8AFF2090EBAE865
:100110000F0013F0010F18BFFB1A43F0010318473B
:100120008C700000AC7000000A444FF0000C10F816
:10013000013B13F0070408BF10F8014B1D1108BF65
:1001400010F8015B641E05D010F8016B641E01F805
:10015000016BF9D113F0080F1EBF10F8014BAD1C55
:100160000C1B09D16D1E58BF01F801CBFAD505E073
:1001700014F8016B01F8016B6D1EF9D59142D6D3CD
:10018000704700000023002400250026103A28BFF5
:1001900078C1FBD8520728BF30C148BF0B607047F9
:1001A0001FB51FBD10B510BD06F0DEF91146FFF7F3
:1001B000F7FF00F029F806F0FCF903B4FFF7F2FFAF
:1001C00003BC06F0FDF900000948804709480047D4
:1001D000FEE7FEE7FEE7FEE7FEE7FEE7FEE7FEE7F7
:1001E000FEE7FEE704480549054A064B7047000054
:1001F000332C0008ED00000828040020280A002005
:1002000028060020280600201CB502F0E9FD02F0B7
:1002100093FD02F09FFE4FF4E13002F0BDFE02F0CC
:100220002EFE0320009001231A4631490190A6209A
:1002300005F009FE4FF4FA7005F042FC03F05EFC95
:1002400003E008212B4800F026FA03F0EDFC00281B
:10025000F7D1042003F0C9FD022140F2E73003F09A
:100260005DFB03F021FC03F029FC03F005FB04F027
:100270001FFE05F03DFD6421022002F049FE36E03C
:1002800003F051FA02F01DFF1B49098808B204F07F
:100290000BFF1A480078012829D119480078401C22
:1002A0001749087017480078401C1649087016480E
:1002B0000078401C1449087014480078401C134909
:1002C00008700F480078012804D1114908700020F7
:1002D0000B4908700B480078052805D101200D490D
:1002E0000870002007490870002004490870C7E71B
:1002F000801A0600000C0140D002002031000020CE
:10030000290000202A0000202C0000202B000020C3
:100310000600002007000020704700BFFEE700BF76
:10032000FEE700BFFEE700BFFEE77047704770477B
:10033000704710B505F01CFF10BD10B506F0E4F8CD
:1003400010BD10B51048008800F00100D8B14FF67C
:10035000FE700D4908800D480078401C0B4908705C
:100360000B480078401C0A490870084800780228A9
:1003700007D1012007490870074908700020034988
:10038000087004F082F810BD100400403200002014
:10039000330000202F0000203100002031490143AC
:1003A000314A1160704770B5002100230F22C478D4
:1003B00004B32D4C246804F4E064C4F5E064210A1D
:1003C000C1F10403CA40447804FA03F1847814406C
:1003D00021430901254C0678A155047804F01F0536
:1003E0000124AC4005786D11AD0005F1E025C5F89C
:1003F000004109E0047804F01F050124AC401C4DC5
:100400000678761145F8264070BD1A4A0A40024324
:10041000154B1B1F1A60704739B1134A121D126821
:100420000243114B1B1D1A6006E00F4A121D126891
:1004300082430D4B1B1D1A607047042808D14FF0F2
:10044000E021096941F004014FF0E022116107E069
:100450004FF0E021096921F004014FF0E022116121
:10046000704700000000FA050CED00E000E400E039
:1004700080E100E080FFFF1F10B50446CC488442B5
:1004800008D10121042000F02DFB0021042000F000
:1004900029FB46E0C748844208D10121082000F02A
:1004A00021FB0021082000F01DFB3AE0C2488442F5
:1004B00008D10121102000F015FB0021102000F0D0
:1004C00011FB2EE0BD48844208D10121202000F01C
:1004D00009FB0021202000F005FB22E0B8488442FF
:1004E00008D10121402000F0FDFA0021402000F059
:1004F000F9FA16E0B348844208D10121802000F0C7
:10050000F1FA0021802000F0EDFA0AE0AE488442C2
:1005100007D10121801500F0E5FA0021A01500F0B7
:10052000E1FA10BD10B50121084600F0DBFA002108
:10053000012000F0D7FA10BD2DE9F0410246002558
:100540000026002000230024002791F803C00CF0AF
:100550000F0591F803C00CF0100CBCF1000F03D094
:1005600091F802C04CEA050591F800C0BCF1000FFB
:1005700031D0146800202BE04FF0010C0CFA00F38E
:10058000B1F800C00CEA03069E4220D183004FF070
:100590000F0C0CFA03F7BC4305FA03FC4CEA040405
:1005A00091F803C0BCF1280F06D14FF0010C0CFAF2
:1005B00000FCC2F814C00AE091F803C0BCF1480F77
:1005C00005D14FF0010C0CFA00FCC2F810C0401C21
:1005D0000828D1D31460B1F800C0BCF1FF0F34DD9E
:1005E000546800202EE000F1080C4FF0010808FAD2
:1005F0000CF3B1F800C00CEA03069E4221D183003F
:100600004FF00F0C0CFA03F7BC4305FA03FC4CEA5D
:10061000040491F803C0BCF1280F05D100F1080CC7
:1006200008FA0CF8C2F8148091F803C0BCF1480F26
:1006300007D100F1080C4FF0010808FA0CF8C2F8D5
:100640001080401C0828CED35460BDE8F0814FF6DE
:10065000FF710180022181700421C1707047024640
:10066000002093680B400BB1012000E00020704790
:100670000146886880B2704702460020D3680B406C
:100680000BB1012000E0002070470146C86880B22D
:10069000704701617047416170470AB1016100E034
:1006A00041617047C16070474FF480320A438261F4
:1006B0008161826182698269704702460020434BF2
:1006C00018684FF68073184040EA021008433F4B09
:1006D000186070473E49C8617047F0B50A4600236C
:1006E00000240021002500F00046B6F1004F02D1A1
:1006F000364EF16901E0354E7168C0F3034583B2AF
:1007000000F44016B6F5401F08D121F070612F4E5D
:10071000766826F070662D4F7E6012E000F4801639
:10072000B6F5801F06D1032606FA05F4A14341F071
:10073000706106E0460D360103FA06F6B14341F05A
:10074000706122B1460D360103FA06F6314300F01E
:100750000046B6F1004F02D11C4EF16101E01B4E84
:100760007160F0BD30B500228B071C0F0F2303FA18
:1007700004F2164B08338C1053F824309343134C77
:1007800008348D1044F8253023468C1053F824305B
:100790008C07240F00FA04F423430C4C08348D100A
:1007A00044F8253030BD0A49DC310860704700004C
:1007B00000080140000C01400010014000140140FD
:1007C00000180140001C01400020014000000140D1
:1007D00000002042DF48006840F00100DD49086069
:1007E00008464068DC490840DA4948600846006825
:1007F000DA490840D74908600846006820F480209C
:1008000008600846406820F4FE0048604FF41F006E
:1008100088607047CF49096821F48031CD4A116062
:100820001146096821F480211160B0F5803F03D0A2
:10083000B0F5802F0ED106E0C649096841F4803139
:10084000C44A116007E0C349096841F4A021C14AC4
:10085000116000E000BF00BF704710B501460022E4
:10086000002300204A11012A02D1BA4C236806E075
:10087000022A02D1B74C236A01E0B64C636A01F048
:100880001F02012494401C400CB1012000E0002014
:1008900010BD38B5002000900024002500BF312095
:1008A000FFF7DBFF05460098401C00900098B0F56C
:1008B000A06F01D0002DF2D03120FFF7CEFF08B19C
:1008C000012400E00024204638BD01460020A14A52
:1008D000106820F0F80040EAC10010607047A0499D
:1008E00008607047024600209A4B586820F47C103C
:1008F00042EA01031843974B5860704798490866CD
:10090000704701460020934A506820F003000843D6
:10091000506070478F48406800F00C0070470146F7
:1009200000208C4A506820F0F00008435060704767
:1009300001460020874A506820F4E0600843506078
:10094000704701460020834A506820F4605040EA16
:10095000C1005060704729B17E4A527A02437D4BF4
:100960005A7204E07B4A527A82437A4B5A72704739
:100970007B49D8310860704701460020754A5068AD
:1009800020F440400843506070470021714A2032F3
:100990001170704A82F82010012802D004280AD170
:1009A00004E001216B4A2032117005E00521694AFB
:1009B0002032117000E000BF00BF70476949086035
:1009C00070476449096A0143624A11627047654988
:1009D00044390860704730B500210022002400230C
:1009E0005C4D6D6805F00C0121B1042905D0082982
:1009F00023D105E05C4D056022E05C4D05601FE001
:100A0000544D6D6805F47012524D6D6805F48034D4
:100A1000022505EB92421CB9554D554305600BE08C
:100A20004C4D6D6805F400351DB14F4D55430560C3
:100A300002E04E4D5543056002E04B4D056000BF9E
:100A400000BF444D6D6805F0F0010909494D6B5C2C
:100A50000568DD4045603F4D6D6805F4E061090AB9
:100A6000444D6B5C4568DD4085603A4D6D6805F42A
:100A70006051C90A3F4D6B5C4568DD40C560354D2E
:100A80006D6805F44041890B3B4D6B5CC568B5FB57
:100A9000F3F5056130BD29B12E4A526902432D4B51
:100AA0005A6104E02B4A526982432A4B5A617047CB
:100AB00029B1284A92690243264B9A6104E0254AEB
:100AC00092698243234B9A61704729B1214AD269C6
:100AD0000243204BDA6104E01E4AD26982431D4B77
:100AE000DA61704729B11B4AD2680243194BDA60B8
:100AF00004E0184AD2688243164BDA60704729B185
:100B0000144A12690243134B1A6104E0114A126934
:100B10008243104B1A617047124940390860704790
:100B20000F49C86470470B49C87170470948406A4B
:100B300040F0807007494862704701460020054A2E
:100B400092680A400AB1012000E000207047014984
:100B500088727047001002400000FFF8FFFFF6FEA9
:100B6000000042428004424200127A000024F40055
:100B700000093D00340000204400002010B5044668
:100B8000FB48844209D101218803FFF7ABFF002114
:100B90004FF48040FFF7A6FF32E0F648844209D1C7
:100BA00001214804FFF7ABFF00214FF40030FFF7AD
:100BB000A6FF25E0F048844209D101218804FFF70F
:100BC0009EFF00214FF48020FFF799FF18E0EB48CB
:100BD000844209D10121C804FFF791FF00214FF49D
:100BE0000020FFF78CFF0BE0E548844208D101218B
:100BF0000805FFF784FF00214FF48010FFF77FFF07
:100C000010BD2DE9F04786B005460E460024A246E9
:100C100000BFA1460027B08900B100BF2F462C8A33
:100C20004CF6FF700440F08804432C82AC894EF6E9
:100C3000F3100440B08831890843718908430443A4
:100C4000AC81AC8A4FF6FF400440B0890443AC82CB
:100C500001A8FFF7C0FEC648874202D1DDF810A008
:100C600001E0DDF80CA0A88900F4004040B10AEBD7
:100C7000CA0000EB0A1031684900B0FBF1F807E048
:100C80000AEBCA0000EB0A1031688900B0FBF1F8EA
:100C90006420B8FBF0F004012009642101FB1089F5
:100CA000A88900F4004040B1322000EBC900B0FB3D
:100CB000F1F000F00700044308E0322000EB0910D7
:100CC0006421B0FBF1F000F00F0004432C8106B06A
:100CD000BDE8F0874FF41651016000218180C1808A
:100CE00001810C21418100218181704710B50246AC
:100CF0000020108A4FF2FF0318400B884C882343D2
:100D00008C882343CC8823431843108210BD0021D4
:100D1000018041808180C180704721B1828942F485
:100D20000052828104E082894DF6FF731A4082816D
:100D30007047F0B50346002400260025002040F649
:100D40006A17B94200D100BF1846C1F3421401F03E
:100D50001F06012707FA06F5012C01D10C3004E02B
:100D6000022C01D1103000E014301AB107682F4373
:100D7000076002E00768AF430760F0BD1AB1838ADD
:100D80000B43838202E0838A8B4383827047028A0B
:100D90004FF6F0731A400282028A0A4302827047B9
:100DA00082894FF2FF731A40828182890A438281CD
:100DB000704721B1828942F00202828104E0828977
:100DC0004FF6FD731A4082817047028A4FF6DF7337
:100DD0001A400282028A0A430282704721B1028AC3
:100DE00042F48042028204E0028A4BF6FF731A400A
:100DF00002827047C1F308028280704701468888EA
:100E0000C0F308007047818941F00101818170477A
:100E1000028BD2B20283028B42EA01220283704724
:100E2000028B02F47F420283028B0A4302837047E3
:100E300021B1828A42F02002828204E0828A4FF647
:100E4000DF731A408282704721B1828A42F0100219
:100E5000828204E0828A4FF6EF731A4082827047E2
:100E600021B1828A42F00802828204E0828A4FF62F
:100E7000F7731A408282704721B1828942F400429E
:100E8000828103E08289C2F30E028281704721B120
:100E9000828A42F40062828204E0828A4FF2FF7307
:100EA0001A4082827047828A4FF6FB731A40828210
:100EB000828A0A438282704721B1828A42F002020A
:100EC000828204E0828A4FF6FD731A408282704764
:100ED00002460020B1F5007F00D100BF13880B400F
:100EE0000BB1012000E00020704701F40072B2F560
:100EF000007F00D100BFCA430280704770B5024630
:100F0000002400230025002040F66A16B14200D1DB
:100F100000BFC1F3421501F01F03012606FA03F3D7
:100F2000012D02D19689334006E0022D02D1168AA6
:100F3000334001E0968A33400C12012606FA04F48D
:100F40001688344013B10CB1012000E0002070BDC0
:100F500010B50022002340F66A14A14200D100BF60
:100F60000A1201249440A3B2DC43048010BD0000A7
:100F7000003801400044004000480040004C004060
:100F80000050004010B50446F748844209D10121C1
:100F90004805FFF7B4FD00214FF40010FFF7AFFD47
:100FA00008E001218805FFF7AAFD00214FF4800029
:100FB000FFF7A5FD10BD2DE9F04385B004460D46B1
:100FC0000026B1460427DFF8A483A6884FF6C07038
:100FD00006406846FFF7FFFCDDF80880E448B8FBF0
:100FE000F0F01FFA80F946EA0906A68020884FF63D
:100FF000FE71084020800026DE49286888420CD80F
:1010000028684000B8FBF0F087B2042F00DA04270C
:101010003E4309F10100208427E0E8884BF6FF7188
:10102000884206D1286800EB4000B8FBF0F087B298
:1010300009E0286800EBC00101EB0010B8FBF0F0FC
:1010400087B247F48047C7F30B0008B947F00107A0
:1010500047F4004006434FF4967009FB00F04FF44C
:101060007A7190FBF1F0401C2084A683208840F028
:101070000100208026884FF6F5300640A88869894F
:10108000084306432680A88929890843208105B0A2
:10109000BDE8F08341F288310160002181804BF688
:1010A000FF71C1800021018141814FF48041818124
:1010B000704721B1028842F00102028004E00288F8
:1010C0004FF6FE731A400280704721B1828842F4C5
:1010D0000062828004E082884FF2FF731A408280AF
:1010E000704721B1828842F48052828004E0828875
:1010F0004EF6FF731A408280704721B1028842F495
:101100008072028004E002884FF6FF631A4002807A
:10111000704721B1028842F40072028004E0028824
:101120004FF6FF531A400280704721B1028842F403
:101130008062028004E002884FF6FF331A4002808A
:1011400070470A46002181894FF60173194002F069
:10115000FE0319438181704721B1828942F0010267
:10116000828104E082894FF6FE731A4082817047C3
:1011700021B1028842F04002028004E002884FF66A
:10118000BF731A40028070471AB183880B43838073
:1011900002E083888B438380704701827047014659
:1011A000088AC0B2704712B141F0010102E04FF667
:1011B000FE7319400182704708B502460020009076
:1011C00000920098084400900098008808BD21B162
:1011D000028842F40042028003E00288C2F30E0259
:1011E00002807047B1F5006F04D1028842F40062BA
:1011F000028004E002884FF2FF731A4002807047B9
:10120000B1F5005F04D1028842F40052028004E08C
:1012100002884DF6FF731A400280704721B10288A0
:1012200042F48052028004E002884EF6FF731A40B6
:1012300002807047B1F5006F04D1028842F4006269
:10124000028004E002884FF2FF731A400280704768
:1012500021B1028842F02002028004E002884FF6A9
:10126000DF731A40028070470146088B00127047F6
:1012700021B1028842F01002028004E002884FF699
:10128000EF731A400280704721B9028842F0800251
:10129000028004E002884FF67F731A400280704794
:1012A000B1F5804F05D0828B4BF6FF731A408283D5
:1012B00003E0828B42F480428283704770B502461D
:1012C0000024002500230020958A138B1B0445EA87
:1012D000030626F07F4404EA01068E4201D1012074
:1012E00000E0002070BD10B5014600200023002260
:1012F0008B8A0A8B120443EA020424F07F4010BD5B
:101300000CB50246002000230193009300920B0FBE
:10131000019321F07F41019B1BB1009B143300938B
:1013200003E0090C009B18330093009B1B680B40E3
:101330000BB1012000E000200CBD002221F07F4213
:10134000D3438382704730B502460020002394883F
:1013500001F0E06504EA154321F07F41948A0C40D6
:1013600054B14BB1012008E00054004000127A0053
:1013700040420F00A0860100002030BD002221F075
:101380007F42D3438382704710B50446FE488442AF
:1013900008D10121C014FFF7A5FB0021E014FFF7DD
:1013A000A1FBC4E0B4F1804F08D101210846FFF74A
:1013B000A6FB00210120FFF7A2FBB8E0F34884421E
:1013C00008D101210220FFF79AFB00210220FFF73C
:1013D00096FBACE0EE48844208D101210420FFF7DF
:1013E0008EFB00210420FFF78AFBA0E0E94884423D
:1013F00008D101210820FFF782FB00210820FFF718
:101400007EFB94E0E448844208D101211020FFF7DC
:1014100076FB00211020FFF772FB88E0DF48844252
:1014200008D101212020FFF76AFB00212020FFF7CF
:1014300066FB7CE0DA48844208D101214014FFF7C2
:1014400051FB00216014FFF74DFB70E0D54884424A
:1014500009D10121C804FFF745FB00214FF400200A
:10146000FFF740FB63E0D048844209D10121080521
:10147000FFF738FB00214FF48010FFF733FB56E0F5
:10148000CA48844209D101214805FFF72BFB0021FE
:101490004FF40010FFF726FB49E0C548844208D10D
:1014A00001214020FFF72BFB00214020FFF727FB05
:1014B0003DE0C048844208D101218020FFF71FFB96
:1014C00000218020FFF71BFB31E0BB48844208D19C
:1014D00001218015FFF713FB0021A015FFF70FFB7B
:1014E00025E0B648844209D101210804FFF7FAFA41
:1014F00000214FF48030FFF7F5FA18E0B04884423D
:1015000009D101214804FFF7EDFA00214FF4003022
:10151000FFF7E8FA0BE0AB48844208D101218804C8
:10152000FFF7E0FA00214FF48020FFF7DBFA10BD4F
:1015300000220288944B98420ED0994B98420BD0CF
:10154000B0F1804F08D0914B984205D0904B984213
:1015500002D0904B984204D14FF68F731A404B88BB
:101560001A438D4B984207D08C4B984204D04FF6CB
:10157000FF431A40CB881A4302808B8883850B88EF
:101580000385814B98420BD0854B984208D08B4BFA
:10159000984205D08A4B984202D08A4B984201D19A
:1015A0000B7A038601238382704770B500240022E2
:1015B0000023058C4FF6FE7635400584028C838827
:1015C000048B4FF68F752C40B51E2C400D882C4394
:1015D000751E2A400D892A434D882A436A4DA84228
:1015E0000BD06F4DA84208D0744DA84205D0744D61
:1015F000A84202D0734DA84213D14FF6F7752A4086
:101600004D892A434FF6FB752A408D882A434FF6B1
:10161000FF652B404FF6FF552B408D892B43CD891D
:101620002B4383800483CD888586028470BD70B58A
:10163000002400220023058C4FF6EF763540058408
:10164000028C8388048B48F6FF752C404FF6FF45CB
:101650002C400D884FF6FF7606EA05252C434FF601
:10166000DF752A400D8906EA05152A434D8806EAEA
:1016700005152A43444DA84202D0494DA8421DD128
:101680004FF67F752A404D894FF6FF7606EA05151D
:101690002A434FF6BF752A408D8806EA05152A436E
:1016A0004FF6FF352B404FF2FF752B408D8906EA30
:1016B00085052B43CD8906EA85052B43838004836A
:1016C000CD880587028470BD70B5002400220023F8
:1016D000058C4FF6FF6635400584028C8388848B29
:1016E0004FF68F752C404FF6FC752C400D882C431F
:1016F0004FF6FF552A400D894FF6FF7606EA05257D
:101700002A434D8806EA05252A431F4DA84202D0E8
:10171000234DA8421DD14FF2FF752A404D894FF647
:10172000FF7606EA05252A434FF6FF352A408D88C5
:1017300006EA05252A434EF6FF752B404DF6FF7548
:101740002B408D8906EA05152B43CD8906EA051540
:101750002B4383808483CD888587028470BD70B5D8
:10176000002200230024058C4EF6FF7635400584C8
:10177000038C8488828B48F6FF752A404FF6FF451C
:101780002A400D8820E00000002C014000040040A9
:1017900000080040000C0040001000400014004011
:1017A00000340140004C0140005001400054014011
:1017B00000180040001C0040002000400040014094
:1017C00000440140004801404FF6FF7606EA052537
:1017D0002A434DF6FF752B400D8906EA05352B434C
:1017E0004D8806EA05352B43FA4DA84202D0FA4D42
:1017F000A84208D14BF6FF752C408D894FF6FF7635
:1018000006EA85152C4384808283CD88A0F8405059
:10181000038470BD828B4FF2FF331A408283828B28
:101820004FF6FF7303EA01231A4382837047F0B532
:101830000C461546002200210026078C4EF6FF7C40
:1018400007EA0C070784828B018C4FF6FF7707EAC3
:10185000043640F6FF473A404FF6FF7707EA052780
:101860003A434FF6FF7707EA03373A43D94FB84276
:101870000ED0D94FB8420BD0B0F1804F08D0D74F1F
:10188000B84205D0D64FB84202D0D64FB84206D1A2
:101890004DF6FF77394046F48057394305E047F667
:1018A000FF57394044F48057394382830184F0BDA7
:1018B000828B4FF6F3731A408283828B0A438283B2
:1018C0007047F0B50C461546002200210026078C13
:1018D0004FF6FF6C07EA0C070784828B018C4FF6EA
:1018E000FF7707EA04264FF60C773A404FF6FF776A
:1018F00007EA03172F433A43B64FB8420ED0B64F0C
:10190000B8420BD0B0F1804F08D0B44FB84205D0E8
:10191000B34FB84202D0B34FB84206D14FF6FF578B
:10192000394046F48077394305E04FF2FF5739409C
:1019300044F48077394382830184F0BD028B4FF2F7
:10194000FF331A400283028B4FF6FF7303EA012331
:101950001A4302837047F0B50C4615460022002159
:101960000026078C4FF6EF7C07EA0C070784028BF2
:10197000018C4FF6FF7707EA041640F6FF473A401E
:101980004FF6FF7707EA03373A434FF6FF7707EA48
:1019900005273A438F4FB8420ED08F4FB8420BD035
:1019A000B0F1804F08D08D4FB84205D08C4FB8426F
:1019B00002D08C4FB84206D14FF6DF77394046F05F
:1019C0001007394305E04FF65F77394044F01007C0
:1019D000394302830184F0BD028B4FF6F3731A4042
:1019E0000283028B0A4302837047F0B50C4615460A
:1019F00000220021068C4FF6FE773E400684028BC3
:101A0000018C4FF60C7632407E1C06EA03162E43FC
:101A10003243704EB0420ED06F4EB0420BD0B0F198
:101A2000804F08D06D4EB04205D06D4EB04202D00E
:101A30006C4EB04206D14FF6FD76314044F00106BF
:101A4000314305E04FF6F576314044F0010631436D
:101A500002830184F0BD70B505460C465D488542A1
:101A60000ED05D4885420BD0B5F1804F08D05B4861
:101A7000854205D05A48854202D05A48854200D155
:101A800000E000BF208850B92389A28861882846D9
:101A9000FFF7ABFFE1882846FFF79EFF25E020888F
:101AA00004280AD12389A28861882846FFF753FFBA
:101AB000E1882846FFF742FF17E0208808280AD16E
:101AC0002389A28861882846FFF7FBFEE188284623
:101AD000FFF7EEFE09E02389A28861882846FFF718
:101AE000A6FEE1882846FFF795FE70BD2DE9F0417E
:101AF00005460C4600260127608808B9022600E04A
:101B00000026A088012801D1022700E001272088B3
:101B1000A0B92389A28861882846FFF766FFE1887B
:101B20002846FFF759FF23893A4631462846FFF7F2
:101B300012FFE1882846FFF701FF13E02389A288FE
:101B400061882846FFF707FFE1882846FFF7F6FE81
:101B500023893A4631462846FFF747FFE188284661
:101B6000FFF73AFFBDE8F0810A884B881A438B885B
:101B70001A43CB881A430B891A434B891A438B8922
:101B80001A43A0F8442070474FF6FF71818000216E
:101B90000180C18041800172704700210180418035
:101BA0008180C180018141818181C1817047002193
:101BB00001804180012181800021C1800181704725
:101BC0000021018041808180C1800181418181812A
:101BD00070470000002C0140003401400004004028
:101BE00000080040000C004021B1028842F00102D0
:101BF000028004E002884FF6FE731A4002807047AC
:101C000031B1B0F8442042F40042A0F8442005E08D
:101C1000B0F84420C2F30E02A0F8442070471AB175
:101C200083890B43838102E083898B4383817047DF
:101C30008182704741EA0203A0F8483070471AB128
:101C400083890B43838102E083898B4383817047BF
:101C500001894FF6F8721140018170470A46002150
:101C600001894FF68F73194011430181704730B5D8
:101C700004460D4629462046FFF7F0FF208940F034
:101C80000700208130BD2DE9F04104460D4616467F
:101C90001F46602D06D13B46012231462046FFF704
:101CA0005AFE05E03B46012231462046FFF79DFEE5
:101CB00029462046FFF7D2FF208940F00700208107
:101CC000BDE8F08130B50C4600210189C9B24FF65C
:101CD000FF7505EA0325154325432943018130BDDE
:101CE0002DE9F04105460E46174698460024434626
:101CF0003A4631462846FFF7E5FF2C894FF6F87043
:101D0000044044F007044FF68F70044044F0700420
:101D10002C81BDE8F081F0B504460D4616461F46FD
:101D20003B46324629462046FFF7CCFF208940F447
:101D300080402081F0BD0185828270470A460021E3
:101D400001884FF68F731940114301807047F0B539
:101D50000C4615461E460021002200230189028BF5
:101D6000038C4FF6F877394021434FF6FC473A4051
:101D700040F201173A434FF6DD773B404FF6FF77CD
:101D800007EA06172F433B43018102830384F0BD1A
:101D90000A460021018B4FF68F73194011430183CE
:101DA00070470A460021018B48F6FF7319404FF631
:101DB000FF7303EA02231943018370470A46002197
:101DC000818B4FF68F7319401143818370470A4608
:101DD0000021818B48F6FF7319404FF6FF7303EA29
:101DE000022319438183704721B1028842F08002A7
:101DF000028004E002884FF67F731A400280704729
:101E000021B1828842F00402828004E082884FF689
:101E1000FB731A408280704721B1828842F0080229
:101E2000828004E082884FF6F7731A408280704700
:101E300021B1828842F00102828004E082884FF65C
:101E4000FE731A40828070470A460021018B4FF6CC
:101E5000F77319401143018370470A460021018B33
:101E60004FF2FF7319404FF6FF7303EA0223194341
:101E7000018370470A460021818B4FF6F7731940A2
:101E80001143818370470A460021818B4FF2FF7313
:101E900019404FF6FF7303EA022319438183704709
:101EA0000A460021018B4FF6FB7319401143018351
:101EB00070470A460021018B4FF6FF3319404FF659
:101EC000FF7303EA02231943018370470A46002186
:101ED000818B4FF6FB7319401143818370470A468B
:101EE0000021818B4FF6FF3319404FF6FF7303EA51
:101EF00002231943818370470A460021018B4FF664
:101F00007F7319401143018370470A460021018BFA
:101F1000C1F30E014FF6FF7303EA02231943018355
:101F200070470A460021818B4FF67F731940114399
:101F3000818370470A460021818BC1F30E014FF661
:101F4000FF7303EA02231943818370470A46002185
:101F5000018C4FF6FD7319401143018470470A4606
:101F60000021018C4FF6F77319401143018470472B
:101F70000A460021018C4FF6DF7319404FF6FF73BC
:101F800003EA02131943018470470A460021018CB9
:101F90004FF67F7319404FF6FF7303EA021319439C
:101FA000018470470A460021018C4FF6FF53194007
:101FB0004FF6FF7303EA02231943018470470A4670
:101FC0000021018C4FF2FF7319404FF6FF7303EAB3
:101FD00002231943018470470A460021018C4DF603
:101FE000FF7319404FF6FF7303EA0233194301846C
:101FF000704730B5002301248C40A3B2048C9C436D
:102000000484048C02FA01F5ADB22C43048430BD83
:1020100030B5002304248C40A3B2048C9C43048478
:10202000048C02FA01F5ADB22C43048430BD70B5C6
:102030000346002000241846183001258D40ACB21C
:102040001D8CA5431D8409B1082909D100EB61004D
:10205000056825F0700505600568154305600EE00C
:102060000D1FC5F34E052844056825F4E0450560BD
:1020700005684FF6FF7606EA02263543056070BD17
:1020800021B1028842F00202028004E002884FF689
:10209000FD731A400280704721B1028842F00402A9
:1020A000028004E002884FF6FB731A4002807047FA
:1020B00021B1828842F08002828004E082884FF65B
:1020C0007F731A408280704702884FF6F7731A4078
:1020D000028002880A430280704782884FF68F731D
:1020E0001A40828082880A438280704702894FF6B4
:1020F000F8731A40028102890A43028170470289FB
:102100004FF67F731A40028102890A4302817047A9
:102110008184704781857047818670470187704749
:1021200081877047A0F84010704702884FF6FF4340
:102130001A40028002880A43028070470146888E56
:1021400070470146088F70470146888F70470146E7
:10215000B1F8400070470146888C70470146088DF1
:10216000704702460020138A0B400BB1012000E0AB
:1021700000207047CA430282704730B502460020F3
:1021800000230024158A05EA0103958905EA010464
:1021900013B10CB1012000E0002030BDCA4302821F
:1021A0007047000010B50446BE48844208D10121A2
:1021B0008014FEF797FC0021A014FEF793FC16E0B4
:1021C000B948844208D101210014FEF798FC00218F
:1021D0002014FEF794FC0AE0B448844207D10121A0
:1021E000C013FEF78CFC0021E013FEF788FC10BD45
:1021F00010B50022028802F441520B884C88234318
:102200008C882343CC8823430C8923434C89234364
:102210008C892343CC8923431A430280838B4FF25A
:10222000FF74234083830B8A038210BD2DE9F04F96
:1022300085B005460C464FF0000902274FF0000814
:102240004FF0010B0026B246A88B4FF24001084028
:10225000A88302202884B5F81C90A068022801D128
:1022600000BF38E0A08810B94FF0010B01E04FF03B
:10227000020B8D48854200D100E000BF6846FEF7A2
:10228000AAFBDDF800A0E088B0F5007F0AD14FEA94
:102290001A2000EB80004000A168B0FBF1F0401D67
:1022A00086B20BE04FEA4B10BAFBF0F000EB800077
:1022B0004000A168B0FBF1F0401D86B20A20B6FBD9
:1022C000F0F606F00108A6EB0800C0F34F074FF642
:1022D000FF7000EA0828022F01DBFF2F02DD022732
:1022E0004FF00008E08840EA080038432884A088BE
:1022F000A1890843618808432188084340F40060AD
:1023000040EA0909A5F81C9005B0BDE8F08F00214E
:10231000018041808180C180018141818181C181B1
:102320000721018270470021018041808180C180A6
:102330000221816000218181704721B1028842F031
:102340004002028004E002884FF6BF731A40028008
:10235000704721B1828B42F48062828304E0828BD9
:102360004FF6FF331A408283704730B500240023B4
:102370000C110125A540ABB21AB185881D4385809B
:1023800002E085889D43858030BD1AB183880B4368
:10239000838002E083888B4383807047818170470C
:1023A0000146888970474FF6FF62914204D0028847
:1023B00042F48072028004E002884FF6FF631A4004
:1023C0000280704721B1828842F00402828004E0DA
:1023D00082884FF6FB731A408280704702884FF262
:1023E000FF731A40028002880A4302807047018806
:1023F00041F480510180704721B1028842F40052BB
:10240000028004E002884DF6FF731A400280704794
:1024100002460020012901D0108B00E0908A70470D
:102420000146088A7047B1F5804F04D1028842F412
:102430008042028004E002884BF6FF731A4002805B
:1024400070470246002013890B400BB1012000E0C9
:1024500000207047CA4302817047F0B50246002051
:1024600000240023002501F00F070126BE40B4B26E
:102470000B1101269E40B3B2968806EA0305168921
:10248000264016B10DB1012000E00020F0BD10B5CE
:10249000002201F00F040123A3409AB2D343038129
:1024A00010BD00000030014000380040003C0040FA
:1024B00010B50446FA48844208D101214015FEF7C0
:1024C00011FB00216015FEF70DFB17E0F548844273
:1024D00008D101210015FEF705FB00212015FEF7AC
:1024E00001FB0BE0F048844208D10121C803FEF74C
:1024F000F9FA00214FF40040FEF7F4FA10BD30B5B0
:102500000246002000235068E84C20400D790C68FA
:1025100044EA0524204350609068E54C2040D1E90E
:1025200002542C434D7944EA450420439060D06A1C
:1025300020F470000C7C641EE4B2234340EA035094
:10254000D06230BD00210160017141718160C160C4
:1025500001210174704721B1826842F0010282605A
:1025600003E0826822F001028260704721B1826834
:1025700042F48072826003E0826822F4807282609A
:10258000704710B50023CBB21AB144681C434460B5
:1025900002E044689C43446010BD816841F008013A
:1025A00081607047014600208A6802F008020AB183
:1025B000012000E000207047816841F00401816043
:1025C0007047014600208A6802F004020AB1012027
:1025D00000E00020704721B1826842F4A0028260CE
:1025E00003E0826822F4A002826070470146002066
:1025F0008A6802F480020AB1012000E000207047DE
:1026000010B50A4600210023416821F46041531EA1
:1026100041EA4331416010BD21B1426842F4006299
:10262000426003E0426822F4006242607047F0B505
:1026300004460D4600200021092D11DDE068A5F1BA
:102640000A0606EB4607072606FA07F18843A5F1B6
:102650000A0606EB460603FA06F10843E0600CE0C2
:10266000206905EB4507072606FA07F1884305EBC5
:10267000450603FA06F108432061072A0FDA606B6A
:10268000561E06EB86071F2606FA07F18843561EDC
:1026900006EB860605FA06F10843606322E00D2A80
:1026A0000FDA206BD61F06EB86071F2606FA07F106
:1026B0008843D61F06EB860605FA06F10843206319
:1026C00010E0E06AA2F10D0606EB86071F2606FA67
:1026D00007F18843A2F10D0606EB860605FA06F11E
:1026E0000843E062F0BD21B1826842F4801282604A
:1026F00003E0826822F48012826070470146C86C51
:1027000080B2704766484C300068704721B142681B
:1027100042F48062426003E0426822F480624260D8
:10272000704721B1426842F48052426003E042683F
:1027300022F48052426070470A460021816821F4E9
:10274000E04111438160704721B1826842F4004248
:10275000826003E0826822F400428260704721B107
:10276000826842F40212826003E0826822F402125C
:1027700082607047014600208A6802F400120AB1A4
:10278000012000E000207047F0B504461546002007
:1027900000220026092911DDE068A1F10A0707EBF4
:1027A000470C072707FA0CF29043A1F10A0707EB41
:1027B000470703FA07F21043E0600CE0206901EBE1
:1027C000410C072707FA0CF2904301EB410703FA8B
:1027D00007F210432061A06BC0F30156EF1C06F115
:1027E000010CA7EB0C0707EB870C1F2707FA0CF26D
:1027F0009043EF1C06F1010CA7EB0C0707EB8707D2
:1028000001FA07F21043A063F0BD10B50A4600219B
:102810000023816B21F44011531E41EA035181636F
:1028200010BD08B5002300930090009B0B4400935B
:10283000009B1A6008BD08B5024600200090009277
:1028400001F12800009B184400900098006880B2B5
:1028500008BD0A4600214168164B194011434160EA
:1028600070474162826270470A460021416821F048
:102870001F0111434160704740B10949083109689F
:1028800041F40001064A0832116007E004490831AA
:10289000096821F40001024A083211607047000003
:1028A0000024014000280140003C0140FFFEF0FFF1
:1028B000FDF7F1FFFFFD3FFF0246002013680B40CC
:1028C0000BB1012000E000207047CA43026070474E
:1028D00070B502460020002300240B125568CEB2CA
:1028E00005EA060415681D4015B10CB1012000E091
:1028F000002070BD00220A12D3430360704700001D
:1029000001684FF6FE7211400160002101604160D4
:102910008160C1608D49884208D18C490839496875
:1029200041F00F01894A083A51608AE08749143121
:10293000884208D185490839496841F0F001834A45
:10294000083A51607DE081492831884208D17F49A9
:102950000839496841F470617C4A083A516070E076
:102960007A493C31884208D178490839496841F4AC
:102970007041764A083A516063E0744950318842A8
:1029800008D172490839496841F470216F4A083A00
:10299000516056E06D496431884208D16B4908396D
:1029A000496841F47001694A083A516049E0674951
:1029B0007831884208D165490839496841F0706129
:1029C000624A083A51603CE06149884206D1011FE1
:1029D000096841F00F01021F116032E05C491431B7
:1029E000884208D15A49091F096841F0F001584A44
:1029F000121F116025E056492831884208D15449F8
:102A0000091F096841F47061514A121F116018E0F2
:102A10004F493C31884208D14D49091F096841F4AA
:102A200070414B4A121F11600BE0494950318842F6
:102A300007D14749091F096841F47021444A121F10
:102A40001160704710B50022026847F6F0739A4390
:102A50000C6A8B6823430C6923434C6923438C69BC
:102A60002343CC6923434C6A23438C6A23431A4390
:102A70000260CB6843600B6883604B68C36010BD25
:102A80000021016041608160C1600161416181613B
:102A9000C161016241628162704721B1026842F006
:102AA0000102026004E002684FF6FE731A40026001
:102AB00070471AB103680B43036002E003688B435D
:102AC00003607047416070470146486880B27047B4
:102AD00001460020002201F080531BB11C4B083B33
:102AE0001A6802E0194B083B1A6802EA01030BB1AD
:102AF000012000E00020704700F0805119B1144916
:102B0000091F086002E01149083948607047014612
:102B10000020002201F080531BB10D4B083B1A68C6
:102B200002E00A4B083B1A6802EA01030BB10120DC
:102B300000E00020704700F0805119B10449091FDE
:102B4000086002E001490839486070470800024007
:102B5000080402400CB50020019000906C48006809
:102B600040F480306A49086000BF6948006800F49A
:102B7000003000900198401C0190009818B901980D
:102B8000B0F5A06FF1D16248006800F4003010B1D8
:102B90000120009001E0002000900098012843D11E
:102BA0005C48006840F010005A4908600846006818
:102BB00020F0030008600846006840F0020008604A
:102BC0005348406852494860084640684860084693
:102BD000406840F4806048600846406820F47C10FB
:102BE00048600846406840F4F810486008460068AD
:102BF00040F08070086000BF4548006800F0007039
:102C00000028F9D04248406820F00300404948605D
:102C10000846406840F00200486000BF3C484068F9
:102C200000F00C000828F9D10CBD10B5FFF792FF99
:102C300010BD10B53648006840F001003449086006
:102C400008464068344908403149486008460068F1
:102C5000324908402E4908600846006820F4802068
:102C600008600846406820F4FE0048604FF41F00EA
:102C70008860FFF7DAFF4FF000602949086010BD57
:102C800010B5002100200022214B5B6803F00C01ED
:102C900021B1042906D0082928D107E0214B224C74
:102CA000236027E0214B204C236023E0184B5B6816
:102CB00003F47010164B5B6803F48032022303EBBD
:102CC000904022B91A4B4343174C23600DE0104B40
:102CD0005B6803F4003323B1124B4343124C23606F
:102CE00003E0124B4343104C236003E00D4B0E4CAA
:102CF000236000BF00BF064B5B68C3F303130D4C9A
:102D0000E15C094B1B68CB40074C236010BD000001
:102D100000100240002002400000FFF8FFFFF6FE16
:102D200008ED00E000127A00480000200024F400C2
:102D300000093D004C0000204FF0E020006920F029
:102D400004004FF0E021086109202349087008467B
:102D5000007800EB4001C1EBC0104FF6FF7101EAB3
:102D6000C0001E490880704701461C4A12884A4329
:102D70004FF0E0235A6100229A6101221A6100BFDC
:102D80004FF0E022106900F001021AB100F4803225
:102D9000002AF5D000224FF0E0231A619A617047B3
:102DA00001460D4A12784A434FF0E0235A6100224F
:102DB0009A6101221A6100BF4FF0E022106900F011
:102DC00001021AB100F48032002AF5D000224FF03F
:102DD000E0231A619A6170475C0000205E000020C9
:102DE00010B5FDF7F7FC4FF48030FDF713FDFDF74C
:102DF00050FD012830D10020FDF791FD0020FDF7A6
:102E0000A0FD4FF48060FDF793FD1448006840F08A
:102E10001000124908600846006820F003000860AE
:102E20000846006840F0020008604FF4E0114FF4DB
:102E30004030FDF757FD0120FDF760FD00BF392050
:102E4000FDF70BFD0028FAD00220FDF75AFD00BF68
:102E5000FDF760FD0828FBD110BD000000200240F6
:102E6000002109E0002201E0531C9AB242F234131F
:102E70009A42F9DB4B1C99B28142F3DB704708B5EB
:102E800001210820FDF714FE01211020FDF710FE9E
:102E900001210846FDF70CFE01212A48FDF71DFC23
:102EA00001212948FDF719FC0820ADF80000032096
:102EB0008DF8020010208DF8030069462348FDF7C5
:102EC0003BFB4FF40050ADF8000003208DF80200EA
:102ED00010208DF8030069461D48FDF72DFB08BD45
:102EE00070B505460C460DE008211848FDF7D3FBE8
:102EF000A0B2FFF7B5FF08211448FDF7CAFBA0B246
:102F0000FFF7AEFF2800A5F10101CDB2ECD170BDF5
:102F100070B505460C460FE04FF400510C48FDF724
:102F2000B8FBA0B2FFF79CFF4FF400510848FDF733
:102F3000B2FBA0B2FFF794FF2800A5F10101CDB2CA
:102F4000EAD170BD0004300000023000000C0140E6
:102F50000010014008B54FF4A060FDF71FFA1D20D6
:102F60008DF8000000208DF8010001208DF802008E
:102F70008DF803006846FDF716FA25208DF800004D
:102F800003208DF8010001208DF802008DF8030068
:102F90006846FDF708FA08BD10B586B00446012161
:102FA00044F20400FDF784FD4FF40070ADF8140006
:102FB00018208DF8170003208DF8160005A9344855
:102FC000FDF7BAFA4FF48060ADF8140004208DF8D4
:102FD000170005A92E48FDF7AFFA01940020ADF8BF
:102FE0000800ADF80A00ADF80C00ADF810000C2098
:102FF000ADF80E0001A92748FDF703FE012240F2BB
:1030000025512448FDF795FE01212248FDF785FE54
:1030100006B010BD70B504460D46E1B21D48FDF77F
:10302000E9FE00BF40211B48FDF752FF0028F9D000
:10303000204670BD10B5044600BF20211548FDF79D
:1030400047FF0028F9D01348FDF7D8FE10BD10B592
:1030500040F225510F48FDF751FF90B10D48FDF7A3
:10306000CDFE0D490D4A126888540C480068401C7A
:103070000A490860084600681F2802D10120084953
:10308000086040F225510348FDF762FF10BD0000C3
:103090000008014000380140840100206000002049
:1030A00064000020002109E0002201E0531C9AB2D4
:1030B00042F234139A42F9DB4B1C99B28142F3DBA2
:1030C00070472DE9F047FE48407AFD49097A40EA09
:1030D0000120FC490988401A00B2FB490880F848E1
:1030E000C07AF749897A40EA0120F8490988401AEC
:1030F00000B2F7490880F248407BF149097B40EA79
:103100000120F4490988401A00B2F3490880EC48CC
:103110004078EB49097840EA012000B2EF49088085
:10312000E748C078E649897840EA012000B2EC49D6
:103130000880E3484079E249097940EA012000B279
:10314000E8490880E5480088E7490988401A00B244
:10315000E6490880E2480088E5490988401A00B23B
:10316000E4490880DF480088E3490988401A00B232
:10317000E2490880D9480088E1490988401A00B22C
:10318000E0490880D6480088DF490988401A00B223
:10319000DE490880D3480088DD490988401A00B21A
:1031A000DC4908800846B0F9000003F031FE07460C
:1031B000D9480168384603F077FE0546D348B0F990
:1031C000000003F025FE8146D4480168484603F01C
:1031D0006BFE0746CB48B0F9000003F019FE8146AC
:1031E000CF480168484603F05FFE8046394603F049
:1031F00065FD0646294603F061FD044603F0CCFD5B
:1032000000B2C8490880C348B0F9000003F000FECE
:103210000746C5480168384603F046FE0546BB48E8
:10322000B0F9000003F0F4FD8146C048016848464B
:1032300003F03AFE0746B348B0F9000003F0E8FD9A
:103240008146BB480168484603F02EFE8046394659
:1032500003F034FD0646294603F030FD044603F032
:103260009BFD00B2B3490880AA48B0F9000003F002
:10327000CFFD0746B0480168384603F015FE054605
:10328000A248B0F9000003F0C3FD8146AB480168D5
:10329000484603F009FE07469A48B0F9000003F0DB
:1032A000B7FD8146A6480168484603F0FDFD80460B
:1032B000394603F003FD0646294603F0FFFC0446A9
:1032C00003F06AFD00B29F4908808848B0F9000009
:1032D000B0F5004F02DB47F6FF7002E08348B0F91B
:1032E0000000824908800846B0F9000010F5004F40
:1032F00001DA954802E07D48B0F900007B4908807A
:103300007C48B0F90000B0F5004F02DB47F6FF70D3
:1033100002E07848B0F90000764908800846B0F924
:10332000000010F5004F01DA874802E07148B0F95B
:103330000000704908807148B0F90000B0F5004FF6
:1033400002DB47F6FF7002E06C48B0F900006B4901
:1033500008800846B0F9000010F5004F01DA7A48FD
:1033600002E06648B0F90000644908805648B0F9A8
:103370000000B0F5004F02DB47F6FF7002E0524854
:10338000B0F90000504908800846B0F9000010F577
:10339000004F01DA6C4802E04B48B0F900004A499E
:1033A00008804B48B0F90000B0F5004F02DB47F64B
:1033B000FF7002E04648B0F9000045490880084621
:1033C000B0F9000010F5004F01DA5F4802E0404814
:1033D000B0F900003E4908803F48B0F90000B0F560
:1033E000004F02DB47F6FF7002E03B48B0F90000F7
:1033F000394908800846B0F9000010F5004F01DA9D
:10340000514802E03448B0F9000033490880374899
:10341000B0F900004D4908803648B0F900004880F6
:103420003648B0F90000888049480068002845D136
:103430004848007888B9002022490880234908803C
:1034400024490880444908604449086044490860A8
:10345000012040490870BDE8F0873F4800681A49DC
:10346000B1F9001008443C4908603C48006818491C
:10347000B1F9001008443949086039480068164914
:10348000B1F9001008443649086032480078C8286D
:1034900076D1314800682F49097890FBF1F000B2ED
:1034A000084908802D4800682A49097890FBF1F006
:1034B00000B2064908802A48006853E065E05FE0F2
:1034C000A401002074000020680000207600002085
:1034D0006A000020780000206C0000208600002098
:1034E000880000208A0000207A0000206E00002062
:1034F0007C000020700000207E0000207200002070
:10350000800000208C000020820000208E0000201F
:103510008400002090000020AC000020A0000020CB
:1035200094000020B8000020B0000020A40000207B
:1035300098000020BA000020B4000020A80000205D
:103540009C000020BC0000200080FFFF1C00002029
:10355000C4000020DC000020D0000020D4000020A7
:10356000D8000020DA49097890FBF1F000B2D9497F
:1035700008800020D64908700120D74908606AE712
:10358000D3480078401CD2490870D448006800280D
:1035900058D1D348007880B90020D2490880D24958
:1035A0000880D2490880D2490860D2490860D249CF
:1035B00008600120CA4908704DE7CD480068CF492E
:1035C000B1F900100844CA490860CA480068CC49EB
:1035D000B1F900100844C7490860C7480068C949E4
:1035E000B1F900100844C4490860BD480078C828F3
:1035F00023D1BF480068BA49097890FBF1F000B2C6
:10360000B8490880BB480068B549097890FBF1F0DB
:1036100000B2B5490880B8480068B149097890FB04
:10362000F1F0A0F5005000B2B04908800020AC498C
:1036300008700120A94908600DE7A9480078401CDE
:10364000A749087000BF06E72DE9FF4F81B00E467D
:1036500017461D464FF00008C146C246019803F0C8
:10366000D7FBA949A94A127841F82200304603F055
:10367000CFFBA749A54A127841F82200384603F04B
:10368000C7FBA449A14A127841F8220000242BE08C
:10369000404603F0BDFB00909B4850F82410009872
:1036A00003F00CFB834603F077FB8046484603F0AB
:1036B000AFFB0090964850F82410009803F0FEFAF3
:1036C000834603F069FB8146504603F0A1FB00905E
:1036D000904850F82410009803F0F0FA834603F065
:1036E0005BFB8246601CC4B2142CD1DB142098FB17
:1036F000F0F000B22880142099FBF0F000B268804E
:1037000014209AFBF0F000B2A88080480078401C9A
:103710007E49087008460078142801D100200870FE
:1037200005B0BDE8F08F10B57B4B0E223B21D020B9
:1037300002F006FC10BDF8B506460F4614461D46BD
:103740006B4601223946304602F039FC2DB101208A
:10375000A0409DF80010084305E00120A0409DF81E
:10376000001021EA0000C0B200906B4601223946E9
:10377000304602F0A5FCF8BD2DE9F843074688461F
:1037800014461D46089E6B4601224146384602F00B
:1037900016FC601CFF2101FA00F0C4F10801294465
:1037A000491EFF220A41104300F0FF09C5F108003D
:1037B00006FA00F0C6B2C4F1070006419DF8000009
:1037C00000EA090000909DF80000304300906B462D
:1037D00001224146384602F073FCBDE8F88338B553
:1037E0000446032302226B21D0200094FFF7C4FF7C
:1037F00038BD38B50446022304221B21D020009492
:10380000FFF7BAFF38BD38B50446022304221C2155
:10381000D0200094FFF7B0FF38BD10B50446234612
:1038200006226B21D020FFF786FF10BD10B504469D
:10383000234605226A21D020FFF77DFF10BD10B579
:103840000446234601223721D020FFF774FF10BD24
:1038500038B50446032302221A21D0200094FFF732
:103860008BFF38BD38B50446082307221921D02024
:103870000094FFF781FF38BD10B50020FFF7CDFFA2
:10388000C820FFF70FFC0120FFF7A9FF3220FFF748
:1038900009FC0320FFF7ADFF3220FFF703FC0120F6
:1038A000FFF7B1FF3220FFF7FDFB0620FFF7D0FF47
:1038B0003220FFF7F7FB0020FFF7B8FF3220FFF7B9
:1038C000F1FB0120FFF7BBFF3220FFF7EBFB10BD40
:1038D000DC00002078000020C4000020C800002088
:1038E000EC0000207A0000207C0000207E000020F8
:1038F000E0000020E4000020E80000206E0000202E
:103900007000002072000020C0010020ED000020A7
:103910001002002060020020A40100203EB50546F0
:103920000C4601210846FDF7D0F8ADF80450ADF87B
:1039300000400020ADF80600ADF8020069464FF0E7
:103940008040FDF7F5FD01218807FEF74DF93EBDEA
:1039500008B501210420FDF7ABF80120ADF8000007
:1039600018208DF8030003208DF802006946624894
:10397000FCF7E2FD08BD1FB56020ADF80000012096
:10398000ADF802000020ADF8080069464FF0804015
:10399000FDF70BFE0821C806FEF756FA012188073D
:1039A000FEF722F91FBD08B501210420FDF780F8BC
:1039B0000220ADF8000018208DF8030003208DF8D8
:1039C000020069464C48FCF7B7FD08BD1FB56020F2
:1039D000ADF800000120ADF802000020ADF80800AD
:1039E00069464FF08040FDF722FE0821C806FEF729
:1039F00034FA01218807FEF7F7F81FBD08B5012149
:103A00000420FDF755F80420ADF8000018208DF8CB
:103A1000030003208DF8020069463748FCF78CFD4F
:103A200008BD1FB56020ADF800000120ADF8020010
:103A30000020ADF8080069464FF08040FDF744FED5
:103A40000821C806FEF716FA01218807FEF7CCF810
:103A50001FBD08B501210420FDF72AF80820ADF8A4
:103A6000000018208DF8030003208DF8020069463D
:103A70002148FCF761FD08BD1FB56020ADF80000CE
:103A80000120ADF802000020ADF8080069464FF0B3
:103A90008040FDF764FE0821C806FEF7F4F9012115
:103AA0008807FEF7A1F81FBD10B5FFF7A7FFFFF7C6
:103AB0004FFFFFF778FFFFF7CCFF10BD10B5FFF702
:103AC000B0FFFFF758FFFFF781FFFFF7D5FF002199
:103AD0004FF08040FEF720FB00214FF08040FEF7C2
:103AE0001DFB00214FF08040FEF71AFB00214FF034
:103AF0008040FEF717FB10BD0008014000B587B0FD
:103B000001210C20FCF7D4FF1020ADF81800032091
:103B10008DF81A0010208DF81B0006A9F148FCF75B
:103B20000BFD0420ADF8180006A9EF48FCF704FDD2
:103B30000120ADF8180028208DF81B0006A9EA48DE
:103B4000FCF7FAFC0521E848FCF7A5FD1021E54843
:103B5000FCF7A1FD00F003FA0021E448FEF7EDFBBD
:103B60000020ADF804004FF48270ADF8060000208C
:103B7000ADF80800ADF80A00ADF80C004FF4007085
:103B8000ADF80E001820ADF810000020ADF81200BE
:103B90000720ADF8140001A9D448FEF729FB012144
:103BA000D248FEF7CAFB0020D14908600120D14964
:103BB000C1F8900107B000BD2DE9F04107460D4660
:103BC00016460020CC490860384600F0A1F980462E
:103BD000002405E0FF2000F09BF92855601CC4B2CA
:103BE000B442F7DB0120C44908604046BDE8F081DB
:103BF0002DE9F04107460C4615460020BE490860F5
:103C0000384600F085F98046002605E014F8010BDF
:103C100000F07EF9701CC6B2AE42F7DB0120B64957
:103C200008604046BDE8F0811CB5B4A103C9CDE9E8
:103C30000001082000F0D7F9052269463020FFF77F
:103C4000D7FF052269461020FFF7B6FF002406E0E3
:103C50001DF80400A52800D003E0601CC4B2052CA8
:103C6000F6DB00BF052C01D001201CBD0020FCE7C5
:103C700070B505460C4600209F490860284600F0B4
:103C800047F90646204600F043F901209949C1F85A
:103C90009001304670BD70B504460020964908601A
:103CA000204600F035F9FF2000F032F905460120EA
:103CB0009049C1F89001284670BD70B505460E4682
:103CC000102000F090F9002089490860324629460A
:103CD000A020FFF78DFF01208A49C1F88801072045
:103CE000FFF7D9FF044621462720FFF7C1FF04F064
:103CF000100028B1FF21E120FFF7BAFF102070BDAE
:103D000004F0200008B12020F9E7FF20F7E770B5A4
:103D10000446102000F067F90720FFF7BCFF0546B6
:103D200029462720FFF7A4FF05F0400050B12022CC
:103D300021466120FFF740FFFF21E220FFF798FFB7
:103D4000002070BD0120FCE710B500206849086024
:103D500005226D492A20FFF74BFF01212120FFF7A3
:103D600087FF01212220FFF783FF28212520FFF76D
:103D70007FFF20213120FFF77BFF0F212620FFF757
:103D800077FF0F212020FFF773FF01205D49C1F865
:103D9000880110BD10B500205549086005225B4917
:103DA0003020FFF725FF052257492A20FFF720FF83
:103DB00001212120FFF75CFF01212220FFF758FF9E
:103DC0001A212420FFF754FF28212520FFF750FF58
:103DD0000F212620FFF74CFF0E212020FFF748FF80
:103DE00001204849C1F8880110BD10B504460020E3
:103DF0003F490860052244492A20FFF7F9FE0121C6
:103E00002120FFF735FF01212220FFF731FF282174
:103E10002520FFF72DFF0F212620FFF729FF012C7A
:103E200007D120213120FFF723FF0F212020FFF7AA
:103E30001FFF022C0CD1052234493020FFF7D8FE99
:103E40001A212420FFF714FF0E212020FFF710FF76
:103E5000032C1DD120213120FFF70AFFFF21E12093
:103E6000FFF706FFFF21E220FFF702FF0F212020CE
:103E7000FFF7FEFE502000F04BF8732000F048F8EA
:103E800001213C20FFF7F4FE07213D20FFF7F0FE63
:103E9000042C22D105221D493020FFF7A9FE1A214A
:103EA0002420FFF7E5FE0E212020FFF7E1FEFF2191
:103EB000E120FFF7DDFEFF21E220FFF7D9FE5020D1
:103EC00000F026F8732000F023F801213C20FFF7D2
:103ED000CFFE07213D20FFF7CBFE012004490860FB
:103EE00010BD000000080140000C014000300140FE
:103EF000888121420000214290012142A5A5A5A56B
:103F0000A500000000802142A7710008A2710008EE
:103F100070B50546002405E0601CC4B2C82C01DD64
:103F2000002070BD02213948FEF78BFA0028F3D03B
:103F300029463648FEF732FA002405E0601CC4B278
:103F4000C82C01DD0020ECE701213048FEF779FAAA
:103F50000028F3D02D48FEF723FAC0B2E1E700B500
:103F600087B001210420FCF7A3FD01210803FCF721
:103F70009FFDE020ADF8180018208DF81B000320ED
:103F80008DF81A0006A92248FCF7D6FAE02120484D
:103F9000FCF77FFB0020ADF804004FF48270ADF811
:103FA00006000020ADF808000220ADF80A0001204C
:103FB000ADF80C004002ADF80E003820ADF810004E
:103FC0000020ADF812000720ADF8140001A90F4839
:103FD000FEF70EF901210D48FEF7AFF9FF20FFF7BC
:103FE00097FF07B000BD10B50446084800884FF69B
:103FF000C7710840054908800846008820430880AA
:1040000001210248FEF799F910BD0000003001407F
:104010000008014010B50024FE48FFF778FE18B9EB
:10402000FD49FC4801F070FD10BD10B51020FFF7F0
:10403000DAFF1720FFF72FFE10BD2DE9F0410446EF
:104040000025E1B2F548FFF738FE074611E02846A3
:10405000691CCDB2F1490E5C3146F148FCF7CAFE4D
:1040600000BF00BF4021EE48FCF732FF0028F9D026
:1040700000BFA542EBDBBDE8F081EA490A78097888
:10408000491CE84B1970E5498854704711B5002068
:104090009DF80320E3490B780978491CE14C217015
:1040A000DE49CA549DF8022021460B780978491C44
:1040B0002170DA49CA549DF8012021460B7809780D
:1040C000491C2170D549CA549DF8002021460B781F
:1040D0000978491C2170D149CA549DF80310014444
:1040E000C8B29DF802100144C8B29DF80110014405
:1040F000C8B29DF800100144C8B218BD2DE9F041C6
:1041000080460D4616461F4600240020C54908700B
:10411000AA20FFF7B2FF2044C4B2AA20FFF7ADFFE8
:104120002044C4B24046FFF7A8FF2044C4B20C208C
:10413000FFF7A3FF2044C4B22846FFF7A7FF20449F
:10414000C4B23046FFF7A2FF2044C4B23846FFF79E
:104150009DFF2044C4B22046FFF78FFFBDE8F081E9
:1041600011B500209DF80120AE490B780978491C53
:10417000AC4C2170A949CA549DF8003021460A78F8
:104180000978491C2170A5498B549DF80110014400
:10419000C8B29DF800100144C8B218BD2DE9FC5FFB
:1041A00083464FF0000AA0490988480002F0D3FB7B
:1041B00006464FF066329D4B02F020FC044600227A
:1041C0009B4B02F043FA804602F002FA01909949B3
:1041D000019802F069FE044602F0DEFD00B2009094
:1041E000002090490870AA20FFF747FF504400F0D4
:1041F000FF0AAA20FFF741FF504400F0FF0A032006
:10420000FFF73BFF504400F0FF0A1420FFF735FF93
:10421000504400F0FF0ABBF8001008B2FFF7A0FFFF
:10422000504400F0FF0ABBF8081008B2FFF798FFEF
:10423000504400F0FF0ABBF8041008B2FFF790FFEB
:10424000504400F0FF0ABBF8061008B2FFF788FFE1
:10425000504400F0FF0ABBF80C1008B2FFF780FFD3
:10426000504400F0FF0ABBF80E1008B2FFF778FFC9
:10427000504400F0FF0ABBF8101008B2FFF770FFBF
:10428000504400F0FF0A0098FFF76AFF504400F026
:10429000FF0A0020FFF764FF504400F0FF0A0020EF
:1042A000FFF75EFF504400F0FF0A5046FFF7E5FEBF
:1042B000BDE8FC9F11B500209DF8032059490B78FB
:1042C0000978491C574C21705449CA549DF8022062
:1042D00021460B780978491C21705049CA549DF831
:1042E000012021460B780978491C21704B49CA549A
:1042F0009DF8002021460B780978491C2170474918
:10430000CA549DF801100144C8B29DF80010014440
:10431000C8B29DF802100144C8B29DF803100144D0
:10432000C8B218BD2DE9F04780460D4616461F4617
:10433000DDE9089A002400203A490870AA20FFF716
:104340009CFE2044C4B2AA20FFF797FE2044C4B2CA
:104350000120FFF792FE2044C4B20D20FFF78DFE2E
:104360002044C4B24046FFF7FBFE2044C4B22846B6
:10437000FFF7F6FE2044C4B23046FFF7F1FE2044BA
:10438000C4B23846FFF7ECFE2044C4B24846FFF7FB
:1043900091FF2044C4B2BAF1000F05D0A020FFF76E
:1043A0006CFE2044C4B204E0A120FFF766FE204466
:1043B000C4B22046FFF761FEBDE8F0872DE9F04F5B
:1043C00080460D4616461F46DDE90AABDDF824900F
:1043D0000024002013490870AA20FFF74EFE204455
:1043E000C4B2AA20FFF749FE2044C4B20220FFF75E
:1043F00044FE2044C4B21220FFF73FFE2044C4B262
:104400004046FFF7ADFE2044C4B22846FFF7A8FEA1
:10441000204411E0E4020020D0020020B00200207D
:1044200000380140F40000204A01002066660A407E
:104430000000B0400000C842C4B23046FFF790FE12
:104440002044C4B23846FFF78BFE2044C4B248462D
:10445000FFF786FE2044C4B25046FFF781FE204499
:10446000C4B25846FFF77CFE2044C4B20C98FFF754
:1044700077FE2044C4B20D98FFF772FE2044C4B208
:104480002046FFF7FAFDBDE8F08F2DE9F04186B038
:104490001027FFF7BFFDFE48007800B30020FC495D
:1044A00008700021FB4BB3F90030CDE901310391D5
:1044B000F9480491B0F900000090F848B0F90030D4
:1044C000F748B0F90020F748B0F90010F648B0F905
:1044D0000000FFF773FF1720FFF7AFFD3CE0F34844
:1044E000007858B30020F1490870F1498868F14913
:1044F00002F0DAFC804602F04FFC04B2EC49486856
:10450000EC4902F0D1FC804602F046FC05B2E849D5
:104510000868E84902F0C8FC804602F03DFC06B29B
:10452000012000210B462246CDE9001029463046E5
:10453000FFF7F8FE1220FFF780FD0DE0DE4800785F
:1045400048B10020DC490870DC48FFF727FE19203D
:10455000FFF773FD00E000BFD948007860B100208C
:10456000D7490870D748426800230168F120FFF757
:10457000C5FD1120FFF761FD06B0BDE8F08111B562
:1045800000209DF80120D0490B780978491CCE4CB9
:104590002170CE49CA549DF8003021460A78097826
:1045A000491C2170C9498B549DF801100144C8B2BF
:1045B0009DF800100144C8B218BD30B5054600246E
:1045C0000020C14908708820FFF757FD2044C4B27D
:1045D000A120FFF752FD2044C4B20220FFF74DFD99
:1045E0002044C4B22846FFF7CAFF2044C4B2204684
:1045F000FFF743FD30BD30B5054600240020B24929
:1046000008708820FFF739FD2044C4B2A120FFF7CD
:1046100034FD2044C4B20220FFF72FFD2044C4B271
:104620002846FFF79DFD2044C4B22046FFF725FD34
:1046300030BDF0B507460D46164600240020A249BD
:1046400008708820FFF719FD2044C4B2A120FFF7AD
:1046500014FD2044C4B20620FFF70FFD2044C4B26D
:104660003846FFF77DFD2044C4B22846FFF778FDA9
:104670002044C4B23046FFF773FD2044C4B2204644
:10468000FFF7FBFCF0BD2DE9F04180460D461646D4
:104690001F46002400208C4908708820FFF7EDFC9D
:1046A0002044C4B2A220FFF7E8FC2044C4B2082092
:1046B000FFF7E3FC2044C4B24046FFF751FD20441D
:1046C000C4B22846FFF74CFD2044C4B23046FFF781
:1046D00047FD2044C4B23846FFF742FD2044C4B22F
:1046E0002046FFF7CAFCBDE8F0812DE9F041804685
:1046F0000D4616461F460024002073490870882086
:10470000FFF7BBFC2044C4B24046FFF7B6FC204490
:10471000C4B20C20FFF7B1FC2044C4B22846FFF716
:10472000B5FC2044C4B23046FFF7B0FC2044C4B20C
:104730003846FFF7ABFC2044C4B22046FFF79DFC8F
:10474000BDE8F0812DE9F04F80460D4616461F4624
:10475000DDE90AABDDF82490002400205A490870F6
:10476000AA20FFF78AFC2044C4B2AA20FFF785FCE8
:104770002044C4B24046FFF780FC2044C4B2182055
:10478000FFF77BFC2044C4B22846FFF77FFC20449F
:10479000C4B23046FFF77AFC2044C4B23846FFF773
:1047A00075FC2044C4B24846FFF770FC2044C4B2F4
:1047B0005046FFF76BFC2044C4B25846FFF766FC36
:1047C0002044C4B22046FFF758FCBDE8F08F30B556
:1047D0000546002400203C4908708820FFF74DFC66
:1047E0002044C4B2A120FFF748FC2044C4B20120F9
:1047F000FFF743FC2044C4B22846FFF73EFC2044A8
:10480000C4B22046FFF739FC30BD1FB5002400209C
:104810002D4908708820FFF730FC2044C4B2AF2037
:10482000FFF72BFC2044C4B21C20FFF726FC2044D9
:10483000C4B29DF80100FFF720FC2044C4B29DF8EB
:104840000000FFF71AFC2044C4B29DF80500FFF7F2
:1048500014FC2044C4B29DF80400FFF70EFC204471
:10486000C4B29DF80900FFF708FC2044C4B29DF8CB
:104870000800FFF702FC2044C4B29DF80D00FFF7CA
:10488000FCFB2044C4B29DF80C00FFF7F6FB1FE0D0
:10489000060000206C0000206A0000206800002054
:1048A00072000020700000206E0000200700002031
:1048B0006C0100200000C84209000020D002002046
:1048C0000A00002078010020F4000020B00200203F
:1048D0002044C4B29DF81900FFF7CFFB2044C4B2B6
:1048E0009DF81800FFF7C9FB2044C4B29DF81D00D5
:1048F000FFF7C3FB2044C4B29DF81C00FFF7BDFBCB
:104900002044C4B20020FFF7B8FB0020FFF7B5FB3E
:104910000020FFF7B2FB0020FFF7AFFB0020FFF7FE
:10492000ACFB0020FFF7A9FB9DF82100FFF7A5FBDA
:104930002044C4B29DF82000FFF79FFB2044C4B27E
:104940009DF82500FFF799FB2044C4B29DF8240090
:10495000FFF793FB2044C4B29DF82900FFF78DFBBD
:104960002044C4B29DF82800FFF787FB2044C4B25E
:104970000020FFF782FB0020FFF77FFB0020FFF7FE
:104980007CFB0020FFF779FB2046FFF776FB1FBD7D
:104990002DE9FF4F85B081460024FE490988480073
:1049A00001F0D9FF07464FF06632FB4B02F026F8C4
:1049B00005460022F94B01F049FE824601F008FE4F
:1049C0000490F749049802F06FFA054602F000FAE5
:1049D00080B20390D9F8000002F01AFA8346F04939
:1049E000049802F061FA5946019002F05DFA82469D
:1049F00002F038F907460022EA4B01F027FE05468F
:104A000001F07CFF80B202900020E7490870882006
:104A1000FFF733FB2044C4B2AE20FFF72EFB204447
:104A2000C4B21C20FFF729FB2044C4B299F801004E
:104A3000FFF723FB2044C4B299F80000FFF71DFBE9
:104A40002044C4B299F80900FFF717FB2044C4B210
:104A500099F80800FFF711FB2044C4B299F805004B
:104A6000FFF70BFB2044C4B299F80400FFF705FBE5
:104A70002044C4B299F80700FFF7FFFA2044C4B2FB
:104A800099F80600FFF7F9FA2044C4B299F80D002E
:104A9000FFF7F3FA2044C4B299F80C00FFF7EDFADF
:104AA0002044C4B299F80F00FFF7E7FA2044C4B2DB
:104AB00099F80E00FFF7E1FA2044C4B299F811000A
:104AC000FFF7DBFA2044C4B299F81000FFF7D5FADB
:104AD0002044C4B29DF80D00FFF7CFFA2044C4B2C1
:104AE0009DF80C00FFF7C9FA2044C4B20020FFF77C
:104AF000C4FA0020FFF7C1FA9DF81900FFF7BDFACC
:104B00002044C4B29DF81800FFF7B7FA2044C4B29D
:104B10009DF81D00FFF7B1FA2044C4B29DF81C00B7
:104B2000FFF7ABFA2044C4B29DF82100FFF7A5FAC5
:104B30002044C4B29DF82000FFF79FFA2044C4B27D
:104B40009DF84900FFF799FA2044C4B29DF8480047
:104B5000FFF793FA2044C4B29DF80900FFF78DFADD
:104B60002044C4B29DF80800FFF787FA2044C4B27D
:104B70002046FFF782FA09B0BDE8F08F1FB5002488
:104B80000020894908708820FFF777FA2044C4B2D2
:104B9000AC20FFF772FA2044C4B21C20FFF76DFA74
:104BA0002044C4B2AD20FFF768FA2044C4B29DF897
:104BB0000100FFF762FA2044C4B29DF80000FFF73D
:104BC0005CFA2044C4B29DF80500FFF756FA204471
:104BD000C4B29DF80400FFF750FA2044C4B29DF817
:104BE0000900FFF74AFA2044C4B29DF80800FFF715
:104BF00044FA2044C4B29DF80D00FFF73EFA204469
:104C0000C4B29DF80C00FFF738FA2044C4B29DF8F6
:104C10001900FFF732FA2044C4B29DF81800FFF7DC
:104C20002CFA2044C4B29DF81D00FFF726FA204458
:104C3000C4B29DF81C00FFF720FA2044C4B2002043
:104C4000FFF71BFA0020FFF718FA0020FFF715FA0C
:104C50000020FFF712FA0020FFF70FFA0020FFF7FD
:104C60000CFA0020FFF709FA0020FFF706FA0020EF
:104C7000FFF703FA0020FFF700FA0020FFF7FDF925
:104C80000020FFF7FAF90020FFF7F7F90020FFF7FF
:104C9000F4F90020FFF7F1F92046FFF7EEF91FBD08
:104CA0002DE9FC5F4FF00009002400BF06E03F48FB
:104CB000005D484400F0FF09601CC4B21F2CF6DB05
:104CC0003A48C07F484501D0BDE8FC9F374800788E
:104CD0008A2800D0F8E7354840788B286CD13348D3
:104CE00080781C28FAD13148C078AD2840D13049AD
:104CF00088682B4902F0D8F8019002F069F885B273
:104D00002B494868264902F0CFF8019002F060F87C
:104D100086B227490868224902F0C6F8019002F0DD
:104D200057F887B2234988681D4902F0BDF8019001
:104D300002F04EF81FFA80F81E494868184902F040
:104D4000B3F8019002F044F81FFA80FA1949086894
:104D5000134902F0A9F8019002F03AF81FFA80FB1B
:104D60003B46424651465846CDE90065FFF706FFEF
:104D70000E48C078AE28B1D10C4949790B4A127956
:104D800041EA022002F044F8824601F06BFF074638
:104D9000002212E04A01002066660A400000B0408E
:104DA0000000C84200388F40F40000208401002039
:104DB0001C0300200403002070E0394B01F046FC86
:104DC000054601F005FC374908603749C979364A7C
:104DD000927941EA022002F01BF8824601F042FF7C
:104DE000074600222E4B01F031FC054601F0F0FB96
:104DF0002C4948602C49497A2B4A127A41EA022010
:104E000002F006F8824601F02DFF07460022244BEF
:104E100001F01CFC054601F0DBFB224988602249B9
:104E2000C97A214A927A41EA022001F0F1FF8246D2
:104E300001F018FF07460022194B01F007FC054658
:104E400001F0C6FB194908601749497B164A127BD5
:104E500041EA022001F0DCFF824601F003FF074631
:104E600000220F4B01F0F2FB054601F0B1FB0F49A8
:104E700048600D49C97B0C4A927B41EA022001F04F
:104E8000C7FF824601F0EEFE07460022044B01F008
:104E9000DDFB054601F09CFB0449886000BF13E779
:104EA0000000594004030020840100201C0300205E
:104EB000FD48FE490860FE4848604FF08240886027
:104EC000FC48C860002008614861F748FA4908605A
:104ED000F74848604FF082408860F648C86000207C
:104EE00008614861F548F6490860002048604FF0C5
:104EF0007C508860F348C860002008614861F2482F
:104F0000F2490860EA484860F1488860F148C860A2
:104F1000002008614861F048F0490860E4484860B2
:104F2000EF488860EB48C8600020086148614FF096
:104F30008240EC490860EC4848608860E548C860F9
:104F400000200861486170472DE9F04704460D468E
:104F500016462168286802F0AFF8E44908600A465E
:104F60001168D24A106901F0A9FED04908610A46C9
:104F7000D168106902F064F803D2CC48C068CB490C
:104F80000861CA48C06880F00047C84801693846CF
:104F900002F056F805D2C548C06880F00040C34909
:104FA0000861C82E02DA0020C0490861D04A1168A1
:104FB000CE4A106802F080F88146BC4881684846B5
:104FC00001F072FF0746B94A1169506801F06CFFA1
:104FD0008146C64A1168B54A106801F065FF8246ED
:104FE000494601F06BFE8046394601F067FEAF4945
:104FF0004861BE480068BE4908606168686802F0A0
:105000005BF8BA4948600A465168AB4A106901F03A
:1050100055FEA94908610A46D168106902F010F8E6
:1050200003D2A548C068A4490861A348C06880F0BD
:105030000047A1480169384602F002F805D29E48AF
:10504000C06880F000409C490861C82E02DA002048
:1050500099490861A64A5168A44A506802F02CF8A0
:10506000814695488168484601F01EFF07468F4AF1
:105070001169914A506801F017FF81469B4A5168B7
:105080008D4A106801F010FF8246494601F016FE75
:105090008046394601F012FE8749486193484068CE
:1050A00093494860BDE8F0872DE9F04104469148F6
:1050B000B0F9000001F0ACFE06468F4901F0F4FEA5
:1050C00005467A484169284601F0EBFF8B490860A4
:1050D0000A4611687D4A106901F0F0FD7B490861BC
:1050E0000A46D168106901F0ABFF03D27748C06867
:1050F000764908617548C06880F0004573480169C9
:10510000284601F09DFF05D27048C06880F000403D
:105110006E4908617A4A1168784A106801F0CCFF3C
:1051200007466A488168384601F0BEFE0546674A70
:105130001169506801F0B8FE0746704A1168634A69
:10514000106801F0B1FE8046394601F0B7FD064611
:10515000294601F0B3FD5D49486168480068684927
:1051600008606848B0F9000001F052FE0646624946
:1051700001F09AFE054650484169284601F091FF2A
:105180005E4948600A465168544A106901F096FD2C
:10519000524908610A46D168106901F051FF03D2F3
:1051A0004E48C0684D4908614C48C06880F00045D1
:1051B0004A480169284601F043FF05D24748C068C4
:1051C00080F00040454908614D4A51684B4A50689B
:1051D00001F072FF074641488168384601F064FEDD
:1051E00005463E4A1169506801F05EFE0746434A93
:1051F00051683A4A106801F057FE8046394601F07E
:105200005DFD0646294601F059FD344948613B4899
:1052100040683B4948603C48B0F90000404201F01A
:10522000F7FD0546344901F03FFE344988600A46DF
:1052300091682C4A106901F041FD2A4908610A462B
:10524000D168106901F0FCFE03D22648C0682549E8
:1052500008612448C06880F000452248016928465A
:1052600001F0EEFE05D21F48C06880F000401D49E5
:105270000861234A9168214A906801F01DFF0746A2
:1052800018488168384601F00FFE0546154A116935
:10529000506801F009FE0746184A9168114A1068E3
:1052A00001F002FE804631E00000A040040300202F
:1052B0000AD7A33C00007A441C0300200000604091
:1052C0003403002000009643000020404C030020DF
:1052D0000000584100409C45CDCC4C406403002068
:1052E000000070417C030020CDCCCC3D9403002015
:1052F000A003002068000020F1FF793DAC030020EE
:10530000B80300206A0000206C000020394601F03C
:10531000D5FC0646294601F0D1FCFE494861FE480D
:105320008068FE498860FE48807A012870D1FD4877
:10533000007800286ED1204601F06AFD8046FA48C8
:105340004169404601F0B8FE0746F84841693846D1
:1053500001F0B4FC0646EF484169304601F0AEFC6E
:10536000054601F019FD00B2F1490880204601F020
:105370004FFD8046EC484169404601F09FFC0746DE
:10538000EA484169384601F099FC0646E14841691E
:10539000304601F091FE054601F0FEFC00B2E54901
:1053A0000880204601F034FD8046DF4841694046D0
:1053B00001F084FC0746DD484169384601F07CFE77
:1053C0000646D4484169304601F078FC054601F0B4
:1053D000E3FC00B2D8490880204601F019FD804660
:1053E000D1484169404601F067FE0746CF48416910
:1053F000384601F061FE0646C6484169304601F074
:105400005BFE054601F0C8FC00B2CC4908800DE007
:1054100054E0FFE7C3480078012807D1C44804805E
:10542000C4480480C4480480C4480480C048B0F91B
:105430000000B0F57A7F03DB40F2E730BC4908801A
:10544000BC48B0F90000B0F57A7F03DB40F2E730EA
:10545000B8490880B848B0F90000B0F57A7F03DB9E
:1054600040F2E730B4490880B448B0F90000B0F524
:105470007A7F03DB40F2E730B0490880AC48B0F9EE
:105480000000002802DA0020A9490880A948B0F9E4
:105490000000002802DA0020A6490880A648B0F9DA
:1054A0000000002802DA0020A3490880A348B0F9D0
:1054B0000000002802DA0020A04908809848807A7D
:1054C00000B144B900209A4908809A4908809A4955
:1054D00008809A4908809748008881B24FF0804040
:1054E000FCF71AFE9448008881B24FF08040FCF728
:1054F00015FE8F48008881B24FF08040FCF710FE07
:105500008E48008881B24FF08040FCF70BFEBDE86A
:10551000F0812DE9F0410446894801688948006816
:1055200001F0CAFD884908608548006801F09AFBCF
:105530000546864A864B01F05FFB0CD28048006826
:1055400001F090FB0546814A824B01F01BFA02D222
:10555000002081490860814948687949096801F05B
:10556000A3FC05467C480168284601F09AFD7A496B
:1055700008607B497448006801F096FC7749C86070
:10558000C868002101F05CFC0AD27448C06880F051
:1055900000457449284601F091FB7049C86006E057
:1055A0006E49C8686F4901F089FB6C49C8606B4857
:1055B000C1686948006801F043FD03D26748C068CC
:1055C000654908606548C06880F000456248016828
:1055D000284601F035FD05D26048C06880F00040E3
:1055E0005D4908606048B0F9000001F011FC074611
:1055F0005A488168384601F057FC05465749086803
:105600005149096801F050FC074653480168384683
:1056100001F054FB0646294601F04EFD534908604F
:10562000534801685348006801F046FD524908603C
:105630004F48006801F016FB0546444A444B01F010
:10564000DBFA0CD24A48006801F00CFB05463F4AE1
:10565000404B01F097F902D20020484908604849C0
:1056600048684349096801F01FFC05464348016842
:10567000284601F016FD4149086039493E48006856
:1056800001F012FC3E49C860C868002101F0D8FB57
:105690000AD23B48C06880F000453249284601F0F4
:1056A0000DFB3749C86006E03549C8682D4901F04F
:1056B00005FB3349C8603248C1683048006801F0D2
:1056C000BFFC03D22E48C0682C4908602C48C06833
:1056D00080F0004529480168284601F0B1FC05D258
:1056E0002748C06880F00040244908602548B0F988
:1056F000000001F08DFB074621488168384601F023
:10570000D3FB05461E4908681B49096801F0CCFB1C
:10571000074639E07C030020AC030020B8030020DA
:10572000D0020020440100204C030020640300202C
:105730001C0100201E010020200100202201002069
:1057400008010020F8000020140100209A9999997E
:105750009999B9BF9999B93F3801002004030020F5
:10576000000020410000C842680000202C010020F9
:105770000C010020FC000020180100203C0100204A
:105780001C0300206A000020B9480168384601F077
:1057900095FA0646294601F08FFCB6490860B648DE
:1057A0000168B648006801F087FCB5490860B24856
:1057B000006801F057FA0546B24AB34B01F01CFAF3
:1057C0000CD2AD48006801F04DFA0546AD4AAF4B2A
:1057D00001F0D8F802D20020AD490860AD49486810
:1057E000A549096801F060FB0546A94801682846FB
:1057F00001F057FCA6490860A749A148006801F0DC
:1058000053FBA449C860C868002101F019FB0AD203
:10581000A048C06880F00045A049284601F04EFA33
:105820009C49C86006E09B49C8689C4901F046FA5B
:105830009849C8609748C1689548006801F000FC25
:1058400003D29448C068924908609248C06880F0CA
:1058500000458F480168284601F0F2FB05D28D48CB
:10586000C06880F000408A4908608D48B0F90000A7
:1058700001F0CEFA074687488168384601F014FBEC
:105880000546844908687E49096801F00DFB074612
:105890007F480168384601F011FA0646294601F0B2
:1058A0000BFC804908608048807A01287ED1204620
:1058B00001F0AEFA80467D480168404601F0FCFBED
:1058C00007466C480168384601F0F8F90646754805
:1058D0000168304601F0F2F9054601F05DFA00B2C8
:1058E00073490880204601F093FA80466F480168AA
:1058F000404601F0E3F907465E480168384601F08A
:10590000DDF9064667480168304601F0D5FB0546DB
:1059100001F042FA00B267490880204601F078FAA7
:10592000804662480168404601F0C8F90746514880
:105930000168384601F0C0FB06465A480168304607
:1059400001F0BCF9054601F027FA00B25A49088077
:10595000204601F05DFA804654480168404601F057
:10596000ABFB074643480168384601F0A5FB0646F5
:105970004C480168304601F09FFB054601F00CFAE7
:1059800000B24E4908804A48B0F90000B0F57A7F6D
:1059900003DB40F2E730464908804648B0F9000092
:1059A000B0F57A7F05DB40F2E73000E035E04149B1
:1059B00008804148B0F90000B0F57A7F03DB40F27F
:1059C000E7303D4908803D48B0F90000B0F57A7FE6
:1059D00003DB40F2E730394908803548B0F9000070
:1059E000002802DA0020324908803248B0F900006D
:1059F000002802DA00202F4908802F48B0F9000063
:105A0000002802DA00202C4908802C48B0F9000058
:105A1000002802DA0020294908802348807A00B152
:105A200044B9002022490880224908802249088080
:105A3000224908801F48008881B24FF08040FCF75F
:105A40006BFB1D48008881B24FF08040FCF766FB7D
:105A50001748008881B24FF08040FCF761FB17487F
:105A6000008881B24FF08040FCF75CFBBDE8F0811C
:105A70003C01002030010020040100200001002032
:105A8000100100209A9999999999B9BF9999B93FAC
:105A90004001002034030020000020410000C842E3
:105AA0006C00002034010020D00200202C010020D6
:105AB0001C0100201E0100202001002022010020E6
:105AC0003EB5044601210220FAF7FFFF0D48FBF71F
:105AD0005BFCADF804404720ADF800000020ADF8B5
