:020000040800F2
:100000006806002001010008C5020008C7020008B8
:10001000CB020008CF020008D30200080000000055
:10002000000000000000000000000000D7020008EF
:10003000D902000800000000DB020008DD02000811
:100040001B0100081B0100081B0100081B01000820
:100050001B0100081B0100081B0100081B01000810
:100060001B0100081B0100081B0100081B01000800
:100070001B0100081B0100081B0100081B010008F0
:100080001B0100081B0100081B0100081B010008E0
:100090001B0100081B0100081B0100081B010008D0
:1000A0001B0100081B0100081B0100081B010008C0
:1000B0001B0100081B0100081B0100081B010008B0
:1000C0001B010008DF020008E70200081B0100080E
:1000D0001B010008D72400081B0100081B010008B1
:1000E0001B0100081B0100081B010008DFF80CD0F1
:1000F00005F042F800480047250100086806002086
:100100000648804706480047FEE7FEE7FEE7FEE7B1
:10011000FEE7FEE7FEE7FEE7FEE7FEE7D721000881
:10012000ED00000894B0202109A804F042FC00BFB3
:1001300000BF58A103C9CDE9070100BF00BF02F00D
:1001400021F902F0CBF84FF4E13002F05BF9032023
:10015000009001231A4651490190A62004F099F815
:1001600002F0E4F903F0ACFA92E003F00AFA02F0CC
:10017000A6FE4B48B0F9000004F076FE044649485C
:10018000B0F9000004F070FE05464748B0F90000E1
:1001900004F06AFE064611A844490968444A1268F8
:1001A000CDE90021029043482246294603683046A3
:1001B00002F023FA4049129804F05EFC824604F0F3
:1001C00061FE04B23C49119804F056FC824604F0EA
:1001D00059FE05B23248B0F9000004F045FE374937
:1001E000049004F049FC8346354904F045FC8246FE
:1001F00004F048FE06B22B48B0F9000004F034FECB
:100200002E49049004F038FC83462D4904F034FC58
:10021000824604F037FE07B22348B0F9000004F02C
:1002200023FE2649049004F027FC8346244904F069
:1002300023FC824604F026FE0FFA80F81E491B4874
:10024000006804F019FC824604F01CFE0FFA80F9E5
:1002500019491748006804F00FFC824604F012FEAA
:1002600000B2154906901348006804F005FC824668
:1002700004F008FE00B243464A46CDE90076CDE9D7
:1002800002540590069903F0D8FB202003F094FD5A
:100290006BE7000073746F7000000000801A0600A6
:1002A000700000206E0000206C0000209C000020E8
:1002B00098000020940000200000C84289A18B3AD9
:1002C00000007A44704700BFFEE700BFFEE700BFB2
:1002D000FEE700BFFEE7704770477047704710B5F4
:1002E00004F06CF910BD10B504F034FB10BD000033
:1002F00031490143314A1160704770B50021002334
:100300000F22C47804B32D4C246804F4E064C4F5CF
:10031000E064210AC1F10403CA40447804FA03F1FD
:100320008478144021430901254C0678A1550478AE
:1003300004F01F050124AC4005786D11AD0005F1F6
:10034000E025C5F8004109E0047804F01F05012408
:10035000AC401C4D0678761145F8264070BD1A4A0F
:100360000A400243154B1B1F1A60704739B1134AEC
:10037000121D12680243114B1B1D1A6006E00F4A42
:10038000121D126882430D4B1B1D1A607047042812
:1003900008D14FF0E021096941F004014FF0E0225B
:1003A000116107E04FF0E021096921F004014FF0ED
:1003B000E0221161704700000000FA050CED00E03A
:1003C00000E400E080E100E080FFFF1F10B504467C
:1003D000CC48844208D10121042000F02DFB0021EB
:1003E000042000F029FB46E0C748844208D10121DF
:1003F000082000F021FB0021082000F01DFB3AE05E
:10040000C248844208D10121102000F015FB0021D0
:10041000102000F011FB2EE0BD48844208D10121DC
:10042000202000F009FB0021202000F005FB22E045
:10043000B848844208D10121402000F0FDFA002193
:10044000402000F0F9FA16E0B348844208D10121B7
:10045000802000F0F1FA0021802000F0EDFA0AE09F
:10046000AE48844207D10121801500F0E5FA002151
:10047000A01500F0E1FA10BD10B50121084600F00A
:10048000DBFA0021012000F0D7FA10BD2DE9F04180
:10049000024600250026002000230024002791F8B2
:1004A00003C00CF00F0591F803C00CF0100CBCF168
:1004B000000F03D091F802C04CEA050591F800C086
:1004C000BCF1000F31D0146800202BE04FF0010C7C
:1004D0000CFA00F3B1F800C00CEA03069E4220D1EA
:1004E00083004FF00F0C0CFA03F7BC4305FA03FC32
:1004F0004CEA040491F803C0BCF1280F06D14FF078
:10050000010C0CFA00FCC2F814C00AE091F803C018
:10051000BCF1480F05D14FF0010C0CFA00FCC2F8F9
:1005200010C0401C0828D1D31460B1F800C0BCF141
:10053000FF0F34DD546800202EE000F1080C4FF06E
:10054000010808FA0CF3B1F800C00CEA03069E4259
:1005500021D183004FF00F0C0CFA03F7BC4305FACE
:1005600003FC4CEA040491F803C0BCF1280F05D148
:1005700000F1080C08FA0CF8C2F8148091F803C0D6
:10058000BCF1480F07D100F1080C4FF0010808FA40
:100590000CF8C2F81080401C0828CED35460BDE887
:1005A000F0814FF6FF710180022181700421C1703A
:1005B00070470246002093680B400BB1012000E019
:1005C000002070470146886880B2704702460020CC
:1005D000D3680B400BB1012000E0002070470146BA
:1005E000C86880B2704701617047416170470AB1C5
:1005F000016100E041617047C16070474FF4803293
:100600000A43826181618261826982697047024620
:100610000020434B18684FF68073184040EA0210E0
:1006200008433F4B186070473E49C8617047F0B5BA
:100630000A46002300240021002500F00046B6F100
:10064000004F02D1364EF16901E0354E7168C0F3BA
:10065000034583B200F44016B6F5401F08D121F0DF
:1006600070612F4E766826F070662D4F7E6012E026
:1006700000F48016B6F5801F06D1032606FA05F4AD
:10068000A14341F0706106E0460D360103FA06F61B
:10069000B14341F0706122B1460D360103FA06F60E
:1006A000314300F00046B6F1004F02D11C4EF1611B
:1006B00001E01B4E7160F0BD30B500228B071C0FAE
:1006C0000F2303FA04F2164B08338C1053F824302E
:1006D0009343134C08348D1044F8253023468C1076
:1006E00053F824308C07240F00FA04F423430C4CF5
:1006F00008348D1044F8253030BD0A49DC310860DB
:100700007047000000080140000C0140001001404B
:100710000014014000180140001C0140002001406D
:100720000000014000002042DF48006840F0010066
:10073000DD49086008464068DC490840DA494860FD
:1007400008460068DA490840D7490860084600684A
:1007500020F4802008600846406820F4FE004860CD
:100760004FF41F0088607047CF49096821F4803139
:10077000CD4A11601146096821F480211160B0F55D
:10078000803F03D0B0F5802F0ED106E0C64909683E
:1007900041F48031C44A116007E0C349096841F45B
:1007A000A021C14A116000E000BF00BF704710B532
:1007B00001460022002300204A11012A02D1BA4C2E
:1007C000236806E0022A02D1B74C236A01E0B64C46
:1007D000636A01F01F02012494401C400CB1012007
:1007E00000E0002010BD38B5002000900024002556
:1007F00000BF3120FFF7DBFF05460098401C00904A
:100800000098B0F5A06F01D0002DF2D03120FFF795
:10081000CEFF08B1012400E00024204638BD014687
:100820000020A14A106820F0F80040EAC1001060E2
:100830007047A04908607047024600209A4B5868EC
:1008400020F47C1042EA01031843974B586070472C
:1008500098490866704701460020934A506820F086
:1008600003000843506070478F48406800F00C0058
:100870007047014600208C4A506820F0F000084381
:100880005060704701460020874A506820F4E060BD
:1008900008435060704701460020834A506820F4A6
:1008A000605040EAC1005060704729B17E4A527AD8
:1008B00002437D4B5A7204E07B4A527A82437A4B60
:1008C0005A7270477B49D831086070470146002052
:1008D000754A506820F4404008435060704700213A
:1008E000714A20321170704A82F82010012802D01B
:1008F00004280AD104E001216B4A2032117005E07E
:100900000521694A2032117000E000BF00BF704726
:100910006949086070476449096A0143624A116283
:100920007047654944390860704730B5002100229E
:10093000002400235C4D6D6805F00C0121B10429F1
:1009400005D0082923D105E05C4D056022E05C4D0F
:1009500005601FE0544D6D6805F47012524D6D68CE
:1009600005F48034022505EB92421CB9554D5543E0
:1009700005600BE04C4D6D6805F400351DB14F4D21
:100980005543056002E04E4D5543056002E04B4D76
:10099000056000BF00BF444D6D6805F0F001090916
:1009A000494D6B5C0568DD4045603F4D6D6805F461
:1009B000E061090A444D6B5C4568DD4085603A4D55
:1009C0006D6805F46051C90A3F4D6B5C4568DD40B8
:1009D000C560354D6D6805F44041890B3B4D6B5C3E
:1009E000C568B5FBF3F5056130BD29B12E4A5269E2
:1009F00002432D4B5A6104E02B4A526982432A4B31
:100A00005A61704729B1284A92690243264B9A617C
:100A100004E0254A92698243234B9A61704729B1C9
:100A2000214AD2690243204BDA6104E01E4AD269AE
:100A300082431D4BDA61704729B11B4AD2680243D9
:100A4000194BDA6004E0184AD2688243164BDA6028
:100A5000704729B1144A12690243134B1A6104E02A
:100A6000114A12698243104B1A617047124940398A
:100A7000086070470F49C86470470B49C8717047D8
:100A80000948406A40F08070074948627047014653
:100A90000020054A92680A400AB1012000E00020C7
:100AA0007047014988727047001002400000FFF84B
:100AB000FFFFF6FE000042428004424200127A002C
:100AC0000024F40000093D00000000201000002078
:100AD00010B50446FB48844209D101218803FFF781
:100AE000ABFF00214FF48040FFF7A6FF32E0F6484D
:100AF000844209D101214804FFF7ABFF00214FF4E4
:100B00000030FFF7A6FF25E0F048844209D101211B
:100B10008804FFF79EFF00214FF48020FFF799FF24
:100B200018E0EB48844209D10121C804FFF791FF86
:100B300000214FF40020FFF78CFF0BE0E5488442D2
:100B400008D101210805FFF784FF00214FF4801030
:100B5000FFF77FFF10BD2DE9F04786B005460E4632
:100B60000024A24600BFA1460027B08900B100BF03
:100B70002F462C8A4CF6FF700440F08804432C82E8
:100B8000AC894EF6F3100440B0883189084371896E
:100B900008430443AC81AC8A4FF6FF400440B0895F
:100BA0000443AC8201A8FFF7C0FEC648874202D1C9
:100BB000DDF810A001E0DDF80CA0A88900F40040E9
:100BC00040B10AEBCA0000EB0A1031684900B0FBE3
:100BD000F1F807E00AEBCA0000EB0A10316889005F
:100BE000B0FBF1F86420B8FBF0F0040120096421A7
:100BF00001FB1089A88900F4004040B1322000EBCD
:100C0000C900B0FBF1F000F00700044308E0322017
:100C100000EB09106421B0FBF1F000F00F00044379
:100C20002C8106B0BDE8F0874FF416510160002119
:100C30008180C18001810C21418100218181704727
:100C400010B502460020108A4FF2FF0318400B88AF
:100C50004C8823438C882343CC8823431843108239
:100C600010BD0021018041808180C180704721B189
:100C7000828942F40052828104E082894DF6FF733A
:100C80001A4082817047F0B50346002400260025F3
:100C9000002040F66A17B94200D100BF1846C1F3E0
:100CA000421401F01F06012707FA06F5012C01D1B5
:100CB0000C3004E0022C01D1103000E014301AB1E5
:100CC00007682F43076002E00768AF430760F0BD85
:100CD0001AB1838A0B43838202E0838A8B43838227
:100CE0007047028A4FF6F0731A400282028A0A4362
:100CF0000282704782894FF2FF731A408281828993
:100D00000A438281704721B1828942F002028281C6
:100D100004E082894FF6FD731A4082817047028A8F
:100D20004FF6DF731A400282028A0A43028270473A
:100D300021B1028A42F48042028204E0028A4BF628
:100D4000FF731A4002827047C1F308028280704725
:100D500001468888C0F308007047818941F001018D
:100D600081817047028BD2B20283028B42EA012258
:100D700002837047028B02F47F420283028B0A4394
:100D80000283704721B1828A42F02002828204E00D
:100D9000828A4FF6DF731A408282704721B1828ABD
:100DA00042F01002828204E0828A4FF6EF731A400A
:100DB0008282704721B1828A42F00802828204E076
:100DC000828A4FF6F7731A408282704721B1828976
:100DD00042F40042828103E08289C2F30E028281E2
:100DE000704721B1828A42F40062828204E0828AE2
:100DF0004FF2FF731A4082827047828A4FF6FB736C
:100E00001A408282828A0A438282704721B1828A92
:100E100042F00202828204E0828A4FF6FD731A4099
:100E20008282704702460020B1F5007F00D100BFEA
:100E300013880B400BB1012000E00020704701F443
:100E40000072B2F5007F00D100BFCA430280704734
:100E500070B50246002400230025002040F66A16E3
:100E6000B14200D100BFC1F3421501F01F030126BA
:100E700006FA03F3012D02D19689334006E0022DD4
:100E800002D1168A334001E0968A33400C120126C3
:100E900006FA04F41688344013B10CB1012000E0C6
:100EA000002070BD10B50022002340F66A14A14254
:100EB00000D100BF0A1201249440A3B2DC43048095
:100EC00010BD0000003801400044004000480040D0
:100ED000004C00400050004010B50446F7488442E2
:100EE00009D101214805FFF7B4FD00214FF400109E
:100EF000FFF7AFFD08E001218805FFF7AAFD0021FB
:100F00004FF48000FFF7A5FD10BD2DE9F04385B03B
:100F100004460D460026B1460427DFF8A483A688C0
:100F20004FF6C07006406846FFF7FFFCDDF808800A
:100F3000E448B8FBF0F01FFA80F946EA0906A680FB
:100F400020884FF6FE71084020800026DE49286880
:100F500088420CD828684000B8FBF0F087B2042F14
:100F600000DA04273E4309F10100208427E0E888E5
:100F70004BF6FF71884206D1286800EB4000B8FBB1
:100F8000F0F087B209E0286800EBC00101EB001027
:100F9000B8FBF0F087B247F48047C7F30B0008B9FD
:100FA00047F0010747F4004006434FF4967009FBF1
:100FB00000F04FF47A7190FBF1F0401C2084A6837E
:100FC000208840F00100208026884FF6F53006404A
:100FD000A8886989084306432680A8892989084387
:100FE000208105B0BDE8F08341F288310160002125
:100FF00081804BF6FF71C1800021018141814FF456
:1010000080418181704721B1028842F00102028053
:1010100004E002884FF6FE731A400280704721B147
:10102000828842F40062828004E082884FF2FF737B
:101030001A408280704721B1828842F480528280B7
:1010400004E082884EF6FF731A408280704721B117
:10105000028842F48072028004E002884FF6FF6347
:101060001A400280704721B1028842F40072028067
:1010700004E002884FF6FF531A400280704721B106
:10108000028842F48062028004E002884FF6FF3357
:101090001A40028070470A46002181894FF6017389
:1010A000194002F0FE0319438181704721B1828902
:1010B00042F00102828104E082894FF6FE731A40F9
:1010C0008281704721B1028842F04002028004E030
:1010D00002884FF6BF731A40028070471AB18388A6
:1010E0000B43838002E083888B43838070470182B7
:1010F00070470146088AC0B2704712B141F0010141
:1011000002E04FF6FE7319400182704708B50246AF
:1011100000200090009200980844009000980088F9
:1011200008BD21B1028842F40042028003E0028837
:10113000C2F30E0202807047B1F5006F04D102883D
:1011400042F40062028004E002884FF2FF731A400A
:1011500002807047B1F5005F04D1028842F400526A
:10116000028004E002884DF6FF731A400280704747
:1011700021B1028842F48052028004E002884EF6D7
:10118000FF731A4002807047B1F5006F04D10288E6
:1011900042F40062028004E002884FF2FF731A40BA
:1011A0000280704721B1028842F02002028004E0F0
:1011B00002884FF6DF731A40028070470146088BA1
:1011C0000012704721B1028842F01002028004E050
:1011D00002884FF6EF731A400280704721B90288E7
:1011E00042F08002028004E002884FF67F731A40CA
:1011F00002807047B1F5804F05D0828B4BF6FF73AC
:101200001A40828303E0828B42F4804282837047DB
:1012100070B502460024002500230020958A138B18
:101220001B0445EA030626F07F4404EA01068E42C9
:1012300001D1012000E0002070BD10B50146002062
:10124000002300228B8A0A8B120443EA020424F052
:101250007F4010BD0CB5024600200023019300938F
:1012600000920B0F019321F07F41019B1BB1009B6A
:101270001433009303E0090C009B18330093009B88
:101280001B680B400BB1012000E000200CBD0022C8
:1012900021F07F42D3438382704730B5024600205D
:1012A0000023948801F0E06504EA154321F07F41B2
:1012B000948A0C4054B14BB1012008E00054004026
:1012C00000127A0040420F00A0860100002030BDCD
:1012D000002221F07F42D3438382704710B5044639
:1012E000FE48844208D10121C014FFF7A5FB00216C
:1012F000E014FFF7A1FBC4E0B4F1804F08D1012155
:101300000846FFF7A6FB00210120FFF7A2FBB8E08B
:10131000F348844208D101210220FFF79AFB002103
:101320000220FFF796FBACE0EE48844208D1012191
:101330000420FFF78EFB00210420FFF78AFBA0E0CA
:10134000E948844208D101210820FFF782FB0021EF
:101350000820FFF77EFB94E0E448844208D1012195
:101360001020FFF776FB00211020FFF772FB88E0CA
:10137000DF48844208D101212020FFF76AFB0021C9
:101380002020FFF766FB7CE0DA48844208D1012187
:101390004014FFF751FB00216014FFF74DFB70E094
:1013A000D548844209D10121C804FFF745FB00213B
:1013B0004FF40020FFF740FB63E0D048844209D19E
:1013C00001210805FFF738FB00214FF48010FFF7DB
:1013D00033FB56E0CA48844209D101214805FFF792
:1013E0002BFB00214FF40010FFF726FB49E0C54816
:1013F000844208D101214020FFF72BFB002140202F
:10140000FFF727FB3DE0C048844208D1012180203E
:10141000FFF71FFB00218020FFF71BFB31E0BB48DB
:10142000844208D101218015FFF713FB0021A0158C
:10143000FFF70FFB25E0B648844209D101210804DB
:10144000FFF7FAFA00214FF48030FFF7F5FA18E0C1
:10145000B048844209D101214804FFF7EDFA002188
:101460004FF40030FFF7E8FA0BE0AB48844208D1B4
:1014700001218804FFF7E0FA00214FF48020FFF7F4
:10148000DBFA10BD00220288944B98420ED0994B93
:1014900098420BD0B0F1804F08D0914B984205D0C4
:1014A000904B984202D0904B984204D14FF68F73E4
:1014B0001A404B881A438D4B984207D08C4B984268
:1014C00004D04FF6FF431A40CB881A4302808B8822
:1014D00083850B880385814B98420BD0854B9842BE
:1014E00008D08B4B984205D08A4B984202D08A4B49
:1014F000984201D10B7A038601238382704770B52D
:10150000002400220023058C4FF6FE76354005842A
:10151000028C8388048B4FF68F752C40B51E2C40AF
:101520000D882C43751E2A400D892A434D882A4375
:101530006A4DA8420BD06F4DA84208D0744DA84206
:1015400005D0744DA84202D0734DA84213D14FF676
:10155000F7752A404D892A434FF6FB752A408D883E
:101560002A434FF6FF652B404FF6FF552B408D89E0
:101570002B43CD892B4383800483CD8885860284C9
:1015800070BD70B5002400220023058C4FF6EF7665
:1015900035400584028C8388048B48F6FF752C4007
:1015A0004FF6FF452C400D884FF6FF7606EA0525DD
:1015B0002C434FF6DF752A400D8906EA05152A43AC
:1015C0004D8806EA05152A43444DA84202D0494DEC
:1015D000A8421DD14FF67F752A404D894FF6FF7600
:1015E00006EA05152A434FF6BF752A408D8806EA9C
:1015F00005152A434FF6FF352B404FF2FF752B4060
:101600008D8906EA85052B43CD8906EA85052B439E
:1016100083800483CD880587028470BD70B5002463
:1016200000220023058C4FF6FF6635400584028CAE
:101630008388848B4FF68F752C404FF6FC752C40B9
:101640000D882C434FF6FF552A400D894FF6FF7643
:1016500006EA05252A434D8806EA05252A431F4D3B
:10166000A84202D0234DA8421DD14FF2FF752A4057
:101670004D894FF6FF7606EA05252A434FF6FF35DA
:101680002A408D8806EA05252A434EF6FF752B4031
:101690004DF6FF752B408D8906EA05152B43CD8944
:1016A00006EA05152B4383808483CD8885870284D1
:1016B00070BD70B5002200230024058C4EF6FF7625
:1016C00035400584038C8488828B48F6FF752A4058
:1016D0004FF6FF452A400D8820E00000002C014015
:1016E0000004004000080040000C004000100040D2
:1016F0000014004000340140004C01400050014003
:101700000054014000180040001C00400020004030
:101710000040014000440140004801404FF6FF7680
:1017200006EA05252A434DF6FF752B400D8906EA8A
:1017300005352B434D8806EA05352B43FA4DA84263
:1017400002D0FA4DA84208D14BF6FF752C408D8986
:101750004FF6FF7606EA85152C4384808283CD8878
:10176000A0F84050038470BD828B4FF2FF331A40C3
:101770008283828B4FF6FF7303EA01231A4382832D
:101780007047F0B50C461546002200210026078C54
:101790004EF6FF7C07EA0C070784828B018C4FF61C
:1017A000FF7707EA043640F6FF473A404FF6FF77E7
:1017B00007EA05273A434FF6FF7707EA03373A432C
:1017C000D94FB8420ED0D94FB8420BD0B0F1804FAC
:1017D00008D0D74FB84205D0D64FB84202D0D64F26
:1017E000B84206D14DF6FF77394046F48057394369
:1017F00005E047F6FF57394044F480573943828368
:101800000184F0BD828B4FF6F3731A408283828B82
:101810000A4382837047F0B50C461546002200212A
:101820000026078C4FF6FF6C07EA0C070784828BB3
:10183000018C4FF6FF7707EA04264FF60C773A4003
:101840004FF6FF7707EA03172F433A43B64FB842E4
:101850000ED0B64FB8420BD0B0F1804F08D0B44F85
:10186000B84205D0B34FB84202D0B34FB84206D108
:101870004FF6FF57394046F48077394305E04FF281
:10188000FF57394044F48077394382830184F0BDA7
:10189000028B4FF2FF331A400283028B4FF6FF7325
:1018A00003EA01231A4302837047F0B50C4615463C
:1018B000002200210026078C4FF6EF7C07EA0C0778
:1018C0000784028B018C4FF6FF7707EA041640F677
:1018D000FF473A404FF6FF7707EA03373A434FF6A0
:1018E000FF7707EA05273A438F4FB8420ED08F4F54
:1018F000B8420BD0B0F1804F08D08D4FB84205D020
:101900008C4FB84202D08C4FB84206D14FF6DF77E9
:10191000394046F01007394305E04FF65F7739400C
:1019200044F01007394302830184F0BD028B4FF667
:10193000F3731A400283028B0A4302837047F0B5A7
:101940000C46154600220021068C4FF6FE773E40DD
:101950000684028B018C4FF60C7632407E1C06EA20
:1019600003162E433243704EB0420ED06F4EB0423B
:101970000BD0B0F1804F08D06D4EB04205D06D4E07
:10198000B04202D06C4EB04206D14FF6FD763140E7
:1019900044F00106314305E04FF6F576314044F05E
:1019A0000106314302830184F0BD70B505460C4643
:1019B0005D4885420ED05D4885420BD0B5F1804F21
:1019C00008D05B48854205D05A48854202D05A4823
:1019D000854200D100E000BF208850B92389A28849
:1019E00061882846FFF7ABFFE1882846FFF79EFF96
:1019F00025E0208804280AD12389A2886188284606
:101A0000FFF753FFE1882846FFF742FF17E02088E1
:101A100008280AD12389A28861882846FFF7FBFE9F
:101A2000E1882846FFF7EEFE09E02389A288618855
:101A30002846FFF7A6FEE1882846FFF795FE70BD11
:101A40002DE9F04105460C4600260127608808B9BB
:101A5000022600E00026A088012801D1022700E02C
:101A600001272088A0B92389A28861882846FFF72A
:101A700066FFE1882846FFF759FF23893A46314639
:101A80002846FFF712FFE1882846FFF701FF13E021
:101A90002389A28861882846FFF707FFE188284646
:101AA000FFF7F6FE23893A4631462846FFF747FFFF
:101AB000E1882846FFF73AFFBDE8F0810A884B88A5
:101AC0001A438B881A43CB881A430B891A434B89D4
:101AD0001A438B891A43A0F8442070474FF6FF71D0
:101AE000818000210180C180418001727047002106
:101AF000018041808180C180018141818181C181DA
:101B00007047002101804180012181800021C18036
:101B1000018170470021018041808180C180018165
:101B20004181818170470000002C01400034014058
:101B30000004004000080040000C004021B1028871
:101B400042F00102028004E002884FF6FE731A4060
:101B50000280704731B1B0F8442042F40042A0F84E
:101B6000442005E0B0F84420C2F30E02A0F844205F
:101B700070471AB183890B43838102E083898B43C9
:101B8000838170478182704741EA0203A0F84830A0
:101B900070471AB183890B43838102E083898B43A9
:101BA0008381704701894FF6F872114001817047B7
:101BB0000A46002101894FF68F73194011430181B4
:101BC000704730B504460D4629462046FFF7F0FF22
:101BD000208940F00700208130BD2DE9F041044606
:101BE0000D4616461F46602D06D13B460122314662
:101BF0002046FFF75AFE05E03B46012231462046CB
:101C0000FFF79DFE29462046FFF7D2FF208940F0CE
:101C100007002081BDE8F08130B50C460021018924
:101C2000C9B24FF6FF7505EA03251543254329433D
:101C3000018130BD2DE9F04105460E461746984614
:101C4000002443463A4631462846FFF7E5FF2C89F3
:101C50004FF6F870044044F007044FF68F700440CC
:101C600044F070042C81BDE8F081F0B504460D46C7
:101C700016461F463B46324629462046FFF7CCFF14
:101C8000208940F480402081F0BD01858282704728
:101C90000A46002101884FF68F73194011430180D5
:101CA0007047F0B50C4615461E4600210022002361
:101CB0000189028B038C4FF6F877394021434FF6A8
:101CC000FC473A4040F201173A434FF6DD773B407C
:101CD0004FF6FF7707EA06172F433B430181028344
:101CE0000384F0BD0A460021018B4FF68F73194023
:101CF0001143018370470A460021018B48F6FF73A8
:101D000019404FF6FF7303EA02231943018370471A
:101D10000A460021818B4FF68F731940114381834E
:101D200070470A460021818B48F6FF7319404FF631
:101D3000FF7303EA022319438183704721B10288AC
:101D400042F08002028004E002884FF67F731A405E
:101D50000280704721B1828842F00402828004E050
:101D600082884FF6FB731A408280704721B18288C7
:101D700042F00802828004E082884FF6F7731A402E
:101D80008280704721B1828842F00102828004E0A3
:101D900082884FF6FE731A40828070470A460021FF
:101DA000018B4FF6F77319401143018370470A46C0
:101DB0000021018B4FF2FF7319404FF6FF7303EAC6
:101DC00002231943018370470A460021818B4FF695
:101DD000F77319401143818370470A460021818BB4
:101DE0004FF2FF7319404FF6FF7303EA02231943C2
:101DF000818370470A460021018B4FF6FB7319401F
:101E00001143018370470A460021018B4FF6FF33CF
:101E100019404FF6FF7303EA022319430183704709
:101E20000A460021818B4FF6FB73194011438183D1
:101E300070470A460021818B4FF6FF3319404FF659
:101E4000FF7303EA02231943818370470A46002186
:101E5000018B4FF67F7319401143018370470A4687
:101E60000021018BC1F30E014FF6FF7303EA022339
:101E70001943018370470A460021818B4FF67F7317
:101E800019401143818370470A460021818BC1F3B9
:101E90000E014FF6FF7303EA022319438183704753
:101EA0000A460021018C4FF6FD731940114301844D
:101EB00070470A460021018C4FF6F7731940114311
:101EC000018470470A460021018C4FF6DF731940E8
:101ED0004FF6FF7303EA02131943018470470A4661
:101EE0000021018C4FF67F7319404FF6FF7303EA10
:101EF00002131943018470470A460021018C4FF6F2
:101F0000FF5319404FF6FF7303EA0223194301847C
:101F100070470A460021018C4FF2FF7319404FF6BB
:101F2000FF7303EA02231943018470470A46002124
:101F3000018C4DF6FF7319404FF6FF7303EA02332D
:101F400019430184704730B5002301248C40A3B2AB
:101F5000048C9C430484048C02FA01F5ADB22C433A
:101F6000048430BD30B5002304248C40A3B2048C1B
:101F70009C430484048C02FA01F5ADB22C43048422
:101F800030BD70B5034600200024184618300125E6
:101F90008D40ACB21D8CA5431D8409B1082909D11F
:101FA00000EB6100056825F07005056005681543C4
:101FB00005600EE00D1FC5F34E052844056825F4A5
:101FC000E045056005684FF6FF7606EA02263543D0
:101FD000056070BD21B1028842F00202028004E077
:101FE00002884FF6FD731A400280704721B10288C3
:101FF00042F00402028004E002884FF6FB731A40AC
:102000000280704721B1828842F08002828004E021
:1020100082884FF67F731A408280704702884FF69D
:10202000F7731A40028002880A4302807047828850
:102030004FF68F731A40828082880A4382807047ED
:1020400002894FF6F8731A40028102890A4302811D
:10205000704702894FF67F731A40028102890A4352
:1020600002817047818470478185704781867047FF
:102070000187704781877047A0F840107047028839
:102080004FF6FF431A40028002880A4302807047DD
:102090000146888E70470146088F70470146888F39
:1020A00070470146B1F8400070470146888C704780
:1020B0000146088D704702460020138A0B400BB181
:1020C000012000E000207047CA430282704730B50B
:1020D0000246002000230024158A05EA01039589A1
:1020E00005EA010413B10CB1012000E0002030BD6D
:1020F000CA430282704700000CB500200190009096
:102100006C48006840F480306A49086000BF694844
:10211000006800F4003000900198401C0190009885
:1021200018B90198B0F5A06FF1D16248006800F4C9
:10213000003010B10120009001E0002000900098D4
:10214000012843D15C48006840F010005A490860FB
:102150000846006820F0030008600846006840F068
:102160000200086053484068524948600846406889
:1021700048600846406840F480604860084640680F
:1021800020F47C1048600846406840F4E81048603D
:102190000846006840F08070086000BF454800684D
:1021A00000F000700028F9D04248406820F0030099
:1021B000404948600846406840F00200486000BF5F
:1021C0003C48406800F00C000828F9D10CBD10B55F
:1021D000FFF792FF10BD10B53648006840F00100CF
:1021E000344908600846406834490840314948602D
:1021F00008460068324908402E49086008460068D1
:1022000020F4802008600846406820F4FE00486002
:102210004FF41F008860FFF7DAFF4FF00060294994
:10222000086010BD10B5002100200022214B5B6822
:1022300003F00C0121B1042906D0082928D107E0B8
:10224000214B224C236027E0214B204C236023E0CC
:10225000184B5B6803F47010164B5B6803F4803214
:10226000022303EB904022B91A4B4343174C2360DF
:102270000DE0104B5B6803F4003323B1124B434372
:10228000124C236003E0124B4343104C236003E0E5
:102290000D4B0E4C236000BF00BF064B5B68C3F3C1
:1022A00003130D4CE15C094B1B68CB40074C2360CA
:1022B00010BD000000100240002002400000FFF8A6
:1022C000FFFFF6FE08ED00E000127A001400002087
:1022D0000024F40000093D00180000204FF0E02029
:1022E000006920F004004FF0E02108610920234933
:1022F00008700846007800EB4001C1EBC0104FF6B3
:10230000FF7101EAC0001E490880704701461C4A5F
:1023100012884A434FF0E0235A6100229A61012259
:102320001A6100BF4FF0E022106900F001021AB1FB
:1023300000F48032002AF5D000224FF0E0231A6129
:102340009A61704701460D4A12784A434FF0E023E4
:102350005A6100229A6101221A6100BF4FF0E02207
:10236000106900F001021AB100F48032002AF5D0A1
:1023700000224FF0E0231A619A6170472800002084
:102380002A00002010B5FEF7CFF94FF48030FEF799
:10239000EBF9FEF728FA012830D10020FEF769FAA0
:1023A0000020FEF778FA4FF48060FEF76BFA1448CD
:1023B000006840F01000124908600846006820F0EC
:1023C000030008600846006840F0020008604FF40F
:1023D000E0114FF44030FEF72FFA0120FEF738FAF3
:1023E00000BF3920FEF7E3F90028FAD00220FEF7FB
:1023F00032FA00BFFEF738FA0828FBD110BD000002
:102400000020024010B586B00446012144F20400C9
:10241000FEF7F8FA4FF40070ADF8140018208DF8AC
:10242000170003208DF8160005A93B48FEF72EF88B
:102430004FF48060ADF8140004208DF8170005A952
:102440003548FEF723F801940020ADF80800ADF8F8
:102450000A00ADF80C00ADF810000C20ADF80E002D
:1024600001A92E48FEF777FB25208DF800000320F8
:102470008DF801008DF8020001208DF803006846F8
:10248000FDF73BFF012240F225512448FEF7FBFBFC
:1024900001212248FEF7EBFB06B010BD70B50446E3
:1024A0000D46E1B21D48FEF74FFC00BF40211B481E
:1024B000FEF7B8FC0028F9D0204670BD10B50446E0
:1024C00000BF20211548FEF7ADFC0028F9D01348C5
:1024D000FEF73EFC10BD10B540F225510F48FEF747
:1024E000B7FC90B10D48FEF733FC0D490D4A126858
:1024F00088540C480068401C0A4908600846006877
:102500001F2802D101200849086040F225510348E4
:10251000FEF7C8FC10BD0000000801400038014073
:10252000E00000202C000020300000200EB501212A
:102530000620FEF774FA6846FFF7D0FA4FF6FF70F0
:10254000ADF804000020ADF80000ADF80600ADF8CD
:1025500002006946FE48FEF795FF00221146FC483E
:10256000FFF793FB0121FA48FFF734FD2021F848DB
:10257000FFF71EFB0721F648FFF762FD8021F448B4
:10258000FFF767FD0121F248FFF7D8FB4FF6FF7018
:10259000ADF804004820ADF800000020ADF80600BA
:1025A000ADF802006946EB48FEF76CFF0121E948EF
:1025B000FFF7C4FB0421E748FFF742FD0121E5488E
:1025C000FFF714FD2021E348FFF731FD8021E148AA
:1025D000FFF73FFD0121DF48FFF7B0FA0121DC489A
:1025E000FFF7ACFA0EBD0020D94924310888000459
:1025F000D84924310988084470472DE9FF4F87B036
:102600000D4616469946169C00200690FFF7EBFFF4
:10261000D149086008460068D049096888420FD24D
:10262000CE4909684FF6FF72511ACB4A12688818D2
:1026300002F023FC0746CA4902F050FA06900BE06C
:10264000C5490968C54A1268881A02F016FC07468F
:10265000C34902F043FA0690BF480068BF490860CA
:10266000C049079802F008FA0790BE49284602F0D0
:1026700003FA0546BB49304602F0FEF906464846D5
:1026800002F02DFC0746B84AB84B02F00CFBCDE92E
:102690000401DDE9061002F0EFF90090B44801688A
:1026A000009802F091F9019002F019FC07464FF0F2
:1026B0006632B04B02F0F7FACDE90201DDE90423FE
:1026C00002F04AFA824602F01DFCA94908601498FB
:1026D00002F005FC0746A44AA44B02F0E4FACDE957
:1026E00002012846069902F0C7F98346A0484168CE
:1026F000584602F069F9824602F0F1FB07464FF0B6
:1027000066329C4B02F0CFFACDE90001DDE90223ED
:1027100002F022FACDE9040102F0F4FB944948608A
:10272000159802F0DCFB07468F4A904B02F0BBFA8B
:1027300082468B463046069902F09EF900908C48FE
:102740008168009802F040F9019002F0C8FB07464A
:102750004FF06632874B02F0A6FA52465B46CDE94F
:10276000020102F0F9F9CDE9040102F0CBFB804946
:102770008860084600682060084640686060084637
:102780008068A0600BB0BDE8F08F2DE9F04F91B0EC
:1027900082468B4615461E46FFF725FF6E490860A8
:1027A000084600686D49096888420FD26B4909687C
:1027B0004FF6FF72511A684A1268881802F05DFBE2
:1027C0006D490B9002F08AF904460BE062490968F2
:1027D000624A1268881A02F050FB67490B9002F0B7
:1027E0007DF904465C4800685C4908605D495046D4
:1027F00002F042F982465B49584602F03DF98346B1
:102800005849284602F038F905461B99084602F057
:1028100033F906901A99084602F02EF931460490D1
:10282000304602F029F90390049902F0CDF80590A2
:10283000069902F0C9F8079002F051FBCDE90801B2
:1028400003F068F8CDE90A0102F05CFB0F90304616
:102850000F9902F043F906460F991A9802F03EF9D3
:102860001A900F991B9802F039F91B9043480168A0
:102870004348006802F000F90A9042480168424863
:10288000006802F0F9F809900A9902F0EFF84FF0A9
:1028900080410B9002F0F0F80E903A4801683748FA
:1028A000006802F0E9F80A90374801683448006887
:1028B00002F0E2F809900A9902F086F84FF08041A0
:1028C0000B9002F0D9F80D902E480168006802F0D4
:1028D000D3F80B9029480168006802F0CDF8099000
:1028E00029480168006802F0C7F807902448016889
:1028F000006802F0C1F80690079902F0B7F8089056
:10290000099902F0B3F80A900B9902F05DF80C9067
:102910000D991B9802F0B0F80B900C991A9802F0E0
:10292000ABF80A900B9902F0A1F8074630460C99D3
:1029300002F0A2F80B900E991B9802F09DF80A90F5
:102940000B9902F093F880460E991A981EE0000049
:10295000000800400004004038000020340000203F
:102960000024744989A18B3A9A9999999999A93F18
:10297000000100206666EE3F0024F4494400002078
:102980003C000020480000204000002002F074F8C5
:102990000B9030460D9902F06FF80A900B9902F0F7
:1029A00065F88146FE49384602F066F80B90FD480E
:1029B00001680B9802F008F8FA490860F8494046A7
:1029C00002F05AF80B90F84801680B9801F0FCFFF0
:1029D000F5490860F249484602F04EF80B90F3487A
:1029E00001680B9801F0F0FFF04908603946F048A3
:1029F00002F042F851460A9001F0E6FF0B90E948D8
:102A000001680B9801F0E0FF82464146E84802F079
:102A100033F859460A9001F0D7FF0B90E24801685D
:102A20000B9801F0D1FF83464946E14802F024F8B3
:102A300029460A9001F0C8FF0B90DC4801680B980A
:102A400001F0C2FF05462946DA48006802F014F892
:102A500059460990D848006802F00EF80790D74808
:102A6000006880F000405146059002F005F806909D
:102A7000079901F0FBFF0890099901F0F7FF214643
:102A80000A9001F0F9FF0B90CD4801680B9801F016
:102A90009BFFCB4908605946C648006801F0ECFF2F
:102AA00029460990C448006801F0E6FF0790C44831
:102AB0000168504601F0E0FF0690079901F084FF9D
:102AC0000890099901F0D2FF21460A9001F0D4FF45
:102AD0000B90BA4801680B9801F076FFB74908607F
:102AE000B4480168504601F0C7FF29460990B34831
:102AF000006801F0C1FF59460790B148006801F035
:102B0000BBFF0690079901F0B1FF0890099901F009
:102B10005BFF21460A9001F0AFFF0B90A6480168C9
:102B20000B9801F051FFA44908600846016850461F
:102B300001F0A2FF59460990A048006801F09CFFEF
:102B4000294607909E48006801F096FF0690079975
:102B500001F03AFF0890099901F088FF21460A9098
:102B600001F08AFF0B90934801680B9801F02CFF4D
:102B70009049086008460168006801F07DFF0690F2
:102B80008D480168006801F077FF04908B48016868
:102B9000006801F071FF029089480168006801F047
:102BA0006BFF0190029901F00FFF0390049901F06F
:102BB0000BFF0590069901F007FF079002F08FF9CF
:102BC000CDE9080102F0A6FECDE90A0102F09AF96A
:102BD0000F907B480F99006801F080FF78490860EA
:102BE00076480F99006801F079FF744908607248CF
:102BF0000F99006801F072FF6F4908606D480F99E6
:102C0000006801F06BFF6B49086011B0BDE8F08F00
:102C10002DE9FC4704466B48B0F9000002F024F9A6
:102C200005466948B0F9000002F01EF906466748FB
:102C3000B0F9000002F018F907466548B0F9000045
:102C400002F012F980466348B0F9000002F00CF976
:102C500081466148B0F9000002F006F982463B4621
:102C600042464946CDE90065FFF78FFD54480068AC
:102C700020605248006860604F480068A0604D487E
:102C80000068E060BDE8FC872DE9F04F8FB0824618
:102C90000AA8FFF7BDFF4FF080400D9901F0ECFE50
:102CA00004900D9901F0E8FE81464FF040400C99E8
:102CB00001F0E2FE04900C9901F0DEFE83464946E5
:102CC00001F0D4FE80464FF07E5101F07DFE05906C
:102CD00002F005F906460F464FF080400A9901F0D0
:102CE000CBFE05900D9901F0C7FE81464FF0804064
:102CF0000B9901F0C1FE05900C9901F0BDFE8346D1
:102D0000494601F061FE804602F0E9F832463B4652
:102D1000CDE9060102F03EFD4FF066322F4BCDE9C2
:102D2000080101F0C0FF044602F0ECF8CAF8000008
:102D30002B48006802F0D3F806460F464FF080405B
:102D40000A9901F099FE03900C9901F095FE049008
:102D50004FF040400B9901F08FFE03900D9901F068
:102D60008BFE8346049901F02FFE059002F0B7F820
:102D7000CDE9060102F0C6FA4FF06632174BCDE9F5
:102D8000080101F090FF804632463B4601F085FF86
:102D9000044602F0B7F8CAF804001248006823E0BD
:102DA0006F12033C4C000020500000205400002013
:102DB000CDCCCC3F48000020440000204000002043
:102DC0003C000020760000207400002072000020EB
:102DD000700000206E0000206C00002066A64C40B1
:102DE0005C0000206000002002F079F8CDE90801C5
:102DF0004FF080400C9901F03FFE00900C9901F0DB
:102E00003BFE83464FF040400B9901F035FE0090A9
:102E10000B9901F031FE5946019001F027FE8146E1
:102E20004FF07E5101F0D0FD804602F058F8CDE918
:102E300002014FF080400A9901F01EFE01900B99AB
:102E400001F01AFE81464FF080400C9901F014FE0B
:102E500001900D9901F010FE8346494601F0B4FD42
:102E6000804602F03CF80646DDE9022302F092FCBF
:102E70004FF06632094BCDE9040101F014FFCDE9B2
:102E80000601DDE9082301F008FF044602F03AF8E4
:102E9000CAF808000FB0BDE8F08F000066A64C40ED
:102EA000002109E0002201E0531C9AB242F23413DF
:102EB0009A42F9DB4B1C99B28142F3DB70472DE952
:102EC000F04F93B0FE48407AFD49097A40EA01206C
:102ED000FC490988401A00B2FB490880F848C07ACA
:102EE000F749897A40EA0120F8490988401A00B276
:102EF000F7490880F248407BF149097B40EA01200C
:102F0000F4490988401A00B2F3490880EC48407837
:102F1000EB49097840EA0120F0490988401A00B2DB
:102F2000EF490880E648C078E549897840EA012001
:102F3000EC490988401A00B2EB490880E048407922
:102F4000DF49097940EA012000B2E8490880E448F5
:102F5000B0F90000B0F5004F02DB47F6FF7002E069
:102F6000DF48B0F90000DE4908800846B0F90000EB
:102F700010F5004F01DADE4802E0D948B0F9000050
:102F8000D7490880D848B0F90000B0F5004F02DBFF
:102F900047F6FF7002E0D448B0F90000D24908803B
:102FA0000846B0F9000010F5004F01DAD04802E001
:102FB000CD48B0F90000CC490880CC48B0F90000F9
:102FC000B0F5004F02DB47F6FF7002E0C748B0F9EA
:102FD0000000C64908800846B0F9000010F5004F0F
:102FE00001DAC34802E0C148B0F90000BF490880D7
:102FF000B548B0F90000B0F5004F02DB47F6FF70AE
:1030000002E0B148B0F90000AF4908800846B0F9C5
:10301000000010F5004F01DAB54802E0AA48B0F907
:103020000000A9490880AA48B0F90000B0F5004F97
:1030300002DB47F6FF7002E0A548B0F90000A449A2
:1030400008800846B0F9000010F5004F01DAA848E2
:1030500002E09F48B0F900009D4908809E48B0F901
:103060000000B0F5004F02DB47F6FF7002E09A481F
:10307000B0F90000984908800846B0F9000010F542
:10308000004F01DA9A4802E09348B0F900009249F3
:1030900008809548B0F9000001F0E6FE02909248E1
:1030A000B0F9000001F0E0FE0190029901F0E4FCAB
:1030B00004908E48B0F9000001F0D6FE02908B48D3
:1030C000B0F9000001F0D0FE0190029901F0D4FCAB
:1030D0000390049901F078FC059001F000FFCDE920
:1030E000060102F017FCCDE90A017D48B0F90000A5
:1030F00001F0BAFE079001F0F2FECDE90801DDE92A
:103100000A2301F042FECDE90C0102F033FA064633
:103110004FF06632774B01F0C6FD8246764A774B18
:1031200001F0BBFD80460022754B01F02EFE00220F
:10313000744BCDE90E0101F0B6FD04460022724B3E
:1031400001F0ABFDCDE9100101F0DCFE6F49086034
:103150006648B0F9000001F087FE02906348B0F9BC
:10316000000001F081FE0190029901F085FC0490BD
:103170005B48B0F9000001F077FE02905848B0F9C2
:10318000000001F071FE0190029901F075FC0390BE
:10319000049901F019FC059001F0A1FECDE90601AA
:1031A00002F0B8FBCDE908014F48B0F9000001F08A
:1031B0005BFE079001F093FE8046DDE9082301F0F5
:1031C000E4FD064602F0D6F94FF06632494BCDE9F0
:1031D0000A0101F068FD4E4A4E4BCDE90C0101F0A9
:1031E0005CFD4D4A4D4BCDE90E0101F0CEFD04468C
:1031F0000022444B01F057FD0022434BCDE9100162
:1032000001F04BFD824601F07DFE454908603648DD
:10321000B0F9000001F028FE02903348B0F9000038
:1032200001F022FE0190029901F026FC04902C4846
:10323000B0F9000001F018FE02902948B0F9000032
:1032400001F012FE0190029901F016FC039004991E
:1032500001F0BAFB059001F042FE824602F05AFBF3
:10326000CDE908012148B0F9000001F0FDFD8246DA
:1032700001F035FECDE90601DDE9082301F085FD09
:10328000CDE90A0102F076F94FF06632194BCDE92B
:103290000C0101F008FD234A234BCDE90E0101F09A
:1032A000FCFC06464FF06632204B01F06EFD0446F2
:1032B0000022144B01F0F7FC80460022124B37E04D
:1032C0000C010020780000206C0000207A00002013
:1032D0006E0000207C000020700000207E00002096
:1032E0007200002080000020740000207600002082
:1032F0000080FFFF66A64C4042E90B21E70256C062
:103300000010664000806640008056409400002017
:10331000C6850321594456C0E17A14AE4751664030
:10332000980000203BAA9A20EA7456C06676664050
:1033300001F0B3FCCDE9100101F0E4FDF6490860AD
:10334000F6480068002858D1F548007890B9002068
:10335000F4490880F4490880F4490880F449086079
:10336000F4490860F44908600120ED49087013B081
:10337000BDE8F08FEE480068F049B1F9001008444C
:10338000EB490860EB480068ED49B1F900100844CA
:10339000E8490860E8480068EA49B1F900100844C3
:1033A000E5490860DE480078C82821D1E048006877
:1033B000DB49097890FBF1F000B2DA490880DD487A
:1033C0000068D749097890FBF1F000B2D64908802F
:1033D000D9480068D249097890FBF1F000B2D3498E
:1033E00008800020CE4908700120CC490860BEE763
:1033F000CB480078401CCA490870D34800680028B0
:103400004ED1D248007880B90020D1490880D149F6
:103410000880D1490880D1490860D1490860D14964
:1034200008600120C9490870A1E7CC480068CE496E
:10343000B1F900100844C9490860C9480068CB497F
:10344000B1F900100844C6490860C0480078C8288F
:1034500021D1C2480068BD49097890FBF1F000B263
:10346000BB490880BE480068B849097890FBF1F074
:1034700000B2B8490880BB480068B449097890FB9D
:10348000F1F000B2B44908800020B0490870012072
:10349000AD4908606BE7AD480078401CAB49087047
:1034A00000BF64E72DE9FF4F81B00E4617461D4669
:1034B0004FF00008C146C246019801F0D5FCAC4966
:1034C000AC4A127841F82200304601F0CDFCAA49FE
:1034D000A84A127841F82200384601F0C5FCA749F5
:1034E000A44A127841F8220000242BE0404601F063
:1034F000BBFC00909E4850F82410009801F064FA3C
:10350000834601F0BFFC8046484601F0ADFC0090C8
:10351000994850F82410009801F056FA834601F0BB
:10352000B1FC8146504601F09FFC0090934850F852
:103530002410009801F048FA834601F0A3FC82466B
:10354000601CC4B2142CD1DB142098FBF0F000B244
:103550002880142099FBF0F000B2688014209AFBB8
:10356000F0F000B2A88083480078401C81490870C0
:1035700008460078142801D10020087005B0BDE885
:10358000F08F10B57E4B0E223B21D02000F0FEFEC6
:1035900010BDF8B506460F4614461D466B4601227F
:1035A0003946304600F031FF2DB10120A0409DF892
:1035B0000010084305E00120A0409DF8001021EA1A
:1035C0000000C0B200906B4601223946304600F040
:1035D0009DFFF8BD2DE9F8430746884614461D4671
:1035E000089E6B4601224146384600F00EFF601CE3
:1035F000FF2101FA00F0C4F108012944491EFF220D
:103600000A41104300F0FF09C5F1080006FA00F076
:10361000C6B2C4F1070006419DF8000000EA0900A7
:1036200000909DF80000304300906B460122414617
:10363000384600F06BFFBDE8F88338B50446032335
:1036400002226B21D0200094FFF7C4FF38BD38B5AB
:103650000446022304221B21D0200094FFF7BAFF66
:1036600038BD38B50446022304221C21D020009422
:10367000FFF7B0FF38BD10B50446234606226B2184
:10368000D020FFF786FF10BD10B504462346052263
:103690006A21D020FFF77DFF10BD10B504462346F8
:1036A00001223721D020FFF774FF10BD38B5044642
:1036B000032302221A21D0200094FFF78BFF38BD8C
:1036C00010B50020FFF7D7FFC820FFF7E9FB012066
:1036D000FFF7B3FF3220FFF7E3FB0320FFF7B7FF4D
:1036E0003220FFF7DDFB0120FFF7BBFF3220FFF7A1
:1036F000D7FB0320FFF7DAFF3220FFF7D1FB0020D2
:10370000FFF7C2FF3220FFF7CBFB0120FFF7C5FF19
:103710003220FFF7C5FB10BD9C0000208800002070
:10372000AC000020780000207A0000207C000020FF
:10373000A0000020A4000020A80000206C000020B1
:103740006E000020700000208C000020BC000020D3
:103750007E0000208000002082000020B0000020B9
:10376000B4000020B8000020720000207400002087
:1037700028010020BD00002078010020C8010020A1
:103780000C010020FB490A780978491CF94B197093
:10379000F94988547047F7490A780978491CF54B6C
:1037A0001970F6498854704711B500209DF8012022
:1037B000F0490B780978491CEE4C2170EE49CA5447
:1037C0009DF8003021460A780978491C2170EA49A1
:1037D0008B549DF801100144C8B29DF800100144BB
:1037E000C8B218BD11B500209DF80120E1490B7841
:1037F0000978491CDF4C2170DF49CA549DF800301C
:1038000021460A780978491C2170DB498B549DF8C0
:1038100001100144C8B29DF800100144C8B218BD9F
:1038200011B500209DF80320D2490B780978491C76
:10383000D04C2170D049CA549DF8022021460B7803
:103840000978491C2170CC49CA549DF801202146B1
:103850000B780978491C2170C749CA549DF800208B
:1038600021460B780978491C2170C349CA549DF838
:1038700003100144C8B29DF802100144C8B29DF87B
:1038800001100144C8B29DF800100144C8B218BD2F
:1038900011B500240020B74908708820FFF77BFF8E
:1038A0002044C4B2A120FFF776FF2044C4B2022016
:1038B000FFF771FF2044C4B29DF80100FFF76BFFD2
:1038C0002044C4B29DF80000FFF765FF2044C4B255
:1038D0002046FFF760FF18BD30B5054600240020E4
:1038E000A44908708820FFF74DFF2044C4B2A120EE
:1038F000FFF748FF2044C4B20220FFF743FF2044F3
:10390000C4B22846FFF750FF2044C4B22046FFF758
:1039100039FF30BD30B505460024002095490870B8
:103920008820FFF72FFF2044C4B2A120FFF72AFF11
:103930002044C4B20220FFF725FF2044C4B2284629
:10394000FFF750FF2044C4B22046FFF71BFF30BDF5
:10395000F0B507460D46164600240020854908703C
:103960008820FFF70FFF2044C4B2A120FFF70AFF11
:103970002044C4B20620FFF705FF2044C4B23846F5
:10398000FFF730FF2044C4B22846FFF72BFF204446
:10399000C4B23046FFF726FF2044C4B22046FFF7EA
:1039A000F1FEF0BD2DE9F04180460D4616461F465A
:1039B000002400206F4908708820FFF7E3FE2044B0
:1039C000C4B24046FFF7DEFE2044C4B20C20FFF72D
:1039D000D9FE2044C4B22846FFF722FF2044C4B2D7
:1039E0003046FFF71DFF2044C4B23846FFF718FFEA
:1039F0002044C4B22046FFF7C5FEBDE8F08130B5D3
:103A00000546002400205B4908708820FFF7BAFEB5
:103A10002044C4B2A120FFF7B5FE2044C4B2012067
:103A2000FFF7B0FE2044C4B22846FFF7ABFE2044A7
:103A3000C4B22046FFF7A6FE30BD1FB5002400200B
:103A40004C4908708820FFF79DFE2044C4B2AF2087
:103A5000FFF798FE2044C4B21C20FFF793FE2044D9
:103A6000C4B29DF80100FFF78DFE2044C4B29DF85A
:103A70000000FFF787FE2044C4B29DF80500FFF761
:103A800081FE2044C4B29DF80400FFF77BFE204471
:103A9000C4B29DF80900FFF775FE2044C4B29DF83A
:103AA0000800FFF76FFE2044C4B29DF80D00FFF739
:103AB00069FE2044C4B29DF80C00FFF763FE204469
:103AC000C4B29DF81900FFF75DFE2044C4B29DF812
:103AD0001800FFF757FE2044C4B29DF81D00FFF701
:103AE00051FE2044C4B29DF81C00FFF74BFE204459
:103AF000C4B20020FFF746FE0020FFF743FE00207F
:103B0000FFF740FE0020FFF73DFE0020FFF73AFEE2
:103B10000020FFF737FE9DF82100FFF733FE204419
:103B2000C4B29DF82000FFF72DFE2044C4B29DF8DA
:103B30002500FFF727FE2044C4B29DF82400FFF7BC
:103B400021FE2044C4B20020FFF71CFE0020FFF736
:103B500019FE0020FFF716FE0020FFF713FE0020DD
:103B6000FFF710FE0020FFF70DFE2046FFF70AFECC
:103B70001FBD0000C400002018020020BE0000206D
:103B80001FB500240020FD4908708820FFF7FAFDCA
:103B90002044C4B2AE20FFF7F5FD2044C4B21C207F
:103BA000FFF7F0FD2044C4B20020FFF7EBFD00203A
:103BB000FFF7E8FD0020FFF7E5FD0020FFF7E2FD3D
:103BC0000020FFF7DFFD0020FFF7DCFD0020FFF7FE
:103BD000D9FD0020FFF7D6FD0020FFF7D3FD002020
:103BE000FFF7D0FD0020FFF7CDFD0020FFF7CAFD55
:103BF0000020FFF7C7FD0020FFF7C4FD0020FFF7FE
:103C0000C1FD0020FFF7BEFD0020FFF7BBFD002037
:103C1000FFF7B8FD9DF80100FFF7B4FD2044C4B2E2
:103C20009DF80000FFF7AEFD2044C4B29DF80500EA
:103C3000FFF7A8FD2044C4B29DF80400FFF7A2FDE1
:103C40002044C4B29DF80900FFF79CFD2044C4B293
:103C50009DF80800FFF796FD2044C4B29DF80D00C2
:103C6000FFF790FD2044C4B29DF80C00FFF78AFDD9
:103C70002044C4B29DF81900FFF784FD2044C4B26B
:103C80009DF81800FFF77EFD2044C4B22046FFF7E0
:103C900079FD1FBD1FB500240020B8490870882099
:103CA000FFF770FD2044C4B2AC20FFF76BFD204449
:103CB000C4B21C20FFF766FD2044C4B2AD20FFF75C
:103CC00061FD2044C4B29DF80100FFF75BFD204474
:103CD000C4B29DF80000FFF755FD2044C4B29DF822
:103CE0000500FFF74FFD2044C4B29DF80400FFF724
:103CF00049FD2044C4B29DF80900FFF743FD20446C
:103D0000C4B29DF80800FFF73DFD2044C4B29DF801
:103D10000D00FFF737FD2044C4B29DF80C00FFF7FB
:103D200031FD2044C4B29DF81900FFF72BFD20445B
:103D3000C4B29DF81800FFF725FD2044C4B29DF8D9
:103D40001D00FFF71FFD2044C4B29DF81C00FFF7C3
:103D500019FD2044C4B20020FFF714FD0020FFF736
:103D600011FD0020FFF70EFD0020FFF70BFD0020E6
:103D7000FFF708FD0020FFF705FD0020FFF702FD1B
:103D80000020FFF7FFFC0020FFF7FCFC0020FFF7FE
:103D9000F9FC0020FFF7F6FC0020FFF7F3FC002001
:103DA000FFF7F0FC0020FFF7EDFC0020FFF7EAFC36
:103DB0002046FFF7E7FC1FBD70B50446002506E06E
:103DC00029466A1CD5B26E4A505C01F0F7F9A5424B
:103DD000F6DB70BD70B50446002506E029466A1C76
:103DE000D5B2684A505C01F0E9F9A542F6DB70BD36
:103DF00010B50D2001F0E2F90A2001F0DFF910BD45
:103E000070B5044642F21070B4FBF0F03030C5B229
:103E1000284601F0D3F942F21070B4FBF0F100FB38
:103E200011404FF47A71B0FBF1F03030C5B2284642
:103E300001F0C4F94FF47A70B4FBF0F100FB1140CB
:103E40006421B0FBF1F03030C5B2284601F0B6F97C
:103E50006420B4FBF0F100FB11400A21B0FBF1F04B
:103E600000F13005284601F0A9F90A20B4FBF0F171
:103E700000FB114000F13005284601F09FF970BDAC
:103E800070B504464FF47A70B4FBF0F03030C5B230
:103E9000284601F093F94FF47A70B4FBF0F100FB7F
:103EA00011406421B0FBF1F03030C5B2284601F07A
:103EB00085F96420B4FBF0F100FB11400A21B0FB4E
:103EC000F1F000F13005284601F078F90A20B4FB42
:103ED000F0F100FB114000F13005284601F06EF9C9
:103EE00070BD70B504466420B4FBF0F03030C5B24C
:103EF000284601F063F96420B4FBF0F100FB1140A7
:103F00000A21B0FBF1F000F13005284601F056F926
:103F10000A20B4FBF0F100FB114000F13005284607
:103F200001F04CF970BD70B504460A20B4FBF0F006
:103F30003030C5B2284601F041F90A20B4FBF0F157
:103F400000FB114000F13005284601F037F970BD43
:103F50002DE9FC5F4FF00009002400BF06E00A488D
:103F6000005D484400F0FF09601CC4B21F2CF6DB62
:103F70000548C07F484509D0BDE8FC9FC40000202B
:103F800018020020BE000020E00000206D480078EC
:103F90008A2800D0F0E76B4840788B287ED16948AA
:103FA00080781C28FAD16748C078AD2843D166498B
:103FB0008868664900F060FD019000F07CFF85B2E2
:103FC00061494868614900F057FD019000F073FFB6
:103FD00086B25D4908685D4900F04EFD019000F031
:103FE0006AFF87B25A498868584900F045FD019038
:103FF00000F061FF1FFA80F855494868534900F006
:104000003BFD019000F057FF1FFA80FA5049086805
:104010004E4900F031FD019000F04DFF1FFA80FB8A
:104020003B46424651465846CDE90065FFF732FE11
:104030002020FFF7C1FE4348C078AE287FD1414918
:104040004979404A127941EA022000F00DFF824688
:1040500000F045FF074600223E4B00F096FE054665
:1040600000F050FF3A4908603649C979354A9279DB
:1040700041EA022000F0F8FE824600F030FF0746D9
:104080000022344B00F081FE054600F03BFF304932
:1040900048602C49497A2B4A127A00E04FE041EA05
:1040A000022000F0E1FE824600F019FF07460022E0
:1040B000284B00F06AFE054600F024FF2449886082
:1040C0002049C97A1F4A927A41EA022000F0CCFEC8
:1040D000824600F004FF074600221E4B00F055FE0A
:1040E000054600F00FFF184908601649497B154A3C
:1040F000127B41EA022000F0B7FE824600F0EFFE9C
:1041000007460022134B00F040FE054600F0FAFE81
:104110000D4948600B49C97B0A4A927B41EA02205B
:1041200000F0A2FE824600F0DAFE07460022094BAC
:1041300000F02BFE054600F0E5FE0349886000BF55
:104140001AE70000E0000020480200200000C842FA
:104150003802002000005940002109E0002201E05F
:10416000531C9AB242F234139A42F9DB4B1C99B2B7
:104170008142F3DB704708B500214FF48000FCF763
:104180004EFC4FF48060ADF8000003208DF8020073
:1041900010208DF803006946FD48FCF777F90520EB
:1041A000FFF7DAFF4FF48061F948FCF71CFA4FF48F
:1041B0008061F748FCF719FA4FF48061F448FCF786
:1041C00012FA4FF48061F248FCF70FFA4FF4806165
:1041D000EF48FCF708FA4FF48061ED48FCF705FA68
:1041E0004FF48061EA48FCF7FEF94FF48061E8483B
:1041F000FCF7FBF94FF48061E548FCF7F4F94FF464
:104200008061E348FCF7F1F94FF48061E048FCF786
:10421000EAF94FF48061DE48FCF7E7F94FF480617A
:10422000DB48FCF7E0F94FF48061D948FCF7DDF991
:104230004FF48061D648FCF7D6F94FF48061D4483A
:10424000FCF7D3F94FF48061D148FCF7CCF94FF477
:104250008061CF48FCF7C9F94FF48061CC48FCF786
:10426000C2F94FF48061CA48FCF7BFF94FF480608F
:10427000ADF8000003208DF802001C208DF803002B
:104280006946C348FCF702F901218805FCF7C7FB22
:1042900008BD2DE9F04387B004460D4617461E467B
:1042A000DDE90E8901210820FCF7ACFBFFF763FF75
:1042B00001218805FCF7B3FB4FF44060ADF818000E
:1042C00003208DF81A001C208DF81B0006A9B048A9
:1042D000FCF7DCF8AF48FCF7FFFD0021AD48FCF728
:1042E00092FE0020ADF80C004BF6FF70ADF80E000A
:1042F000ADF810404FF48060ADF812000001ADF849
:104300001400029502A9A348FCF7FFFD0121A14872
:10431000FCF779FE01219F48FCF7B1FE4FF4A06045
:10432000FBF7E6FF22208DF804008DF805708DF86C
:10433000066001208DF8070001A8FBF7DEFF2120B1
:104340008DF804008DF805808DF8069001208DF819
:10435000070001A8FBF7D1FF07B0BDE8F0834FF4D9
:1043600080608B49143108608948001D006840F462
:1043700080608749091D086070478548001D0068F6
:1043800040F440608249091D0860704730B504461A
:104390008148007808B1002030BD80480470804812
:1043A00001708048027080480270804803600120DC
:1043B0007F4D287000207F4D28707F4D28707548F4
:1043C000001D008840F48070724D2D1D2880284605
:1043D000008840F400702880284600884FF6FF359A
:1043E00028406C4D2D1D2880281F008840F48060D7
:1043F0002D1F28800120684D28706648008840F4F1
:104400008070644D28800120C6E730B504466248BC
:10441000007808B1002030BD604804706048017029
:104420006048027060480270604803600120604D7F
:10443000287000205F4D28705F4D28705548001D82
:10444000008840F48070534D2D1D28802846008838
:1044500040F400702880284600884FF6FF35284039
:104460004C4D2D1D2880281F008840F480602D1F92
:1044700028800120484D28704648008840F480700C
:10448000444D288000BF444800780028FBD101201B
:10449000C1E730B504464048007808B1002030BD7F
:1044A0003E4804703E4801703E4802703E4802702B
:1044B0003E48036000203E4D28703E4D28703E4D22
:1044C00028700120344D28703248001D008840F4C7
:1044D0008070304D2D1D28802846008840F40070E3
:1044E0002880284600884FF6FF352840294D2D1D8D
:1044F0002880281F008840F480602D1F28802846CF
:10450000008840F4807028800120C8E730B5044658
:104510002148007808B1002030BD204804702048B0
:10452000017020480270204802702048036000207B
:104530001F4D28701F4D28701F4D28700120164DEB
:1045400028701448001D008840F48070114D2D1D06
:1045500028802846008840F400702880284600887B
:104560004FF6FF3528400B4D2D1D2880281F008851
:1045700040F480602D1F28802846008840F4807019
:10458000288000BF044800780028FBD10120C3E741
:10459000000C014000580040D7000020CC00002053
:1045A000CD000020CF000020CE000020D000002051
:1045B000D4000020D5000020D600002000B5ED4832
:1045C000007800287DD0EC48007801287AD1EB48AB
:1045D000008800F0010030B1E9480078401CE7494C
:1045E000091F088000BDE7480078012844D1E3484E
:1045F000008800F00200F8B1E0481038008840F46C
:104600008060DE4910390880081F00884FF6FF31AE
:104610000840DA4914390880FFF7A1FED748001D89
:104620000088D6481438008840F40070D349143903
:104630000880FFF7A2FED5E7D048008800F04000D0
:1046400000287BD0CD48103800884FF6FF31084055
:10465000CA4910390880C948001F0088CA4909683A
:104660000870002000E0401CC84909688842FAD35D
:104670000020C7490870B5E7C2480078022867D112
:10468000BE48008800F0020018B3BC481438008807
:1046900040F40060B949143908800846008840F4A5
:1046A00080600880FFF75BFEB448001D0088B348B7
:1046B000143800884FF6FF310840B049143908809B
:1046C00001E0F8E0CCE0FFF758FE0120B1490870A6
:1046D00088E7AA48008800F004000028B1D0AD485F
:1046E00000780028ADD0FFF73AFEA44814380088BF
:1046F00040F40070A14914390880084600884FF240
:10470000FF7108409D49143908800846008840F42C
:10471000806008809948001F00889B4909680870DC
:10472000FFF72BFE98480068401C974908609348A3
:10473000001F008809680870002001E008E1401CA3
:10474000924909688842FAD300209149087049E7E4
:104750008A48008800F0020070B188481438008848
:1047600040F480608549143908808448001D008821
:1047700001208849087035E78048008800F004006F
:104780000028ABD0834800780028A7D08248007862
:10479000032810DD7948001F00887B4909680870EC
:1047A00079480068401C784908607B480078401EC2
:1047B0007949087016E778480078032819D16F48BE
:1047C000143800884FF6FF3108406C4914390880CE
:1047D0006A48001F00886C49096808706A480068C8
:1047E000401C694908606C480078401E6A4908709E
:1047F000F8E6FFF7B4FD61481438008840F4007013
:104800005E49143908805D48001F00885E490968C8
:1048100008705D480068401C5B4908605E4800788D
:10482000401E5D490870FFF7A8FD5448001F00882E
:1048300055490968087054480068401C524908608E
:1048400055480078401E54490870002000E0401C84
:104850004E4909688842FAD300204D490870C1E6E4
:104860004648008800F0010028B1454800784349D7
:10487000091F0880B6E64148008800F0020040B1F8
:104880003E48001D0088454800783C49091F0880C3
:10489000A8E63A48008800F00400002858D001201B
:1048A0003549087035481438008840F48070334921
:1048B0001439088096E63148008800F0010028B1DC
:1048C0002F4800782D49091F08808BE62B48008867
:1048D00000F0020068B12948008800F0800040B173
:1048E0002648001D00882D4800782449091F0880AB
:1048F00078E62248008800F0040048B31F4800888A
:1049000000F0800020B32048006800781B49091F90
:10491000088021480078401E1F4908701A48006826
:10492000401C194908601C48007888B9134814389D
:10493000008840F40070114914390880002000E01C
:10494000401C124909688842FAD3002010490870B7
:1049500000BF47E61CB5FFF70EFC012000900346A0
:1049600002460F4901900020FFF793FC0020084900
:1049700008701CBDD4000020D50000201458004051
:10498000CC000020CE000020D0000020C800002075
:10499000D7000020D6000020CF000020CD0000204E
:1049A000801A0600D2B201E000F8012B491EFBD2AA
:1049B00070470022F6E710B513460A46044619462A
:1049C000FFF7F0FF204610BDF0B480EA0102D40FDB
:1049D0004200B2EB410F02D20246084611464A009D
:1049E00042D0C30DDDB2C1F3C752AD1A202D35DA66
:1049F000C1F3160141F4000204B15242C5F1200690
:104A000002FA06F12A411044B3EBD05F23D0C4B1BF
:104A1000012DA0EBC35009DCF0BC4FF0004202EACC
:104A2000C352DBB200F5000000F0B2BA400000F162
:104A3000807000EBC350A0F1807040EAD170490053
:104A400009E0490841EAC071A0EBC35000F500003D
:104A5000400800EBC350F0BC00F091BA6142012263
:104A600002EB4101001BF6E7F0BC704781F000410A
:104A7000AAE780F00040A7E780EA010210B502F043
:104A80000043400022D04A001FD0010E01EB12610A
:104A9000C0F35600C2F3560240F4000042F4000294
:104AA000A0FB022000047F39140400D0401C50EA0F
:104AB000124001D44000491EC2B20C0604EBD010D3
:104AC000401C4008802A02D003E0002010BD20F0E6
:104AD0000100002900DA0020184310BD30B480EA3C
:104AE000010202F0004530F0004221F0004013D0F6
:104AF00090B1C30DD40DC2F31601C0F31600E41A31
:104B000041F4000140F400027D34914201D3641C61
:104B100000E04900002C02DA30BC002070474FF45E
:104B200000000023914201D3891A034340084FEA51
:104B30004101F7D151B1914202D14FF0004105E05E
:104B400002D24FF0010101E06FF0010103EBC4500C
:104B5000284430BC00F013BA2DE9FE4F804681EAAC
:104B60000300C00F0C46009021F0004123F00045E7
:104B7000B8EB0200A94105D24046214690461C46AA
:104B80000B46024623F00040104347D0270DC7F3E1
:104B90000A00C3F30A510290401A019040286BDAD0
:104BA000C3F3130040F4801B0098924620B1002309
:104BB000D2EB030A63EB0B0B01985946C0F140029C
:104BC000504600F0BBF906460D4650465946019A3C
:104BD00000F0C3F910EB08006141002487EA11528C
:104BE00084EAE7731A4340D0009A62B3019A012A1B
:104BF0004FEA075215DC001B61EB02014FF0004247
:104C000002EA0752CDE90042001C41F5801132460C
:104C10002B4600F0FAF903B0BDE8F08F404621467C
:104C2000F9E7001B61EB0201001C41F5801300183D
:104C30005B412018A2F5001747EB030140EAD5704D
:104C4000B6196D4111E06D084FEA360645EAC075A8
:104C50004FEA0752001B61EB0201001C41F5801175
:104C600049084FEA30000019514132462B4603B043
:104C7000BDE8F04F00F0BAB90098012240000023CF
:104C8000D0EB020263EBE073009821464FEAE07438
:104C9000B8EB000061EB0401E9E783F000435BE758
:104CA00081F0004158E72DE9FE4F81EA030404F04A
:104CB000004421F0004100944FF0000B23F000432A
:104CC00050EA01045ED052EA03045BD0C3F30A54F5
:104CD000C1F30A552C44A4F2F3340194A0FB02540E
:104CE000C1F3130141F48011C3F3130343F48013A0
:104CF00001FB024400FB034E840A970A44EA8154F4
:104D000047EA8357A4FB076802958D0A05FB0785D0
:104D10004FEA932C04FB0C542705029D4FEA0658DA
:104D200047EA1637B5EB08056EEB070C870E920EB7
:104D300047EA811742EA8312A7FB0201B6EB0B0197
:104D400064EB00042B0D43EA0C335E1844EB1C505B
:104D5000DA465146E7FB0201C5F313044FEA0B3371
:104D600043EA14534FEA0432019C43EA0603A4F1D8
:104D70000C040294009CCDE900B400F046F903B0A5
:104D8000BDE8F08F00200146F9E72DE9F04D81EAFA
:104D9000030404F0004B21F0004514464FF0000AD4
:104DA00023F0004150EA050220D054EA01021DD050
:104DB000C5F30A570246C5F31303C1F31300C1F349
:104DC0000A5640F4801543F48013A7EB0608101B25
:104DD000D64608F2FD3873EB050002D308F101084E
:104DE00001E092185B41B8F1000F03DA00200146A0
:104DF000BDE8F08D00204FF48011064684460EE099
:104E0000171B73EB050705D3121B63EB0503064362
:104E10004CEA010C49084FEA300092185B4150EA15
:104E20000107EDD152EA030012D082EA040083EABE
:104E30000501084305D0101BAB4106D20122002317
:104E400006E000224FF0004302E06FF00102531031
:104E50001AEB06004CEB085110EB0A0041EB0B017A
:104E6000BDE8F04D00F0C2B8C10F80EAE070084420
:104E7000CA079623002100F08BB896230022114622
:104E800000F086B800F0004220F00040C10DC0F3F1
:104E9000160040F400007F2901DA002070479629AF
:104EA00003DCC1F19601C84001E096398840002A30
:104EB000F4D04042704720F00040C10DC0F316000E
:104EC00040F400007F2901DA00207047962903DCB6
:104ED000C1F19601C840704796398840704700F08C
:104EE000004230F000400AD0C10D01F56071C0F3FE
:104EF000160042EA0151C2084007114370470020E2
:104F00000146704701F0004330B421F0004150EAFF
:104F1000010206D00A0DA2F56072C1F31301002A46
:104F200002DC30BC00207047440F44EAC104C100D9
:104F3000E01830BC00EBC25000F021B8202A04DB9E
:104F4000203A00FA02F1002070479140C2F120039C
:104F500020FA03F3194390407047202A06DBCB1751
:104F6000203A41FA02F043EAE07306E041FA02F324
:104F7000D040C2F1200291400843194670470029F1
:104F8000A8BF7047401C490008BF20F001007047CF
:104F900010B4B0FA80FC00FA0CF050EA010404BF2F
:104FA00010BC704749B1CCF1200421FA04F411FA85
:104FB0000CF118BF012121430843A3EB0C01CB1DC9
:104FC0004FEA00614FEA102042BF002010BC70473A
:104FD00000EBC35010440029A4BF10BC7047401C14
:104FE000490008BF20F0010010BC704710B5141E26
:104FF00073F1000408DA401C41F1000192185B4192
:105000001A4301D120F0010010BD2DE9F04D924668
:105010009B4611B1B1FA81F202E0B0FA80F220327F
:105020009046FFF78BFF04460F4640EA0A0041EA2C
:105030000B0153465A46084313D0114653EA010068
:1050400019D0C8F14002504600F0A8F805460E46B7
:10505000504659464246FFF771FF084305D00120EC
:1050600004E020463946BDE8F08D0020054346EABD
:10507000E0762C4337430A986305E40AA0EB080066
:105080000022FD0A44EA47540A3002D500200146B6
:10509000E9E7010510196941DDE908450019694191
:1050A000BDE8F04DA2E770B521F0004303430CD0FA
:1050B000C1F30A550024D5EB040564EB0403D617AD
:1050C000AD1AB34102DB0020014670BD201841EB50
:1050D000025170BD2DE9F04D00231A461B1A8A417A
:1050E00003DB00200146BDE8F08DC1F30A52C1F395
:1050F000130141F480154FF0000BD10702D10018C5
:105100006D41521E0027044640F2FF11384601EB64
:10511000620A3E468046024600204FF4801100F0AD
:105120003DF8C2197141BB1846EB0100B4EB030C0A
:1051300075EB000C04D3E41A65EB000517460E4628
:10514000241908F101006D4180463428E3DDF91986
:1051500046EB0600091BA84103D24FF0FF3213466D
:1051600001E0002213461BEB070046EB0A51BDE8A5
:10517000F04DFFF73BBF0000064C074D06E0E0682E
:1051800040F0010394E8070098471034AC42F6D38E
:10519000FAF7B0FF505A0008705A0008202A04DBC2
:1051A000203A21FA02F00021704721FA02F3D040A0
:1051B000C2F12002914008431946704710B50446D9
:1051C00021460648FBF7C0FD00BF40210348FBF71E
:1051D00029FE0028F9D0204610BD0000003801400B
:1051E000490050EAC12018BF04204A0D18BF40F002
:1051F000010040F2FF72B2EB515F08BF40F00200C5
:10520000012808BF052070472DE9F0414F1E00EB33
:10521000C7010446D1E9000115461E4637F00602D3
:105220000DD02A463346FFF73EFD7F1E04EBC70331
:10523000D3E90023FFF790FC37F00602F1D1022FEB
:1052400025D0042F13D0062F18BFBDE8F0812A46C1
:105250003346FFF728FDD4E90A23FFF77DFC2A46F1
:105260003346FFF720FDD4E90823FFF775FC2A46F3
:105270003346FFF718FDD4E90623FFF76DFC2A46F5
:105280003346FFF710FDD4E90423FFF765FC2A46F7
:105290003346FFF708FDD4E90223FFF75DFC2A46F9
:1052A0003346FFF700FDD4E90023BDE8F041FFF7E6
:1052B00053BC0122FFF7F7BEFFF74EBC0022134696
:1052C00010461146FFF761BD024A00201107FFF7A3
:1052D000EABE000001FDFFFF02E008C8121F08C17E
:1052E000002AFAD170477047002001E001C1121F67
:1052F000002AFBD170470000014908607047000098
:10530000DC0000202DE9F04D8D4F21F0004A86B0E1
:1053100005460C46BA452ADBAAEB070028430AD00B
:105320008848824501DC1AD1CDB106B02846BDE8D7
:10533000F04DFFF7BEBF844A844B2846FFF7B3FC0D
:1053400007460E46824A834B28462146FFF7ABFCB0
:1053500006B03A463346BDE8F04DFFF7FDBB0120ED
:10536000FFF7CAFF06B0BDE8F04DFFF7A7BF7A48C8
:10537000824542DABAF1795F0BDA2846FFF730FF4F
:10538000042808BFFFF7A0FF284606B02146BDE865
:10539000F08D2A460B461046FFF785FC83460246F1
:1053A0006E480E460B4606217844FFF72DFF5A46FD
:1053B0003346FFF778FC804669488A465A463346AA
:1053C00004217844FFF720FF5A463346FFF76BFC71
:1053D00000223B46FFF7C0FB02460B4640465146C3
:1053E000FFF7D3FC2A462346FFF75DFC06B02A46AA
:1053F0002346BDE8F04DFFF7AFBB284624F000413F
:1054000000223D463B46FFF74BFC4FF0FF32FFF7D3
:105410004AFE0646024653480F460B46062178448C
:10542000FFF7F2FE32463B46FFF73DFCCDE90001B7
:105430004D4832463B4604217844FFF7E5FE3246AC
:105440003B46FFF730FC00222B46FFF785FB8346E7
:1054500002913046394600F05DFA804643480D46D9
:10546000504517DCDDE900015A46029BFFF78DFC31
:1054700042462B46FFF717FC42462B46FFF76CFBD4
:105480000122FFF710FE304A304BFFF706FC304A8E
:10549000304B4CE04FF0000A52460B464046FFF7B7
:1054A0005BFBCDE9031052462B4610461946FFF729
:1054B000FAFB32463B46FFF7F3FBDDE90332FFF729
:1054C00064FC06460F46DDE900015A46029BFFF7E1
:1054D0005CFC83460091012230463946FFF7E3FD2C
:1054E000194A1A4BFFF7DCFB06460F4601224046DD
:1054F0002946FFF7D8FD5A46009BFFF7D4FB3246FA
:105500003B46FFF7CAFB06460F4601225046294696
:10551000FFF7C9FD0E4DDFF858802A464346FFF7D6
:10552000BFFB32463B46FFF7BBFB2A464346FFF72D
:10553000B7FB002CD8BF81F0004106B0BDE8F08D6C
:105540000000F03F0000F07F075C143326A6913C7A
:10555000182D4454FB21F93F0000E03FB405000042
:10556000CA0500003E050000540500003333EF3F3C
:10557000FB21E93F2DE9F84F04460D4621F000409C
:1055800000917349814211DC7249884201DC06D1E5
:105590002CB120462946BDE8F84FFFF78ABE6E4879
:1055A000002DCCBF6D496E49BDE8F88F6D49814231
:1055B00011DD6D498142D8BF4FF0FF366DDD2046C9
:1055C0002946FFF70DFE042808BFFFF77DFE2046A1
:1055D0002946BDE8F88F6549654F25F000458142B1
:1055E00033DD6449814219DD002632464FF08043A5
:1055F00020462946FFF7B0FA80468A460122204617
:105600002946FFF750FD00223B46FFF746FB424686
:105610005346FFF7BAFB04460D463EE00126002242
:10562000BA463B4620462946FFF796FA80460F4683
:105630000022534620462946FFF72FFB42463B46B1
:10564000FFF7A3FB04460D4627E04B4981421BDDD3
:10565000DFF828A102260022534620462946FFF7FC
:1056600022FB00223B46FFF777FA80460F460022D6
:10567000534620462946FFF710FB42463B46FFF7BC
:1056800084FB04460D4608E0032622462B460020F4
:105690003B49FFF77AFB04460D4622462B4610464F
:1056A0001946FFF700FB8B46824602460B46FFF782
:1056B000FAFA07460246334888460B4606217844E4
:1056C000FFF7A2FD52465B46FFF7EDFA82462E48F1
:1056D0008B463A46434605217844FFF795FD3A4606
:1056E0004346FFF7E0FA02460B46002E5046594665
:1056F0000CDAFFF731FA22462B46FFF7D4FA01B055
:1057000022462B46BDE8F04FFFF7CABAFFF724FA4E
:1057100022462B46FFF7C7FA1C4A7A4402EBC6031F
:10572000D3E90023FFF7B9FA22462B46FFF7B5FA73
:10573000174A7A4402EBC603D3E90023FFF7B0FA15
:10574000009A002AB8BF81F00041BDE8F88F000040
:10575000000010440000F07F182D4454FB21F93F55
:10576000FB21F9BF0000DC3F0000203E0000F33FBA
:105770000000F03F0000E63F008003400000F83FDB
:105780000000F0BF5603000014030000B202000046
:105790007A0200002DE9F04D9446CCF1000423F08C
:1057A00000464CEA0404524F46EAD4749A468846AE
:1057B00021F00042BC4206D8454240EA050442EAD4
:1057C000D474BC4204D9BDE8F04D6246FFF774BD05
:1057D000AAF14055A5F17F6555EA0C040BD00224CF
:1057E00004EAAA74434DDFF810E144EAD87452EA9F
:1057F000000B04D00CE0BDE8F04DFFF7BBBE002C61
:1058000014BF012CBDE8F08D022C30D0032C32D017
:1058100056EA0C0B0AD0BE4220D1BA4209D126F07A
:10582000804622F080423346114617E000291ADBF9
:1058300025E0DFF8C8B0FB44002C04BFDBE9000121
:10584000BDE8F08D012C02BFDBE9000181F00041D1
:10585000BDE8F08D022C0AD0032C0CD0BA4212D134
:10586000B8F1000F0BDA23482549BDE8F08D284632
:105870002449BDE8F08D28467146BDE8F08D1D48ED
:105880002149BDE8F08D921B12153C2AC4BF19486E
:105890001D490EDCBAF1000FBEBF12F13C0F002013
:1058A000014606DB6246FFF770FA21F00041FFF780
:1058B00061FE002C08BFBDE8F08D012C04BF81F013
:1058C0000041BDE8F08D114A114B022C07D0FFF7C3
:1058D000E4F92A46BDE8F04D0A4BFFF7DEB9FFF7C1
:1058E000DCF92A46BDE8F04D064BFFF7D9B90000B8
:1058F0000000F07F182D4454FB2109C00E02000067
:10590000FB21F9BFFB210940FB21F93F075C143360
:1059100026A6A13C2DE9F04106460F46FFF7DAFB2B
:1059200004000D4618BF0120284320F00040C0F1BC
:105930007F6000F1E040C00F0ED0301C18BF012086
:10594000384320F00040C0F17F6000F1E040C00F1C
:1059500004BF0120FFF7D0FC20462946BDE8F081B6
:10596000555555555555C53F7D6FEB0312D6D4BFE0
:105970005544880E55C1C93F3B8F68B52882A4BFE6
:1059800088B20175E0EF493F09F7FD0DE13D023FA7
:105990004B2D8A1C273A03C0C88A599CE52A00402F
:1059A00059018D1B6C06E6BF82922EB1C5B8B33F7C
:1059B0004FBB610567ACDD3F182D4454FB21E93F27
:1059C0009BF681D20B73EF3F182D4454FB21F93F16
:1059D000E2652F227F2B7A3C075C143326A6813C9C
:1059E000BDCBF07A8807703C075C143326A6913C47
:1059F000C4EB98999999C9BF711623FEC671BCBFB3
:105A00006D9A74AFF2B0B3BF9AFDDE522DDEADBF1A
:105A10002F6C6A2C44B4A2BF0D5555555555D53F32
:105A2000FF8300922449C23F6E204CC5CD45B73F4D
:105A3000513DD0A0660DB13FEB0D76244B7BA93FC5
:105A400011DA22E33AAD903F0000000000000000B0
:105A5000705A000800000020E0000000D852000842
:105A6000505B0008E000002088050000E8520008B4
:105A700000000000010203040102030406070809F4
:105A80000204060800A24A04000000000000000012
:105A900001020304060708090000000000000000DE
:105AA0000000000000000000000000000000803F37
:105AB00000000000000000000000000000000000E6
:105AC00000000000000000000000000000000000D6
:105AD00000000000000000000000000000000000C6
