:020000040800F2
:10000000700A0020C90100085D0400085F040008B0
:1000100063040008670400086B0400080000000087
:100020000000000000000000000000006F04000855
:100030007104000800000000730400087504000843
:10004000E3010008E3010008E3010008E301000800
:10005000E3010008E3010008E3010008E3010008F0
:10006000E3010008E3010008E3010008E3010008E0
:10007000E3010008E3010008E3010008E3010008D0
:10008000E3010008E3010008E3010008E3010008C0
:10009000E3010008E3010008E3010008E3010008B0
:1000A000E3010008E3010008E3010008E3010008A0
:1000B000E301000887040008E3010008E3010008E9
:1000C000E3010008770400087F040008E30100084A
:1000D000E301000893310008E3010008E301000890
:1000E000E3010008E3010008E301000800F002F862
:1000F00000F05AF80AA090E8000C82448344AAF168
:100100000107DA4501D100F04FF8AFF2090EBAE865
:100110000F0013F0010F18BFFB1A43F0010318473B
:10012000A88B0000C88B00000A444FF0000C10F8A8
:10013000013B13F0070408BF10F8014B1D1108BF65
:1001400010F8015B641E05D010F8016B641E01F805
:10015000016BF9D113F0080F1EBF10F8014BAD1C55
:100160000C1B09D16D1E58BF01F801CBFAD505E073
:1001700014F8016B01F8016B6D1EF9D59142D6D3CD
:10018000704700000023002400250026103A28BFF5
:1001900078C1FBD8520728BF30C148BF0B607047F9
:1001A0001FB51FBD10B510BD06F050FF1146FFF77B
:1001B000F7FF00F029F806F06EFF03B4FFF7F2FF37
:1001C00003BC06F06FFF000009488047094800475C
:1001D000FEE7FEE7FEE7FEE7FEE7FEE7FEE7FEE7F7
:1001E000FEE7FEE704480549054A064B7047000054
:1001F000772D0008ED00000870040020700A002030
:1002000070060020700600200EB502F08BFE02F092
:1002100035FE02F041FF4FF4E13002F05FFF02F0E3
:10022000D0FE0320009001231A4672490190A620B7
:1002300006F06DFB4FF4FA7005F09AFF03F09EFF95
:1002400003E008216C4800F0C8FA04F02DF80028FB
:10025000F7D1042004F009F9022140F2E73003F05D
:100260009DFE03F061FF03F069FF03F061FE05F0FE
:100270007BF906F095F86421022002F0EBFEB7E06E
:100280005E480078012870D15D480078401C5C49C8
:10029000087003F0A4FD03F054FB002057490870D8
:1002A00057480078022860D1002055490870554809
:1002B0000078401C5349087053498989A1F57A7028
:1002C00008F044FA0446514908F00EF95049086014
:1002D000084601684F4806F071F84F494F4806F04C
:1002E00001F94E49B1F9040008F030FA04464B49CF
:1002F000B1F9020008F02AFA05464849B1F90000B0
:1003000008F024FA06464648B0F9000008F01EFA44
:1003100007464448B0F9000008F018FA8046424801
:10032000B0F9000008F012FA8146404833463A46D8
:100330004146CDE900540290484602F0BCFF3249E4
:10034000098808B205F00EFA2E480078022809D173
:1003500000202C4908702C48008802B234493348E8
:1003600005F050F90020334908703348007801281F
:100370003ED132480078401C30490870304800783F
:10038000401C2F4908702F480078401C2D490870E8
:100390002D480078401C2C490870284800780A280D
:1003A00005D10120294908700020244908702448FB
:1003B00000780F2805D10120254908700020204928
:1003C000087021480078142805D1012021490870BF
:1003D00000201D4908701B480078192805D101200C
:1003E0001D49087000201749087000201249087044
:1003F00046E70000801A0600000C01403300002090
:100400003100002032000020180300200000A0412D
:10041000280000200000FA43160000201C000020E5
:10042000B8000020B6000020B4000020A801002081
:10043000B401002034000020350000202D000020F1
:100440002E000020300000202F0000200600002099
:1004500007000020090000200A000020704700BFAC
:10046000FEE700BFFEE700BFFEE700BFFEE7704704
:1004700070477047704710B506F0DEFB10BD10B531
:1004800006F0A6FD10BD10B51048008800F0010070
:10049000D8B14FF6FE700D4908800D480078401C19
:1004A0000B4908700B480078401C0A49087008483E
:1004B0000078022807D10120074908700749087011
:1004C00000200349087004F008FB10BD1004004030
:1004D00036000020370000203300002035000020C7
:1004E00031490143314A1160704770B50021002342
:1004F0000F22C47804B32D4C246804F4E064C4F5DE
:10050000E064210AC1F10403CA40447804FA03F10B
:100510008478144021430901254C0678A1550478BC
:1005200004F01F050124AC4005786D11AD0005F104
:10053000E025C5F8004109E0047804F01F05012416
:10054000AC401C4D0678761145F8264070BD1A4A1D
:100550000A400243154B1B1F1A60704739B1134AFA
:10056000121D12680243114B1B1D1A6006E00F4A50
:10057000121D126882430D4B1B1D1A607047042820
:1005800008D14FF0E021096941F004014FF0E02269
:10059000116107E04FF0E021096921F004014FF0FB
:1005A000E0221161704700000000FA050CED00E048
:1005B00000E400E080E100E080FFFF1F10B504468A
:1005C000CC48844208D10121042000F02DFB0021F9
:1005D000042000F029FB46E0C748844208D10121ED
:1005E000082000F021FB0021082000F01DFB3AE06C
:1005F000C248844208D10121102000F015FB0021DF
:10060000102000F011FB2EE0BD48844208D10121EA
:10061000202000F009FB0021202000F005FB22E053
:10062000B848844208D10121402000F0FDFA0021A1
:10063000402000F0F9FA16E0B348844208D10121C5
:10064000802000F0F1FA0021802000F0EDFA0AE0AD
:10065000AE48844207D10121801500F0E5FA00215F
:10066000A01500F0E1FA10BD10B50121084600F018
:10067000DBFA0021012000F0D7FA10BD2DE9F0418E
:10068000024600250026002000230024002791F8C0
:1006900003C00CF00F0591F803C00CF0100CBCF176
:1006A000000F03D091F802C04CEA050591F800C094
:1006B000BCF1000F31D0146800202BE04FF0010C8A
:1006C0000CFA00F3B1F800C00CEA03069E4220D1F8
:1006D00083004FF00F0C0CFA03F7BC4305FA03FC40
:1006E0004CEA040491F803C0BCF1280F06D14FF086
:1006F000010C0CFA00FCC2F814C00AE091F803C027
:10070000BCF1480F05D14FF0010C0CFA00FCC2F807
:1007100010C0401C0828D1D31460B1F800C0BCF14F
:10072000FF0F34DD546800202EE000F1080C4FF07C
:10073000010808FA0CF3B1F800C00CEA03069E4267
:1007400021D183004FF00F0C0CFA03F7BC4305FADC
:1007500003FC4CEA040491F803C0BCF1280F05D156
:1007600000F1080C08FA0CF8C2F8148091F803C0E4
:10077000BCF1480F07D100F1080C4FF0010808FA4E
:100780000CF8C2F81080401C0828CED35460BDE895
:10079000F0814FF6FF710180022181700421C17048
:1007A00070470246002093680B400BB1012000E027
:1007B000002070470146886880B2704702460020DA
:1007C000D3680B400BB1012000E0002070470146C8
:1007D000C86880B2704701617047416170470AB1D3
:1007E000016100E041617047C16070474FF48032A1
:1007F0000A4382618161826182698269704702462F
:100800000020434B18684FF68073184040EA0210EE
:1008100008433F4B186070473E49C8617047F0B5C8
:100820000A46002300240021002500F00046B6F10E
:10083000004F02D1364EF16901E0354E7168C0F3C8
:10084000034583B200F44016B6F5401F08D121F0ED
:1008500070612F4E766826F070662D4F7E6012E034
:1008600000F48016B6F5801F06D1032606FA05F4BB
:10087000A14341F0706106E0460D360103FA06F629
:10088000B14341F0706122B1460D360103FA06F61C
:10089000314300F00046B6F1004F02D11C4EF16129
:1008A00001E01B4E7160F0BD30B500228B071C0FBC
:1008B0000F2303FA04F2164B08338C1053F824303C
:1008C0009343134C08348D1044F8253023468C1084
:1008D00053F824308C07240F00FA04F423430C4C03
:1008E00008348D1044F8253030BD0A49DC310860E9
:1008F0007047000000080140000C0140001001405A
:100900000014014000180140001C0140002001407B
:100910000000014000002042DF48006840F0010074
:10092000DD49086008464068DC490840DA4948600B
:1009300008460068DA490840D74908600846006858
:1009400020F4802008600846406820F4FE004860DB
:100950004FF41F0088607047CF49096821F4803147
:10096000CD4A11601146096821F480211160B0F56B
:10097000803F03D0B0F5802F0ED106E0C64909684C
:1009800041F48031C44A116007E0C349096841F469
:10099000A021C14A116000E000BF00BF704710B540
:1009A00001460022002300204A11012A02D1BA4C3C
:1009B000236806E0022A02D1B74C236A01E0B64C54
:1009C000636A01F01F02012494401C400CB1012015
:1009D00000E0002010BD38B5002000900024002564
:1009E00000BF3120FFF7DBFF05460098401C009058
:1009F0000098B0F5A06F01D0002DF2D03120FFF7A4
:100A0000CEFF08B1012400E00024204638BD014695
:100A10000020A14A106820F0F80040EAC1001060F0
:100A20007047A04908607047024600209A4B5868FA
:100A300020F47C1042EA01031843974B586070473A
:100A400098490866704701460020934A506820F094
:100A500003000843506070478F48406800F00C0066
:100A60007047014600208C4A506820F0F00008438F
:100A70005060704701460020874A506820F4E060CB
:100A800008435060704701460020834A506820F4B4
:100A9000605040EAC1005060704729B17E4A527AE6
:100AA00002437D4B5A7204E07B4A527A82437A4B6E
:100AB0005A7270477B49D831086070470146002060
:100AC000754A506820F44040084350607047002148
:100AD000714A20321170704A82F82010012802D029
:100AE00004280AD104E001216B4A2032117005E08C
:100AF0000521694A2032117000E000BF00BF704735
:100B00006949086070476449096A0143624A116291
:100B10007047654944390860704730B500210022AC
:100B2000002400235C4D6D6805F00C0121B10429FF
:100B300005D0082923D105E05C4D056022E05C4D1D
:100B400005601FE0544D6D6805F47012524D6D68DC
:100B500005F48034022505EB92421CB9554D5543EE
:100B600005600BE04C4D6D6805F400351DB14F4D2F
:100B70005543056002E04E4D5543056002E04B4D84
:100B8000056000BF00BF444D6D6805F0F001090924
:100B9000494D6B5C0568DD4045603F4D6D6805F46F
:100BA000E061090A444D6B5C4568DD4085603A4D63
:100BB0006D6805F46051C90A3F4D6B5C4568DD40C6
:100BC000C560354D6D6805F44041890B3B4D6B5C4C
:100BD000C568B5FBF3F5056130BD29B12E4A5269F0
:100BE00002432D4B5A6104E02B4A526982432A4B3F
:100BF0005A61704729B1284A92690243264B9A618B
:100C000004E0254A92698243234B9A61704729B1D7
:100C1000214AD2690243204BDA6104E01E4AD269BC
:100C200082431D4BDA61704729B11B4AD2680243E7
:100C3000194BDA6004E0184AD2688243164BDA6036
:100C4000704729B1144A12690243134B1A6104E038
:100C5000114A12698243104B1A6170471249403998
:100C6000086070470F49C86470470B49C8717047E6
:100C70000948406A40F08070074948627047014661
:100C80000020054A92680A400AB1012000E00020D5
:100C90007047014988727047001002400000FFF859
:100CA000FFFFF6FE000042428004424200127A003A
:100CB0000024F40000093D00380000204800002016
:100CC00010B50446FB48844209D101218803FFF78F
:100CD000ABFF00214FF48040FFF7A6FF32E0F6485B
:100CE000844209D101214804FFF7ABFF00214FF4F2
:100CF0000030FFF7A6FF25E0F048844209D101212A
:100D00008804FFF79EFF00214FF48020FFF799FF32
:100D100018E0EB48844209D10121C804FFF791FF94
:100D200000214FF40020FFF78CFF0BE0E5488442E0
:100D300008D101210805FFF784FF00214FF480103E
:100D4000FFF77FFF10BD2DE9F04786B005460E4640
:100D50000024A24600BFA1460027B08900B100BF11
:100D60002F462C8A4CF6FF700440F08804432C82F6
:100D7000AC894EF6F3100440B0883189084371897C
:100D800008430443AC81AC8A4FF6FF400440B0896D
:100D90000443AC8201A8FFF7C0FEC648874202D1D7
:100DA000DDF810A001E0DDF80CA0A88900F40040F7
:100DB00040B10AEBCA0000EB0A1031684900B0FBF1
:100DC000F1F807E00AEBCA0000EB0A10316889006D
:100DD000B0FBF1F86420B8FBF0F0040120096421B5
:100DE00001FB1089A88900F4004040B1322000EBDB
:100DF000C900B0FBF1F000F00700044308E0322026
:100E000000EB09106421B0FBF1F000F00F00044387
:100E10002C8106B0BDE8F0874FF416510160002127
:100E20008180C18001810C21418100218181704735
:100E300010B502460020108A4FF2FF0318400B88BD
:100E40004C8823438C882343CC8823431843108247
:100E500010BD0021018041808180C180704721B197
:100E6000828942F40052828104E082894DF6FF7348
:100E70001A4082817047F0B5034600240026002501
:100E8000002040F66A17B94200D100BF1846C1F3EE
:100E9000421401F01F06012707FA06F5012C01D1C3
:100EA0000C3004E0022C01D1103000E014301AB1F3
:100EB00007682F43076002E00768AF430760F0BD93
:100EC0001AB1838A0B43838202E0838A8B43838235
:100ED0007047028A4FF6F0731A400282028A0A4370
:100EE0000282704782894FF2FF731A4082818289A1
:100EF0000A438281704721B1828942F002028281D5
:100F000004E082894FF6FD731A4082817047028A9D
:100F10004FF6DF731A400282028A0A430282704748
:100F200021B1028A42F48042028204E0028A4BF636
:100F3000FF731A4002827047C1F308028280704733
:100F400001468888C0F308007047818941F001019B
:100F500081817047028BD2B20283028B42EA012266
:100F600002837047028B02F47F420283028B0A43A2
:100F70000283704721B1828A42F02002828204E01B
:100F8000828A4FF6DF731A408282704721B1828ACB
:100F900042F01002828204E0828A4FF6EF731A4018
:100FA0008282704721B1828A42F00802828204E084
:100FB000828A4FF6F7731A408282704721B1828984
:100FC00042F40042828103E08289C2F30E028281F0
:100FD000704721B1828A42F40062828204E0828AF0
:100FE0004FF2FF731A4082827047828A4FF6FB737A
:100FF0001A408282828A0A438282704721B1828AA1
:1010000042F00202828204E0828A4FF6FD731A40A7
:101010008282704702460020B1F5007F00D100BFF8
:1010200013880B400BB1012000E00020704701F451
:101030000072B2F5007F00D100BFCA430280704742
:1010400070B50246002400230025002040F66A16F1
:10105000B14200D100BFC1F3421501F01F030126C8
:1010600006FA03F3012D02D19689334006E0022DE2
:1010700002D1168A334001E0968A33400C120126D1
:1010800006FA04F41688344013B10CB1012000E0D4
:10109000002070BD10B50022002340F66A14A14262
:1010A00000D100BF0A1201249440A3B2DC430480A3
:1010B00010BD0000003801400044004000480040DE
:1010C000004C00400050004010B50446F7488442F0
:1010D00009D101214805FFF7B4FD00214FF40010AC
:1010E000FFF7AFFD08E001218805FFF7AAFD002109
:1010F0004FF48000FFF7A5FD10BD2DE9F04385B04A
:1011000004460D460026B1460427DFF8A483A688CE
:101110004FF6C07006406846FFF7FFFCDDF8088018
:10112000E448B8FBF0F01FFA80F946EA0906A68009
:1011300020884FF6FE71084020800026DE4928688E
:1011400088420CD828684000B8FBF0F087B2042F22
:1011500000DA04273E4309F10100208427E0E888F3
:101160004BF6FF71884206D1286800EB4000B8FBBF
:10117000F0F087B209E0286800EBC00101EB001035
:10118000B8FBF0F087B247F48047C7F30B0008B90B
:1011900047F0010747F4004006434FF4967009FBFF
:1011A00000F04FF47A7190FBF1F0401C2084A6838C
:1011B000208840F00100208026884FF6F530064058
:1011C000A8886989084306432680A8892989084395
:1011D000208105B0BDE8F08341F288310160002133
:1011E00081804BF6FF71C1800021018141814FF464
:1011F00080418181704721B1028842F00102028062
:1012000004E002884FF6FE731A400280704721B155
:10121000828842F40062828004E082884FF2FF7389
:101220001A408280704721B1828842F480528280C5
:1012300004E082884EF6FF731A408280704721B125
:10124000028842F48072028004E002884FF6FF6355
:101250001A400280704721B1028842F40072028075
:1012600004E002884FF6FF531A400280704721B114
:10127000028842F48062028004E002884FF6FF3365
:101280001A40028070470A46002181894FF6017397
:10129000194002F0FE0319438181704721B1828910
:1012A00042F00102828104E082894FF6FE731A4007
:1012B0008281704721B1028842F04002028004E03E
:1012C00002884FF6BF731A40028070471AB18388B4
:1012D0000B43838002E083888B43838070470182C5
:1012E00070470146088AC0B2704712B141F001014F
:1012F00002E04FF6FE7319400182704708B50246BE
:101300000020009000920098084400900098008807
:1013100008BD21B1028842F40042028003E0028845
:10132000C2F30E0202807047B1F5006F04D102884B
:1013300042F40062028004E002884FF2FF731A4018
:1013400002807047B1F5005F04D1028842F4005278
:10135000028004E002884DF6FF731A400280704755
:1013600021B1028842F48052028004E002884EF6E5
:10137000FF731A4002807047B1F5006F04D10288F4
:1013800042F40062028004E002884FF2FF731A40C8
:101390000280704721B1028842F02002028004E0FE
:1013A00002884FF6DF731A40028070470146088BAF
:1013B0000012704721B1028842F01002028004E05E
:1013C00002884FF6EF731A400280704721B90288F5
:1013D00042F08002028004E002884FF67F731A40D8
:1013E00002807047B1F5804F05D0828B4BF6FF73BA
:1013F0001A40828303E0828B42F4804282837047EA
:1014000070B502460024002500230020958A138B26
:101410001B0445EA030626F07F4404EA01068E42D7
:1014200001D1012000E0002070BD10B50146002070
:10143000002300228B8A0A8B120443EA020424F060
:101440007F4010BD0CB5024600200023019300939D
:1014500000920B0F019321F07F41019B1BB1009B78
:101460001433009303E0090C009B18330093009B96
:101470001B680B400BB1012000E000200CBD0022D6
:1014800021F07F42D3438382704730B5024600206B
:101490000023948801F0E06504EA154321F07F41C0
:1014A000948A0C4054B14BB1012008E00054004034
:1014B00000127A0040420F00A0860100002030BDDB
:1014C000002221F07F42D3438382704710B5044647
:1014D000FE48844208D10121C014FFF7A5FB00217A
:1014E000E014FFF7A1FBC4E0B4F1804F08D1012163
:1014F0000846FFF7A6FB00210120FFF7A2FBB8E09A
:10150000F348844208D101210220FFF79AFB002111
:101510000220FFF796FBACE0EE48844208D101219F
:101520000420FFF78EFB00210420FFF78AFBA0E0D8
:10153000E948844208D101210820FFF782FB0021FD
:101540000820FFF77EFB94E0E448844208D10121A3
:101550001020FFF776FB00211020FFF772FB88E0D8
:10156000DF48844208D101212020FFF76AFB0021D7
:101570002020FFF766FB7CE0DA48844208D1012195
:101580004014FFF751FB00216014FFF74DFB70E0A2
:10159000D548844209D10121C804FFF745FB002149
:1015A0004FF40020FFF740FB63E0D048844209D1AC
:1015B00001210805FFF738FB00214FF48010FFF7E9
:1015C00033FB56E0CA48844209D101214805FFF7A0
:1015D0002BFB00214FF40010FFF726FB49E0C54824
:1015E000844208D101214020FFF72BFB002140203D
:1015F000FFF727FB3DE0C048844208D1012180204D
:10160000FFF71FFB00218020FFF71BFB31E0BB48E9
:10161000844208D101218015FFF713FB0021A0159A
:10162000FFF70FFB25E0B648844209D101210804E9
:10163000FFF7FAFA00214FF48030FFF7F5FA18E0CF
:10164000B048844209D101214804FFF7EDFA002196
:101650004FF40030FFF7E8FA0BE0AB48844208D1C2
:1016600001218804FFF7E0FA00214FF48020FFF702
:10167000DBFA10BD00220288944B98420ED0994BA1
:1016800098420BD0B0F1804F08D0914B984205D0D2
:10169000904B984202D0904B984204D14FF68F73F2
:1016A0001A404B881A438D4B984207D08C4B984276
:1016B00004D04FF6FF431A40CB881A4302808B8830
:1016C00083850B880385814B98420BD0854B9842CC
:1016D00008D08B4B984205D08A4B984202D08A4B57
:1016E000984201D10B7A038601238382704770B53B
:1016F000002400220023058C4FF6FE763540058439
:10170000028C8388048B4FF68F752C40B51E2C40BD
:101710000D882C43751E2A400D892A434D882A4383
:101720006A4DA8420BD06F4DA84208D0744DA84214
:1017300005D0744DA84202D0734DA84213D14FF684
:10174000F7752A404D892A434FF6FB752A408D884C
:101750002A434FF6FF652B404FF6FF552B408D89EE
:101760002B43CD892B4383800483CD8885860284D7
:1017700070BD70B5002400220023058C4FF6EF7673
:1017800035400584028C8388048B48F6FF752C4015
:101790004FF6FF452C400D884FF6FF7606EA0525EB
:1017A0002C434FF6DF752A400D8906EA05152A43BA
:1017B0004D8806EA05152A43444DA84202D0494DFA
:1017C000A8421DD14FF67F752A404D894FF6FF760E
:1017D00006EA05152A434FF6BF752A408D8806EAAA
:1017E00005152A434FF6FF352B404FF2FF752B406E
:1017F0008D8906EA85052B43CD8906EA85052B43AD
:1018000083800483CD880587028470BD70B5002471
:1018100000220023058C4FF6FF6635400584028CBC
:101820008388848B4FF68F752C404FF6FC752C40C7
:101830000D882C434FF6FF552A400D894FF6FF7651
:1018400006EA05252A434D8806EA05252A431F4D49
:10185000A84202D0234DA8421DD14FF2FF752A4065
:101860004D894FF6FF7606EA05252A434FF6FF35E8
:101870002A408D8806EA05252A434EF6FF752B403F
:101880004DF6FF752B408D8906EA05152B43CD8952
:1018900006EA05152B4383808483CD8885870284DF
:1018A00070BD70B5002200230024058C4EF6FF7633
:1018B00035400584038C8488828B48F6FF752A4066
:1018C0004FF6FF452A400D8820E00000002C014023
:1018D0000004004000080040000C004000100040E0
:1018E0000014004000340140004C01400050014011
:1018F0000054014000180040001C0040002000403F
:101900000040014000440140004801404FF6FF768E
:1019100006EA05252A434DF6FF752B400D8906EA98
:1019200005352B434D8806EA05352B43FA4DA84271
:1019300002D0FA4DA84208D14BF6FF752C408D8994
:101940004FF6FF7606EA85152C4384808283CD8886
:10195000A0F84050038470BD828B4FF2FF331A40D1
:101960008283828B4FF6FF7303EA01231A4382833B
:101970007047F0B50C461546002200210026078C62
:101980004EF6FF7C07EA0C070784828B018C4FF62A
:10199000FF7707EA043640F6FF473A404FF6FF77F5
:1019A00007EA05273A434FF6FF7707EA03373A433A
:1019B000D94FB8420ED0D94FB8420BD0B0F1804FBA
:1019C00008D0D74FB84205D0D64FB84202D0D64F34
:1019D000B84206D14DF6FF77394046F48057394377
:1019E00005E047F6FF57394044F480573943828376
:1019F0000184F0BD828B4FF6F3731A408283828B91
:101A00000A4382837047F0B50C4615460022002138
:101A10000026078C4FF6FF6C07EA0C070784828BC1
:101A2000018C4FF6FF7707EA04264FF60C773A4011
:101A30004FF6FF7707EA03172F433A43B64FB842F2
:101A40000ED0B64FB8420BD0B0F1804F08D0B44F93
:101A5000B84205D0B34FB84202D0B34FB84206D116
:101A60004FF6FF57394046F48077394305E04FF28F
:101A7000FF57394044F48077394382830184F0BDB5
:101A8000028B4FF2FF331A400283028B4FF6FF7333
:101A900003EA01231A4302837047F0B50C4615464A
:101AA000002200210026078C4FF6EF7C07EA0C0786
:101AB0000784028B018C4FF6FF7707EA041640F685
:101AC000FF473A404FF6FF7707EA03373A434FF6AE
:101AD000FF7707EA05273A438F4FB8420ED08F4F62
:101AE000B8420BD0B0F1804F08D08D4FB84205D02E
:101AF0008C4FB84202D08C4FB84206D14FF6DF77F8
:101B0000394046F01007394305E04FF65F7739401A
:101B100044F01007394302830184F0BD028B4FF675
:101B2000F3731A400283028B0A4302837047F0B5B5
:101B30000C46154600220021068C4FF6FE773E40EB
:101B40000684028B018C4FF60C7632407E1C06EA2E
:101B500003162E433243704EB0420ED06F4EB04249
:101B60000BD0B0F1804F08D06D4EB04205D06D4E15
:101B7000B04202D06C4EB04206D14FF6FD763140F5
:101B800044F00106314305E04FF6F576314044F06C
:101B90000106314302830184F0BD70B505460C4651
:101BA0005D4885420ED05D4885420BD0B5F1804F2F
:101BB00008D05B48854205D05A48854202D05A4831
:101BC000854200D100E000BF208850B92389A28857
:101BD00061882846FFF7ABFFE1882846FFF79EFFA4
:101BE00025E0208804280AD12389A2886188284614
:101BF000FFF753FFE1882846FFF742FF17E02088F0
:101C000008280AD12389A28861882846FFF7FBFEAD
:101C1000E1882846FFF7EEFE09E02389A288618863
:101C20002846FFF7A6FEE1882846FFF795FE70BD1F
:101C30002DE9F04105460C4600260127608808B9C9
:101C4000022600E00026A088012801D1022700E03A
:101C500001272088A0B92389A28861882846FFF738
:101C600066FFE1882846FFF759FF23893A46314647
:101C70002846FFF712FFE1882846FFF701FF13E02F
:101C80002389A28861882846FFF707FFE188284654
:101C9000FFF7F6FE23893A4631462846FFF747FF0D
:101CA000E1882846FFF73AFFBDE8F0810A884B88B3
:101CB0001A438B881A43CB881A430B891A434B89E2
:101CC0001A438B891A43A0F8442070474FF6FF71DE
:101CD000818000210180C180418001727047002114
:101CE000018041808180C180018141818181C181E8
:101CF0007047002101804180012181800021C18045
:101D0000018170470021018041808180C180018173
:101D10004181818170470000002C01400034014066
:101D20000004004000080040000C004021B102887F
:101D300042F00102028004E002884FF6FE731A406E
:101D40000280704731B1B0F8442042F40042A0F85C
:101D5000442005E0B0F84420C2F30E02A0F844206D
:101D600070471AB183890B43838102E083898B43D7
:101D7000838170478182704741EA0203A0F84830AE
:101D800070471AB183890B43838102E083898B43B7
:101D90008381704701894FF6F872114001817047C5
:101DA0000A46002101894FF68F73194011430181C2
:101DB000704730B504460D4629462046FFF7F0FF30
:101DC000208940F00700208130BD2DE9F041044614
:101DD0000D4616461F46602D06D13B460122314670
:101DE0002046FFF75AFE05E03B46012231462046D9
:101DF000FFF79DFE29462046FFF7D2FF208940F0DD
:101E000007002081BDE8F08130B50C460021018932
:101E1000C9B24FF6FF7505EA03251543254329434B
:101E2000018130BD2DE9F04105460E461746984622
:101E3000002443463A4631462846FFF7E5FF2C8901
:101E40004FF6F870044044F007044FF68F700440DA
:101E500044F070042C81BDE8F081F0B504460D46D5
:101E600016461F463B46324629462046FFF7CCFF22
:101E7000208940F480402081F0BD01858282704736
:101E80000A46002101884FF68F73194011430180E3
:101E90007047F0B50C4615461E460021002200236F
:101EA0000189028B038C4FF6F877394021434FF6B6
:101EB000FC473A4040F201173A434FF6DD773B408A
:101EC0004FF6FF7707EA06172F433B430181028352
:101ED0000384F0BD0A460021018B4FF68F73194031
:101EE0001143018370470A460021018B48F6FF73B6
:101EF00019404FF6FF7303EA022319430183704729
:101F00000A460021818B4FF68F731940114381835C
:101F100070470A460021818B48F6FF7319404FF63F
:101F2000FF7303EA022319438183704721B10288BA
:101F300042F08002028004E002884FF67F731A406C
:101F40000280704721B1828842F00402828004E05E
:101F500082884FF6FB731A408280704721B18288D5
:101F600042F00802828004E082884FF6F7731A403C
:101F70008280704721B1828842F00102828004E0B1
:101F800082884FF6FE731A40828070470A4600210D
:101F9000018B4FF6F77319401143018370470A46CE
:101FA0000021018B4FF2FF7319404FF6FF7303EAD4
:101FB00002231943018370470A460021818B4FF6A3
:101FC000F77319401143818370470A460021818BC2
:101FD0004FF2FF7319404FF6FF7303EA02231943D0
:101FE000818370470A460021018B4FF6FB7319402D
:101FF0001143018370470A460021018B4FF6FF33DE
:1020000019404FF6FF7303EA022319430183704717
:102010000A460021818B4FF6FB73194011438183DF
:1020200070470A460021818B4FF6FF3319404FF667
:10203000FF7303EA02231943818370470A46002194
:10204000018B4FF67F7319401143018370470A4695
:102050000021018BC1F30E014FF6FF7303EA022347
:102060001943018370470A460021818B4FF67F7325
:1020700019401143818370470A460021818BC1F3C7
:102080000E014FF6FF7303EA022319438183704761
:102090000A460021018C4FF6FD731940114301845B
:1020A00070470A460021018C4FF6F773194011431F
:1020B000018470470A460021018C4FF6DF731940F6
:1020C0004FF6FF7303EA02131943018470470A466F
:1020D0000021018C4FF67F7319404FF6FF7303EA1E
:1020E00002131943018470470A460021018C4FF600
:1020F000FF5319404FF6FF7303EA0223194301848B
:1021000070470A460021018C4FF2FF7319404FF6C9
:10211000FF7303EA02231943018470470A46002132
:10212000018C4DF6FF7319404FF6FF7303EA02333B
:1021300019430184704730B5002301248C40A3B2B9
:10214000048C9C430484048C02FA01F5ADB22C4348
:10215000048430BD30B5002304248C40A3B2048C29
:102160009C430484048C02FA01F5ADB22C43048430
:1021700030BD70B5034600200024184618300125F4
:102180008D40ACB21D8CA5431D8409B1082909D12D
:1021900000EB6100056825F07005056005681543D2
:1021A00005600EE00D1FC5F34E052844056825F4B3
:1021B000E045056005684FF6FF7606EA02263543DE
:1021C000056070BD21B1028842F00202028004E085
:1021D00002884FF6FD731A400280704721B10288D1
:1021E00042F00402028004E002884FF6FB731A40BA
:1021F0000280704721B1828842F08002828004E030
:1022000082884FF67F731A408280704702884FF6AB
:10221000F7731A40028002880A430280704782885E
:102220004FF68F731A40828082880A4382807047FB
:1022300002894FF6F8731A40028102890A4302812B
:10224000704702894FF67F731A40028102890A4360
:10225000028170478184704781857047818670470D
:102260000187704781877047A0F840107047028847
:102270004FF6FF431A40028002880A4302807047EB
:102280000146888E70470146088F70470146888F47
:1022900070470146B1F8400070470146888C70478E
:1022A0000146088D704702460020138A0B400BB18F
:1022B000012000E000207047CA430282704730B519
:1022C0000246002000230024158A05EA01039589AF
:1022D00005EA010413B10CB1012000E0002030BD7B
:1022E000CA4302827047000010B50446BE488442CB
:1022F00008D101218014FEF797FC0021A014FEF7FD
:1023000093FC16E0B948844208D101210014FEF77D
:1023100098FC00212014FEF794FC0AE0B4488442A3
:1023200007D10121C013FEF78CFC0021E013FEF75A
:1023300088FC10BD10B50022028802F441520B88BF
:102340004C8823438C882343CC8823430C89234324
:102350004C8923438C892343CC8923431A4302802D
:10236000838B4FF2FF74234083830B8A038210BD5B
:102370002DE9F04F85B005460C464FF000090227C5
:102380004FF000084FF0010B0026B246A88B4FF229
:1023900040010840A88302202884B5F81C90A0685A
:1023A000022801D100BF38E0A08810B94FF0010B1E
:1023B00001E04FF0020B8D48854200D100E000BFE4
:1023C0006846FEF7AAFBDDF800A0E088B0F5007FC4
:1023D0000AD14FEA1A2000EB80004000A168B0FB50
:1023E000F1F0401D86B20BE04FEA4B10BAFBF0F063
:1023F00000EB80004000A168B0FBF1F0401D86B208
:102400000A20B6FBF0F606F00108A6EB0800C0F3C0
:102410004F074FF6FF7000EA0828022F01DBFF2F5D
:1024200002DD02274FF00008E08840EA0800384348
:102430002884A088A189084361880843218808432B
:1024400040F4006040EA0909A5F81C9005B0BDE819
:10245000F08F0021018041808180C1800181418114
:102460008181C18107210182704700210180418063
:102470008180C1800221816000218181704721B16A
:10248000028842F04002028004E002884FF6BF73E7
:102490001A400280704721B1828B42F480628283AD
:1024A00004E0828B4FF6FF331A408283704730B5C9
:1024B000002400230C110125A540ABB21AB1858878
:1024C0001D43858002E085889D43858030BD1AB11B
:1024D00083880B43838002E083888B43838070472B
:1024E000818170470146888970474FF6FF629142AB
:1024F00004D0028842F48072028004E002884FF621
:10250000FF631A400280704721B1828842F00402C2
:10251000828004E082884FF6FB731A408280704705
:1025200002884FF2FF731A40028002880A43028039
:102530007047018841F480510180704721B10288C1
:1025400042F40052028004E002884DF6FF731A4004
:102550000280704702460020012901D0108B00E064
:10256000908A70470146088A7047B1F5804F04D1C0
:10257000028842F48042028004E002884BF6FF7336
:102580001A40028070470246002013890B400BB1AD
:10259000012000E000207047CA4302817047F0B577
:1025A0000246002000240023002501F00F07012629
:1025B000BE40B4B20B1101269E40B3B2968806EA23
:1025C00003051689264016B10DB1012000E0002058
:1025D000F0BD10B5002201F00F040123A3409AB210
:1025E000D343038110BD000000300140003800409B
:1025F000003C004010B50446FA48844208D101214D
:102600004015FEF711FB00216015FEF70DFB17E0EA
:10261000F548844208D101210015FEF705FB002191
:102620002015FEF701FB0BE0F048844208D10121A0
:10263000C803FEF7F9FA00214FF40040FEF7F4FA60
:1026400010BD30B50246002000235068E84C204001
:102650000D790C6844EA0524204350609068E54CED
:102660002040D1E902542C434D7944EA45042043EB
:102670009060D06A20F470000C7C641EE4B22343A6
:1026800040EA0350D06230BD002101600171417108
:102690008160C16001210174704721B1826842F0FC
:1026A0000102826003E0826822F0010282607047CA
:1026B00021B1826842F48072826003E0826822F471
:1026C00080728260704710B50023CBB21AB14468A3
:1026D0001C43446002E044689C43446010BD816830
:1026E00041F0080181607047014600208A6802F0CD
:1026F00008020AB1012000E000207047816841F023
:10270000040181607047014600208A6802F00402DB
:102710000AB1012000E00020704721B1826842F434
:10272000A002826003E0826822F4A0028260704707
:10273000014600208A6802F480020AB1012000E00C
:102740000020704710B50A4600210023416821F49B
:102750006041531E41EA4331416010BD21B14268DE
:1027600042F40062426003E0426822F40062426088
:102770007047F0B504460D4600200021092D11DDFB
:10278000E068A5F10A0606EB4607072606FA07F1F8
:102790008843A5F10A0606EB460603FA06F108434C
:1027A000E0600CE0206905EB4507072606FA07F113
:1027B000884305EB450603FA06F108432061072A22
:1027C0000FDA606B561E06EB86071F2606FA07F126
:1027D0008843561E06EB860605FA06F10843606339
:1027E00022E00D2A0FDA206BD61F06EB86071F2684
:1027F00006FA07F18843D61F06EB860605FA06F1AE
:102800000843206310E0E06AA2F10D0606EB86079C
:102810001F2606FA07F18843A2F10D0606EB86068D
:1028200005FA06F10843E062F0BD21B1826842F486
:102830008012826003E0826822F480128260704716
:102840000146C86C80B2704766484C3000687047DB
:1028500021B1426842F48062426003E0426822F49F
:1028600080624260704721B1426842F48052426007
:1028700003E0426822F48052426070470A46002119
:10288000816821F4E04111438160704721B1826881
:1028900042F40042826003E0826822F400428260D7
:1028A000704721B1826842F40212826003E08268BC
:1028B00022F4021282607047014600208A6802F406
:1028C00000120AB1012000E000207047F0B5044674
:1028D0001546002000220026092911DDE068A1F13B
:1028E0000A0707EB470C072707FA0CF29043A1F100
:1028F0000A0707EB470703FA07F21043E0600CE012
:10290000206901EB410C072707FA0CF2904301EB19
:10291000410703FA07F210432061A06BC0F3015690
:10292000EF1C06F1010CA7EB0C0707EB870C1F2728
:1029300007FA0CF29043EF1C06F1010CA7EB0C0711
:1029400007EB870701FA07F21043A063F0BD10B54B
:102950000A4600210023816B21F44011531E41EAF5
:102960000351816310BD08B5002300930090009BC4
:102970000B440093009B1A6008BD08B50246002076
:102980000090009201F12800009B184400900098EC
:10299000006880B208BD0A4600214168164B194004
:1029A0001143416070474162826270470A460021CC
:1029B000416821F01F0111434160704740B109494E
:1029C0000831096841F40001064A0832116007E045
:1029D00004490831096821F40001024A08321160F3
:1029E000704700000024014000280140003C0140E5
:1029F000FFFEF0FFFDF7F1FFFFFD3FFF0246002065
:102A000013680B400BB1012000E000207047CA435F
:102A10000260704770B502460020002300240B12AC
:102A20005568CEB205EA060415681D4015B10CB113
:102A3000012000E0002070BD00220A12D343036091
:102A40007047000001684FF6FE72114001600021DE
:102A5000016041608160C1608D49884208D18C4924
:102A60000839496841F00F01894A083A51608AE003
:102A700087491431884208D185490839496841F0AD
:102A8000F001834A083A51607DE08149283188424B
:102A900008D17F490839496841F470617C4A083A95
:102AA000516070E07A493C31884208D17849083950
:102AB000496841F47041764A083A516063E07449CC
:102AC0005031884208D172490839496841F470216F
:102AD0006F4A083A516056E06D496431884208D126
:102AE0006B490839496841F47001694A083A5160F4
:102AF00049E067497831884208D165490839496811
:102B000041F07061624A083A51603CE06149884294
:102B100006D1011F096841F00F01021F116032E068
:102B20005C491431884208D15A49091F096841F0AB
:102B3000F001584A121F116025E056492831884299
:102B400008D15449091F096841F47061514A121FA4
:102B5000116018E04F493C31884208D14D49091FA6
:102B6000096841F470414B4A121F11600BE049495A
:102B70005031884207D14749091F096841F4702143
:102B8000444A121F1160704710B50022026847F6D0
:102B9000F0739A430C6A8B6823430C6923434C6996
:102BA00023438C692343CC6923434C6A23438C6AB7
:102BB00023431A430260CB6843600B6883604B6811
:102BC000C36010BD0021016041608160C16001618E
:102BD00041618161C161016241628162704721B1DD
:102BE000026842F00102026004E002684FF6FE73E0
:102BF0001A40026070471AB103680B43036002E099
:102C000003688B4303607047416070470146486822
:102C100080B2704701460020002201F080531BB1B2
:102C20001C4B083B1A6802E0194B083B1A6802EA81
:102C300001030BB1012000E00020704700F080513B
:102C400019B11449091F086002E0114908394860A8
:102C5000704701460020002201F080531BB10D4B4C
:102C6000083B1A6802E00A4B083B1A6802EA0103B3
:102C70000BB1012000E00020704700F0805119B135
:102C80000449091F086002E001490839486070479B
:102C900008000240080402400CB50020019000909A
:102CA0006C48006840F480306A49086000BF694899
:102CB000006800F4003000900198401C01900098DA
:102CC00018B90198B0F5A06FF1D16248006800F41E
:102CD000003010B10120009001E000200090009829
:102CE000012843D15C48006840F010005A49086050
:102CF0000846006820F0030008600846006840F0BD
:102D000002000860534840685249486008464068DD
:102D100048600846406840F4806048600846406863
:102D200020F47C1048600846406840F4F810486081
:102D30000846006840F08070086000BF45480068A1
:102D400000F000700028F9D04248406820F00300ED
:102D5000404948600846406840F00200486000BFB3
:102D60003C48406800F00C000828F9D10CBD10B5B3
:102D7000FFF792FF10BD10B53648006840F0010023
:102D80003449086008464068344908403149486081
:102D900008460068324908402E4908600846006825
:102DA00020F4802008600846406820F4FE00486057
:102DB0004FF41F008860FFF7DAFF4FF000602949E9
:102DC000086010BD10B5002100200022214B5B6877
:102DD00003F00C0121B1042906D0082928D107E00D
:102DE000214B224C236027E0214B204C236023E021
:102DF000184B5B6803F47010164B5B6803F4803269
:102E0000022303EB904022B91A4B4343174C236033
:102E10000DE0104B5B6803F4003323B1124B4343C6
:102E2000124C236003E0124B4343104C236003E039
:102E30000D4B0E4C236000BF00BF064B5B68C3F315
:102E400003130D4CE15C094B1B68CB40074C23601E
:102E500010BD000000100240002002400000FFF8FA
:102E6000FFFFF6FE08ED00E000127A004C000020A3
:102E70000024F40000093D00500000204FF0E02045
:102E8000006920F004004FF0E02108610920234987
:102E900008700846007800EB4001C1EBC0104FF607
:102EA000FF7101EAC0001E490880704701461C4AB4
:102EB00012884A434FF0E0235A6100229A610122AE
:102EC0001A6100BF4FF0E022106900F001021AB150
:102ED00000F48032002AF5D000224FF0E0231A617E
:102EE0009A61704701460D4A12784A434FF0E02339
:102EF0005A6100229A6101221A6100BF4FF0E0225C
:102F0000106900F001021AB100F48032002AF5D0F5
:102F100000224FF0E0231A619A61704760000020A0
:102F20006200002010B5FDF7F7FC4FF48030FDF78C
:102F300013FDFDF750FD012830D10020FDF791FD74
:102F40000020FDF7A0FD4FF48060FDF793FD1448CD
:102F5000006840F01000124908600846006820F040
:102F6000030008600846006840F0020008604FF463
:102F7000E0114FF44030FDF757FD0120FDF760FDF3
:102F800000BF3920FDF70BFD0028FAD00220FDF725
:102F90005AFD00BFFDF760FD0828FBD110BD000001
:102FA00000200240002109E0002201E0531C9AB2F7
:102FB00042F234139A42F9DB4B1C99B28142F3DBA3
:102FC000704708B501210820FDF714FE01211020EB
:102FD000FDF710FE01210846FDF70CFE01212A48ED
:102FE000FDF71DFC01212948FDF719FC0820ADF86B
:102FF000000003208DF8020010208DF803006946C0
:103000002348FDF73BFB4FF40050ADF800000320D0
:103010008DF8020010208DF8030069461D48FDF769
:103020002DFB08BD70B505460C460DE0082118487B
:10303000FDF7D3FBA0B2FFF7B5FF08211448FDF759
:10304000CAFBA0B2FFF7AEFF2800A5F10101CDB287
:10305000ECD170BD70B505460C460FE04FF4005141
:103060000C48FDF7B8FBA0B2FFF79CFF4FF40051EE
:103070000848FDF7B2FBA0B2FFF794FF2800A5F1C6
:103080000101CDB2EAD170BD000430000002300071
:10309000000C01400010014008B54FF4A060FDF79E
:1030A0001FFA1D208DF8000000208DF8010001207E
:1030B0008DF802008DF803006846FDF716FA25200A
:1030C0008DF8000003208DF8010001208DF802002A
:1030D0008DF803006846FDF708FA08BD10B586B004
:1030E0000446012144F20400FDF784FD4FF4007012
:1030F000ADF8140018208DF8170003208DF8160085
:1031000005A93448FDF7BAFA4FF48060ADF8140011
:1031100004208DF8170005A92E48FDF7AFFA019499
:103120000020ADF80800ADF80A00ADF80C00ADF8CD
:1031300010000C20ADF80E0001A92748FDF703FE92
:10314000012240F225512448FDF795FE0121224835
:10315000FDF785FE06B010BD70B504460D46E1B220
:103160001D48FDF7E9FE00BF40211B48FDF752FF57
:103170000028F9D0204670BD10B5044600BF2021BC
:103180001548FDF747FF0028F9D01348FDF7D8FE92
:1031900010BD10B540F225510F48FDF751FF90B119
:1031A0000D48FDF7CDFE0D490D4A126888540C48B4
:1031B0000068401C0A490860084600681F2802D1C0
:1031C00001200849086040F225510348FDF762FFDD
:1031D00010BD00000008014000380140C00100207F
:1031E00064000020680000200EB501210620FDF7D4
:1031F0000EFD6846FEF76AFD4FF6FF70ADF804005D
:103200000020ADF80000ADF80600ADF802006946F8
:10321000FE48FEF72FFA00221146FC48FEF72DFE6D
:103220000121FA48FEF7CEFF2021F848FEF7B8FD4D
:103230000721F648FEF7FCFF8021F448FFF701F86C
:103240000121F248FEF772FE4FF6FF70ADF8040060
:103250004820ADF800000020ADF80600ADF80200EF
:103260006946EB48FEF706FA0121E948FEF75EFEE3
:103270000421E748FEF7DCFF0121E548FEF7AEFF39
:103280002021E348FEF7CBFF8021E148FEF7D9FF7C
:103290000121DF48FEF74AFD0121DC48FEF746FD2B
:1032A0000EBD0020D949243108880004D8492431B2
:1032B0000988084470470FB59FB0D6480168006878
:1032C00005F090FA1690D4480168D248006805F0DD
:1032D00089FA1590D1480168CE48006805F082FA55
:1032E0001490CD480168006805F07CFA1390CC4832
:1032F0000168C948006805F075FA1290C74801686E
:10330000006805F06FFA1190C5480168C34800686D
:1033100005F068FA1090C2480168006805F062FA8A
:103320000F9000200E902499229805F05BFA0C90E3
:10333000259905F057FA00210D9005F097F901D174
:1033400023B000BD21980E90B6491F9805F04AFAA7
:103350001F90B449209805F045FA2090B149219872
:1033600005F040FA21902599084605F03BFA0890AF
:103370002499084605F036FA06902299084605F089
:1033800031FA0590069905F041F80790089905F083
:103390003DF8099005F00EF8CDE90A0104F00EFAA7
:1033A000CDE90C0104F030FA1D901D99229805F02A
:1033B0009BF822901D99249805F096F824901D9969
:1033C000259805F091F825901499129805F012FBB4
:1033D0004FF080410D9005F005FA1C90109915985A
:1033E00005F014F84FF080410D9005F0FBF91B90AB
:1033F0001399169805F0FEFA0C90119905F0FAFA57
:103400000D900F9905F002F81A901B99259805F078
:10341000E9F90D901A99249805F0E4F90C900D99AA
:1034200005F0E8FA19901A99229805F0DBF90D9049
:103430001C99259805F0D6F90C900D9905F0DAFA4B
:1034400018901C99249805F0CDF90D901B9922989D
:1034500005F0C8F90C900D9905F0CCFA1790724957
:10346000199805F0BFF90D90704801680D9804F0A7
:10347000CDFF6E4908606C49189805F0B3F90D90BE
:103480006B4801680D9804F0C1FF694908606649FE
:10349000179805F0A7F90D90664801680D9804F09B
:1034A000B5FF644908606448199905F09BF90C90D0
:1034B0001F9904F0ABFF0D905C4801680D9804F073
:1034C000A5FF1F905C48189905F08CF90C90209985
:1034D00004F09CFF0D90564801680D9804F096FF8B
:1034E00020905548179905F07DF90C90219904F02A
:1034F0008DFF0D904F4801680D9804F087FF2190D3
:1035000047482199006805F06DF90B9043482099D0
:10351000006805F067F909903F48006880F00040B6
:1035200007901F9905F05EF90890099905F062FA75
:103530000A900B9905F05EFA0C90404801680C98CF
:1035400005F050F90D90334801680D9804F05EFFC6
:103550003049086032482099006805F043F90B9023
:103560002E482199006805F03DF909902948016825
:103570001F9805F037F90890099904F047FF0A9061
:103580000B9905F037FA0C902C4801680C9805F05F
:1035900029F90D90204801680D9804F037FF1E4965
:1035A00008601F4801681F9805F01CF90B901A4825
:1035B0002199006805F016F90990164820990068CD
:1035C00005F010F90890099905F014FA0A900B9982
:1035D00004F01CFF0C90194801680C9805F002F9E2
:1035E0000D900E4801680D9804F010FF0B4908601B
:1035F000084601681F9805F0F5F80B9006482099D9
:10360000006805F0EFF80990024819E00008004052
:103610000004004074000020780000207C0000209E
:103620008000002089A18B3A6F12833A8400002029
:10363000880000208C000020CDCCCC3F90000020E2
:103640002199006805F0CEF80890099904F0DEFE93
:103650000A900B9905F0CEF90C90A24801680C98DD
:1036600005F0C0F80D90A04801680D9804F0CEFE5A
:103670009D49086008460168006805F0B3F80890A5
:103680009A480168006805F0ADF80690984801680E
:10369000006805F0A7F8049096480168006805F0F6
:1036A000A1F80390049904F0B1FE0590069904F086
:1036B000ADFE0790089904F0A9FE099004F07AFE87
:1036C000CDE90A0104F07AF8CDE90C0104F09CF888
:1036D0001D9088481D99006804F006FF8549086020
:1036E00083481D99006804F0FFFE814908607F4807
:1036F0001D99006804F0F8FE7C4908607A481D991D
:10370000006804F0F1FE784908607B490E9805F0E6
:1037100035F806D279490E9805F030F901D200202B
:103720000E9077490E9805F05DF8059004F042FE82
:10373000744A754BCDE9060104F02CFBCDE90A0172
:1037400072480068079004F035FECDE90801DDE914
:103750000A2304F08BF8CDE90C0104F055F86B490D
:103760000860644801684FF0804005F03BF8049021
:103770005E480168049805F035F806905C480168D9
:103780004FF0404005F02EF8049057480168049827
:1037900005F028F80590069904F038FE079004F02B
:1037A00009FECDE9080103F001FD4FF06632584BE8
:1037B000CDE90A0104F0EEFACDE90C0104F024F899
:1037C00052494860494801684FF0804005F00AF8C6
:1037D000019046480168019805F004F803904448B8
:1037E00001684FF0404004F0FDFF0190404801683F
:1037F000019804F0F7FF0290039905F0FBF84FF0F1
:103800007E51049004F002FE059004F0D3FDCDE952
:103810000801384801684FF0804004F0E3FF02904F
:1038200033480168029804F0DDFF04902F480168D6
:103830004FF0804004F0D6FF02902B4801680298B8
:1038400004F0D0FF0390049904F0E0FD059004F02B
:10385000B1FDCDE90601DDE9082303F0EFFE4FF0ED
:1038600066322B4BCDE90A0104F094FACDE90C0144
:1038700003F0CAFF25498860084600680D90254876
:1038800001680D9805F0B6F8269988601F484068D1
:103890000D90214801680D9805F0ACF82699486014
:1038A0001A4880680D901D4801680D9805F0A2F82F
:1038B0002699086000211A48006804F0D7FE0ED04F
:1038C00012480068134908601048406812490860AF
:1038D0000E4880681149086000201149086000BF47
:1038E0002EE5000090000020800000207C000020D9
:1038F00078000020740000200000A0400000A0C05C
:10390000F1FF793DFCA9F1D24D62603FE00100205A
:1039100066A64C40A8000020AC000020B0000020AB
:1039200024000020002109E0002201E0531C9AB28B
:1039300042F234139A42F9DB4B1C99B28142F3DB19
:103940007047FE48407AFD49097A40EA0120FC4967
:103950000988401A00B2FB490880F848C07AF74944
:10396000897A40EA0120F8490988401A00B2F749EB
:103970000880F248407BF149097B40EA0120F44984
:103980000988401A00B2F3490880EC484078EB49B6
:10399000097840EA0120F0490988401A00B2EF494D
:1039A0000880E648C078E549897840EA0120EC497A
:1039B0000988401A00B2EB490880E0484079DF49A5
:1039C000097940EA012000B2E7490880E348B0F9EC
:1039D0000000B0F5004F02DB47F6FF7002E0DF4861
:1039E000B0F90000DD4908800846B0F9000010F584
:1039F000004F01DADD4802E0D848B0F90000D749AD
:103A00000880D848B0F90000B0F5004F02DB47F657
:103A1000FF7002E0D348B0F90000D24908800846A0
:103A2000B0F9000010F5004F01DAD04802E0CD48AF
:103A3000B0F90000CB490880CB48B0F90000B0F5E0
:103A4000004F02DB47F6FF7002E0C748B0F9000004
:103A5000C54908800846B0F9000010F5004F01DAAA
:103A6000C24802E0C048B0F90000BF490880B5482C
:103A7000B0F90000B0F5004F02DB47F6FF7002E03E
:103A8000B048B0F90000AF4908800846B0F900001E
:103A900010F5004F01DAB54802E0AA48B0F900007D
:103AA000A8490880A948B0F90000B0F5004F02DB32
:103AB00047F6FF7002E0A548B0F90000A34908806E
:103AC0000846B0F9000010F5004F01DAA74802E0FF
:103AD0009E48B0F900009D4908809E48B0F900005A
:103AE000B0F5004F02DB47F6FF7002E09948B0F9ED
:103AF0000000984908800846B0F9000010F5004F12
:103B000001DA9A4802E09348B0F900009149088030
:103B10009248B0F90000964908809248B0F9000038
:103B200048809148B0F900008880924800680028D9
:103B300056D19148007880B9002081490880824997
:103B40000880834908808D4908608D4908608D4947
:103B500008600120884908707047884800687949E2
:103B6000B1F9001008448549086085480068774924
:103B7000B1F900100844824908608248006875491C
:103B8000B1F9001008447F4908607B480078C828D4
:103B900021D17A4800687849097890FBF1F000B2A9
:103BA00067490880764800687349097890FBF1F00E
:103BB00000B265490880734800686F49097890FB36
:103BC000F1F000B26249088000206B4908700120C2
:103BD00068490860C0E768480078401C664908707A
:103BE0006948006800284ED16848007880B90020F4
:103BF000594908805A490880654908806549086024
:103C00006549086065490860012060490870A3E7BC
:103C1000604800685149B1F9001008445D490860E6
:103C20005D4800684F49B1F9001008445A490860DE
:103C300056480078C82821D1564800685349097869
:103C400090FBF1F000B244490880534800684F49A6
:103C5000097890FBF1F000B2414908804F480068B4
:103C60004A49097890FBF1F000B2494908800020E8
:103C7000464908700120444908606DE743480078D0
:103C8000401C4249087000BF66E72DE9FF4F81B034
:103C90000E4617461D464FF00008C146C246019821
:103CA00004F054FD3E493F4A127841F82200304664
:103CB00004F04CFD3C493B4A127841F8220038465A
:103CC00004F044FD3949374A127841F822000024B3
:103CD0002BE0404604F03AFD0090314850F82410A3
:103CE000009804F093FB834604F0F4FC80464846B9
:103CF00004F02CFD00902C4850F82410009804F09B
:103D000085FB834604F0E6FC8146504604F01EFD28
:103D10000090264850F82410009804F077FB834662
:103D200004F0D8FC8246601CC4B2142CD1DB1420F1
:103D300098FBF0F000B22880142039E0EC0100205C
:103D4000C0000020B4000020C2000020B600002007
:103D5000C4000020B8000020C6000020BA000020E7
:103D6000C8000020BC000020BE0000200080FFFF33
:103D70001C000020D0000020E8000020DC00002013
:103D8000E0000020E4000020D4000020F800002023
:103D9000CA000020EC000020F0000020F400002009
:103DA00008020020F900002058020020A80200208C
:103DB00099FBF0F000B2688014209AFBF0F000B29A
:103DC000A88074480078401C724908700846007842
:103DD000142801D10020087005B0BDE8F08F10B59F
:103DE0006D4B0E223B21D02002F00EFE10BDF8B527
:103DF00006460F4614461D466B460122394630469C
:103E000002F041FE2DB10120A0409DF800100843B2
:103E100005E00120A0409DF8001021EA0000C0B29A
:103E200000906B4601223946304602F0ADFEF8BDE7
:103E30002DE9F8430746884614461D46089E6B4602
:103E400001224146384602F01EFE601CFF2101FAA5
:103E500000F0C4F108012944491EFF220A41104321
:103E600000F0FF09C5F1080006FA00F0C6B2C4F17F
:103E7000070006419DF8000000EA090000909DF847
:103E80000000304300906B4601224146384602F064
:103E90007BFEBDE8F88338B50446032302226B217C
:103EA000D0200094FFF7C4FF38BD38B50446022384
:103EB00004221B21D0200094FFF7BAFF38BD38B58B
:103EC0000446022304221C21D0200094FFF7B0FFF7
:103ED00038BD10B50446234606226B21D020FFF7DB
:103EE00086FF10BD10B50446234605226A21D02066
:103EF000FFF77DFF10BD10B5044623460122372190
:103F0000D020FFF774FF10BD38B50446032302220A
:103F10001A21D0200094FFF78BFF38BD38B5044636
:103F2000082307221921D0200094FFF781FF38BD14
:103F300010B50020FFF7CDFFC820FFF7F3FC0120EC
:103F4000FFF7A9FF3220FFF7EDFC0320FFF7ADFFDD
:103F50003220FFF7E7FC0120FFF7B1FF3220FFF727
:103F6000E1FC0720FFF7DAFF3220FFF7DBFC00203F
:103F7000FFF7CAFF3220FFF7D5FC0020FFF7B2FFA2
:103F80003220FFF7CFFC0120FFF7B5FF3220FFF70B
:103F9000C9FC10BDF9000020EC0100203EB505462B
:103FA0000C4601210846FCF732FEADF80450ADF88E
:103FB00000400020ADF80600ADF8020069464FF061
:103FC0008040FDF757FB01218807FDF7AFFE3EBD9E
:103FD00008B501210420FCF70DFE0120ADF800001A
:103FE00018208DF8030003208DF80200694662480E
:103FF000FCF744FB08BD1FB56020ADF800000120B0
:10400000ADF802000020ADF8080069464FF080408E
:10401000FDF76DFB0821C806FDF7B8FF01218807F1
:10402000FDF784FE1FBD08B501210420FCF7E2FD69
:104030000220ADF8000018208DF8030003208DF851
:10404000020069464C48FCF719FB08BD1FB560200B
:10405000ADF800000120ADF802000020ADF8080026
:1040600069464FF08040FDF784FB0821C806FDF744
:1040700096FF01218807FDF759FE1FBD08B50121F4
:104080000420FCF7B7FD0420ADF8000018208DF8DF
:10409000030003208DF8020069463748FCF7EEFA6A
:1040A00008BD1FB56020ADF800000120ADF802008A
:1040B0000020ADF8080069464FF08040FDF7A6FBF0
:1040C0000821C806FDF778FF01218807FDF72EFEBD
:1040D0001FBD08B501210420FCF78CFD0820ADF8B8
:1040E000000018208DF8030003208DF802006946B7
:1040F0002148FCF7C3FA08BD1FB56020ADF80000E9
:104100000120ADF802000020ADF8080069464FF02C
:104110008040FDF7C6FB0821C806FDF756FF0121C8
:104120008807FDF703FE1FBD10B5FFF7A7FFFFF7D8
:104130004FFFFFF778FFFFF7CCFF10BD10B5FFF77B
:10414000B0FFFFF758FFFFF781FFFFF7D5FF002112
:104150004FF08040FEF782F800214FF08040FEF7DC
:104160007FF800214FF08040FEF77CF800214FF0EF
:104170008040FEF779F810BD0008014000B587B017
:1041800001210C20FCF736FD1020ADF818000320AB
:104190008DF81A0010208DF81B0006A9F148FCF7D5
:1041A0006DFA0420ADF8180006A9EF48FCF766FA8E
:1041B0000120ADF8180028208DF81B0006A9EA4858
:1041C000FCF75CFA0521E848FCF707FB1021E548FD
:1041D000FCF703FB00F003FA0021E448FEF74FF977
:1041E0000020ADF804004FF48270ADF80600002006
:1041F000ADF80800ADF80A00ADF80C004FF40070FF
:10420000ADF80E001820ADF810000020ADF8120037
:104210000720ADF8140001A9D448FEF78BF801215E
:10422000D248FEF72CF90020D14908600120D1497D
:10423000C1F8900107B000BD2DE9F04107460D46D9
:1042400016460020CC490860384600F0A1F98046A7
:10425000002405E0FF2000F09BF92855601CC4B243
:10426000B442F7DB0120C44908604046BDE8F08154
:104270002DE9F04107460C4615460020BE4908606E
:10428000384600F085F98046002605E014F8010B59
:1042900000F07EF9701CC6B2AE42F7DB0120B649D1
:1042A00008604046BDE8F0811CB5B4A103C9CDE962
:1042B0000001082000F0D7F9052269463020FFF7F9
:1042C000D7FF052269461020FFF7B6FF002406E05D
:1042D0001DF80400A52800D003E0601CC4B2052C22
:1042E000F6DB00BF052C01D001201CBD0020FCE73F
:1042F00070B505460C4600209F490860284600F02E
:1043000047F90646204600F043F901209949C1F8D3
:104310009001304670BD70B5044600209649086093
:10432000204600F035F9FF2000F032F90546012063
:104330009049C1F89001284670BD70B505460E46FB
:10434000102000F090F90020894908603246294683
:10435000A020FFF78DFF01208A49C1F888010720BE
:10436000FFF7D9FF044621462720FFF7C1FF04F0DD
:10437000100028B1FF21E120FFF7BAFF102070BD27
:1043800004F0200008B12020F9E7FF20F7E770B51E
:104390000446102000F067F90720FFF7BCFF054630
:1043A00029462720FFF7A4FF05F0400050B1202246
:1043B00021466120FFF740FFFF21E220FFF798FF31
:1043C000002070BD0120FCE710B50020684908609E
:1043D00005226D492A20FFF74BFF01212120FFF71D
:1043E00087FF01212220FFF783FF28212520FFF7E7
:1043F0007FFF20213120FFF77BFF0F212620FFF7D1
:1044000077FF0F212020FFF773FF01205D49C1F8DE
:10441000880110BD10B500205549086005225B4990
:104420003020FFF725FF052257492A20FFF720FFFC
:1044300001212120FFF75CFF01212220FFF758FF17
:104440001A212420FFF754FF28212520FFF750FFD1
:104450000F212620FFF74CFF0E212020FFF748FFF9
:1044600001204849C1F8880110BD10B5044600205C
:104470003F490860052244492A20FFF7F9FE01213F
:104480002120FFF735FF01212220FFF731FF2821EE
:104490002520FFF72DFF0F212620FFF729FF012CF4
:1044A00007D120213120FFF723FF0F212020FFF724
:1044B0001FFF022C0CD1052234493020FFF7D8FE13
:1044C0001A212420FFF714FF0E212020FFF710FFF0
:1044D000032C1DD120213120FFF70AFFFF21E1200D
:1044E000FFF706FFFF21E220FFF702FF0F21202048
:1044F000FFF7FEFE502000F04BF8732000F048F864
:1045000001213C20FFF7F4FE07213D20FFF7F0FEDC
:10451000042C22D105221D493020FFF7A9FE1A21C3
:104520002420FFF7E5FE0E212020FFF7E1FEFF210A
:10453000E120FFF7DDFEFF21E220FFF7D9FE50204A
:1045400000F026F8732000F023F801213C20FFF74B
:10455000CFFE07213D20FFF7CBFE01200449086074
:1045600010BD000000080140000C01400030014077
:10457000888121420000214290012142A5A5A5A5E4
:10458000A500000000802142D38B0008CE8B0008DC
:1045900070B50546002405E0601CC4B2C82C01DDDE
:1045A000002070BD02213948FDF7EDFF0028F3D04F
:1045B00029463648FDF794FF002405E0601CC4B28C
:1045C000C82C01DD0020ECE701213048FDF7DBFFBE
:1045D0000028F3D02D48FDF785FFC0B2E1E700B514
:1045E00087B001210420FCF705FB01210803FCF73B
:1045F00001FBE020ADF8180018208DF81B00032007
:104600008DF81A0006A92248FCF738F8E021204866
:10461000FCF7E1F80020ADF804004FF48270ADF82B
:1046200006000020ADF808000220ADF80A000120C5
:10463000ADF80C004002ADF80E003820ADF81000C7
:104640000020ADF812000720ADF8140001A90F48B2
:10465000FDF770FE01210D48FDF711FFFF20FFF768
:1046600097FF07B000BD10B50446084800884FF614
:10467000C771084005490880084600882043088023
:1046800001210248FDF7FBFE10BD00000030014093
:104690000008014010B50024FE48FFF778FE18B965
:1046A000FD49FC4801F088FD10BD10B51020FFF752
:1046B000DAFF1720FFF72FFE10BD70B50446002566
:1046C000E1B2F648FFF739FE064670BDF4490A78B4
:1046D0000978491CF24B1970F0498854704711B59C
:1046E00000209DF80320EE490B780978491CEC4C1A
:1046F0002170EA49CA549DF8022021460B780978B6
:10470000491C2170E549CA549DF8012021460B78C7
:104710000978491C2170E149CA549DF800202146BE
:104720000B780978491C2170DC49CA549DF80310A4
:104730000144C8B29DF802100144C8B29DF80110AE
:104740000144C8B29DF800100144C8B218BD2DE95B
:10475000F04180460D4616461F4600240020D049F1
:104760000870AA20FFF7B2FF2044C4B2AA20FFF7C6
:10477000ADFF2044C4B24046FFF7A8FF2044C4B2B6
:104780000C20FFF7A3FF2044C4B22846FFF7A7FF81
:104790002044C4B23046FFF7A2FF2044C4B23846DA
:1047A000FFF79DFF2044C4B22046FFF78FFFBDE80E
:1047B000F08111B500209DF80120B9490B780978E6
:1047C000491CB74C2170B549CA549DF800302146A8
:1047D0000A780978491C2170B0498B549DF8011062
:1047E0000144C8B29DF800100144C8B218BD2DE9BB
:1047F000FC5F83464FF0000AAA490988480003F08D
:1048000076FA06464FF06632A74B03F0C3FA044629
:104810000022A64B03F0E6F8804602F0F5FF019077
:10482000A349019803F0DEFF044603F053FF00B2F2
:10483000009000209A490870AA20FFF747FF5044D3
:1048400000F0FF0AAA20FFF741FF504400F0FF0AE2
:104850000320FFF73BFF504400F0FF0A1420FFF74E
:1048600035FF504400F0FF0ABBF8001008B2FFF714
:10487000A0FF504400F0FF0ABBF8081008B2FFF791
:1048800098FF504400F0FF0ABBF8041008B2FFF78D
:1048900090FF504400F0FF0ABBF8061008B2FFF783
:1048A00088FF504400F0FF0ABBF80C1008B2FFF775
:1048B00080FF504400F0FF0ABBF80E1008B2FFF76B
:1048C00078FF504400F0FF0ABBF8101008B2FFF761
:1048D00070FF504400F0FF0A0098FFF76AFF504451
:1048E00000F0FF0A0020FFF764FF504400F0FF0AC9
:1048F0000020FFF75EFF504400F0FF0A5046FFF72C
:10490000E5FEBDE8FC9F11B500209DF80320644939
:104910000B780978491C624C21706049CA549DF893
:10492000022021460B780978491C21705B49CA5442
:104930009DF8012021460B780978491C21705749C0
:10494000CA549DF8002021460B780978491C217033
:104950005249CA549DF801100144C8B29DF8001094
:104960000144C8B29DF802100144C8B29DF803107A
:104970000144C8B218BD2DE9F04780460D461646E1
:104980001F46DDE9089A0024002045490870AA2046
:10499000FFF79CFE2044C4B2AA20FFF797FE2044F4
:1049A000C4B20120FFF792FE2044C4B20D20FFF7ED
:1049B0008DFE2044C4B24046FFF7FBFE2044C4B243
:1049C0002846FFF7F6FE2044C4B23046FFF7F1FE5A
:1049D0002044C4B23846FFF7ECFE2044C4B2484637
:1049E000FFF791FF2044C4B2BAF1000F05D0A02018
:1049F000FFF76CFE2044C4B204E0A120FFF766FE7E
:104A00002044C4B22046FFF761FEBDE8F0872DE9DF
:104A1000F04F80460D4616461F46DDE90AABDDF82D
:104A20002490002400201E490870AA20FFF74EFEA3
:104A30002044C4B2AA20FFF749FE2044C4B2022099
:104A4000FFF744FE2044C4B21220FFF73FFE20448B
:104A5000C4B24046FFF7ADFE2044C4B22846FFF77B
:104A6000A8FE2044C4B23046FFF7A3FE2044C4B2DF
:104A70003846FFF79EFE2044C4B24846FFF799FE31
:104A80002044C4B25046FFF794FE2044C4B25846B6
:104A900010E000002C03002018030020F802002082
:104AA000000100205601002066660A400000B04068
:104AB0000000C842FFF77DFE2044C4B20C98FFF707
:104AC00078FE2044C4B20D98FFF773FE2044C4B2B0
:104AD0002046FFF7FBFDBDE8F08F2DE9F04F87B0D2
:104AE00010200590FFF7D6FDFE48007830B3002077
:104AF000FC490870FC48B0F90010FC48B0F900000F
:104B0000FB4AB2F90020FB4BB3F90030CDE901328A
:104B1000CDE90301F848B0F90000F84B0090B3F973
:104B20000420B3F90210B3F90000F54BB3F90030DB
:104B3000FFF76DFF1720FFF7C0FD3CE0F14800785C
:104B400058B30020EF490870EF498868EF4903F037
:104B500049FE074603F0BEFD04B2EB494868EB4945
:104B600003F040FE074603F0B5FD05B2E6490868CC
:104B7000E64903F037FE074603F0ACFD06B201201C
:104B800000210B462246CDE9001029463046FFF7AA
:104B9000F2FE1220FFF791FD0DE0DD48007848B1EC
:104BA0000020DB490870DB48FFF721FE1920FFF7E2
:104BB00084FD00E000BFD848007880B30020D649CB
:104BC0000870CE49B1F9040003F091F8CDE9020173
:104BD000CA49B1F9000003F08AF880460022CF4BA1
:104BE00003F0D8F8CDE90001DDE9022302F0FAFE76
:104BF000064602F013FC04464FF06632C84B03F041
:104C0000C9F8824602F000FE002302460490C5481F
:104C10000168F120FFF79BFD1120FFF74EFD07B063
:104C2000BDE8F08F11B500209DF80120BE490B783A
:104C30000978491CBC4C2170BC49CA549DF800300D
:104C400021460A780978491C2170B8498B549DF88F
:104C500001100144C8B29DF800100144C8B218BD4B
:104C600030B5054600240020AF4908708820FFF7C2
:104C70002DFD2044C4B2A120FFF728FD2044C4B27A
:104C80000220FFF723FD2044C4B22846FFF7CAFFE5
:104C90002044C4B22046FFF719FD30BD30B50546AB
:104CA00000240020A04908708820FFF70FFD204451
:104CB000C4B2A120FFF70AFD2044C4B20220FFF7CE
:104CC00005FD2044C4B22846FFF773FD2044C4B25A
:104CD0002046FFF7FBFC30BDF0B507460D461646F3
:104CE00000240020904908708820FFF7EFFC204442
:104CF000C4B2A120FFF7EAFC2044C4B20620FFF7AB
:104D0000E5FC2044C4B23846FFF753FD2044C4B24A
:104D10002846FFF74EFD2044C4B23046FFF749FD58
:104D20002044C4B22046FFF7D1FCF0BD2DE9F0418C
:104D300080460D4616461F46002400207A4908701A
:104D40008820FFF7C3FC2044C4B2A220FFF7BEFCBA
:104D50002044C4B20820FFF7B9FC2044C4B2404646
:104D6000FFF727FD2044C4B22846FFF722FD204468
:104D7000C4B23046FFF71DFD2044C4B23846FFF7E9
:104D800018FD2044C4B22046FFF7A0FCBDE8F08126
:104D90002DE9F04180460D4616461F4600240020AE
:104DA000614908708820FFF791FC2044C4B2404656
:104DB000FFF78CFC2044C4B20C20FFF787FC204492
:104DC000C4B22846FFF78BFC2044C4B23046FFF73C
:104DD00086FC2044C4B23846FFF781FC2044C4B2AC
:104DE0002046FFF773FCBDE8F0812DE9F04F8046C7
:104DF0000D4616461F46DDE90AABDDF82490002477
:104E0000002049490870AA20FFF760FC2044C4B282
:104E1000AA20FFF75BFC2044C4B24046FFF756FCD3
:104E20002044C4B21820FFF751FC2044C4B22846E5
:104E3000FFF755FC2044C4B23046FFF750FC204435
:104E4000C4B23846FFF74BFC2044C4B24846FFF7D3
:104E500046FC2044C4B25046FFF741FC2044C4B293
:104E60005846FFF73CFC2044C4B22046FFF72EFC16
:104E7000BDE8F08F30B50546002400202A490870AF
:104E80008820FFF723FC2044C4B2A120FFF71EFCBA
:104E90002044C4B20120FFF719FC2044C4B22846C4
:104EA000FFF714FC2044C4B22046FFF70FFC30BDCE
:104EB0001FB5002400201C4908708820FFF706FC5D
:104EC0002044C4B2AF20FFF701FC2044C4B21C2030
:104ED000FFF7FCFB2044C4B29DF80100FFF7F6FB8E
:104EE000204425E006000020BE000020BC00002079
:104EF000BA000020B8000020B600002016000020F4
:104F0000B400002007000020A80100200000C842D3
:104F100009000020180300200A0000200000F03FD4
:104F200066A64C402800002000010020F802002066
:104F3000C4B29DF80000FFF7C9FB2044C4B29DF83D
:104F40000500FFF7C3FB2044C4B29DF80400FFF73F
:104F5000BDFB2044C4B29DF80900FFF7B7FB204415
:104F6000C4B29DF80800FFF7B1FB2044C4B29DF81D
:104F70000D00FFF7ABFB2044C4B29DF80C00FFF717
:104F8000A5FB2044C4B29DF81900FFF79FFB204405
:104F9000C4B29DF81800FFF799FB2044C4B29DF8F5
:104FA0001D00FFF793FB2044C4B29DF81C00FFF7DF
:104FB0008DFB2044C4B20020FFF788FB0020FFF7E0
:104FC00085FB0020FFF782FB0020FFF77FFB00201E
:104FD000FFF77CFB0020FFF779FB9DF82100FFF72E
:104FE00075FB2044C4B29DF82000FFF76FFB2044FE
:104FF000C4B29DF82500FFF769FB2044C4B29DF8B8
:105000002400FFF763FB2044C4B29DF82900FFF79A
:105010005DFB2044C4B29DF82800FFF757FB2044F5
:10502000C4B20020FFF752FB0020FFF74FFB002027
:10503000FFF74CFB0020FFF749FB2046FFF746FB3C
:105040001FBD2DE9FF4F85B081460024FE49098828
:10505000480002F04CFE07464FF06632FB4B02F070
:1050600099FE05460022FA4B02F0BCFC824602F093
:10507000CBFB0490F749049803F0B4FB054603F01A
:1050800045FB80B20390D9F8000003F05FFB834634
:10509000F049049803F0A6FB5946019003F0A2FBE7
:1050A000824603F087F907460022EB4B02F09AFC98
:1050B000054602F0EFFD80B202900020E74908703B
:1050C0008820FFF703FB2044C4B2AE20FFF7FEFAAE
:1050D0002044C4B21C20FFF7F9FA2044C4B299F866
:1050E0000100FFF7F3FA2044C4B299F80000FFF77B
:1050F000EDFA2044C4B299F80900FFF7E7FA20441A
:10510000C4B299F80800FFF7E1FA2044C4B299F854
:105110000500FFF7DBFA2044C4B299F80400FFF75A
:10512000D5FA2044C4B299F80700FFF7CFFA20441B
:10513000C4B299F80600FFF7C9FA2044C4B299F83E
:105140000D00FFF7C3FA2044C4B299F80C00FFF732
:10515000BDFA2044C4B299F80F00FFF7B7FA204413
:10516000C4B299F80E00FFF7B1FA2044C4B299F81E
:105170001100FFF7ABFA2044C4B299F81000FFF712
:10518000A5FA2044C4B29DF80D00FFF79FFA204411
:10519000C4B29DF80C00FFF799FA2044C4B2002075
:1051A000FFF794FA0020FFF791FA9DF81900FFF736
:1051B0008DFA2044C4B29DF81800FFF787FA204406
:1051C000C4B29DF81D00FFF781FA2044C4B29DF8D7
:1051D0001C00FFF77BFA2044C4B29DF82100FFF7C2
:1051E00075FA2044C4B29DF82000FFF76FFA2044FE
:1051F000C4B29DF84900FFF769FA2044C4B29DF893
:105200004800FFF763FA2044C4B29DF80900FFF795
:105210005DFA2044C4B29DF80800FFF757FA204415
:10522000C4B22046FFF752FA09B0BDE8F08F1FB5AF
:1052300000240020894908708820FFF747FA20449D
:10524000C4B2AC20FFF742FA2044C4B21C20FFF7DE
:105250003DFA2044C4B2AD20FFF738FA2044C4B26E
:105260009DF80100FFF732FA2044C4B29DF8000017
:10527000FFF72CFA2044C4B29DF80500FFF726FA88
:105280002044C4B29DF80400FFF720FA2044C4B2C1
:105290009DF80900FFF71AFA2044C4B29DF80800EF
:1052A000FFF714FA2044C4B29DF80D00FFF70EFA80
:1052B0002044C4B29DF80C00FFF708FA2044C4B2A1
:1052C0009DF81900FFF702FA2044C4B29DF81800B7
:1052D000FFF7FCF92044C4B29DF81D00FFF7F6F972
:1052E0002044C4B29DF81C00FFF7F0F92044C4B27A
:1052F0000020FFF7EBF90020FFF7E8F90020FFF7A7
:10530000E5F90020FFF7E2F90020FFF7DFF90020C0
:10531000FFF7DCF90020FFF7D9F90020FFF7D6F9F5
:105320000020FFF7D3F90020FFF7D0F90020FFF7A6
:10533000CDF90020FFF7CAF90020FFF7C7F90020D8
:10534000FFF7C4F90020FFF7C1F92046FFF7BEF9C7
:105350001FBD2DE9FC5F4FF00009002400BF06E0EF
:105360003F48005D484400F0FF09601CC4B21F2C98
:10537000F6DB3B48C07F484501D0BDE8FC9F38487C
:1053800000788A2800D0F8E7354840788B286FD11C
:10539000334880781C28FAD13148C078AD2840D1F4
:1053A000304988682B4903F01DFA019003F0AEF9EB
:1053B00085B22C494868274903F014FA019003F09C
:1053C000A5F986B227490868224903F00BFA019033
:1053D00003F09CF987B2244988681E4903F002FA59
:1053E000019003F093F91FFA80F81F4948681949A2
:1053F00003F0F8F9019003F089F91FFA80FA1A49CD
:105400000868144903F0EEF9019003F07FF91FFAE0
:1054100080FB3B46424651465846CDE90065FFF7C2
:1054200006FF0F48C078AE28B1D10D4949790C4A22
:10543000127941EA022003F089F9824602F0BAFFAC
:1054400007460022094B14E05601002066660A4018
:105450000000B0400000C84200388F40000100202A
:10546000C0010020640300204C03002000005940CC
:105470006FE002F0B7FA054602F0C6F93649086057
:105480003649C979354A927941EA022003F05EF93A
:10549000824602F08FFF07460022314B02F0A2FA4B
:1054A000054602F0B1F92C4948602C49497A2B4A4B
:1054B000127A41EA022003F049F9824602F07AFFAB
:1054C00007460022264B02F08DFA054602F09CF9B1
:1054D000214988602149C97A204A927A41EA02200A
:1054E00003F034F9824602F065FF074600221C4BA8
:1054F00002F078FA054602F087F91A490860174960
:10550000497B164A127B41EA022003F01FF98246CA
:1055100002F050FF07460022114B02F063FA0546E5
:1055200002F072F90F4948600C49C97B0B4A927B23
:1055300041EA022003F00AF9824602F03BFF0746E7
:105540000022074B02F04EFA054602F05DF90549CC
:10555000886000BF11E700004C030020C00100205C
:105560000000594064030020FD48FE490860FE48E1
:1055700048604FF082408860FC48C86000200861A5
:105580004861F748FA490860F74848604FF08240A0
:105590008860F648C860002008614861F548F6490F
:1055A0000860002048604FF07C508860F348C86075
:1055B000002008614861F248F24908600020486014
:1055C0004FF080408860F048C86000200861486162
:1055D000EB48EE490860002048604FF0804088604A
:1055E000E948C8600020086148614FF08240E849FE
:1055F0000860E84848608860E348C86000200861A7
:10560000486170472DE9F04704460D46164621686B
:10561000286803F0EFF9E04908600A461168D14AAA
:10562000106902F0F3FECF4908610A46D16810699B
:1056300003F0A4F903D2CB48C068CA490861C9483D
:10564000C06880F00047C7480169384603F096F902
:1056500005D2C448C06880F00040C2490861C82E25
:1056600002DA0020BF490861CC4A1168CA4A1068B2
:1056700003F0C0F98146BB488168484603F0B2F8A0
:105680000746B84A1169506803F0ACF88146C24A2F
:105690001168B44A106803F0A5F88246494602F042
:1056A000B5FE8046394602F0B1FEAE494861BA48BF
:1056B0000068BA4908606168686803F09BF9B649F8
:1056C00048600A465168AA4A106902F09FFEA8493C
:1056D00008610A46D168106903F050F903D2A44862
:1056E000C068A3490861A248C06880F00047A0488C
:1056F0000169384603F042F905D29D48C06880F040
:1057000000409B490861C82E02DA002098490861D0
:10571000A24A5168A04A506803F06CF98146944847
:105720008168484603F05EF807468E4A1169904A40
:10573000506803F057F88146974A51688C4A1068C0
:1057400003F050F88246494602F060FE8046394632
:1057500002F05CFE864948618F4840688F49486086
:10576000BDE8F0872DE9F04104468D48B0F900000E
:1057700002F0ECFF06468B4903F034F80546794801
:105780004169284603F02BF9874908600A461168E9
:105790007C4A106902F03AFE7A4908610A46D168EB
:1057A000106903F0EBF803D27648C06875490861C8
:1057B0007448C06880F0004572480169284603F0CB
:1057C000DDF805D26F48C06880F000406D4908617F
:1057D000764A1168744A106803F00CF90746694864
:1057E0008168384602F0FEFF0546664A1169506836
:1057F00002F0F8FF07466C4A1168624A106802F02E
:10580000F1FF8046394602F001FE0646294602F0C5
:10581000FDFD5C494861644800686449086064486B
:10582000B0F9000002F092FF06465E4902F0DAFF8E
:1058300005464F484169284603F0D1F85A49486067
:105840000A465168514A106902F0E0FD4F4908616B
:105850000A46D168106903F091F803D24B48C0683A
:105860004A4908614948C06880F0004547480169D5
:10587000284603F083F805D24448C06880F0004011
:1058800042490861494A5168474A506803F0B2F8F2
:1058900007463E488168384602F0A4FF05463B4A69
:1058A0001169506802F09EFF07463F4A5168374A27
:1058B000106802F097FF8046394602F0A7FD0646C1
:1058C000294602F0A3FD314948613748406837490D
:1058D00048603848B0F90000404202F037FF054602
:1058E000304902F07FFF304988600A469168284AB3
:1058F000106902F08BFD264908610A46D1681069DB
:1059000003F03CF803D22248C068214908612048CE
:10591000C06880F000451E480169284603F02EF853
:1059200005D21B48C06880F00040194908611F4A31
:1059300091681D4A906803F05DF807461448816835
:10594000384602F04FFF0546114A1169506802F0CF
:1059500049FF0746144A91680D4A10682CE0000080
:105960000000A0404C0300200AD7A33C00007A446A
:1059700064030020000060407C0300200000964388
:105980003333B33F9403002000409C45AC03002018
:10599000C4030020CDCCCC3DDC030020E803002074
:1059A000B4000020F1FF793DF40300200004002042
:1059B000B6000020B800002002F014FF80463946EF
:1059C00002F024FD0646294602F020FDFE4948610A
:1059D000FE488068FE498860FE48807A012870D1C0
:1059E000FD48007800286ED1204602F0AFFE8046C8
:1059F000FA484169404602F0FDFF0746F848416910
:105A0000384602F003FD0646EF484169304602F091
:105A1000FDFC054602F05EFE00B2F2490880204619
:105A200002F094FE8046ED484169404602F0EEFCEB
:105A30000746EB484169384602F0E8FC0646E24872
:105A40004169304602F0D6FF054602F043FE00B23F
:105A5000E5490880204602F079FE8046DF4841692A
:105A6000404602F0D3FC0746DD484169384602F063
:105A7000C1FF0646D4484169304602F0C7FC0546DE
:105A800002F028FE00B2D9490880204602F05EFEEE
:105A90008046D2484169404602F0ACFF0746D048F4
:105AA0004169384602F0A6FF0646C74841693046BC
:105AB00002F0A0FF054602F00DFE00B2CC490880BE
:105AC0000DE054E0FFE7C4480078012807D1C5483D
:105AD0000480C5480480C5480480C5480480C14886
