:020000040800F2
:10000000B0060020010100088103000883030008F6
:10001000870300088B0300088F030008000000001E
:100020000000000000000000000000009303000832
:1000300095030008000000009703000899030008DA
:100040001B0100081B0100081B0100081B01000820
:100050001B0100081B0100081B0100081B01000810
:100060001B0100081B0100081B0100081B01000800
:100070001B0100081B0100081B0100081B010008F0
:100080001B0100081B0100081B0100081B010008E0
:100090001B0100081B0100081B0100081B010008D0
:1000A0001B0100081B0100081B0100081B010008C0
:1000B0001B010008AB0300081B0100081B0100081E
:1000C0001B0100089B030008A30300081B01000894
:1000D0001B010008FF2900081B0100081B01000884
:1000E0001B0100081B0100081B010008DFF80CD0F1
:1000F00005F06CFE0048004725010008B00600200E
:100100000648804706480047FEE7FEE7FEE7FEE7B1
:10011000FEE7FEE7FEE7FEE7FEE7FEE7FF25000855
:10012000ED00000892B0202107A805F0F2F900BF09
:1001300000BF7DA103C9CDE9050100BF00BF02F0EA
:1001400035FB02F0DFFA02F0DDFB4FF4E13002F0A4
:10015000FBFB02F06BFB7649022002F0B0FB0320B0
:10016000009001231A4673490190A62004F041FE35
:100170004FF4FA7004F07CFD002140F2E73003F008
:1001800045FB03F014FB03F007FC03F00FFC002316
:100190001A461946184604F0FCFC03F013FC03E071
:1001A0006349022002F073FB03F0A2FC0028F7D1A0
:1001B000042003F083FD04F079FBB4E05E4800788E
:1001C000012806D103F054FA03F013F800205A492D
:1001D00008705A480078012817D15948007838B17A
:1001E0000821584800F08DFA00205549087006E0B3
:1001F0000821544800F087FA0120514908700FA8DF
:1002000002F0E9FE00204D4908704F4800780128AF
:10021000D3D14E49109805F0DFF9064605F0EEFB04
:1002200004B24A49119805F0D7F9064605F0E6FBF5
:1002300005B24748B0F900004649B1F90010CDE9D0
:100240000254CDE900104448B0F900304348B0F9F9
:1002500000204348B0F900104248B0F9000003F014
:100260009CFF202004F058F93F48B0F9000005F049
:10027000B4FB804600223D4B05F037FB06460022CA
:100280003B4B05F0C0FA044605F0E5FB1FFA80FA87
:100290003848B0F9000005F0A0FB80460022334B3F
:1002A00005F023FB06460022314B05F0ACFA04466C
:1002B00005F0D1FB1FFA80FB2F48B0F9000005F0D4
:1002C0008CFB06460022294B05F00FFB80460022DE
:1002D000274B05F098FA044605F0BDFB80B2049068
:1002E0002648B0F9000005F078FB064600221F4BB7
:1002F00005F0FBFA044600221D4B05F084FA804607
:1003000005F0A9FB80B203904FF4A07053465A4603
:100310000090DDE9030103F0E3FF202004F0FCF886
:1003200000200949087049E773746F7000000000ED
:1003300020A10700801A06000E0000200F000020F8
:100340000C000020000C0140100000200000C842FA
:100350008800002086000020840000208E000020FD
:100360008C0000208A000020FA00002000408F400E
:1003700000005940F8000020F6000020F4000020A2
:10038000704700BFFEE700BFFEE700BFFEE700BF0B
:10039000FEE7704770477047704710B504F0BEFE27
:1003A00010BD10B505F086F810BD1348008800F0A8
:1003B0000100F8B14FF6FE700F4908800F48007831
:1003C000401C0E49087008460078142804D100200B
:1003D000087001200A49087008480078082802D1EE
:1003E00001200849087005480078092802D1012039
:1003F00005490870704700001004004011000020FB
:100400000E0000200F0000201000002031490143A1
:10041000314A1160704770B5002100230F22C47863
:1004200004B32D4C246804F4E064C4F5E064210AAC
:10043000C1F10403CA40447804FA03F184781440FB
:1004400021430901254C0678A155047804F01F05C5
:100450000124AC4005786D11AD0005F1E025C5F82B
:10046000004109E0047804F01F050124AC401C4D54
:100470000678761145F8264070BD1A4A0A400243B4
:10048000154B1B1F1A60704739B1134A121D1268B1
:100490000243114B1B1D1A6006E00F4A121D126821
:1004A00082430D4B1B1D1A607047042808D14FF082
:1004B000E021096941F004014FF0E022116107E0F9
:1004C0004FF0E021096921F004014FF0E0221161B1
:1004D000704700000000FA050CED00E000E400E0C9
:1004E00080E100E080FFFF1F10B50446CC48844245
:1004F00008D10121042000F02DFB0021042000F090
:1005000029FB46E0C748844208D10121082000F0B9
:1005100021FB0021082000F01DFB3AE0C248844284
:1005200008D10121102000F015FB0021102000F05F
:1005300011FB2EE0BD48844208D10121202000F0AB
:1005400009FB0021202000F005FB22E0B84884428E
:1005500008D10121402000F0FDFA0021402000F0E8
:10056000F9FA16E0B348844208D10121802000F056
:10057000F1FA0021802000F0EDFA0AE0AE48844252
:1005800007D10121801500F0E5FA0021A01500F047
:10059000E1FA10BD10B50121084600F0DBFA002198
:1005A000012000F0D7FA10BD2DE9F04102460025E8
:1005B0000026002000230024002791F803C00CF03F
:1005C0000F0591F803C00CF0100CBCF1000F03D024
:1005D00091F802C04CEA050591F800C0BCF1000F8B
:1005E00031D0146800202BE04FF0010C0CFA00F31E
:1005F000B1F800C00CEA03069E4220D183004FF000
:100600000F0C0CFA03F7BC4305FA03FC4CEA040494
:1006100091F803C0BCF1280F06D14FF0010C0CFA81
:1006200000FCC2F814C00AE091F803C0BCF1480F06
:1006300005D14FF0010C0CFA00FCC2F810C0401CB0
:100640000828D1D31460B1F800C0BCF1FF0F34DD2D
:10065000546800202EE000F1080C4FF0010808FA61
:100660000CF3B1F800C00CEA03069E4221D18300CE
:100670004FF00F0C0CFA03F7BC4305FA03FC4CEAED
:10068000040491F803C0BCF1280F05D100F1080C57
:1006900008FA0CF8C2F8148091F803C0BCF1480FB6
:1006A00007D100F1080C4FF0010808FA0CF8C2F865
:1006B0001080401C0828CED35460BDE8F0814FF66E
:1006C000FF710180022181700421C17070470246D0
:1006D000002093680B400BB1012000E00020704720
:1006E0000146886880B2704702460020D3680B40FC
:1006F0000BB1012000E0002070470146C86880B2BD
:10070000704701617047416170470AB1016100E0C3
:1007100041617047C16070474FF480320A43826183
:100720008161826182698269704702460020434B81
:1007300018684FF68073184040EA021008433F4B98
:10074000186070473E49C8617047F0B50A460023FB
:1007500000240021002500F00046B6F1004F02D130
:10076000364EF16901E0354E7168C0F3034583B23E
:1007700000F44016B6F5401F08D121F070612F4EED
:10078000766826F070662D4F7E6012E000F48016C9
:10079000B6F5801F06D1032606FA05F4A14341F001
:1007A000706106E0460D360103FA06F6B14341F0EA
:1007B000706122B1460D360103FA06F6314300F0AE
:1007C0000046B6F1004F02D11C4EF16101E01B4E14
:1007D0007160F0BD30B500228B071C0F0F2303FAA8
:1007E00004F2164B08338C1053F824309343134C07
:1007F00008348D1044F8253023468C1053F82430EB
:100800008C07240F00FA04F423430C4C08348D1099
:1008100044F8253030BD0A49DC31086070470000DB
:1008200000080140000C014000100140001401408C
:1008300000180140001C0140002001400000014060
:1008400000002042DF48006840F00100DD490860F8
:1008500008464068DC490840DA49486008460068B4
:10086000DA490840D74908600846006820F480202B
:1008700008600846406820F4FE0048604FF41F00FE
:1008800088607047CF49096821F48031CD4A1160F2
:100890001146096821F480211160B0F5803F03D032
:1008A000B0F5802F0ED106E0C649096841F48031C9
:1008B000C44A116007E0C349096841F4A021C14A54
:1008C000116000E000BF00BF704710B50146002274
:1008D000002300204A11012A02D1BA4C236806E005
:1008E000022A02D1B74C236A01E0B64C636A01F0D8
:1008F0001F02012494401C400CB1012000E00020A4
:1009000010BD38B5002000900024002500BF312024
:10091000FFF7DBFF05460098401C00900098B0F5FB
:10092000A06F01D0002DF2D03120FFF7CEFF08B12B
:10093000012400E00024204638BD01460020A14AE1
:10094000106820F0F80040EAC10010607047A0492C
:1009500008607047024600209A4B586820F47C10CB
:1009600042EA01031843974B58607047984908665C
:10097000704701460020934A506820F00300084366
:10098000506070478F48406800F00C007047014687
:1009900000208C4A506820F0F000084350607047F7
:1009A00001460020874A506820F4E0600843506008
:1009B000704701460020834A506820F4605040EAA6
:1009C000C1005060704729B17E4A527A02437D4B84
:1009D0005A7204E07B4A527A82437A4B5A727047C9
:1009E0007B49D8310860704701460020754A50683D
:1009F00020F440400843506070470021714A203283
:100A00001170704A82F82010012802D004280AD1FF
:100A100004E001216B4A2032117005E00521694A8A
:100A20002032117000E000BF00BF704769490860C4
:100A300070476449096A0143624A11627047654917
:100A400044390860704730B500210022002400239B
:100A50005C4D6D6805F00C0121B1042905D0082911
:100A600023D105E05C4D056022E05C4D05601FE090
:100A7000544D6D6805F47012524D6D6805F4803464
:100A8000022505EB92421CB9554D554305600BE01C
:100A90004C4D6D6805F400351DB14F4D5543056053
:100AA00002E04E4D5543056002E04B4D056000BF2E
:100AB00000BF444D6D6805F0F0010909494D6B5CBC
:100AC0000568DD4045603F4D6D6805F4E061090A49
:100AD000444D6B5C4568DD4085603A4D6D6805F4BA
:100AE0006051C90A3F4D6B5C4568DD40C560354DBE
:100AF0006D6805F44041890B3B4D6B5CC568B5FBE7
:100B0000F3F5056130BD29B12E4A526902432D4BE0
:100B10005A6104E02B4A526982432A4B5A6170475A
:100B200029B1284A92690243264B9A6104E0254A7A
:100B300092698243234B9A61704729B1214AD26955
:100B40000243204BDA6104E01E4AD26982431D4B06
:100B5000DA61704729B11B4AD2680243194BDA6047
:100B600004E0184AD2688243164BDA60704729B114
:100B7000144A12690243134B1A6104E0114A1269C4
:100B80008243104B1A617047124940390860704720
:100B90000F49C86470470B49C87170470948406ADB
:100BA00040F0807007494862704701460020054ABE
:100BB00092680A400AB1012000E000207047014914
:100BC00088727047001002400000FFF8FFFFF6FE39
:100BD000000042428004424200127A000024F400E5
:100BE00000093D00140000202400002010B5044638
:100BF000FB48844209D101218803FFF7ABFF0021A4
:100C00004FF48040FFF7A6FF32E0F648844209D156
:100C100001214804FFF7ABFF00214FF40030FFF73C
:100C2000A6FF25E0F048844209D101218804FFF79E
:100C30009EFF00214FF48020FFF799FF18E0EB485A
:100C4000844209D10121C804FFF791FF00214FF42C
:100C50000020FFF78CFF0BE0E548844208D101211A
:100C60000805FFF784FF00214FF48010FFF77FFF96
:100C700010BD2DE9F04786B005460E460024A24679
:100C800000BFA1460027B08900B100BF2F462C8AC3
:100C90004CF6FF700440F08804432C82AC894EF679
:100CA000F3100440B0883189084371890843044334
:100CB000AC81AC8A4FF6FF400440B0890443AC825B
:100CC00001A8FFF7C0FEC648874202D1DDF810A098
:100CD00001E0DDF80CA0A88900F4004040B10AEB67
:100CE000CA0000EB0A1031684900B0FBF1F807E0D8
:100CF0000AEBCA0000EB0A1031688900B0FBF1F87A
:100D00006420B8FBF0F004012009642101FB108984
:100D1000A88900F4004040B1322000EBC900B0FBCC
:100D2000F1F000F00700044308E0322000EB091066
:100D30006421B0FBF1F000F00F0004432C8106B0F9
:100D4000BDE8F0874FF41651016000218180C18019
:100D500001810C21418100218181704710B502463B
:100D60000020108A4FF2FF0318400B884C88234361
:100D70008C882343CC8823431843108210BD002164
:100D8000018041808180C180704721B1828942F415
:100D90000052828104E082894DF6FF731A408281FD
:100DA0007047F0B50346002400260025002040F6D9
:100DB0006A17B94200D100BF1846C1F3421401F0CE
:100DC0001F06012707FA06F5012C01D10C3004E0BB
:100DD000022C01D1103000E014301AB107682F4303
:100DE000076002E00768AF430760F0BD1AB1838A6D
:100DF0000B43838202E0838A8B4383827047028A9B
:100E00004FF6F0731A400282028A0A430282704748
:100E100082894FF2FF731A40828182890A4382815C
:100E2000704721B1828942F00202828104E0828906
:100E30004FF6FD731A4082817047028A4FF6DF73C6
:100E40001A400282028A0A430282704721B1028A52
:100E500042F48042028204E0028A4BF6FF731A4099
:100E600002827047C1F30802828070470146888879
:100E7000C0F308007047818941F00101818170470A
:100E8000028BD2B20283028B42EA012202837047B4
:100E9000028B02F47F420283028B0A430283704773
:100EA00021B1828A42F02002828204E0828A4FF6D7
:100EB000DF731A408282704721B1828A42F01002A9
:100EC000828204E0828A4FF6EF731A408282704772
:100ED00021B1828A42F00802828204E0828A4FF6BF
:100EE000F7731A408282704721B1828942F400422E
:100EF000828103E08289C2F30E028281704721B1B0
:100F0000828A42F40062828204E0828A4FF2FF7396
:100F10001A4082827047828A4FF6FB731A4082829F
:100F2000828A0A438282704721B1828A42F0020299
:100F3000828204E0828A4FF6FD731A4082827047F3
:100F400002460020B1F5007F00D100BF13880B409E
:100F50000BB1012000E00020704701F40072B2F5EF
:100F6000007F00D100BFCA430280704770B50246BF
:100F7000002400230025002040F66A16B14200D16B
:100F800000BFC1F3421501F01F03012606FA03F367
:100F9000012D02D19689334006E0022D02D1168A36
:100FA000334001E0968A33400C12012606FA04F41D
:100FB0001688344013B10CB1012000E0002070BD50
:100FC00010B50022002340F66A14A14200D100BFF0
:100FD0000A1201249440A3B2DC43048010BD000037
:100FE000003801400044004000480040004C0040F0
:100FF0000050004010B50446F748844209D1012151
:101000004805FFF7B4FD00214FF40010FFF7AFFDD6
:1010100008E001218805FFF7AAFD00214FF48000B8
:10102000FFF7A5FD10BD2DE9F04385B004460D4640
:101030000026B1460427DFF8A483A6884FF6C070C7
:1010400006406846FFF7FFFCDDF80880E448B8FB7F
:10105000F0F01FFA80F946EA0906A68020884FF6CC
:10106000FE71084020800026DE49286888420CD89E
:1010700028684000B8FBF0F087B2042F00DA04279C
:101080003E4309F10100208427E0E8884BF6FF7118
:10109000884206D1286800EB4000B8FBF0F087B228
:1010A00009E0286800EBC00101EB0010B8FBF0F08C
:1010B00087B247F48047C7F30B0008B947F0010730
:1010C00047F4004006434FF4967009FB00F04FF4DC
:1010D0007A7190FBF1F0401C2084A683208840F0B8
:1010E0000100208026884FF6F5300640A8886989DF
:1010F000084306432680A88929890843208105B032
:10110000BDE8F08341F288310160002181804BF617
:10111000FF71C1800021018141814FF480418181B3
:10112000704721B1028842F00102028004E0028887
:101130004FF6FE731A400280704721B1828842F454
:101140000062828004E082884FF2FF731A4082803E
:10115000704721B1828842F48052828004E0828804
:101160004EF6FF731A408280704721B1028842F424
:101170008072028004E002884FF6FF631A4002800A
:10118000704721B1028842F40072028004E00288B4
:101190004FF6FF531A400280704721B1028842F493
:1011A0008062028004E002884FF6FF331A4002801A
:1011B00070470A46002181894FF60173194002F0F9
:1011C000FE0319438181704721B1828942F00102F7
:1011D000828104E082894FF6FE731A408281704753
:1011E00021B1028842F04002028004E002884FF6FA
:1011F000BF731A40028070471AB183880B43838003
:1012000002E083888B4383807047018270470146E8
:10121000088AC0B2704712B141F0010102E04FF6F6
:10122000FE7319400182704708B502460020009005
:1012300000920098084400900098008808BD21B1F1
:10124000028842F40042028003E00288C2F30E02E8
:1012500002807047B1F5006F04D1028842F4006249
:10126000028004E002884FF2FF731A400280704748
:10127000B1F5005F04D1028842F40052028004E01C
:1012800002884DF6FF731A400280704721B1028830
:1012900042F48052028004E002884EF6FF731A4046
:1012A00002807047B1F5006F04D1028842F40062F9
:1012B000028004E002884FF2FF731A4002807047F8
:1012C00021B1028842F02002028004E002884FF639
:1012D000DF731A40028070470146088B0012704786
:1012E00021B1028842F01002028004E002884FF629
:1012F000EF731A400280704721B9028842F08002E1
:10130000028004E002884FF67F731A400280704723
:10131000B1F5804F05D0828B4BF6FF731A40828364
:1013200003E0828B42F480428283704770B50246AC
:101330000024002500230020958A138B1B0445EA16
:10134000030626F07F4404EA01068E4201D1012003
:1013500000E0002070BD10B50146002000230022EF
:101360008B8A0A8B120443EA020424F07F4010BDEA
:101370000CB50246002000230193009300920B0F4E
:10138000019321F07F41019B1BB1009B143300931B
:1013900003E0090C009B18330093009B1B680B4073
:1013A0000BB1012000E000200CBD002221F07F42A3
:1013B000D3438382704730B50246002000239488CF
:1013C00001F0E06504EA154321F07F41948A0C4066
:1013D00054B14BB1012008E00054004000127A00E3
:1013E00040420F00A0860100002030BD002221F005
:1013F0007F42D3438382704710B50446FE4884423F
:1014000008D10121C014FFF7A5FB0021E014FFF76C
:10141000A1FBC4E0B4F1804F08D101210846FFF7D9
:10142000A6FB00210120FFF7A2FBB8E0F3488442AD
:1014300008D101210220FFF79AFB00210220FFF7CB
:1014400096FBACE0EE48844208D101210420FFF76E
:101450008EFB00210420FFF78AFBA0E0E9488442CC
:1014600008D101210820FFF782FB00210820FFF7A7
:101470007EFB94E0E448844208D101211020FFF76C
:1014800076FB00211020FFF772FB88E0DF488442E2
:1014900008D101212020FFF76AFB00212020FFF75F
:1014A00066FB7CE0DA48844208D101214014FFF752
:1014B00051FB00216014FFF74DFB70E0D5488442DA
:1014C00009D10121C804FFF745FB00214FF400209A
:1014D000FFF740FB63E0D048844209D101210805B1
:1014E000FFF738FB00214FF48010FFF733FB56E085
:1014F000CA48844209D101214805FFF72BFB00218E
:101500004FF40010FFF726FB49E0C548844208D19C
:1015100001214020FFF72BFB00214020FFF727FB94
:101520003DE0C048844208D101218020FFF71FFB25
:1015300000218020FFF71BFB31E0BB48844208D12B
:1015400001218015FFF713FB0021A015FFF70FFB0A
:1015500025E0B648844209D101210804FFF7FAFAD0
:1015600000214FF48030FFF7F5FA18E0B0488442CC
:1015700009D101214804FFF7EDFA00214FF40030B2
:10158000FFF7E8FA0BE0AB48844208D10121880458
:10159000FFF7E0FA00214FF48020FFF7DBFA10BDDF
:1015A00000220288944B98420ED0994B98420BD05F
:1015B000B0F1804F08D0914B984205D0904B9842A3
:1015C00002D0904B984204D14FF68F731A404B884B
:1015D0001A438D4B984207D08C4B984204D04FF65B
:1015E000FF431A40CB881A4302808B8883850B887F
:1015F0000385814B98420BD0854B984208D08B4B8A
:10160000984205D08A4B984202D08A4B984201D129
:101610000B7A038601238382704770B50024002271
:101620000023058C4FF6FE7635400584028C8388B6
:10163000048B4FF68F752C40B51E2C400D882C4323
:10164000751E2A400D892A434D882A436A4DA842B7
:101650000BD06F4DA84208D0744DA84205D0744DF0
:10166000A84202D0734DA84213D14FF6F7752A4015
:101670004D892A434FF6FB752A408D882A434FF641
:10168000FF652B404FF6FF552B408D892B43CD89AD
:101690002B4383800483CD888586028470BD70B51A
:1016A000002400220023058C4FF6EF763540058498
:1016B000028C8388048B48F6FF752C404FF6FF455B
:1016C0002C400D884FF6FF7606EA05252C434FF691
:1016D000DF752A400D8906EA05152A434D8806EA7A
:1016E00005152A43444DA84202D0494DA8421DD1B8
:1016F0004FF67F752A404D894FF6FF7606EA0515AD
:101700002A434FF6BF752A408D8806EA05152A43FD
:101710004FF6FF352B404FF2FF752B408D8906EABF
:1017200085052B43CD8906EA85052B4383800483F9
:10173000CD880587028470BD70B500240022002387
:10174000058C4FF6FF6635400584028C8388848BB8
:101750004FF68F752C404FF6FC752C400D882C43AE
:101760004FF6FF552A400D894FF6FF7606EA05250C
:101770002A434D8806EA05252A431F4DA84202D078
:10178000234DA8421DD14FF2FF752A404D894FF6D7
:10179000FF7606EA05252A434FF6FF352A408D8855
:1017A00006EA05252A434EF6FF752B404DF6FF75D8
:1017B0002B408D8906EA05152B43CD8906EA0515D0
:1017C0002B4383808483CD888587028470BD70B568
:1017D000002200230024058C4EF6FF763540058458
:1017E000038C8488828B48F6FF752A404FF6FF45AC
:1017F0002A400D8820E00000002C01400004004039
:1018000000080040000C00400010004000140040A0
:1018100000340140004C01400050014000540140A0
:1018200000180040001C0040002000400040014023
:1018300000440140004801404FF6FF7606EA0525C6
:101840002A434DF6FF752B400D8906EA05352B43DB
:101850004D8806EA05352B43FA4DA84202D0FA4DD1
:10186000A84208D14BF6FF752C408D894FF6FF76C4
:1018700006EA85152C4384808283CD88A0F84050E9
:10188000038470BD828B4FF2FF331A408283828BB8
:101890004FF6FF7303EA01231A4382837047F0B5C2
:1018A0000C461546002200210026078C4EF6FF7CD0
:1018B00007EA0C070784828B018C4FF6FF7707EA53
:1018C000043640F6FF473A404FF6FF7707EA052710
:1018D0003A434FF6FF7707EA03373A43D94FB84206
:1018E0000ED0D94FB8420BD0B0F1804F08D0D74FAF
:1018F000B84205D0D64FB84202D0D64FB84206D132
:101900004DF6FF77394046F48057394305E047F6F6
:10191000FF57394044F48057394382830184F0BD36
:10192000828B4FF6F3731A408283828B0A43828341
:101930007047F0B50C461546002200210026078CA2
:101940004FF6FF6C07EA0C070784828B018C4FF679
:10195000FF7707EA04264FF60C773A404FF6FF77F9
:1019600007EA03172F433A43B64FB8420ED0B64F9B
:10197000B8420BD0B0F1804F08D0B44FB84205D078
:10198000B34FB84202D0B34FB84206D14FF6FF571B
:10199000394046F48077394305E04FF2FF5739402C
:1019A00044F48077394382830184F0BD028B4FF287
:1019B000FF331A400283028B4FF6FF7303EA0123C1
:1019C0001A4302837047F0B50C46154600220021E9
:1019D0000026078C4FF6EF7C07EA0C070784028B82
:1019E000018C4FF6FF7707EA041640F6FF473A40AE
:1019F0004FF6FF7707EA03373A434FF6FF7707EAD8
:101A000005273A438F4FB8420ED08F4FB8420BD0C4
:101A1000B0F1804F08D08D4FB84205D08C4FB842FE
:101A200002D08C4FB84206D14FF6DF77394046F0EE
:101A30001007394305E04FF65F77394044F010074F
:101A4000394302830184F0BD028B4FF6F3731A40D1
:101A50000283028B0A4302837047F0B50C46154699
:101A600000220021068C4FF6FE773E400684028B52
:101A7000018C4FF60C7632407E1C06EA03162E438C
:101A80003243704EB0420ED06F4EB0420BD0B0F128
:101A9000804F08D06D4EB04205D06D4EB04202D09E
:101AA0006C4EB04206D14FF6FD76314044F001064F
:101AB000314305E04FF6F576314044F001063143FD
:101AC00002830184F0BD70B505460C465D48854231
:101AD0000ED05D4885420BD0B5F1804F08D05B48F1
:101AE000854205D05A48854202D05A48854200D1E5
:101AF00000E000BF208850B92389A2886188284669
:101B0000FFF7ABFFE1882846FFF79EFF25E020881E
:101B100004280AD12389A28861882846FFF753FF49
:101B2000E1882846FFF742FF17E0208808280AD1FD
:101B30002389A28861882846FFF7FBFEE1882846B2
:101B4000FFF7EEFE09E02389A28861882846FFF7A7
:101B5000A6FEE1882846FFF795FE70BD2DE9F0410D
:101B600005460C4600260127608808B9022600E0D9
:101B70000026A088012801D1022700E00127208843
:101B8000A0B92389A28861882846FFF766FFE1880B
:101B90002846FFF759FF23893A4631462846FFF782
:101BA00012FFE1882846FFF701FF13E02389A2888E
:101BB00061882846FFF707FFE1882846FFF7F6FE11
:101BC00023893A4631462846FFF747FFE1882846F1
:101BD000FFF73AFFBDE8F0810A884B881A438B88EB
:101BE0001A43CB881A430B891A434B891A438B89B2
:101BF0001A43A0F8442070474FF6FF7181800021FE
:101C00000180C180418001727047002101804180C4
:101C10008180C180018141818181C1817047002122
:101C200001804180012181800021C18001817047B4
:101C30000021018041808180C180018141818181B9
:101C400070470000002C01400034014000040040B7
:101C500000080040000C004021B1028842F001025F
:101C6000028004E002884FF6FE731A40028070473B
:101C700031B1B0F8442042F40042A0F8442005E01D
:101C8000B0F84420C2F30E02A0F8442070471AB105
:101C900083890B43838102E083898B43838170476F
:101CA0008182704741EA0203A0F8483070471AB1B8
:101CB00083890B43838102E083898B43838170474F
:101CC00001894FF6F8721140018170470A460021E0
:101CD00001894FF68F73194011430181704730B568
:101CE00004460D4629462046FFF7F0FF208940F0C4
:101CF0000700208130BD2DE9F04104460D4616460F
:101D00001F46602D06D13B46012231462046FFF793
:101D10005AFE05E03B46012231462046FFF79DFE74
:101D200029462046FFF7D2FF208940F00700208196
:101D3000BDE8F08130B50C4600210189C9B24FF6EB
:101D4000FF7505EA0325154325432943018130BD6D
:101D50002DE9F04105460E461746984600244346B5
:101D60003A4631462846FFF7E5FF2C894FF6F870D2
:101D7000044044F007044FF68F70044044F07004B0
:101D80002C81BDE8F081F0B504460D4616461F468D
:101D90003B46324629462046FFF7CCFF208940F4D7
:101DA00080402081F0BD0185828270470A46002173
:101DB00001884FF68F731940114301807047F0B5C9
:101DC0000C4615461E460021002200230189028B85
:101DD000038C4FF6F877394021434FF6FC473A40E1
:101DE00040F201173A434FF6DD773B404FF6FF775D
:101DF00007EA06172F433B43018102830384F0BDAA
:101E00000A460021018B4FF68F731940114301835D
:101E100070470A460021018B48F6FF7319404FF6C0
:101E2000FF7303EA02231943018370470A46002126
:101E3000818B4FF68F7319401143818370470A4697
:101E40000021818B48F6FF7319404FF6FF7303EAB8
:101E5000022319438183704721B1028842F0800236
:101E6000028004E002884FF67F731A4002807047B8
:101E700021B1828842F00402828004E082884FF619
:101E8000FB731A408280704721B1828842F00802B9
:101E9000828004E082884FF6F7731A408280704790
:101EA00021B1828842F00102828004E082884FF6EC
:101EB000FE731A40828070470A460021018B4FF65C
:101EC000F77319401143018370470A460021018BC3
:101ED0004FF2FF7319404FF6FF7303EA02231943D1
:101EE000018370470A460021818B4FF6F773194032
:101EF0001143818370470A460021818B4FF2FF73A3
:101F000019404FF6FF7303EA022319438183704798
:101F10000A460021018B4FF6FB73194011430183E0
:101F200070470A460021018B4FF6FF3319404FF6E8
:101F3000FF7303EA02231943018370470A46002115
:101F4000818B4FF6FB7319401143818370470A461A
:101F50000021818B4FF6FF3319404FF6FF7303EAE0
:101F600002231943818370470A460021018B4FF6F3
:101F70007F7319401143018370470A460021018B8A
:101F8000C1F30E014FF6FF7303EA022319430183E5
:101F900070470A460021818B4FF67F731940114329
:101FA000818370470A460021818BC1F30E014FF6F1
:101FB000FF7303EA02231943818370470A46002115
:101FC000018C4FF6FD7319401143018470470A4696
:101FD0000021018C4FF6F7731940114301847047BB
:101FE0000A460021018C4FF6DF7319404FF6FF734C
:101FF00003EA02131943018470470A460021018C49
:102000004FF67F7319404FF6FF7303EA021319432B
:10201000018470470A460021018C4FF6FF53194096
:102020004FF6FF7303EA02231943018470470A46FF
:102030000021018C4FF2FF7319404FF6FF7303EA42
:1020400002231943018470470A460021018C4DF692
:10205000FF7319404FF6FF7303EA023319430184FB
:10206000704730B5002301248C40A3B2048C9C43FC
:102070000484048C02FA01F5ADB22C43048430BD13
:1020800030B5002304248C40A3B2048C9C43048408
:10209000048C02FA01F5ADB22C43048430BD70B556
:1020A0000346002000241846183001258D40ACB2AC
:1020B0001D8CA5431D8409B1082909D100EB6100DD
:1020C000056825F0700505600568154305600EE09C
:1020D0000D1FC5F34E052844056825F4E04505604D
:1020E00005684FF6FF7606EA02263543056070BDA7
:1020F00021B1028842F00202028004E002884FF619
:10210000FD731A400280704721B1028842F0040238
:10211000028004E002884FF6FB731A400280704789
:1021200021B1828842F08002828004E082884FF6EA
:102130007F731A408280704702884FF6F7731A4007
:10214000028002880A430280704782884FF68F73AC
:102150001A40828082880A438280704702894FF643
:10216000F8731A40028102890A430281704702898A
:102170004FF67F731A40028102890A430281704739
:1021800081847047818570478186704701877047D9
:1021900081877047A0F84010704702884FF6FF43D0
:1021A0001A40028002880A43028070470146888EE6
:1021B00070470146088F70470146888F7047014677
:1021C000B1F8400070470146888C70470146088D81
:1021D000704702460020138A0B400BB1012000E03B
:1021E00000207047CA430282704730B50246002083
:1021F00000230024158A05EA0103958905EA0104F4
:1022000013B10CB1012000E0002030BDCA430282AE
:102210007047000010B50446BE48844208D1012131
:102220008014FEF797FC0021A014FEF793FC16E043
:10223000B948844208D101210014FEF798FC00211E
:102240002014FEF794FC0AE0B448844207D101212F
:10225000C013FEF78CFC0021E013FEF788FC10BDD4
:1022600010B50022028802F441520B884C882343A7
:102270008C882343CC8823430C8923434C892343F4
:102280008C892343CC8923431A430280838B4FF2EA
:10229000FF74234083830B8A038210BD2DE9F04F26
:1022A00085B005460C464FF0000902274FF00008A4
:1022B0004FF0010B0026B246A88B4FF240010840B8
:1022C000A88302202884B5F81C90A068022801D1B8
:1022D00000BF38E0A08810B94FF0010B01E04FF0CB
:1022E000020B8D48854200D100E000BF6846FEF732
:1022F000AAFBDDF800A0E088B0F5007F0AD14FEA24
:102300001A2000EB80004000A168B0FBF1F0401DF6
:1023100086B20BE04FEA4B10BAFBF0F000EB800006
:102320004000A168B0FBF1F0401D86B20A20B6FB68
:10233000F0F606F00108A6EB0800C0F34F074FF6D1
:10234000FF7000EA0828022F01DBFF2F02DD0227C1
:102350004FF00008E08840EA080038432884A0884D
:10236000A1890843618808432188084340F400603C
:1023700040EA0909A5F81C9005B0BDE8F08F0021DE
:10238000018041808180C180018141818181C18141
:102390000721018270470021018041808180C18036
:1023A0000221816000218181704721B1028842F0C1
:1023B0004002028004E002884FF6BF731A40028098
:1023C000704721B1828B42F48062828304E0828B69
:1023D0004FF6FF331A408283704730B50024002344
:1023E0000C110125A540ABB21AB185881D4385802B
:1023F00002E085889D43858030BD1AB183880B43F8
:10240000838002E083888B4383807047818170479B
:102410000146888970474FF6FF62914204D00288D6
:1024200042F48072028004E002884FF6FF631A4093
:102430000280704721B1828842F00402828004E069
:1024400082884FF6FB731A408280704702884FF2F1
:10245000FF731A40028002880A4302807047018895
:1024600041F480510180704721B1028842F400524A
:10247000028004E002884DF6FF731A400280704724
:1024800002460020012901D0108B00E0908A70479D
:102490000146088A7047B1F5804F04D1028842F4A2
:1024A0008042028004E002884BF6FF731A400280EB
:1024B00070470246002013890B400BB1012000E059
:1024C00000207047CA4302817047F0B502460020E1
:1024D00000240023002501F00F070126BE40B4B2FE
:1024E0000B1101269E40B3B2968806EA03051689B1
:1024F000264016B10DB1012000E00020F0BD10B55E
:10250000002201F00F040123A3409AB2D3430381B8
:1025100010BD00000030014000380040003C004089
:102520000CB50020019000906C48006840F48030A9
:102530006A49086000BF6948006800F400300090F4
:102540000198401C0190009818B90198B0F5A06F4F
:10255000F1D16248006800F4003010B10120009011
:1025600001E0002000900098012843D15C480068F9
:1025700040F010005A4908600846006820F0030047
:1025800008600846006840F0020008605348406850
:10259000524948600846406848600846406840F430
:1025A000806048600846406820F47C104860084617
:1025B000406840F4E81048600846006840F08070C9
:1025C000086000BF4548006800F000700028F9D09E
:1025D0004248406820F0030040494860084640688F
:1025E00040F00200486000BF3C48406800F00C002A
:1025F0000828F9D10CBD10B5FFF792FF10BD10B53A
:102600003648006840F001003449086008464068D8
:10261000344908403149486008460068324908405A
:102620002E4908600846006820F4802008600846AB
:10263000406820F4FE0048604FF41F008860FFF7F8
:10264000DAFF4FF000602949086010BD10B5002185
:1026500000200022214B5B6803F00C0121B104290A
:1026600006D0082928D107E0214B224C236027E01F
:10267000214B204C236023E0184B5B6803F470105F
:10268000164B5B6803F48032022303EB904022B9BF
:102690001A4B4343174C23600DE0104B5B6803F467
:1026A000003323B1124B4343124C236003E0124B1F
:1026B0004343104C236003E00D4B0E4C236000BFDE
:1026C00000BF064B5B68C3F303130D4CE15C094B81
:1026D0001B68CB40074C236010BD00000010024077
:1026E000002002400000FFF8FFFFF6FE08ED00E0CA
:1026F00000127A00280000200024F40000093D00A8
:102700002C0000204FF0E020006920F004004FF082
:10271000E02108610920234908700846007800EB91
:102720004001C1EBC0104FF6FF7101EAC0001E4925
:102730000880704701461C4A12884A434FF0E02344
:102740005A6100229A6101221A6100BF4FF0E02213
:10275000106900F001021AB100F48032002AF5D0AD
:1027600000224FF0E0231A619A61704701460D4A3A
:1027700012784A434FF0E0235A6100229A61012205
:102780001A6100BF4FF0E022106900F001021AB197
:1027900000F48032002AF5D000224FF0E0231A61C5
:1027A0009A6170473C0000203E00002010B5FEF703
:1027B00049F84FF48030FEF765F8FEF7A2F80128DB
:1027C00030D10020FEF7E3F80020FEF7F2F84FF4D6
:1027D0008060FEF7E5F81448006840F010001249E8
:1027E00008600846006820F003000860084600689A
:1027F00040F0020008604FF4E0114FF44030FEF763
:10280000A9F80120FEF7B2F800BF3920FEF75DF805
:102810000028FAD00220FEF7ACF800BFFEF7B2F8AD
:102820000828FBD110BD00000020024008B501219E
:102830000820FEF775F901211020FEF771F901213A
:102840000846FEF76DF901212A48FDF77EFF0121B8
:102850002948FDF77AFF0820ADF8000003208DF825
:10286000020010208DF8030069462448FDF79CFE05
:102870004FF40050ADF8000003208DF80200102046
:102880008DF8030069461E48FDF78EFE08BD70B541
:1028900005460C460DE008211848FDF734FF204698
:1028A000FFF764FF08211548FDF72BFF2046FFF7CF
:1028B0005DFF2800A5F10101CDB2ECD170BD70B56E
:1028C00005460C460FE04FF400510D48FDF719FF87
:1028D0002046FFF74BFF4FF400510948FDF713FF67
:1028E0002046FFF743FF2800A5F10101CDB2EAD150
:1028F00070BD00000004300000023000000C0140F8
:102900000010014008B54FF4A060FDF77FFD1D20C9
:102910008DF8000000208DF8010001208DF80200E4
:102920008DF803006846FDF776FD25208DF8000040
:1029300003208DF8010001208DF802008DF80300BE
:102940006846FDF768FD08BD10B586B00446012154
:1029500044F20400FEF7E4F84FF40070ADF8140000
:1029600018208DF8170003208DF8160005A93448AB
:10297000FDF71AFE4FF48060ADF8140004208DF8C6
:10298000170005A92E48FDF70FFE01940020ADF8B1
:102990000800ADF80A00ADF80C00ADF810000C20EE
:1029A000ADF80E0001A92748FEF763F9012240F2B5
:1029B00025512448FEF7F5F901212248FEF7E5F9F3
:1029C00006B010BD70B504460D46E1B21D48FEF7D5
:1029D00049FA00BF40211B48FEF7B2FA0028F9D09F
:1029E000204670BD10B5044600BF20211548FEF7F3
:1029F000A7FA0028F9D01348FEF738FA10BD10B531
:102A000040F225510F48FEF7B1FA90B10D48FEF79C
:102A10002DFA0D490D4A126888540C480068401C74
:102A20000A490860084600681F2802D101200849A9
:102A3000086040F225510348FEF7C2FA10BD0000BD
:102A40000008014000380140300100204000002013
:102A5000440000200EB501210620FEF76EF86846FE
:102A6000FFF7CAF84FF6FF70ADF804000020ADF88C
:102A70000000ADF80600ADF802006946FE48FEF71A
:102A80008FFD00221146FC48FFF78DF90121FA481D
:102A9000FFF72EFB2021F848FFF718F90721F64829
:102AA000FFF75CFB8021F448FFF761FB0121F2484E
:102AB000FFF7D2F94FF6FF70ADF804004820ADF8EB
:102AC00000000020ADF80600ADF802006946EB48B2
:102AD000FEF766FD0121E948FFF7BEF90421E7484A
:102AE000FFF73CFB0121E548FFF70EFB2021E348FF
:102AF000FFF72BFB8021E148FFF739FB0121DF487D
:102B0000FFF7AAF80121DC48FFF7A6F80EBD002068
:102B1000D949243108880004D84924310988084457
:102B200070472DE9F04F91B006460F4614461D46FA
:102B3000DDE91A89D249304602F04EFD0646D049F9
:102B4000384602F049FD0746CD49204602F044FDD3
:102B500004464946484602F03FFD4146069040463D
:102B600002F03AFD29460490284602F035FD039014
:102B7000049902F0D9FC0590069902F0D5FC079063
:102B800002F082FFCDE9080103F00AFDCDE90A0158
:102B900002F0BEFF10902846109902F04FFD054646
:102BA0004046109902F04AFD80464846109902F0CE
:102BB00045FD8146B3480168B348006802F00CFD4A
:102BC0000A90B2480168B248006802F005FD099019
:102BD0000A9902F0FBFC4FF080410B9002F0FCFCE4
:102BE0000F90AA480168A748006802F0F5FC0A9017
:102BF000A7480168A448006802F0EEFC09900A9911
:102C000002F092FC4FF080410B9002F0E5FC0E9038
:102C10009E480168006802F0DFFC0B90994801684B
:102C2000006802F0D9FC099099480168006802F038
:102C3000D3FC079094480168006802F0CDFC069030
:102C4000079902F0C3FC0890099902F0BFFC0A90B2
:102C50000B9902F069FC0D9048460E9902F0BCFCFD
:102C60000B9040460D9902F0B7FC0A900B9902F0C8
:102C7000ADFC824628460D9902F0AEFC0B9048460A
:102C80000F9902F0A9FC0A900B9902F09FFC834671
:102C900040460F9902F0A0FC0B9028460E9902F0D6
:102CA0009BFC0A900B9902F091FC0C9079495046DC
:102CB00002F092FC0B90784801680B9802F034FC0B
:102CC000754908607349584602F086FC0B907348BA
:102CD00001680B9802F028FC704908606D490C9857
:102CE00002F07AFC0B906E4801680B9802F01CFC15
:102CF0006B49086051466B4802F06EFC31460A9001
:102D000002F012FC0B90644801680B9802F00CFC76
:102D100006465946634802F05FFC39460A9002F0C5
:102D200003FC0B905D4801680B9802F0FDFB074621
:102D30005C480C9902F050FC21460A9002F0F4FB2A
:102D40000B90574801680B9802F0EEFB04462146B1
:102D50004E48006802F040FC394609904948006836
:102D600002F03AFC07904A48006880F00040314683
:102D7000059002F031FC0690079902F027FC0890BC
:102D8000099902F023FC0A90474801680A9802F06A
:102D900023FC0B903C4801680B9802F0C5FB3A49B4
:102DA000086039463948006802F016FC214609904F
:102DB0003448006802F010FC079033480168304640
:102DC00002F00AFC0690079902F0AEFB0890099900
:102DD00002F0FCFB0A90344801680A9802F0FCFB00
:102DE0000B902B4801680B9802F09EFB2849086065
:102DF00026480168304602F0EFFB2146099024483E
:102E0000006802F0E9FB394607901F48006802F0AD
:102E1000E3FB0690079902F0D9FB0890099902F0AC
:102E200083FB0A90204801680A9802F0D5FB0B90BA
:102E3000144801680B9802F077FB124908600846B5
:102E40000168304602F0C8FB394609901048006816
:102E500002F0C2FB214607900B48006802F0BCFB61
:102E60000690079902F060FB0890099902F0AEFB0A
:102E70000A900D48016819E0000800400004004075
:102E800089A18B3A58000020500000205C000020EF
:102E9000540000206F12833A60000020640000207C
:102EA00068000020CDCCCC3F6C0000200A9802F0D6
:102EB00093FB0B90BA4801680B9802F035FBB849B8
:102EC000086008460168006802F086FB0690B54875
:102ED0000168006802F080FB0490B3480168006854
:102EE00002F07AFB0290B1480168006802F074FBBE
:102EF0000190029902F018FB0390049902F014FB70
:102F00000590069902F010FB079002F0BDFDCDE997
:102F1000080103F045FBCDE90A0102F0F9FD10902C
:102F2000A2481099006802F089FBA04908609E48F9
:102F30001099006802F082FB9B490860994810993B
:102F4000006802F07BFB974908609548109900687B
:102F500002F074FB9249086011B0BDE8F08F2DE9D2
:102F6000FC4704469248B0F9000002F02DFD0546EA
:102F70009048B0F9000002F027FD06468E48B0F9EF
:102F8000000002F021FD07468C48B0F9000002F075
:102F90001BFD80468A48B0F9000002F015FD81460D
:102FA0008848B0F9000002F00FFD82463B464246D9
:102FB0004946CDE90065FFF7B4FD7C480068206014
:102FC00079480068606077480068A06074480068CD
:102FD000E060BDE8FC872DE9F04F8FB082460AA87B
:102FE000FFF7BDFF4FF080400D9902F0F5FA049015
:102FF0000D9902F0F1FA81464FF040400C9902F031
:10300000EBFA04900C9902F0E7FA8346494602F085
:10301000DDFA80464FF07E5102F086FA059002F00C
:1030200033FD06460F464FF080400A9902F0D4FA6D
:1030300005900D9902F0D0FA81464FF080400B992F
:1030400002F0CAFA05900C9902F0C6FA8346494686
:1030500002F06AFA804602F017FD32463B46CDE99F
:10306000060103F0DDF94FF06632574BCDE9080158
:1030700002F0C9FB044602F04BFDCAF800005348B9
:10308000006802F001FD06460F464FF080400A99A5
:1030900002F0A2FA03900C9902F09EFA04904FF00D
:1030A00040400B9902F098FA03900D9902F094FABF
:1030B0008346049902F038FA059002F0E5FCCDE968
:1030C000060102F065FF4FF066323F4BCDE9080183
:1030D00002F099FB804632463B4602F08EFB0446E6
:1030E00002F016FDCAF804003948006802F0CCFC72
:1030F000CDE908014FF080400C9902F06DFA009084
:103100000C9902F069FA83464FF040400B9902F0A7
:1031100063FA00900B9902F05FFA5946019002F0B1
:1031200055FA81464FF07E5102F0FEF9804602F0DA
:10313000ABFCCDE902014FF080400A9902F04CFA55
:1031400001900B9902F048FA81464FF080400C99AB
:1031500002F042FA01900D9902F03EFA8346494688
:1031600002F0E2F9804602F08FFC0646DDE9022318
:1031700003F056F94FF06632134BCDE9040102F02B
:1031800042FBCDE90601DDE9082302F036FB0446E7
:1031900002F0BEFCCAF808000FB0BDE8F08F0000D6
:1031A0005C00002058000020540000205000002047
:1031B0008E0000208C0000208A0000208800002063
:1031C000860000208400002066A64C407400002089
:1031D00078000020002109E0002201E0531C9AB28F
:1031E00042F234139A42F9DB4B1C99B28142F3DB71
:1031F0007047FE48407AFD49097A40EA0120FC49BF
:103200000988401A00B2FB490880F848C07AF7499B
:10321000897A40EA0120F8490988401A00B2F74942
:103220000880F248407BF149097B40EA0120F449DB
:103230000988401A00B2F3490880EC484078EB490D
:10324000097840EA0120F0490988401A00B2EF49A4
:103250000880E648C078E549897840EA0120EC49D1
:103260000988401A00B2EB490880E0484079DF49FC
:10327000097940EA012000B2E7490880E348B0F943
:103280000000B0F5004F02DB47F6FF7002E0DF48B8
:10329000B0F90000DD4908800846B0F9000010F5DB
:1032A000004F01DADD4802E0D848B0F90000D74904
:1032B0000880D848B0F90000B0F5004F02DB47F6AF
:1032C000FF7002E0D348B0F90000D24908800846F8
:1032D000B0F9000010F5004F01DAD04802E0CD4807
:1032E000B0F90000CB490880CB48B0F90000B0F538
:1032F000004F02DB47F6FF7002E0C748B0F900005C
:10330000C54908800846B0F9000010F5004F01DA01
:10331000C24802E0C048B0F90000BF490880B54883
:10332000B0F90000B0F5004F02DB47F6FF7002E095
:10333000B048B0F90000AF4908800846B0F9000075
:1033400010F5004F01DAB54802E0AA48B0F90000D4
:10335000A8490880A948B0F90000B0F5004F02DB89
:1033600047F6FF7002E0A548B0F90000A3490880C5
:103370000846B0F9000010F5004F01DAA74802E056
:103380009E48B0F900009D4908809E48B0F90000B1
:10339000B0F5004F02DB47F6FF7002E09948B0F944
:1033A0000000984908800846B0F9000010F5004F69
:1033B00001DA9A4802E09348B0F900009149088088
:1033C00097480068002856D19648007880B90020B8
:1033D000874908808849088089490880924908609F
:1033E000924908609249086001208E490870704730
:1033F0008D4800687F49B1F9001008448A49086087
:103400008A4800687D49B1F900100844874908607E
:10341000874800687B49B1F9001008448449086076
:1034200080480078C82821D17F4800687D49097804
:1034300090FBF1F000B26E4908807C480068794941
:10344000097890FBF1F000B26B4908807848006879
:103450007449097890FBF1F000B2694908800020B6
:103460007049087001206E490860C0E76D48007817
:10347000401C6C4908706F48006800284ED16E48A7
:10348000007880B9002060490880614908806B4954
:1034900008806B4908606B4908606B49086001202F
:1034A00065490870A3E7664800685849B1F90010FB
:1034B000084463490860634800685649B1F9001040
:1034C0000844604908605C480078C82821D15C48FD
:1034D00000685949097890FBF1F000B24A49088028
:1034E000584800685449097890FBF1F000B2484907
:1034F0000880554800685049097890FBF1F000B207
:103500004E49088000204C49087001204949086054
:103510006DE749480078401C4749087000BF66E7DE
:103520002DE9FF4F81B00E4617461D464FF00008AB
:10353000C146C246019802F047FA4449444A12780B
:1035400041F82200304602F03FFA4249404A1278E0
:1035500041F82200384602F037FA3F493C4A1278D7
:1035600041F8220000242BE0404602F02DFA0090A2
:10357000364850F82410009801F0D6FF834602F038
:103580003DFA8046484602F01FFA0090314850F854
:103590002410009801F0C8FF834602F02FFA8146FC
:1035A000504602F011FA00902B4850F82410009871
:1035B00001F0BAFF834602F021FA8246601CC4B2D1
:1035C000142CD1DB142098FBF0F000B228801420DA
:1035D00099FBF0F000B2688014209AFBF0F000B282
:1035E000A8801B480078401C194937E05001002092
:1035F000900000208400002092000020860000201F
:103600009400002088000020960000208A000020FE
:10361000980000208C0000208E0000200080FFFF1A
:10362000A0000020B8000020AC000020B000002066
:10363000B4000020A4000020C80000209A00002050
:10364000BC000020C0000020C40000206C0100204D
:10365000C9000020BC0100200C02002008700846B0
:103660000078142801D10020087005B0BDE8F08F63
:1036700010B5654B0E223B21D02001F037FC10BD68
:10368000F8B506460F4614461D466B4601223946DC
:10369000304601F06AFC2DB10120A0409DF80010D9
:1036A000084305E00120A0409DF8001021EA000039
:1036B000C0B200906B4601223946304601F0D6FC7C
:1036C000F8BD2DE9F8430746884614461D46089E76
:1036D0006B4601224146384601F047FC601CFF2141
:1036E00001FA00F0C4F108012944491EFF220A41F1
:1036F000104300F0FF09C5F1080006FA00F0C6B259
:10370000C4F1070006419DF8000000EA090000909E
:103710009DF80000304300906B4601224146384638
:1037200001F0A4FCBDE8F88338B504460323022267
:103730006B21D0200094FFF7C4FF38BD38B5044694
:10374000022304221B21D0200094FFF7BAFF38BDCA
:1037500038B50446022304221C21D0200094FFF730
:10376000B0FF38BD10B50446234606226B21D02099
:10377000FFF786FF10BD10B50446234605226A21D7
:10378000D020FFF77DFF10BD10B50446234601226F
:103790003721D020FFF774FF10BD38B5044603234E
:1037A00002221A21D0200094FFF78BFF38BD10B5FC
:1037B0000020FFF7D7FFC820FFF70CFD0120FFF71F
:1037C000B3FF3220FFF706FD0320FFF7B7FF3220DB
:1037D000FFF700FD0120FFF7BBFF3220FFF7FAFCE7
:1037E0000320FFF7DAFF3220FFF7F4FC0020FFF799
:1037F000C2FF3220FFF7EEFC0120FFF7C5FF3220A9
:10380000FFF7E8FC10BD0000500100203EB5054662
:103810000C4601210846FDF790F9ADF80450ADF8CB
:1038200000400020ADF80600ADF8020069464FF0F8
:103830008040FDF7B5FE01218807FEF70DFA3EBD79
:1038400008B501210420FDF76BF90120ADF8000057
:1038500018208DF8030003208DF8020069465848AF
:10386000FCF7A2FE08BD1FB56020ADF800000120E6
:10387000ADF802000020ADF8080069464FF0804026
:10388000FDF7CBFE0821C806FEF716FB01218807CD
:10389000FEF7E2F91FBD08B501210420FDF740F94C
:1038A0000220ADF8000018208DF8030003208DF8E9
:1038B000020069464248FCF777FE08BD1FB560204C
:1038C000ADF800000120ADF802000020ADF80800BE
:1038D00069464FF08040FDF7E2FE0821C806FEF77A
:1038E000F4FA01218807FEF7B7F91FBD08B50121D9
:1038F0000420FDF715F90420ADF8000018208DF81C
:10390000030003208DF8020069462D48FCF74CFEA9
:1039100008BD1FB56020ADF800000120ADF8020021
:103920000020ADF8080069464FF08040FDF704FF25
:103930000821C806FEF7D6FA01218807FEF78CF9A0
:103940001FBD08B501210420FDF7EAF80820ADF8F5
:10395000000018208DF8030003208DF8020069464E
:103960001748FCF721FE08BD1FB56020ADF8000028
:103970000120ADF802000020ADF8080069464FF0C4
:103980008040FDF724FF0821C806FEF7B4FA0121A4
:103990008807FEF761F91FBD10B5FFF7A7FFFFF716
:1039A0004FFFFFF778FFFFF7CCFF10BD10B5FFF713
:1039B000B0FFFFF758FFFFF781FFFFF7D5FF10BDFE
:1039C0000008014000B587B001210C20FDF7A8F8E0
:1039D0001020ADF8180003208DF81A0010208DF883
:1039E0001B0006A9F348FCF7DFFD0420ADF8180022
:1039F00006A9F148FCF7D8FD0120ADF818002820F1
:103A00008DF81B0006A9EC48FCF7CEFD0521EA481D
:103A1000FCF779FE1021E748FCF775FE00F007FA85
:103A20000021E648FEF7C1FC0020ADF804004FF489
:103A30008270ADF806000020ADF80800ADF80A006D
:103A4000ADF80C004FF40070ADF80E001820ADF882
:103A500010000020ADF812000720ADF8140001A9F5
:103A6000D648FEF7FDFB0121D448FEF79EFC00205E
:103A7000D34908600120D349C1F8900107B000BDC7
:103A80002DE9F04107460D4616460020CE49086054
:103A9000384600F0A5F98046002405E0FF2000F03C
:103AA0009FF92855601CC4B2B442F7DB0120C64917
:103AB00008604046BDE8F0812DE9F04107460C461C
:103AC00015460020C0490860384600F089F9804654
:103AD000002605E014F8010B00F082F9701CC6B254
:103AE000AE42F7DB0120B84908604046BDE8F081EE
:103AF0001CB5B6A103C9CDE90001082000F0DBF92F
:103B0000052269463020FFF7D7FF052269461020BD
:103B1000FFF7B6FF002406E01DF80400A52800D03A
:103B200003E0601CC4B2052CF6DB00BF052C01D0FD
:103B300001201CBD0020FCE770B505460C460020A6
:103B4000A1490860284600F04BF90646204600F0DF
:103B500047F901209B49C1F89001304670BD70B50E
:103B60000446002098490860204600F039F9FF20FB
:103B700000F036F9054601209249C1F89001284627
:103B800070BD70B50546102000F095F900208C49F5
:103B9000086020222946A020FFF78EFF01208D49D2
:103BA000C1F8880100BF8648883800680028FAD12B
:103BB0000720FFF7D4FF044621462720FFF7BCFF6C
:103BC00004F0100028B1FF21E120FFF7B5FF10201D
:103BD00070BD04F0200008B12020F9E7FF20F7E7CE
:103BE00070B50446102000F066F90720FFF7B7FF14
:103BF000054629462720FFF79FFF05F0400050B1FA
:103C0000202221466120FFF73BFFFF21E220FFF742
:103C100093FF002070BD0120FCE710B5002068492B
:103C2000086005226C492A20FFF746FF0121212068
:103C3000FFF782FF01212220FFF77EFF28212520A8
:103C4000FFF77AFF20213120FFF776FF0F21262092
:103C5000FFF772FF0F212020FFF76EFF01205D4963
:103C6000C1F8880110BD10B5002055490860052233
:103C70005A493020FFF720FF052257492A20FFF735
:103C80001BFF01212120FFF757FF01212220FFF711
:103C900053FF1A212420FFF74FFF28212520FFF78B
:103CA0004BFF0F212620FFF747FF0E212020FFF7B3
:103CB00043FF01204749C1F8880110BD10B50446F3
:103CC00000203F490860052243492A20FFF7F4FEFF
:103CD00001212120FFF730FF01212220FFF72CFFD7
:103CE00028212520FFF728FF0F212620FFF724FF9A
:103CF000012C07D120213120FFF71EFF0F212020AA
:103D0000FFF71AFF022C0CD1052234493020FFF7AF
:103D1000D3FE1A212420FFF70FFF0E212020FFF7EA
:103D20000BFF032C1DD120213120FFF705FFFF21C0
:103D3000E120FFF701FFFF21E220FFF7FDFE0F2149
:103D40002020FFF7F9FE502000F04AF8732000F021
:103D500047F801213C20FFF7EFFE07213D20FFF748
:103D6000EBFE042C22D105221C493020FFF7A4FED3
:103D70001A212420FFF7E0FE0E212020FFF7DCFEB1
:103D8000FF21E120FFF7D8FEFF21E220FFF7D4FE5C
:103D9000502000F025F8732000F022F801213C208B
:103DA000FFF7CAFE07213D20FFF7C6FE01200449A8
:103DB000086010BD00080140000C014000300140C7
:103DC000888121420000214290012142A5A5A5A59C
:103DD000A500000000802142F1650008EC650008A4
:103DE00070B50546002405E0601CC4B2C82C01DD96
:103DF000002070BD02213948FEF75BFB0028F3D09C
:103E000029463648FEF702FB002405E0601CC4B2D8
:103E1000C82C01DD0020ECE701213048FEF749FB0A
:103E20000028F3D02D48FEF7F3FAC0B2E1E700B561
:103E300087B001210420FCF773FE01210803FCF781
:103E40006FFEE020ADF8180018208DF81B0003204D
:103E50008DF81A0006A92248FCF7A6FBE0212048AD
:103E6000FCF74FFC0020ADF804004FF48270ADF871
:103E700006000020ADF808000220ADF80A0001207D
:103E8000ADF80C004002ADF80E003820ADF810007F
:103E90000020ADF812000720ADF8140001A90F486A
:103EA000FEF7DEF901210D48FEF77FFAFF20FFF74C
:103EB00097FF07B000BD10B50446084800884FF6CC
:103EC000C7710840054908800846008820430880DB
:103ED00001210248FEF769FA10BD000000300140E0
:103EE00000080140FB490A780978491CF94B197010
:103EF000F94988547047F7490A780978491CF54B05
:103F00001970F6498854704711B500209DF80120BA
:103F1000F0490B780978491CEE4C2170EE49CA54DF
:103F20009DF8003021460A780978491C2170EA4939
:103F30008B549DF801100144C8B29DF80010014453
:103F4000C8B218BD11B500209DF80120E1490B78D9
:103F50000978491CDF4C2170DF49CA549DF80030B4
:103F600021460A780978491C2170DB498B549DF859
:103F700001100144C8B29DF800100144C8B218BD38
:103F800011B500209DF80320D2490B780978491C0F
:103F9000D04C2170D049CA549DF8022021460B789C
:103FA0000978491C2170CC49CA549DF8012021464A
:103FB0000B780978491C2170C749CA549DF8002024
:103FC00021460B780978491C2170C349CA549DF8D1
:103FD00003100144C8B29DF802100144C8B29DF814
:103FE00001100144C8B29DF800100144C8B218BDC8
:103FF00011B500240020B74908708820FFF77BFF27
:104000002044C4B2A120FFF776FF2044C4B20220AE
:10401000FFF771FF2044C4B29DF80100FFF76BFF6A
:104020002044C4B29DF80000FFF765FF2044C4B2ED
:104030002046FFF760FF18BD30B50546002400207C
:10404000A44908708820FFF74DFF2044C4B2A12086
:10405000FFF748FF2044C4B20220FFF743FF20448B
:10406000C4B22846FFF750FF2044C4B22046FFF7F1
:1040700039FF30BD30B50546002400209549087051
:104080008820FFF72FFF2044C4B2A120FFF72AFFAA
:104090002044C4B20220FFF725FF2044C4B22846C2
:1040A000FFF750FF2044C4B22046FFF71BFF30BD8E
:1040B000F0B507460D4616460024002085490870D5
:1040C0008820FFF70FFF2044C4B2A120FFF70AFFAA
:1040D0002044C4B20620FFF705FF2044C4B238468E
:1040E000FFF730FF2044C4B22846FFF72BFF2044DF
:1040F000C4B23046FFF726FF2044C4B22046FFF783
:10410000F1FEF0BD2DE9F04180460D4616461F46F2
:10411000002400206F4908708820FFF7E3FE204448
:10412000C4B24046FFF7DEFE2044C4B20C20FFF7C5
:10413000D9FE2044C4B22846FFF722FF2044C4B26F
:104140003046FFF71DFF2044C4B23846FFF718FF82
:104150002044C4B22046FFF7C5FEBDE8F08130B56B
:104160000546002400205B4908708820FFF7BAFE4E
:104170002044C4B2A120FFF7B5FE2044C4B2012000
:10418000FFF7B0FE2044C4B22846FFF7ABFE204440
:10419000C4B22046FFF7A6FE30BD1FB500240020A4
:1041A0004C4908708820FFF79DFE2044C4B2AF2020
:1041B000FFF798FE2044C4B21C20FFF793FE204472
:1041C000C4B29DF80100FFF78DFE2044C4B29DF8F3
:1041D0000000FFF787FE2044C4B29DF80500FFF7FA
:1041E00081FE2044C4B29DF80400FFF77BFE20440A
:1041F000C4B29DF80900FFF775FE2044C4B29DF8D3
:104200000800FFF76FFE2044C4B29DF80D00FFF7D1
:1042100069FE2044C4B29DF80C00FFF763FE204401
:10422000C4B29DF81900FFF75DFE2044C4B29DF8AA
:104230001800FFF757FE2044C4B29DF81D00FFF799
:1042400051FE2044C4B29DF81C00FFF74BFE2044F1
:10425000C4B20020FFF746FE0020FFF743FE002017
:10426000FFF740FE0020FFF73DFE0020FFF73AFE7B
:104270000020FFF737FE9DF82100FFF733FE2044B2
:10428000C4B29DF82000FFF72DFE2044C4B29DF873
:104290002500FFF727FE2044C4B29DF82400FFF755
:1042A00021FE2044C4B20020FFF71CFE0020FFF7CF
:1042B00019FE0020FFF716FE0020FFF713FE002076
:1042C000FFF710FE0020FFF70DFE2046FFF70AFE65
:1042D0001FBD0000D00000205C020020CA000020AA
:1042E0001FB500240020FA4908708820FFF7FAFD66
:1042F0002044C4B2AE20FFF7F5FD2044C4B21C2018
:10430000FFF7F0FD2044C4B20020FFF7EBFD0020D2
:10431000FFF7E8FD0020FFF7E5FD0020FFF7E2FDD5
:104320000020FFF7DFFD0020FFF7DCFD0020FFF796
:10433000D9FD0020FFF7D6FD0020FFF7D3FD0020B8
:10434000FFF7D0FD0020FFF7CDFD0020FFF7CAFDED
:104350000020FFF7C7FD0020FFF7C4FD0020FFF796
:10436000C1FD0020FFF7BEFD0020FFF7BBFD0020D0
:10437000FFF7B8FD9DF80100FFF7B4FD2044C4B27B
:104380009DF80000FFF7AEFD2044C4B29DF8050083
:10439000FFF7A8FD2044C4B29DF80400FFF7A2FD7A
:1043A0002044C4B29DF80900FFF79CFD2044C4B22C
:1043B0009DF80800FFF796FD2044C4B29DF80D005B
:1043C000FFF790FD2044C4B29DF80C00FFF78AFD72
:1043D0002044C4B29DF81900FFF784FD2044C4B204
:1043E0009DF81800FFF77EFD2044C4B22046FFF779
:1043F00079FD1FBD1FB500240020B5490870882035
:10440000FFF770FD2044C4B2AC20FFF76BFD2044E1
:10441000C4B21C20FFF766FD2044C4B2AD20FFF7F4
:1044200061FD2044C4B29DF80100FFF75BFD20440C
:10443000C4B29DF80000FFF755FD2044C4B29DF8BA
:104440000500FFF74FFD2044C4B29DF80400FFF7BC
:1044500049FD2044C4B29DF80900FFF743FD204404
:10446000C4B29DF80800FFF73DFD2044C4B29DF89A
:104470000D00FFF737FD2044C4B29DF80C00FFF794
:1044800031FD2044C4B29DF81900FFF72BFD2044F4
:10449000C4B29DF81800FFF725FD2044C4B29DF872
:1044A0001D00FFF71FFD2044C4B29DF81C00FFF75C
:1044B00019FD2044C4B20020FFF714FD0020FFF7CF
:1044C00011FD0020FFF70EFD0020FFF70BFD00207F
:1044D000FFF708FD0020FFF705FD0020FFF702FDB4
:1044E0000020FFF7FFFC0020FFF7FCFC0020FFF797
:1044F000F9FC0020FFF7F6FC0020FFF7F3FC00209A
:10450000FFF7F0FC0020FFF7EDFC0020FFF7EAFCCE
:104510002046FFF7E7FC1FBD70B5054600246D4837
:10452000FFF72FFB70BD70B50446002506E0294655
:104530006A1CD5B2684A505C01F086FCA542F6DBE5
:1045400070BD10B50D2001F07FFC0A2001F07CFC4D
:1045500010BD70B5044642F21070B4FBF0F030307C
:10456000C5B2284601F070FC42F21070B4FBF0F1C5
:1045700000FB11404FF47A71B0FBF1F03030C5B25E
:10458000284601F061FC4FF47A70B4FBF0F100FBB7
:1045900011406421B0FBF1F03030C5B2284601F083
:1045A00053FC6420B4FBF0F100FB11400A21B0FB86
:1045B000F1F000F13005284601F046FC0A20B4FB7A
:1045C000F0F100FB114000F13005284601F03CFC01
:1045D00070BD70B504464FF47A70B4FBF0F0303023
:1045E000C5B2284601F030FC4FF47A70B4FBF0F10C
:1045F00000FB11406421B0FBF1F03030C5B2284619
:1046000001F022FC6420B4FBF0F100FB11400A2110
:10461000B0FBF1F000F13005284601F015FC0A204E
:10462000B4FBF0F100FB114000F13005284601F029
:104630000BFC70BD70B504466420B4FBF0F0303064
:10464000C5B2284601F000FC6420B4FBF0F100FB89
:1046500011400A21B0FBF1F000F13005284601F0CD
:10466000F3FB0A20B4FBF0F100FB114000F1300530
:10467000284601F0E9FB70BD70B504460A20B4FB82
:10468000F0F03030C5B2284601F0DEFB0A20B4FB62
:10469000F0F100FB114000F13005284601F0D4FB99
:1046A00070BD2DE9FC5F4FF00009002400BF06E05B
:1046B0000A48005D484400F0FF09601CC4B21F2C8A
:1046C000F6DB0648C07F48450AD0BDE8FC9F0000E5
:1046D000D00000205C020020CA0000203001002031
:1046E0006D4800788A2800D0EFE76B4840788B2827
:1046F0007ED1694880781C28FAD16748C078AD28F7
:1047000043D166498868664900F066FF019001F070
:104710008EF985B261494868614900F05DFF0190FA
:1047200001F085F986B25D4908685D4900F054FFE3
:10473000019001F07CF987B25A498868584900F025
:104740004BFF019001F073F91FFA80F85549486852
:10475000534900F041FF019001F069F91FFA80FA16
:10476000504908684E4900F037FF019001F05FF9A9
:104770001FFA80FB3B46424651465846CDE900654C
:10478000FFF738FE2020FFF7C7FE4348C078AE2869
:104790007FD141494979404A127941EA022001F02A
:1047A00013F9824601F070F9074600223E4B01F0F2
:1047B0009CF8054601F0ACF93A4908603649C979D8
:1047C000354A927941EA022001F0FEF8824601F072
:1047D0005BF907460022344B01F087F8054601F0EB
:1047E00097F9304948602C49497A2B4A127A00E0FF
:1047F0004FE041EA022001F0E7F8824601F044F977
:1048000007460022284B01F070F8054601F080F9B8
:10481000244988602049C97A1F4A927A41EA0220D5
:1048200001F0D2F8824601F02FF9074600221E4B14
:1048300001F05BF8054601F06BF91849086016496C
:10484000497B154A127B41EA022001F0BDF88246FD
:1048500001F01AF907460022134B01F046F805460D
:1048600001F056F90D4948600B49C97B0A4A927B11
:1048700041EA022001F0A8F8824601F005F9074656
:104880000022094B01F031F8054601F041F90349D6
:10489000886000BF19E70000300100208C02002072
:1048A0000000C8427C020020000059404FF07E50BA
:1048B000D6490860002048604FF07C508860D4489A
:1048C000C8604FF07E50D3490860002048604FF028
:1048D0007C508860CE48C860704770B5CE4801688B
:1048E000CE48006800F072FECD490860CA480068F2
:1048F00001F0CAF80446CB4ACB4B01F0F1F80CD2D8
:10490000C548006801F0C0F80446C64AC74B01F02C
:10491000CFF802D20020C6490860BC494868BE49A9
:10492000096800F059FE0446C1480168204600F0BD
:1049300050FEBF490860BF49B948006800F04CFE0E
:10494000B249C860C868002101F0FEF80AD2AF4839
:10495000C06880F00044B849204600F0E5FDAB494E
:10496000C86006E0A949C868B34900F0DDFDA74961
:10497000C860A648C168AE48006801F0EFF803D2ED
:10498000A248C068AA490860A048C168A848006851
:1049900001F0E4F805D29D48C06880F00040A449C9
:1049A0000860A648B0F9000001F00EF806469748E6
:1049B0008168304600F010FE044694490868984922
:1049C000096800F009FE064699480168304600F083
:1049D000ABFD0546214600F0F9FD9949086099486C
:1049E00001689948006800F0F1FD98490860954811
:1049F000006801F049F804468A4A8B4B01F070F8D0
:104A00000CD29048006801F03FF80446854A874B75
:104A100001F04EF802D200208D4908607D494868B7
:104A20008849096800F0D8FD044689480168204695
:104A300000F0CFFD864908607E498448006800F098
:104A4000CBFD7449C860C868002101F07DF80AD226
:104A50007048C06880F000447749204600F064FD4B
:104A60006C49C86006E06B49C868734900F05CFD9A
:104A70006849C8606748C1687548006801F06EF809
:104A800003D26448C068724908606248C1687048CF
:104A9000006801F063F805D25E48C06880F000400D
:104AA0006B4908606B48B0F9000000F08DFF0646C6
:104AB00058488168304600F08FFD04465549086823
:104AC0006249096800F088FD064661480168304681
:104AD00000F02AFD0546214600F078FD5E49086099
:104AE0005E48006800F070FF064655480168304691
:104AF00000F06CFD054658480168284600F014FD9A
:104B0000044600F07BFF00B2554908805348006816
:104B100000F05AFF06464A480168304600F004FD9E
:104B200005464D480168284600F0FEFC044600F0AA
:104B300065FF00B24B4908804848006800F044FF18
:104B400006463F480168304600F0EEFC0546424804
:104B50000168284600F03AFD044600F04FFF00B21D
:104B6000414908803D48006800F02EFF0646344861
:104B70000168304600F02AFD05463748016828469E
:104B800000F024FD044600F039FF00B237490880E8
:104B900070BD2DE9F04104460D4616461F46B4F59A
:104BA0007A7F01DB40F2E734B5F57A7F01DB40F232
:104BB000E735B6F57A7F01DB40F2E736B7F57A7F65
:104BC00001DB40F2E737002C00DA0024002D00DA88
:104BD0000025002E00DA0026002F00DA0027A9B2F7
:104BE0004FF08040FDF7D0FAB1B24FF08040FDF7B2
:104BF000CDFAA1B24FF08040FDF7CAFAB9B24FF03A
:104C00008040FDF7C7FABDE8F08100007C0200207B
:104C1000000096438C020020E0000020D400002019
:104C2000EC0000209A9999999999B9BF9999B93F3F
:104C30000C010020000020410000C8428400002038
:104C400000010020E4000020D8000020F000002037
:104C5000100100208600002004010020FC0000203C
:104C6000F4000020F6000020F8000020FA000020E8
:104C70003EB5044601210220FBF75FFF0D48FCF71B
:104C8000BBFBADF804404720ADF800000020ADF8B4
:104C90000600ADF8020069460648FCF781FC0122D7
:104CA00011460448FCF7F3FF01210248FCF7D4FF4A
:104CB0003EBD000000040040002109E0002201E0A8
:104CC000531C9AB242F234139A42F9DB4B1C99B24C
:104CD0008142F3DB704708B500214FF48000FBF7F9
:104CE0002CFF4FF48060ADF8000003208DF8020027
:104CF00010208DF803006946FD48FBF755FC0520A0
:104D0000FFF7DAFF4FF48061F948FBF7FAFC4FF444
:104D10008061F748FBF7F7FC4FF48061F448FBF73C
:104D2000F0FC4FF48061F248FBF7EDFC4FF480613A
:104D3000EF48FBF7E6FC4FF48061ED48FBF7E3FC3E
:104D40004FF48061EA48FBF7DCFC4FF48061E848EF
:104D5000FBF7D9FC4FF48061E548FBF7D2FC4FF438
:104D60008061E348FBF7CFFC4FF48061E048FBF73C
:104D7000C8FC4FF48061DE48FBF7C5FC4FF480614E
:104D8000DB48FBF7BEFC4FF48061D948FBF7BBFC66
:104D90004FF48061D648FBF7B4FC4FF48061D448EF
:104DA000FBF7B1FC4FF48061D148FBF7AAFC4FF44C
:104DB0008061CF48FBF7A7FC4FF48061CC48FBF73C
:104DC000A0FC4FF48061CA48FBF79DFC4FF4806063
:104DD000ADF8000003208DF802001C208DF80300C0
:104DE0006946C348FBF7E0FB01218805FBF7A5FEF8
:104DF00008BD2DE9F04387B004460D4617461E4610
:104E0000DDE90E8901210820FBF78AFEFFF763FF29
:104E100001218805FBF791FE4FF44060ADF81800C2
:104E200003208DF81A001C208DF81B0006A9B0483D
:104E3000FBF7BAFBAF48FCF7DDF80021AD48FCF703
:104E400070F90020ADF80C004BF6FF70ADF80E00C5
:104E5000ADF810404FF48060ADF812000001ADF8DD
:104E60001400029502A9A348FCF7DDF80121A1482E
:104E7000FCF757F901219F48FCF78FF94FF4A06028
:104E8000FBF7C4FA22208DF804008DF805708DF828
:104E9000066001208DF8070001A8FBF7BCFA21206D
:104EA0008DF804008DF805808DF8069001208DF8AE
:104EB000070001A8FBF7AFFA07B0BDE8F0834FF495
:104EC00080608B49143108608948001D006840F4F7
:104ED00080608749091D086070478548001D00688B
:104EE00040F440608249091D0860704730B50446AF
:104EF0008148007808B1002030BD804804708048A7
:104F00000170804802708048027080480360012070
:104F10007F4D287000207F4D28707F4D2870754888
:104F2000001D008840F48070724D2D1D2880284699
:104F3000008840F400702880284600884FF6FF352E
:104F400028406C4D2D1D2880281F008840F480606B
:104F50002D1F28800120684D28706648008840F485
:104F60008070644D28800120C6E730B50446624851
:104F7000007808B1002030BD6048047060480170BE
:104F80006048027060480270604803600120604D14
:104F9000287000205F4D28705F4D28705548001D17
:104FA000008840F48070534D2D1D288028460088CD
:104FB00040F400702880284600884FF6FF352840CE
:104FC0004C4D2D1D2880281F008840F480602D1F27
:104FD00028800120484D28704648008840F48070A1
:104FE000444D288000BF444800780028FBD10120B0
:104FF000C1E730B504464048007808B1002030BD14
:105000003E4804703E4801703E4802703E480270BF
:105010003E48036000203E4D28703E4D28703E4DB6
:1050200028700120344D28703248001D008840F45B
:105030008070304D2D1D28802846008840F4007077
:105040002880284600884FF6FF352840294D2D1D21
:105050002880281F008840F480602D1F2880284663
:10506000008840F4807028800120C8E730B50446ED
:105070002148007808B1002030BD20480470204845
:105080000170204802702048027020480360002010
:105090001F4D28701F4D28701F4D28700120164D80
:1050A00028701448001D008840F48070114D2D1D9B
:1050B00028802846008840F4007028802846008810
:1050C0004FF6FF3528400B4D2D1D2880281F0088E6
:1050D00040F480602D1F28802846008840F48070AE
:1050E000288000BF044800780028FBD10120C3E7D6
:1050F000000C014000580040270100201C01002046
:105100001D0100201F0100201E01002020010020A1
:1051100024010020250100202601002000B5ED48D3
:10512000007800287DD0EC48007801287AD1EB483F
:10513000008800F0010030B1E9480078401CE749E0
:10514000091F088000BDE7480078012844D1E348E2
:10515000008800F00200F8B1E0481038008840F400
:105160008060DE4910390880081F00884FF6FF3143
:105170000840DA4914390880FFF7A1FED748001D1E
:105180000088D6481438008840F40070D349143998
:105190000880FFF7A2FED5E7D048008800F0400065
:1051A00000287BD0CD48103800884FF6FF310840EA
:1051B000CA4910390880C948001F0088CA490968CF
:1051C0000870002000E0401CC84909688842FAD3F2
:1051D0000020C7490870B5E7C2480078022867D1A7
:1051E000BE48008800F0020018B3BC48143800889C
:1051F00040F40060B949143908800846008840F43A
:1052000080600880FFF75BFEB448001D0088B3484B
:10521000143800884FF6FF310840B049143908802F
:1052200001E0F8E0CCE0FFF758FE0120B14908703A
:1052300088E7AA48008800F004000028B1D0AD48F3
:1052400000780028ADD0FFF73AFEA4481438008853
:1052500040F40070A14914390880084600884FF2D4
:10526000FF7108409D49143908800846008840F4C1
:10527000806008809948001F00889B490968087071
:10528000FFF72BFE98480068401C97490860934838
:10529000001F008809680870002001E008E1401C38
:1052A000924909688842FAD300209149087049E779
:1052B0008A48008800F0020070B1884814380088DD
:1052C00040F480608549143908808448001D0088B6
:1052D00001208849087035E78048008800F0040004
:1052E0000028ABD0834800780028A7D082480078F7
:1052F000032810DD7948001F00887B490968087081
:1053000079480068401C784908607B480078401E56
:105310007949087016E778480078032819D16F4852
:10532000143800884FF6FF3108406C491439088062
:105330006A48001F00886C49096808706A4800685C
:10534000401C694908606C480078401E6A49087032
:10535000F8E6FFF7B4FD61481438008840F40070A7
:105360005E49143908805D48001F00885E4909685D
:1053700008705D480068401C5B4908605E48007822
:10538000401E5D490870FFF7A8FD5448001F0088C3
:1053900055490968087054480068401C5249086023
:1053A00055480078401E54490870002000E0401C19
:1053B0004E4909688842FAD300204D490870C1E679
:1053C0004648008800F0010028B14548007843496C
:1053D000091F0880B6E64148008800F0020040B18D
:1053E0003E48001D0088454800783C49091F088058
:1053F000A8E63A48008800F00400002858D00120B0
:105400003549087035481438008840F480703349B5
:105410001439088096E63148008800F0010028B170
:105420002F4800782D49091F08808BE62B480088FB
:1054300000F0020068B12948008800F0800040B107
:105440002648001D00882D4800782449091F08803F
:1054500078E62248008800F0040048B31F4800881E
:1054600000F0800020B32048006800781B49091F25
:10547000088021480078401E1F4908701A480068BB
:10548000401C194908601C48007888B91348143832
:10549000008840F40070114914390880002000E0B1
:1054A000401C124909688842FAD30020104908704C
:1054B00000BF47E61CB5FFF70EFC01200090034635
:1054C00002460F4901900020FFF793FC0020084995
:1054D00008701CBD24010020250100201458004044
:1054E0001C0100201E0100202001002018010020C6
:1054F00027010020260100201F0100201D0100209F
:10550000801A0600D2B201E000F8012B491EFBD23E
:1055100070470022F6E710B513460A4604461946BE
:10552000FFF7F0FF204610BDF0B480EA0102D40F6F
:105530004200B2EB410F02D20246084611464A0031
:1055400042D0C30DDDB2C1F3C752AD1A202D35DAFA
:10555000C1F3160141F4000204B15242C5F1200624
:1055600002FA06F12A411044B3EBD05F23D0C4B154
:10557000012DA0EBC35009DCF0BC4FF0004202EA61
:10558000C352DBB200F5000000F02CBB400000F17C
:10559000807000EBC350A0F1807040EAD1704900E8
:1055A00009E0490841EAC071A0EBC35000F50000D2
:1055B000400800EBC350F0BC00F00BBB614201227D
:1055C00002EB4101001BF6E7F0BC704781F000419F
:1055D000AAE780F00040A7E780EA010210B502F0D8
:1055E0000043400022D04A001FD0010E01EB12619F
:1055F000C0F35600C2F3560240F4000042F4000229
:10560000A0FB022000047F39140400D0401C50EAA3
:10561000124001D44000491EC2B20C0604EBD01067
:10562000401C4008802A02D003E0002010BD20F07A
:105630000100002900DA0020184310BD30B480EAD0
:10564000010202F0004530F0004221F0004013D08A
:1056500090B1C30DD40DC2F31601C0F31600E41AC5
:1056600041F4000140F400027D34914201D3641CF6
:1056700000E04900002C02DA30BC002070474FF4F3
:1056800000000023914201D3891A034340084FEAE6
:105690004101F7D151B1914202D14FF0004105E0F3
:1056A00002D24FF0010101E06FF0010103EBC450A1
:1056B000284430BC00F08DBA2DE9FE4F804681EAC7
:1056C0000300C00F0C46009021F0004123F000457C
:1056D000B8EB0200A94105D24046214690461C463F
:1056E0000B46024623F00040104347D0270DC7F376
:1056F0000A00C3F30A510290401A019040286BDA65
:10570000C3F3130040F4801B0098924620B100239D
:10571000D2EB030A63EB0B0B01985946C0F1400230
:10572000504600F025FA06460D4650465946019A65
:1057300000F03DFA10EB08006141002487EA1152A5
:1057400084EAE7731A4340D0009A62B3019A012AAF
:105750004FEA075215DC001B61EB02014FF00042DB
:1057600002EA0752CDE90042001C41F580113246A1
:105770002B4600F074FA03B0BDE8F08F4046214696
:10578000F9E7001B61EB0201001C41F580130018D2
:105790005B412018A2F5001747EB030140EAD570E2
:1057A000B6196D4111E06D084FEA360645EAC0753D
:1057B0004FEA0752001B61EB0201001C41F580110A
:1057C00049084FEA30000019514132462B4603B0D8
:1057D000BDE8F04F00F034BA0098012240000023E9
:1057E000D0EB020263EBE073009821464FEAE074CD
:1057F000B8EB000061EB0401E9E783F000435BE7ED
:1058000081F0004158E72DE9FE4F81EA030404F0DE
:10581000004421F0004100944FF0000B23F00043BE
:1058200050EA01045ED052EA03045BD0C3F30A5489
:10583000C1F30A552C44A4F2F3340194A0FB0254A2
:10584000C1F3130141F48011C3F3130343F4801334
:1058500001FB024400FB034E840A970A44EA815488
:1058600047EA8357A4FB076802958D0A05FB078565
:105870004FEA932C04FB0C542705029D4FEA06586F
:1058800047EA1637B5EB08056EEB070C870E920E4C
:1058900047EA811742EA8312A7FB0201B6EB0B012C
:1058A00064EB00042B0D43EA0C335E1844EB1C50F0
:1058B000DA465146E7FB0201C5F313044FEA0B3306
:1058C00043EA14534FEA0432019C43EA0603A4F16D
:1058D0000C040294009CCDE900B400F0C0F903B0C0
:1058E000BDE8F08F00200146F9E72DE9F04D81EA8F
:1058F000030404F0004B21F0004514464FF0000A69
:1059000023F0004150EA050220D054EA01021DD0E4
:10591000C5F30A570246C5F31303C1F31300C1F3DD
:105920000A5640F4801543F48013A7EB0608101BB9
:10593000D64608F2FD3873EB050002D308F10108E2
:1059400001E092185B41B8F1000F03DA0020014634
:10595000BDE8F08D00204FF48011064684460EE02D
:10596000171B73EB050705D3121B63EB05030643F7
:105970004CEA010C49084FEA300092185B4150EAAA
:105980000107EDD152EA030012D082EA040083EA53
:105990000501084305D0101BAB4106D201220023AC
:1059A00006E000224FF0004302E06FF001025310C6
:1059B0001AEB06004CEB085110EB0A0041EB0B010F
:1059C000BDE8F04D00F03CB9C10F80EAE07008443A
:1059D000CA079623002100F005B90EB5C10F80EA71
:1059E000E0700844CA07002140F233438DE80E00FE
:1059F0000A460B4600F033F903B000BD00F0004248
:105A000020F00040C10DC0F3160040F400007F29D3
:105A100001DA00207047962903DCC1F19601C840E5
:105A200001E096398840002AF4D04042704720F0C7
:105A30000040C10DC0F3160040F400007F2901DAD8
:105A400000207047962903DCC1F19601C8407047D9
:105A5000963988407047C1F30A5210B5C1F313015B
:105A600040F2FF3341F480119A4201DA002010BD68
:105A700040F233439A42A2F2334203DC524200F036
:105A800086F810BD904010BD00F0004230F000409C
:105A90000AD0C10D01F56071C0F3160042EA015150
:105AA000C2084007114370470020014670470000BC
:105AB00030B5041E71F1000404DB4FF00044404295
:105AC00064EB0101141E73F1000405DB1C464FF06A
:105AD0000043524263EB04038B4208BF824230BD55
