:020000040800F2
:10000000D806002001010008590400085B0400081C
:100010005F04000863040008670400080000000093
:100020000000000000000000000000006B04000859
:100030006D040008000000006F040008710400084F
:100040001B0100081B0100081B0100081B01000820
:100050001B0100081B0100081B0100081B01000810
:100060001B0100081B0100081B0100081B01000800
:100070001B0100081B0100081B0100081B010008F0
:100080001B0100081B0100081B0100081B010008E0
:100090001B0100081B0100081B0100081B010008D0
:1000A0001B0100081B0100081B0100081B010008C0
:1000B0001B0100081B0100081B0100081B010008B0
:1000C0001B010008730400087B0400081B010008E2
:1000D0001B010008DB2900081B0100081B010008A8
:1000E0001B0100081B0100081B010008DFF80CD0F1
:1000F00005F008FF0048004725010008D806002049
:100100000648804706480047FEE7FEE7FEE7FEE7B1
:10011000FEE7FEE7FEE7FEE7FEE7FEE777260008DC
:10012000ED00000896B020210BA805F054FA00203D
:100130000A900990AEA103C9CDE9070100200690FD
:10014000059002F06FFB02F019FB4FF4E13002F072
:10015000DBFB02F0A7FB0320009001231A46A6490F
:100160000190A62004F0A7FE02F062FC002140F2FC
:10017000E73003F075FC03F08AFA03F044FC03F067
:1001800035FD03F03DFD00231A461946184604F0DC
:1001900086FD03F041FD02E020209849086003F04D
:1001A000D1FD0028F8D103F062FE04F00FFC1EE13F
:1001B00003F05EFA03F0B3F9914B9248026892485B
:1001C00001689248006803F0DDFA13A802F011FFFD
:1001D0000BA803F02FFE002855D19DF82C109DF898
:1001E0002D2041EA022005F068FC804605F0E9FC7C
:1001F00006460022864B05F0F1FB044605F024FD7F
:100200000A900A9805F0DDFC06460022814B05F0B5
:1002100073FB044605F09DFC09909DF82E109DF897
:100220002F2041EA0221A1F2B27005F054FC0646EB
:100230000022794B05F0D2FB044605F005FD06903F
:100240009DF830109DF8312041EA0221A1F64800C6
:1002500005F041FC064600226F4B05F0BFFB04464B
:1002600005F0F2FC05909DF83200612803D16BA1E6
:1002700007A805F0C9F99DF83200622803D15CA1F6
:1002800007A805F0C1F95AA107A805F0AFF930B9E0
:1002900000231A461946184604F001FD23E05FA129
:1002A00007A805F0A3F9F0B95E49069808605E4911
:1002B000059808605D49099808605D4915980860CF
:1002C0005C491498086004F098FB5B48B0F9003072
:1002D0005A48B0F900205A48B0F900105948B0F90E
:1002E000000004F0DCFC58480068012806D104F046
:1002F00063FA00205449086054490860544914982E
:1003000005F0E3F9064605F0F7FB05B250491598EC
:1003100005F0DBF9064605F0EFFB04B20020009083
:10032000034602460146CDE90245019003F0B9FFBC
:10033000202004F075F94048B0F9000005F0CBFB2F
:1003400080460022324B05F049FB06460022414B15
:1003500005F0D2FA044605F01BFC1FFA80FA374874
:10036000B0F9000005F0B7FB80460022284B05F0ED
:1003700035FB06460022374B05F0BEFA044605F071
:1003800007FC1FFA80FB2E48B0F9000005F0A3FB24
:10039000804600221E4B05F021FB064600222D4B15
:1003A00005F0AAFA044605F0F3FB80B20490254854
:1003B000B0F9000005F08FFB06460022144B05F053
:1003C0000DFB80460022234B05F096FA044605F00B
:1003D000DFFB80B203904FF4A07053465A46009062
:1003E000DDE9030103F0F9FF202004F019F9DFE64D
:1003F00073746F7000000000801A0600140C014036
:100400004C010020900000208C000020880000207B
:1004100000408F4000388F400080514073746172FB
:1004200074000000F0000020F400002018010020FB
:10043000FC00002000010020160100201401002013
:100440001201002010010020300000202C000020AC
:100450000000C84200005940704700BFFEE700BFDF
:10046000FEE700BFFEE700BFFEE77047704770473A
:10047000704710B504F0B4FE10BD10B505F07CF85F
:1004800010BD000031490143314A1160704770B519
:10049000002100230F22C47804B32D4C246804F4F7
:1004A000E064C4F5E064210AC1F10403CA40447861
:1004B00004FA03F18478144021430901254C06789D
:1004C000A155047804F01F050124AC4005786D1196
:1004D000AD0005F1E025C5F8004109E0047804F01D
:1004E0001F050124AC401C4D0678761145F82640C6
:1004F00070BD1A4A0A400243154B1B1F1A60704711
:1005000039B1134A121D12680243114B1B1D1A60A8
:1005100006E00F4A121D126882430D4B1B1D1A6024
:100520007047042808D14FF0E021096941F0040127
:100530004FF0E022116107E04FF0E021096921F05E
:1005400004014FF0E0221161704700000000FA053D
:100550000CED00E000E400E080E100E080FFFF1F20
:1005600010B50446CC48844208D10121042000F093
:100570002DFB0021042000F029FB46E0C7488442FF
:1005800008D10121082000F021FB0021082000F003
:100590001DFB3AE0C248844208D10121102000F03E
:1005A00015FB0021102000F011FB2EE0BD48844215
:1005B00008D10121202000F009FB0021202000F0BB
:1005C00005FB22E0B848844208D10121402000F018
:1005D000FDFA0021402000F0F9FA16E0B348844209
:1005E00008D10121802000F0F1FA0021802000F0E4
:1005F000EDFA0AE0AE48844207D10121801500F0EF
:10060000E5FA0021A01500F0E1FA10BD10B50121B6
:10061000084600F0DBFA0021012000F0D7FA10BDF7
:100620002DE9F04102460025002600200023002489
:10063000002791F803C00CF00F0591F803C00CF0EF
:10064000100CBCF1000F03D091F802C04CEA050574
:1006500091F800C0BCF1000F31D0146800202BE0ED
:100660004FF0010C0CFA00F3B1F800C00CEA0306DD
:100670009E4220D183004FF00F0C0CFA03F7BC43CD
:1006800005FA03FC4CEA040491F803C0BCF1280FFE
:1006900006D14FF0010C0CFA00FCC2F814C00AE0BD
:1006A00091F803C0BCF1480F05D14FF0010C0CFAD2
:1006B00000FCC2F810C0401C0828D1D31460B1F867
:1006C00000C0BCF1FF0F34DD546800202EE000F1C3
:1006D000080C4FF0010808FA0CF3B1F800C00CEA5E
:1006E00003069E4221D183004FF00F0C0CFA03F752
:1006F000BC4305FA03FC4CEA040491F803C0BCF1C6
:10070000280F05D100F1080C08FA0CF8C2F8148083
:1007100091F803C0BCF1480F07D100F1080C4FF06D
:10072000010808FA0CF8C2F81080401C0828CED343
:100730005460BDE8F0814FF6FF71018002218170A5
:100740000421C17070470246002093680B400BB132
:10075000012000E0002070470146886880B27047A1
:1007600002460020D3680B400BB1012000E00020BE
:1007700070470146C86880B27047016170474161A7
:1007800070470AB1016100E041617047C160704784
:100790004FF480320A438261816182618269826999
:1007A000704702460020434B18684FF6807318408C
:1007B00040EA021008433F4B186070473E49C86149
:1007C0007047F0B50A46002300240021002500F000
:1007D0000046B6F1004F02D1364EF16901E0354EC8
:1007E0007168C0F3034583B200F44016B6F5401FAC
:1007F00008D121F070612F4E766826F070662D4F7B
:100800007E6012E000F48016B6F5801F06D1032644
:1008100006FA05F4A14341F0706106E0460D360189
:1008200003FA06F6B14341F0706122B1460D36017C
:1008300003FA06F6314300F00046B6F1004F02D14C
:100840001C4EF16101E01B4E7160F0BD30B500221D
:100850008B071C0F0F2303FA04F2164B08338C107E
:1008600053F824309343134C08348D1044F825304A
:1008700023468C1053F824308C07240F00FA04F41C
:1008800023430C4C08348D1044F8253030BD0A4900
:10089000DC3108607047000000080140000C014096
:1008A000001001400014014000180140001C0140EC
:1008B000002001400000014000002042DF480068A5
:1008C00040F00100DD49086008464068DC49084006
:1008D000DA49486008460068DA490840D7490860A4
:1008E0000846006820F4802008600846406820F42C
:1008F000FE0048604FF41F0088607047CF490968C8
:1009000021F48031CD4A11601146096821F480211B
:100910001160B0F5803F03D0B0F5802F0ED106E016
:10092000C649096841F48031C44A116007E0C349EF
:10093000096841F4A021C14A116000E000BF00BF76
:10094000704710B501460022002300204A11012AF9
:1009500002D1BA4C236806E0022A02D1B74C236ABE
:1009600001E0B64C636A01F01F02012494401C4070
:100970000CB1012000E0002010BD38B5002000902F
:100980000024002500BF3120FFF7DBFF054600985B
:10099000401C00900098B0F5A06F01D0002DF2D05F
:1009A0003120FFF7CEFF08B1012400E000242046EB
:1009B00038BD01460020A14A106820F0F80040EA46
:1009C000C10010607047A0490860704702460020CF
:1009D0009A4B586820F47C1042EA01031843974B65
:1009E0005860704798490866704701460020934A4E
:1009F000506820F003000843506070478F484068FB
:100A000000F00C007047014600208C4A506820F02E
:100A1000F00008435060704701460020874A506844
:100A200020F4E06008435060704701460020834A8C
:100A3000506820F4605040EAC1005060704729B10E
:100A40007E4A527A02437D4B5A7204E07B4A527AC4
:100A500082437A4B5A7270477B49D831086070479D
:100A600001460020754A506820F440400843506019
:100A700070470021714A20321170704A82F82010AC
:100A8000012802D004280AD104E001216B4A203257
:100A9000117005E00521694A2032117000E000BFA5
:100AA00000BF70476949086070476449096A01439B
:100AB000624A11627047654944390860704730B531
:100AC00000210022002400235C4D6D6805F00C011C
:100AD00021B1042905D0082923D105E05C4D05602A
:100AE00022E05C4D05601FE0544D6D6805F4701206
:100AF000524D6D6805F48034022505EB92421CB915
:100B0000554D554305600BE04C4D6D6805F40035BF
:100B10001DB14F4D5543056002E04E4D55430560F4
:100B200002E04B4D056000BF00BF444D6D6805F00D
:100B3000F0010909494D6B5C0568DD4045603F4D9A
:100B40006D6805F4E061090A444D6B5C4568DD4061
:100B500085603A4D6D6805F46051C90A3F4D6B5C84
:100B60004568DD40C560354D6D6805F44041890B31
:100B70003B4D6B5CC568B5FBF3F5056130BD29B134
:100B80002E4A526902432D4B5A6104E02B4A5269A6
:100B900082432A4B5A61704729B1284A926902431D
:100BA000264B9A6104E0254A92698243234B9A615D
:100BB000704729B1214AD2690243204BDA6104E02F
:100BC0001E4AD26982431D4BDA61704729B11B4A24
:100BD000D2680243194BDA6004E0184AD2688243B3
:100BE000164BDA60704729B1144A12690243134B5D
:100BF0001A6104E0114A12698243104B1A6170476E
:100C000012494039086070470F49C86470470B4962
:100C1000C87170470948406A40F0807007494862CF
:100C2000704701460020054A92680A400AB1012037
:100C300000E00020704701498872704700100240B0
:100C40000000FFF8FFFFF6FE00004242800442422F
:100C500000127A000024F40000093D00000000208A
:100C60001000002010B50446FB48844209D1012140
:100C70008803FFF7ABFF00214FF48040FFF7A6FF8A
:100C800032E0F648844209D101214804FFF7ABFF66
:100C900000214FF40030FFF7A6FF25E0F048844222
:100CA00009D101218804FFF79EFF00214FF4802025
:100CB000FFF799FF18E0EB48844209D10121C804ED
:100CC000FFF791FF00214FF40020FFF78CFF0BE0AE
:100CD000E548844208D101210805FFF784FF00217F
:100CE0004FF48010FFF77FFF10BD2DE9F04786B06D
:100CF00005460E460024A24600BFA1460027B08943
:100D000000B100BF2F462C8A4CF6FF700440F088DB
:100D100004432C82AC894EF6F3100440B08831892C
:100D20000843718908430443AC81AC8A4FF6FF4005
:100D30000440B0890443AC8201A8FFF7C0FEC64856
:100D4000874202D1DDF810A001E0DDF80CA0A889EF
:100D500000F4004040B10AEBCA0000EB0A10316811
:100D60004900B0FBF1F807E00AEBCA0000EB0A10FB
:100D700031688900B0FBF1F86420B8FBF0F00401A1
:100D80002009642101FB1089A88900F4004040B1CA
:100D9000322000EBC900B0FBF1F000F00700044383
:100DA00008E0322000EB09106421B0FBF1F000F004
:100DB0000F0004432C8106B0BDE8F0874FF41651B4
:100DC000016000218180C18001810C2141810021CD
:100DD0008181704710B502460020108A4FF2FF0350
:100DE00018400B884C8823438C882343CC882343AA
:100DF0001843108210BD0021018041808180C18094
:100E0000704721B1828942F40052828104E08289D4
:100E10004DF6FF731A4082817047F0B503460024F7
:100E200000260025002040F66A17B94200D100BF15
:100E30001846C1F3421401F01F06012707FA06F510
:100E4000012C01D10C3004E0022C01D1103000E063
:100E500014301AB107682F43076002E00768AF43F8
:100E60000760F0BD1AB1838A0B43838202E0838A54
:100E70008B4383827047028A4FF6F0731A400282D6
:100E8000028A0A430282704782894FF2FF731A4036
:100E9000828182890A438281704721B1828942F02E
:100EA0000202828104E082894FF6FD731A4082813A
:100EB0007047028A4FF6DF731A400282028A0A43A1
:100EC0000282704721B1028A42F48042028204E029
:100ED000028A4BF6FF731A4002827047C1F3080280
:100EE0008280704701468888C0F308007047818976
:100EF00041F0010181817047028BD2B20283028BE3
:100F000042EA012202837047028B02F47F4202838D
:100F1000028B0A430283704721B1828A42F0200289
:100F2000828204E0828A4FF6DF731A408282704721
:100F300021B1828A42F01002828204E0828A4FF656
:100F4000EF731A408282704721B1828A42F0080210
:100F5000828204E0828A4FF6F7731A4082827047D9
:100F600021B1828942F40042828103E08289C2F386
:100F70000E028281704721B1828A42F4006282822D
:100F800004E0828A4FF2FF731A4082827047828A9D
:100F90004FF6FB731A408282828A0A43828270472C
:100FA00021B1828A42F00202828204E0828A4FF6F4
:100FB000FD731A408282704702460020B1F5007F1F
:100FC00000D100BF13880B400BB1012000E00020CE
:100FD000704701F40072B2F5007F00D100BFCA4330
:100FE0000280704770B502460024002300250020CF
:100FF00040F66A16B14200D100BFC1F3421501F0BC
:101000001F03012606FA03F3012D02D1968933400E
:1010100006E0022D02D1168A334001E0968A334061
:101020000C12012606FA04F41688344013B10CB1F0
:10103000012000E0002070BD10B50022002340F622
:101040006A14A14200D100BF0A1201249440A3B245
:10105000DC43048010BD0000003801400044004023
:1010600000480040004C00400050004010B50446CD
:10107000F748844209D101214805FFF7B4FD00215A
:101080004FF40010FFF7AFFD08E001218805FFF7DE
:10109000AAFD00214FF48000FFF7A5FD10BD2DE94A
:1010A000F04385B004460D460026B1460427DFF81C
:1010B000A483A6884FF6C07006406846FFF7FFFC81
:1010C000DDF80880E448B8FBF0F01FFA80F946EA42
:1010D0000906A68020884FF6FE7108402080002671
:1010E000DE49286888420CD828684000B8FBF0F038
:1010F00087B2042F00DA04273E4309F1010020845F
:1011000027E0E8884BF6FF71884206D1286800EB9B
:101110004000B8FBF0F087B209E0286800EBC0019E
:1011200001EB0010B8FBF0F087B247F48047C7F33B
:101130000B0008B947F0010747F4004006434FF49D
:10114000967009FB00F04FF47A7190FBF1F0401CAF
:101150002084A683208840F00100208026884FF656
:10116000F5300640A8886989084306432680A88987
:1011700029890843208105B0BDE8F08341F2883118
:101180000160002181804BF6FF71C1800021018147
:1011900041814FF480418181704721B1028842F042
:1011A0000102028004E002884FF6FE731A400280BA
:1011B000704721B1828842F40062828004E0828814
:1011C0004FF2FF731A408280704721B1828842F447
:1011D0008052828004E082884EF6FF731A4082803B
:1011E000704721B1028842F48072028004E00288D4
:1011F0004FF6FF631A400280704721B1028842F423
:101200000072028004E002884FF6FF531A40028009
:10121000704721B1028842F48062028004E00288B3
:101220004FF6FF331A40028070470A460021818939
:101230004FF60173194002F0FE0319438181704794
:1012400021B1828942F00102828104E082894FF655
:10125000FE731A408281704721B1028842F0400239
:10126000028004E002884FF6BF731A400280704784
:101270001AB183880B43838002E083888B43838089
:101280007047018270470146088AC0B2704712B1A8
:1012900041F0010102E04FF6FE73194001827047F0
:1012A00008B5024600200090009200980844009083
:1012B0000098008808BD21B1028842F400420280F3
:1012C00003E00288C2F30E0202807047B1F5006F9E
:1012D00004D1028842F40062028004E002884FF2E6
:1012E000FF731A4002807047B1F5005F04D1028895
:1012F00042F40052028004E002884DF6FF731A4067
:101300000280704721B1028842F48052028004E0DA
:1013100002884EF6FF731A4002807047B1F5006FE5
:1013200004D1028842F40062028004E002884FF295
:10133000FF731A400280704721B1028842F02002F8
:10134000028004E002884FF6DF731A400280704783
:101350000146088B0012704721B1028842F010024A
:10136000028004E002884FF6EF731A400280704753
:1013700021B9028842F08002028004E002884FF620
:101380007F731A4002807047B1F5804F05D0828B81
:101390004BF6FF731A40828303E0828B42F4804253
:1013A0008283704770B50246002400250023002088
:1013B000958A138B1B0445EA030626F07F4404EA52
:1013C00001068E4201D1012000E0002070BD10B561
:1013D00001460020002300228B8A0A8B120443EA74
:1013E000020424F07F4010BD0CB50246002000230B
:1013F0000193009300920B0F019321F07F41019B19
:101400001BB1009B1433009303E0090C009B1833BD
:101410000093009B1B680B400BB1012000E00020F3
:101420000CBD002221F07F42D3438382704730B548
:10143000024600200023948801F0E06504EA154389
:1014400021F07F41948A0C4054B14BB1012008E057
:101450000054004000127A0040420F00A0860100B4
:10146000002030BD002221F07F42D34383827047A9
:1014700010B50446FE48844208D10121C014FFF78C
:10148000A5FB0021E014FFF7A1FBC4E0B4F1804FFD
:1014900008D101210846FFF7A6FB00210120FFF734
:1014A000A2FBB8E0F348844208D101210220FFF7F3
:1014B0009AFB00210220FFF796FBACE0EE48844245
:1014C00008D101210420FFF78EFB00210420FFF743
:1014D0008AFBA0E0E948844208D101210820FFF7F7
:1014E00082FB00210820FFF77EFB94E0E448844261
:1014F00008D101211020FFF776FB00211020FFF713
:1015000072FB88E0DF48844208D101212020FFF7E8
:101510006AFB00212020FFF766FB7CE0DA4884426A
:1015200008D101214014FFF751FB00216014FFF79F
:101530004DFB70E0D548844209D10121C804FFF772
:1015400045FB00214FF40020FFF740FB63E0D0484B
:10155000844209D101210805FFF738FB00214FF42F
:101560008010FFF733FB56E0CA48844209D10121BD
:101570004805FFF72BFB00214FF40010FFF726FB77
:1015800049E0C548844208D101214020FFF72BFBE8
:1015900000214020FFF727FB3DE0C048844208D1EE
:1015A00001218020FFF71FFB00218020FFF71BFB9C
:1015B00031E0BB48844208D101218015FFF713FBBD
:1015C0000021A015FFF70FFB25E0B648844209D1A2
:1015D00001210804FFF7FAFA00214FF48030FFF7E9
:1015E000F5FA18E0B048844209D101214804FFF718
:1015F000EDFA00214FF40030FFF7E8FA0BE0AB48BA
:10160000844208D101218804FFF7E0FA00214FF459
:101610008020FFF7DBFA10BD00220288944B98422D
:101620000ED0994B98420BD0B0F1804F08D0914B1F
:10163000984205D0904B984202D0904B984204D1EA
:101640004FF68F731A404B881A438D4B984207D040
:101650008C4B984204D04FF6FF431A40CB881A4374
:1016600002808B8883850B880385814B98420BD041
:10167000854B984208D08B4B984205D08A4B9842B4
:1016800002D08A4B984201D10B7A038601238382D0
:10169000704770B5002400220023058C4FF6FE76BB
:1016A00035400584028C8388048B4FF68F752C405F
:1016B000B51E2C400D882C43751E2A400D892A43E7
:1016C0004D882A436A4DA8420BD06F4DA84208D0DE
:1016D000744DA84205D0744DA84202D0734DA84263
:1016E00013D14FF6F7752A404D892A434FF6FB7503
:1016F0002A408D882A434FF6FF652B404FF6FF5551
:101700002B408D892B43CD892B4383800483CD8847
:101710008586028470BD70B5002400220023058CEC
:101720004FF6EF7635400584028C8388048B48F6AB
:10173000FF752C404FF6FF452C400D884FF6FF7685
:1017400006EA05252C434FF6DF752A400D8906EA87
:1017500005152A434D8806EA05152A43444DA8423B
:1017600002D0494DA8421DD14FF67F752A404D89C0
:101770004FF6FF7606EA05152A434FF6BF752A4055
:101780008D8806EA05152A434FF6FF352B404FF2A8
:10179000FF752B408D8906EA85052B43CD8906EA26
:1017A00085052B4383800483CD880587028470BD23
:1017B00070B5002400220023058C4FF6FF663540EB
:1017C0000584028C8388848B4FF68F752C404FF6EE
:1017D000FC752C400D882C434FF6FF552A400D898F
:1017E0004FF6FF7606EA05252A434D8806EA0525C9
:1017F0002A431F4DA84202D0234DA8421DD14FF2CB
:10180000FF752A404D894FF6FF7606EA05252A43E3
:101810004FF6FF352A408D8806EA05252A434EF605
:10182000FF752B404DF6FF752B408D8906EA051597
:101830002B43CD8906EA05152B4383808483CD880D
:101840008587028470BD70B5002200230024058CBA
:101850004EF6FF7635400584038C8488828B48F6EB
:10186000FF752A404FF6FF452A400D8820E0000012
:10187000002C01400004004000080040000C004023
:10188000001000400014004000340140004C0140B2
:10189000005001400054014000180040001C00406E
:1018A0000020004000400140004401400048014049
:1018B0004FF6FF7606EA05252A434DF6FF752B40C5
:1018C0000D8906EA05352B434D8806EA05352B437D
:1018D000FA4DA84202D0FA4DA84208D14BF6FF7546
:1018E0002C408D894FF6FF7606EA85152C438480BF
:1018F0008283CD88A0F84050038470BD828B4FF264
:10190000FF331A408283828B4FF6FF7303EA012371
:101910001A4382837047F0B50C4615460022002119
:101920000026078C4EF6FF7C07EA0C070784828BA3
:10193000018C4FF6FF7707EA043640F6FF473A403E
:101940004FF6FF7707EA05273A434FF6FF7707EA96
:1019500003373A43D94FB8420ED0D94FB8420BD0D3
:10196000B0F1804F08D0D74FB84205D0D64FB8421B
:1019700002D0D64FB84206D14DF6FF77394046F433
:101980008057394305E047F6FF57394044F4805704
:10199000394382830184F0BD828B4FF6F3731A4082
:1019A0008283828B0A4382837047F0B50C461546CA
:1019B000002200210026078C4FF6FF6C07EA0C0777
:1019C0000784828B018C4FF6FF7707EA04264FF6D7
:1019D0000C773A404FF6FF7707EA03172F433A4355
:1019E000B64FB8420ED0B64FB8420BD0B0F1804FD0
:1019F00008D0B44FB84205D0B34FB84202D0B34F6D
:101A0000B84206D14FF6FF57394046F48077394344
:101A100005E04FF2FF57394044F480773943828321
:101A20000184F0BD028B4FF2FF331A400283028B18
:101A30004FF6FF7303EA01231A4302837047F0B5A0
:101A40000C461546002200210026078C4FF6EF7C3D
:101A500007EA0C070784028B018C4FF6FF7707EA31
:101A6000041640F6FF473A404FF6FF7707EA033780
:101A70003A434FF6FF7707EA05273A438F4FB842BC
:101A80000ED08F4FB8420BD0B0F1804F08D08D4FA1
:101A9000B84205D08C4FB84202D08C4FB84206D124
:101AA0004FF6DF77394046F01007394305E04FF62F
:101AB0005F77394044F01007394302830184F0BD59
:101AC000028B4FF6F3731A400283028B0A430283A0
:101AD0007047F0B50C46154600220021068C4FF6E3
:101AE000FE773E400684028B018C4FF60C76324026
:101AF0007E1C06EA03162E433243704EB0420ED0CF
:101B00006F4EB0420BD0B0F1804F08D06D4EB04256
:101B100005D06D4EB04202D06C4EB04206D14FF6A9
:101B2000FD76314044F00106314305E04FF6F5768D
:101B3000314044F00106314302830184F0BD70B5A9
:101B400005460C465D4885420ED05D4885420BD067
:101B5000B5F1804F08D05B48854205D05A48854290
:101B600002D05A48854200D100E000BF208850B919
:101B70002389A28861882846FFF7ABFFE1882846C1
:101B8000FFF79EFF25E0208804280AD12389A28838
:101B900061882846FFF753FFE1882846FFF742FF98
:101BA00017E0208808280AD12389A288618828465E
:101BB000FFF7FBFEE1882846FFF7EEFE09E02389E8
:101BC000A28861882846FFF7A6FEE1882846FFF72D
:101BD00095FE70BD2DE9F04105460C460026012713
:101BE000608808B9022600E00026A088012801D1FB
:101BF000022700E001272088A0B92389A2886188F4
:101C00002846FFF766FFE1882846FFF759FF23893A
:101C10003A4631462846FFF712FFE1882846FFF78B
:101C200001FF13E02389A28861882846FFF707FF98
:101C3000E1882846FFF7F6FE23893A4631462846D2
:101C4000FFF747FFE1882846FFF73AFFBDE8F0813C
:101C50000A884B881A438B881A43CB881A430B890E
:101C60001A434B891A438B891A43A0F844207047C2
:101C70004FF6FF71818000210180C1804180017297
:101C800070470021018041808180C18001814181B4
:101C90008181C181704700210180418001218180C3
:101CA0000021C18001817047002101804180818035
:101CB000C18001814181818170470000002C014079
:101CC000003401400004004000080040000C0040C7
:101CD00021B1028842F00102028004E002884FF63E
:101CE000FE731A400280704731B1B0F8442042F4CC
:101CF0000042A0F8442005E0B0F84420C2F30E02F0
:101D0000A0F8442070471AB183890B43838102E015
:101D100083898B43838170478182704741EA020344
:101D2000A0F8483070471AB183890B43838102E0E1
:101D300083898B438381704701894FF6F872114084
:101D4000018170470A46002101894FF68F731940BF
:101D500011430181704730B504460D46294620469F
:101D6000FFF7F0FF208940F00700208130BD2DE90A
:101D7000F04104460D4616461F46602D06D13B46EF
:101D8000012231462046FFF75AFE05E03B4601227C
:101D900031462046FFF79DFE29462046FFF7D2FF39
:101DA000208940F007002081BDE8F08130B50C4665
:101DB00000210189C9B24FF6FF7505EA03251543D5
:101DC00025432943018130BD2DE9F04105460E46EA
:101DD00017469846002443463A4631462846FFF7C0
:101DE000E5FF2C894FF6F870044044F007044FF6E5
:101DF0008F70044044F070042C81BDE8F081F0B590
:101E000004460D4616461F463B46324629462046A6
:101E1000FFF7CCFF208940F480402081F0BD018590
:101E2000828270470A46002101884FF68F7319405D
:101E3000114301807047F0B50C4615461E4600213F
:101E4000002200230189028B038C4FF6F87739407A
:101E500021434FF6FC473A4040F201173A434FF610
:101E6000DD773B404FF6FF7707EA06172F433B43EA
:101E7000018102830384F0BD0A460021018B4FF6E5
:101E80008F7319401143018370470A460021018B6B
:101E900048F6FF7319404FF6FF7303EA0223194314
:101EA000018370470A460021818B4FF68F731940DA
:101EB0001143818370470A460021818B48F6FF73E6
:101EC00019404FF6FF7303EA0223194381837047D9
:101ED00021B1028842F08002028004E002884FF6BD
:101EE0007F731A400280704721B1828842F0040259
:101EF000828004E082884FF6FB731A40828070472C
:101F000021B1828842F00802828004E082884FF684
:101F1000F7731A408280704721B1828842F0010233
:101F2000828004E082884FF6FE731A4082807047F8
:101F30000A460021018B4FF6F773194011430183C4
:101F400070470A460021018B4FF2FF7319404FF68C
:101F5000FF7303EA02231943018370470A460021F5
:101F6000818B4FF6F77319401143818370470A46FE
:101F70000021818B4FF2FF7319404FF6FF7303EA84
:101F800002231943818370470A460021018B4FF6D3
:101F9000FB7319401143018370470A460021018BEE
:101FA0004FF6FF3319404FF6FF7303EA022319433C
:101FB000018370470A460021818B4FF6FB7319405D
:101FC0001143818370470A460021818B4FF6FF330E
:101FD00019404FF6FF7303EA0223194381837047C8
:101FE0000A460021018B4FF67F731940114301838C
:101FF00070470A460021018BC1F30E014FF6FF73B3
:1020000003EA02231943018370470A460021818BAA
:102010004FF67F7319401143818370470A460021B0
:10202000818BC1F30E014FF6FF7303EA02231943BC
:10203000818370470A460021018C4FF6FD731940D9
:102040001143018470470A460021018C4FF6F77353
:1020500019401143018470470A460021018C4FF654
:10206000DF7319404FF6FF7303EA0213194301842B
:1020700070470A460021018C4FF67F7319404FF6D6
:10208000FF7303EA02131943018470470A460021D3
:10209000018C4FF6FF5319404FF6FF7303EA0223FA
:1020A0001943018470470A460021018C4FF2FF73E7
:1020B00019404FF6FF7303EA022319430184704766
:1020C0000A460021018C4DF6FF7319404FF6FF734D
:1020D00003EA023319430184704730B50023012419
:1020E0008C40A3B2048C9C430484048C02FA01F556
:1020F000ADB22C43048430BD30B5002304248C40A1
:10210000A3B2048C9C430484048C02FA01F5ADB2A2
:102110002C43048430BD70B50346002000241846CB
:10212000183001258D40ACB21D8CA5431D8409B12A
:10213000082909D100EB6100056825F070050560EC
:102140000568154305600EE00D1FC5F34E052844D4
:10215000056825F4E045056005684FF6FF7606EA58
:1021600002263543056070BD21B1028842F00202AB
:10217000028004E002884FF6FD731A400280704727
:1021800021B1028842F00402028004E002884FF686
:10219000FB731A400280704721B1828842F08002AE
:1021A000828004E082884FF67F731A4082807047F5
:1021B00002884FF6F7731A40028002880A430280B1
:1021C000704782884FF68F731A40828082880A4354
:1021D0008280704702894FF6F8731A4002810289A3
:1021E0000A430281704702894FF67F731A400281C9
:1021F00002890A4302817047818470478185704754
:10220000818670470187704781877047A0F840102A
:10221000704702884FF6FF431A40028002880A4343
:10222000028070470146888E70470146088F7047CC
:102230000146888F70470146B1F84000704701465B
:10224000888C70470146088D704702460020138A2B
:102250000B400BB1012000E000207047CA4302820E
:10226000704730B50246002000230024158A05EA95
:102270000103958905EA010413B10CB1012000E0C6
:10228000002030BDCA4302827047000010B50446EA
:10229000BE48844208D101218014FEF797FC00213A
:1022A000A014FEF793FC16E0B948844208D101213E
:1022B0000014FEF798FC00212014FEF794FC0AE0BD
:1022C000B448844207D10121C013FEF78CFC0021E1
:1022D000E013FEF788FC10BD10B50022028802F45E
:1022E00041520B884C8823438C882343CC8823435A
:1022F0000C8923434C8923438C892343CC89234372
:102300001A430280838B4FF2FF74234083830B8A2E
:10231000038210BD2DE9F04F85B005460C464FF005
:10232000000902274FF000084FF0010B0026B246CB
:10233000A88B4FF240010840A88302202884B5F8FA
:102340001C90A068022801D100BF38E0A08810B915
:102350004FF0010B01E04FF0020B8D48854200D198
:1023600000E000BF6846FEF7AAFBDDF800A0E088A9
:10237000B0F5007F0AD14FEA1A2000EB8000400040
:10238000A168B0FBF1F0401D86B20BE04FEA4B10A4
:10239000BAFBF0F000EB80004000A168B0FBF1F068
:1023A000401D86B20A20B6FBF0F606F00108A6EB47
:1023B0000800C0F34F074FF6FF7000EA0828022F0D
:1023C00001DBFF2F02DD02274FF00008E08840EA22
:1023D000080038432884A088A189084361880843FD
:1023E0002188084340F4006040EA0909A5F81C90E0
:1023F00005B0BDE8F08F0021018041808180C1805F
:10240000018141818181C1810721018270470021C1
:10241000018041808180C180022181600021818111
:10242000704721B1028842F04002028004E0028835
:102430004FF6BF731A400280704721B1828B42F47D
:102440008062828304E0828B4FF6FF331A408283DE
:10245000704730B5002400230C110125A540ABB214
:102460001AB185881D43858002E085889D4385805B
:1024700030BD1AB183880B43838002E083888B438D
:1024800083807047818170470146888970474FF685
:10249000FF62914204D0028842F48072028004E01C
:1024A00002884FF6FF631A400280704721B182888C
:1024B00042F00402828004E082884FF6FB731A40E7
:1024C0008280704702884FF2FF731A4002800288B0
:1024D0000A4302807047018841F4805101807047AF
:1024E00021B1028842F40052028004E002884DF6D5
:1024F000FF731A400280704702460020012901D074
:10250000108B00E0908A70470146088A7047B1F549
:10251000804F04D1028842F48042028004E00288A5
:102520004BF6FF731A400280704702460020138961
:102530000B400BB1012000E000207047CA4302812C
:102540007047F0B50246002000240023002501F06A
:102550000F070126BE40B4B20B1101269E40B3B254
:10256000968806EA03051689264016B10DB10120AA
:1025700000E00020F0BD10B5002201F00F0401239F
:10258000A3409AB2D343038110BD00000030014044
:1025900000380040003C00400CB500200190009045
:1025A0006C48006840F480306A49086000BF6948A0
:1025B000006800F4003000900198401C01900098E1
:1025C00018B90198B0F5A06FF1D16248006800F425
:1025D000003010B10120009001E000200090009830
:1025E000012843D15C48006840F010005A49086057
:1025F0000846006820F0030008600846006840F0C4
:1026000002000860534840685249486008464068E4
:1026100048600846406840F480604860084640686A
:1026200020F47C1048600846406840F4E810486098
:102630000846006840F08070086000BF45480068A8
:1026400000F000700028F9D04248406820F00300F4
:10265000404948600846406840F00200486000BFBA
:102660003C48406800F00C000828F9D10CBD10B5BA
:10267000FFF792FF10BD10B53648006840F001002A
:102680003449086008464068344908403149486088
:1026900008460068324908402E490860084600682C
:1026A00020F4802008600846406820F4FE0048605E
:1026B0004FF41F008860FFF7DAFF4FF000602949F0
:1026C000086010BD10B5002100200022214B5B687E
:1026D00003F00C0121B1042906D0082928D107E014
:1026E000214B224C236027E0214B204C236023E028
:1026F000184B5B6803F47010164B5B6803F4803270
:10270000022303EB904022B91A4B4343174C23603A
:102710000DE0104B5B6803F4003323B1124B4343CD
:10272000124C236003E0124B4343104C236003E040
:102730000D4B0E4C236000BF00BF064B5B68C3F31C
:1027400003130D4CE15C094B1B68CB40074C236025
:1027500010BD000000100240002002400000FFF801
:10276000FFFFF6FE08ED00E000127A0014000020E2
:102770000024F40000093D00180000204FF0E02084
:10278000006920F004004FF0E0210861092023498E
:1027900008700846007800EB4001C1EBC0104FF60E
:1027A000FF7101EAC0001E490880704701461C4ABB
:1027B00012884A434FF0E0235A6100229A610122B5
:1027C0001A6100BF4FF0E022106900F001021AB157
:1027D00000F48032002AF5D000224FF0E0231A6185
:1027E0009A61704701460D4A12784A434FF0E02340
:1027F0005A6100229A6101221A6100BF4FF0E02263
:10280000106900F001021AB100F48032002AF5D0FC
:1028100000224FF0E0231A619A61704728000020DF
:102820002A00002010B5FEF749F84FF48030FEF77B
:1028300065F8FEF7A2F8012830D10020FEF7E3F892
:102840000020FEF7F2F84FF48060FEF7E5F8144838
:10285000006840F01000124908600846006820F047
:10286000030008600846006840F0020008604FF46A
:10287000E0114FF44030FEF7A9F80120FEF7B2F85E
:1028800000BF3920FEF75DF80028FAD00220FEF7DD
:10289000ACF800BFFEF7B2F80828FBD110BD00006D
:1028A0000020024008B501210820FEF775F920201C
:1028B000ADF8000003208DF8020010208DF8030011
:1028C00069461048FDF7ACFE08BD70B505460C46DC
:1028D0000DE020200B49143108602046FFF782FFED
:1028E00020200849103108602046FFF77BFF2800B0
:1028F000A5F10101CDB2ECD12020024914310860CC
:1029000070BD0000000C014010B586B004460121E6
:1029100044F20400FEF740F94FF40070ADF81400E3
:1029200018208DF8170003208DF8160005A93B48E4
:10293000FDF776FE4FF48060ADF8140004208DF8AA
:10294000170005A93548FDF76BFE01940020ADF88E
:102950000800ADF80A00ADF80C00ADF810000C202E
:10296000ADF80E0001A92E48FEF7BFF925208DF81D
:10297000000003208DF801008DF8020001208DF881
:1029800003006846FDF783FD012240F225512448EB
:10299000FEF743FA01212248FEF733FA06B010BDD4
:1029A00070B504460D46E1B21D48FEF797FA00BF28
:1029B00040211B48FEF700FB0028F9D0204670BDDF
:1029C00010B5044600BF20211548FEF7F5FA00288F
:1029D000F9D01348FEF786FA10BD10B540F2255124
:1029E0000F48FEF7FFFA90B10D48FEF77BFA0D494C
:1029F0000D4A126888540C480068401C0A49086057
:102A0000084600681F2802D101200849086040F2EA
:102A100025510348FEF710FB10BD000000080140DF
:102A200000380140580100202C0000203000002018
:102A30000EB501210620FEF7BCF86846FFF718F92D
:102A40004FF6FF70ADF804000020ADF80000ADF8BF
:102A50000600ADF802006946FE48FEF7DDFD0022E3
:102A60001146FC48FFF7DBF90121FA48FFF77CFB30
:102A70002021F848FFF766F90721F648FFF7AAFB7F
:102A80008021F448FFF7AFFB0121F248FFF720FA5D
:102A90004FF6FF70ADF804004820ADF800000020AC
:102AA000ADF80600ADF802006946EB48FEF7B4FD4C
:102AB0000121E948FFF70CFA0421E748FFF78AFBF8
:102AC0000121E548FFF75CFB2021E348FFF779FB94
:102AD0008021E148FFF787FB0121DF48FFF7F8F885
:102AE0000121DC48FFF7F4F80EBD0020D94924315C
:102AF00008880004D84924310988084470472DE922
:102B0000FF4F91B0814692461D46DDF878B0FFF741
:102B1000ECFFD249086008460068D149096888423C
:102B20000FD2CF4909684FF6FF72511ACB4A12688B
:102B3000881802F0CBFFCB490B9002F0F8FD044659
:102B40000BE0C6490968C64A1268881A02F0BEFF3F
:102B5000C4490B9002F0EBFD0446C0480068C04930
:102B600008601F99084602F0B0FD59460690584685
:102B700002F0ABFD29460490284602F0A6FD039022
:102B8000049902F04AFD0590069902F046FD07906F
:102B900003F017F8CDE9080103F09EFDCDE90A0125
:102BA00003F052F80F9028460F9902F0C0FD054639
:102BB00058460F9902F0BBFD83460F991F9802F00B
:102BC000B6FD1F90A8480168A848006802F07DFD86
:102BD0000A90A7480168A748006802F076FD0990AE
:102BE0000A9902F06CFD4FF080410B9002F06DFDF0
:102BF0000E909F4801689C48006802F066FD0A90AC
:102C00009C4801689948006802F05FFD09900A99A4
:102C100002F003FD4FF080410B9002F056FD0D9045
:102C200093480168006802F050FD0B908E480168DF
:102C3000006802F04AFD09908E480168006802F0C1
:102C400044FD079089480168006802F03EFD069047
:102C5000079902F034FD0890099902F030FD0A90BE
:102C60000B9902F0DAFC0C900D991F9802F02DFDE3
:102C70000B9058460C9902F028FD0A900B9902F02F
:102C80001EFD064628460C9902F01FFD0B900E997A
:102C90001F9802F01AFD0A900B9902F010FD0746EA
:102CA00058460E9902F011FD0B9028460D9902F03E
:102CB0000CFD0A900B9902F002FD80466E493046E9
:102CC00002F003FD0B906D4801680B9802F0A5FC23
:102CD0006A4908606849384602F0F7FC0B9068487A
:102CE00001680B9802F099FC65490860624940460A
:102CF00002F0EBFC0B90634801680B9802F08DFC2E
:102D0000604908603146604802F0DFFC49460A909D
:102D100002F083FC0B90594801680B9802F07DFC8F
:102D200081463946584802F0D0FC0A90129902F0C8
:102D300074FC0B90524801680B9802F06EFC1290E4
:102D40004146514802F0C1FC51460A9002F065FC30
:102D50000B904C4801680B9802F05FFC824651468C
:102D60004348006802F0B1FC09903F48129900689E
:102D700002F0ABFC07903F48006880F000404946F5
:102D8000059002F0A2FC0690079902F098FC0890CA
:102D9000099902F094FC21460A9002F096FC0B90EF
:102DA000324801680B9802F038FC3049086030481E
:102DB0001299006802F089FC514609902A4800687F
:102DC00002F083FC079029480168484602F07DFC28
:102DD0000690079902F021FC0890099902F06FFC17
:102DE00021460A9002F071FC0B90224801680B9872
:102DF00002F013FC1F4908601D480168484602F0B4
:102E000064FC514609901B48006802F05EFC079084
:102E100016481299006802F058FC0690079902F0D3
:102E20004EFC0890099902F0F8FB21460A9002F046
:102E30004CFC0B900C4801680B9802F0EEFB0A4921
:102E4000086008460168484602F03FFC09900948BE
:102E500012991BE0000800400004004038000020E8
:102E6000340000200024F449440000203C000020ED
:102E700048000020400000206F12033C4C0000205E
:102E80005000002054000020CDCCCC3F006802F060
:102E90001CFC51460790FE48006802F016FC0690A4
:102EA000079902F0BAFB0890099902F008FC214644
:102EB0000A9002F00AFC0B90F64801680B9802F0A9
:102EC000ACFBF449086008460168006802F0FDFBAD
:102ED0000690F1480168006802F0F7FB0490EF48A3
:102EE0000168006802F0F1FB0290E948016800689F
:102EF00002F0EBFB0190029902F08FFB0390049922
:102F000002F08BFB0590069902F087FB079002F018
:102F100058FECDE9080103F0DFFBCDE90A0102F01C
:102F200093FE0F90DA480F99006802F000FCD84930
:102F30000860DA480F99006802F0F9FBD749086089
:102F4000D5480F99006802F0F2FBD3490860D148D8
:102F50000F99006802F0EBFBCE49086015B0BDE8A0
:102F6000F08F2DE9FC5F0446CD48006802F029FE91
:102F700007464FF06632CB4B02F0BEFC054602F02E
:102F800063FE8146C848006802F01BFE07464FF00A
:102F90006632C44B02F0B0FC054602F055FE824694
:102FA000C248006802F00DFE07464FF06632BD4B86
:102FB00002F0A2FC054602F047FE8346BC4880684A
:102FC000BB494968CDE90010B9484A4651460368F3
:102FD0005846FFF794FDAE4800682060AF4800688F
:102FE0006060AD480068A060AA480068E060BDE885
:102FF000FC9F01B596B012A8FFF7B3FFAD4800786B
:1030000000287CD01598014604904FF0804002F0D3
:103010005CFB0590159801460490059802F055FB5D
:1030200007901498014604904FF0404002F04DFB89
:103030000590149801460490059802F046FB06900E
:10304000079902F03CFB4FF07E51089002F0E5FA40
:10305000099002F0B6FDCDE90C01129801460590E9
:103060004FF0804002F031FB069015980146059024
:10307000069802F02AFB08901398014605904FF03D
:10308000804002F022FB06901498014605900698B5
:1030900002F01BFB0790089902F0BFFA099002F0BA
:1030A00090FDCDE90A01DDE90C2303F055FA4FF05C
:1030B00066327C4BCDE90E0102F01EFCCDE9100119
:1030C00002F0C2FD169908607B48006802F079FDA5
:1030D000CDE90E011298014603904FF0804002F0B6
:1030E000F4FA0490149801460390049802F0EDFA63
:1030F00006901398014603904FF0404000E095E0A1
:1031000002F0E3FA0490159801460390049802F047
:10311000DCFA0590069902F080FA079002F051FD62
:10312000CDE9080102F0D0FF4FF066325D4BCDE9EA
:103130000A0102F0E1FBCDE90C01DDE90E2302F00A
:10314000D5FBCDE9100102F07FFD169948605B4880
:10315000006802F036FDCDE90E011498014600909A
:103160004FF0804002F0B1FA0190149801460090AF
:10317000019802F0AAFA03901398014600904FF0CC
:10318000404002F0A2FA0190139801460090019885
:1031900002F09BFA0290039902F091FA4FF07E51EF
:1031A000049002F03AFA059002F00BFDCDE9080117
:1031B0001298014601904FF0804002F086FA02908A
:1031C000139801460190029802F07FFA0490149837
:1031D000014601904FF0804002F077FA0290159876
:1031E00001460190029802F070FA0390049902F0EF
:1031F00014FA059002F0E5FCCDE90601DDE90823AB
:1032000003F0AAF94FF06632264BCDE90A0102F02D
:1032100073FBCDE90C01DDE90E2302F067FBCDE97C
:10322000100102F011FD1699886056E124480078DB
:10323000C8287DDA1598014604904FF0804002F0CE
:1032400044FA0590159801460490059802F03DFA5D
:1032500007901498014604904FF0404002F035FA70
:103260000590149801460490059802F02EFA0690F5
:10327000079902F024FA4FF07E51089002F0CDF940
:10328000099002F09EFCCDE90C011298014619E06C
:103290003C000020480000204400002040000020A6
:1032A0008400002066A64C40800000207C000020A6
:1032B0004C010020590000205C000020600000202C
:1032C0005800002005904FF0804002F0FEF9069073
:1032D000159801460590069802F0F7F908901398A2
:1032E000014605904FF0804002F0EFF906901498E7
:1032F00001460590069802F0E8F90790089902F057
:103300008CF9099002F05DFCCDE90A01DDE90C239E
:1033100003F022F94FF06632714BCDE90E0102F055
:10332000EBFACDE9100102F08FFC1699086000E07D
:10333000B0E01298014607904FF0804002F0C5F9C6
:103340000890149801460790089802F0BEF90A9078
:103350001398014607904FF0404002F0B6F90890EC
:10336000159801460790089802F0AFF909900A995C
:1033700002F053F90B9002F024FCCDE90C0102F0AD
:10338000A3FE4FF06632564BCDE90E0102F0B4FABF
:10339000CDE9100102F058FC1699486014980146D6
:1033A00004904FF0804002F090F905901498014687
:1033B0000490059802F089F907901398014604904B
:1033C0004FF0404002F081F90590139801460490B7
:1033D000059802F07AF90690079902F070F94FF01B
:1033E0007E51089002F019F9099002F0EAFBCDE94C
:1033F0000C011298014605904FF0804002F065F9EB
:103400000690139801460590069802F05EF9089020
:103410001498014605904FF0804002F056F906904E
:10342000159801460590069802F04FF90790089903
:1034300002F0F3F8099002F0C4FBCDE90A01DDE9DE
:103440000C2303F089F84FF06632254BCDE90E01CD
:1034500002F052FACDE9100102F0F6FB16998860ED
:1034600016988068014611901E48006802F0D5F851
:103470001C49086016984068014611901A48006877
:1034800002F0CBF81849086018480078401C17492A
:10349000087022E01348006802F093FB0022144BEE
:1034A000CDE90E0102F09AFACDE9100102F0CCFB51
:1034B000104908600C48006802F083FB00220C4BA6
:1034C000CDE90E0102F08AFACDE9100102F0BCFB51
:1034D0000949086001200949087017B000BD0000C3
:1034E00066A64C40640000206800002058000020C0
:1034F00000006940600000205C00002059000020AE
:10350000002109E0002201E0531C9AB242F2341378
:103510009A42F9DB4B1C99B28142F3DB70472DE9EB
:10352000F047F848407AF749097A40EA012000B2AA
:10353000F54908800846B0F9000002F0CCFA804650
:103540000022F24B02F04AFA0646F1480CC8304617
:1035500002F0CCF9044602F077FBEE490860E94836
:10356000C07AE849897A40EA012000B2EA49088035
:103570000846B0F9000002F0AEFA06460022E34B1E
:1035800002F02CFA0446E5480CC8204602F0AEF9D9
:10359000804602F059FBE2490860DA48407BD9498D
:1035A000097B40EA012000B2DE4908800846B0F9F4
:1035B000000002F090FA06460022D44B02F00EFA08
:1035C0000446D9480CC8204602F090F9804602F023
:1035D0003BFBD6490860CB484078CA49097840EAA5
:1035E000012000B2D24908800846B0F9000002F07C
:1035F00072FA06464FF06632CE4B02F0EFF90446FF
:1036000002F022FBCC490860BE48C078BD498978E9
:1036100040EA012000B2C94908800846B0F900001C
:1036200002F059FA06464FF06632C24B02F0D6F964
:10363000044602F009FBC2490860B2484079B1492A
:10364000097940EA012000B2BE4908800846B0F975
:10365000000002F040FA06464FF06632B54B02F029
:10366000BDF9044602F0F0FAB7490860BDE8F087FA
:1036700010B5A44B0E223B21D02001F099FCB34899
:10368000012275210368D02001F092FC10BD2DE9C4
:10369000F84F00250026A946AA46AB460020009018
:1036A000C820FFF79FF8002429E0FFF7E1FFFFF7AC
:1036B00036FF98480168284601F0AFFF0546984854
:1036C0000168304601F0A9FF06469848016848465F
:1036D00001F0A3FF81469E480168504601F09DFF1E
:1036E00082469C480168584601F097FF83469A48F5
:1036F0000168009801F091FF0090601CC4B2322C68
:10370000D3DB284602F05DFA07460022934B02F015
:1037100065F97F4A03C2304602F053FA0746002299
:103720008E4B02F05BF97D4A03C2484602F049FA2B
:1037300007460022894B02F051F97B4A03C25046EA
:1037400002F03FFA07460022844B02F047F9844A10
:1037500003C2584602F035FA074600227F4B02F0BA
:103760003DF9804A03C2009802F02BFA0746002276
:103770007A4B02F033F97C4A03C201207B4908608E
:10378000BDE8F88F2DE9FC5F06460F4690461D46C2
:103790004FF00009CA46CB4675487649097840F88B
:1037A000216075487349097840F821707348714960
:1037B000097840F8218000242BE0484602F07DF98A
:1037C00000906B4850F82410009801F026FF0190FB
:1037D00002F092F98146504602F06FF90090664877
:1037E00050F82410009801F018FF019002F084F9BD
:1037F0008246584602F061F90090604850F8241063
:10380000009801F00AFF019002F076F98346601CEF
:10381000C4B2142CD1DB142099FBF0F0019002F01B
:103820004CF9286014209AFBF0F0019002F045F961
:10383000686014209BFBF0F0019002F03EF9A86054
:103840004C480078401C4B49087008460078142802
:1038500001D100200870BDE8FC9FF8B506460F4670
:1038600014461D466B4601223946304601F0DFFB07
:103870002DB10120A0409DF80010084305E0012073
:10388000A0409DF8001021EA0000C0B200906B46F5
:1038900001223946304601F04BFCF8BD2DE9F843D2
:1038A0000746884614461D46089E6B46012241463F
:1038B000384601F0BCFB601CFF2101FA00F0C4F1A6
:1038C00008012944491EFF220A41104300F0FF0964
:1038D000C5F1080006FA00F0C6B2C4F107000641BF
:1038E0009DF8000000EA090000909DF800003043B8
:1038F00000906B4601224146384601F019FCBDE8B4
:10390000F883000078010020700000200060504023
:10391000B00000207C00002072000020B8000020D1
:103920008000002074000020C000002084000020DF
:103930007600002066663040880000207800002075
:103940008C0000207A00002090000020E40000207D
:1039500094000020980000209C00002000004940B6
:10396000C8000020D0000020D8000020E000002087
:1039700094010020E8000020E4010020340200202F
:1039800038B50446032302226B21D0200094FFF7B0
:1039900085FF38BD38B50446022304221B21D02000
:1039A0000094FFF77BFF38BD38B50446022304229C
:1039B0001C21D0200094FFF771FF38BD10B50446DC
:1039C000234606226B21D020FFF747FF10BD10B51C
:1039D0000446234605226A21D020FFF73EFF10BD92
:1039E00010B50446234601223721D020FFF735FFCA
:1039F00010BD38B50446032302221A21D0200094BA
:103A0000FFF74CFF38BD10B50020FFF7D7FFC820E7
:103A1000FFF776FD0120FFF7B3FF3220FFF770FDBF
:103A20000320FFF7B7FF3220FFF76AFD0120FFF701
:103A3000BBFF3220FFF764FD0320FFF7DAFF3220DF
:103A4000FFF75EFD0020FFF7C2FF3220FFF758FDB1
:103A50000120FFF7C5FF3220FFF752FD10BD000027
:103A60003EB505460C4601210846FDF7A2F8ADF823
:103A70000450ADF800400020ADF80600ADF802009B
:103A800069464FF08040FDF7C7FD01218807FEF72A
:103A90001FF93EBD08B501210420FDF77DF8012086
:103AA000ADF8000018208DF8030003208DF8020007
:103AB00069465848FCF7B4FD08BD1FB56020ADF855
:103AC00000000120ADF802000020ADF808006946B2
:103AD0004FF08040FDF7DDFD0821C806FEF728FA0B
:103AE00001218807FEF7F4F81FBD08B50121042065
:103AF000FDF752F80220ADF8000018208DF8030001
:103B000003208DF8020069464248FCF789FD08BD94
:103B10001FB56020ADF800000120ADF802000020C4
:103B2000ADF8080069464FF08040FDF7F4FD08212C
:103B3000C806FEF706FA01218807FEF7C9F81FBD7F
:103B400008B501210420FDF727F80420ADF8000096
:103B500018208DF8030003208DF8020069462D48D7
:103B6000FCF75EFD08BD1FB56020ADF80000012028
:103B7000ADF802000020ADF8080069464FF0804023
:103B8000FDF716FE0821C806FEF7E8F901218807AF
:103B9000FEF79EF81FBD08B501210420FCF7FCFFCD
:103BA0000820ADF8000018208DF8030003208DF8E0
:103BB000020069461748FCF733FD08BD1FB56020B9
:103BC000ADF800000120ADF802000020ADF80800BB
:103BD00069464FF08040FDF736FE0821C806FEF723
:103BE000C6F901218807FEF773F81FBD10B5FFF76E
:103BF000A7FFFFF74FFFFFF778FFFFF7CCFF10BDE0
:103C000010B5FFF7B0FFFFF758FFFFF781FFFFF791
:103C1000D5FF10BD0008014000B587B001210C2080
:103C2000FCF7BAFF1020ADF8180003208DF81A0039
:103C300010208DF81B0006A9B548FCF7F1FC042004
:103C4000ADF8180006A9B348FCF7EAFC0120ADF86E
:103C5000180028208DF81B0006A9AE48FCF7E0FCF0
:103C60000521AC48FCF78BFD1021A948FCF787FD26
:103C700000F08BF90021A848FEF7D3FB0020ADF837
:103C800004004FF48270ADF806000020ADF8080083
:103C9000ADF80A00ADF80C004FF40070ADF80E005E
:103CA0001820ADF810000020ADF812000720ADF884
:103CB000140001A99848FEF70FFB01219648FEF772
:103CC000B0FB00209549086001209549C1F890019A
:103CD00007B000BD2DE9F04107460D46164600200D
:103CE00090490860384600F029F98046002405E034
:103CF000FF2000F023F92855601CC4B2B442F7DB62
:103D00000120884908604046BDE8F0812DE9F04176
:103D100007460C461546002082490860384600F0E8
:103D20000DF98046002605E014F8010B00F006F9B5
:103D3000701CC6B2AE42F7DB01207A4908604046EB
:103D4000BDE8F0811CB578A103C9CDE900010820C8
:103D500000F05FF9052269463020FFF7D7FF052202
:103D600069461020FFF7B6FF002406E01DF80400A6
:103D7000A52800D003E0601CC4B2052CF6DB00BF10
:103D8000052C01D001201CBD0020FCE770B50546C4
:103D90000C46002063490860284600F0CFF806462C
:103DA000204600F0CBF801205D49C1F89001304673
:103DB00070BD70B5044600205A490860204600F0E6
:103DC000BDF8FF2000F0BAF8054601205449C1F8BB
:103DD0009001284670BD70B50546102000F019F915
:103DE00000204E49086020222946A020FFF78EFFC0
:103DF00001204F49C1F8880100BF48488838006851
:103E00000028FAD10720FFF7D4FF044621462720D7
:103E1000FFF7BCFF04F0100028B1FF21E120FFF7FD
:103E2000B5FF102070BD04F0200008B12020F9E794
:103E3000FF20F7E770B50446102000F0EAF80720ED
:103E4000FFF7B7FF054629462720FFF79FFF05F03C
:103E5000400050B1202221466120FFF73BFFFF21A7
:103E6000E220FFF793FF002070BD0120FCE710B5B2
:103E700000202A49086005222E492A20FFF746FF24
:103E800001212120FFF782FF01212220FFF77EFF81
:103E900028212520FFF77AFF20213120FFF776FF28
:103EA0000F212620FFF772FF0F212020FFF76EFF62
:103EB00001201F49C1F8880110BD10B50020174925
:103EC000086005221C493020FFF720FF0522194910
:103ED0002A20FFF71BFF01212120FFF757FF0121B7
:103EE0002220FFF753FF1A212420FFF74FFF28213C
:103EF0002520FFF74BFF0F212620FFF747FF0E215C
:103F00002020FFF743FF01200949C1F8880110BDB7
:103F100000080140000C014000300140888121422E
:103F20000000214290012142A5A5A5A5A500000001
:103F300000802142296700082467000870B5054603
:103F4000002405E0601CC4B2C82C01DD002070BD57
:103F500002213948FEF7E9FA0028F3D0294636480D
:103F6000FEF790FA002405E0601CC4B2C82C01DD05
:103F70000020ECE701213048FEF7D7FA0028F3D003
:103F80002D48FEF781FAC0B2E1E700B587B0012104
:103F90000420FCF701FE01210803FCF7FDFDE020F1
:103FA000ADF8180018208DF81B0003208DF81A00BA
:103FB00006A92248FCF734FBE0212048FCF7DDFB92
:103FC0000020ADF804004FF48270ADF80600002028
:103FD000ADF808000220ADF80A000120ADF80C0091
:103FE0004002ADF80E003820ADF810000020ADF80A
:103FF00012000720ADF8140001A90F48FEF76CF974
:1040000001210D48FEF70DFAFF20FFF797FF07B0DB
:1040100000BD10B50446084800884FF6C771084037
:10402000054908800846008820430880012102488D
:10403000FEF7F7F910BD0000003001400008014014
:10404000FE490A780978491CFC4B1970FC498854D0
:104050007047FA490A780978491CF84B1970F949F0
:104060008854704711B500209DF80120F3490B7862
:104070000978491CF14C2170F149CA549DF800306F
:1040800021460A780978491C2170ED498B549DF826
:1040900001100144C8B29DF800100144C8B218BD17
:1040A00011B500209DF80120E4490B780978491CDE
:1040B000E24C2170E249CA549DF8003021460A784A
:1040C0000978491C2170DE498B549DF80110014488
:1040D000C8B29DF800100144C8B218BD11B5002047
:1040E0009DF80320D5490B780978491CD34C2170E1
:1040F000D349CA549DF8022021460B780978491CFF
:104100002170CF49CA549DF8012021460B780978C7
:10411000491C2170CA49CA549DF8002021460B78D9
:104120000978491C2170C649CA549DF803100144FE
:10413000C8B29DF802100144C8B29DF801100144B4
:10414000C8B29DF800100144C8B218BD11B50024D2
:104150000020BA4908708820FFF77BFF2044C4B2D2
:10416000A120FFF776FF2044C4B20220FFF771FFC1
:104170002044C4B29DF80100FFF76BFF2044C4B295
:104180009DF80000FFF765FF2044C4B22046FFF70A
:1041900060FF18BD30B5054600240020A74908700F
:1041A0008820FFF74DFF2044C4B2A120FFF748FF4D
:1041B0002044C4B20220FFF743FF2044C4B2284683
:1041C000FFF750FF2044C4B22046FFF739FF30BD4F
:1041D00030B5054600240020984908708820FFF774
:1041E0002FFF2044C4B2A120FFF72AFF2044C4B20D
:1041F0000220FFF725FF2044C4B22846FFF750FFF6
:104200002044C4B22046FFF71BFF30BD2DE9F0412A
:1042100080460D4616461F46002400208749087038
:104220008820FFF70DFF2044C4B24046FFF708FF87
:104230002044C4B20C20FFF703FF2044C4B2284638
:10424000FFF74CFF2044C4B23046FFF747FF20443D
:10425000C4B23846FFF742FF2044C4B22046FFF7FD
:10426000EFFEBDE8F08130B505460024002073491B
:1042700008708820FFF7E4FE2044C4B2A120FFF7B5
:10428000DFFE2044C4B20120FFF7DAFE2044C4B2AE
:104290002846FFF7D5FE2044C4B22046FFF7D0FEE3
:1042A00030BD1FB500240020644908708820FFF746
:1042B000C7FE2044C4B2AF20FFF7C2FE2044C4B200
:1042C0001C20FFF7BDFE2044C4B29DF80100FFF79B
:1042D000B7FE2044C4B29DF80000FFF7B1FE2044B1
:1042E000C4B29DF80500FFF7ABFE2044C4B29DF8B0
:1042F0000400FFF7A5FE2044C4B29DF80900FFF7B3
:104300009FFE2044C4B29DF80800FFF799FE2044A8
:10431000C4B29DF80D00FFF793FE2044C4B29DF88F
:104320000C00FFF78DFE2044C4B29DF81900FFF782
:1043300087FE2044C4B29DF81800FFF781FE204498
:10434000C4B29DF81D00FFF77BFE2044C4B29DF867
:104350001C00FFF775FE2044C4B20020FFF770FE7A
:104360000020FFF76DFE0020FFF76AFE0020FFF738
:1043700067FE0020FFF764FE0020FFF761FE9DF856
:104380002100FFF75DFE2044C4B29DF82000FFF736
:1043900057FE2044C4B29DF82500FFF751FE20448B
:1043A000C4B29DF82400FFF74BFE2044C4B20020A5
:1043B000FFF746FE0020FFF743FE0020FFF740FE18
:1043C0000020FFF73DFE0020FFF73AFE0020FFF738
:1043D00037FE2046FFF734FE1FBD1FB50024002026
:1043E000164908708820FFF72BFE2044C4B2AE2087
:1043F000FFF726FE2044C4B21C20FFF721FE204414
:10440000C4B20020FFF71CFE0020FFF719FE0020B9
:10441000FFF716FE0020FFF713FE0020FFF710FE47
:104420000020FFF70DFE0020FFF70AFE0020FFF737
:1044300007FE0020FFF704FE002005E0EF0000204B
:1044400084020020E9000020FFF7FAFD0020FFF7BA
:10445000F7FD0020FFF7F4FD0020FFF7F1FD00203D
:10446000FFF7EEFD0020FFF7EBFD0020FFF7E8FD72
:104470000020FFF7E5FD0020FFF7E2FD9DF80100B9
:10448000FFF7DEFD2044C4B29DF80000FFF7D8FD21
:104490002044C4B29DF80500FFF7D2FD2044C4B209
:1044A0009DF80400FFF7CCFD2044C4B29DF809003C
:1044B000FFF7C6FD2044C4B29DF80800FFF7C0FD19
:1044C0002044C4B29DF80D00FFF7BAFD2044C4B2E9
:1044D0009DF80C00FFF7B4FD2044C4B29DF819000C
:1044E000FFF7AEFD2044C4B29DF81800FFF7A8FD09
:1044F0002044C4B22046FFF7A3FD1FBD1FB5002412
:104500000020FD4908708820FFF79AFD2044C4B2BE
:10451000AC20FFF795FD2044C4B21C20FFF790FDAE
:104520002044C4B2AD20FFF78BFD2044C4B29DF8F7
:104530000100FFF785FD2044C4B29DF80000FFF79D
:104540007FFD2044C4B29DF80500FFF779FD2044AB
:10455000C4B29DF80400FFF773FD2044C4B29DF877
:104560000900FFF76DFD2044C4B29DF80800FFF775
:1045700067FD2044C4B29DF80D00FFF761FD2044A3
:10458000C4B29DF80C00FFF75BFD2044C4B29DF857
:104590001900FFF755FD2044C4B29DF81800FFF73D
:1045A0004FFD2044C4B29DF81D00FFF749FD204493
:1045B000C4B29DF81C00FFF743FD2044C4B20020A4
:1045C000FFF73EFD0020FFF73BFD0020FFF738FD21
:1045D0000020FFF735FD0020FFF732FD0020FFF738
:1045E0002FFD0020FFF72CFD0020FFF729FD002004
:1045F000FFF726FD0020FFF723FD0020FFF720FD39
:104600000020FFF71DFD0020FFF71AFD0020FFF737
:1046100017FD0020FFF714FD2046FFF711FD1FBD19
:1046200070B50446002506E029466A1CD5B2B34A97
:10463000505C01F0A5FCA542F6DB70BD70B50446E8
:10464000002506E029466A1CD5B2AD4A505C01F04F
:1046500097FCA542F6DB70BD10B50D2001F090FC73
:104660000A2001F08DFC10BD70B5044642F21070B6
:10467000B4FBF0F03030C5B2284601F081FC42F2C4
:104680001070B4FBF0F100FB11404FF47A71B0FBF5
:10469000F1F03030C5B2284601F072FC4FF47A7068
:1046A000B4FBF0F100FB11406421B0FBF1F03030BD
:1046B000C5B2284601F064FC6420B4FBF0F100FBB5
:1046C00011400A21B0FBF1F000F13005284601F05D
:1046D00057FC0A20B4FBF0F100FB114000F130055B
:1046E000284601F04DFC70BD70B504464FF47A7059
:1046F000B4FBF0F03030C5B2284601F041FC4FF475
:104700007A70B4FBF0F100FB11406421B0FBF1F0D2
:104710003030C5B2284601F033FC6420B4FBF0F120
:1047200000FB11400A21B0FBF1F000F130052846F2
:1047300001F026FC0A20B4FBF0F100FB114000F16F
:104740003005284601F01CFC70BD70B5044664209D
:10475000B4FBF0F03030C5B2284601F011FC642003
:10476000B4FBF0F100FB11400A21B0FBF1F000F1C5
:104770003005284601F004FC0A20B4FBF0F100FBF0
:10478000114000F13005284601F0FAFB70BD70B50C
:1047900004460A20B4FBF0F03030C5B2284601F0E0
:1047A000EFFB0A20B4FBF0F100FB114000F13005F3
:1047B000284601F0E5FB70BD2DE9FC5F4FF00009D4
:1047C000002400BF06E04F48005D484400F0FF09A8
:1047D000601CC4B21F2CF6DB4A48C07F484501D09C
:1047E000BDE8FC9F474800788A2800D0F8E7454894
:1047F00040788B287ED1434880781C28FAD14148E4
:10480000C078AD2843D140498868404900F05DFF39
:10481000019001F08AF985B23B4948683B4900F0B4
:1048200054FF019001F081F986B237490868374991
:1048300000F04BFF019001F078F987B234498868A5
:10484000324900F042FF019001F06FF91FFA80F841
:104850002F4948682D4900F038FF019001F065F9B3
:104860001FFA80FA2A490868284900F02EFF0190B3
:1048700001F05BF91FFA80FB3B4642465146584621
:10488000CDE90065FFF73AFE2020FFF7C9FE1D487D
:10489000C078AE28AED11B4949791A4A127941EA4B
:1048A000022001F00AF9824601F08BF90746002246
:1048B000184B01F093F8054601F0C6F91449086059
:1048C0001049C9790F4A927941EA022001F0F5F8BE
:1048D000824601F076F9074600220E4B01F07EF881
:1048E000054601F0B1F90A4948600649497A054A86
:1048F000127A11E060E00000EF0000208402002046
:10490000E900002058010020B40200200000C84245
:10491000A40200200000594041EA022001F0CDF835
:10492000824601F04EF907460022244B01F056F86A
:10493000054601F089F9224988602249C97A214A4D
:10494000927A41EA022001F0B8F8824601F039F982
:1049500007460022194B01F041F8054601F074F9B1
:10496000194908601749497B164A127B41EA02201F
:1049700001F0A3F8824601F024F9074600220F4B0C
:1049800001F02CF8054601F05FF90F4948600D4928
:10499000C97B0C4A927B41EA022001F08EF88246E4
:1049A00001F00FF907460022044B01F017F8054605
:1049B00001F04AF90449886000BF11E7000059403E
:1049C000A402002058010020B40200204FF07E50C5
:1049D000D1490860002048604FF07C508860CF4883
:1049E000C8604FF07E50CE490860002048604FF00C
:1049F0007C508860C948C860704770B5C948016874
:104A0000C948006800F05BFEC8490860C5480068F6
:104A100001F0D7F80446C64AC64B01F0FDF80CD2A7
:104A2000C048006801F0CDF80446C14AC24B01F00D
:104A3000DBF802D20020C1490860B7494868B9498B
:104A4000096800F042FE0446BC480168204600F0B8
:104A500039FEBA490860BA49B448006800F035FE2A
:104A6000AD49C860C868002101F00AF90AD2AA4815
:104A7000C06880F00044B349204600F0CEFDA6494E
:104A8000C86006E0A449C868AE4900F0C6FDA24966
:104A9000C860A148C168A948006801F0FBF803D2CA
:104AA0009D48C068A54908609B48C168A348006844
:104AB00001F0F0F805D29848C06880F000409F49A6
:104AC000086095498868A049096800F0FEFD054620
:104AD000914908689549096800F0F7FD064697482E
:104AE0000168304600F099FD0446294600F0E7FDD4
:104AF00096490860964801689648006800F0DFFD16
:104B0000954908609248006801F05BF80446884ABD
:104B1000884B01F081F80CD28D48006801F051F803
:104B20000446834A844B01F05FF802D200208B498F
:104B300008607B4948688649096800F0C6FD04465C
:104B400086480168204600F0BDFD844908607C4924
:104B50008148006800F0B9FD7149C860C86800214B
:104B600001F08EF80AD26E48C06880F000447549A2
:104B7000204600F052FD6A49C86006E06849C868EE
:104B8000704900F04AFD6649C8606548C1687348CD
:104B9000006801F07FF803D26148C0686F4908607F
:104BA0005F48C1686D48006801F074F805D25C4840
:104BB000C06880F0004069490860594988686849C0
:104BC000096800F082FD0546554908686249096890
:104BD00000F07BFD064661480168304600F01DFD8F
:104BE0000446294600F06BFD5E4908605E48006897
:104BF00000F063FF064655480168304600F05FFD4F
:104C0000054658480168284600F007FD044600F0B4
:104C100073FF00B2554908805348006800F04DFF0B
:104C200006464A480168304600F0F7FC05464D4804
:104C30000168284600F0F1FC044600F05DFF00B278
:104C40004B4908804848006800F037FF06463F4857
:104C50000168304600F0E1FC0546424801682846FC
:104C600000F02DFD044600F047FF00B241490880E6
:104C70003D48006800F021FF064634480168304690
:104C800000F01DFD054637480168284600F017FD75
:104C9000044600F031FF00B23749088070BD2DE9AD
:104CA000F04104460D4616461F46B4F57A7F01DBF7
:104CB00040F2E734B5F57A7F01DB40F2E735B6F52F
:104CC0007A7F01DB40F2E736B7F57A7F01DB40F20D
:104CD000E737002C00DA0024002D00DA0025002E32
:104CE00000DA0026002F00DA0027A9B24FF080403A
:104CF000FDF786FAB1B24FF08040FDF783FAA1B21A
:104D00004FF08040FDF780FAB9B24FF08040FDF7D8
:104D10007DFABDE8F0810000A40200200000964367
:104D2000B4020020FC000020F00000200801002058
:104D30009A9999999999B9BF9999B93F28010020F1
:104D4000000020410000C8427C0000201C0100201F
:104D500000010020F40000200C0100202C010020A4
:104D600080000020200100201801002010010020F8
:104D7000120100201401002016010020002109E08A
:104D8000002201E0531C9AB242F234139A42F9DB3A
:104D90004B1C99B28142F3DB704708B500214FF4F8
:104DA0008000FBF706FF4FF48060ADF800000320A1
:104DB0008DF8020010208DF803006946FD48FBF7CE
:104DC0002FFC0520FFF7DAFF4FF48061F948FBF76D
:104DD000D4FC4FF48061F748FBF7D1FC4FF48061BD
:104DE000F448FBF7CAFC4FF48061F248FBF7C7FCBC
:104DF0004FF48061EF48FBF7C0FC4FF48061ED4851
:104E0000FBF7BDFC4FF48061EA48FBF7B6FC4FF4BA
:104E10008061E848FBF7B3FC4FF48061E548FBF79D
:104E2000ACFC4FF48061E348FBF7A9FC4FF48061D0
:104E3000E048FBF7A2FC4FF48061DE48FBF79FFCE3
:104E40004FF48061DB48FBF798FC4FF48061D94850
:104E5000FBF795FC4FF48061D648FBF78EFC4FF4CE
:104E60008061D448FBF78BFC4FF48061D148FBF79D
:104E700084FC4FF48061CF48FBF781FC4FF48061E4
:104E8000CC48FBF77AFC4FF48061CA48FBF777FC0B
:104E90004FF48060ADF8000003208DF802001C2064
:104EA0008DF803006946C348FBF7BAFB012188056A
:104EB000FBF77FFE08BD2DE9F04387B004460D46A1
:104EC00017461E46DDE90E8901210820FBF764FE26
:104ED000FFF763FF01218805FBF76BFE4FF440608D
:104EE000ADF8180003208DF81A001C208DF81B0067
:104EF00006A9B048FBF794FBAF48FCF7B7F80021D0
:104F0000AD48FCF74AF90020ADF80C004BF6FF70F5
:104F1000ADF80E00ADF810404FF48060ADF812000F
:104F20000001ADF81400029502A9A348FCF7B7F8F8
:104F30000121A148FCF731F901219F48FCF769F9EB
:104F40004FF4A060FBF79EFA22208DF804008DF844
:104F500005708DF8066001208DF8070001A8FBF7A9
:104F600096FA21208DF804008DF805808DF80690C2
:104F700001208DF8070001A8FBF789FA07B0BDE80A
:104F8000F0834FF480608B49143108608948001D1C
:104F9000006840F480608749091D086070478548B3
:104FA000001D006840F440608249091D0860704798
:104FB00030B504468148007808B1002030BD8048F3
:104FC00004708048017080480270804802708048F8
:104FD000036001207F4D287000207F4D28707F4D99
:104FE00028707548001D008840F48070724D2D1D9A
:104FF00028802846008840F40070288028460088D1
:105000004FF6FF3528406C4D2D1D2880281F008845
:1050100040F480602D1F28800120684D287066486C
:10502000008840F48070644D28800120C6E730B5C8
:1050300004466248007808B1002030BD6048047022
:105040006048017060480270604802706048036008
:105050000120604D287000205F4D28705F4D287042
:105060005548001D008840F48070534D2D1D288048
:105070002846008840F400702880284600884FF6B3
:10508000FF3528404C4D2D1D2880281F008840F4F6
:1050900080602D1F28800120484D287046480088D8
:1050A00040F48070444D288000BF444800780028B8
:1050B000FBD10120C1E730B504464048007808B173
:1050C000002030BD3E4804703E4801703E480270EA
:1050D0003E4802703E48036000203E4D28703E4D21
:1050E00028703E4D28700120344D28703248001D34
:1050F000008840F48070304D2D1D2880284600889F
:1051000040F400702880284600884FF6FF3528407C
:10511000294D2D1D2880281F008840F480602D1FF8
:1051200028802846008840F4807028800120C8E745
:1051300030B504462148007808B1002030BD204831
:1051400004702048017020480270204802702048F6
:10515000036000201F4D28701F4D28701F4D2870C0
:105160000120164D28701448001D008840F48070FE
:10517000114D2D1D28802846008840F4007028809D
:10518000284600884FF6FF3528400B4D2D1D2880FE
:10519000281F008840F480602D1F28802846008842
:1051A00040F48070288000BF044800780028FBD1BC
:1051B0000120C3E7000C01400058004043010020DB
:1051C00038010020390100203B0100203A01002075
:1051D0003C0100204001002041010020420100204C
:1051E00000B5ED48007800287DD0EC480078012813
:1051F0007AD1EB48008800F0010030B1E94800782E
:10520000401CE749091F088000BDE74800780128D5
:1052100044D1E348008800F00200F8B1E0481038BB
:10522000008840F48060DE4910390880081F00883B
:105230004FF6FF310840DA4914390880FFF7A1FE24
:10524000D748001D0088D6481438008840F4007004
:10525000D34914390880FFF7A2FED5E7D04800886B
:1052600000F0400000287BD0CD48103800884FF671
:10527000FF310840CA4910390880C948001F00881A
:10528000CA4909680870002000E0401CC849096844
:105290008842FAD30020C7490870B5E7C2480078B1
:1052A000022867D1BE48008800F0020018B3BC484D
:1052B0001438008840F40060B94914390880084661
:1052C000008840F480600880FFF75BFEB448001D52
:1052D0000088B348143800884FF6FF310840B049C1
:1052E0001439088001E0F8E0CCE0FFF758FE012017
:1052F000B149087088E7AA48008800F00400002837
:10530000B1D0AD4800780028ADD0FFF73AFEA448F0
:105310001438008840F40070A14914390880084608
:1053200000884FF2FF7108409D49143908800846F3
:10533000008840F4806008809948001F00889B49DD
:1053400009680870FFF72BFE98480068401C9749D1
:1053500008609348001F008809680870002001E079
:1053600008E1401C924909688842FAD3002091491B
:10537000087049E78A48008800F0020070B1884848
:105380001438008840F480608549143908808448C6
:10539000001D008801208849087035E78048008892
:1053A00000F004000028ABD0834800780028A7D084
:1053B00082480078032810DD7948001F00887B4967
:1053C0000968087079480068401C784908607B4883
:1053D0000078401E7949087016E77848007803285D
:1053E00019D16F48143800884FF6FF3108406C49D6
:1053F000143908806A48001F00886C4909680870E1
:105400006A480068401C694908606C480078401E82
:105410006A490870F8E6FFF7B4FD6148143800885F
:1054200040F400705E49143908805D48001F008810
:105430005E49096808705D480068401C5B49086067
:105440005E480078401E5D490870FFF7A8FD54488B
:10545000001F008855490968087054480068401CBE
:105460005249086055480078401E54490870002091
:1054700000E0401C4E4909688842FAD300204D499B
:105480000870C1E64648008800F0010028B1454890
:1054900000784349091F0880B6E64148008800F0BB
:1054A000020040B13E48001D0088454800783C4954
:1054B000091F0880A8E63A48008800F00400002888
:1054C00058D001203549087035481438008840F418
:1054D000807033491439088096E63148008800F01E
:1054E000010028B12F4800782D49091F08808BE65C
:1054F0002B48008800F0020068B12948008800F0BD
:10550000800040B12648001D00882D4800782449BD
:10551000091F088078E62248008800F0040048B39C
:105520001F48008800F0800020B320480068007801
:105530001B49091F088021480078401E1F49087038
:105540001A480068401C194908601C48007888B94E
:1055500013481438008840F4007011491439088049
:10556000002000E0401C124909688842FAD300205C
:105570001049087000BF47E61CB5FFF70EFC01207C
:105580000090034602460F4901900020FFF793FC6C
:105590000020084908701CBD400100204101002086
:1055A00014580040380100203A0100203C0100203E
:1055B0003401002043010020420100203B01002073
:1055C00039010020801A0600D2B201E000F8012B58
:1055D000491EFBD270470022F6E710B513460A4673
:1055E00004461946FFF7F0FF204610BD10B5002213
:1055F00000E0521C835C8C5CA34201D1002BF8D1EB
:10560000D8B2E1B2401A10BD034611F8012B00F8E0
:10561000012B002AF9D118467047F0B480EA010244
:10562000D40F4200B2EB410F02D2024608461146A7
:105630004A0042D0C30DDDB2C1F3C752AD1A202DCE
:1056400035DAC1F3160141F4000204B15242C5F14A
:10565000200602FA06F12A411044B3EBD05F23D0B2
:10566000C4B1012DA0EBC35009DCF0BC4FF00042E7
:1056700002EAC352DBB200F5000000F04FBB40006D
:1056800000F1807000EBC350A0F1807040EAD1704F
:10569000490009E0490841EAC071A0EBC35000F598
:1056A0000000400800EBC350F0BC00F02EBB61428C
:1056B000012202EB4101001BF6E7F0BC704781F0CC
:1056C0000041AAE780F00040A7E780EA010210B598
:1056D00002F00043400022D04A001FD0010E01EB2F
:1056E0001261C0F35600C2F3560240F4000042F4C7
:1056F0000002A0FB022000047F39140400D0401CEB
:1057000050EA124001D44000491EC2B20C0604EB1C
:10571000D010401C4008802A02D003E0002010BDB9
:1057200020F00100002900DA0020184310BD30B439
:1057300080EA010202F0004530F0004221F0004012
:1057400013D090B1C30DD40DC2F31601C0F31600EF
:10575000E41A41F4000140F400027D34914201D387
:10576000641C00E04900002C02DA30BC00207047C5
:105770004FF400000023914201D3891A03434008EB
:105780004FEA4101F7D151B1914202D14FF00041AE
:1057900005E002D24FF0010101E06FF0010103EBDF
:1057A000C450284430BC00F0B0BA2DE9FE4F80460A
:1057B00081EA0300C00F0C46009021F0004123F065
:1057C0000045B8EB0200A94105D24046214690466B
:1057D0001C460B46024623F00040104347D0270DDD
:1057E000C7F30A00C3F30A510290401A01904028FF
:1057F0006BDAC3F3130040F4801B0098924620B18B
:105800000023D2EB030A63EB0B0B01985946C0F15E
:105810004002504600F048FA06460D4650465946AA
:10582000019A00F060FA10EB08006141002487EA59
:10583000115284EAE7731A4340D0009A62B3019A86
:10584000012A4FEA075215DC001B61EB02014FF001
:10585000004202EA0752CDE90042001C41F58011E6
:1058600032462B4600F097FA03B0BDE8F08F404671
:105870002146F9E7001B61EB0201001C41F5801392
:1058800000185B412018A2F5001747EB030140EA1E
:10589000D570B6196D4111E06D084FEA360645EA3C
:1058A000C0754FEA0752001B61EB0201001C41F575
:1058B000801149084FEA30000019514132462B4609
:1058C00003B0BDE8F04F00F057BA00980122400045
:1058D0000023D0EB020263EBE073009821464FEA0D
:1058E000E074B8EB000061EB0401E9E783F00043EA
:1058F0005BE781F0004158E72DE9FE4F81EA0304A0
:1059000004F0004421F0004100944FF0000B23F01C
:10591000004350EA01045ED052EA03045BD0C3F3B3
:105920000A54C1F30A552C44A4F2F3340194A0FBA9
:105930000254C1F3130141F48011C3F3130343F480
:10594000801301FB024400FB034E840A970A44EAD9
:10595000815447EA8357A4FB076802958D0A05FB2B
:1059600007854FEA932C04FB0C542705029D4FEA50
:10597000065847EA1637B5EB08056EEB070C870E9D
:10598000920E47EA811742EA8312A7FB0201B6EBA7
:105990000B0164EB00042B0D43EA0C335E1844EB5F
:1059A0001C50DA465146E7FB0201C5F313044FEAE7
:1059B0000B3343EA14534FEA0432019C43EA0603D3
:1059C000A4F10C040294009CCDE900B400F0E3F9CA
:1059D00003B0BDE8F08F00200146F9E72DE9F04D56
:1059E00081EA030404F0004B21F0004514464FF017
:1059F000000A23F0004150EA050220D054EA0102D7
:105A00001DD0C5F30A570246C5F31303C1F31300B3
:105A1000C1F30A5640F4801543F48013A7EB06083F
:105A2000101BD64608F2FD3873EB050002D308F1CF
:105A3000010801E092185B41B8F1000F03DA002081
:105A40000146BDE8F08D00204FF4801106468446E3
:105A50000EE0171B73EB050705D3121B63EB050361
:105A600006434CEA010C49084FEA300092185B41AA
:105A700050EA0107EDD152EA030012D082EA040095
:105A800083EA0501084305D0101BAB4106D2012271
:105A9000002306E000224FF0004302E06FF0010215
:105AA00053101AEB06004CEB085110EB0A0041EBC7
:105AB0000B01BDE8F04D00F05FB9C10F80EAE07066
:105AC0000844CA079623002100F028B99623002233
:105AD000114600F023B90EB5C10F80EAE07008440A
