:020000040800F2
:10000000300A0020C9010008BD040008BF04000830
:10001000C3040008C7040008CB0400080000000067
:10002000000000000000000000000000CF040008F5
:10003000D104000800000000D3040008D504000823
:10004000E3010008E3010008E3010008E301000800
:10005000E3010008E3010008E3010008E3010008F0
:10006000E3010008E3010008E3010008E3010008E0
:10007000E3010008E3010008E3010008E3010008D0
:10008000E3010008E3010008E3010008E3010008C0
:10009000E3010008E3010008E3010008E3010008B0
:1000A000E3010008E3010008E3010008E3010008A0
:1000B000E3010008E7040008E3010008E301000889
:1000C000E3010008D7040008DF040008E30100088A
:1000D000E3010008F3310008E3010008E301000830
:1000E000E3010008E3010008E301000800F002F862
:1000F00000F05AF80AA090E8000C82448344AAF168
:100100000107DA4501D100F04FF8AFF2090EBAE865
:100110000F0013F0010F18BFFB1A43F0010318473B
:10012000E0860000008700000A444FF0000C10F841
:10013000013B13F0070408BF10F8014B1D1108BF65
:1001400010F8015B641E05D010F8016B641E01F805
:10015000016BF9D113F0080F1EBF10F8014BAD1C55
:100160000C1B09D16D1E58BF01F801CBFAD505E073
:1001700014F8016B01F8016B6D1EF9D59142D6D3CD
:10018000704700000023002400250026103A28BFF5
:1001900078C1FBD8520728BF30C148BF0B607047F9
:1001A0001FB51FBD10B510BD06F0ECFC1146FFF7E2
:1001B000F7FF00F029F806F00AFD03B4FFF7F2FF9D
:1001C00003BC06F00BFD00000948804709480047C2
:1001D000FEE7FEE7FEE7FEE7FEE7FEE7FEE7FEE7F7
:1001E000FEE7FEE704480549054A064B7047000054
:1001F000D72D0008ED00000830040020300A002050
:1002000030060020300600200EB502F0BBFE02F0E2
:1002100065FE02F071FF4FF4E13002F08FFF02F053
:1002200000FF0320009001231A4689490190A6206F
:1002300006F009F94FF4FA7005F042FF03F0BEFF33
:1002400003E00821834800F0F8FA04F04DF8002894
:10025000F7D1042004F029F9022140F2E73003F03D
:10026000BDFE03F081FF03F089FF03F082FE05F07D
:1002700023F906F03DF86421022002F01BFFE6E0BE
:100280007548007801287CD174480078401C734977
:10029000087003F0C5FD03F084FB714B7148B0F9A1
:1002A00000207148B0F900107048B0F9000003F068
:1002B0000FFD002068490870684800780228E2D1E4
:1002C0000020664908706A480078401C6849087038
:1002D0006448B0F9000007F0D5FF04466248B0F961
:1002E000000007F0CFFF05466048B0F9000007F0B6
:1002F000C9FF06465F48B0F9000007F0C3FF074694
:100300005D48B0F9000007F0BDFF80465B48B0F9DA
:10031000000007F0B7FF8146594833463A46414648
:10032000CDE900540290484602F0F5FF554989880E
:10033000A1F2DC5007F0A6FF0646534907F070FE15
:10034000044650498989A1F2DC5007F09BFF06461C
:100350004E4907F065FE0546214607F0F3FD4C497E
:1003600008604849C988A1F2DC5007F08BFF0646B7
:10037000454907F055FE04464249C989A1F2DC50BF
:1003800000E021E007F07EFF0646404907F048FE06
:100390000546214607F0D6FD3D49486039490988A0
:1003A00008B205F087F932480078022809D1002008
:1003B0002F4908703348008802B23549304805F0AB
:1003C000C9F80020334908703348007801283ED12D
:1003D00032480078401C3149087031480078401C90
:1003E0002F4908702F480078401C2E4908702E486D
:1003F0000078401C2C490870284800780A2805D14C
:1004000001202A49087000202449087024480078F7
:100410000F2805D1012026490870002020490870C6
:1004200021480078142805D10120224908700020B5
:100430001D4908701B480078192805D101201E4964
:10044000087000201749087000201349087017E74A
:10045000801A0600000C014023000020210000202B
:1004600010000020AE000020AC000020AA000020F8
:1004700022000020A8000020A6000020A4000020E8
:1004800068010020D8020020000050410000C8424E
:100490007401002024000020250000201D00002001
:1004A0001E000020200000201F0000200600002069
:1004B00007000020090000200A000020704700BF4C
:1004C000FEE700BFFEE700BFFEE700BFFEE77047A4
:1004D00070477047704710B506F04AF910BD10B567
:1004E00006F012FB10BD10B51048008800F00100A6
:1004F000D8B14FF6FE700D4908800D480078401CB9
:100500000B4908700B480078401C0A4908700848DD
:100510000078022807D101200749087007490870B0
:1005200000200349087004F0F8FA10BD10040040E0
:1005300026000020270000202300002025000020A6
:1005400031490143314A1160704770B500210023E1
:100550000F22C47804B32D4C246804F4E064C4F57D
:10056000E064210AC1F10403CA40447804FA03F1AB
:100570008478144021430901254C0678A15504785C
:1005800004F01F050124AC4005786D11AD0005F1A4
:10059000E025C5F8004109E0047804F01F050124B6
:1005A000AC401C4D0678761145F8264070BD1A4ABD
:1005B0000A400243154B1B1F1A60704739B1134A9A
:1005C000121D12680243114B1B1D1A6006E00F4AF0
:1005D000121D126882430D4B1B1D1A6070470428C0
:1005E00008D14FF0E021096941F004014FF0E02209
:1005F000116107E04FF0E021096921F004014FF09B
:10060000E0221161704700000000FA050CED00E0E7
:1006100000E400E080E100E080FFFF1F10B5044629
:10062000CC48844208D10121042000F02DFB002198
:10063000042000F029FB46E0C748844208D101218C
:10064000082000F021FB0021082000F01DFB3AE00B
:10065000C248844208D10121102000F015FB00217E
:10066000102000F011FB2EE0BD48844208D101218A
:10067000202000F009FB0021202000F005FB22E0F3
:10068000B848844208D10121402000F0FDFA002141
:10069000402000F0F9FA16E0B348844208D1012165
:1006A000802000F0F1FA0021802000F0EDFA0AE04D
:1006B000AE48844207D10121801500F0E5FA0021FF
:1006C000A01500F0E1FA10BD10B50121084600F0B8
:1006D000DBFA0021012000F0D7FA10BD2DE9F0412E
:1006E000024600250026002000230024002791F860
:1006F00003C00CF00F0591F803C00CF0100CBCF116
:10070000000F03D091F802C04CEA050591F800C033
:10071000BCF1000F31D0146800202BE04FF0010C29
:100720000CFA00F3B1F800C00CEA03069E4220D197
:1007300083004FF00F0C0CFA03F7BC4305FA03FCDF
:100740004CEA040491F803C0BCF1280F06D14FF025
:10075000010C0CFA00FCC2F814C00AE091F803C0C6
:10076000BCF1480F05D14FF0010C0CFA00FCC2F8A7
:1007700010C0401C0828D1D31460B1F800C0BCF1EF
:10078000FF0F34DD546800202EE000F1080C4FF01C
:10079000010808FA0CF3B1F800C00CEA03069E4207
:1007A00021D183004FF00F0C0CFA03F7BC4305FA7C
:1007B00003FC4CEA040491F803C0BCF1280F05D1F6
:1007C00000F1080C08FA0CF8C2F8148091F803C084
:1007D000BCF1480F07D100F1080C4FF0010808FAEE
:1007E0000CF8C2F81080401C0828CED35460BDE835
:1007F000F0814FF6FF710180022181700421C170E8
:1008000070470246002093680B400BB1012000E0C6
:10081000002070470146886880B270470246002079
:10082000D3680B400BB1012000E000207047014667
:10083000C86880B2704701617047416170470AB172
:10084000016100E041617047C16070474FF4803240
:100850000A438261816182618269826970470246CE
:100860000020434B18684FF68073184040EA02108E
:1008700008433F4B186070473E49C8617047F0B568
:100880000A46002300240021002500F00046B6F1AE
:10089000004F02D1364EF16901E0354E7168C0F368
:1008A000034583B200F44016B6F5401F08D121F08D
:1008B00070612F4E766826F070662D4F7E6012E0D4
:1008C00000F48016B6F5801F06D1032606FA05F45B
:1008D000A14341F0706106E0460D360103FA06F6C9
:1008E000B14341F0706122B1460D360103FA06F6BC
:1008F000314300F00046B6F1004F02D11C4EF161C9
:1009000001E01B4E7160F0BD30B500228B071C0F5B
:100910000F2303FA04F2164B08338C1053F82430DB
:100920009343134C08348D1044F8253023468C1023
:1009300053F824308C07240F00FA04F423430C4CA2
:1009400008348D1044F8253030BD0A49DC31086088
:100950007047000000080140000C014000100140F9
:100960000014014000180140001C0140002001401B
:100970000000014000002042DF48006840F0010014
:10098000DD49086008464068DC490840DA494860AB
:1009900008460068DA490840D749086008460068F8
:1009A00020F4802008600846406820F4FE0048607B
:1009B0004FF41F0088607047CF49096821F48031E7
:1009C000CD4A11601146096821F480211160B0F50B
:1009D000803F03D0B0F5802F0ED106E0C6490968EC
:1009E00041F48031C44A116007E0C349096841F409
:1009F000A021C14A116000E000BF00BF704710B5E0
:100A000001460022002300204A11012A02D1BA4CDB
:100A1000236806E0022A02D1B74C236A01E0B64CF3
:100A2000636A01F01F02012494401C400CB10120B4
:100A300000E0002010BD38B5002000900024002503
:100A400000BF3120FFF7DBFF05460098401C0090F7
:100A50000098B0F5A06F01D0002DF2D03120FFF743
:100A6000CEFF08B1012400E00024204638BD014635
:100A70000020A14A106820F0F80040EAC100106090
:100A80007047A04908607047024600209A4B58689A
:100A900020F47C1042EA01031843974B58607047DA
:100AA00098490866704701460020934A506820F034
:100AB00003000843506070478F48406800F00C0006
:100AC0007047014600208C4A506820F0F00008432F
:100AD0005060704701460020874A506820F4E0606B
:100AE00008435060704701460020834A506820F454
:100AF000605040EAC1005060704729B17E4A527A86
:100B000002437D4B5A7204E07B4A527A82437A4B0D
:100B10005A7270477B49D8310860704701460020FF
:100B2000754A506820F440400843506070470021E7
:100B3000714A20321170704A82F82010012802D0C8
:100B400004280AD104E001216B4A2032117005E02B
:100B50000521694A2032117000E000BF00BF7047D4
:100B60006949086070476449096A0143624A116231
:100B70007047654944390860704730B5002100224C
:100B8000002400235C4D6D6805F00C0121B104299F
:100B900005D0082923D105E05C4D056022E05C4DBD
:100BA00005601FE0544D6D6805F47012524D6D687C
:100BB00005F48034022505EB92421CB9554D55438E
:100BC00005600BE04C4D6D6805F400351DB14F4DCF
:100BD0005543056002E04E4D5543056002E04B4D24
:100BE000056000BF00BF444D6D6805F0F0010909C4
:100BF000494D6B5C0568DD4045603F4D6D6805F40F
:100C0000E061090A444D6B5C4568DD4085603A4D02
:100C10006D6805F46051C90A3F4D6B5C4568DD4065
:100C2000C560354D6D6805F44041890B3B4D6B5CEB
:100C3000C568B5FBF3F5056130BD29B12E4A52698F
:100C400002432D4B5A6104E02B4A526982432A4BDE
:100C50005A61704729B1284A92690243264B9A612A
:100C600004E0254A92698243234B9A61704729B177
:100C7000214AD2690243204BDA6104E01E4AD2695C
:100C800082431D4BDA61704729B11B4AD268024387
:100C9000194BDA6004E0184AD2688243164BDA60D6
:100CA000704729B1144A12690243134B1A6104E0D8
:100CB000114A12698243104B1A6170471249403938
:100CC000086070470F49C86470470B49C871704786
:100CD0000948406A40F08070074948627047014601
:100CE0000020054A92680A400AB1012000E0002075
:100CF0007047014988727047001002400000FFF8F9
:100D0000FFFFF6FE000042428004424200127A00D9
:100D10000024F40000093D002800002038000020D5
:100D200010B50446FB48844209D101218803FFF72E
:100D3000ABFF00214FF48040FFF7A6FF32E0F648FA
:100D4000844209D101214804FFF7ABFF00214FF491
:100D50000030FFF7A6FF25E0F048844209D10121C9
:100D60008804FFF79EFF00214FF48020FFF799FFD2
:100D700018E0EB48844209D10121C804FFF791FF34
:100D800000214FF40020FFF78CFF0BE0E548844280
:100D900008D101210805FFF784FF00214FF48010DE
:100DA000FFF77FFF10BD2DE9F04786B005460E46E0
:100DB0000024A24600BFA1460027B08900B100BFB1
:100DC0002F462C8A4CF6FF700440F08804432C8296
:100DD000AC894EF6F3100440B0883189084371891C
:100DE00008430443AC81AC8A4FF6FF400440B0890D
:100DF0000443AC8201A8FFF7C0FEC648874202D177
:100E0000DDF810A001E0DDF80CA0A88900F4004096
:100E100040B10AEBCA0000EB0A1031684900B0FB90
:100E2000F1F807E00AEBCA0000EB0A10316889000C
:100E3000B0FBF1F86420B8FBF0F004012009642154
:100E400001FB1089A88900F4004040B1322000EB7A
:100E5000C900B0FBF1F000F00700044308E03220C5
:100E600000EB09106421B0FBF1F000F00F00044327
:100E70002C8106B0BDE8F0874FF4165101600021C7
:100E80008180C18001810C214181002181817047D5
:100E900010B502460020108A4FF2FF0318400B885D
:100EA0004C8823438C882343CC88234318431082E7
:100EB00010BD0021018041808180C180704721B137
:100EC000828942F40052828104E082894DF6FF73E8
:100ED0001A4082817047F0B50346002400260025A1
:100EE000002040F66A17B94200D100BF1846C1F38E
:100EF000421401F01F06012707FA06F5012C01D163
:100F00000C3004E0022C01D1103000E014301AB192
:100F100007682F43076002E00768AF430760F0BD32
:100F20001AB1838A0B43838202E0838A8B438382D4
:100F30007047028A4FF6F0731A400282028A0A430F
:100F40000282704782894FF2FF731A408281828940
:100F50000A438281704721B1828942F00202828174
:100F600004E082894FF6FD731A4082817047028A3D
:100F70004FF6DF731A400282028A0A4302827047E8
:100F800021B1028A42F48042028204E0028A4BF6D6
:100F9000FF731A4002827047C1F3080282807047D3
:100FA00001468888C0F308007047818941F001013B
:100FB00081817047028BD2B20283028B42EA012206
:100FC00002837047028B02F47F420283028B0A4342
:100FD0000283704721B1828A42F02002828204E0BB
:100FE000828A4FF6DF731A408282704721B1828A6B
:100FF00042F01002828204E0828A4FF6EF731A40B8
:101000008282704721B1828A42F00802828204E023
:10101000828A4FF6F7731A408282704721B1828923
:1010200042F40042828103E08289C2F30E0282818F
:10103000704721B1828A42F40062828204E0828A8F
:101040004FF2FF731A4082827047828A4FF6FB7319
:101050001A408282828A0A438282704721B1828A40
:1010600042F00202828204E0828A4FF6FD731A4047
:101070008282704702460020B1F5007F00D100BF98
:1010800013880B400BB1012000E00020704701F4F1
:101090000072B2F5007F00D100BFCA4302807047E2
:1010A00070B50246002400230025002040F66A1691
:1010B000B14200D100BFC1F3421501F01F03012668
:1010C00006FA03F3012D02D19689334006E0022D82
:1010D00002D1168A334001E0968A33400C12012671
:1010E00006FA04F41688344013B10CB1012000E074
:1010F000002070BD10B50022002340F66A14A14202
:1011000000D100BF0A1201249440A3B2DC43048042
:1011100010BD00000038014000440040004800407D
:10112000004C00400050004010B50446F74884428F
:1011300009D101214805FFF7B4FD00214FF400104B
:10114000FFF7AFFD08E001218805FFF7AAFD0021A8
:101150004FF48000FFF7A5FD10BD2DE9F04385B0E9
:1011600004460D460026B1460427DFF8A483A6886E
:101170004FF6C07006406846FFF7FFFCDDF80880B8
:10118000E448B8FBF0F01FFA80F946EA0906A680A9
:1011900020884FF6FE71084020800026DE4928682E
:1011A00088420CD828684000B8FBF0F087B2042FC2
:1011B00000DA04273E4309F10100208427E0E88893
:1011C0004BF6FF71884206D1286800EB4000B8FB5F
:1011D000F0F087B209E0286800EBC00101EB0010D5
:1011E000B8FBF0F087B247F48047C7F30B0008B9AB
:1011F00047F0010747F4004006434FF4967009FB9F
:1012000000F04FF47A7190FBF1F0401C2084A6832B
:10121000208840F00100208026884FF6F5300640F7
:10122000A8886989084306432680A8892989084334
:10123000208105B0BDE8F08341F2883101600021D2
:1012400081804BF6FF71C1800021018141814FF403
:1012500080418181704721B1028842F00102028001
:1012600004E002884FF6FE731A400280704721B1F5
:10127000828842F40062828004E082884FF2FF7329
:101280001A408280704721B1828842F48052828065
:1012900004E082884EF6FF731A408280704721B1C5
:1012A000028842F48072028004E002884FF6FF63F5
:1012B0001A400280704721B1028842F40072028015
:1012C00004E002884FF6FF531A400280704721B1B4
:1012D000028842F48062028004E002884FF6FF3305
:1012E0001A40028070470A46002181894FF6017337
:1012F000194002F0FE0319438181704721B18289B0
:1013000042F00102828104E082894FF6FE731A40A6
:101310008281704721B1028842F04002028004E0DD
:1013200002884FF6BF731A40028070471AB1838853
:101330000B43838002E083888B4383807047018264
:1013400070470146088AC0B2704712B141F00101EE
:1013500002E04FF6FE7319400182704708B502465D
:1013600000200090009200980844009000980088A7
:1013700008BD21B1028842F40042028003E00288E5
:10138000C2F30E0202807047B1F5006F04D10288EB
:1013900042F40062028004E002884FF2FF731A40B8
:1013A00002807047B1F5005F04D1028842F4005218
:1013B000028004E002884DF6FF731A4002807047F5
:1013C00021B1028842F48052028004E002884EF685
:1013D000FF731A4002807047B1F5006F04D1028894
:1013E00042F40062028004E002884FF2FF731A4068
:1013F0000280704721B1028842F02002028004E09E
:1014000002884FF6DF731A40028070470146088B4E
:101410000012704721B1028842F01002028004E0FD
:1014200002884FF6EF731A400280704721B9028894
:1014300042F08002028004E002884FF67F731A4077
:1014400002807047B1F5804F05D0828B4BF6FF7359
:101450001A40828303E0828B42F480428283704789
:1014600070B502460024002500230020958A138BC6
:101470001B0445EA030626F07F4404EA01068E4277
:1014800001D1012000E0002070BD10B50146002010
:10149000002300228B8A0A8B120443EA020424F000
:1014A0007F4010BD0CB5024600200023019300933D
:1014B00000920B0F019321F07F41019B1BB1009B18
:1014C0001433009303E0090C009B18330093009B36
:1014D0001B680B400BB1012000E000200CBD002276
:1014E00021F07F42D3438382704730B5024600200B
:1014F0000023948801F0E06504EA154321F07F4160
:10150000948A0C4054B14BB1012008E000540040D3
:1015100000127A0040420F00A0860100002030BD7A
:10152000002221F07F42D3438382704710B50446E6
:10153000FE48844208D10121C014FFF7A5FB002119
:10154000E014FFF7A1FBC4E0B4F1804F08D1012102
:101550000846FFF7A6FB00210120FFF7A2FBB8E039
:10156000F348844208D101210220FFF79AFB0021B1
:101570000220FFF796FBACE0EE48844208D101213F
:101580000420FFF78EFB00210420FFF78AFBA0E078
:10159000E948844208D101210820FFF782FB00219D
:1015A0000820FFF77EFB94E0E448844208D1012143
:1015B0001020FFF776FB00211020FFF772FB88E078
:1015C000DF48844208D101212020FFF76AFB002177
:1015D0002020FFF766FB7CE0DA48844208D1012135
:1015E0004014FFF751FB00216014FFF74DFB70E042
:1015F000D548844209D10121C804FFF745FB0021E9
:101600004FF40020FFF740FB63E0D048844209D14B
:1016100001210805FFF738FB00214FF48010FFF788
:1016200033FB56E0CA48844209D101214805FFF73F
:101630002BFB00214FF40010FFF726FB49E0C548C3
:10164000844208D101214020FFF72BFB00214020DC
:10165000FFF727FB3DE0C048844208D101218020EC
:10166000FFF71FFB00218020FFF71BFB31E0BB4889
:10167000844208D101218015FFF713FB0021A0153A
:10168000FFF70FFB25E0B648844209D10121080489
:10169000FFF7FAFA00214FF48030FFF7F5FA18E06F
:1016A000B048844209D101214804FFF7EDFA002136
:1016B0004FF40030FFF7E8FA0BE0AB48844208D162
:1016C00001218804FFF7E0FA00214FF48020FFF7A2
:1016D000DBFA10BD00220288944B98420ED0994B41
:1016E00098420BD0B0F1804F08D0914B984205D072
:1016F000904B984202D0904B984204D14FF68F7392
:101700001A404B881A438D4B984207D08C4B984215
:1017100004D04FF6FF431A40CB881A4302808B88CF
:1017200083850B880385814B98420BD0854B98426B
:1017300008D08B4B984205D08A4B984202D08A4BF6
:10174000984201D10B7A038601238382704770B5DA
:10175000002400220023058C4FF6FE7635400584D8
:10176000028C8388048B4FF68F752C40B51E2C405D
:101770000D882C43751E2A400D892A434D882A4323
:101780006A4DA8420BD06F4DA84208D0744DA842B4
:1017900005D0744DA84202D0734DA84213D14FF624
:1017A000F7752A404D892A434FF6FB752A408D88EC
:1017B0002A434FF6FF652B404FF6FF552B408D898E
:1017C0002B43CD892B4383800483CD888586028477
:1017D00070BD70B5002400220023058C4FF6EF7613
:1017E00035400584028C8388048B48F6FF752C40B5
:1017F0004FF6FF452C400D884FF6FF7606EA05258B
:101800002C434FF6DF752A400D8906EA05152A4359
:101810004D8806EA05152A43444DA84202D0494D99
:10182000A8421DD14FF67F752A404D894FF6FF76AD
:1018300006EA05152A434FF6BF752A408D8806EA49
:1018400005152A434FF6FF352B404FF2FF752B400D
:101850008D8906EA85052B43CD8906EA85052B434C
:1018600083800483CD880587028470BD70B5002411
:1018700000220023058C4FF6FF6635400584028C5C
:101880008388848B4FF68F752C404FF6FC752C4067
:101890000D882C434FF6FF552A400D894FF6FF76F1
:1018A00006EA05252A434D8806EA05252A431F4DE9
:1018B000A84202D0234DA8421DD14FF2FF752A4005
:1018C0004D894FF6FF7606EA05252A434FF6FF3588
:1018D0002A408D8806EA05252A434EF6FF752B40DF
:1018E0004DF6FF752B408D8906EA05152B43CD89F2
:1018F00006EA05152B4383808483CD88858702847F
:1019000070BD70B5002200230024058C4EF6FF76D2
:1019100035400584038C8488828B48F6FF752A4005
:101920004FF6FF452A400D8820E00000002C0140C2
:101930000004004000080040000C0040001000407F
:101940000014004000340140004C014000500140B0
:101950000054014000180040001C004000200040DE
:101960000040014000440140004801404FF6FF762E
:1019700006EA05252A434DF6FF752B400D8906EA38
:1019800005352B434D8806EA05352B43FA4DA84211
:1019900002D0FA4DA84208D14BF6FF752C408D8934
:1019A0004FF6FF7606EA85152C4384808283CD8826
:1019B000A0F84050038470BD828B4FF2FF331A4071
:1019C0008283828B4FF6FF7303EA01231A438283DB
:1019D0007047F0B50C461546002200210026078C02
:1019E0004EF6FF7C07EA0C070784828B018C4FF6CA
:1019F000FF7707EA043640F6FF473A404FF6FF7795
:101A000007EA05273A434FF6FF7707EA03373A43D9
:101A1000D94FB8420ED0D94FB8420BD0B0F1804F59
:101A200008D0D74FB84205D0D64FB84202D0D64FD3
:101A3000B84206D14DF6FF77394046F48057394316
:101A400005E047F6FF57394044F480573943828315
:101A50000184F0BD828B4FF6F3731A408283828B30
:101A60000A4382837047F0B50C46154600220021D8
:101A70000026078C4FF6FF6C07EA0C070784828B61
:101A8000018C4FF6FF7707EA04264FF60C773A40B1
:101A90004FF6FF7707EA03172F433A43B64FB84292
:101AA0000ED0B64FB8420BD0B0F1804F08D0B44F33
:101AB000B84205D0B34FB84202D0B34FB84206D1B6
:101AC0004FF6FF57394046F48077394305E04FF22F
:101AD000FF57394044F48077394382830184F0BD55
:101AE000028B4FF2FF331A400283028B4FF6FF73D3
:101AF00003EA01231A4302837047F0B50C461546EA
:101B0000002200210026078C4FF6EF7C07EA0C0725
:101B10000784028B018C4FF6FF7707EA041640F624
:101B2000FF473A404FF6FF7707EA03373A434FF64D
:101B3000FF7707EA05273A438F4FB8420ED08F4F01
:101B4000B8420BD0B0F1804F08D08D4FB84205D0CD
:101B50008C4FB84202D08C4FB84206D14FF6DF7797
:101B6000394046F01007394305E04FF65F773940BA
:101B700044F01007394302830184F0BD028B4FF615
:101B8000F3731A400283028B0A4302837047F0B555
:101B90000C46154600220021068C4FF6FE773E408B
:101BA0000684028B018C4FF60C7632407E1C06EACE
:101BB00003162E433243704EB0420ED06F4EB042E9
:101BC0000BD0B0F1804F08D06D4EB04205D06D4EB5
:101BD000B04202D06C4EB04206D14FF6FD76314095
:101BE00044F00106314305E04FF6F576314044F00C
:101BF0000106314302830184F0BD70B505460C46F1
:101C00005D4885420ED05D4885420BD0B5F1804FCE
:101C100008D05B48854205D05A48854202D05A48D0
:101C2000854200D100E000BF208850B92389A288F6
:101C300061882846FFF7ABFFE1882846FFF79EFF43
:101C400025E0208804280AD12389A28861882846B3
:101C5000FFF753FFE1882846FFF742FF17E020888F
:101C600008280AD12389A28861882846FFF7FBFE4D
:101C7000E1882846FFF7EEFE09E02389A288618803
:101C80002846FFF7A6FEE1882846FFF795FE70BDBF
:101C90002DE9F04105460C4600260127608808B969
:101CA000022600E00026A088012801D1022700E0DA
:101CB00001272088A0B92389A28861882846FFF7D8
:101CC00066FFE1882846FFF759FF23893A463146E7
:101CD0002846FFF712FFE1882846FFF701FF13E0CF
:101CE0002389A28861882846FFF707FFE1882846F4
:101CF000FFF7F6FE23893A4631462846FFF747FFAD
:101D0000E1882846FFF73AFFBDE8F0810A884B8852
:101D10001A438B881A43CB881A430B891A434B8981
:101D20001A438B891A43A0F8442070474FF6FF717D
:101D3000818000210180C1804180017270470021B3
:101D4000018041808180C180018141818181C18187
:101D50007047002101804180012181800021C180E4
:101D6000018170470021018041808180C180018113
:101D70004181818170470000002C01400034014006
:101D80000004004000080040000C004021B102881F
:101D900042F00102028004E002884FF6FE731A400E
:101DA0000280704731B1B0F8442042F40042A0F8FC
:101DB000442005E0B0F84420C2F30E02A0F844200D
:101DC00070471AB183890B43838102E083898B4377
:101DD000838170478182704741EA0203A0F848304E
:101DE00070471AB183890B43838102E083898B4357
:101DF0008381704701894FF6F87211400181704765
:101E00000A46002101894FF68F7319401143018161
:101E1000704730B504460D4629462046FFF7F0FFCF
:101E2000208940F00700208130BD2DE9F0410446B3
:101E30000D4616461F46602D06D13B46012231460F
:101E40002046FFF75AFE05E03B4601223146204678
:101E5000FFF79DFE29462046FFF7D2FF208940F07C
:101E600007002081BDE8F08130B50C4600210189D2
:101E7000C9B24FF6FF7505EA0325154325432943EB
:101E8000018130BD2DE9F04105460E4617469846C2
:101E9000002443463A4631462846FFF7E5FF2C89A1
:101EA0004FF6F870044044F007044FF68F7004407A
:101EB00044F070042C81BDE8F081F0B504460D4675
:101EC00016461F463B46324629462046FFF7CCFFC2
:101ED000208940F480402081F0BD018582827047D6
:101EE0000A46002101884FF68F7319401143018083
:101EF0007047F0B50C4615461E460021002200230F
:101F00000189028B038C4FF6F877394021434FF655
:101F1000FC473A4040F201173A434FF6DD773B4029
:101F20004FF6FF7707EA06172F433B4301810283F1
:101F30000384F0BD0A460021018B4FF68F731940D0
:101F40001143018370470A460021018B48F6FF7355
:101F500019404FF6FF7303EA0223194301837047C8
:101F60000A460021818B4FF68F73194011438183FC
:101F700070470A460021818B48F6FF7319404FF6DF
:101F8000FF7303EA022319438183704721B102885A
:101F900042F08002028004E002884FF67F731A400C
:101FA0000280704721B1828842F00402828004E0FE
:101FB00082884FF6FB731A408280704721B1828875
:101FC00042F00802828004E082884FF6F7731A40DC
:101FD0008280704721B1828842F00102828004E051
:101FE00082884FF6FE731A40828070470A460021AD
:101FF000018B4FF6F77319401143018370470A466E
:102000000021018B4FF2FF7319404FF6FF7303EA73
:1020100002231943018370470A460021818B4FF642
:10202000F77319401143818370470A460021818B61
:102030004FF2FF7319404FF6FF7303EA022319436F
:10204000818370470A460021018B4FF6FB731940CC
:102050001143018370470A460021018B4FF6FF337D
:1020600019404FF6FF7303EA0223194301837047B7
:102070000A460021818B4FF6FB731940114381837F
:1020800070470A460021818B4FF6FF3319404FF607
:10209000FF7303EA02231943818370470A46002134
:1020A000018B4FF67F7319401143018370470A4635
:1020B0000021018BC1F30E014FF6FF7303EA0223E7
:1020C0001943018370470A460021818B4FF67F73C5
:1020D00019401143818370470A460021818BC1F367
:1020E0000E014FF6FF7303EA022319438183704701
:1020F0000A460021018C4FF6FD73194011430184FB
:1021000070470A460021018C4FF6F77319401143BE
:10211000018470470A460021018C4FF6DF73194095
:102120004FF6FF7303EA02131943018470470A460E
:102130000021018C4FF67F7319404FF6FF7303EABD
:1021400002131943018470470A460021018C4FF69F
:10215000FF5319404FF6FF7303EA0223194301842A
:1021600070470A460021018C4FF2FF7319404FF669
:10217000FF7303EA02231943018470470A460021D2
:10218000018C4DF6FF7319404FF6FF7303EA0233DB
:1021900019430184704730B5002301248C40A3B259
:1021A000048C9C430484048C02FA01F5ADB22C43E8
:1021B000048430BD30B5002304248C40A3B2048CC9
:1021C0009C430484048C02FA01F5ADB22C430484D0
:1021D00030BD70B503460020002418461830012594
:1021E0008D40ACB21D8CA5431D8409B1082909D1CD
:1021F00000EB6100056825F0700505600568154372
:1022000005600EE00D1FC5F34E052844056825F452
:10221000E045056005684FF6FF7606EA022635437D
:10222000056070BD21B1028842F00202028004E024
:1022300002884FF6FD731A400280704721B1028870
:1022400042F00402028004E002884FF6FB731A4059
:102250000280704721B1828842F08002828004E0CF
:1022600082884FF67F731A408280704702884FF64B
:10227000F7731A40028002880A43028070478288FE
:102280004FF68F731A40828082880A43828070479B
:1022900002894FF6F8731A40028102890A430281CB
:1022A000704702894FF67F731A40028102890A4300
:1022B00002817047818470478185704781867047AD
:1022C0000187704781877047A0F8401070470288E7
:1022D0004FF6FF431A40028002880A43028070478B
:1022E0000146888E70470146088F70470146888FE7
:1022F00070470146B1F8400070470146888C70472E
:102300000146088D704702460020138A0B400BB12E
:10231000012000E000207047CA430282704730B5B8
:102320000246002000230024158A05EA010395894E
:1023300005EA010413B10CB1012000E0002030BD1A
:10234000CA4302827047000010B50446BE4884426A
:1023500008D101218014FEF797FC0021A014FEF79C
:1023600093FC16E0B948844208D101210014FEF71D
:1023700098FC00212014FEF794FC0AE0B448844243
:1023800007D10121C013FEF78CFC0021E013FEF7FA
:1023900088FC10BD10B50022028802F441520B885F
:1023A0004C8823438C882343CC8823430C892343C4
:1023B0004C8923438C892343CC8923431A430280CD
:1023C000838B4FF2FF74234083830B8A038210BDFB
:1023D0002DE9F04F85B005460C464FF00009022765
:1023E0004FF000084FF0010B0026B246A88B4FF2C9
:1023F00040010840A88302202884B5F81C90A068FA
:10240000022801D100BF38E0A08810B94FF0010BBD
:1024100001E04FF0020B8D48854200D100E000BF83
:102420006846FEF7AAFBDDF800A0E088B0F5007F63
:102430000AD14FEA1A2000EB80004000A168B0FBEF
:10244000F1F0401D86B20BE04FEA4B10BAFBF0F002
:1024500000EB80004000A168B0FBF1F0401D86B2A7
:102460000A20B6FBF0F606F00108A6EB0800C0F360
:102470004F074FF6FF7000EA0828022F01DBFF2FFD
:1024800002DD02274FF00008E08840EA08003843E8
:102490002884A088A18908436188084321880843CB
:1024A00040F4006040EA0909A5F81C9005B0BDE8B9
:1024B000F08F0021018041808180C18001814181B4
:1024C0008181C18107210182704700210180418003
:1024D0008180C1800221816000218181704721B10A
:1024E000028842F04002028004E002884FF6BF7387
:1024F0001A400280704721B1828B42F4806282834D
:1025000004E0828B4FF6FF331A408283704730B568
:10251000002400230C110125A540ABB21AB1858817
:102520001D43858002E085889D43858030BD1AB1BA
:1025300083880B43838002E083888B4383807047CA
:10254000818170470146888970474FF6FF6291424A
:1025500004D0028842F48072028004E002884FF6C0
:10256000FF631A400280704721B1828842F0040262
:10257000828004E082884FF6FB731A4082807047A5
:1025800002884FF2FF731A40028002880A430280D9
:102590007047018841F480510180704721B1028861
:1025A00042F40052028004E002884DF6FF731A40A4
:1025B0000280704702460020012901D0108B00E004
:1025C000908A70470146088A7047B1F5804F04D160
:1025D000028842F48042028004E002884BF6FF73D6
:1025E0001A40028070470246002013890B400BB14D
:1025F000012000E000207047CA4302817047F0B517
:102600000246002000240023002501F00F070126C8
:10261000BE40B4B20B1101269E40B3B2968806EAC2
:1026200003051689264016B10DB1012000E00020F7
:10263000F0BD10B5002201F00F040123A3409AB2AF
:10264000D343038110BD000000300140003800403A
:10265000003C004010B50446FA48844208D10121EC
:102660004015FEF711FB00216015FEF70DFB17E08A
:10267000F548844208D101210015FEF705FB002131
:102680002015FEF701FB0BE0F048844208D1012140
:10269000C803FEF7F9FA00214FF40040FEF7F4FA00
:1026A00010BD30B50246002000235068E84C2040A1
:1026B0000D790C6844EA0524204350609068E54C8D
:1026C0002040D1E902542C434D7944EA450420438B
:1026D0009060D06A20F470000C7C641EE4B2234346
:1026E00040EA0350D06230BD0021016001714171A8
:1026F0008160C16001210174704721B1826842F09C
:102700000102826003E0826822F001028260704769
:1027100021B1826842F48072826003E0826822F410
:1027200080728260704710B50023CBB21AB1446842
:102730001C43446002E044689C43446010BD8168CF
:1027400041F0080181607047014600208A6802F06C
:1027500008020AB1012000E000207047816841F0C2
:10276000040181607047014600208A6802F004027B
:102770000AB1012000E00020704721B1826842F4D4
:10278000A002826003E0826822F4A00282607047A7
:10279000014600208A6802F480020AB1012000E0AC
:1027A0000020704710B50A4600210023416821F43B
:1027B0006041531E41EA4331416010BD21B142687E
:1027C00042F40062426003E0426822F40062426028
:1027D0007047F0B504460D4600200021092D11DD9B
:1027E000E068A5F10A0606EB4607072606FA07F198
:1027F0008843A5F10A0606EB460603FA06F10843EC
:10280000E0600CE0206905EB4507072606FA07F1B2
:10281000884305EB450603FA06F108432061072AC1
:102820000FDA606B561E06EB86071F2606FA07F1C5
:102830008843561E06EB860605FA06F108436063D8
:1028400022E00D2A0FDA206BD61F06EB86071F2623
:1028500006FA07F18843D61F06EB860605FA06F14D
:102860000843206310E0E06AA2F10D0606EB86073C
:102870001F2606FA07F18843A2F10D0606EB86062D
:1028800005FA06F10843E062F0BD21B1826842F426
:102890008012826003E0826822F4801282607047B6
:1028A0000146C86C80B2704766484C30006870477B
:1028B00021B1426842F48062426003E0426822F43F
:1028C00080624260704721B1426842F480524260A7
:1028D00003E0426822F48052426070470A460021B9
:1028E000816821F4E04111438160704721B1826821
:1028F00042F40042826003E0826822F40042826077
:10290000704721B1826842F40212826003E082685B
:1029100022F4021282607047014600208A6802F4A5
:1029200000120AB1012000E000207047F0B5044613
:102930001546002000220026092911DDE068A1F1DA
:102940000A0707EB470C072707FA0CF29043A1F19F
:102950000A0707EB470703FA07F21043E0600CE0B1
:10296000206901EB410C072707FA0CF2904301EBB9
:10297000410703FA07F210432061A06BC0F3015630
:10298000EF1C06F1010CA7EB0C0707EB870C1F27C8
:1029900007FA0CF29043EF1C06F1010CA7EB0C07B1
:1029A00007EB870701FA07F21043A063F0BD10B5EB
:1029B0000A4600210023816B21F44011531E41EA95
:1029C0000351816310BD08B5002300930090009B64
:1029D0000B440093009B1A6008BD08B50246002016
:1029E0000090009201F12800009B1844009000988C
:1029F000006880B208BD0A4600214168164B1940A4
:102A00001143416070474162826270470A4600216B
:102A1000416821F01F0111434160704740B10949ED
:102A20000831096841F40001064A0832116007E0E4
:102A300004490831096821F40001024A0832116092
:102A4000704700000024014000280140003C014084
:102A5000FFFEF0FFFDF7F1FFFFFD3FFF0246002004
:102A600013680B400BB1012000E000207047CA43FF
:102A70000260704770B502460020002300240B124C
:102A80005568CEB205EA060415681D4015B10CB1B3
:102A9000012000E0002070BD00220A12D343036031
:102AA0007047000001684FF6FE721140016000217E
:102AB000016041608160C1608D49884208D18C49C4
:102AC0000839496841F00F01894A083A51608AE0A3
:102AD00087491431884208D185490839496841F04D
:102AE000F001834A083A51607DE0814928318842EB
:102AF00008D17F490839496841F470617C4A083A35
:102B0000516070E07A493C31884208D178490839EF
:102B1000496841F47041764A083A516063E074496B
:102B20005031884208D172490839496841F470210E
:102B30006F4A083A516056E06D496431884208D1C5
:102B40006B490839496841F47001694A083A516093
:102B500049E067497831884208D1654908394968B0
:102B600041F07061624A083A51603CE06149884234
:102B700006D1011F096841F00F01021F116032E008
:102B80005C491431884208D15A49091F096841F04B
:102B9000F001584A121F116025E056492831884239
:102BA00008D15449091F096841F47061514A121F44
:102BB000116018E04F493C31884208D14D49091F46
:102BC000096841F470414B4A121F11600BE04949FA
:102BD0005031884207D14749091F096841F47021E3
:102BE000444A121F1160704710B50022026847F670
:102BF000F0739A430C6A8B6823430C6923434C6936
:102C000023438C692343CC6923434C6A23438C6A56
:102C100023431A430260CB6843600B6883604B68B0
:102C2000C36010BD0021016041608160C16001612D
:102C300041618161C161016241628162704721B17C
:102C4000026842F00102026004E002684FF6FE737F
:102C50001A40026070471AB103680B43036002E038
:102C600003688B43036070474160704701464868C2
:102C700080B2704701460020002201F080531BB152
:102C80001C4B083B1A6802E0194B083B1A6802EA21
:102C900001030BB1012000E00020704700F08051DB
:102CA00019B11449091F086002E011490839486048
:102CB000704701460020002201F080531BB10D4BEC
:102CC000083B1A6802E00A4B083B1A6802EA010353
:102CD0000BB1012000E00020704700F0805119B1D5
:102CE0000449091F086002E001490839486070473B
:102CF00008000240080402400CB50020019000903A
:102D00006C48006840F480306A49086000BF694838
:102D1000006800F4003000900198401C0190009879
:102D200018B90198B0F5A06FF1D16248006800F4BD
:102D3000003010B10120009001E0002000900098C8
:102D4000012843D15C48006840F010005A490860EF
:102D50000846006820F0030008600846006840F05C
:102D6000020008605348406852494860084640687D
:102D700048600846406840F4806048600846406803
:102D800020F47C1048600846406840F4F810486021
:102D90000846006840F08070086000BF4548006841
:102DA00000F000700028F9D04248406820F003008D
:102DB000404948600846406840F00200486000BF53
:102DC0003C48406800F00C000828F9D10CBD10B553
:102DD000FFF792FF10BD10B53648006840F00100C3
:102DE0003449086008464068344908403149486021
:102DF00008460068324908402E49086008460068C5
:102E000020F4802008600846406820F4FE004860F6
:102E10004FF41F008860FFF7DAFF4FF00060294988
:102E2000086010BD10B5002100200022214B5B6816
:102E300003F00C0121B1042906D0082928D107E0AC
:102E4000214B224C236027E0214B204C236023E0C0
:102E5000184B5B6803F47010164B5B6803F4803208
:102E6000022303EB904022B91A4B4343174C2360D3
:102E70000DE0104B5B6803F4003323B1124B434366
:102E8000124C236003E0124B4343104C236003E0D9
:102E90000D4B0E4C236000BF00BF064B5B68C3F3B5
:102EA00003130D4CE15C094B1B68CB40074C2360BE
:102EB00010BD000000100240002002400000FFF89A
:102EC000FFFFF6FE08ED00E000127A003C00002053
:102ED0000024F40000093D00400000204FF0E020F5
:102EE000006920F004004FF0E02108610920234927
:102EF00008700846007800EB4001C1EBC0104FF6A7
:102F0000FF7101EAC0001E490880704701461C4A53
:102F100012884A434FF0E0235A6100229A6101224D
:102F20001A6100BF4FF0E022106900F001021AB1EF
:102F300000F48032002AF5D000224FF0E0231A611D
:102F40009A61704701460D4A12784A434FF0E023D8
:102F50005A6100229A6101221A6100BF4FF0E022FB
:102F6000106900F001021AB100F48032002AF5D095
:102F700000224FF0E0231A619A6170475000002050
:102F80005200002010B5FDF7F7FC4FF48030FDF73C
:102F900013FDFDF750FD012830D10020FDF791FD14
:102FA0000020FDF7A0FD4FF48060FDF793FD14486D
:102FB000006840F01000124908600846006820F0E0
:102FC000030008600846006840F0020008604FF403
:102FD000E0114FF44030FDF757FD0120FDF760FD93
:102FE00000BF3920FDF70BFD0028FAD00220FDF7C5
:102FF0005AFD00BFFDF760FD0828FBD110BD0000A1
:1030000000200240002109E0002201E0531C9AB296
:1030100042F234139A42F9DB4B1C99B28142F3DB42
:10302000704708B501210820FDF714FE012110208A
:10303000FDF710FE01210846FDF70CFE01212A488C
:10304000FDF71DFC01212948FDF719FC0820ADF80A
:10305000000003208DF8020010208DF8030069465F
:103060002348FDF73BFB4FF40050ADF80000032070
:103070008DF8020010208DF8030069461D48FDF709
:103080002DFB08BD70B505460C460DE0082118481B
:10309000FDF7D3FBA0B2FFF7B5FF08211448FDF7F9
:1030A000CAFBA0B2FFF7AEFF2800A5F10101CDB227
:1030B000ECD170BD70B505460C460FE04FF40051E1
:1030C0000C48FDF7B8FBA0B2FFF79CFF4FF400518E
:1030D0000848FDF7B2FBA0B2FFF794FF2800A5F166
:1030E0000101CDB2EAD170BD000430000002300011
:1030F000000C01400010014008B54FF4A060FDF73E
:103100001FFA1D208DF8000000208DF8010001201D
:103110008DF802008DF803006846FDF716FA2520A9
:103120008DF8000003208DF8010001208DF80200C9
:103130008DF803006846FDF708FA08BD10B586B0A3
:103140000446012144F20400FDF784FD4FF40070B1
:10315000ADF8140018208DF8170003208DF8160024
:1031600005A93448FDF7BAFA4FF48060ADF81400B1
:1031700004208DF8170005A92E48FDF7AFFA019439
:103180000020ADF80800ADF80A00ADF80C00ADF86D
:1031900010000C20ADF80E0001A92748FDF703FE32
:1031A000012240F225512448FDF795FE01212248D5
:1031B000FDF785FE06B010BD70B504460D46E1B2C0
:1031C0001D48FDF7E9FE00BF40211B48FDF752FFF7
:1031D0000028F9D0204670BD10B5044600BF20215C
:1031E0001548FDF747FF0028F9D01348FDF7D8FE32
:1031F00010BD10B540F225510F48FDF751FF90B1B9
:103200000D48FDF7CDFE0D490D4A126888540C4853
:103210000068401C0A490860084600681F2802D15F
:1032200001200849086040F225510348FDF762FF7C
:1032300010BD00000008014000380140800100205E
:1032400054000020580000200EB501210620FDF793
:103250000EFD6846FEF76AFD4FF6FF70ADF80400FC
:103260000020ADF80000ADF80600ADF80200694698
:10327000FE48FEF72FFA00221146FC48FEF72DFE0D
:103280000121FA48FEF7CEFF2021F848FEF7B8FDED
:103290000721F648FEF7FCFF8021F448FFF701F80C
:1032A0000121F248FEF772FE4FF6FF70ADF8040000
:1032B0004820ADF800000020ADF80600ADF802008F
:1032C0006946EB48FEF706FA0121E948FEF75EFE83
:1032D0000421E748FEF7DCFF0121E548FEF7AEFFD9
:1032E0002021E348FEF7CBFF8021E148FEF7D9FF1C
:1032F0000121DF48FEF74AFD0121DC48FEF746FDCB
:103300000EBD0020D949243108880004D849243151
:103310000988084470470FB59FB0D6480168006817
:1033200004F0FCFF1690D4480168D248006804F00D
:10333000F5FF1590D1480168CE48006804F0EEFF13
:103340001490CD480168006804F0E8FF1390CC4861
:103350000168C948006804F0E1FF1290C74801689D
:10336000006804F0DBFF1190C5480168C34800689D
:1033700004F0D4FF1090C2480168006804F0CEFF4A
:103380000F9000200E902499229804F0C7FF0C9013
:10339000259904F0C3FF00210D9004F003FF01D133
:1033A00023B000BD21980E90B6491F9804F0B6FFD7
:1033B0001F90B449209804F0B1FF2090B1492198A2
:1033C00004F0ACFF21902599084604F0A7FF08906F
:1033D0002499084604F0A2FF06902299084604F0BA
:1033E0009DFF0590069904F0ADFD0790089904F043
:1033F000A9FD099004F07AFDCDE90A0103F07AFFF6
:10340000CDE90C0103F09CFF1D901D99229804F05A
:1034100007FE22901D99249804F002FE24901D9925
:10342000259804F0FDFD25901499129805F07EF87A
:103430004FF080410D9004F071FF1C901099159889
:1034400004F080FD4FF080410D9004F067FF1B9069
:103450001399169805F06AF80C90119905F066F822
:103460000D900F9904F06EFD1A901B99259804F0A9
:1034700055FF0D901A99249804F050FF0C900D9967
:1034800005F054F819901A99229804F047FF0D900E
:103490001C99259804F042FF0C900D9905F046F810
:1034A00018901C99249804F039FF0D901B992298CC
:1034B00004F034FF0C900D9905F038F8179072491C
:1034C000199804F02BFF0D90704801680D9804F0D6
:1034D00039FD6E4908606C49189804F01FFF0D9083
:1034E0006B4801680D9804F02DFD69490860664934
:1034F000179804F013FF0D90664801680D9804F0CA
:1035000021FD644908606448199904F007FF0C9094
:103510001F9904F017FD0D905C4801680D9804F0A8
:1035200011FD1F905C48189904F0F8FE0C9020994A
:1035300004F008FD0D90564801680D9804F002FD56
:1035400020905548179904F0E9FE0C90219904F059
:10355000F9FC0D904F4801680D9804F0F3FC2190A0
:1035600047482199006804F0D9FE0B904348209900
:10357000006804F0D3FE09903F48006880F00040E6
:1035800007901F9904F0CAFE0890099904F0CEFF35
:103590000A900B9904F0CAFF0C90404801680C98FF
:1035A00004F0BCFE0D90334801680D9804F0CAFC8D
:1035B0003049086032482099006804F0AFFE0B9053
:1035C0002E482199006804F0A9FE09902948016855
:1035D0001F9804F0A3FE0890099904F0B3FC0A9028
:1035E0000B9904F0A3FF0C902C4801680C9804F090
:1035F00095FE0D90204801680D9804F0A3FC1E492B
:1036000008601F4801681F9804F088FE0B901A4854
:103610002199006804F082FE0990164820990068FC
:1036200004F07CFE0890099904F080FF0A900B9941
:1036300004F088FC0C90194801680C9804F06EFEA8
:103640000D900E4801680D9804F07CFC0B49086051
:10365000084601681F9804F061FE0B900648209907
:10366000006804F05BFE0990024819E00008004081
:103670000004004064000020680000206C0000206E
:103680007000002089A18B3A6F12833A74000020E9
:10369000780000207C000020CDCCCC3F80000020B2
:1036A0002199006804F03AFE0890099904F04AFC58
:1036B0000A900B9904F03AFF0C90A24801680C980C
:1036C00004F02CFE0D90A04801680D9804F03AFC1F
:1036D0009D49086008460168006804F01FFE0890D4
:1036E0009A480168006804F019FE0690984801683D
:1036F000006804F013FE049096480168006804F026
:103700000DFE0390049904F01DFC0590069904F049
:1037100019FC0790089904F015FC099004F0E6FBE9
:10372000CDE90A0103F0E6FDCDE90C0103F008FE46
:103730001D9088481D99006804F072FC8549086056
:1037400083481D99006804F06BFC814908607F483C
:103750001D99006804F064FC7C4908607A481D9952
:10376000006804F05DFC784908607B490E9804F01D
:10377000A1FD06D279490E9804F09CFE01D20020EA
:103780000E9077490E9804F0C9FD059004F0AEFB49
:10379000744A754BCDE9060104F098F8CDE90A01A9
:1037A00072480068079004F0A1FBCDE90801DDE94B
:1037B0000A2303F0F7FDCDE90C0103F0C1FD6B49CD
:1037C0000860644801684FF0804004F0A7FD049051
:1037D0005E480168049804F0A1FD06905C48016809
:1037E0004FF0404004F09AFD049057480168049857
:1037F00004F094FD0590069904F0A4FB079004F0F2
:1038000075FBCDE9080103F06DFA4FF06632584BB5
:10381000CDE90A0104F05AF8CDE90C0103F090FD5E
:1038200052494860494801684FF0804004F076FDF5
:10383000019046480168019804F070FD03904448E7
:1038400001684FF0404004F069FD01904048016874
:10385000019804F063FD0290039904F067FE4FF0B5
:103860007E51049004F06EFB059004F03FFBCDE91F
:103870000801384801684FF0804004F04FFD029085
:1038800033480168029804F049FD04902F4801680C
:103890004FF0804004F042FD02902B4801680298EE
:1038A00004F03CFD0390049904F04CFB059004F0F7
:1038B0001DFBCDE90601DDE9082303F05BFC4FF0B9
:1038C00066322B4BCDE90A0104F000F8CDE90C017A
:1038D00003F036FD25498860084600680D902548AC
:1038E00001680D9804F022FE269988601F48406800
:1038F0000D90214801680D9804F018FE2699486043
:103900001A4880680D901D4801680D9804F00EFE5D
:103910002699086000211A48006804F043FC0ED084
:10392000124800681349086010484068124908604E
:103930000E4880681149086000201149086000BFE6
:103940002EE5000080000020700000206C000020A8
:1039500068000020640000200000A0400000A0C01B
:10396000F1FF793DFCA9F1D24D62603FA00100203A
:1039700066A64C40980000209C000020A00000207B
:1039800018000020002109E0002201E0531C9AB237
:1039900042F234139A42F9DB4B1C99B28142F3DBB9
:1039A0007047FE48407AFD49097A40EA0120FC4907
:1039B0000988401A00B2FB490880F848C07AF749E4
:1039C000897A40EA0120F8490988401A00B2F7498B
:1039D0000880F248407BF149097B40EA0120F44924
:1039E0000988401A00B2F3490880EC484078EB4956
:1039F000097840EA0120F0490988401A00B2EF49ED
:103A00000880E648C078E549897840EA0120EC4919
:103A10000988401A00B2EB490880E0484079DF4944
:103A2000097940EA012000B2E7490880E348B0F98B
:103A30000000B0F5004F02DB47F6FF7002E0DF4800
:103A4000B0F90000DD4908800846B0F9000010F523
:103A5000004F01DADD4802E0D848B0F90000D7494C
:103A60000880D848B0F90000B0F5004F02DB47F6F7
:103A7000FF7002E0D348B0F90000D2490880084640
:103A8000B0F9000010F5004F01DAD04802E0CD484F
:103A9000B0F90000CB490880CB48B0F90000B0F580
:103AA000004F02DB47F6FF7002E0C748B0F90000A4
:103AB000C54908800846B0F9000010F5004F01DA4A
:103AC000C24802E0C048B0F90000BF490880B548CC
:103AD000B0F90000B0F5004F02DB47F6FF7002E0DE
:103AE000B048B0F90000AF4908800846B0F90000BE
:103AF00010F5004F01DAB54802E0AA48B0F900001D
:103B0000A8490880A948B0F90000B0F5004F02DBD1
:103B100047F6FF7002E0A548B0F90000A34908800D
:103B20000846B0F9000010F5004F01DAA74802E09E
:103B30009E48B0F900009D4908809E48B0F90000F9
:103B4000B0F5004F02DB47F6FF7002E09948B0F98C
:103B50000000984908800846B0F9000010F5004FB1
:103B600001DA9A4802E09348B0F9000091490880D0
:103B700097480068002856D19648007880B9002000
:103B800087490880884908808949088092490860E7
:103B9000924908609249086001208E490870704778
:103BA0008D4800687F49B1F9001008448A490860CF
:103BB0008A4800687D49B1F90010084487490860C7
:103BC000874800687B49B1F90010084484490860BF
:103BD00080480078C82821D17F4800687D4909784D
:103BE00090FBF1F000B26E4908807C48006879498A
:103BF000097890FBF1F000B26B49088078480068C2
:103C00007449097890FBF1F000B2694908800020FE
:103C10007049087001206E490860C0E76D4800785F
:103C2000401C6C4908706F48006800284ED16E48EF
:103C3000007880B9002060490880614908806B499C
:103C400008806B4908606B4908606B490860012077
:103C500065490870A3E7664800685849B1F9001043
:103C6000084463490860634800685649B1F9001088
:103C70000844604908605C480078C82821D15C4845
:103C800000685949097890FBF1F000B24A49088070
:103C9000584800685449097890FBF1F000B248494F
:103CA0000880554800685049097890FBF1F000B24F
:103CB0004E49088000204C4908700120494908609D
:103CC0006DE749480078401C4749087000BF66E727
:103CD0002DE9FF4F81B00E4617461D464FF00008F4
:103CE000C146C246019804F0CDFA4449444A1278CC
:103CF00041F82200304604F0C5FA4249404A1278A1
:103D000041F82200384604F0BDFA3F493C4A127897
:103D100041F8220000242BE0404604F0B3FA009062
:103D2000364850F82410009804F00CF9834604F04B
:103D30006DFA8046484604F0A5FA0090314850F8E4
:103D40002410009804F0FEF8834604F05FFA8146E0
:103D5000504604F097FA00902B4850F82410009831
:103D600004F0F0F8834604F051FA8246601CC4B2B5
:103D7000142CD1DB142098FBF0F000B22880142022
:103D800099FBF0F000B2688014209AFBF0F000B2CA
:103D9000A8801B480078401C194937E0AC0100207E
:103DA000B0000020A4000020B2000020A6000020E7
:103DB000B4000020A8000020B6000020AA000020C7
:103DC000B8000020AC000020AE0000200080FFFF03
:103DD000C0000020D8000020CC000020D00000202F
:103DE000D4000020C4000020E8000020BA00002019
:103DF000DC000020E0000020E4000020C8010020DA
:103E0000E90000201802002068020020087008461F
:103E10000078142801D10020087005B0BDE8F08FAB
:103E200010B56D4B0E223B21D02002F089FB10BD56
:103E3000F8B506460F4614461D466B460122394624
:103E4000304602F0BCFB2DB10120A0409DF80010CF
:103E5000084305E00120A0409DF8001021EA000081
:103E6000C0B200906B4601223946304602F028FC71
:103E7000F8BD2DE9F8430746884614461D46089EBE
:103E80006B4601224146384602F099FB601CFF2137
:103E900001FA00F0C4F108012944491EFF220A4139
:103EA000104300F0FF09C5F1080006FA00F0C6B2A1
:103EB000C4F1070006419DF8000000EA09000090E7
:103EC0009DF80000304300906B4601224146384681
:103ED00002F0F6FBBDE8F88338B50446032302225E
:103EE0006B21D0200094FFF7C4FF38BD38B50446DD
:103EF000022304221B21D0200094FFF7BAFF38BD13
:103F000038B50446022304221C21D0200094FFF778
:103F1000B0FF38BD10B50446234606226B21D020E1
:103F2000FFF786FF10BD10B50446234605226A211F
:103F3000D020FFF77DFF10BD10B5044623460122B7
:103F40003721D020FFF774FF10BD38B50446032396
:103F500002221A21D0200094FFF78BFF38BD38B51C
:103F60000446082307221921D0200094FFF781FF7F
:103F700038BD10B50020FFF7CDFFC820FFF702FDC8
:103F80000120FFF7A9FF3220FFF7FCFC0320FFF719
:103F9000ADFF3220FFF7F6FC0120FFF7B1FF322022
:103FA000FFF7F0FC0020FFF7DAFF3220FFF7EAFC12
:103FB0000720FFF7CAFF3220FFF7E4FC0020FFF7DD
:103FC000B2FF3220FFF7DEFC0120FFF7B5FF322001
:103FD000FFF7D8FC10BD0000AC0100203EB505463F
:103FE0000C4601210846FCF742FEADF80450ADF83E
:103FF00000400020ADF80600ADF8020069464FF021
:104000008040FDF767FB01218807FDF7BFFE3EBD3D
:1040100008B501210420FCF71DFE0120ADF80000C9
:1040200018208DF8030003208DF8020069466248CD
:10403000FCF754FB08BD1FB56020ADF8000001205F
:10404000ADF802000020ADF8080069464FF080404E
:10405000FDF77DFB0821C806FDF7C8FF0121880791
:10406000FDF794FE1FBD08B501210420FCF7F2FD09
:104070000220ADF8000018208DF8030003208DF811
:10408000020069464C48FCF729FB08BD1FB56020BB
:10409000ADF800000120ADF802000020ADF80800E6
:1040A00069464FF08040FDF794FB0821C806FDF7F4
:1040B000A6FF01218807FDF769FE1FBD08B5012194
:1040C0000420FCF7C7FD0420ADF8000018208DF88F
:1040D000030003208DF8020069463748FCF7FEFA1A
:1040E00008BD1FB56020ADF800000120ADF802004A
:1040F0000020ADF8080069464FF08040FDF7B6FBA0
:104100000821C806FDF788FF01218807FDF73EFE5C
:104110001FBD08B501210420FCF79CFD0820ADF867
:10412000000018208DF8030003208DF80200694676
:104130002148FCF7D3FA08BD1FB56020ADF8000098
:104140000120ADF802000020ADF8080069464FF0EC
:104150008040FDF7D6FB0821C806FDF766FF012168
:104160008807FDF713FE1FBD10B5FFF7A7FFFFF788
:104170004FFFFFF778FFFFF7CCFF10BD10B5FFF73B
:10418000B0FFFFF758FFFFF781FFFFF7D5FF0021D2
:104190004FF08040FEF792F800214FF08040FEF78C
:1041A0008FF800214FF08040FEF78CF800214FF08F
:1041B0008040FEF789F810BD0008014000B587B0C7
:1041C00001210C20FCF746FD1020ADF8180003205B
:1041D0008DF81A0010208DF81B0006A9F148FCF795
:1041E0007DFA0420ADF8180006A9EF48FCF776FA2E
:1041F0000120ADF8180028208DF81B0006A9EA4818
:10420000FCF76CFA0521E848FCF717FB1021E5489C
:10421000FCF713FB00F003FA0021E448FEF75FF916
:104220000020ADF804004FF48270ADF806000020C5
:10423000ADF80800ADF80A00ADF80C004FF40070BE
:10424000ADF80E001820ADF810000020ADF81200F7
:104250000720ADF8140001A9D448FEF79BF801210E
:10426000D248FEF73CF90020D14908600120D1492D
:10427000C1F8900107B000BD2DE9F04107460D4699
:1042800016460020CC490860384600F0A1F9804667
:10429000002405E0FF2000F09BF92855601CC4B203
:1042A000B442F7DB0120C44908604046BDE8F08114
:1042B0002DE9F04107460C4615460020BE4908602E
:1042C000384600F085F98046002605E014F8010B19
:1042D00000F07EF9701CC6B2AE42F7DB0120B64991
:1042E00008604046BDE8F0811CB5B4A103C9CDE922
:1042F0000001082000F0D7F9052269463020FFF7B9
:10430000D7FF052269461020FFF7B6FF002406E01C
:104310001DF80400A52800D003E0601CC4B2052CE1
:10432000F6DB00BF052C01D001201CBD0020FCE7FE
:1043300070B505460C4600209F490860284600F0ED
:1043400047F90646204600F043F901209949C1F893
:104350009001304670BD70B5044600209649086053
:10436000204600F035F9FF2000F032F90546012023
:104370009049C1F89001284670BD70B505460E46BB
:10438000102000F090F90020894908603246294643
:10439000A020FFF78DFF01208A49C1F8880107207E
:1043A000FFF7D9FF044621462720FFF7C1FF04F09D
:1043B000100028B1FF21E120FFF7BAFF102070BDE7
:1043C00004F0200008B12020F9E7FF20F7E770B5DE
:1043D0000446102000F067F90720FFF7BCFF0546F0
:1043E00029462720FFF7A4FF05F0400050B1202206
:1043F00021466120FFF740FFFF21E220FFF798FFF1
:10440000002070BD0120FCE710B50020684908605D
:1044100005226D492A20FFF74BFF01212120FFF7DC
:1044200087FF01212220FFF783FF28212520FFF7A6
:104430007FFF20213120FFF77BFF0F212620FFF790
:1044400077FF0F212020FFF773FF01205D49C1F89E
:10445000880110BD10B500205549086005225B4950
:104460003020FFF725FF052257492A20FFF720FFBC
:1044700001212120FFF75CFF01212220FFF758FFD7
:104480001A212420FFF754FF28212520FFF750FF91
:104490000F212620FFF74CFF0E212020FFF748FFB9
:1044A00001204849C1F8880110BD10B5044600201C
:1044B0003F490860052244492A20FFF7F9FE0121FF
:1044C0002120FFF735FF01212220FFF731FF2821AE
:1044D0002520FFF72DFF0F212620FFF729FF012CB4
:1044E00007D120213120FFF723FF0F212020FFF7E4
:1044F0001FFF022C0CD1052234493020FFF7D8FED3
:104500001A212420FFF714FF0E212020FFF710FFAF
:10451000032C1DD120213120FFF70AFFFF21E120CC
:10452000FFF706FFFF21E220FFF702FF0F21202007
:10453000FFF7FEFE502000F04BF8732000F048F823
:1045400001213C20FFF7F4FE07213D20FFF7F0FE9C
:10455000042C22D105221D493020FFF7A9FE1A2183
:104560002420FFF7E5FE0E212020FFF7E1FEFF21CA
:10457000E120FFF7DDFEFF21E220FFF7D9FE50200A
:1045800000F026F8732000F023F801213C20FFF70B
:10459000CFFE07213D20FFF7CBFE01200449086034
:1045A00010BD000000080140000C01400030014037
:1045B000888121420000214290012142A5A5A5A5A4
:1045C000A5000000008021420B8700080687000834
:1045D00070B50546002405E0601CC4B2C82C01DD9E
:1045E000002070BD02213948FDF7FDFF0028F3D0FF
:1045F00029463648FDF7A4FF002405E0601CC4B23C
:10460000C82C01DD0020ECE701213048FDF7EBFF6D
:104610000028F3D02D48FDF795FFC0B2E1E700B5C3
:1046200087B001210420FCF715FB01210803FCF7EA
:1046300011FBE020ADF8180018208DF81B000320B6
:104640008DF81A0006A92248FCF748F8E021204816
:10465000FCF7F1F80020ADF804004FF48270ADF8DB
:1046600006000020ADF808000220ADF80A00012085
:10467000ADF80C004002ADF80E003820ADF8100087
:104680000020ADF812000720ADF8140001A90F4872
:10469000FDF780FE01210D48FDF721FFFF20FFF708
:1046A00097FF07B000BD10B50446084800884FF6D4
:1046B000C7710840054908800846008820430880E3
:1046C00001210248FDF70BFF10BD00000030014042
:1046D0000008014010B50024FE48FFF778FE18B925
:1046E000FD49FC4801F010FD10BD10B51020FFF78A
:1046F000DAFF1720FFF72FFE10BD70B50446002526
:10470000E1B2F648FFF739FE064670BDF4490A7873
:104710000978491CF24B1970F0498854704711B55B
:1047200000209DF80320EE490B780978491CEC4CD9
:104730002170EA49CA549DF8022021460B78097875
:10474000491C2170E549CA549DF8012021460B7887
:104750000978491C2170E149CA549DF8002021467E
:104760000B780978491C2170DC49CA549DF8031064
:104770000144C8B29DF802100144C8B29DF801106E
:104780000144C8B29DF800100144C8B218BD2DE91B
:10479000F04180460D4616461F4600240020D049B1
:1047A0000870AA20FFF7B2FF2044C4B2AA20FFF786
:1047B000ADFF2044C4B24046FFF7A8FF2044C4B276
:1047C0000C20FFF7A3FF2044C4B22846FFF7A7FF41
:1047D0002044C4B23046FFF7A2FF2044C4B238469A
:1047E000FFF79DFF2044C4B22046FFF78FFFBDE8CE
:1047F000F08111B500209DF80120B9490B780978A6
:10480000491CB74C2170B549CA549DF80030214667
:104810000A780978491C2170B0498B549DF8011021
:104820000144C8B29DF800100144C8B218BD2DE97A
:10483000FC5F83464FF0000AAA490988480002F04D
:10484000F2FF06464FF06632A74B03F03FF80446EE
:104850000022A64B02F062FE804602F071FD01903C
:10486000A349019803F05AFD044603F0CFFC00B2BF
:10487000009000209A490870AA20FFF747FF504493
:1048800000F0FF0AAA20FFF741FF504400F0FF0AA2
:104890000320FFF73BFF504400F0FF0A1420FFF70E
:1048A00035FF504400F0FF0ABBF8001008B2FFF7D4
:1048B000A0FF504400F0FF0ABBF8081008B2FFF751
:1048C00098FF504400F0FF0ABBF8041008B2FFF74D
:1048D00090FF504400F0FF0ABBF8061008B2FFF743
:1048E00088FF504400F0FF0ABBF80C1008B2FFF735
:1048F00080FF504400F0FF0ABBF80E1008B2FFF72B
:1049000078FF504400F0FF0ABBF8101008B2FFF720
:1049100070FF504400F0FF0A0098FFF76AFF504410
:1049200000F0FF0A0020FFF764FF504400F0FF0A88
:104930000020FFF75EFF504400F0FF0A5046FFF7EB
:10494000E5FEBDE8FC9F11B500209DF803206449F9
:104950000B780978491C624C21706049CA549DF853
:10496000022021460B780978491C21705B49CA5402
:104970009DF8012021460B780978491C2170574980
:10498000CA549DF8002021460B780978491C2170F3
:104990005249CA549DF801100144C8B29DF8001054
:1049A0000144C8B29DF802100144C8B29DF803103A
:1049B0000144C8B218BD2DE9F04780460D461646A1
:1049C0001F46DDE9089A0024002045490870AA2006
:1049D000FFF79CFE2044C4B2AA20FFF797FE2044B4
:1049E000C4B20120FFF792FE2044C4B20D20FFF7AD
:1049F0008DFE2044C4B24046FFF7FBFE2044C4B203
:104A00002846FFF7F6FE2044C4B23046FFF7F1FE19
:104A10002044C4B23846FFF7ECFE2044C4B24846F6
:104A2000FFF791FF2044C4B2BAF1000F05D0A020D7
:104A3000FFF76CFE2044C4B204E0A120FFF766FE3D
:104A40002044C4B22046FFF761FEBDE8F0872DE99F
:104A5000F04F80460D4616461F46DDE90AABDDF8ED
:104A60002490002400201E490870AA20FFF74EFE63
:104A70002044C4B2AA20FFF749FE2044C4B2022059
:104A8000FFF744FE2044C4B21220FFF73FFE20444B
:104A9000C4B24046FFF7ADFE2044C4B22846FFF73B
:104AA000A8FE2044C4B23046FFF7A3FE2044C4B29F
:104AB0003846FFF79EFE2044C4B24846FFF799FEF1
:104AC0002044C4B25046FFF794FE2044C4B2584676
:104AD00010E00000EC020020D8020020B802002004
:104AE000F00000204601002066660A400000B04049
:104AF0000000C842FFF77DFE2044C4B20C98FFF7C7
:104B000078FE2044C4B20D98FFF773FE2044C4B26F
:104B10002046FFF7FBFDBDE8F08F2DE9F04186B0A0
:104B20001027FFF7D7FDFE48007800B30020FC49AE
:104B300008700021FB4BB3F90030CDE9013103913E
:104B4000F9480491B0F900000090F848B0F900303D
:104B5000F748B0F90020F748B0F90010F648B0F96E
:104B60000000FFF774FF1720FFF7C7FD3CE0F34894
:104B7000007858B30020F1490870F1498868F1497C
:104B800003F0CCFB804603F041FB04B2EC494868DB
:104B9000EC4903F0C3FB804603F038FB05B2E8495B
:104BA0000868E84903F0BAFB804603F02FFB06B221
:104BB000012000210B462246CDE90010294630464F
:104BC000FFF7F9FE1220FFF798FD0DE0DE480078B0
:104BD00048B10020DC490870DC48FFF728FE1920A6
:104BE000FFF78BFD00E000BFD948007860B10020DE
:104BF000D7490870D748426800230168F120FFF7C1
:104C0000C6FD1120FFF779FD06B0BDE8F08111B5B2
:104C100000209DF80120D0490B780978491CCE4C22
:104C20002170CE49CA549DF8003021460A7809788F
:104C3000491C2170C9498B549DF801100144C8B228
:104C40009DF800100144C8B218BD30B505460024D7
:104C50000020C14908708820FFF758FD2044C4B2E5
:104C6000A120FFF753FD2044C4B20220FFF74EFD00
:104C70002044C4B22846FFF7CAFF2044C4B22046ED
:104C8000FFF744FD30BD30B5054600240020B24991
:104C900008708820FFF73AFD2044C4B2A120FFF736
:104CA00035FD2044C4B20220FFF730FD2044C4B2D9
:104CB0002846FFF79EFD2044C4B22046FFF726FD9C
:104CC00030BDF0B507460D46164600240020A24927
:104CD00008708820FFF71AFD2044C4B2A120FFF716
:104CE00015FD2044C4B20620FFF710FD2044C4B2D5
:104CF0003846FFF77EFD2044C4B22846FFF779FD11
:104D00002044C4B23046FFF774FD2044C4B22046AC
:104D1000FFF7FCFCF0BD2DE9F04180460D4616463C
:104D20001F46002400208C4908708820FFF7EEFC05
:104D30002044C4B2A220FFF7E9FC2044C4B20820FA
:104D4000FFF7E4FC2044C4B24046FFF752FD204484
:104D5000C4B22846FFF74DFD2044C4B23046FFF7E9
:104D600048FD2044C4B23846FFF743FD2044C4B296
:104D70002046FFF7CBFCBDE8F0812DE9F0418046ED
:104D80000D4616461F4600240020734908708820EF
:104D9000FFF7BCFC2044C4B24046FFF7B7FC2044F8
:104DA000C4B20C20FFF7B2FC2044C4B22846FFF77F
:104DB000B6FC2044C4B23046FFF7B1FC2044C4B274
:104DC0003846FFF7ACFC2044C4B22046FFF79EFCF7
:104DD000BDE8F08130B50546002400205E4908702A
:104DE0008820FFF793FC2044C4B2A120FFF78EFC7B
:104DF0002044C4B20120FFF789FC2044C4B22846F5
:104E0000FFF784FC2044C4B22046FFF77FFC30BD8E
:104E10001FB500240020504908708820FFF776FC59
:104E20002044C4B2AF20FFF771FC2044C4B21C2060
:104E3000FFF76CFC2044C4B29DF80100FFF766FC4C
:104E40002044C4B29DF80000FFF760FC2044C4B2C7
:104E50009DF80500FFF75AFC2044C4B29DF80400F9
:104E6000FFF754FC2044C4B29DF80900FFF74EFC44
:104E70002044C4B29DF80800FFF748FC2044C4B2A7
:104E80009DF80D00FFF742FC2044C4B29DF80C00D1
:104E9000FFF73CFC2044C4B29DF81900FFF736FC34
:104EA0002044C4B29DF81800FFF730FC2044C4B27F
:104EB0009DF81D00FFF72AFC2044C4B29DF81C0099
:104EC000FFF724FC2044C4B20020FFF71FFC0020A1
:104ED000FFF71CFC0020FFF719FC0020FFF716FC71
:104EE0000020FFF713FC0020FFF710FC9DF82100C5
:104EF000FFF70CFC2044C4B29DF82000FFF706FC2D
:104F00002044C4B29DF82500FFF700FC2044C4B241
:104F10009DF82400FFF7FAFB2044C4B220E0000013
:104F200006000020A8000020A6000020A400002009
:104F3000AE000020AC000020AA00002007000020E6
:104F4000680100200000C84209000020D8020020AB
:104F50000A00002074010020F0000020B8020020A8
:104F60009DF82900FFF7D2FB2044C4B29DF8280029
:104F7000FFF7CCFB2044C4B20020FFF7C7FB0020A2
:104F8000FFF7C4FB0020FFF7C1FB0020FFF7BEFBCB
:104F90002046FFF7BBFB1FBD2DE9FF4F85B08146C3
:104FA0000024FE490988480002F03DFC07464FF006
:104FB0006632FB4B02F08AFC05460022F94B02F0F8
:104FC000ADFA824602F0BCF90490F749049803F068
:104FD000A5F9054603F036F980B20390D9F8000030
:104FE00003F050F98346F049049803F097F95946C5
:104FF000019003F093F9824602F078FF0746002201
:10500000EA4B02F08BFA054602F0E0FB80B2029018
:105010000020E74908708820FFF778FB2044C4B2DD
:10502000AE20FFF773FB2044C4B21C20FFF76EFBD9
:105030002044C4B299F80100FFF768FB2044C4B2D1
:1050400099F80000FFF762FB2044C4B299F8090008
:10505000FFF75CFB2044C4B299F80800FFF756FB49
:105060002044C4B299F80500FFF750FB2044C4B2B5
:1050700099F80400FFF74AFB2044C4B299F80700EE
:10508000FFF744FB2044C4B299F80600FFF73EFB4B
:105090002044C4B299F80D00FFF738FB2044C4B295
:1050A00099F80C00FFF732FB2044C4B299F80F00C6
:1050B000FFF72CFB2044C4B299F80E00FFF726FB43
:1050C0002044C4B299F81100FFF720FB2044C4B279
:1050D00099F81000FFF71AFB2044C4B29DF80D00A8
:1050E000FFF714FB2044C4B29DF80C00FFF70EFB41
:1050F0002044C4B20020FFF709FB0020FFF706FBA5
:105100009DF81900FFF702FB2044C4B29DF8180077
:10511000FFF7FCFA2044C4B29DF81D00FFF7F6FA31
:105120002044C4B29DF81C00FFF7F0FA2044C4B23A
:105130009DF82100FFF7EAFA2044C4B29DF8200050
:10514000FFF7E4FA2044C4B29DF84900FFF7DEFA05
:105150002044C4B29DF84800FFF7D8FA2044C4B2F6
:105160009DF80900FFF7D2FA2044C4B29DF8080068
:10517000FFF7CCFA2044C4B22046FFF7C7FA09B0C3
:10518000BDE8F08F1FB500240020894908708820F1
:10519000FFF7BCFA2044C4B2AC20FFF7B7FA2044B2
:1051A000C4B21C20FFF7B2FA2044C4B2AD20FFF70E
:1051B000ADFA2044C4B29DF80100FFF7A7FA2044DD
:1051C000C4B29DF80000FFF7A1FA2044C4B29DF8D4
:1051D0000500FFF79BFA2044C4B29DF80400FFF7D6
:1051E00095FA2044C4B29DF80900FFF78FFA2044D5
:1051F000C4B29DF80800FFF789FA2044C4B29DF8B4
:105200000D00FFF783FA2044C4B29DF80C00FFF7AD
:105210007DFA2044C4B29DF81900FFF777FA2044C4
:10522000C4B29DF81800FFF771FA2044C4B29DF88B
:105230001D00FFF76BFA2044C4B29DF81C00FFF775
:1052400065FA2044C4B20020FFF760FA0020FFF79F
:105250005DFA0020FFF75AFA0020FFF757FA002006
:10526000FFF754FA0020FFF751FA0020FFF74EFA3B
:105270000020FFF74BFA0020FFF748FA0020FFF765
:1052800045FA0020FFF742FA0020FFF73FFA00201E
:10529000FFF73CFA0020FFF739FA0020FFF736FA53
:1052A0002046FFF733FA1FBD2DE9FC5F4FF00009E0
:1052B000002400BF06E03F48005D484400F0FF09BD
:1052C000601CC4B21F2CF6DB3A48C07F484501D0B1
:1052D000BDE8FC9F374800788A2800D0F8E73548B9
:1052E00040788B286CD1334880781C28FAD131481B
:1052F000C078AD2840D1304988682B4903F00EF8BA
:10530000019002F09FFF85B22B494868264903F0BF
:1053100005F8019002F096FF86B2274908682249F5
:1053200002F0FCFF019002F08DFF87B223498868EC
:105330001D4902F0F3FF019002F084FF1FFA80F88C
:105340001E494868184902F0E9FF019002F07AFF0F
:105350001FFA80FA19490868134902F0DFFF01902B
:1053600002F070FF1FFA80FB3B464246514658460A
:10537000CDE90065FFF706FF0E48C078AE28B1D131
:105380000C4949790B4A127941EA022002F07AFF6E
:10539000824602F0ABFD0746002212E046010020E3
:1053A00066660A400000B0400000C84200388F40E6
:1053B000F000002080010020240300200C030020C6
:1053C00070E0394B02F0AAF8054601F0B9FF374901
:1053D00008603749C979364A927941EA022002F0D9
:1053E00051FF824602F082FD074600222E4B02F05A
:1053F00095F8054601F0A4FF2C4948602C49497AEC
:105400002B4A127A41EA022002F03CFF824602F067
:105410006DFD07460022244B02F080F8054601F09E
:105420008FFF224988602249C97A214A927A41EA4B
:10543000022002F027FF824602F058FD07460022B4
:10544000194B02F06BF8054601F07AFF1949086024
:105450001749497B164A127B41EA022002F012FFEB
:10546000824602F043FD074600220F4B02F056F839
:10547000054601F065FF0F4948600D49C97B0C4A9C
:10548000927B41EA022002F0FDFE824602F02EFDF0
:1054900007460022044B02F041F8054601F050FF98
:1054A0000449886000BF13E7000059400C03002046
:1054B0008001002024030020FD48FE490860FE48CA
:1054C00048604FF082408860FC48C8600020086156
:1054D0004861F748FA490860F74848604FF0824051
:1054E0008860F648C860002008614861F548F649C0
:1054F0000860002048604FF07C508860F348C86026
:10550000002008614861F248F249086000204860C4
:105510004FF080408860F048C86000200861486112
:10552000EB48EE490860002048604FF080408860FA
:10553000E948C8600020086148614FF08240E849AE
:105540000860E84848608860E348C8600020086157
:10555000486170472DE9F04704460D46164621681C
:10556000286802F0E3FFE04908600A461168D14A62
:10557000106902F0E7FCCF4908610A46D16810695A
:1055800002F098FF03D2CB48C068CA490861C948F5
:10559000C06880F00047C7480169384602F08AFFBA
:1055A00005D2C448C06880F00040C2490861C82ED6
:1055B00002DA0020BF490861CC4A1168CA4A106863
:1055C00002F0B4FF8146BB488168484602F0A6FE5F
:1055D0000746B84A1169506802F0A0FE8146C24AE7
:1055E0001168B44A106802F099FE8246494602F0FA
:1055F000A9FC8046394602F0A5FCAE494861BA488C
:105600000068BA4908606168686802F08FFFB649AF
:1056100048600A465168AA4A106902F093FCA849FA
:1056200008610A46D168106902F044FF03D2A44819
:10563000C068A3490861A248C06880F00047A0483C
:105640000169384602F036FF05D29D48C06880F0F7
:1056500000409B490861C82E02DA00209849086181
:10566000A24A5168A04A506802F060FF81469448FF
:105670008168484602F052FE07468E4A1169904AF8
:10568000506802F04BFE8146974A51688C4A106878
:1056900002F044FE8246494602F054FC80463946F8
:1056A00002F050FC864948618F4840688F49486045
:1056B000BDE8F0872DE9F04104468D48B0F90000BF
:1056C00002F0E0FD06468B4902F028FE05467948C7
:1056D0004169284602F01FFF874908600A461168A1
:1056E0007C4A106902F02EFC7A4908610A46D168AA
:1056F000106902F0DFFE03D27648C0687549086180
:105700007448C06880F0004572480169284602F07C
:10571000D1FE05D26F48C06880F000406D49086135
:10572000764A1168744A106802F000FF074669481B
:105730008168384602F0F2FD0546664A11695068F4
:1057400002F0ECFD07466C4A1168624A106802F0EC
:10575000E5FD8046394602F0F5FB0646294602F093
:10576000F1FB5C494861644800686449086064482A
:10577000B0F9000002F086FD06465E4902F0CEFD5B
:1057800005464F484169284602F0C5FE5A4948601F
:105790000A465168514A106902F0D4FB4F4908612A
:1057A0000A46D168106902F085FE03D24B48C068F2
:1057B0004A4908614948C06880F000454748016986
:1057C000284602F077FE05D24448C06880F00040C9
:1057D00042490861494A5168474A506802F0A6FEAA
:1057E00007463E488168384602F098FD05463B4A28
:1057F0001169506802F092FD07463F4A5168374AE6
:10580000106802F08BFD8046394602F09BFB06468D
:10581000294602F097FB31494861374840683749CB
:1058200048603848B0F90000404202F02BFD0546C0
:10583000304902F073FD304988600A469168284A71
:10584000106902F07FFB264908610A46D168106999
:1058500002F030FE03D22248C06821490861204886
:10586000C06880F000451E480169284602F022FE0B
:1058700005D21B48C06880F00040194908611F4AE2
:1058800091681D4A906802F051FE074614488168ED
:10589000384602F043FD0546114A1169506802F08E
:1058A0003DFD0746144A91680D4A10682CE000003F
:1058B0000000A0400C0300200AD7A33C00007A445B
:1058C00024030020000060403C03002000009643B9
:1058D0003333B33F5403002000409C456C03002049
:1058E00084030020CDCCCC3D9C030020A8030020E5
:1058F000A4000020F1FF793DB4030020C003002084
:10590000A6000020A800002002F008FD80463946CD
:1059100002F018FB0646294602F014FBFE494861D6
:10592000FE488068FE498860FE48807A012870D170
:10593000FD48007800286ED1204602F0A3FC804686
:10594000FA484169404602F0F1FD0746F8484169CE
:10595000384602F0F7FA0646EF484169304602F051
:10596000F1FA054602F052FC00B2F24908802046E6
:1059700002F088FC8046ED484169404602F0E2FAB8
:105980000746EB484169384602F0DCFA0646E24831
:105990004169304602F0CAFD054602F037FC00B20C
:1059A000E5490880204602F06DFC8046DF484169E9
:1059B000404602F0C7FA0746DD484169384602F022
:1059C000B5FD0646D4484169304602F0BBFA0546AB
:1059D00002F01CFC00B2D9490880204602F052FCBB
:1059E0008046D2484169404602F0A0FD0746D048B3
:1059F0004169384602F09AFD0646C748416930467B
:105A000002F094FD054602F001FC00B2CC4908808A
:105A10000DE054E0FFE7C4480078012807D1C548ED
:105A20000480C5480480C5480480C5480480C14836
:105A3000B0F90000B0F57A7F03DB40F2E730BD49F2
:105A40000880BD48B0F90000B0F57A7F03DB40F272
:105A5000E730B9490880B948B0F90000B0F57A7F5D
:105A600003DB40F2E730B5490880B548B0F90000E3
:105A7000B0F57A7F03DB40F2E730B1490880AD48EA
:105A8000B0F90000002802DA0020AA490880AA48DC
:105A9000B0F90000002802DA0020A7490880A748D2
:105AA000B0F90000002802DA0020A4490880A448C8
:105AB000B0F90000002802DA0020A14908809948C6
:105AC000807A00B144B900209A4908809A49088038
:105AD0009A4908809A4908809748008881B24FF017
