:020000040800F2
:1000000070070020DD31000855040008570400087F
:100010005B0400085F04000863040008000000009F
:10002000000000000000000000000000670400085D
:1000300069040008000000006B0400086D0400085B
:10004000F7310008F7310008F7310008F7310008F0
:10005000F7310008F7310008F7310008F7310008E0
:10006000F7310008F7310008F7310008F7310008D0
:10007000F7310008F7310008F7310008F7310008C0
:10008000F7310008F7310008F7310008F7310008B0
:10009000F7310008F7310008F7310008F7310008A0
:1000A000F7310008F7310008F7310008F731000890
:1000B000F7310008F7310008F7310008F731000880
:1000C000F7310008F7310008F7310008F731000870
:1000D000F731000851310008F7310008F731000806
:1000E000F7310008F7310008F7310008F731000850
:1000F000F7310008F7310008F7310008F731000840
:10010000F7310008F7310008F7310008F73100082F
:10011000F7310008F7310008F7310008F73100081F
:10012000F7310008F7310008F7310008F73100080F
:1001300000F002F800F03FF80AA090E8000C8244BA
:100140008344AAF10107DA4501D100F034F8AFF297
:10015000090EBAE80F0013F0010F18BFFB1A43F0A5
:1001600001031847E852000008530000103A24BF6A
:1001700078C878C1FAD8520724BF30C830C144BF0C
:1001800004680C607047000000230024002500264E
:10019000103A28BF78C1FBD8520728BF30C148BFEA
:1001A0000B607047782904F0F982002070471FB572
:1001B0001FBD10B510BD04F0CDFB1146FFF7F7FFD2
:1001C00000F008F804F0EBFB03B4FFF7F2FF03BC08
:1001D00002F060FF1FB500BF00200290039000BF37
:1001E00002F0E8FE02F050FF4FF4E13002F061FF50
:1001F00000F02EFA00F0B8FD00F050FA02F034FDE5
:100200004FF478406349088063A010210B46C82250
:10021000CDE9001032213C2002F065FC62A01021E3
:100220000B46C822CDE9001046211E2002F05BFCDF
:1002300064A010210B46C822CDE900105A213C20B1
:1002400002F051FC63A010210B46C822CDE900103A
:100250006E213C2002F047FC18E061A010210B4603
:10026000C822CDE9001082213C2002F03CFCC820CD
:1002700002F0DDFE4FF6FF709223EF228221009004
:100280003C2002F0AFF9C82002F0D1FE02F095FD4B
:100290000028E2D156A010210B46C822CDE900105B
:1002A00082213C2002F01FFC4FF6FF70A623F022B3
:1002B000962100900A2002F095F91F203549088008
:1002C0004EA010210B46C822CDE9001096213C20FB
:1002D00002F009FC02F02EFE5AE000BF002000F000
:1002E000F7F90446012C04D149A102A804F082FACE
:1002F00014E0032C04D148A102A804F07BFA0DE01D
:10030000042C04D146A102A804F074FA06E0022CE1
:10031000E4D145A102A804F06DFA00BF00BF02A815
:1003200002F096FD202814D141A010212023EF22B5
:10033000CDE90010AA213C2002F0D5FB02A8102133
:100340002023EF22CDE90010BE213C2002F0CBFBA0
:1003500012E03BA010212023EF22CDE90010AA21BA
:100360003C2002F0C0FB4FF6FF70DA23F022BC21E4
:100370000090002002F036F93548006808B90120E5
:1003800000E000203249086040F2DC5002F04FFEED
:10039000A3E70000160000205761725368697020BF
:1003A00053544D33320000004E524632344C3031FB
:1003B0002054455354206279206B656E7A6920443D
:1003C0000000000041544F4D40414C49454E5445BA
:1003D0004B000000323031342F382F313100000013
:1003E0004E524632344C3031204572726F720000EA
:1003F0004E524632344C3031204F4B004E52463232
:10040000344C30312054585F4D6F6465000000005B
:10041000737461727400000073746F7000000000E8
:100420002B202020200000002D2020202000000074
:1004300053656E64656420444154413A00000000F5
:1004400053656E64204661696C656420000000009D
:1004500094812142704700BFFEE700BFFEE700BF66
:10046000FEE700BFFEE77047704770477047000027
:100470000CB50020019000906C48006840F480307A
:100480006A49086000BF6948006800F400300090C5
:100490000198401C0190009818B90198B0F5A06F20
:1004A000F1D16248006800F4003010B101200090E2
:1004B00001E0002000900098012843D15C480068CA
:1004C00040F010005A4908600846006820F0030018
:1004D00008600846006840F0020008605348406821
:1004E000524948600846406848600846406840F401
:1004F000806048600846406820F47C1048600846E8
:10050000406840F4E81048600846006840F0807099
:10051000086000BF4548006800F000700028F9D06E
:100520004248406820F0030040494860084640685F
:1005300040F00200486000BF3C48406800F00C00FA
:100540000828F9D10CBD10B5FFF792FF10BD10B50A
:100550003648006840F001003449086008464068A9
:10056000344908403149486008460068324908402B
:100570002E4908600846006820F48020086008467C
:10058000406820F4FE0048604FF41F008860FFF7C9
:10059000DAFF4FF000602949086010BD10B5002156
:1005A00000200022214B5B6803F00C0121B10429DB
:1005B00006D0082928D107E0214B224C236027E0F0
:1005C0001F4B204C236023E0184B5B6803F4701032
:1005D000164B5B6803F48032022303EB904022B990
:1005E000194B4343174C23600DE0104B5B6803F439
:1005F000003323B1144B4343124C236003E0104BF0
:100600004343104C236003E00D4B0E4C236000BFAE
:1006100000BF064B5B68C3F303130C4CE15C094B52
:100620001B68CB40074C236010BD00000010024047
:10063000002002400000FFF8FFFFF6FE08ED00E09A
:1006400000127A000000002000093D000400002094
:1006500008B50121482003F071FC2020ADF800000E
:1006600010208DF8030003208DF802006946094828
:1006700003F0A8F92021074803F051FA2020ADF833
:1006800000006946044803F09DF92021024803F068
:1006900046FA08BD000C01400018014008B50121D0
:1006A000442003F04BFC1C20ADF8000048208DF8DE
:1006B00003006946354803F085F90120ADF80000D4
:1006C00028208DF803006946314803F07BF908BD06
:1006D00010B5044614B101202E4908702D48007849
:1006E000002837D01021294803F0FFF978B10821FC
:1006F000264803F0FAF950B10421244803F0F5F933
:1007000028B10121224803F0F0F9012822D10A2062
:1007100002F08DFC00201F49087010211B4803F0D7
:10072000E4F908B9012010BD0821184803F0DDF9EB
:1007300008B90220F7E70421144803F0D6F908B9F4
:100740000320F0E70121124803F0CFF901281BD163
:100750000420E8E710210D4803F0C7F9012813D160
:1007600008210A4803F0C1F901280DD104210748E6
:1007700003F0BBF9012807D10121054803F0B5F9C1
:1007800010B90120034908700020CCE7001801408F
:100790000008014014000020F74908807047F6491E
:1007A000891C08807047F448801C00887047F24A12
:1007B0001080921C1180704710B504462046FFF748
:1007C000EBFF052002F00FFCFFF7EDFF10BDEB483B
:1007D000C079E94908807047E749891C088070475B
:1007E00030B5014601F01F04C1F34513CA0AE50202
:1007F00005EB43151544A8B230BD00BF0100A0F1C0
:100800000102D0B2FAD1704710B503460C46DB485E
:10081000808849F24131884205D0D848808846F620
:100820000401884214D1D549087AFFF7B5FF1812A0
:10083000FFF7B5FFD8B2FFF7B2FFD049487AFFF70C
:10084000ABFF2012FFF7ABFFE0B2FFF7A8FF12E00B
:10085000CA488079012804D1C8480088401EC01ABF
:1008600083B2C649087A1946FFF7A1FFC349487AFF
:100870002146FFF79CFF10BD2DE9F04105460E46CD
:1008800000240027A046BD480088A84203DDBB48DD
:100890004088B04202DC0020BDE8F08131462846A5
:1008A000FFF7B2FFB548808849F24131884205D050
:1008B000B248808846F60401884203D12E20FFF713
:1008C0006BFF02E02220FFF767FFAC48808849F207
:1008D0002031884202D10220FFF78FFFA648801CFA
:1008E000008800B100240220FFF787FFA248801C87
:1008F0000488A248808849F2413188420CD1022004
:10090000FFF77BFF9C48801CB0F80080E7B24FF6F1
:10091000FF7000EA072708E09848808846F604013F
:10092000884202D19448801C04889448808849F207
:100930002531884216D09148808844F2355188424A
:1009400010D08E488088091F88420BD08B48808841
:1009500048F68911884205D0884880884BF20551B5
:10096000884201D1204697E78448808849F2413186
:10097000884207D1E012C002B91240EA411040EAB1
:10098000E82089E72046FFF72BFF85E700B57B4885
:10099000808849F24131884205D07848808846F6FF
:1009A0000401884203D12920FFF7F6FE04E040F25B
:1009B00073110720FFF7FBFE00BD00B56F4880886C
:1009C00049F24131884205D06C48808846F60401DE
:1009D000884203D12820FFF7DFFE03E00021072033
:1009E000FFF7E5FE00BD70B504460023002663480E
:1009F000807901281ED16148808846F6040188422A
:100A000018D0082C15D2DFE804F00406080A0C0EF2
:100A1000101206240DE007240BE0042409E005244D
:100A200007E0012405E0002403E0032401E00224A0
:100A300000BF00BF5148808849F24131884205D04B
:100A40004E48808846F6040188427CD1082C1CD28E
:100A5000DFE804F00406090C0F12151800BF14E0BB
:100A600043F0800311E043F040030EE043F0C00385
:100A70000BE043F0200308E043F0600305E043F09F
:100A8000A00302E043F0E00300BF00BF362643F0BE
:100A900008033A48808846F60401884201D143F0B1
:100AA000020319463046FFF782FE03F0200068B1CA
:100AB0003248008831494988884214DA2F4805882D
:100AC00040882E490880084645800CE02B48008865
:100AD0002A494988884206DD2848058840882749F0
:100AE0000880084645802549087AFFF755FE002012
:100AF000FFF755FE0020FFF752FE20490988491EE6
:100B0000C1F30F20FFF74BFE1C490978491EC8B2FC
:100B1000FFF745FE1949487AFFF73EFE0020FFF730
:100B20003EFE0020FFF73BFE14494988491EC1F3F1
:100B30000F20FFF734FE11498978491EC8B2FFF72C
:100B40002EFE36E0FFE7082C20D2DFE804F0040791
:100B50000A0D0F12191C43F0300317E043F0100385
:100B600014E043F0200311E000BF0FE043F038032E
:100B70000CE043F0280309E0FE07006C3C00002075
:100B800043F0180302E043F0080300BF00BFFE4833
:100B9000808848F68911884204D1112646F2400027
:100BA000034302E0032643F4805319463046FFF71F
:100BB000FEFD70BD30B504460D4629462046FFF7C0
:100BC00023FEFFF704FEF1480088F149088030BD9C
:100BD00030B503460C461546EB48808849F2413152
:100BE000884205D0E848808846F60401884214D13E
:100BF000E549087AFFF7D0FD1812FFF7D0FDD8B20B
:100C0000FFF7CDFDE049487AFFF7C6FD2012FFF758
:100C1000C6FDE0B2FFF7C3FD12E0DB488079012892
:100C200004D1D9480088401EC01A83B2D649087A38
:100C30001946FFF7BCFDD449487A2146FFF7B7FDB6
:100C4000D148C079D249891E0880881C058030BDF2
:100C500010B50446002C3DD1CB498871F0200880A6
:100C60004FF4A07048800846808849F2413188429C
:100C700005D0C548808846F60401884214D12C204E
:100C8000C149C8712A2008722B2048720846808802
:100C900046F6040188424ED14FF4A070BA4908804C
:100CA0004FF4F070488046E0B748808848F68911D4
:100CB000884207D12220B449C8714E2008724F20C3
:100CC000487238E02220B049C871202008722120E3
:100CD000487230E0AC48808846F6040188422AD049
:100CE0000120A94988714FF4A0700880F020488045
:100CF0000846808849F24131884207D12C20A24918
:100D0000C8712A2008722B20487214E09E488088FF
:100D100048F68911884207D122209B49C8714F208B
:100D200008724E20487206E022209749C87121209F
:100D30000872202048720020FFF755FE10BD70B5E4
:100D4000044600269048058840884543002108460F
:100D5000FFF75AFDFFF73BFD00BF02E08C4804801F
:100D6000761CAE42FAD370BD00B59FB001210802D7
:100D700003F0D7F8012140F2691003F0DFF80120F9
:100D8000ADF8780010208DF87B0003208DF87A00F4
:100D90001EA9804802F016FE4CF23370ADF87800C0
:100DA00018208DF87B0003208DF87A001EA97A4860
:100DB00002F008FE4FF68070ADF8780018208DF82C
:100DC0007B0003208DF87A001EA9744802F0FAFD1A
:100DD00041F20100ADF8780018208DF87B00032067
:100DE0008DF87A001EA96E4802F0ECFD01200890F3
:100DF000002009900F200A9000200B900C900D907D
:100E00000E90019002900320039000200490059022
:100E10000690079006200F9000201090119010204F
:100E200012900020139015901490169017904FF484
:100E300080501890002019904FF480401A900020A4
:100E40001B9008A81C9001A81D900FA802F0A0FA02
:100E50000121062002F004FC322002F0E8F8012112
:100E60000020FFF7A4FC322002F0E1F80020FFF799
:100E7000A3FC4549888008468088FF280ADB08468D
:100E800080884FF6FF71884204D03F488088B0F5D3
:100E9000134F4BD1D320FFF77FFCFFF784FCFFF704
:100EA00082FCFFF780FC38498880084680884FF62E
:100EB000FF7101EA002034498880FFF774FC324951
:100EC00089880843304988800846808849F2413142
:100ED00088421BD0BF20FFF75FFCFFF764FCFFF7E1
:100EE00062FCFFF760FCFFF75EFC2749888008463C
:100EF00080884FF6FF7101EA002023498880FFF7C0
:100F000052FC2149898808431F4988801E488088EF
:100F100049F24131884209D01B48808846F60401D5
:100F2000884203D049F241301749888016488188A9
:100F30001CA003F0F3FB1448808849F24131884239
:100F40007ED1CF20FFF728FC0020FFF728FCC1202E
:100F5000FFF725FC3020FFF722FCED20FFF71CFCFB
:100F60006420FFF71CFC0320FFF719FC1220FFF799
:100F700016FC8120FFF713FCE820FFF70DFC85200D
:100F8000FFF70DFC102015E03C00002016000020AB
:100F90000008006C000C01400014014000180140E2
:100FA00000200140204C43442049443A25780D0A52
:100FB00000000000FFF7F3FB7A20FFF7F0FBCB20E7
:100FC000FFF7EAFB3920FFF7EAFB2C20FFF7E7FBEE
:100FD0000020FFF7E4FB3420FFF7E1FB0220FFF7DE
:100FE000DEFBF720FFF7D8FB2020FFF7D8FBEA2035
:100FF000FFF7D2FB0020FFF7D2FB0020FFF7CFFB6B
:10100000C020FFF7C9FB1B20FFF7C9FBC120FFF77A
:10101000C3FB0120FFF7C3FBC520FFF7BDFB30205A
:10102000FFF7BDFB3020FFF7BAFBC720FFF7B4FB8B
:10103000B720FFF7B4FB3620FFF7AEFB482000E0F7
:10104000AEE0FFF7ACFB3A20FFF7A6FB5520FFF719
:10105000A6FBB120FFF7A0FB0020FFF7A0FB1A20A2
:10106000FFF79DFBB620FFF797FB0A20FFF797FBE2
:10107000A220FFF794FBF220FFF78EFB0020FFF782
:101080008EFB2620FFF788FB0120FFF788FBE0207E
:10109000FFF782FB0F20FFF782FB2A20FFF77FFB81
:1010A0002820FFF77CFB0820FFF779FB0E20FFF7D5
:1010B00076FB0820FFF773FB5420FFF770FBA92095
:1010C000FFF76DFB4320FFF76AFB0A20FFF767FB82
:1010D0000F20FFF764FB0020FFF761FB0020FFF704
:1010E0005EFB0020FFF75BFB0020FFF758FBE120D1
:1010F000FFF752FB0020FFF752FB1520FFF74FFBD5
:101100001720FFF74CFB0720FFF749FB1120FFF7E3
:1011100046FB0620FFF743FB2B20FFF740FB562042
:10112000FFF73DFB3C20FFF73AFB0520FFF737FBBD
:101130001020FFF734FB0F20FFF731FB3F20FFF7B4
:101140002EFB3F20FFF72BFB0F20FFF728FB2B2068
:10115000FFF722FB0020FFF722FB0020FFF71FFB19
:101160000120FFF71CFB3F20FFF719FB2A20FFF7A8
:1011700013FB0020FFF713FB0020FFF710FB0020FC
:10118000FFF70DFBEF20FFF70AFB1120FFF704FB31
:10119000782001F04CFF2920FFF7FEFA01F016BA83
:1011A000FE48808846F6040188427CD11120FFF772
:1011B000F3FA142001F03BFFD020FFF7EDFA0720EF
:1011C000FFF7EDFA4220FFF7EAFA1D20FFF7E7FAF2
:1011D000D120FFF7E1FA0020FFF7E1FA1A20FFF72C
:1011E000DEFA0920FFF7DBFAD220FFF7D5FA01205B
:1011F000FFF7D5FA2220FFF7D2FAC020FFF7CCFA8A
:101200001020FFF7CCFA3B20FFF7C9FA0020FFF7C8
:10121000C6FA0220FFF7C3FA1120FFF7C0FAC52073
:10122000FFF7BAFA0320FFF7BAFAC820FFF7B4FABB
:101230000020FFF7B4FA2520FFF7B1FA2120FFF7CD
:10124000AEFA0520FFF7ABFA0020FFF7A8FA0A2054
:10125000FFF7A5FA6520FFF7A2FA2520FFF79FFA0E
:101260007720FFF79CFA5020FFF799FA0F20FFF73D
:1012700096FA0020FFF793FAF820FFF78DFA012085
:10128000FFF78DFAFE20FFF787FA0020FFF787FAB5
:101290000220FFF784FA2020FFF77EFA3620FFF7BE
:1012A0007BFA082000E02CE0FFF779FA3A20FFF7FC
:1012B00073FA5520FFF773FA2B20FFF76DFA002021
:1012C000FFF76DFA0020FFF76AFA0120FFF767FACF
:1012D0003F20FFF764FA2A20FFF75EFA0020FFF7AD
:1012E0005EFA0020FFF75BFA0120FFF758FADF20D3
:1012F000FFF755FA782001F09AFE2920FFF74CFA03
:101300004CE7A648808849F2253188427ED147F6CD
:10131000F001E520FFF74BFA4FF480710120FFF751
:1013200046FA4FF4E0610220FFF741FA41F2300142
:101330000320FFF73CFA00210420FFF738FA40F2BF
:1013400002210820FFF733FA00210920FFF72FFAC6
:1013500000210A20FFF72BFA00210C20FFF727FAC3
:1013600000210D20FFF723FA00210F20FFF71FFABD
:1013700000211020FFF71BFA07211120FFF717FAB1
:1013800000211220FFF713FA00211320FFF70FFAB4
:1013900000210720FFF70BFA41F290611020FFF7C0
:1013A00006FA40F227211120FFF701FA9D211220B1
:1013B000FFF7FDF94FF4C8511320FFF7F8F9252185
:1013C0002920FFF7F4F90D212B20FFF7F0F9072171
:1013D0003020FFF7ECF940F203313120FFF7E7F955
:1013E00003213220FFF7E3F940F206213520FFF711
:1013F000DEF908213620FFF7DAF940F206413720FE
:10140000FFF7D5F94FF44171382000E057E0FFF7BE
:10141000CEF907213920FFF7CAF940F202613C20DA
:10142000FFF7C5F908213D20FFF7C1F90021502041
:10143000FFF7BDF9EF215120FFF7B9F90021522044
:10144000FFF7B5F940F23F115320FFF7B0F94FF421
:1014500027416020FFF7ABF901216120FFF7A7F9D1
:1014600000216A20FFF7A3F900218020FFF79FF9F0
:1014700000218120FFF79BF900218220FFF797F9D7
:1014800000218320FFF793F900218420FFF78FF9D3
:1014900000218520FFF78BF910219020FFF787F9B5
:1014A0004FF4C0619220FFF782F940F23311072018
:1014B000FFF77DF922210020FFF779F96EE6374822
:1014C000808849F2283188426AD141F28F01EC20AC
:1014D000FFF76DF941F23421EF20FFF768F94FF47F
:1014E00080710120FFF763F94FF4E0610220FFF7FC
:1014F0005EF941F230010320FFF759F90021042081
:10150000FFF755F940F202210820FFF750F90021BA
:101510000920FFF74CF900210A20FFF748F90121C3
:101520000C20FFF744F900210D20FFF740F90021BE
:101530000F20FFF73CF900211020FFF738F90721B1
:101540001120FFF734F900211220FFF730F90021B4
:101550001320FFF72CF901210720FFF728F932208B
:1015600001F065FD41F290411020FFF720F940F2B3
:1015700027211120FFF71BF9322001F058FD8A21A5
:101580001220FFF714F9322001F051FD4FF4D05131
:101590001320FFF70CF90621292002E03C0000206F
:1015A0008AE0FFF704F90D212B20FFF700F9322024
:1015B00001F03DFD00212020FFF7F9F80021212056
:1015C000FFF7F5F8322001F032FD00213020FFF75F
:1015D000EEF840F204613120FFF7E9F840F20531FE
:1015E0003220FFF7E4F800213520FFF7E0F840F65D
:1015F00009413620FFF7DBF84FF401713720FFF780
:10160000D6F840F201313820FFF7D1F840F20771E7
:101610003920FFF7CCF800213C20FFF7C8F840F64E
:101620000A213D20FFF7C3F8322001F000FD002120
:101630005020FFF7BCF8EF215120FFF7B8F8002148
:101640005220FFF7B4F840F23F115320FFF7AFF8F4
:101650004FF427416020FFF7AAF801216120FFF72E
:10166000A6F800216A20FFF7A2F800218020FFF7EA
:101670009EF800218120FFF79AF800218220FFF7D1
:1016800096F800218320FFF792F800218420FFF7CD
:101690008EF800218520FFF78AF810219020FFF7AF
:1016A00086F84FF4C0619220FFF781F840F23311C1
:1016B0000720FFF77CF871E5FE48808849F2203169
:1016C00088427DD100210846FFF771F84FF4807100
:1016D0000120FFF76CF84FF4E0610220FFF767F894
:1016E00041F230010320FFF762F800210420FFF7E8
:1016F0005EF840F202210820FFF759F80021092086
:10170000FFF755F800210A20FFF751F801210C20BE
:10171000FFF74DF800210D20FFF749F800210F20B9
:10172000FFF745F8322001F082FC40F2011107205A
:10173000FFF73DF8322001F07AFC4FF4865110207B
:10174000FFF735F807211120FFF731F84FF48871C2
:101750001220FFF72CF84FF430611320FFF727F821
:1017600000212920FFF723F844F210012B20FFF776
:101770001EF800215020FFF71AF8EF215120FFF743
:1017800016F800215220FFF712F840F23F115320C3
:10179000FFF70DF84FF41C516020FFF708F8012106
:1017A0006120FFF704F800216A20FFF700F800210C
:1017B0008020FEF7FCFF00218120FEF7F8FF00E00B
:1017C0002EE000218220FEF7F2FF00218320FEF7A9
:1017D000EEFF00218420FEF7EAFF00218520FEF7BE
:1017E000E6FF10219020FEF7E2FF00219220FEF795
:1017F000DEFF01219320FEF7DAFF4FF48871952078
:10180000FEF7D5FF00219720FEF7D1FF0021982099
:10181000FEF7CDFF40F273110720FEF7C8FFBDE4CD
:10182000A448808849F2313188427DD141F21401C7
:10183000E720FEF7BCFF4FF480710120FEF7B7FFF1
:101840004FF400710220FEF7B2FF41F2380103208D
:10185000FEF7ADFF40F202210820FEF7A8FF0021AD
:101860000920FEF7A4FF00210A20FEF7A0FF0021B7
:101870000C20FEF79CFF00210D20FEF798FF0021B1
:101880000F20FEF794FF00211020FEF790FF0721A4
:101890001120FEF78CFF00211220FEF788FF0021A7
:1018A0001320FEF784FFC82001F0C1FB41F29061D4
:1018B0001020FEF77CFF40F227211120FEF777FF72
:1018C000322001F0B4FB0C211220FEF770FF322011
:1018D00001F0ADFB4FF400611320FEF768FF11210A
:1018E0002920FEF764FF0B212B20FEF760FF32203A
:1018F00001F09DFB00212020FEF759FF40F23F112F
:101900002120FEF754FF00213020FEF750FF4FF456
:1019100083713120FEF74BFF00213220FEF747FF95
:101920004FF40171352000E064E0FEF740FF41F222
:101930000A613620FEF73BFF40F207713720FEF7C1
:1019400036FF4FF483713820FEF731FF40F2077104
:101950003920FEF72CFF40F202413C20FEF727FF22
:1019600040F60F413D20FEF722FF00215020FEF7F8
:101970001EFFEF215120FEF71AFF00215220FEF733
:1019800016FF40F23F115320FEF711FF4FF41C5198
:101990006020FEF70CFF01216120FEF708FF002107
:1019A0006A20FEF704FF00218020FEF700FF0021DF
:1019B0008120FEF7FCFE00218220FEF7F8FE0021C8
:1019C0008320FEF7F4FE00218420FEF7F0FE0021C4
:1019D0008520FEF7ECFE10219020FEF7E8FE4FF484
:1019E000C0619220FEF7E3FE40F233110720FEF7BC
:1019F000DEFE85E42F48808845F2084188427DD18B
:101A00004FF480710120FEF7D2FE4FF4E061022016
:101A1000FEF7CDFE41F230010320FEF7C8FE0021A3
:101A20000420FEF7C4FE40F207210820FEF7BFFEA7
:101A300000210920FEF7BBFE00210A20FEF7B7FEB9
:101A400000210C20FEF7B3FE00210D20FEF7AFFEB3
:101A500000210F20FEF7ABFE142001F0E8FA41F25E
:101A6000B0611020FEF7A3FE01211120FEF79FFEBA
:101A700001211720FEF79BFE4FF49C711220FEF708
:101A800096FE4FF400611320FEF791FE09212920F4
:101A9000FEF78DFE09212A20FEF789FE0021A420F1
:101AA000FEF785FE00215020FEF781FEEF21512038
:101AB00002E000003C000020FEF779FE00215220E9
:101AC000FEF775FE40F23F115320FEF770FE4FF413
:101AD0001C516020FEF76BFE01216120FEF767FEBE
:101AE00000216A20FEF763FE00218020FEF75FFEE2
:101AF00000218120FEF75BFE002100E028E082202B
:101B0000FEF755FE00218320FEF751FE00218420C0
:101B1000FEF74DFE00218520FEF749FE132190209F
:101B2000FEF745FE00219220FEF741FE032193209F
:101B3000FEF73DFE4FF488719520FEF738FE40F227
:101B400073110720FEF733FE322001F070FAB5E47E
:101B5000FE48808841F2055188427DD1002107204E
:101B6000FEF725FE322001F062FA4FF48E7112204A
:101B7000FEF71DFE0121A420FEF719FE0F2108200B
:101B8000FEF715FE08210A20FEF711FE08210D20A0
:101B9000FEF70DFE40F207713020FEF708FE072128
:101BA0003120FEF704FE40F203613220FEF7FFFD14
:101BB0004FF4E0613320FEF7FAFD40F202213420B9
:101BC000FEF7F5FD02213520FEF7F1FD41F60F711C
:101BD0003620FEF7ECFD40F207713720FEF7E7FDF7
:101BE00000213820FEF7E3FD00213920FEF7DFFD5C
:101BF00040F207713A20FEF7DAFD00213B20FEF7A4
:101C0000D6FD07213C20FEF7D2FD00213D20FEF746
:101C1000CEFD322001F00BFA01210720FEF7C7FDAF
:101C200001211720FEF7C3FD322001F000FA4FF426
:101C3000BD511020FEF7BBFD40F217211120FEF729
:101C4000B6FD4FF48F711220FEF7B1FD4FF47061B5
:101C50001320FEF7ACFD00E095E000212A20FEF7FE
:101C6000A6FD0A212920FEF7A2FD4FF49F71122044
:101C7000FEF79DFD00215020FEF799FDEF21512038
:101C8000FEF795FD00215220FEF791FD40F23F1135
:101C90005320FEF78CFD4FF41C516020FEF787FDAA
:101CA00001216120FEF783FD00216A20FEF77FFD00
:101CB00000218020FEF77BFD00218120FEF777FDCB
:101CC00000218220FEF773FD00218320FEF76FFDC7
:101CD00000218420FEF76BFD00218520FEF767FDC3
:101CE00013219020FEF763FD4FF440719220FEF720
:101CF0005EFD05219320FEF75AFD00219520FEF799
:101D000056FD00219720FEF752FD00219820FEF796
:101D10004EFD4FF480710120FEF749FD4FF4E06164
:101D20000220FEF744FD41F238010320FEF73FFD9B
:101D300000210420FEF73BFD00210C20FEF737FDBB
:101D400000210F20FEF733FD00212020FEF72FFD9C
:101D500000212120FEF72BFD21210720FEF727FD82
:101D6000142001F064F961210720FEF720FD142002
:101D700001F05DF940F273110720FEF718FD142001
:101D800001F055F997E4714880884BF2055188427B
:101D90007ED100210846FEF70AFD00210846FEF725
:101DA00006FD00210846FEF702FD00210846FEF769
:101DB000FEFC0121A420FEF7FAFC142001F037F903
:101DC0004FF41C516020FEF7F2FC40F20221082083
:101DD000FEF7EDFC4FF405713020FEF7E8FC43F20E
:101DE00015713120FEF7E3FC40F204613220FEF76A
:101DF000DEFC40F616613320FEF7D9FC42F21121D9
:101E00003420FEF7D4FC4FF4A8513520FEF7CFFC68
:101E100048F207513620FEF7CAFC41F2074137204D
:101E2000FEF7C5FC41F203413820FEF7C0FC20213B
:101E30003920FEF7BCFC1A219020FEF7B8FC0021E7
:101E40001020FEF7B4FC07211120FEF7B0FC0021A2
:101E50001220FEF7ACFC00211320FEF7A8FC142092
:101E600001F0E5F84FF4E6611020FEF7A0FC40F227
:101E700037111120FEF79BFC142001F0D8F84FF425
:101E8000DC711220FEF793FC142001F0D0F800E082
:101E900087E04FF470611320FEF789FC80212A202F
:101EA000FEF785FC48212920FEF781FC142001F073
:101EB000BEF84FF480710120FEF779FC4FF4E06129
:101EC0000220FEF774FC41F238010320FEF76FFC9C
:101ED00040F202210820FEF76AFC00210A20FEF7EA
:101EE00066FC00210C20FEF762FC00210D20FEF7AD
:101EF0005EFC30210E20FEF75AFC00215020FEF738
:101F000056FCEF215120FEF752FC00215220FEF733
:101F10004EFC40F23F115320FEF749FC4FF41C5198
:101F20006020FEF744FC01216120FEF740FC002107
:101F30006A20FEF73CFC11219020FEF738FC4FF49C
:101F4000C0619220FEF733FC02E000003C0000205C
:101F500040F202419320FEF72AFC02219420FEF772
:101F600026FC142001F063F801210720FEF71FFC76
:101F7000142001F05CF861210720FEF718FC40F204
:101F800073110720FEF713FC00212020FEF70FFC41
:101F900000212120FEF70BFC22210020FEF707FC88
:101FA00014E3FE4880884CF2055188427ED100211E
:101FB0000846FEF7FCFB00210846FEF7F8FB14205C
:101FC00001F035F800210846FEF7F1FB0021084634
:101FD000FEF7EDFB00210846FEF7E9FB002108466D
:101FE000FEF7E5FB0121A420FEF7E1FB142001F040
:101FF0001EF84FF41C516020FEF7D9FB40F6060195
:102000000820FEF7D4FB40F203713020FEF7CFFB2F
:1020100001213120FEF7CBFB04213220FEF7C7FB64
:102020004FF481713320FEF7C2FB4FF4407134202E
:10203000FEF7BDFB40F203113520FEF7B8FB1F2170
:102040003620FEF7B4FB40F203713720FEF7AFFBFA
:1020500001213820FEF7ABFB04213920FEF7A7FB56
:1020600015219020FEF7A3FB4FF482611020FEF7AC
:102070009EFB40F247211120FEF799FB4FF4DE71E1
:102080001220FEF794FB4FF460611320FEF78FFBE4
:10209000782000F0CCFF4FF480710120FEF787FB21
:1020A0004FF400710220FEF782FB00E050E041F2A5
:1020B00030010320FEF77BFB08210A20FEF777FBA7
:1020C00000210C20FEF773FB20210E20FEF76FFB92
:1020D00000210F20FEF76BFB00212020FEF767FB9D
:1020E00000212120FEF763FB3D212A20FEF75FFB44
:1020F000142000F09CFF2D212920FEF758FB002121
:102100005020FEF754FB4DF2EF015120FEF74FFB3C
:1021100000215220FEF74BFB40F23F115320FEF707
:1021200046FB00216120FEF742FB00216A20FEF7FA
:102130003EFB4FF440719220FEF739FB05219320BE
:10214000FEF735FB4FF480710720FEF730FB3DE2D0
:102150009248808848F6891188427DD1012100206B
:10216000FEF725FB4AF6A4010320FEF720FB002121
:102170000C20FEF71CFB40F60C010D20FEF717FBB0
:102180004FF42C510E20FEF712FBB0211E20FEF75B
:102190000EFB42F63F310120FEF709FB4FF4C06110
:1021A0000220FEF704FB00211020FEF700FB46F2A0
:1021B00078011120FEF7FBFA00210520FEF7F7FA5F
:1021C00000210620FEF7F3FA4EF61C711620FEF7EA
:1021D000EEFA03211720FEF7EAFA40F23321072036
:1021E000FEF7E5FA00210B20FEF7E1FA00210F20AF
:1021F000FEF7DDFA00214120FEF7D9FA0021422046
:10220000FEF7D5FA00214820FEF7D1FA40F23F113F
:102210004920FEF7CCFA00214A20FEF7C8FA002137
:102220004B20FEF7C4FA4FF46F414420FEF7BFFA8B
:1022300000214520FEF7BBFA40F23F114620FEF791
:10224000B6FA40F207713020FEF7B1FA4FF401718F
:102250003120FEF7ACFA00E03DE04FF4017132208E
:10226000FEF7A5FA40F202513320FEF7A0FA40F241
:1022700007513420FEF79BFA4FF401713520FEF729
:1022800096FA4FF401713620FEF791FA40F20251AE
:102290003720FEF78CFA40F202313A20FEF787FA37
:1022A00040F202313B20FEF782FA00212320FEF7A4
:1022B0007EFA00212420FEF77AFA4FF4004125200F
:1022C000FEF775FA00214F20FEF771FA00214E202B
:1022D000FEF76DFA7AE13148808844F23151884244
:1022E0007DD101210020FEF762FA0A2000F09FFE56
:1022F00041F228611020FEF75AFA0E211220FEF753
:1023000056FA40F639211320FEF751FA0A2000F060
:102310008EFE40211120FEF74AFA50211520FEF7CB
:1023200046FA0A2000F083FE1E211220FEF73FFA33
:102330000A2000F07CFE4FF4B1511020FEF737FA6E
:1023400042F639211320FEF732FA0A2000F06FFE20
:102350004FF480710120FEF72AFA4FF440710220F9
:10236000FEF725FA41F238010320FEF720FA40F289
:1023700002210820FEF71BFA08210A20FEF717FAAF
:1023800000213020FEF713FA40F202413120FEF71F
:102390000EFA4FF48371322002E000003C0000206E
:1023A000FEF705FA40F203513320FEF700FA4FF42E
:1023B00082713420FEF7FBF940F201313520FEF73F
:1023C000F6F940F207713620FEF7F1F940F20531D7
:1023D0003720FEF7ECF94FF40271382000E040E0BE
:1023E000FEF7E5F940F60B713920FEF7E0F902211E
:1023F0004120FEF7DCF94FF41C516020FEF7D7F9BD
:1024000001216120FEF7D3F94FF404719020FEF70B
:10241000CEF94FF485719220FEF7C9F9042193207B
:10242000FEF7C5F94FF48071A020FEF7C0F9012135
:102430000720FEF7BCF921210720FEF7B8F9232178
:102440000720FEF7B4F933210720FEF7B0F940F278
:1024500033110720FEF7ABF90021A020FEF7A7F902
:10246000B4E0FB48808844F235518842F8D13021ED
:102470001520FEF79CF910219A20FEF798F92021EB
:102480001120FEF794F943F228411020FEF78FF94E
:1024900002211220FEF78BF941F238011320FEF7DA
:1024A00086F9282000F0C3FD12210846FEF77FF9C7
:1024B000282000F0BCFD43F220411020FEF777F900
:1024C00043F238011320FEF772F9462000F0AFFD09
:1024D00000213020FEF76BF940F202413120FEF777
:1024E00066F940F207313220FEF761F94FF441718D
:1024F0003320FEF75CF904213420FEF758F940F24E
:1025000001413520FEF753F940F207713620FEF7FE
:102510004EF940F205313720FEF749F94FF4C26118
:102520003820FEF744F94FF4C2613920FEF73FF935
:102530004FF480710120FEF73AF94FF44071022008
:10254000FEF735F941F230010320FEF730F940F68D
:1025500008010820FEF72BF908210A20FEF727F9C9
:102560004FF41C516020FEF722F901216120FEF793
:102570001EF94FF49F719020FEF719F94FF4807106
:102580009220FEF714F94FF480719320FEF70FF9B3
:102590004FF44051A020FEF70AF91021A320FEF7C6
:1025A00006F901210720FEF702F921210720FEF795
:1025B000FEF823210720FEF7FAF833210720FEF763
:1025C000F6F840F233110720FEF7F1F80020FEF78D
:1025D0003FFB01209F4908604FF6FF70FEF7AFFBFD
:1025E0001FB000BD2DE9F04F05460E461746984630
:1025F000DDF824A04FF0000B781B401C1FFA80FB75
:10260000344613E021462846FEF7FEF8FEF7DFF8D1
:102610004FF0000906E05046FEF7C1F809F101004D
:102620001FFA80F9D945F6DB601C84B24445E9DD28
:10263000BDE8F08F2DE9F84F07460D4690469946C4
:10264000DDF828B0A8EB0700401C80B20090A9EB91
:102650000500401C1FFA80FA002415E0281981B2F9
:102660003846FEF7D1F8FEF7B2F8002607E004FB83
:102670000A603BF8100078490880701C86B2009808
:102680008642F4DB601C84B25445E7DBBDE8F88F7A
:102690002DE9FF4F84B081468A46002003900290C6
:1026A0000698A0EB09050798A0EB0A06CDF8049060
:1026B000CDF800A0002D01DD012705E00DB90027B0
:1026C00002E04FF0FF376D42002E02DD4FF00108AF
:1026D00006E016B94FF0000802E04FF0FF387642EE
:1026E000B54201DD2C4600E034464FF0000B21E0FE
:1026F000009A91B2019A90B2FEF75CFA03982844CE
:1027000003900298304402900398A04205DD03989C
:10271000001B03900198384401900298A04205DD07
:102720000298001B02900098404400900BF10100B9
:102730001FFA80FB601C8345DADD08B0BDE8F08F2E
:10274000F0B504460D4616461F462B46324629462E
:102750002046FFF79DFF3B46224629462046FFF7CD
:1027600097FF3B46324639462046FFF791FF3B46EE
:10277000324629463046FFF78BFFF0BD2DE9F04386
:1027800006460F469046002445460320A0EB480924
:102790003CE07A1B91B2321990B2FEF70BFA3A1B69
:1027A00091B2721990B2FEF705FA3A1991B2721904
:1027B00090B2FEF7FFF97A1991B2321990B2FEF792
:1027C000F9F97A1991B2321B90B2FEF7F3F93A197E
:1027D00091B2721B90B2FEF7EDF97A1B91B2321BE7
:1027E00090B2FEF7E7F93A1B91B2721B90B2FEF776
:1027F000E1F9641CB9F1000F03DAA000801D8144E7
:1028000004E0601B80000A3081446D1EAC42C0DDD4
:10281000BDE8F0832DE9F84F05460F4690461E4669
:1028200000970E48B0F80090A8F1200000F0FF08D3
:102830000A98002859D1002454E00C2E12D108EB3C
:102840004800074901EB800010F804A00FE00000E9
:102850003C000020808121420008006C160000200E
:10286000B4490008B94800EB081010F804A04FF074
:10287000000B31E00AF0800018B1B548A0F80090D4
:1028800003E0B4480088B249088039462846FEF77C
:1028900091F94FEA4A604FEA106A781C87B2AE4855
:1028A0000088A84204DCAA48A0F80090BDE8F88F90
:1028B0000098381AB0420BD1009F681C85B2A64818
:1028C0000088A84203DCA248A0F80090EEE706E0EA
:1028D0000BF1010000F0FF0BBBF1080FCADB00BFDA
:1028E000601CC4B2B442A8DB44E0002440E00C2EDB
:1028F00007D108EB4800994901EB800010F804A0CB
:1029000004E0924800EB081010F804A04FF0000B10
:1029100028E00AF0800018B139462846FEF74AF947
:102920004FEA4A604FEA106A781C87B28A484088AA
:10293000A84203DC8648A0F80090B7E70098381A50
:10294000B0420BD1009F681C85B283480088A84222
:1029500003DC7F48A0F80090A8E706E00BF1010037
:1029600000F0FF0BBBF1080FD3DB00BF601CC4B24B
:10297000B442BCDB7648A0F8009000BF96E710B5E3
:102980000246012000E050430B00A1F10104E1B236
:10299000F9D110BD2DE9FF4F81B0074691461E4683
:1029A0000E9D4FF0000A002439E0301B401EC1B2DA
:1029B0000A20FFF7E4FFB9FBF0F00A21B0FBF1F2C7
:1029C00001FB1208BAF1000F16D1701EA04213DDF0
:1029D000B8F1000F0ED10020AB4605EBDB714910BA
:1029E00001FB0471009088B22B4620220299FFF768
:1029F00011FF12E04FF0010A0020AB4605EBDB713E
:102A0000491001FB0471009088B208F13001CAB28C
:102A10002B460299FFF7FEFE00BF601CC4B2B44211
:102A2000C3DB05B0BDE8F08F2DE9FF4F82B006464D
:102A300092461F46DDE90F480020019000254DE039
:102A4000781B401EC1B20A20FFF799FFBAFBF0F0D5
:102A50000A21B0FBF1F201FB1209019850BB781E6C
:102A6000A84227DDB9F1000F22D108F0800078B12B
:102A700008F00100A34604EBDB71491001FB05617E
:102A8000009088B2234630220399FFF7C3FE0EE080
:102A900008F00100A34604EBDB71491001FB05615E
:102AA000009088B2234620220399FFF7B3FE13E07B
:102AB0000120019008F00100A34604EBDB714910EE
:102AC00001FB0561009088B209F13001CAB22346CA
:102AD0000399FFF79FFE00BF681CC5B2BD42AFDB84
:102AE00006B0BDE8F08F2DE9F84704460D46904644
:102AF0009946DDE9096704F0FF0A08EB04001FFAB4
:102B000080F809EB05001FFA80F916E0444502DB66
:102B10005446A81985B24D4500DB14E00020009012
:102B20003A78334629462046FFF774FE304606EBD6
:102B3000D07104EB61018CB27F1C38787E2802DCF6
:102B400038782028E2DA00BFBDE8F887284E000870
:102B500016000020180000203C000020B4490008A6
:102B600070B50546002405E0601CC4B2C82C01DD28
:102B7000002070BD02213A4801F093FB0028F3D0F9
:102B80002946374801F03AFB002405E0601CC4B236
:102B9000C82C01DD0020ECE70121314801F081FB68
:102BA0000028F3D02E4801F02BFBC0B2E1E700B5BE
:102BB00087B00121082001F0C1F90121880301F04B
:102BC000CAF94FF46040ADF8180018208DF81B00CA
:102BD00003208DF81A0006A9224800F0F3FE4FF4F6
:102BE0006041204800F09BFF0020ADF804004FF446
:102BF0008270ADF806000020ADF808000220ADF8A4
:102C00000A000120ADF80C004002ADF80E0038209B
:102C1000ADF810000020ADF812000720ADF8140048
:102C200001A90F4801F014FA01210D4801F0B5FA8D
:102C3000FF20FFF795FF07B000BD10B50446084818
:102C400000884FF6C771084005490880084600888B
:102C5000204308800121024801F09FFA10BD0000C6
:102C600000380040000C014000B587B001214FF44E
:102C7000947001F063F94FF48050ADF81800102003
:102C80008DF81B0003208DF81A0006A9BF4800F03C
:102C900099FE4FF48051BD4800F041FF0420ADF88B
:102CA000180010208DF81B000421B94800F037FFF0
:102CB000C020ADF8180006A9B64800F083FE4FF416
:102CC0008070ADF8180028208DF81B0006A9B148C7
:102CD00000F078FE4FF4E071AE4800F022FFFFF7FD
:102CE00066FF0021AC4801F058FA0020ADF804005E
:102CF0004FF48270ADF806000020ADF80800ADF882
:102D00000A00ADF80C004FF40070ADF80E0018206A
:102D1000ADF810000020ADF812000720ADF8140047
:102D200001A99D4801F094F901219B4801F035FA71
:102D300000209A49086001209949C1F89C0107B018
:102D400000BD2DE9F04107460D4616460020934987
:102D5000091D08603846FFF703FF8046002405E0A0
:102D6000FF20FFF7FDFE2855601CC4B2B442F7DB1C
:102D700001208A49091D08604046BDE8F0812DE91F
:102D8000F04107460C46154600208449091D08609D
:102D90003846FFF7E5FE8046002605E014F8010BF3
:102DA000FFF7DEFE701CC6B2AE42F7DB01207B49A6
:102DB000091D08604046BDE8F0811CB579A103C932
:102DC000CDE900010820FFF738FF052269463020D1
:102DD000FFF7D5FF052269461020FFF7B2FF002458
:102DE00006E01DF80400A52800D003E0601CC4B272
:102DF000052CF6DB00BF052C01D001201CBD0020F6
:102E0000FCE770B505460C4600206449091D0860C2
:102E10002846FFF7A5FE06462046FFF7A1FE012043
:102E20005F49C1F89C01304670BD70B50446002072
:102E30005A49091D08602046FFF792FEFF20FFF760
:102E40008FFE054601205649C1F89C01284670BDF9
:102E500070B505461020FFF7F0FE00204F490860CE
:102E600020222946A020FFF78AFF01204C49C1F803
:102E7000980100BF4948783800680028FAD1072037
:102E8000FFF7D3FF044621462720FFF7BAFF04F0DF
:102E9000100028B1FF21E120FFF7B3FF102070BD23
:102EA00004F0200008B12020F9E7FF20F7E770B513
:102EB00004461020FFF7C1FE0720FFF7B6FF0546C6
:102EC00029462720FFF79DFF05F0400050B1202242
:102ED00021466120FFF735FFFF21E220FFF791FF38
:102EE000002070BD0120FCE710B500202B490860D0
:102EF00005222E492A20FFF742FF01212120FFF75A
:102F000080FF01212220FFF77CFF28212520FFF7E9
:102F100078FF20213120FFF774FF0F212620FFF7D3
:102F200070FF0F212020FFF76CFF01201C49C1F822
:102F3000980110BD10B500201849086005221C49F1
:102F40003020FFF71CFF052218492A20FFF717FF42
:102F500001212120FFF755FF01212220FFF751FF1A
:102F60001A212420FFF74DFF28212520FFF749FFD4
:102F70000F212620FFF745FF0E212020FFF741FFFC
:102F800001200749C1F8980110BD0000000C014064
:102F90000014014000200140003800409801244204
:102FA00000002442A5A5A5A5A50000001D54000809
:102FB0001854000810B56FF0040000F07EF92E4898
:102FC00000682E49B0FBF1F02D49087008460078E2
:102FD00000EB4001C1EBC0104FF6FF7101EAC000E9
:102FE0002849088010BD0146254A12784A434FF00F
:102FF000E0235A6100229A611A46126942F00102E6
:103000001A6100BF4FF0E022106900F001021AB10E
:1030100000F48032002AF5D04FF0E022126922F04D
:1030200001024FF0E0231A6100229A6170470146C5
:10303000144A12884A434FF0E0235A6100229A61F1
:103040001A46126942F001021A6100BF4FF0E022F5
:10305000106900F001021AB100F48032002AF5D0A4
:103060004FF0E022126922F001024FF0E0231A61D2
:1030700000229A61704700000000002000127A00D0
:103080001A0000201C00002010B54FF4A06000F0D2
:10309000C5F810BD014600BF704700BF4B4A1288FB
:1030A00002F04002002AF9D0C2B2484B1B1D1A8020
:1030B000704710B586B00446012144F2040000F0C8
:1030C0003DFF424801F024F94FF40070ADF81400C0
:1030D00003208DF8160018208DF8170005A93C482C
:1030E00000F070FC4FF48060ADF8140004208DF8FF
:1030F000170005A9364800F065FC25208DF8000072
:1031000003208DF801008DF8020001208DF80300E6
:10311000684600F088F801940020ADF80800ADF88A
:103120000A00ADF80C00ADF810000C20ADF80E0050
:1031300001A9264801F02FF9012240F22551234828
:1031400001F0C1F90121214801F0B1F906B010BD2B
:1031500010B540F225511D4801F09AFA10B31B48F2
:1031600001F016FAC4B21B48008800F40040C8B948
:103170001848008800F4804060B10A2C03D0002079
:103180001449088020E01348008840F400401149A9
:10319000088019E00D2C06D10E48008840F48040CC
:1031A0000C49088010E00B480088C0F30D000A4964
:1031B0000C5408480088401C0649088008460088CE
:1031C000C72801DD0020088010BD00000038014044
:1031D00000080140240000204600002009488047E4
:1031E00009480047FEE7FEE7FEE7FEE7FEE7FEE7E9
:1031F000FEE7FEE7FEE7FEE704480549054A064B01
:10320000704700004F0500083101000870010020E0
:103210007007002070030020700300203149014333
:10322000314A1160704770B5002100230F22C47825
:1032300004B32D4C246804F4E064C4F5E064210A6E
:10324000C1F10403CA40447804FA03F184781440BD
:1032500021430901254C0678A155047804F01F0587
:103260000124AC4005786D11AD0005F1E025C5F8ED
:10327000004109E0047804F01F050124AC401C4D16
:103280000678761145F8264070BD1A4A0A40024376
:10329000154B1B1F1A60704739B1134A121D126873
:1032A0000243114B1B1D1A6006E00F4A121D1268E3
:1032B00082430D4B1B1D1A607047042808D14FF044
:1032C000E021096941F004014FF0E022116107E0BB
:1032D0004FF0E021096921F004014FF0E022116173
:1032E000704700000000FA050CED00E000E400E08B
:1032F00080E100E080FFFF1F30B943F2DB02810074
:10330000A1F1C0410A6005E043F2D2028100A1F1BF
:10331000C0410A606FF07042411C8900A1F1C041B8
:103320000A608100A1F1C041C1F804217047102852
:103330000AD118214FF020421166402151664FF00A
:10334000FC319166D16610E01821F74A11604021E6
:103350004FF02042C2F884104FF0FC31F24A08329C
:1033600011604FF02042C2F88C1070471820EE49CF
:103370002031086000200906C1F8A4004FF0FC309D
:10338000E94928310860091D0860091D0860704777
:10339000D0E901121143C268114302691143426925
:1033A000114382691143C2691143026A1143426A9F
:1033B0001143826A1143C26A1143026B11430268CE
:1033C0009200A2F1C0421160816808290BD1016806
:1033D0008900A1F1C041096841F0400201688900FB
:1033E000A1F1C0410A60416B0968426B526841EA31
:1033F0000211426B926841EA0221426B928941EAD2
:103400000241426B128A41EA0251426B127D41EA4B
:103410000261426B926911430268521C9200A2F150
:10342000C0421160C16AB1F5804F1BD1816B096840
:10343000826B526841EA0211826B926841EA022172
:10344000826B128A41EA0251826B127D41EA02616B
:10345000826B9269114302689200A2F1C042C2F8E5
:10346000041107E06FF0704201688900A1F1C041CA
:10347000C1F80421704730B50021002200234468C0
:1034800044F0080485682C43C5682C4305692C4327
:10349000456944EA4524856944EA4531C46924689C
:1034A000C5696D6844EA0524C5692D8944EA054467
:1034B000C5692D7B44EA0562046A2468056A6D6863
:1034C00044EA0524056A2D8944EA0544056A2D7BF2
:1034D00044EA05630468102C05D14FF020442166AE
:1034E000A266E36608E0904C21604FF02044C4F8E7
:1034F00088208D4C0C34236030BD016841F01001F0
:10350000426841EA4221826841EA4231864A2032D9
:103510001160C1680968C268526841EA0221C26844
:10352000128941EA0241C268127B41EA02617E4A85
:1035300028321160016909680269526841EA022172
:103540000269128941EA02410269127B41EA026181
:10355000754A2C321160416909684269526841EA32
:1035600002214269128941EA02414269127B41EA21
:1035700002614FF02042C2F8B01070470021016094
:103580000221416000218160C1600161416181616E
:10359000C16101624FF480514162490081620021A2
:1035A000C16201630F21426B1160426B5160FF21C8
:1035B000426B91600F21426BD160426B1161426B93
:1035C00051610021426B91610F21826B1160826B0E
:1035D0005160FF21826B91600F21826BD160826B01
:1035E0001161826B51610021826B916170471021E2
:1035F0000160002141608160C160016141618161C0
:10360000FC21C2691160C2695160C2699160C269DE
:10361000D160026A1160026A5160026A9160026AB6
:10362000D16070470021016041608160FC21C26867
:103630001160C2685160C2689160C268D16002695D
:10364000116002695160026991600269D16042694A
:10365000116042695160426991604269D16070476E
:1036600051B18200A2F1C042126842F0010382000F
:10367000A2F1C042136009E08200A2F1C0421268C8
:103680002A4B1A408300A3F1C0431A60704799B1D6
:10369000102808D14FF02042126E42F004024FF081
:1036A00020431A661DE0204A126842F004024FF0DF
:1036B0002043C3F8802014E0102809D14FF02042A5
:1036C000126E1A4BDB1E1A404FF020431A6608E0B8
:1036D000154A1268154BDB1E1A404FF02043C3F801
:1036E0008020704748B110492031096841F0040139
:1036F0004FF02042C2F8A01009E00B4920310968C0
:103700000A4AD21E11404FF02042C2F8A010704762
:10371000B9B110280CD14FF02042126E42F0400295
:103720004FF020431A661FE0800000A0FEFF0F004C
:10373000724A126842F040024FF02043C3F88020E2
:1037400012E0102808D14FF02042126E6C4B1A4044
:103750004FF020431A6607E0684A1268684B1A4027
:103760004FF02043C3F88020704701460020102905
:1037700003D14FF02042506F02E0604A14321068CB
:10378000704710B5F2B1102807D14FF020435B6E9F
:103790000B434FF02044636632E0B0F5807F08D1E0
:1037A000564B1B1D1B680B434FF02044C4F884305C
:1037B00026E0524B24331B680B434FF02044C4F8DF
:1037C000A4301DE0102807D14FF020435B6E8B43DF
:1037D0004FF02044636613E0B0F5807F08D1474B7B
:1037E0001B1D1B688B434FF02044C4F8843007E056
:1037F000424B24331B688B434FF02044C4F8A43061
:1038000010BD10B5024600200023102A03D14FF04E
:103810002044636E09E0B2F5807F03D1374C241D4C
:10382000236802E0354C2434236803EA01040CB118
:10383000012000E0002010BD102807D14FF02042E9
:10384000526E8A434FF020435A6613E0B0F5807FF2
:1038500008D12A4A121D12688A434FF02043C3F848
:10386000842007E0254A243212688A434FF020431F
:10387000C3F8A420704770B502460020002300243E
:103880000025102A03D14FF02046736E09E0B2F5EF
:10389000807F03D1194E361D336802E0174E24365F
:1038A000336803EA010403EAD10514B10DB1012024
:1038B00000E0002070BD102808D14FF02042526E69
:1038C00022EAD1024FF020435A6615E0B0F5807F1E
:1038D00009D10A4A121D126822EAD1024FF0204390
:1038E000C3F8842008E0054A2432126822EAD10293
:1038F0004FF02043C3F8A42070470000800000A0D0
:10390000BFFF0F0010B50446CC48844208D1012106
:10391000042000F02DFB0021042000F029FB46E0EC
:10392000C748844208D10121082000F021FB002172
:10393000082000F01DFB3AE0C248844208D1012172
:10394000102000F015FB0021102000F011FB2EE0EC
:10395000BD48844208D10121202000F009FB00214C
:10396000202000F005FB22E0B848844208D1012164
:10397000402000F0FDFA0021402000F0F9FA16E0A6
:10398000B348844208D10121802000F0F1FA0021DF
:10399000802000F0EDFA0AE0AE48844207D1012110
:1039A000801500F0E5FA0021A01500F0E1FA10BD45
:1039B00010B50121084600F0DBFA0021012000F0DB
:1039C000D7FA10BD2DE9F04102460025002600205F
:1039D00000230024002791F803C00CF00F0591F894
:1039E00003C00CF0100CBCF1000F03D091F802C022
:1039F0004CEA050591F800C0BCF1000F31D0146805
:103A000000202BE04FF0010C0CFA00F3B1F800C0DD
:103A10000CEA03069E4220D183004FF00F0C0CFAF3
:103A200003F7BC4305FA03FC4CEA040491F803C015
:103A3000BCF1280F06D14FF0010C0CFA00FCC2F8C3
:103A400014C00AE091F803C0BCF1480F05D14FF053
:103A5000010C0CFA00FCC2F810C0401C0828D1D39D
:103A60001460B1F800C0BCF1FF0F34DD54680020D1
:103A70002EE000F1080C4FF0010808FA0CF3B1F841
:103A800000C00CEA03069E4221D183004FF00F0CC8
:103A90000CFA03F7BC4305FA03FC4CEA040491F862
:103AA00003C0BCF1280F05D100F1080C08FA0CF88E
:103AB000C2F8148091F803C0BCF1480F07D100F19F
:103AC000080C4FF0010808FA0CF8C2F81080401CEE
:103AD0000828CED35460BDE8F0814FF6FF71018015
:103AE000022181700421C170704702460020936852
:103AF0000B400BB1012000E00020704701468868B0
:103B000080B2704702460020D3680B400BB1012001
:103B100000E0002070470146C86880B2704701612C
:103B20007047416170470AB1016100E0416170472F
:103B3000C16070474FF480320A43826181618261C3
:103B400082698269704702460020434B18684FF62D
:103B50008073184040EA021008433F4B18607047DA
:103B60003E49C8617047F0B50A4600230024002191
:103B7000002500F00046B6F1004F02D1364EF16943
:103B800001E0354E7168C0F3034583B200F440167E
:103B9000B6F5401F08D121F070612F4E766826F0EF
:103BA00070662D4F7E6012E000F48016B6F5801F1F
:103BB00006D1032606FA05F4A14341F0706106E040
:103BC000460D360103FA06F6B14341F0706122B1A9
:103BD000460D360103FA06F6314300F00046B6F111
:103BE000004F02D11C4EF16101E01B4E7160F0BD2F
:103BF00030B500228B071C0F0F2303FA04F2164B7B
:103C000008338C1053F824309343134C08348D1030
:103C100044F8253023468C1053F824308C07240FA9
:103C200000FA04F423430C4C08348D1044F825307A
:103C300030BD0A49DC3108607047000000080140CF
:103C4000000C014000100140001401400018014028
:103C5000001C014000200140000001400000204203
:103C6000DF48006840F00100DD4908600846406810
:103C7000DC490840DA49486008460068DA490840EB
:103C8000D74908600846006820F48020086008468C
:103C9000406820F4FE0048604FF41F0088607047C1
:103CA000CF49096821F48031CD4A11601146096875
:103CB00021F480211160B0F5803F03D0B0F5802F52
:103CC0000ED106E0C649096841F48031C44A11604A
:103CD00007E0C349096841F4A021C14A116000E02E
:103CE00000BF00BF704710B501460022002300202E
:103CF0004A11012A02D1BA4C236806E0022A02D1F5
:103D0000B74C236A01E0B64C636A01F01F0201243C
:103D100094401C400CB1012000E0002010BD38B5DB
:103D2000002000900024002500BF3120FFF7DBFFBA
:103D300005460098401C00900098B0F5A06F01D097
:103D4000002DF2D03120FFF7CEFF08B1012400E0B2
:103D50000024204638BD01460020A14A106820F00A
:103D6000F80040EAC10010607047A0490860704741
:103D7000024600209A4B586820F47C1042EA010366
:103D80001843974B5860704798490866704701463A
:103D90000020934A506820F00300084350607047A9
:103DA0008F48406800F00C007047014600208C4AA4
:103DB000506820F0F0000843506070470146002032
:103DC000874A506820F4E06008435060704701461D
:103DD0000020834A506820F4605040EAC1005060DF
:103DE000704729B17E4A527A02437D4B5A7204E0F1
:103DF0007B4A527A82437A4B5A7270477B49D83158
:103E00000860704701460020754A506820F4404021
:103E10000843506070470021714A20321170704A87
:103E200082F82010012802D004280AD104E00121E0
:103E30006B4A2032117005E00521694A2032117069
:103E400000E000BF00BF70476949086070476449DF
:103E5000096A0143624A1162704765494439086042
:103E6000704730B500210022002400235C4D6D68AE
:103E700005F00C0121B1042905D0082923D105E062
:103E80005C4D056022E05B4D05601FE0544D6D68A0
:103E900005F47012524D6D6805F48034022505EB6F
:103EA00092421CB9544D554305600BE04C4D6D6872
:103EB00005F400351DB1504D5543056002E04D4DF0
:103EC0005543056002E04B4D056000BF00BF444D07
:103ED0006D6805F0F0010909484D6B5C0568DD402F
:103EE00045603F4D6D6805F4E061090A434D6B5C28
:103EF0004568DD4085603A4D6D6805F46051C90A3A
:103F00003E4D6B5C4568DD40C560354D6D6805F420
:103F10004041890B3A4D6B5CC568B5FBF3F5056113
:103F200030BD29B12E4A526902432D4B5A6104E03B
:103F30002B4A526982432A4B5A61704729B1284A59
:103F400092690243264B9A6104E0254A92698243B2
:103F5000234B9A61704729B1214AD2690243204B11
:103F6000DA6104E01E4AD26982431D4BDA61704770
:103F700029B11B4AD2680243194BDA6004E0184A9F
:103F8000D2688243164BDA60704729B1144A12692D
:103F90000243134B1A6104E0114A12698243104B29
:103FA0001A61704712494039086070470F49C86468
:103FB00070470B49C87170470948406A40F08070EB
:103FC00007494862704701460020054A92680A4046
:103FD0000AB1012000E00020704701498872704753
:103FE000001002400000FFF8FFFFF6FE0000424212
:103FF0008004424200127A0000093D0026000020A1
:104000003600002010B50446BE48844208D1012184
:104010008014FFF7ADFF0021A014FFF7A9FF16E001
:10402000B948844208D101210014FFF7AEFF0021F6
:104030002014FFF7AAFF0AE0B448844207D1012107
:10404000C013FFF7A2FF0021E013FFF79EFF10BD92
:1040500010B50022028802F441520B884C88234399
:104060008C882343CC8823430C8923434C892343E6
:104070008C892343CC8923431A430280838B4FF2DC
:10408000FF74234083830B8A038210BD2DE9F04F18
:1040900085B005460C464FF0000902274FF0000896
:1040A0004FF0010B0026B246A88B4FF240010840AA
:1040B000A88302202884B5F81C90A068022801D1AA
:1040C00000BF38E0A08810B94FF0010B01E04FF0BD
:1040D000020B8D48854200D100E000BF6846FFF723
:1040E000C0FEDDF800A0E088B0F5007F0AD14FEAFD
:1040F0001A2000EB80004000A168B0FBF1F0401DE9
:1041000086B20BE04FEA4B10BAFBF0F000EB8000F8
:104110004000A168B0FBF1F0401D86B20A20B6FB5A
:10412000F0F606F00108A6EB0800C0F34F074FF6C3
:10413000FF7000EA0828022F01DBFF2F02DD0227B3
:104140004FF00008E08840EA080038432884A0883F
:10415000A1890843618808432188084340F400602E
:1041600040EA0909A5F81C9005B0BDE8F08F0021D0
:10417000018041808180C180018141818181C18133
:104180000721018270470021018041808180C18028
:104190000221816000218181704721B1028842F0B3
:1041A0004002028004E002884FF6BF731A4002808A
:1041B000704721B1828B42F48062828304E0828B5B
:1041C0004FF6FF331A408283704730B50024002336
:1041D0000C110125A540ABB21AB185881D4385801D
:1041E00002E085889D43858030BD1AB183880B43EA
:1041F000838002E083888B4383807047818170478E
:104200000146888970474FF6FF62914204D00288C8
:1042100042F48072028004E002884FF6FF631A4085
:104220000280704721B1828842F00402828004E05B
:1042300082884FF6FB731A408280704702884FF2E3
:10424000FF731A40028002880A4302807047018887
:1042500041F480510180704721B1028842F400523C
:10426000028004E002884DF6FF731A400280704716
:1042700002460020012901D0108B00E0908A70478F
:104280000146088A7047B1F5804F04D1028842F494
:104290008042028004E002884BF6FF731A400280DD
:1042A00070470246002013890B400BB1012000E04B
:1042B00000207047CA4302817047F0B502460020D3
:1042C00000240023002501F00F070126BE40B4B2F0
:1042D0000B1101269E40B3B2968806EA03051689A3
:1042E000264016B10DB1012000E00020F0BD10B550
:1042F000002201F00F040123A3409AB2D3430381AB
:1043000010BD00000030014000380040003C00407B
:1043100010B50446FB48844209D101218803FFF708
:1043200027FE00214FF48040FFF722FE32E0F648DE
:10433000844209D101214804FFF727FE00214FF4F0
:104340000030FFF722FE25E0F048844209D1012128
:104350008804FFF71AFE00214FF48020FFF715FEB6
:1043600018E0EB48844209D10121C804FFF70DFE93
:1043700000214FF40020FFF708FE0BE0E5488442DF
:1043800008D101210805FFF700FE00214FF480103D
:10439000FFF7FBFD10BD2DE9F04786B005460E4640
:1043A0000024A24600BFA1460027B08900B100BF8B
:1043B0002F462C8A4CF6FF700440F08804432C8270
:1043C000AC894EF6F3100440B088318908437189F6
:1043D00008430443AC81AC8A4FF6FF400440B089E7
:1043E0000443AC8201A8FFF73CFDC648874202D1D6
:1043F000DDF810A001E0DDF80CA0A88900F4004071
:1044000040B10AEBCA0000EB0A1031684900B0FB6A
:10441000F1F807E00AEBCA0000EB0A1031688900E6
:10442000B0FBF1F86420B8FBF0F00401200964212E
:1044300001FB1089A88900F4004040B1322000EB54
:10444000C900B0FBF1F000F00700044308E032209F
:1044500000EB09106421B0FBF1F000F00F00044301
:104460002C8106B0BDE8F0874FF4165101600021A1
:104470008180C18001810C214181002181817047AF
:1044800010B502460020108A4FF2FF0318400B8837
:104490004C8823438C882343CC88234318431082C1
:1044A00010BD0021018041808180C180704721B111
:1044B000828942F40052828104E082894DF6FF73C2
:1044C0001A4082817047F0B503460024002600257B
:1044D000002040F66A17B94200D100BF1846C1F368
:1044E000421401F01F06012707FA06F5012C01D13D
:1044F0000C3004E0022C01D1103000E014301AB16D
:1045000007682F43076002E00768AF430760F0BD0C
:104510001AB1838A0B43838202E0838A8B438382AE
:104520007047028A4FF6F0731A400282028A0A43E9
:104530000282704782894FF2FF731A40828182891A
:104540000A438281704721B1828942F0020282814E
:1045500004E082894FF6FD731A4082817047028A17
:104560004FF6DF731A400282028A0A4302827047C2
:1045700021B1028A42F48042028204E0028A4BF6B0
:10458000FF731A4002827047C1F3080282807047AD
:1045900001468888C0F308007047818941F0010115
:1045A00081817047028BD2B20283028B42EA0122E0
:1045B00002837047028B02F47F420283028B0A431C
:1045C0000283704721B1828A42F02002828204E095
:1045D000828A4FF6DF731A408282704721B1828A45
:1045E00042F01002828204E0828A4FF6EF731A4092
:1045F0008282704721B1828A42F00802828204E0FE
:10460000828A4FF6F7731A408282704721B18289FD
:1046100042F40042828103E08289C2F30E02828169
:10462000704721B1828A42F40062828204E0828A69
:104630004FF2FF731A4082827047828A4FF6FB73F3
:104640001A408282828A0A438282704721B1828A1A
:1046500042F00202828204E0828A4FF6FD731A4021
:104660008282704702460020B1F5007F00D100BF72
:1046700013880B400BB1012000E00020704701F4CB
:104680000072B2F5007F00D100BFCA4302807047BC
:1046900070B50246002400230025002040F66A166B
:1046A000B14200D100BFC1F3421501F01F03012642
:1046B00006FA03F3012D02D19689334006E0022D5C
:1046C00002D1168A334001E0968A33400C1201264B
:1046D00006FA04F41688344013B10CB1012000E04E
:1046E000002070BD10B50022002340F66A14A142DC
:1046F00000D100BF0A1201249440A3B2DC4304801D
:1047000010BD000000380140004400400048004057
:10471000004C004000500040704700000FB40449B6
:1047200010B503AA029800F0E7F810BC5DF814FB7E
:10473000200000202DE9F0410E46044600202062B2
:104740002046E168884730B3252805D0D4E9012107
:104750009047206A401CF2E7E1682046002788471E
:10476000050018D0A5F14100192802D820354FF4D2
:1047700000673246294620462760FBF713FD40B10B
:10478000012804D0F61D26F007060836D8E7361DA6
:10479000D6E72846DAE7206ABDE8F08170B504461E
:1047A0000D4621461068AFF300802188090502D527
:1047B0000F4A7A4402E00E4A7A440E32002104F194
:1047C000240305E000F00F060009965D5E54491CC5
:1047D0000028F7D120780023000704D5702D02D0DF
:1047E00009B1022311322046BDE8704000F02AB81A
:1047F0006C0C000040EA0103024630B59B0710D163
:104800004FF0013400E008C208C91D1B9D4315EAA2
:10481000C41FF8D013F0FF0102F8011B0DD01B0AD2
:10482000F8E711F8013B002B02F8013B05D011F825
:10483000013B002B02F8013BF3D130BD70477047BC
:10484000704770472DE9F0470D4699469246044659
:1048500000F124080168880604D5E06921F0100100
:10486000216000E00120A84201DD471B00E0002795
:10487000A1697A1902EB0900081AA0612078C00624
:1048800002D42046AFF30080002608E0D4E90121DD
:104890001AF806009047206A401C761C20624E459C
:1048A000F4DB2078C0060AD52046AFF3008006E08E
:1048B000D4E9012130209047206A401C2062381E34
:1048C000A7F10107F4DC07E0D4E9012118F805009D
:1048D0009047206A401C2062281EA5F10105F3DCE8
:1048E0002046AFF300802078000602D50220BDE804
:1048F000F0870120FBE70000074B70B50D467B44B5
:1049000000F011F80446284600F020F810B14FF0EE
:10491000FF3070BD204670BD99E7FFFF01694A1C5A
:1049200002610878704700B58FB0CDE901310021F0
:10493000059105497944CDE9031011466846FFF712
:10494000F9FE0FB000BD0000E5FFFFFF007B00F0A7
:1049500080007047754600F029F8AE4605006946AC
:10496000534620F00700854618B020B5FEF744FCFA
:10497000BDE820404FF000064FF000074FF0000860
:104980004FF0000B21F00701AC46ACE8C009ACE8E1
:10499000C009ACE8C009ACE8C0098D4670470446C0
:1049A000AFF300802046FBF70FFC00000048704783
:1049B00010010020000000000000000000000000C6
:1049C000000000003F400000000000000000300038
:1049D000400030004000000009000BC03D000BC04B
:1049E0003D00090018C024407FE0224031800000D3
:1049F000180024C01B000D803240018003801C4041
:104A000027401C80074000401000600000000000AC
:104A1000000000000000000000001F802040402037
:104A20000000402020401F80000000000900060018
:104A30001F80060009000000040004003F800400FD
:104A400004000000001000600000000000000000F2
:104A50000400040004000400040000000000004002
:104A60000000000000000000002001C00600380027
:104A7000400000001F802040204020401F80000098
:104A8000000010403FC000400000000018C021405E
:104A90002240244018400000108020402440244040
:104AA0001B80000002000D0011003FC0014000000B
:104AB0003C80244024402440238000001F80244068
:104AC00024403440038000003000200027C038001C
:104AD000200000001B802440244024401B80000054
:104AE0001C0022C0224022401F8000000000000065
:104AF000084000000000000000000000046000000A
:104B000000000000000004000A0011002080404066
:104B100009000900090009000900000000004040E8
:104B2000208011000A000400180020002340240007
:104B3000180000001F802040274029401F4000002F
:104B4000004007C039000F0001C0004020403FC0B6
:104B5000244024401B8000001F8020402040204033
:104B60003080000020403FC0204020401F800000D7
:104B700020403FC024402E4030C0000020403FC0B5
:104B800024402E00300000000F0010802040224002
:104B90003380020020403FC0040004003FC020409A
:104BA000204020403FC020402040000000602020E6
:104BB00020203FC02000200020403FC024400B00A8
:104BC00030C0204020403FC020400040004000C096
:104BD0003FC03C0003C03C003FC0000020403FC03D
:104BE0000C4023003FC020001F8020402040204078
:104BF0001F80000020403FC0244024001800000017
:104C00001F802140214020E01FA0000020403FC025
:104C10002440260019C0004018C0244024402240EF
:104C200031800000300020403FC0204030000000B4
:104C300020003F80004000403F80200020003E00D8
:104C400001C0070038002000380007C03C0007C042
:104C500038000000204039C0060039C02040000064
:104C60002000384007C0384020000000304021C0FC
:104C70002640384020C00000000000007FE04020B7
:104C800040200000000070000C0003800040000085
:104C90000000402040207FE00000000000002000D5
:104CA0004000200000000000001000100010001064
:104CB0000010001000000000400000000000000094
:104CC000000002800540054003C0004020003FC0B6
:104CD00004400440038000000000038004400440BE
:104CE0000640000000000380044024403FC0004014
:104CF0000000038005400540034000000000044020
:104D00001FC0244024402000000002E00550055050
:104D10000650042020403FC00440040003C000406F
:104D20000000044027C000400000000000100010F8
:104D3000041027E00000000020403FC001400700B1
:104D400004C00440204020403FC00040004000001C
:104D500007C0040007C0040003C00000044007C0EF
:104D60000440040003C000400000038004400440ED
:104D700003800000041007F004500440038000008A
:104D8000000003800440045007F00010044007C0F6
:104D900002400400040000000000064005400540F9
:104DA00004C00000000004001F8004400040000018
:104DB000040007800040044007C0004004000700D2
:104DC00004C0018006000400060001C0070001C005
:104DD00006000000044006C0010006C004400000B8
:104DE0000410071004E001800600040000000440E5
:104DF00005C00640044000000000000004007BE005
:104E000040200000000000000000FFF00000000053
:104E1000000040207BE00400000000004000800013
:104E200040002000200040000000000000000000C2
:104E300000000000000000000000000000001FCC87
:104E4000000C0000000000000000080030006000BE
:104E50000800300060000000022003FC1E20022039
:104E600003FC1E200220000000000E1811043FFF6A
:104E700010840C78000000000F0010840F3800C070
:104E8000077818840078000000780F8410C411247B
:104E90000E9800E40084000808006800700000001C
:104EA000000000000000000000000000000007E01B
:104EB00018182004400200000000400220041818C6
:104EC00007E00000000000000240024001800FF0F7
:104ED00001800240024000000080008000800FF846
:104EE00000800080008000000001000D000E000026
:104EF0000000000000000000000000800080008032
:104F000000800080008000800000000C000C000089
:104F10000000000000000000000000060018006013
:104F20000180060018002000000007F008081004A7
:104F30001004080807F000000000080408041FFC23
:104F4000000400040000000000000E0C10141024E7
:104F5000104411840E0C000000000C181004110401
:104F6000110412880C700000000000E003200424EB
:104F700008241FFC0024000000001F981084110466
:104F80001104108810700000000007F00888110458
:104F9000110418880070000000001C00100010FCB4
:104FA00013001C001000000000000E381144108493
:104FB000108411440E38000000000700088C1044D3
:104FC0001044088807F00000000000000000030CF7
:104FD000030C0000000000000000000000010106BA
:104FE00000000000000000000000008001400220DE
:104FF00004100808100400000220022002200220F1
:105000000220022002200000000010040808041002
:10501000022001400080000000000E001200100C71
:10502000106C10800F00000003E00C1813E414242F
:1050300017C4082807D000000004003C03C41C402B
:10504000074000E4001C000410041FFC11041104BC
:1050500011040E880070000003E00C181004100406
:10506000100410081C10000010041FFC1004100491
:105070001004080807F0000010041FFC11041104BC
:1050800017C410040818000010041FFC11041100BC
:1050900017C010000800000003E00C1810041004F2
:1050A00010441C780040000010041FFC1084008095
:1050B000008010841FFC10040000100410041FFC6A
:1050C0001004100400000000000300011001100192
:1050D0001FFE10001000000010041FFC11040380CC
:1050E0001464181C1004000010041FFC10040004B9
:1050F00000040004000C000010041FFC1F0000FC52
:105100001F001FFC1004000010041FFC0C0403000F
:1051100000E010181FFC100007F00808100410042D
:105120001004080807F0000010041FFC1084108011
:10513000108010800F00000007F0081810241024C1
:10514000101C080A07F2000010041FFC11041100D3
:1051500011C011300E0C000400000E1C110410844C
:10516000108410441C3800001800100010041FFCAC
:10517000100410001800000010001FF810040004B4
:10518000000410041FF8100010001E0011E0001CA5
:10519000007013801C0010001FC0103C00E01F00B6
:1051A00000E0103C1FC000001004180C163401C0B1
:1051B00001C01634180C100410001C00130400FC6D
:1051C00013041C00100000000804101C106410845C
:1051D00013041C04101800000000000000007FFEF3
:1051E0004002400240020000000030000C0003803A
:1051F0000060001C0003000000004002400240026A
:105200007FFE0000000000000000000020004000C1
:1052100040004000200000000001000100010001EA
:1052200000010001000100010000400040002000DA
:10523000000000000000000000000098012401446C
:105240000144014400FC000410001FFC008801041C
:105250000104008800700000000000700088010454
:1052600001040104008800000000007000880104AF
:10527000010411081FFC0004000000F8014401446F
:105280000144014400C800000000010401040FFCB7
:105290001104110411001800000000D60129012991
:1052A000012901C90106000010041FFC008401004F
:1052B0000100010400FC000400000104190419FCB1
:1052C00000040004000000000000000300010101D0
:1052D000190119FE0000000010041FFC002400400A
:1052E00001B4010C010400000000100410041FFCB4
:1052F0000004000400000000010401FC010401009E
:1053000001FC0104010000FC010401FC0084010017
:105310000100010400FC0004000000F80104010485
:105320000104010400F80000010101FF00850104EF
:105330000104008800700000000000700088010473
:105340000104010501FF00010104010401FC0084C6
:105350000104010001800000000000CC01240124B0
:10536000012401240198000000000100010007F859
:105370000104010400000000010001F80004000421
:105380000004010801FC0004010001800170000C10
:10539000001001600180010001F0010C003001C02B
:1053A0000030010C01F0010000000104018C0074C8
:1053B0000170018C01040000010101810171000EE6
:1053C000001801600180010000000184010C01341B
:1053D00001440184010C00000000000000000000F6
:1053E00001003EFC400240020000000000000000FE
:1053F000FFFF0000000000000000400240023EFCF1
:10540000010000000000000000006000800080003B
:1054100040004000200020003443101001344310AD
:105420001001303132333435363738394142434454
:10543000454640305800303132333435363738390C
:105440006162636465664030780000006C54000857
:10545000000000203C0000006C010008A854000877
:105460003C000020340700008801000800A24A0424
:105470000000000000000000010203040607080904
:1054800001000000FFFF000000000000000000001D
:1054900000000000000001020304010203040607EB
:0854A0000809020406080000DF
:0400000508000131BD
:00000001FF
