:020000040800F2
:10000000E8040020010100086D0200086F020008EA
:1000100073020008770200087B020008000000005D
:100020000000000000000000000000007F02000847
:100030008102000800000000830200088502000819
:100040001B0100081B0100081B0100081B01000820
:100050001B0100081B0100081B0100081B01000810
:100060001B0100081B0100081B0100081B01000800
:100070001B0100081B0100081B0100081B010008F0
:100080001B0100081B0100081B0100081B010008E0
:100090001B0100081B0100081B0100081B010008D0
:1000A0001B0100081B0100081B0100081B010008C0
:1000B0001B0100081B0100081B0100081B010008B0
:1000C0001B0100081B0100081B0100081B010008A0
:1000D0001B0100081B0100081B0100081B01000890
:1000E0001B0100081B0100081B010008DFF80CD0F1
:1000F00003F0E0FF0048004725010008E804002065
:100100000648804706480047FEE7FEE7FEE7FEE7B1
:10011000FEE7FEE7FEE7FEE7FEE7FEE79B1F0008BF
:10012000ED0000088CB0002002900390049046A1DE
:1001300003C9CDE9000102F007F801F0B1FF4FF467
:10014000E13002F073F802F03FF802F0C9F802F073
:1001500009FA002140F2E73003F0E8F803F013F861
:1001600002F014FE03F0A8F903F0AAF903F0AEF9C7
:1001700003F0D7FA66E002F02CFE08A802F08CFC2F
:1001800005A802F0E1FC02E031A003F0B5FF03F0A6
:1001900033FA0028F8D102A803F0A6FA002837D1D4
:1001A00002A92CA003F0A8FF9DF808002B2804D179
:1001B00029480068401C284908609DF808002D283F
:1001C00004D125480068401E2349086023A102A8E5
:1001D00003F090FB18B921A1684603F099FB1AA11E
:1001E00002A803F087FB18B917A1684603F090FB3B
:1001F00019480068002802DA00201749086069469B
:1002000018A003F079FF1448016817A003F074FFE9
:1002100012A1684603F06EFB28B900214FF0804020
:1002200001F080FC0EE008A1684603F063FB48B9CA
:100230000948008800EB80004004010C4FF080402A
:1002400001F070FC97E700007374617274000000A5
:100250006E6F0000257300000000002073746F7043
:10026000000000002573090025640A00704700BFE4
:10027000FEE700BFFEE700BFFEE700BFFEE77047F6
:10028000704770477047000010B50446CC48844260
:1002900008D10121042000F02DFB0021042000F0F2
:1002A00029FB46E0C748844208D10121082000F01C
:1002B00021FB0021082000F01DFB3AE0C2488442E7
:1002C00008D10121102000F015FB0021102000F0C2
:1002D00011FB2EE0BD48844208D10121202000F00E
:1002E00009FB0021202000F005FB22E0B8488442F1
:1002F00008D10121402000F0FDFA0021402000F04B
:10030000F9FA16E0B348844208D10121802000F0B8
:10031000F1FA0021802000F0EDFA0AE0AE488442B4
:1003200007D10121801500F0E5FA0021A01500F0A9
:10033000E1FA10BD10B50121084600F0DBFA0021FA
:10034000012000F0D7FA10BD2DE9F041024600254A
:100350000026002000230024002791F803C00CF0A1
:100360000F0591F803C00CF0100CBCF1000F03D086
:1003700091F802C04CEA050591F800C0BCF1000FED
:1003800031D0146800202BE04FF0010C0CFA00F380
:10039000B1F800C00CEA03069E4220D183004FF062
:1003A0000F0C0CFA03F7BC4305FA03FC4CEA0404F7
:1003B00091F803C0BCF1280F06D14FF0010C0CFAE4
:1003C00000FCC2F814C00AE091F803C0BCF1480F69
:1003D00005D14FF0010C0CFA00FCC2F810C0401C13
:1003E0000828D1D31460B1F800C0BCF1FF0F34DD90
:1003F000546800202EE000F1080C4FF0010808FAC4
:100400000CF3B1F800C00CEA03069E4221D1830030
:100410004FF00F0C0CFA03F7BC4305FA03FC4CEA4F
:10042000040491F803C0BCF1280F05D100F1080CB9
:1004300008FA0CF8C2F8148091F803C0BCF1480F18
:1004400007D100F1080C4FF0010808FA0CF8C2F8C7
:100450001080401C0828CED35460BDE8F0814FF6D0
:10046000FF710180022181700421C1707047024632
:10047000002093680B400BB1012000E00020704782
:100480000146886880B2704702460020D3680B405E
:100490000BB1012000E0002070470146C86880B21F
:1004A000704701617047416170470AB1016100E026
:1004B00041617047C16070474FF480320A438261E6
:1004C0008161826182698269704702460020434BE4
:1004D00018684FF68073184040EA021008433F4BFB
:1004E000186070473E49C8617047F0B50A4600235E
:1004F00000240021002500F00046B6F1004F02D193
:10050000364EF16901E0354E7168C0F3034583B2A0
:1005100000F44016B6F5401F08D121F070612F4E4F
:10052000766826F070662D4F7E6012E000F480162B
:10053000B6F5801F06D1032606FA05F4A14341F063
:10054000706106E0460D360103FA06F6B14341F04C
:10055000706122B1460D360103FA06F6314300F010
:100560000046B6F1004F02D11C4EF16101E01B4E76
:100570007160F0BD30B500228B071C0F0F2303FA0A
:1005800004F2164B08338C1053F824309343134C69
:1005900008348D1044F8253023468C1053F824304D
:1005A0008C07240F00FA04F423430C4C08348D10FC
:1005B00044F8253030BD0A49DC310860704700003E
:1005C00000080140000C01400010014000140140EF
:1005D00000180140001C01400020014000000140C3
:1005E00000002042DF48006840F00100DD4908605B
:1005F00008464068DC490840DA4948600846006817
:10060000DA490840D74908600846006820F480208D
:1006100008600846406820F4FE0048604FF41F0060
:1006200088607047CF49096821F48031CD4A116054
:100630001146096821F480211160B0F5803F03D094
:10064000B0F5802F0ED106E0C649096841F480312B
:10065000C44A116007E0C349096841F4A021C14AB6
:10066000116000E000BF00BF704710B501460022D6
:10067000002300204A11012A02D1BA4C236806E067
:10068000022A02D1B74C236A01E0B64C636A01F03A
:100690001F02012494401C400CB1012000E0002006
:1006A00010BD38B5002000900024002500BF312087
:1006B000FFF7DBFF05460098401C00900098B0F55E
:1006C000A06F01D0002DF2D03120FFF7CEFF08B18E
:1006D000012400E00024204638BD01460020A14A44
:1006E000106820F0F80040EAC10010607047A0498F
:1006F00008607047024600209A4B586820F47C102E
:1007000042EA01031843974B5860704798490866BE
:10071000704701460020934A506820F003000843C8
:10072000506070478F48406800F00C0070470146E9
:1007300000208C4A506820F0F00008435060704759
:1007400001460020874A506820F4E060084350606A
:10075000704701460020834A506820F4605040EA08
:10076000C1005060704729B17E4A527A02437D4BE6
:100770005A7204E07B4A527A82437A4B5A7270472B
:100780007B49D8310860704701460020754A50689F
:1007900020F440400843506070470021714A2032E5
:1007A0001170704A82F82010012802D004280AD162
:1007B00004E001216B4A2032117005E00521694AED
:1007C0002032117000E000BF00BF70476949086027
:1007D00070476449096A0143624A1162704765497A
:1007E00044390860704730B50021002200240023FE
:1007F0005C4D6D6805F00C0121B1042905D0082974
:1008000023D105E05C4D056022E05C4D05601FE0F2
:10081000544D6D6805F47012524D6D6805F48034C6
:10082000022505EB92421CB9554D554305600BE07E
:100830004C4D6D6805F400351DB14F4D55430560B5
:1008400002E04E4D5543056002E04B4D056000BF90
:1008500000BF444D6D6805F0F0010909494D6B5C1E
:100860000568DD4045603F4D6D6805F4E061090AAB
:10087000444D6B5C4568DD4085603A4D6D6805F41C
:100880006051C90A3F4D6B5C4568DD40C560354D20
:100890006D6805F44041890B3B4D6B5CC568B5FB49
:1008A000F3F5056130BD29B12E4A526902432D4B43
:1008B0005A6104E02B4A526982432A4B5A617047BD
:1008C00029B1284A92690243264B9A6104E0254ADD
:1008D00092698243234B9A61704729B1214AD269B8
:1008E0000243204BDA6104E01E4AD26982431D4B69
:1008F000DA61704729B11B4AD2680243194BDA60AA
:1009000004E0184AD2688243164BDA60704729B176
:10091000144A12690243134B1A6104E0114A126926
:100920008243104B1A617047124940390860704782
:100930000F49C86470470B49C87170470948406A3D
:1009400040F0807007494862704701460020054A20
:1009500092680A400AB1012000E000207047014976
:1009600088727047001002400000FFF8FFFFF6FE9B
:10097000000042428004424200127A000024F40047
:1009800000093D00040000201400002010B50446BA
:10099000FB48844209D101218803FFF7ABFF002106
:1009A0004FF48040FFF7A6FF32E0F648844209D1B9
:1009B00001214804FFF7ABFF00214FF40030FFF79F
:1009C000A6FF25E0F048844209D101218804FFF701
:1009D0009EFF00214FF48020FFF799FF18E0EB48BD
:1009E000844209D10121C804FFF791FF00214FF48F
:1009F0000020FFF78CFF0BE0E548844208D101217D
:100A00000805FFF784FF00214FF48010FFF77FFFF8
:100A100010BD2DE9F04786B005460E460024A246DB
:100A200000BFA1460027B08900B100BF2F462C8A25
:100A30004CF6FF700440F08804432C82AC894EF6DB
:100A4000F3100440B0883189084371890843044396
:100A5000AC81AC8A4FF6FF400440B0890443AC82BD
:100A600001A8FFF7C0FEC648874202D1DDF810A0FA
:100A700001E0DDF80CA0A88900F4004040B10AEBC9
:100A8000CA0000EB0A1031684900B0FBF1F807E03A
:100A90000AEBCA0000EB0A1031688900B0FBF1F8DC
:100AA0006420B8FBF0F004012009642101FB1089E7
:100AB000A88900F4004040B1322000EBC900B0FB2F
:100AC000F1F000F00700044308E0322000EB0910C9
:100AD0006421B0FBF1F000F00F0004432C8106B05C
:100AE000BDE8F0874FF41651016000218180C1807C
:100AF00001810C21418100218181704710B502469E
:100B00000020108A4FF2FF0318400B884C882343C3
:100B10008C882343CC8823431843108210BD0021C6
:100B2000018041808180C180704721B1828942F477
:100B30000052828104E082894DF6FF731A4082815F
:100B40007047F0B50346002400260025002040F63B
:100B50006A17B94200D100BF1846C1F3421401F030
:100B60001F06012707FA06F5012C01D10C3004E01D
:100B7000022C01D1103000E014301AB107682F4365
:100B8000076002E00768AF430760F0BD1AB1838ACF
:100B90000B43838202E0838A8B4383827047028AFD
:100BA0004FF6F0731A400282028A0A4302827047AB
:100BB00082894FF2FF731A40828182890A438281BF
:100BC000704721B1828942F00202828104E0828969
:100BD0004FF6FD731A4082817047028A4FF6DF7329
:100BE0001A400282028A0A430282704721B1028AB5
:100BF00042F48042028204E0028A4BF6FF731A40FC
:100C000002827047C1F308028280704701468888DB
:100C1000C0F308007047818941F00101818170476C
:100C2000028BD2B20283028B42EA01220283704716
:100C3000028B02F47F420283028B0A4302837047D5
:100C400021B1828A42F02002828204E0828A4FF639
:100C5000DF731A408282704721B1828A42F010020B
:100C6000828204E0828A4FF6EF731A4082827047D4
:100C700021B1828A42F00802828204E0828A4FF621
:100C8000F7731A408282704721B1828942F4004290
:100C9000828103E08289C2F30E028281704721B112
:100CA000828A42F40062828204E0828A4FF2FF73F9
:100CB0001A4082827047828A4FF6FB731A40828202
:100CC000828A0A438282704721B1828A42F00202FC
:100CD000828204E0828A4FF6FD731A408282704756
:100CE00002460020B1F5007F00D100BF13880B4001
:100CF0000BB1012000E00020704701F40072B2F552
:100D0000007F00D100BFCA430280704770B5024621
:100D1000002400230025002040F66A16B14200D1CD
:100D200000BFC1F3421501F01F03012606FA03F3C9
:100D3000012D02D19689334006E0022D02D1168A98
:100D4000334001E0968A33400C12012606FA04F47F
:100D50001688344013B10CB1012000E0002070BDB2
:100D600010B50022002340F66A14A14200D100BF52
:100D70000A1201249440A3B2DC43048010BD000099
:100D8000003801400044004000480040004C004052
:100D90000050004010B50446FE48844208D10121AD
:100DA000C014FFF7A7FD0021E014FFF7A3FDC4E086
:100DB000B4F1804F08D101210846FFF7A8FD0021BA
:100DC0000120FFF7A4FDB8E0F348844208D10121D7
:100DD0000220FFF79CFD00210220FFF798FDACE008
:100DE000EE48844208D101210420FFF790FD002144
:100DF0000420FFF78CFDA0E0E948844208D10121DE
:100E00000820FFF784FD00210820FFF780FD94E013
:100E1000E448844208D101211020FFF778FD002129
:100E20001020FFF774FD88E0DF48844208D10121DB
:100E30002020FFF76CFD00212020FFF768FD7CE0FB
:100E4000DA48844208D101214014FFF753FD002104
:100E50006014FFF74FFD70E0D548844209D10121AD
:100E6000C804FFF747FD00214FF40020FFF742FDC3
:100E700063E0D048844209D101210805FFF73AFD1B
:100E800000214FF48010FFF735FD56E0CA48844238
:100E900009D101214805FFF72DFD00214FF4001075
:100EA000FFF728FD49E0C548844208D101214020D0
:100EB000FFF72DFD00214020FFF729FD3DE0C04850
:100EC000844208D101218020FFF721FD00218020EC
:100ED000FFF71DFD31E0BB48844208D10121801598
:100EE000FFF715FD0021A015FFF711FD25E0B6481D
:100EF000844209D101210804FFF7FCFC00214FF4D2
:100F00008030FFF7F7FC18E0B048844209D1012196
:100F10004804FFF7EFFC00214FF40030FFF7EAFC34
:100F20000BE0AB48844208D101218804FFF7E2FCC2
:100F300000214FF48020FFF7DDFC10BD0022028865
:100F4000944B98420ED0994B98420BD0B0F1804F01
:100F500008D0914B984205D0904B984202D0904BCC
:100F6000984204D14FF68F731A404B881A438D4B29
:100F7000984207D08C4B984204D04FF6FF431A405A
:100F8000CB881A4302808B8883850B880385814B2D
:100F900098420BD0854B984208D08B4B984205D095
:100FA0008A4B984202D08A4B984201D10B7A038631
:100FB00001238382704770B5002400220023058C32
:100FC0004FF6FE7635400584028C8388048B4FF6FD
:100FD0008F752C40B51E2C400D882C43751E2A4061
:100FE0000D892A434D882A436A4DA8420BD06F4D84
:100FF000A84208D0744DA84205D0744DA84202D032
:10100000734DA84213D14FF6F7752A404D892A43F4
:101010004FF6FB752A408D882A434FF6FF652B401B
:101020004FF6FF552B408D892B43CD892B43838071
:101030000483CD888586028470BD70B500240022AB
:101040000023058C4FF6EF7635400584028C8388AB
:10105000048B48F6FF752C404FF6FF452C400D8859
:101060004FF6FF7606EA05252C434FF6DF752A403A
:101070000D8906EA05152A434D8806EA05152A4317
:10108000444DA84202D0494DA8421DD14FF67F756C
:101090002A404D894FF6FF7606EA05152A434FF69A
:1010A000BF752A408D8806EA05152A434FF6FF359D
:1010B0002B404FF2FF752B408D8906EA85052B43A7
:1010C000CD8906EA85052B4383800483CD88058777
:1010D000028470BD70B5002400220023058C4FF6F9
:1010E000FF6635400584028C8388848B4FF68F75AC
:1010F0002C404FF6FC752C400D882C434FF6FF55C5
:101100002A400D894FF6FF7606EA05252A434D88C9
:1011100006EA05252A431F4DA84202D0234DA842C6
:101120001DD14FF2FF752A404D894FF6FF7606EA32
:1011300005252A434FF6FF352A408D8806EA052506
:101140002A434EF6FF752B404DF6FF752B408D89D7
:1011500006EA05152B43CD8906EA05152B43838046
:101160008483CD888587028470BD70B500220023FA
:101170000024058C4EF6FF7635400584038C848868
:10118000828B48F6FF752A404FF6FF452A400D88AE
:1011900020E00000002C0140000400400008004056
:1011A000000C0040001000400014004000340140DA
:1011B000004C014000500140005401400018004024
:1011C000001C00400020004000400140004401405D
:1011D000004801404FF6FF7606EA05252A434DF602
:1011E000FF752B400D8906EA05352B434D8806EA2D
:1011F00005352B43FA4DA84202D0FA4DA84208D13A
:101200004BF6FF752C408D894FF6FF7606EA851563
:101210002C4384808283CD88A0F84050038470BD25
:10122000828B4FF2FF331A408283828B4FF6FF731B
:1012300003EA01231A4382837047F0B50C46154632
:10124000002200210026078C4EF6FF7C07EA0C07DF
:101250000784828B018C4FF6FF7707EA043640F64D
:10126000FF473A404FF6FF7707EA05273A434FF624
:10127000FF7707EA03373A43D94FB8420ED0D94F28
:10128000B8420BD0B0F1804F08D0D74FB84205D04C
:10129000D64FB84202D0D64FB84206D14DF6FF77AE
:1012A000394046F48057394305E047F6FF57394047
:1012B00044F48057394382830184F0BD828B4FF61A
:1012C000F3731A408283828B0A4382837047F0B59E
:1012D0000C461546002200210026078C4FF6FF6CB5
:1012E00007EA0C070784828B018C4FF6FF7707EA29
:1012F00004264FF60C773A404FF6FF7707EA0317BC
:101300002F433A43B64FB8420ED0B64FB8420BD037
:10131000B0F1804F08D0B44FB84205D0B34FB842B7
:1013200002D0B34FB84206D14FF6FF57394046F4CA
:101330008077394305E04FF2FF57394044F4807716
:10134000394382830184F0BD028B4FF2FF331A4090
:101350000283028B4FF6FF7303EA01231A430283D1
:101360007047F0B50C461546002200210026078C78
:101370004FF6EF7C07EA0C070784028B018C4FF6CF
:10138000FF7707EA041640F6FF473A404FF6FF772B
:1013900007EA03373A434FF6FF7707EA05273A4350
:1013A0008F4FB8420ED08F4FB8420BD0B0F1804F64
:1013B00008D08D4FB84205D08C4FB84202D08C4F28
:1013C000B84206D14FF6DF77394046F0100739436F
:1013D00005E04FF65F77394044F010073943028348
:1013E0000184F0BD028B4FF6F3731A400283028B27
:1013F0000A4302837047F0B50C46154600220021CF
:10140000068C4FF6FE773E400684028B018C4FF629
:101410000C7632407E1C06EA03162E433243704E91
:10142000B0420ED06F4EB0420BD0B0F1804F08D01A
:101430006D4EB04205D06D4EB04202D06C4EB042FF
:1014400006D14FF6FD76314044F00106314305E008
:101450004FF6F576314044F00106314302830184B2
:10146000F0BD70B505460C465D4885420ED05D481E
:1014700085420BD0B5F1804F08D05B48854205D03E
:101480005A48854202D05A48854200D100E000BF48
:10149000208850B92389A28861882846FFF7ABFFCE
:1014A000E1882846FFF79EFF25E0208804280AD11E
:1014B0002389A28861882846FFF753FFE1882846E0
:1014C000FFF742FF17E0208808280AD12389A28865
:1014D00061882846FFF7FBFEE1882846FFF7EEFE0D
:1014E00009E02389A28861882846FFF7A6FEE188E3
:1014F0002846FFF795FE70BD2DE9F04105460C46E4
:1015000000260127608808B9022600E00026A0888E
:10151000012801D1022700E001272088A0B92389F2
:10152000A28861882846FFF766FFE1882846FFF712
:1015300059FF23893A4631462846FFF712FFE188D2
:101540002846FFF701FF13E02389A2886188284617
:10155000FFF707FFE1882846FFF7F6FE23893A46A2
:1015600031462846FFF747FFE1882846FFF73AFF54
:10157000BDE8F0810A884B881A438B881A43CB88D0
:101580001A430B891A434B891A438B891A43A0F8D3
:10159000442070474FF6FF71818000210180C18097
:1015A0004180017270470021018041808180C180AB
:1015B000018141818181C181704700210180418089
:1015C000012181800021C1800181704700210180BB
:1015D00041808180C180018141818181704700000B
:1015E000002C01400034014000040040000800408D
:1015F000000C004021B1028842F00102028004E0A8
:1016000002884FF6FE731A400280704731B1B0F87D
:10161000442042F40042A0F8442005E0B0F8442001
:10162000C2F30E02A0F8442070471AB183890B431D
:10163000838102E083898B43838170478182704775
:1016400041EA0203A0F8483070471AB183890B437E
:10165000838102E083898B438381704701894FF640
:10166000F8721140018170470A46002101894FF646
:101670008F73194011430181704730B504460D4600
:1016800029462046FFF7F0FF208940F0070020811F
:1016900030BD2DE9F04104460D4616461F46602D2B
:1016A00006D13B46012231462046FFF75AFE05E0AF
:1016B0003B46012231462046FFF79DFE2946204643
:1016C000FFF7D2FF208940F007002081BDE8F081BC
:1016D00030B50C4600210189C9B24FF6FF7505EA05
:1016E0000325154325432943018130BD2DE9F041F0
:1016F00005460E4617469846002443463A4631466C
:101700002846FFF7E5FF2C894FF6F870044044F0B7
:1017100007044FF68F70044044F070042C81BDE83C
:10172000F081F0B504460D4616461F463B4632464C
:1017300029462046FFF7CCFF208940F480402081D5
:10174000F0BD0185828270470A46002101884FF66C
:101750008F731940114301807047F0B50C46154650
:101760001E460021002200230189028B038C4FF6C4
:10177000F877394021434FF6FC473A4040F20117D1
:101780003A434FF6DD773B404FF6FF7707EA0617FF
:101790002F433B43018102830384F0BD0A460021AD
:1017A000018B4FF68F7319401143018370470A462E
:1017B0000021018B48F6FF7319404FF6FF7303EACF
:1017C00002231943018370470A460021818B4FF69B
:1017D0008F7319401143818370470A460021818B22
:1017E00048F6FF7319404FF6FF7303EA02231943CB
:1017F0008183704721B1028842F08002028004E0B8
:1018000002884FF67F731A400280704721B18288A8
:1018100042F00402828004E082884FF6FB731A4093
:101820008280704721B1828842F00802828004E001
:1018300082884FF6F7731A408280704721B1828800
:1018400042F00102828004E082884FF6FE731A4063
:10185000828070470A460021018B4FF6F7731940CA
:101860001143018370470A460021018B4FF2FF7339
:1018700019404FF6FF7303EA0223194301837047AF
:101880000A460021818B4FF6F7731940114381837B
:1018900070470A460021818B4FF2FF7319404FF6C3
:1018A000FF7303EA02231943818370470A4600212C
:1018B000018B4FF6FB7319401143018370470A46B1
:1018C0000021018B4FF6FF3319404FF6FF7303EAF7
:1018D00002231943018370470A460021818B4FF68A
:1018E000FB7319401143818370470A460021818BA5
:1018F0004FF6FF3319404FF6FF7303EA02231943F3
:10190000818370470A460021018B4FF67F7319408F
:101910001143018370470A460021018BC1F30E0178
:101920004FF6FF7303EA02231943018370470A4607
:101930000021818B4FF67F731940114381837047DB
:101940000A460021818BC1F30E014FF6FF7303EAB3
:1019500002231943818370470A460021018C4FF608
:10196000FD7319401143018470470A460021018C20
:101970004FF6F77319401143018470470A4600215E
:10198000018C4FF6DF7319404FF6FF7303EA021321
:101990001943018470470A460021018C4FF67F737A
:1019A00019404FF6FF7303EA02131943018470478D
:1019B0000A460021018C4FF6FF5319404FF6FF7382
:1019C00003EA02231943018470470A460021018C6F
:1019D0004FF2FF7319404FF6FF7303EA02231943D6
:1019E000018470470A460021018C4DF6FF731940AF
:1019F0004FF6FF7303EA023319430184704730B591
:101A0000002301248C40A3B2048C9C430484048CE6
:101A100002FA01F5ADB22C43048430BD30B5002389
:101A200004248C40A3B2048C9C430484048C02FAEA
:101A300001F5ADB22C43048430BD70B503460020DF
:101A400000241846183001258D40ACB21D8CA543EA
:101A50001D8409B1082909D100EB6100056825F052
:101A6000700505600568154305600EE00D1FC5F3A0
:101A70004E052844056825F4E045056005684FF6E5
:101A8000FF7606EA02263543056070BD21B1028863
:101A900042F00202028004E002884FF6FD731A4011
:101AA0000280704721B1028842F00402028004E003
:101AB00002884FF6FB731A400280704721B182887A
:101AC00042F08002828004E082884FF67F731A40E1
:101AD0008280704702884FF6F7731A4002800288AE
:101AE0000A430280704782884FF68F731A408280C3
:101AF00082880A438280704702894FF6F8731A4041
:101B0000028102890A430281704702894FF67F737E
:101B10001A40028102890A4302817047818470471A
:101B2000818570478186704701877047818770473C
:101B3000A0F84010704702884FF6FF431A40028019
:101B400002880A43028070470146888E704701462A
:101B5000088F70470146888F70470146B1F84000F2
:101B600070470146888C70470146088D70470246D1
:101B70000020138A0B400BB1012000E000207047C9
:101B8000CA430282704730B5024600200023002479
:101B9000158A05EA0103958905EA010413B10CB120
:101BA000012000E0002030BDCA43028270470000DF
:101BB00010B50446BE48844208D101218014FEF7C6
:101BC00099FE0021A014FEF795FE16E0B948844264
:101BD00008D101210014FEF79AFE00212014FEF71F
:101BE00096FE0AE0B448844207D10121C013FEF7F3
:101BF0008EFE0021E013FEF78AFE10BD10B5002214
:101C0000028802F441520B884C8823438C8823437A
:101C1000CC8823430C8923434C8923438C89234359
:101C2000CC8923431A430280838B4FF2FF742340F5
:101C300083830B8A038210BD2DE9F04F85B00546E2
:101C40000C464FF0000902274FF000084FF0010B3F
:101C50000026B246A88B4FF240010840A88302201C
:101C60002884B5F81C90A068022801D100BF38E094
:101C7000A08810B94FF0010B01E04FF0020B8D4826
:101C8000854200D100E000BF6846FEF7ACFDDDF8FC
:101C900000A0E088B0F5007F0AD14FEA1A2000EBDF
:101CA00080004000A168B0FBF1F0401D86B20BE05F
:101CB0004FEA4B10BAFBF0F000EB80004000A16847
:101CC000B0FBF1F0401D86B20A20B6FBF0F606F03C
:101CD0000108A6EB0800C0F34F074FF6FF7000EABB
:101CE0000828022F01DBFF2F02DD02274FF000083A
:101CF000E08840EA080038432884A088A189084386
:101D0000618808432188084340F4006040EA0909DB
:101D1000A5F81C9005B0BDE8F08F0021018041803E
:101D20008180C180018141818181C181072101823E
:101D300070470021018041808180C1800221816043
:101D400000218181704721B1028842F04002028067
:101D500004E002884FF6BF731A400280704721B139
:101D6000828B42F48062828304E0828B4FF6FF33E1
:101D70001A408283704730B5002400230C110125DE
:101D8000A540ABB21AB185881D43858002E08588E5
:101D90009D43858030BD1AB183880B43838002E068
:101DA00083888B438380704781817047014688898F
:101DB00070474FF6FF62914204D0028842F480726D
:101DC000028004E002884FF6FF631A4002807047E9
:101DD00021B1828842F00402828004E082884FF6BA
:101DE000FB731A408280704702884FF2FF731A40DB
:101DF000028002880A4302807047018841F48051C2
:101E00000180704721B1028842F40052028004E050
:101E100002884DF6FF731A40028070470246002088
:101E2000012901D0108B00E0908A70470146088A92
:101E30007047B1F5804F04D1028842F4804202809D
:101E400004E002884BF6FF731A4002807047024696
:101E5000002013890B400BB1012000E000207047E7
:101E6000CA4302817047F0B50246002000240023D7
:101E7000002501F00F070126BE40B4B20B11012668
:101E80009E40B3B2968806EA03051689264016B12D
:101E90000DB1012000E00020F0BD10B5002201F0DE
:101EA0000F040123A3409AB2D343038110BD000065
:101EB0000030014000380040003C00400CB50020DC
:101EC000019000906C48006840F480306A490860D6
:101ED00000BF6948006800F4003000900198401C81
:101EE0000190009818B90198B0F5A06FF1D162483F
:101EF000006800F4003010B10120009001E00020E3
:101F000000900098012843D15C48006840F0100020
:101F10005A4908600846006820F003000860084637
:101F2000006840F002000860534840685249486029
:101F30000846406848600846406840F48060486051
:101F40000846406820F47C1048600846406840F429
:101F5000E81048600846006840F08070086000BFE4
:101F60004548006800F000700028F9D042484068F9
:101F700020F00300404948600846406840F00200F5
:101F8000486000BF3C48406800F00C000828F9D1C8
:101F90000CBD10B5FFF792FF10BD10B536480068B4
:101FA00040F0010034490860084640683449084060
:101FB0003149486008460068324908402E490860A7
:101FC0000846006820F4802008600846406820F435
:101FD000FE0048604FF41F008860FFF7DAFF4FF003
:101FE00000602949086010BD10B5002100200022C2
:101FF000214B5B6803F00C0121B1042906D00829AC
:1020000028D107E0214B224C236027E0214B204CB4
:10201000236023E0184B5B6803F47010164B5B6879
:1020200003F48032022303EB904022B91A4B43435E
:10203000174C23600DE0104B5B6803F4003323B1B1
:10204000124B4343124C236003E0124B4343104CAA
:10205000236003E00D4B0E4C236000BF00BF064B16
:102060005B68C3F303130D4CE15C094B1B68CB4069
:10207000074C236010BD0000001002400020024009
:102080000000FFF8FFFFF6FE08ED00E000127A0006
:10209000180000200024F40000093D001C0000206E
:1020A0004FF0E020006920F004004FF0E0210861CB
:1020B0000920234908700846007800EB4001C1EB75
:1020C000C0104FF6FF7101EAC0001E49088070473A
:1020D00001461C4A12884A434FF0E0235A6100220D
:1020E0009A6101221A6100BF4FF0E022106900F0EE
:1020F00001021AB100F48032002AF5D000224FF01C
:10210000E0231A619A61704701460D4A12784A43EA
:102110004FF0E0235A6100229A6101221A6100BF48
:102120004FF0E022106900F001021AB100F4803291
:10213000002AF5D000224FF0E0231A619A6170471F
:102140002C0000202E00002010B5FEF74BFA4FF4B3
:102150008030FEF767FAFEF7A4FA012830D100209C
:10216000FEF7E5FA0020FEF7F4FA4FF48060FEF780
:10217000E7FA1448006840F0100012490860084669
:10218000006820F0030008600846006840F0020084
:1021900008604FF4E0114FF44030FEF7ABFA012035
:1021A000FEF7B4FA00BF3920FEF75FFA0028FAD034
:1021B0000220FEF7AEFA00BFFEF7B4FA0828FBD102
:1021C00010BD00000020024008B501210820FEF7E4
:1021D00077FB2020ADF8000003208DF802001020CE
:1021E0008DF8030069461048FEF7AEF808BD70B5DB
:1021F00005460C460DE020200B49143108602046AE
:10220000FFF782FF20200849103108602046FFF7C1
:102210007BFF2800A5F10101CDB2ECD120200249BD
:102220001431086070BD0000000C014010B586B08C
:102230000446012144F20400FEF742FB4FF4007013
:10224000ADF8140018208DF8170003208DF8160043
:1022500005A92148FEF778F84FF48060ADF8140026
:1022600004208DF8170005A91B48FEF76DF80194AE
:102270000020ADF80800ADF80A00ADF80C00ADF88C
:1022800010000C20ADF80E0001A91448FEF7C1FBA8
:1022900001211248FEF749FC06B010BD70B5044696
:1022A0000D46E1B20D48FEF7ADFC00BF40210B48E2
:1022B000FEF716FD0028F9D0204670BD10B5044683
:1022C00000BF20210548FEF70BFD0028F9D0034888
:1022D000FEF79CFC10BD00000008014000380140E2
:1022E00008B501210820FEF7EBFA4FF44060ADF885
:1022F000000010208DF8030003208DF802006946CD
:102300009548FEF721F84FF440619348FEF7C9F86D
:102310000120924908609249C1F8AC0108BD10B58E
:102320008D48001D006820F470408B49091D08602D
:102330000846006840F44050086001208749091DA4
:1023400008608749C1F8A8010420FFF7DDFE0020DE
:102350008249091D08600420FFF7D6FE002080494D
:10236000C1F8A80110BD10B57B48001D006820F41D
:1023700070407949091D08600846006840F44050E3
:1023800008600020754908607549C1F8AC01042057
:10239000FFF7BAFE0120714908607149C1F8AC012C
:1023A0000420FFF7B1FE10BD10B500246A48001DDF
:1023B000006820F470406849091D086008460068FC
:1023C00040F40040086001206449091D0860FFF7DF
:1023D0009BFE01206249C1F8A801FFF795FE07E0C6
:1023E000601CC4B2FA2C03DDFFF7BDFF012010BD55
:1023F0005A487C3800680028F2D15849086000BF6C
:10240000F5E710B50020554908605348001D0068E5
:1024100020F470405049091D08600846006840F4E7
:102420004050086000204E49C1F8AC010220FFF77F
:102430006BFE0120494908600220FFF765FE00207D
:102440004749C1F8A80110BD10B5002043490860F4
:102450004148001D006820F470403F49091D086094
:102460000846006840F44050086001203C49C1F82B
:10247000AC010220FFF748FE012038490860022025
:10248000FFF742FE00203649C1F8A80110BD70B523
:1024900004463148001D006820F470402E49091D93
:1024A00008600846006840F44050086000202B494E
:1024B000086000251EE0E00920B101202749091D20
:1024C000086003E000202549091D08606006040E2D
:1024D0000220FFF719FE0120204908600220FFF7C3
:1024E00013FE00201E49C1F8A8010220FFF70CFED0
:1024F000681CC5B2082DDEDBFFF756FF70BD70B556
:1025000000241548001D006820F470401249091D80
:1025100008600846006840F400400860002516E0A6
:1025200000200E4908600220FFF7EEFD01200C4953
:10253000C1F8A8016006040E08487C38006808B19C
:10254000601CC4B20120FFF7DFFD681CC5B2082D76
:10255000E6DB204670BD0000000C0140A88121424E
:10256000008021420EB501210620FEF7B6F968462B
:10257000FFF710F84FF6FF70ADF804000020ADF83B
:102580000000ADF80600ADF802006946FE48FEF70F
:10259000D5FC00221146FC48FFF7D3F80121FA4888
:1025A000FFF774FA2021F848FFF75EF80721F64894
:1025B000FFF7A2FA8021F448FFF7A7FA0121F248B9
:1025C000FFF718F94FF6FF70ADF804004820ADF89A
:1025D00000000020ADF80600ADF802006946EB48A7
:1025E000FEF7ACFC0121E948FFF704F90421E748B4
:1025F000FFF782FA0121E548FFF754FA2021E3486A
:10260000FFF771FA8021E148FFF77FFA0121DF48E7
:10261000FEF7F0FF0121DC48FEF7ECFF0EBD0020C5
:10262000D949243108880004D8492431098808444C
:1026300070472DE9FF4F91B0814692461D46DDF867
:1026400078B0FFF7ECFFD249086008460068D1492E
:10265000096888420FD2CF4909684FF6FF72511AB4
:10266000CB4A1268881801F0ACFBCB490B9001F003
:10267000E2F904460BE0C6490968C64A1268881A9E
:1026800001F09FFBC4490B9001F0D5F90446C04806
:102690000068C04908601F99084601F09AF9594638
:1026A0000690584601F095F929460490284601F015
:1026B00090F90390049901F034F90590069901F01E
:1026C00030F9079001F093FBCDE9080102F09AF987
:1026D000CDE90A0101F09EFB0F9028460F9901F009
:1026E000AAF9054658460F9901F0A5F983460F99B6
:1026F0001F9801F0A0F91F90A8480168A848006839
:1027000001F067F90A90A7480168A748006801F03E
:1027100060F909900A9901F056F94FF080410B9049
:1027200001F057F90E909F4801689C48006801F03D
:1027300050F90A909C4801689948006801F049F9ED
:1027400009900A9901F0EDF84FF080410B9001F0EB
:1027500040F90D9093480168006801F03AF90B9038
:102760008E480168006801F034F909908E480168CC
:10277000006801F02EF9079089480168006801F0AF
:1027800028F90690079901F01EF90890099901F0BF
:102790001AF90A900B9901F0C4F80C900D991F9842
:1027A00001F017F90B9058460C9901F012F90A90B4
:1027B0000B9901F008F9064628460C9901F009F931
:1027C0000B900E991F9801F004F90A900B9901F0F3
:1027D000FAF8074658460E9901F0FBF80B90284688
:1027E0000D9901F0F6F80A900B9901F0ECF880468B
:1027F0006E49304601F0EDF80B906D4801680B987A
:1028000001F08FF86A4908606849384601F0E1F83C
:102810000B90684801680B9801F083F865490860DF
:102820006249404601F0D5F80B90634801680B9867
:1028300001F077F86049086031464FF0804001F0C0
:10284000C8F849460A9001F06CF80B9058480168A6
:102850000B9801F066F8814639464FF0804001F050
:10286000B8F80A90129901F05CF80B905148016891
:102870000B9801F056F8129041464FF0804001F05D
:10288000A8F851460A9001F04CF80B904A480168AC
:102890000B9801F046F8824651464248006801F024
:1028A00098F809903D481299006801F092F8079055
:1028B0003D48006880F000404946059001F089F8E5
:1028C0000690079901F07FF80890099901F07BF8CC
:1028D00021460A9001F07DF80B90314801680B9871
:1028E00001F01FF82E4908602E481299006801F087
:1028F00070F8514609902948006801F06AF807907D
:1029000027480168484601F064F80690079901F0ED
:1029100008F80890099901F056F821460A9001F04C
:1029200058F80B90204801680B9800F0FAFF1E49F8
:1029300008601C480168484601F04BF85146099070
:102940001948006801F045F8079015481299006889
:1029500001F03FF80690079901F035F808900999C1
:1029600000F0DFFF21460A9001F033F80B900B488E
:1029700001680B9800F0D5FF084908600846016817
:10298000484601F026F819E0000800400004004025
:1029900034000020300000200024F44940000020D2
:1029A00038000020440000203C0000200AD7A33B50
:1029B000480000204C000020500000200990D04822
:1029C0001299006801F005F851460790CD4800685B
:1029D00000F0FFFF0690079900F0A3FF0890099907
:1029E00000F0F1FF21460A9000F0F3FF0B90C6487B
:1029F00001680B9800F095FFC3490860084601681C
:102A0000006800F0E6FF0690C0480168006800F02A
:102A1000E0FF0490BA480168006800F0DAFF029015
:102A2000B8480168006800F0D4FF0190029900F0F6
:102A300078FF0390049900F074FF0590069900F068
:102A400070FF079001F0D3F9CDE9080101F0DAFF3A
:102A5000CDE90A0101F0DEF90F90AA480F9900684C
:102A600000F0E9FFA7490860A5480F99006800F049
:102A7000E2FFA3490860A5480F99006800F0DBFF5A
:102A8000A2490860A0480F99006800F0D4FF9E4951
:102A9000086015B0BDE8F08F2DE9FF5F82469C48C5
:102AA000006801F0A4F980469A4A9B4B01F0A8F80F
:102AB00006460022994B01F015F9044601F0AAF9E7
:102AC00083469748006801F092F98046914A924BFC
:102AD00001F096F806460022904B01F003F90446F7
:102AE00001F098F903908F48006801F080F9804662
:102AF000884A894B01F084F806460022874B01F092
:102B0000F1F8044601F086F9029087480068874989
:102B10000968CDE9001086485A460368DDE90201DC
:102B2000FFF787FD77480068CAF80000744800681E
:102B3000CAF8040075480068CAF8080072480068BE
:102B4000CAF80C00BDE8FF9F2DE9F04F8DB082461A
:102B500008A8FFF7A1FF4FF080400B9900F039FF64
:102B600000900B9900F035FF01904FF040400A991A
:102B700000F02FFF00900A9900F02BFF8346019987
:102B800000F021FF81464FF07E5100F0CAFE8046E2
:102B900001F02DF906460F464FF08040089900F0ED
:102BA00018FF01900B9900F014FF81464FF0804010
:102BB000099900F00EFF01900A9900F00AFF834680
:102BC000494600F0AEFE804601F011F932463B4620
:102BD000CDE9020101F056FE0022504BCDE904017F
:102BE00001F00EF84B4A4C4BCDE9060101F07AF8A2
:102BF000044601F00FF9CAF800004FF08040089930
:102C000000F0E7FE03900A9900F0E3FE05904FF014
:102C10004040099900F0DDFE03900B9900F0D9FEC9
:102C20000490059900F07DFE834601F0E0F8CDE9BF
:102C3000060101F0DFFB81F0004180460022374BA6
:102C400000F0DEFF0646334A334B01F04BF80446F2
:102C500001F0E0F8CAF804004FF080400A9900F053
:102C6000B8FE00900A9900F0B4FE01904FF0404089
:102C7000099900F0AEFE0090099900F0AAFE834683
:102C8000019900F0A0FE81464FF07E5100F049FE10
:102C9000804601F0ACF8CDE902014FF08040089980
:102CA00000F097FE0190099900F093FE81464FF0E5
:102CB00080400A9900F08DFE01900B9900F089FE8A
:102CC0008346494600F02DFE804601F090F8064606
:102CD000DDE9022301F0D6FD0022104BCDE904010D
:102CE00000F08EFF04460B4A0B4B00F0FBFFCDE9D2
:102CF000060101F08FF8CAF808000DB0BDE8F08FAA
:102D00003C0000203800002044000020400000204B
:102D10006C0000206E861BF0F9210940008066409F
:102D20006800002064000020840000208000002053
:102D30007C00002070B506460C461546FFF7EFFAFA
:102D40003046FFF7A4FB2046FFF7A1FB2846FFF71C
:102D50009EFBFFF708FB70BD70B504460D46FFF7FC
:102D6000DEFA2046FFF793FB2846FFF790FBFFF7BC
:102D7000D6FA611CC8B2FFF78AFBFFF7C0FB064614
:102D8000FFF762FBFFF7EFFA304670BD10B5002287
:102D90006B21D020FFF7CEFFC820FFF799F903225F
:102DA0006B21D020FFF7C6FF07221921D020FFF7A3
:102DB000C1FF06220021D020FFF7BCFF08221B2103
:102DC000D020FFF7B7FF09221C21D020FFF7B2FF68
:102DD00010BD2DE9F04F93B07521D020FFF7BCFF57
:102DE000FE4908704421D020FFF7B6FFFC49087067
:102DF0004321D020FFF7B0FFF9494870084600781A
:102E0000497840EA012000B2F64908800846B0F946
:102E1000000000F0DBFF80460022F34B00F062FF71
:102E20000646F2480CC8304600F0E4FE044600F0C6
:102E3000F1FFEF4908604621D020FFF78DFFE849F8
:102E400088704521D020FFF787FFE549C870084604
:102E50008078C97840EA012000B2E6490880084637
:102E6000B0F9000000F0B2FF06460022DE4B00F091
:102E700039FF8046E0480CC8404600F0BBFE0446DF
:102E800000F0C8FFDD4908604821D020FFF764FF4B
:102E9000D34908714721D020FFF75EFFD049487120
:102EA00008460079497940EA012000B2D4490880F7
:102EB0000846B0F9000000F089FF80460022CA4BA6
:102EC00000F010FF0646CF480CC8304600F092FED6
:102ED000044600F09FFFCC4908603C21D020FFF75A
:102EE0003BFFBF4988713B21D020FFF735FFBC492C
:102EF000C87108468079C97940EA012000B2C34907
:102F000008800846B0F9000000F060FF0646002285
:102F1000BF4B00F0E7FE044600F07CFFBD490860AF
:102F20003E21D020FFF718FFAD4908723D21D02087
:102F3000FFF712FFAA4948720846007A497A40EA28
:102F4000012000B2B44908800846B0F9000000F042
:102F50003DFF06460022AE4B00F0C4FE044600F0E2
:102F600059FFAE4908604021D020FFF7F5FE9C498B
:102F700088723F21D020FFF7EFFE9949C8720846BA
:102F8000807AC97A40EA012000B2A5490880084643
:102F9000B0F9000000F01AFF064600229C4B00F03A
:102FA000A1FE044600F036FF9E4908609B48016878
:102FB000006800F00EFD02909A480168006800F079
:102FC00008FD0190029900F0ACFC039000F00FFFA7
:102FD000CDE9040101F016FD804689468D48006860
:102FE00000F005FF064642464B4600F07BFE0446D5
:102FF00001F038FB00228C4BCDE9060100F000FE09
:1030000082468A4A8A4B00F06DFE8A4A8A4BCDE995
:10301000080100F0EFFD0022884BCDE90A0100F025
:1030200061FE0022804BCDE90C0100F0E9FD002299
:10303000834BCDE90E0100F0DDFDCDE9100100F07C
:10304000E9FE8049086077480168006800F0C1FC2B
:10305000834670480168006800F0BBFC5946019047
:1030600000F05FFC824600F0C2FECDE9020101F0F3
:10307000C9FCCDE904016948006800F0B8FE0646C5
:10308000DDE9042300F02EFECDE9060101F0EAFAA5
:103090000022654BCDE9080100F0B2FD634A644BA4
:1030A000CDE90A0100F01EFE674A684BCDE90C012C
:1030B00000F0A0FD80465D4A5242654B00F012FED2
:1030C0000022594BCDE90E0100F09AFD0446002282
:1030D0005B4B00F08FFDCDE9100100F09BFE5D49D8
:1030E00008604E480168006800F073FC8346494858
:1030F0000168006800F06DFC5946019000F011FC79
:10310000824600F074FECDE9020101F07BFC064628
:103110000F464448006800F06AFE32463B46CDE95F
:10312000040100F0DFFD044601F09CFA00223E4B52
:10313000CDE9060100F064FD3C4A3D4BCDE90801B4
:1031400000F0D0FD444A454BCDE90A0100F052FDA4
:103150004FF06632424BCDE90C0100F0C3FD002276
:10316000314BCDE90E0100F04BFD80460022344B7F
:1031700000F040FDCDE9100100F04CFE3949086037
:1031800013B0BDE8F08F2DE9F84F00250026A946C1
:10319000AA46AB4600200090C820FEF7B5FF0024E9
:1031A0006EE0FFF716FE12480168284600F0B9FBF2
:1031B000054612480168304600F0B3FB0646124847
:1031C0000168484600F0ADFB81461E480168504644
:1031D00000F0A7FB82461F48016845E0CC000020B4
:1031E000D8000020580000200060504098000020C7
:1031F000640000205A000020A00000206800002089
:103200005C000020A80000206C0000205E00002070
:103210000000D040700000206000002074000020FA
:103220006200002078000020008066401F85EB517E
:10323000B81E094042E90B21E70256C00010664063
:10324000008056407C000020C6850321594456C0AA
:1032500047516640800000203BAA9A20EA7456C07D
:103260006676664084000020584600F05AFB83468C
:1032700025480168009800F054FB0090601CC4B21F
:10328000322C8EDB284600F0B2FD074600221F4B91
:1032900000F028FD1E4A03C2304600F0A8FD074694
:1032A00000221A4B00F01EFD1A4A03C2484600F0E5
:1032B0009EFD07460022154B00F014FD164A03C27E
:1032C000504600F094FD07460022104B00F00AFD26
:1032D000124A03C2584600F08AFD074600220B4BF3
:1032E00000F000FD0E4A03C2009800F080FD074682
:1032F0000022064B00F0F6FC0A4A03C201200A49EC
:103300000860BDE8F88F00008400002000004940FC
:1033100098000020A0000020A8000020B00000209D
:10332000B8000020C0000020C80000203EB50546BF
:103330000C4601210846FDF7D0FAADF80450ADF86F
:1033400000400020ADF80600ADF8020069464FF0DD
:103350008040FDF7F3FD01218807FEF74BF93EBDE4
:1033600008B501210420FDF7ABFA0120ADF80000FB
:1033700018208DF8030003208DF80200694652489A
:10338000FCF7E2FF08BD1FB56020ADF8000001208A
:10339000ADF802000020ADF8080069464FF080400B
:1033A000FDF709FE0821C806FEF754FA0121880737
:1033B000FEF720F91FBD08B501210420FDF780FAB2
:1033C0000220ADF8000018208DF8030003208DF8CE
:1033D000020069463C48FCF7B7FF08BD1FB56020F6
:1033E000ADF800000120ADF802000020ADF80800A3
:1033F00069464FF08040FDF720FE0821C806FEF721
:1034000032FA01218807FEF7F5F81FBD08B5012142
:103410000420FDF755FA0420ADF8000018208DF8BF
:10342000030003208DF8020069462748FCF78CFF53
:1034300008BD1FB56020ADF800000120ADF8020006
:103440000020ADF8080069464FF08040FDF742FECD
:103450000821C806FEF714FA01218807FEF7CAF80A
:103460001FBD08B501210420FDF72AFA0820ADF898
:10347000000018208DF8030003208DF80200694633
:103480001148FCF761FF08BD1FB56020ADF80000D2
:103490000120ADF802000020ADF8080069464FF0A9
:1034A0008040FDF762FE0821C806FEF7F2F901210F
:1034B0008807FEF79FF81FBD10B5FFF751FF10BD3D
:1034C00010B5FFF760FF10BD0008014000B587B0E0
:1034D00001210C20FDF7F4F91020ADF818000320AD
:1034E0008DF81A0010208DF81B0006A9B548FCF7CE
:1034F0002BFF0420ADF8180006A9B348FCF724FF01
:103500000120ADF8180028208DF81B0006A9AE4850
:10351000FCF71AFF0521AC48FCF7C5FF1021A948AC
:10352000FCF7C1FF00F08BF90021A848FEF70BFC67
:103530000020ADF804004FF48270ADF806000020C2
:10354000ADF80800ADF80A00ADF80C004FF40070BB
:10355000ADF80E001820ADF810000020ADF81200F4
:103560000720ADF8140001A99848FEF747FB012198
:103570009648FEF7E8FB0020954908600120954930
:10358000C1F8900107B000BD2DE9F04107460D4696
:103590001646002090490860384600F029F9804618
:1035A000002405E0FF2000F023F92855601CC4B278
:1035B000B442F7DB0120884908604046BDE8F0814D
:1035C0002DE9F04107460C46154600208249086067
:1035D000384600F00DF98046002605E014F8010B8E
:1035E00000F006F9701CC6B2AE42F7DB01207A4942
:1035F00008604046BDE8F0811CB578A103C9CDE95B
:103600000001082000F05FF9052269463020FFF72D
:10361000D7FF052269461020FFF7B6FF002406E019
:103620001DF80400A52800D003E0601CC4B2052CDE
:10363000F6DB00BF052C01D001201CBD0020FCE7FB
:1036400070B505460C46002063490860284600F026
:10365000CFF80646204600F0CBF801205D49C1F8BE
:103660009001304670BD70B5044600205A4908608C
:10367000204600F0BDF8FF2000F0BAF80546012012
:103680005449C1F89001284670BD70B50546102018
:1036900000F019F900204E49086020222946A02098
:1036A000FFF78EFF01204F49C1F8880100BF48484D
:1036B000883800680028FAD10720FFF7D4FF0446B5
:1036C00021462720FFF7BCFF04F0100028B1FF219E
:1036D000E120FFF7B5FF102070BD04F0200008B115
:1036E0002020F9E7FF20F7E770B50446102000F02E
:1036F000EAF80720FFF7B7FF054629462720FFF71E
:103700009FFF05F0400050B1202221466120FFF7C5
:103710003BFFFF21E220FFF793FF002070BD012057
:10372000FCE710B500202A49086005222E492A200E
:10373000FFF746FF01212120FFF782FF0121222010
:10374000FFF77EFF28212520FFF77AFF2021312077
:10375000FFF776FF0F212620FFF772FF0F212020B1
:10376000FFF76EFF01201F49C1F8880110BD10B599
:1037700000201749086005221C493020FFF720FF70
:10378000052219492A20FFF71BFF01212120FFF7FD
:1037900057FF01212220FFF753FF1A212420FFF7B2
:1037A0004FFF28212520FFF74BFF0F212620FFF791
:1037B00047FF0E212020FFF743FF01200949C1F8F0
:1037C000880110BD00080140000C0140003001409C
:1037D000888121420000214290012142A5A5A5A592
:1037E000A500000000802142554A0008504A000808
:1037F00070B50546002405E0601CC4B2C82C01DD8C
:10380000002070BD02213948FEF721FB0028F3D0CB
:1038100029463648FEF7C8FA002405E0601CC4B209
:10382000C82C01DD0020ECE701213048FEF70FFB3A
:103830000028F3D02D48FEF7B9FAC0B2E1E700B591
:1038400087B001210420FDF73BF801210803FDF7B3
:1038500037F8E020ADF8180018208DF81B00032081
:103860008DF81A0006A92248FCF76EFDE0212048D9
:10387000FCF717FE0020ADF804004FF48270ADF89D
:1038800006000020ADF808000220ADF80A00012073
:10389000ADF80C004002ADF80E003820ADF8100075
:1038A0000020ADF812000720ADF8140001A90F4860
:1038B000FEF7A4F901210D48FEF745FAFF20FFF7B6
:1038C00097FF07B000BD10B50446084800884FF6C2
:1038D000C7710840054908800846008820430880D1
:1038E00001210248FEF72FFA10BD00000030014010
:1038F0000008014010B5002200E0521C835C8C5C83
:10390000A34201D1002BF8D1D8B2E1B2401A10BDC8
:10391000034611F8012B00F8012B002AF9D11846B3
:103920007047F0B480EA0102D40F4200B2EB410FBD
:1039300002D20246084611464A0042D0C30DDDB20B
:10394000C1F3C752AD1A202D35DAC1F3160141F487
:10395000000204B15242C5F1200602FA06F12A41E2
:103960001044B3EBD05F23D0C4B1012DA0EBC35002
:1039700009DCF0BC4FF0004202EAC352DBB200F5B2
:10398000000000F0A3BA400000F1807000EBC350CB
:10399000A0F1807040EAD170490009E0490841EA8D
:1039A000C071A0EBC35000F50000400800EBC3500D
:1039B000F0BC00F082BA6142012202EB4101001B1F
:1039C000F6E7F0BC704781F00041AAE780F00040C4
:1039D000A7E780EA010210B502F00043400022D0C0
:1039E0004A001FD0010E01EB1261C0F35600C2F372
:1039F000560240F4000042F40002A0FB0220000442
:103A00007F39140400D0401C50EA124001D4400019
:103A1000491EC2B20C0604EBD010401C4008802A9C
:103A200002D003E0002010BD20F00100002900DAE0
:103A30000020184310BD30B480EA010202F00045B6
:103A400030F0004221F0004013D090B1C30DD40DEE
:103A5000C2F31601C0F31600E41A41F4000140F469
:103A600000027D34914201D3641C00E04900002C27
:103A700002DA30BC002070474FF40000002391426E
:103A800001D3891A034340084FEA4101F7D151B1EC
:103A9000914202D14FF0004105E002D24FF0010106
:103AA00001E06FF0010103EBC450284430BC00F08A
:103AB00004BA2DE9FE4F804681EA0300C00F0C4690
:103AC000009021F0004123F00045B8EB0200A9412D
:103AD00005D24046214690461C460B46024623F03E
:103AE0000040104347D0270DC7F30A00C3F30A5123
:103AF0000290401A019040286BDAC3F3130040F49F
:103B0000801B0098924620B10023D2EB030A63EB9E
:103B10000B0B01985946C0F14002504600F0ACF939
:103B200006460D4650465946019A00F0B4F910EB8E
:103B300008006141002487EA115284EAE7731A43BE
:103B400040D0009A62B3019A012A4FEA075215DC6D
:103B5000001B61EB02014FF0004202EA0752CDE97F
:103B60000042001C41F5801132462B4600F0EBF973
:103B700003B0BDE8F08F40462146F9E7001B61EB3A
:103B80000201001C41F5801300185B412018A2F5CA
:103B9000001747EB030140EAD570B6196D4111E0FB
:103BA0006D084FEA360645EAC0754FEA0752001B1A
:103BB00061EB0201001C41F5801149084FEA300019
:103BC0000019514132462B4603B0BDE8F04F00F0DA
:103BD000ABB90098012240000023D0EB020263EB56
:103BE000E073009821464FEAE074B8EB000061EB07
:103BF0000401E9E783F000435BE781F0004158E707
:103C00002DE9FE4F81EA030404F0004421F0004155
:103C100000944FF0000B23F0004350EA01045ED003
:103C200052EA03045BD0C3F30A54C1F30A552C448F
:103C3000A4F2F3340194A0FB0254C1F3130141F444
:103C40008011C3F3130343F4801301FB024400FB10
:103C5000034E840A970A44EA815447EA8357A4FB37
:103C6000076802958D0A05FB07854FEA932C04FB34
:103C70000C542705029D4FEA065847EA1637B5EB64
:103C800008056EEB070C870E920E47EA811742EA91
:103C90008312A7FB0201B6EB0B0164EB00042B0DB2
:103CA00043EA0C335E1844EB1C50DA465146E7FBFE
:103CB0000201C5F313044FEA0B3343EA14534FEAEE
:103CC0000432019C43EA0603A4F10C040294009C14
:103CD000CDE900B400F037F903B0BDE8F08F002063
:103CE0000146F9E72DE9F04D81EA030404F0004BA9
:103CF00021F0004514464FF0000A23F0004150EA3D
:103D0000050220D054EA01021DD0C5F30A5702462D
:103D1000C5F31303C1F31300C1F30A5640F4801531
:103D200043F48013A7EB0608101BD64608F2FD38B3
:103D300073EB050002D308F1010801E092185B4122
:103D4000B8F1000F03DA00200146BDE8F08D002035
:103D50004FF48011064684460EE0171B73EB0507EF
:103D600005D3121B63EB050306434CEA010C49081B
:103D70004FEA300092185B4150EA0107EDD152EA58
:103D8000030012D082EA040083EA0501084305D04B
:103D9000101BAB4106D20122002306E000224FF0A7
:103DA000004302E06FF0010253101AEB06004CEBE7
:103DB000085110EB0A0041EB0B01BDE8F04D00F09B
:103DC000B3B896230022114600F080B80EB5C10F9B
:103DD00080EAE0700844CA07002140F233438DE8CE
:103DE0000E000A460B4600F0AEF803B000BD00F02E
:103DF000004230F000400AD0C10D01F56071C0F3FF
:103E0000160042EA0151C2084007114370470020E2
:103E10000146704701F0004330B421F0004150EA00
:103E2000010206D00A0DA2F56072C1F31301002A47
:103E300002DC30BC00207047440F44EAC104C100DA
:103E4000E01830BC00EBC25000F037B830B50B467C
:103E5000014600202022012409E021FA02F59D42BA
:103E600005D303FA02F5491B04FA02F52844151E8E
:103E7000A2F10102F1DC30BD202A04DB203A00FA75
:103E800002F1002070479140C2F1200320FA03F3B1
:103E9000194390407047202A06DBCB17203A41FA9D
:103EA00002F043EAE07306E041FA02F3D040C2F1C7
:103EB000200291400843194670470029A8BF704767
:103EC000401C490008BF20F00100704710B4B0FA50
:103ED00080FC00FA0CF050EA010404BF10BC7047EB
:103EE00049B1CCF1200421FA04F411FA0CF118BF05
:103EF000012121430843A3EB0C01CB1D4FEA0061D4
:103F00004FEA102042BF002010BC704700EBC350A6
:103F100010440029A4BF10BC7047401C490008BFD2
:103F200020F0010010BC704710B5141E73F100049E
:103F300008DA401C41F1000192185B411A4301D19B
:103F400020F0010010BD2DE9F04D92469B4611B1C5
:103F5000B1FA81F202E0B0FA80F220329046FFF727
:103F60008BFF04460F4640EA0A0041EA0B01534624
:103F70005A46084313D0114653EA010019D0C8F13C
:103F80004002504600F0A8F805460E4650465946F5
:103F90004246FFF771FF084305D0012004E02046A8
:103FA0003946BDE8F08D0020054346EAE0762C4313
:103FB00037430A986305E40AA0EB08000022FD0AD3
:103FC00044EA47540A3002D500200146E9E70105DA
:103FD00010196941DDE9084500196941BDE8F04D56
:103FE000A2E770B521F0004303430CD0C1F30A559A
:103FF0000024D5EB040564EB0403D617AD1AB341D6
:1040000002DB0020014670BD201841EB025170BD5B
:104010002DE9F04D00231A461B1A8A4103DB0020CC
:104020000146BDE8F08DC1F30A52C1F3130141F41A
:1040300080154FF0000BD10702D100186D41521EC0
:104040000027044640F2FF11384601EB620A3E4663
:104050008046024600204FF4801100F03DF8C2195E
:104060007141BB1846EB0100B4EB030C75EB000C7F
:1040700004D3E41A65EB000517460E46241908F12F
:1040800001006D4180463428E3DDF91946EB060056
:10409000091BA84103D24FF0FF32134601E0002272
:1040A00013461BEB070046EB0A51BDE8F04DFFF746
:1040B0003BBF0000064C074D06E0E06840F00103FE
:1040C00094E8070098471034AC42F6D3FCF712F896
:1040D000504B0008704B0008202A04DB203A21FADC
:1040E00002F00021704721FA02F3D040C2F1200211
:1040F00091400843194670470FB4054B10B503A90A
:10410000044A029800F09AF810BC5DF814FB000015
:104110009D220008D0000020490050EAC12018BFAD
:1041200004204A0D18BF40F0010040F2FF72B2EBCC
:10413000515F08BF40F00200012808BF052070470A
:104140002DE9F0414F1E00EBC7010446D1E9000103
:1041500015461E4637F006020DD02A463346FFF7B5
:104160004FFD7F1E04EBC703D3E90023FFF7A1FC3B
:1041700037F00602F1D1022F25D0042F13D0062FDD
:1041800018BFBDE8F0812A463346FFF739FDD4E970
:104190000A23FFF78EFC2A463346FFF731FDD4E9A8
:1041A0000823FFF786FC2A463346FFF729FDD4E9AA
:1041B0000623FFF77EFC2A463346FFF721FDD4E9AC
:1041C0000423FFF776FC2A463346FFF719FDD4E9AE
:1041D0000223FFF76EFC2A463346FFF711FDD4E9B0
:1041E0000023BDE8F041FFF764BC0122FFF7F9BEF0
:1041F000FFF75FBC0022134610461146FFF772BD61
:10420000024A00201107FFF7ECBE000001FDFFFF8E
:1042100002E008C8121F08C1002AFAD1704770478F
:10422000002001E001C1121F002AFBD170470000ED
:104230000149086070470000D40000202DE9FF4FBD
:104240008BB09A460F460546002606E025280BD07F
:1042500052460D9990476D1C761C28780028F5D1A0
:104260000FB03046BDE8F08F0024A046012260491F
:1042700000E0044315F8013F203B02FA03F0084236
:10428000F7D128782E2817D115F8010F44F004042F
:104290002A280ED06FF02F022878A0F130010929CA
:1042A0000AD808EB880102EB410100EB01086D1C04
:1042B000F2E757F8048B6D1C287869283ED006DC9D
:1042C0000028CDD063280BD0642804D136E07328B1
:1042D00010D075284BD052460D999047761C85E03A
:1042E00017F8040B8DF8000000208DF80100E94656
:1042F000012003E057F8049B4FF0FF3061074FF0B7
:10430000000401D40AE0641C44450DDA8442FADB5F
:1043100019F804100029F6D106E0641C8442FCDB85
:1043200019F804100029F8D1264404E019F8010B0B
:1043300052460D999047641EF8D257E001CF4FF0D6
:104340000A0B002802DA40422D2102E0210504D5A3
:104350002B218DF82410012103E0E10705D0202155
:10436000F7E70DF1200908910CE00021F9E701CFF2
:104370004FF00A0BF9E75946FFF768FD01F13002EB
:1043800009F8012D0028F6D1ADEB090000F1200B52
:10439000600701D44FF00108D84502DDA8EB0B00FF
:1043A00000E000208046002406E009A85246005D97
:1043B0000D999047641C761C08988442F5DB04E054
:1043C000302052460D999047761CB8F10001A8F1B3
:1043D0000108F5DC05E019F8010B52460D999047EC
:1043E000761CBBF10001ABF1010BF4DC6D1C34E772
:1043F000092801002DE9F04D8D4F21F0004A86B0CB
:1044000005460C46BA452ADBAAEB070028430AD02A
:104410008848824501DC1AD1CDB106B02846BDE8F6
:10442000F04DFFF7E2BE844A844B2846FFF7E8FBD5
:1044300007460E46824A834B28462146FFF7E0FB9B
:1044400006B03A463346BDE8F04DFFF732BB0120D7
:10445000FFF7EEFE06B0BDE8F04DFFF7CBBE7A48A1
:10446000824542DABAF1795F0BDA2846FFF754FE4B
:10447000042808BFFFF7C4FE284606B02146BDE861
:10448000F08D2A460B461046FFF7BAFB83460246DC
:104490006E480E460B4606217844FFF751FE5A46F9
:1044A0003346FFF7ADFB804669488A465A46334695
:1044B00004217844FFF744FE5A463346FFF7A0FB39
:1044C00000223B46FFF7F5FA02460B4640465146AE
:1044D000FFF708FC2A462346FFF792FB06B02A4660
:1044E0002346BDE8F04DFFF7E4BA284624F000412A
:1044F00000223D463B46FFF780FB4FF0FF32FFF7BF
:1045000070FD0646024653480F460B460621784486
:10451000FFF716FE32463B46FFF772FBCDE900017E
:104520004D4832463B4604217844FFF709FE3246A7
:104530003B46FFF765FB00222B46FFF7BAFA83469E
:1045400002913046394600F05DFA804643480D46F8
:10455000504517DCDDE900015A46029BFFF7C2FB1C
:1045600042462B46FFF74CFB42462B46FFF7A1FA8B
:104570000122FFF736FD304A304BFFF73BFB304A54
:10458000304B4CE04FF0000A52460B464046FFF7D6
:1045900090FACDE9031052462B4610461946FFF714
:1045A0002FFB32463B46FFF728FBDDE90332FFF7DE
:1045B00099FB06460F46DDE900015A46029BFFF7CC
:1045C00091FB83460091012230463946FFF709FDF1
:1045D000194A1A4BFFF711FB06460F4601224046C7
:1045E0002946FFF7FEFC5A46009BFFF709FB3246BF
:1045F0003B46FFF7FFFA06460F4601225046294682
:10460000FFF7EFFC0E4DDFF858802A464346FFF7D0
:10461000F4FA32463B46FFF7F0FA2A464346FFF7E4
:10462000ECFA002CD8BF81F0004106B0BDE8F08D57
:104630000000F03F0000F07F075C143326A6913C99
:10464000182D4454FB21F93F0000E03FC405000051
:10465000DA0500004E050000640500003333EF3F2B
:10466000FB21E93F2DE9F84F04460D4621F00040BB
:1046700000917349814211DC7249884201DC06D104
:104680002CB120462946BDE8F84FFFF7AEBD6E4875
:10469000002DCCBF6D496E49BDE8F88F6D49814250
:1046A00011DD6D498142D8BF4FF0FF366DDD2046E8
:1046B0002946FFF731FD042808BFFFF7A1FD20467A
:1046C0002946BDE8F88F6549654F25F000458142D0
:1046D00033DD6449814219DD002632464FF08043C4
:1046E00020462946FFF7E5F980468A460122204602
:1046F0002946FFF776FC00223B46FFF77BFA42464D
:104700005346FFF7EFFA04460D463EE0012600222D
:10471000BA463B4620462946FFF7CBF980460F466E
:104720000022534620462946FFF764FA42463B469C
:10473000FFF7D8FA04460D4627E04B4981421BDDBE
:10474000DFF828A102260022534620462946FFF71B
:1047500057FA00223B46FFF7ACF980460F4600228D
:10476000534620462946FFF745FA42463B46FFF7A7
:10477000B9FA04460D4608E0032622462B460020DF
:104780003B49FFF7AFFA04460D4622462B4610463A
:104790001946FFF735FA8B46824602460B46FFF76D
:1047A0002FFA07460246334888460B4606217844CE
:1047B000FFF7C6FC52465B46FFF722FA82462E48B8
:1047C0008B463A46434605217844FFF7B9FC3A4602
:1047D0004346FFF715FA02460B46002E504659464F
:1047E0000CDAFFF766F922462B46FFF709FA01B00B
:1047F00022462B46BDE8F04FFFF7FFB9FFF759F906
:1048000022462B46FFF7FCF91C4A7A4402EBC6030A
:10481000D3E90023FFF7EEF922462B46FFF7EAF92A
:10482000174A7A4402EBC603D3E90023FFF7E5F900
:10483000009A002AB8BF81F00041BDE8F88F00005F
:10484000000010440000F07F182D4454FB21F93F74
:10485000FB21F9BF0000DC3F0000203E0000F33FD9
:104860000000F03F0000E63F008003400000F83FFA
:104870000000F0BF6603000024030000C202000035
:104880008A0200002DE9F04D9446CCF1000423F09B
:1048900000464CEA0404524F46EAD4749A468846CD
:1048A00021F00042BC4206D8454240EA050442EAF3
:1048B000D474BC4204D9BDE8F04D6246FFF798BC01
:1048C000AAF14055A5F17F6555EA0C040BD00224EE
:1048D00004EAAA74434DDFF810E144EAD87452EABE
:1048E000000B04D00CE0BDE8F04DFFF7BBBE002C80
:1048F00014BF012CBDE8F08D022C30D0032C32D037
:1049000056EA0C0B0AD0BE4220D1BA4209D126F099
:10491000804622F080423346114617E000291ADB18
:1049200025E0DFF8C8B0FB44002C04BFDBE9000140
:10493000BDE8F08D012C02BFDBE9000181F00041F0
:10494000BDE8F08D022C0AD0032C0CD0BA4212D153
:10495000B8F1000F0BDA23482549BDE8F08D284651
:104960002449BDE8F08D28467146BDE8F08D1D480C
:104970002149BDE8F08D921B12153C2AC4BF19488D
:104980001D490EDCBAF1000FBEBF12F13C0F002032
:10499000014606DB6246FFF7A5F921F00041FFF76B
:1049A00061FE002C08BFBDE8F08D012C04BF81F032
:1049B0000041BDE8F08D114A114B022C07D0FFF7E2
:1049C00019F92A46BDE8F04D0A4BFFF713B9FFF776
:1049D00011F92A46BDE8F04D064BFFF70EB900006D
:1049E0000000F07F182D4454FB2109C01E02000076
:1049F000FB21F9BFFB210940FB21F93F075C143380
:104A000026A6A13C2DE9F04106460F46FFF700FB24
:104A100004000D4618BF0120284320F00040C0F1DB
:104A20007F6000F1E040C00F0ED0301C18BF0120A5
:104A3000384320F00040C0F17F6000F1E040C00F3B
:104A400004BF0120FFF7F4FB20462946BDE8F081B2
:104A50003443101001344310100100000000000026
:104A6000555555555555C53F7D6FEB0312D6D4BFEF
:104A70005544880E55C1C93F3B8F68B52882A4BFF5
:104A800088B20175E0EF493F09F7FD0DE13D023FB6
:104A90004B2D8A1C273A03C0C88A599CE52A00403E
:104AA00059018D1B6C06E6BF82922EB1C5B8B33F8B
:104AB0004FBB610567ACDD3F182D4454FB21E93F36
:104AC0009BF681D20B73EF3F182D4454FB21F93F25
:104AD000E2652F227F2B7A3C075C143326A6813CAB
:104AE000BDCBF07A8807703C075C143326A6913C56
:104AF000C4EB98999999C9BF711623FEC671BCBFC2
:104B00006D9A74AFF2B0B3BF9AFDDE522DDEADBF29
:104B10002F6C6A2C44B4A2BF0D5555555555D53F41
:104B2000FF8300922449C23F6E204CC5CD45B73F5C
:104B3000513DD0A0660DB13FEB0D76244B7BA93FD4
:104B400011DA22E33AAD903F0000000000000000BF
:104B5000704B000800000020D80000001042000840
:104B6000484C0008D8000020100400002042000833
:104B70000000000000000000010203040102030421
:104B8000060708090204060800A24A040000000003
:104B900000000000010203040607080900000000ED
:104BA00000000000000000000000803F0000000046
:104BB00000000000000000000000000000000000F5
:104BC00000000000000000000000000000000000E5
:104BD00000000000000000000000000000000000D5
:104BE00000000000000000000000000000000000C5
:104BF00000000000000000000000000000000000B5
:104C000000000000000000000000000000000000A4
:104C10000000000000000000000000000000000094
:104C20000000000000000000000000000000000084
:104C30000000000000000000000000000000000074
:084C400000000000000000006C
:04000005080000ED02
:00000001FF
