:020000040800F2
:10000000E004002001010008D1010008D30100082C
:10001000D7010008DB010008DF0100080000000034
:10002000000000000000000000000000E3010008E4
:10003000E501000800000000E7010008E9010008F0
:100040001B0100081B0100081B0100081B01000820
:100050001B0100081B0100081B0100081B01000810
:100060001B0100081B0100081B0100081B01000800
:100070001B0100081B0100081B0100081B010008F0
:100080001B0100081B0100081B0100081B010008E0
:100090001B0100081B0100081B0100081B010008D0
:1000A0001B0100081B0100081B0100081B010008C0
:1000B0001B0100081B0100081B0100081B010008B0
:1000C0001B0100081B0100081B0100081B010008A0
:1000D0001B0100081B0100081B0100081B01000890
:1000E0001B0100081B0100081B010008DFF80CD0F1
:1000F00003F042FC0048004725010008E00400200E
:100100000648804706480047FEE7FEE7FEE7FEE7B1
:10011000FEE7FEE7FEE7FEE7FEE7FEE7F31B00086B
:10012000ED00000888B001F03BFE01F0E5FD4FF462
:10013000E13001F0A7FE01F073FE01F0FDFE02F0D8
:100140003DF8002140F2E73002F01CFF02F047FECC
:1001500002F048FC02F0DCFF02F0DEFF26E002F0D5
:1001600064FC04A802F0C4FA01A802F019FB0A21F9
:10017000480701F08BFC019803F03AFA0446224646
:100180000B460BA003F01AFC029803F031FA044668
:1001900022460B4608A003F011FC039803F028FA4E
:1001A000044622460B4607A003F008FCD7E70000F0
:1001B0007961773A2566090070697463683A256643
:1001C00009000000726F6C6C3A2566090D0A000088
:1001D000704700BFFEE700BFFEE700BFFEE700BFBD
:1001E000FEE77047704770477047000010B504463F
:1001F000CC48844208D10121042000F02DFB0021CD
:10020000042000F029FB46E0C748844208D10121C0
:10021000082000F021FB0021082000F01DFB3AE03F
:10022000C248844208D10121102000F015FB0021B2
:10023000102000F011FB2EE0BD48844208D10121BE
:10024000202000F009FB0021202000F005FB22E027
:10025000B848844208D10121402000F0FDFA002175
:10026000402000F0F9FA16E0B348844208D1012199
:10027000802000F0F1FA0021802000F0EDFA0AE081
:10028000AE48844207D10121801500F0E5FA002133
:10029000A01500F0E1FA10BD10B50121084600F0EC
:1002A000DBFA0021012000F0D7FA10BD2DE9F04162
:1002B000024600250026002000230024002791F894
:1002C00003C00CF00F0591F803C00CF0100CBCF14A
:1002D000000F03D091F802C04CEA050591F800C068
:1002E000BCF1000F31D0146800202BE04FF0010C5E
:1002F0000CFA00F3B1F800C00CEA03069E4220D1CC
:1003000083004FF00F0C0CFA03F7BC4305FA03FC13
:100310004CEA040491F803C0BCF1280F06D14FF059
:10032000010C0CFA00FCC2F814C00AE091F803C0FA
:10033000BCF1480F05D14FF0010C0CFA00FCC2F8DB
:1003400010C0401C0828D1D31460B1F800C0BCF123
:10035000FF0F34DD546800202EE000F1080C4FF050
:10036000010808FA0CF3B1F800C00CEA03069E423B
:1003700021D183004FF00F0C0CFA03F7BC4305FAB0
:1003800003FC4CEA040491F803C0BCF1280F05D12A
:1003900000F1080C08FA0CF8C2F8148091F803C0B8
:1003A000BCF1480F07D100F1080C4FF0010808FA22
:1003B0000CF8C2F81080401C0828CED35460BDE869
:1003C000F0814FF6FF710180022181700421C1701C
:1003D00070470246002093680B400BB1012000E0FB
:1003E000002070470146886880B2704702460020AE
:1003F000D3680B400BB1012000E00020704701469C
:10040000C86880B2704701617047416170470AB1A6
:10041000016100E041617047C16070474FF4803274
:100420000A43826181618261826982697047024602
:100430000020434B18684FF68073184040EA0210C2
:1004400008433F4B186070473E49C8617047F0B59C
:100450000A46002300240021002500F00046B6F1E2
:10046000004F02D1364EF16901E0354E7168C0F39C
:10047000034583B200F44016B6F5401F08D121F0C1
:1004800070612F4E766826F070662D4F7E6012E008
:1004900000F48016B6F5801F06D1032606FA05F48F
:1004A000A14341F0706106E0460D360103FA06F6FD
:1004B000B14341F0706122B1460D360103FA06F6F0
:1004C000314300F00046B6F1004F02D11C4EF161FD
:1004D00001E01B4E7160F0BD30B500228B071C0F90
:1004E0000F2303FA04F2164B08338C1053F8243010
:1004F0009343134C08348D1044F8253023468C1058
:1005000053F824308C07240F00FA04F423430C4CD6
:1005100008348D1044F8253030BD0A49DC310860BC
:100520007047000000080140000C0140001001402D
:100530000014014000180140001C0140002001404F
:100540000000014000002042DF48006840F0010048
:10055000DD49086008464068DC490840DA494860DF
:1005600008460068DA490840D7490860084600682C
:1005700020F4802008600846406820F4FE004860AF
:100580004FF41F0088607047CF49096821F480311B
:10059000CD4A11601146096821F480211160B0F53F
:1005A000803F03D0B0F5802F0ED106E0C649096820
:1005B00041F48031C44A116007E0C349096841F43D
:1005C000A021C14A116000E000BF00BF704710B514
:1005D00001460022002300204A11012A02D1BA4C10
:1005E000236806E0022A02D1B74C236A01E0B64C28
:1005F000636A01F01F02012494401C400CB10120E9
:1006000000E0002010BD38B5002000900024002537
:1006100000BF3120FFF7DBFF05460098401C00902B
:100620000098B0F5A06F01D0002DF2D03120FFF777
:10063000CEFF08B1012400E00024204638BD014669
:100640000020A14A106820F0F80040EAC1001060C4
:100650007047A04908607047024600209A4B5868CE
:1006600020F47C1042EA01031843974B586070470E
:1006700098490866704701460020934A506820F068
:1006800003000843506070478F48406800F00C003A
:100690007047014600208C4A506820F0F000084363
:1006A0005060704701460020874A506820F4E0609F
:1006B00008435060704701460020834A506820F488
:1006C000605040EAC1005060704729B17E4A527ABA
:1006D00002437D4B5A7204E07B4A527A82437A4B42
:1006E0005A7270477B49D831086070470146002034
:1006F000754A506820F4404008435060704700211C
:10070000714A20321170704A82F82010012802D0FC
:1007100004280AD104E001216B4A2032117005E05F
:100720000521694A2032117000E000BF00BF704708
:100730006949086070476449096A0143624A116265
:100740007047654944390860704730B50021002280
:10075000002400235C4D6D6805F00C0121B10429D3
:1007600005D0082923D105E05C4D056022E05C4DF1
:1007700005601FE0544D6D6805F47012524D6D68B0
:1007800005F48034022505EB92421CB9554D5543C2
:1007900005600BE04C4D6D6805F400351DB14F4D03
:1007A0005543056002E04E4D5543056002E04B4D58
:1007B000056000BF00BF444D6D6805F0F0010909F8
:1007C000494D6B5C0568DD4045603F4D6D6805F443
:1007D000E061090A444D6B5C4568DD4085603A4D37
:1007E0006D6805F46051C90A3F4D6B5C4568DD409A
:1007F000C560354D6D6805F44041890B3B4D6B5C20
:10080000C568B5FBF3F5056130BD29B12E4A5269C3
:1008100002432D4B5A6104E02B4A526982432A4B12
:100820005A61704729B1284A92690243264B9A615E
:1008300004E0254A92698243234B9A61704729B1AB
:10084000214AD2690243204BDA6104E01E4AD26990
:1008500082431D4BDA61704729B11B4AD2680243BB
:10086000194BDA6004E0184AD2688243164BDA600A
:10087000704729B1144A12690243134B1A6104E00C
:10088000114A12698243104B1A617047124940396C
:10089000086070470F49C86470470B49C8717047BA
:1008A0000948406A40F08070074948627047014635
:1008B0000020054A92680A400AB1012000E00020A9
:1008C0007047014988727047001002400000FFF82D
:1008D000FFFFF6FE000042428004424200127A000E
:1008E0000024F40000093D0000000020100000205A
:1008F00010B50446FB48844209D101218803FFF763
:10090000ABFF00214FF48040FFF7A6FF32E0F6482E
:10091000844209D101214804FFF7ABFF00214FF4C5
:100920000030FFF7A6FF25E0F048844209D10121FD
:100930008804FFF79EFF00214FF48020FFF799FF06
:1009400018E0EB48844209D10121C804FFF791FF68
:1009500000214FF40020FFF78CFF0BE0E5488442B4
:1009600008D101210805FFF784FF00214FF4801012
:10097000FFF77FFF10BD2DE9F04786B005460E4614
:100980000024A24600BFA1460027B08900B100BFE5
:100990002F462C8A4CF6FF700440F08804432C82CA
:1009A000AC894EF6F3100440B08831890843718950
:1009B00008430443AC81AC8A4FF6FF400440B08941
:1009C0000443AC8201A8FFF7C0FEC648874202D1AB
:1009D000DDF810A001E0DDF80CA0A88900F40040CB
:1009E00040B10AEBCA0000EB0A1031684900B0FBC5
:1009F000F1F807E00AEBCA0000EB0A103168890041
:100A0000B0FBF1F86420B8FBF0F004012009642188
:100A100001FB1089A88900F4004040B1322000EBAE
:100A2000C900B0FBF1F000F00700044308E03220F9
:100A300000EB09106421B0FBF1F000F00F0004435B
:100A40002C8106B0BDE8F0874FF4165101600021FB
:100A50008180C18001810C21418100218181704709
:100A600010B502460020108A4FF2FF0318400B8891
:100A70004C8823438C882343CC882343184310821B
:100A800010BD0021018041808180C180704721B16B
:100A9000828942F40052828104E082894DF6FF731C
:100AA0001A4082817047F0B50346002400260025D5
:100AB000002040F66A17B94200D100BF1846C1F3C2
:100AC000421401F01F06012707FA06F5012C01D197
:100AD0000C3004E0022C01D1103000E014301AB1C7
:100AE00007682F43076002E00768AF430760F0BD67
:100AF0001AB1838A0B43838202E0838A8B43838209
:100B00007047028A4FF6F0731A400282028A0A4343
:100B10000282704782894FF2FF731A408281828974
:100B20000A438281704721B1828942F002028281A8
:100B300004E082894FF6FD731A4082817047028A71
:100B40004FF6DF731A400282028A0A43028270471C
:100B500021B1028A42F48042028204E0028A4BF60A
:100B6000FF731A4002827047C1F308028280704707
:100B700001468888C0F308007047818941F001016F
:100B800081817047028BD2B20283028B42EA01223A
:100B900002837047028B02F47F420283028B0A4376
:100BA0000283704721B1828A42F02002828204E0EF
:100BB000828A4FF6DF731A408282704721B1828A9F
:100BC00042F01002828204E0828A4FF6EF731A40EC
:100BD0008282704721B1828A42F00802828204E058
:100BE000828A4FF6F7731A408282704721B1828958
:100BF00042F40042828103E08289C2F30E028281C4
:100C0000704721B1828A42F40062828204E0828AC3
:100C10004FF2FF731A4082827047828A4FF6FB734D
:100C20001A408282828A0A438282704721B1828A74
:100C300042F00202828204E0828A4FF6FD731A407B
:100C40008282704702460020B1F5007F00D100BFCC
:100C500013880B400BB1012000E00020704701F425
:100C60000072B2F5007F00D100BFCA430280704716
:100C700070B50246002400230025002040F66A16C5
:100C8000B14200D100BFC1F3421501F01F0301269C
:100C900006FA03F3012D02D19689334006E0022DB6
:100CA00002D1168A334001E0968A33400C120126A5
:100CB00006FA04F41688344013B10CB1012000E0A8
:100CC000002070BD10B50022002340F66A14A14236
:100CD00000D100BF0A1201249440A3B2DC43048077
:100CE00010BD0000003801400044004000480040B2
:100CF000004C00400050004010B50446FE488442BD
:100D000008D10121C014FFF7A7FD0021E014FFF76F
:100D1000A3FDC4E0B4F1804F08D101210846FFF7DC
:100D2000A8FD00210120FFF7A4FDB8E0F3488442AC
:100D300008D101210220FFF79CFD00210220FFF7CE
:100D400098FDACE0EE48844208D101210420FFF771
:100D500090FD00210420FFF78CFDA0E0E9488442CB
:100D600008D101210820FFF784FD00210820FFF7AA
:100D700080FD94E0E448844208D101211020FFF76F
:100D800078FD00211020FFF774FD88E0DF488442E1
:100D900008D101212020FFF76CFD00212020FFF762
:100DA00068FD7CE0DA48844208D101214014FFF755
:100DB00053FD00216014FFF74FFD70E0D5488442D9
:100DC00009D10121C804FFF747FD00214FF400209D
:100DD000FFF742FD63E0D048844209D101210805B4
:100DE000FFF73AFD00214FF48010FFF735FD56E084
:100DF000CA48844209D101214805FFF72DFD002191
:100E00004FF40010FFF728FD49E0C548844208D19F
:100E100001214020FFF72DFD00214020FFF729FD93
:100E20003DE0C048844208D101218020FFF721FD28
:100E300000218020FFF71DFD31E0BB48844208D12E
:100E400001218015FFF715FD0021A015FFF711FD09
:100E500025E0B648844209D101210804FFF7FCFCD3
:100E600000214FF48030FFF7F7FC18E0B0488442CF
:100E700009D101214804FFF7EFFC00214FF40030B5
:100E8000FFF7EAFC0BE0AB48844208D1012188045B
:100E9000FFF7E2FC00214FF48020FFF7DDFC10BDDE
:100EA00000220288944B98420ED0994B98420BD066
:100EB000B0F1804F08D0914B984205D0904B9842AA
:100EC00002D0904B984204D14FF68F731A404B8852
:100ED0001A438D4B984207D08C4B984204D04FF662
:100EE000FF431A40CB881A4302808B8883850B8886
:100EF0000385814B98420BD0854B984208D08B4B91
:100F0000984205D08A4B984202D08A4B984201D130
:100F10000B7A038601238382704770B50024002278
:100F20000023058C4FF6FE7635400584028C8388BD
:100F3000048B4FF68F752C40B51E2C400D882C432A
:100F4000751E2A400D892A434D882A436A4DA842BE
:100F50000BD06F4DA84208D0744DA84205D0744DF7
:100F6000A84202D0734DA84213D14FF6F7752A401C
:100F70004D892A434FF6FB752A408D882A434FF648
:100F8000FF652B404FF6FF552B408D892B43CD89B4
:100F90002B4383800483CD888586028470BD70B521
:100FA000002400220023058C4FF6EF76354005849F
:100FB000028C8388048B48F6FF752C404FF6FF4562
:100FC0002C400D884FF6FF7606EA05252C434FF698
:100FD000DF752A400D8906EA05152A434D8806EA81
:100FE00005152A43444DA84202D0494DA8421DD1BF
:100FF0004FF67F752A404D894FF6FF7606EA0515B4
:101000002A434FF6BF752A408D8806EA05152A4304
:101010004FF6FF352B404FF2FF752B408D8906EAC6
:1010200085052B43CD8906EA85052B438380048300
:10103000CD880587028470BD70B50024002200238E
:10104000058C4FF6FF6635400584028C8388848BBF
:101050004FF68F752C404FF6FC752C400D882C43B5
:101060004FF6FF552A400D894FF6FF7606EA052513
:101070002A434D8806EA05252A431F4DA84202D07F
:10108000234DA8421DD14FF2FF752A404D894FF6DE
:10109000FF7606EA05252A434FF6FF352A408D885C
:1010A00006EA05252A434EF6FF752B404DF6FF75DF
:1010B0002B408D8906EA05152B43CD8906EA0515D7
:1010C0002B4383808483CD888587028470BD70B56F
:1010D000002200230024058C4EF6FF76354005845F
:1010E000038C8488828B48F6FF752A404FF6FF45B3
:1010F0002A400D8820E00000002C01400004004040
:1011000000080040000C00400010004000140040A7
:1011100000340140004C01400050014000540140A7
:1011200000180040001C004000200040004001402A
:1011300000440140004801404FF6FF7606EA0525CD
:101140002A434DF6FF752B400D8906EA05352B43E2
:101150004D8806EA05352B43FA4DA84202D0FA4DD8
:10116000A84208D14BF6FF752C408D894FF6FF76CB
:1011700006EA85152C4384808283CD88A0F84050F0
:10118000038470BD828B4FF2FF331A408283828BBF
:101190004FF6FF7303EA01231A4382837047F0B5C9
:1011A0000C461546002200210026078C4EF6FF7CD7
:1011B00007EA0C070784828B018C4FF6FF7707EA5A
:1011C000043640F6FF473A404FF6FF7707EA052717
:1011D0003A434FF6FF7707EA03373A43D94FB8420D
:1011E0000ED0D94FB8420BD0B0F1804F08D0D74FB6
:1011F000B84205D0D64FB84202D0D64FB84206D139
:101200004DF6FF77394046F48057394305E047F6FD
:10121000FF57394044F48057394382830184F0BD3D
:10122000828B4FF6F3731A408283828B0A43828348
:101230007047F0B50C461546002200210026078CA9
:101240004FF6FF6C07EA0C070784828B018C4FF680
:10125000FF7707EA04264FF60C773A404FF6FF7700
:1012600007EA03172F433A43B64FB8420ED0B64FA2
:10127000B8420BD0B0F1804F08D0B44FB84205D07F
:10128000B34FB84202D0B34FB84206D14FF6FF5722
:10129000394046F48077394305E04FF2FF57394033
:1012A00044F48077394382830184F0BD028B4FF28E
:1012B000FF331A400283028B4FF6FF7303EA0123C8
:1012C0001A4302837047F0B50C46154600220021F0
:1012D0000026078C4FF6EF7C07EA0C070784028B89
:1012E000018C4FF6FF7707EA041640F6FF473A40B5
:1012F0004FF6FF7707EA03373A434FF6FF7707EADF
:1013000005273A438F4FB8420ED08F4FB8420BD0CB
:10131000B0F1804F08D08D4FB84205D08C4FB84205
:1013200002D08C4FB84206D14FF6DF77394046F0F5
:101330001007394305E04FF65F77394044F0100756
:10134000394302830184F0BD028B4FF6F3731A40D8
:101350000283028B0A4302837047F0B50C461546A0
:1013600000220021068C4FF6FE773E400684028B59
:10137000018C4FF60C7632407E1C06EA03162E4393
:101380003243704EB0420ED06F4EB0420BD0B0F12F
:10139000804F08D06D4EB04205D06D4EB04202D0A5
:1013A0006C4EB04206D14FF6FD76314044F0010656
:1013B000314305E04FF6F576314044F00106314304
:1013C00002830184F0BD70B505460C465D48854238
:1013D0000ED05D4885420BD0B5F1804F08D05B48F8
:1013E000854205D05A48854202D05A48854200D1EC
:1013F00000E000BF208850B92389A2886188284670
:10140000FFF7ABFFE1882846FFF79EFF25E0208825
:1014100004280AD12389A28861882846FFF753FF50
:10142000E1882846FFF742FF17E0208808280AD104
:101430002389A28861882846FFF7FBFEE1882846B9
:10144000FFF7EEFE09E02389A28861882846FFF7AE
:10145000A6FEE1882846FFF795FE70BD2DE9F04114
:1014600005460C4600260127608808B9022600E0E0
:101470000026A088012801D1022700E0012720884A
:10148000A0B92389A28861882846FFF766FFE18812
:101490002846FFF759FF23893A4631462846FFF789
:1014A00012FFE1882846FFF701FF13E02389A28895
:1014B00061882846FFF707FFE1882846FFF7F6FE18
:1014C00023893A4631462846FFF747FFE1882846F8
:1014D000FFF73AFFBDE8F0810A884B881A438B88F2
:1014E0001A43CB881A430B891A434B891A438B89B9
:1014F0001A43A0F8442070474FF6FF718180002105
:101500000180C180418001727047002101804180CB
:101510008180C180018141818181C1817047002129
:1015200001804180012181800021C18001817047BB
:101530000021018041808180C180018141818181C0
:1015400070470000002C01400034014000040040BE
:1015500000080040000C004021B1028842F0010266
:10156000028004E002884FF6FE731A400280704742
:1015700031B1B0F8442042F40042A0F8442005E024
:10158000B0F84420C2F30E02A0F8442070471AB10C
:1015900083890B43838102E083898B438381704776
:1015A0008182704741EA0203A0F8483070471AB1BF
:1015B00083890B43838102E083898B438381704756
:1015C00001894FF6F8721140018170470A460021E7
:1015D00001894FF68F73194011430181704730B56F
:1015E00004460D4629462046FFF7F0FF208940F0CB
:1015F0000700208130BD2DE9F04104460D46164616
:101600001F46602D06D13B46012231462046FFF79A
:101610005AFE05E03B46012231462046FFF79DFE7B
:1016200029462046FFF7D2FF208940F0070020819D
:10163000BDE8F08130B50C4600210189C9B24FF6F2
:10164000FF7505EA0325154325432943018130BD74
:101650002DE9F04105460E461746984600244346BC
:101660003A4631462846FFF7E5FF2C894FF6F870D9
:10167000044044F007044FF68F70044044F07004B7
:101680002C81BDE8F081F0B504460D4616461F4694
:101690003B46324629462046FFF7CCFF208940F4DE
:1016A00080402081F0BD0185828270470A4600217A
:1016B00001884FF68F731940114301807047F0B5D0
:1016C0000C4615461E460021002200230189028B8C
:1016D000038C4FF6F877394021434FF6FC473A40E8
:1016E00040F201173A434FF6DD773B404FF6FF7764
:1016F00007EA06172F433B43018102830384F0BDB1
:101700000A460021018B4FF68F7319401143018364
:1017100070470A460021018B48F6FF7319404FF6C7
:10172000FF7303EA02231943018370470A4600212D
:10173000818B4FF68F7319401143818370470A469E
:101740000021818B48F6FF7319404FF6FF7303EABF
:10175000022319438183704721B1028842F080023D
:10176000028004E002884FF67F731A4002807047BF
:1017700021B1828842F00402828004E082884FF620
:10178000FB731A408280704721B1828842F00802C0
:10179000828004E082884FF6F7731A408280704797
:1017A00021B1828842F00102828004E082884FF6F3
:1017B000FE731A40828070470A460021018B4FF663
:1017C000F77319401143018370470A460021018BCA
:1017D0004FF2FF7319404FF6FF7303EA02231943D8
:1017E000018370470A460021818B4FF6F773194039
:1017F0001143818370470A460021818B4FF2FF73AA
:1018000019404FF6FF7303EA02231943818370479F
:101810000A460021018B4FF6FB73194011430183E7
:1018200070470A460021018B4FF6FF3319404FF6EF
:10183000FF7303EA02231943018370470A4600211C
:10184000818B4FF6FB7319401143818370470A4621
:101850000021818B4FF6FF3319404FF6FF7303EAE7
:1018600002231943818370470A460021018B4FF6FA
:101870007F7319401143018370470A460021018B91
:10188000C1F30E014FF6FF7303EA022319430183EC
:1018900070470A460021818B4FF67F731940114330
:1018A000818370470A460021818BC1F30E014FF6F8
:1018B000FF7303EA02231943818370470A4600211C
:1018C000018C4FF6FD7319401143018470470A469D
:1018D0000021018C4FF6F7731940114301847047C2
:1018E0000A460021018C4FF6DF7319404FF6FF7353
:1018F00003EA02131943018470470A460021018C50
:101900004FF67F7319404FF6FF7303EA0213194332
:10191000018470470A460021018C4FF6FF5319409D
:101920004FF6FF7303EA02231943018470470A4606
:101930000021018C4FF2FF7319404FF6FF7303EA49
:1019400002231943018470470A460021018C4DF699
:10195000FF7319404FF6FF7303EA02331943018402
:10196000704730B5002301248C40A3B2048C9C4303
:101970000484048C02FA01F5ADB22C43048430BD1A
:1019800030B5002304248C40A3B2048C9C4304840F
:10199000048C02FA01F5ADB22C43048430BD70B55D
:1019A0000346002000241846183001258D40ACB2B3
:1019B0001D8CA5431D8409B1082909D100EB6100E4
:1019C000056825F0700505600568154305600EE0A3
:1019D0000D1FC5F34E052844056825F4E045056054
:1019E00005684FF6FF7606EA02263543056070BDAE
:1019F00021B1028842F00202028004E002884FF620
:101A0000FD731A400280704721B1028842F004023F
:101A1000028004E002884FF6FB731A400280704790
:101A200021B1828842F08002828004E082884FF6F1
:101A30007F731A408280704702884FF6F7731A400E
:101A4000028002880A430280704782884FF68F73B3
:101A50001A40828082880A438280704702894FF64A
:101A6000F8731A40028102890A4302817047028991
:101A70004FF67F731A40028102890A430281704740
:101A800081847047818570478186704701877047E0
:101A900081877047A0F84010704702884FF6FF43D7
:101AA0001A40028002880A43028070470146888EED
:101AB00070470146088F70470146888F704701467E
:101AC000B1F8400070470146888C70470146088D88
:101AD000704702460020138A0B400BB1012000E042
:101AE00000207047CA430282704730B5024600208A
:101AF00000230024158A05EA0103958905EA0104FB
:101B000013B10CB1012000E0002030BDCA430282B5
:101B1000704700000CB50020019000906C480068F0
:101B200040F480306A49086000BF6948006800F4EA
:101B3000003000900198401C0190009818B901985D
:101B4000B0F5A06FF1D16248006800F4003010B128
:101B50000120009001E0002000900098012843D16E
:101B60005C48006840F010005A4908600846006868
:101B700020F0030008600846006840F0020008609A
:101B800053484068524948600846406848600846E3
:101B9000406840F4806048600846406820F47C104B
:101BA00048600846406840F4E8104860084600680D
:101BB00040F08070086000BF4548006800F0007089
:101BC0000028F9D04248406820F0030040494860AE
:101BD0000846406840F00200486000BF3C4840684A
:101BE00000F00C000828F9D10CBD10B5FFF792FFEA
:101BF00010BD10B53648006840F001003449086057
:101C00000846406834490840314948600846006841
:101C1000324908402E4908600846006820F48020B8
:101C200008600846406820F4FE0048604FF41F003A
:101C30008860FFF7DAFF4FF000602949086010BDA7
:101C400010B5002100200022214B5B6803F00C013D
:101C500021B1042906D0082928D107E0214B224CC4
:101C6000236027E0214B204C236023E0184B5B6866
:101C700003F47010164B5B6803F48032022303EB0D
:101C8000904022B91A4B4343174C23600DE0104B90
:101C90005B6803F4003323B1124B4343124C2360BF
:101CA00003E0124B4343104C236003E00D4B0E4CFA
:101CB000236000BF00BF064B5B68C3F303130D4CEA
:101CC000E15C094B1B68CB40074C236010BD000052
:101CD00000100240002002400000FFF8FFFFF6FE67
:101CE00008ED00E000127A00140000200024F40047
:101CF00000093D00180000204FF0E020006920F0AE
:101D000004004FF0E02108610920234908700846CB
:101D1000007800EB4001C1EBC0104FF6FF7101EA03
:101D2000C0001E490880704701461C4A12884A4379
:101D30004FF0E0235A6100229A6101221A6100BF2C
:101D40004FF0E022106900F001021AB100F4803275
:101D5000002AF5D000224FF0E0231A619A61704703
:101D600001460D4A12784A434FF0E0235A6100229F
:101D70009A6101221A6100BF4FF0E022106900F061
:101D800001021AB100F48032002AF5D000224FF08F
:101D9000E0231A619A617047280000202A00002081
:101DA00010B5FEF7D1FB4FF48030FEF7EDFBFEF7E8
:101DB0002AFC012830D10020FEF76BFC0020FEF742
:101DC0007AFC4FF48060FEF76DFC1448006840F028
:101DD0001000124908600846006820F003000860FF
:101DE0000846006840F0020008604FF4E0114FF42C
:101DF0004030FEF731FC0120FEF73AFC00BF3920ED
:101E0000FEF7E5FB0028FAD00220FEF734FC00BF05
:101E1000FEF73AFC0828FBD110BD0000002002406C
:101E200008B501210820FEF7FDFC2020ADF80000D8
:101E300003208DF8020010208DF803006946104839
:101E4000FEF734FA08BD70B505460C460DE02020BB
:101E50000B49143108602046FFF782FF2020084913
:101E6000103108602046FFF77BFF2800A5F1010133
:101E7000CDB2ECD1202002491431086070BD0000C1
:101E8000000C014010B586B00446012144F2040064
:101E9000FEF7C8FC4FF40070ADF8140018208DF860
:101EA000170003208DF8160005A92148FEF7FEF95A
:101EB0004FF48060ADF8140004208DF8170005A9D8
:101EC0001B48FEF7F3F901940020ADF80800ADF8C7
:101ED0000A00ADF80C00ADF810000C20ADF80E00B3
:101EE00001A91448FEF747FD01211248FEF7CFFD76
:101EF00006B010BD70B504460D46E1B20D48FEF7C0
:101F000033FE00BF40210B48FEF79CFE0028F9D0AD
:101F1000204670BD10B5044600BF20210548FEF7DD
:101F200091FE0028F9D00348FEF722FE10BD000004
:101F3000000801400038014008B501210820FEF7E3
:101F400071FC4FF44060ADF8000010208DF80300E4
:101F500003208DF8020069469548FEF7A7F94FF473
:101F600040619348FEF74FFA012092490860924978
:101F7000C1F8AC0108BD10B58D48001D006820F403
:101F800070408B49091D08600846006840F44050C5
:101F9000086001208749091D08608749C1F8A80128
:101FA0000420FFF7DDFE00208249091D086004209F
:101FB000FFF7D6FE00208049C1F8A80110BD10B57A
:101FC0007B48001D006820F470407949091D0860B5
:101FD0000846006840F440500860002075490860D9
:101FE0007549C1F8AC010420FFF7BAFE0120714920
:101FF00008607149C1F8AC010420FFF7B1FE10BDC3
:1020000010B500246A48001D006820F4704068493B
:10201000091D08600846006840F40040086001207F
:102020006449091D0860FFF79BFE01206249C1F861
:10203000A801FFF795FE07E0601CC4B2FA2C03DD8F
:10204000FFF7BDFF012010BD5A487C38006800280A
:10205000F2D15849086000BFF5E710B50020554996
:1020600008605348001D006820F470405049091D65
:1020700008600846006840F44050086000204E495F
:10208000C1F8AC010220FFF76BFE0120494908604E
:102090000220FFF765FE00204749C1F8A80110BDE6
:1020A00010B50020434908604148001D006820F435
:1020B00070403F49091D08600846006840F44050E0
:1020C000086001203C49C1F8AC010220FFF748FE3E
:1020D0000120384908600220FFF742FE00203649FF
:1020E000C1F8A80110BD70B504463148001D006854
:1020F00020F470402E49091D08600846006840F42D
:102100004050086000202B49086000251EE0E009CF
:1021100020B101202749091D086003E0002025495E
:10212000091D08606006040E0220FFF719FE012059
:10213000204908600220FFF713FE00201E49C1F865
:10214000A8010220FFF70CFE681CC5B2082DDEDBDB
:10215000FFF756FF70BD70B500241548001D0068DC
:1021600020F470401249091D08600846006840F4D8
:1021700000400860002516E000200E49086002209B
:10218000FFF7EEFD01200C49C1F8A8016006040E1E
:1021900008487C38006808B1601CC4B20120FFF711
:1021A000DFFD681CC5B2082DE6DB204670BD0000CF
:1021B000000C0140A8812142008021420EB501217E
:1021C0000620FEF73CFB6846FFF796F94FF6FF70D6
:1021D000ADF804000020ADF80000ADF80600ADF841
:1021E00002006946FE48FEF75BFE00221146FC48ED
:1021F000FFF759FA0121FA48FFF7FAFB2021F848C6
:10220000FFF7E4F90721F648FFF728FC8021F4489E
:10221000FFF72DFC0121F248FFF79EFA4FF6FF7001
:10222000ADF804004820ADF800000020ADF806002D
:10223000ADF802006946EB48FEF732FE0121E9489D
:10224000FFF78AFA0421E748FFF708FC0121E54877
:10225000FFF7DAFB2021E348FFF7F7FB8021E14895
:10226000FFF705FC0121DF48FFF776F90121DC4883
:10227000FFF772F90EBD0020D94924310888000407
:10228000D84924310988084470472DE9FF4F91B09F
:10229000814692461D46DDF878B0FFF7ECFFD24943
:1022A000086008460068D149096888420FD2CF49C2
:1022B00009684FF6FF72511ACB4A1268881801F06C
:1022C00081F9CB490B9000F0B7FF04460BE0C649FB
:1022D0000968C64A1268881A01F074F9C4490B905B
:1022E00000F0AAFF0446C0480068C04908601F9972
:1022F000084600F06FFF59460690584600F06AFF06
:1023000029460490284600F065FF0390049900F0E8
:1023100009FF0590069900F005FF079001F068F9A4
:10232000CDE9080102F03EFBCDE90A0101F073F9A5
:102330000F9028460F9900F07FFF054658460F99E9
:1023400000F07AFF83460F991F9800F075FF1F90E9
:10235000A8480168A848006800F03CFF0A90A74818
:102360000168A748006800F035FF09900A9900F05D
:102370002BFF4FF080410B9000F02CFF0E909F48F8
:1023800001689C48006800F025FF0A909C4801689D
:102390009948006800F01EFF09900A9900F0C2FEFB
:1023A0004FF080410B9000F015FF0D9093480168AD
:1023B000006800F00FFF0B908E480168006800F085
:1023C00009FF09908E480168006800F003FF07903C
:1023D00089480168006800F0FDFE0690079900F04A
:1023E000F3FE0890099900F0EFFE0A900B9900F0B7
:1023F00099FE0C900D991F9800F0ECFE0B9058463A
:102400000C9900F0E7FE0A900B9900F0DDFE0646FD
:1024100028460C9900F0DEFE0B900E991F9800F0F4
:10242000D9FE0A900B9900F0CFFE074658460E9948
:1024300000F0D0FE0B9028460D9900F0CBFE0A90DC
:102440000B9900F0C1FE80466E49304600F0C2FE96
:102450000B906D4801680B9800F064FE6A490860B3
:102460006849384600F0B6FE0B90684801680B9842
:1024700000F058FE654908606249404600F0AAFE37
:102480000B90634801680B9800F04CFE60490860AF
:1024900031464FF0804000F09DFE49460A9000F022
:1024A00041FE0B90584801680B9800F03BFE8146B6
:1024B00039464FF0804000F08DFE0A90129900F0EE
:1024C00031FE0B90514801680B9800F02BFE1290E2
:1024D00041464FF0804000F07DFE51460A9000F0EA
:1024E00021FE0B904A4801680B9800F01BFE8246C3
:1024F00051464248006800F06DFE09903D4812992F
:10250000006800F067FE07903D48006880F00040DA
:102510004946059000F05EFE0690079900F054FED3
:102520000890099900F050FE21460A9000F052FEF2
:102530000B90314801680B9800F0F4FD2E490860BB
:102540002E481299006800F045FE5146099029482E
:10255000006800F03FFE079027480168484600F0F9
:1025600039FE0690079900F0DDFD0890099900F00A
:102570002BFE21460A9000F02DFE0B9020480168AA
:102580000B9800F0CFFD1E4908601C4801684846C2
:1025900000F020FE514609901948006800F01AFE2C
:1025A000079015481299006800F014FE06900799EC
:1025B00000F00AFE0890099900F0B4FD21460A9047
:1025C00000F008FE0B900B4801680B9800F0AAFD84
:1025D0000849086008460168484600F0FBFD19E01C
:1025E0000008004000040040300000202C000020C3
:1025F0000024F4493C00002034000020400000206A
:10260000380000200AD7A33B4400002048000020E7
:102610004C0000200990D0481299006800F0DAFDC3
:1026200051460790CD48006800F0D4FD0690079908
:1026300000F078FD0890099900F0C6FD21460A9047
:1026400000F0C8FD0B90C64801680B9800F06AFDC9
:10265000C349086008460168006800F0BBFD0690A9
:10266000C0480168006800F0B5FD0490BA480168F0
:10267000006800F0AFFD0290B8480168006800F003
:10268000A9FD0190029900F04DFD0390049900F01E
:1026900049FD0590069900F045FD079000F0A8FF60
:1026A000CDE9080102F07EF9CDE90A0100F0B3FF9F
:1026B0000F90AA480F99006800F0BEFDA749086076
:1026C000A5480F99006800F0B7FDA3490860A54828
:1026D0000F99006800F0B0FDA2490860A0480F996A
:1026E000006800F0A9FD9E49086015B0BDE8F08FB4
:1026F0002DE9FF5F82469C48006800F079FF804624
:102700009A4A9B4B00F07DFE06460022994B00F052
:10271000EAFE044600F07FFF83469748006800F019
:1027200067FF8046914A924B00F06BFE06460022FE
:10273000904B00F0D8FE044600F06DFF03908F48E8
:10274000006800F055FF8046884A894B00F059FE2A
:1027500006460022874B00F0C6FE044600F05BFFF1
:1027600002908748006887490968CDE900108648CB
:102770005A460368DDE90201FFF787FD77480068E4
:10278000CAF8000074480068CAF804007548006878
:10279000CAF8080072480068CAF80C00BDE8FF9F3C
:1027A0002DE9F04F8DB0824608A8FFF7A1FF4FF04A
:1027B00080400B9900F00EFD00900B9900F00AFD8F
:1027C00001904FF040400A9900F004FD00900A99F2
:1027D00000F000FD8346019900F0F6FC81464FF0C1
:1027E0007E5100F09FFC804600F002FF06460F4637
:1027F0004FF08040089900F0EDFC01900B9900F03B
:10280000E9FC81464FF08040099900F0E3FC01901B
:102810000A9900F0DFFC8346494600F083FC8046BD
:1028200000F0E6FE32463B46CDE9020101F0FAFF38
:102830000022504BCDE9040100F0E3FD4B4A4C4B24
:10284000CDE9060100F04FFE044600F0E4FECAF8B0
:1028500000004FF08040089900F0BCFC03900A99FA
:1028600000F0B8FC05904FF04040099900F0B2FC30
:1028700003900B9900F0AEFC0490059900F052FC17
:10288000834600F0B5FECDE9060101F083FD81F03D
:10289000004180460022374B00F0B3FD0646334A24
:1028A000334B00F020FE044600F0B5FECAF80400E9
:1028B0004FF080400A9900F08DFC00900A9900F0DA
:1028C00089FC01904FF04040099900F083FC009092
:1028D000099900F07FFC8346019900F075FC814660
:1028E0004FF07E5100F01EFC804600F081FECDE9E5
:1028F00002014FF08040089900F06CFC01900999AA
:1029000000F068FC81464FF080400A9900F062FCBC
:1029100001900B9900F05EFC8346494600F002FCF2
:10292000804600F065FE0646DDE9022301F07AFFED
:102930000022104BCDE9040100F063FD04460B4A70
:102940000B4B00F0D0FDCDE9060100F064FECAF8A3
:1029500008000DB0BDE8F08F3800002034000020E2
:10296000400000203C000020640000206E861BF028
:10297000F921094000806640600000205C000020D2
:102980007C000020780000207400002070B506460E
:102990000C461546FFF7EFFA3046FFF7A4FB20463A
:1029A000FFF7A1FB2846FFF79EFBFFF708FB70BD72
:1029B00070B504460D46FFF7DEFA2046FFF793FB9D
:1029C0002846FFF790FBFFF7D6FA611CC8B2FFF765
:1029D0008AFBFFF7C0FB0646FFF762FBFFF7EFFA43
:1029E000304670BD10B500226B21D020FFF7CEFF1E
:1029F000C820FFF799F903226B21D020FFF7C6FF0B
:102A000007221921D020FFF7C1FF06221A21D0206A
:102A1000FFF7BCFF08221B21D020FFF7B7FF0922D8
:102A20001C21D020FFF7B2FF10BD2DE9F04F93B06D
:102A30007521D020FFF7BCFFFE4908704421D0204B
:102A4000FFF7B6FFFC4908704321D020FFF7B0FF25
:102A5000F949487008460078497840EA012000B2F8
:102A6000F64908800846B0F9000000F0B0FD804645
:102A70000022F34B00F037FD0646F2480CC8304602
:102A800000F0B9FC044600F0C6FDEF49086046219D
:102A9000D020FFF78DFFE84988704521D020FFF74F
:102AA00087FFE549C87008468078C97840EA012068
:102AB00000B2E64908800846B0F9000000F087FD42
:102AC00006460022DE4B00F00EFD8046E0480CC8B2
:102AD000404600F090FC044600F09DFDDD49086092
:102AE0004821D020FFF764FFD34908714721D02047
:102AF000FFF75EFFD049487108460079497940EAFE
:102B0000012000B2D44908800846B0F9000000F066
:102B10005EFD80460022CA4B00F0E5FC0646CF4829
:102B20000CC8304600F067FC044600F074FDCC4948
:102B300008603C21D020FFF73BFFBF4988713B2153
:102B4000D020FFF735FFBC49C87108468079C979A4
:102B500040EA012000B2C34908800846B0F90000ED
:102B600000F035FD06460022BF4B00F0BCFC0446D9
:102B700000F051FDBD4908603E21D020FFF718FF4D
:102B8000AD4908723D21D020FFF712FFAA494872D3
:102B90000846007A497A40EA012000B2B449088028
:102BA0000846B0F9000000F012FD06460022AE4BC8
:102BB00000F099FC044600F02EFDAE49086040216B
:102BC000D020FFF7F5FE9C4988723F21D020FFF707
:102BD000EFFE9949C8720846807AC97A40EA012016
:102BE00000B2A54908800846B0F9000000F0EFFCEB
:102BF000064600229C4B00F076FC044600F00BFDDC
:102C00009E4908609B480168006800F0E3FA029062
:102C10009A480168006800F0DDFA0190029900F01E
:102C200081FA039000F0E4FCCDE9040101F0BAFE62
:102C3000804689468D48006800F0DAFC0646424628
:102C40004B4600F050FC044601F0DCFC00228C4BAB
:102C5000CDE9060100F0D5FB82468A4A8A4B00F096
:102C600042FC8A4A8A4BCDE9080100F0C4FB0022ED
:102C7000884BCDE90A0100F036FC0022804BCDE9FB
:102C80000C0100F0BEFB0022834BCDE90E0100F0E9
:102C9000B2FBCDE9100100F0BEFC80490860774826
:102CA0000168006800F096FA834670480168006881
:102CB00000F090FA5946019000F034FA824600F094
:102CC00097FCCDE9020101F06DFECDE904016948F0
:102CD000006800F08DFC0646DDE9042300F003FCEB
:102CE000CDE9060101F08EFC0022654BCDE908011B
:102CF00000F087FB634A644BCDE90A0100F0F3FB67
:102D0000674A684BCDE90C0100F075FB80465D4ACF
:102D10005242654B00F0E7FB0022594BCDE90E0112
:102D200000F06FFB044600225B4B00F064FBCDE932
:102D3000100100F070FC5D4908604E4801680068B1
:102D400000F048FA834649480168006800F042FAFA
:102D50005946019000F0E6F9824600F049FCCDE9C1
:102D6000020101F01FFE06460F464448006800F0CD
:102D70003FFC32463B46CDE9040100F0B4FB04467B
:102D800001F040FC00223E4BCDE9060100F039FB8A
:102D90003C4A3D4BCDE9080100F0A5FB444A454BB8
:102DA000CDE90A0100F027FB4FF06632424BCDE936
:102DB0000C0100F098FB0022314BCDE90E0100F030
:102DC00020FB80460022344B00F015FBCDE91001BA
:102DD00000F021FC3949086013B0BDE8F08F2DE9FF
:102DE000F84F00250026A946AA46AB4600200090D1
:102DF000C820FEF7B5FF00246EE0FFF716FE12486C
:102E00000168284600F08EF90546124801683046F0
:102E100000F088F9064612480168484600F082F939
:102E200081461E480168504600F07CF982461F48E2
:102E3000016845E0C4000020D000002050000020C0
:102E400000605040900000205C00002052000020F4
:102E5000980000206000002054000020A000002006
:102E600064000020560000200000D04068000020D0
:102E7000580000206C0000205A0000207000002044
:102E8000008066401F85EB51B81E094042E90B21C6
:102E9000E70256C0001066400080564074000020D3
:102EA000C6850321594456C047516640780000202A
:102EB0003BAA9A20EA7456C0667666407C000020E1
:102EC000584600F02FF9834625480168009800F025
:102ED00029F90090601CC4B2322C8EDB284600F029
:102EE00087FB074600221F4B00F0FDFA1E4A03C273
:102EF000304600F07DFB074600221A4B00F0F3FA43
:102F00001A4A03C2484600F073FB07460022154BDD
:102F100000F0E9FA164A03C2504600F069FB074682
:102F20000022104B00F0DFFA124A03C2584600F0AC
:102F30005FFB074600220B4B00F0D5FA0E4A03C296
:102F4000009800F055FB07460022064B00F0CBFA34
:102F50000A4A03C201200A490860BDE8F88F000050
:102F60007C000020000049409000002098000020D4
:102F7000A0000020A8000020B0000020B800002021
:102F8000C00000203EB505460C4601210846FDF76D
:102F900056FCADF80450ADF800400020ADF8060036
:102FA000ADF8020069464FF08040FDF779FF01213E
:102FB0008807FEF7D1FA3EBD08B501210420FDF7D0
:102FC00031FC0120ADF8000018208DF8030003202B
:102FD0008DF8020069465248FDF768F908BD1FB533
:102FE0006020ADF800000120ADF802000020ADF82F
:102FF000080069464FF08040FDF78FFF0821C806A2
:10300000FEF7DAFB01218807FEF7A6FA1FBD08B517
:1030100001210420FDF706FC0220ADF80000182075
:103020008DF8030003208DF8020069463C48FDF747
:103030003DF908BD1FB56020ADF800000120ADF8D6
:1030400002000020ADF8080069464FF08040FDF70F
:10305000A6FF0821C806FEF7B8FB01218807FEF786
:103060007BFA1FBD08B501210420FDF7DBFB04201E
:10307000ADF8000018208DF8030003208DF8020041
:1030800069462748FDF712F908BD1FB56020ADF865
:1030900000000120ADF802000020ADF808006946EC
:1030A0004FF08040FDF7C8FF0821C806FEF79AFBE5
:1030B00001218807FEF750FA1FBD08B50121042041
:1030C000FDF7B0FB0820ADF8000018208DF80300D4
:1030D00003208DF8020069461148FDF7E7F808BDA6
:1030E0001FB56020ADF800000120ADF802000020FF
:1030F000ADF8080069464FF08040FDF7E8FF082171
:10310000C806FEF778FB01218807FEF725FA1FBDE8
:1031100010B5FFF77CFF10BD10B5FFF78BFF10BD9A
:1031200000080140F0B480EA0102D40F4200B2EB83
:10313000410F02D20246084611464A0042D0C30D52
:10314000DDB2C1F3C752AD1A202D35DAC1F3160135
:1031500041F4000204B15242C5F1200602FA06F120
:103160002A411044B3EBD05F23D0C4B1012DA0EBB2
:10317000C35009DCF0BC4FF0004202EAC352DBB29C
:1031800000F5000000F0D4BA400000F1807000EBC0
:10319000C350A0F1807040EAD170490009E04908AD
:1031A00041EAC071A0EBC35000F50000400800EBFD
:1031B000C350F0BC00F0B3BA6142012202EB4101FE
:1031C000001BF6E7F0BC704781F00041AAE780F0F1
:1031D0000040A7E780EA010210B502F0004340007A
:1031E00022D04A001FD0010E01EB1261C0F356003D
:1031F000C2F3560240F4000042F40002A0FB022099
:1032000000047F39140400D0401C50EA124001D45D
:103210004000491EC2B20C0604EBD010401C40080E
:10322000802A02D003E0002010BD20F00100002918
:1032300000DA0020184310BD30B480EA010202F029
:10324000004530F0004221F0004013D090B1C30D92
:10325000D40DC2F31601C0F31600E41A41F40001C4
:1032600040F400027D34914201D3641C00E0490027
:10327000002C02DA30BC002070474FF4000000231D
:10328000914201D3891A034340084FEA4101F7D123
:1032900051B1914202D14FF0004105E002D24FF00E
:1032A000010101E06FF0010103EBC450284430BC80
:1032B00000F035BA2DE9FE4F804681EA0300C00FC9
:1032C0000C46009021F0004123F00045B8EB0200CD
:1032D000A94105D24046214690461C460B4602466F
:1032E00023F00040104347D0270DC7F30A00C3F373
:1032F0000A510290401A019040286BDAC3F3130080
:1033000040F4801B0098924620B10023D2EB030AC0
:1033100063EB0B0B01985946C0F14002504600F098
:10332000DDF906460D4650465946019A00F0E5F98A
:1033300010EB08006141002487EA115284EAE77328
:103340001A4340D0009A62B3019A012A4FEA075209
:1033500015DC001B61EB02014FF0004202EA07524C
:10336000CDE90042001C41F5801132462B4600F0A9
:103370001CFA03B0BDE8F08F40462146F9E7001B78
:1033800061EB0201001C41F5801300185B4120181D
:10339000A2F5001747EB030140EAD570B6196D415D
:1033A00011E06D084FEA360645EAC0754FEA07524C
:1033B000001B61EB0201001C41F5801149084FEA36
:1033C00030000019514132462B4603B0BDE8F04FA2
:1033D00000F0DCB90098012240000023D0EB02028B
:1033E00063EBE073009821464FEAE074B8EB00000D
:1033F00061EB0401E9E783F000435BE781F0004102
:1034000058E72DE9FE4F81EA030404F0004421F05F
:10341000004100944FF0000B23F0004350EA0104F8
:103420005ED052EA03045BD0C3F30A54C1F30A55D9
:103430002C44A4F2F3340194A0FB0254C1F3130111
:1034400041F48011C3F3130343F4801301FB0244DE
:1034500000FB034E840A970A44EA815447EA8357E3
:10346000A4FB076802958D0A05FB07854FEA932C9C
:1034700004FB0C542705029D4FEA065847EA16370D
:10348000B5EB08056EEB070C870E920E47EA811725
:1034900042EA8312A7FB0201B6EB0B0164EB0004C6
:1034A0002B0D43EA0C335E1844EB1C50DA465146B0
:1034B000E7FB0201C5F313044FEA0B3343EA14534D
:1034C0004FEA0432019C43EA0603A4F10C0402947F
:1034D000009CCDE900B400F068F903B0BDE8F08FBE
:1034E00000200146F9E72DE9F04D81EA030404F0DC
:1034F000004B21F0004514464FF0000A23F0004134
:1035000050EA050220D054EA01021DD0C5F30A5743
:103510000246C5F31303C1F31300C1F30A5640F486
:10352000801543F48013A7EB0608101BD64608F25B
:10353000FD3873EB050002D308F1010801E0921891
:103540005B41B8F1000F03DA00200146BDE8F08DC1
:1035500000204FF48011064684460EE0171B73EBE3
:10356000050705D3121B63EB050306434CEA010C68
:1035700049084FEA300092185B4150EA0107EDD14B
:1035800052EA030012D082EA040083EA05010843EC
:1035900005D0101BAB4106D20122002306E0002219
:1035A0004FF0004302E06FF0010253101AEB0600E7
:1035B0004CEB085110EB0A0041EB0B01BDE8F04D5C
:1035C00000F0E4B896230022114600F0B1B80EB521
:1035D000C10F80EAE0700844CA07002140F233437B
:1035E0008DE80E000A460B4600F0DFF803B000BD80
:1035F00000F0004230F000400AD0C10D01F56071CA
:10360000C0F3160042EA0151C20840071143704757
:1036100000200146704701F0004330B421F0004122
:1036200050EA010206D00A0DA2F56072C1F313013F
:10363000002A02DC30BC00207047440F44EAC10479
:10364000C100E01830BC00EBC25000F068B830B5E3
:103650000B46014600202022012409E021FA02F550
:103660009D4205D303FA02F5491B04FA02F52844EA
:10367000151EA2F10102F1DC30BD2DE9F05F054617
:10368000002092469B4688460646814640241BE021
:10369000284641464746224600F080F953465A469E
:1036A000C01A914110D311461846224600F016F870
:1036B0002D1A67EB01084F4622460120002100F039
:1036C0000DF817EB00094E41201EA4F10104DFDCC8
:1036D000484631462A464346BDE8F09F202A04DB8F
:1036E000203A00FA02F1002070479140C2F1200315
:1036F00020FA03F3194390407047202A06DBCB17CA
:10370000203A41FA02F043EAE07306E041FA02F39C
:10371000D040C2F120029140084319467047002969
:10372000A8BF7047401C490008BF20F00100704747
:1037300010B4B0FA80FC00FA0CF050EA010404BFA7
:1037400010BC704749B1CCF1200421FA04F411FAFD
:103750000CF118BF012121430843A3EB0C01CB1D41
:103760004FEA00614FEA102042BF002010BC7047B2
:1037700000EBC35010440029A4BF10BC7047401C8C
:10378000490008BF20F0010010BC704710B5141E9E
:1037900073F1000408DA401C41F1000192185B410A
:1037A0001A4301D120F0010010BD2DE9F04D9246E1
:1037B0009B4611B1B1FA81F202E0B0FA80F22032F8
:1037C0009046FFF78BFF04460F4640EA0A0041EAA5
:1037D0000B0153465A46084313D0114653EA0100E1
:1037E00019D0C8F14002504600F0D8F805460E4600
:1037F000504659464246FFF771FF084305D0012065
:1038000004E020463946BDE8F08D0020054346EA35
:10381000E0762C4337430A986305E40AA0EB0800DE
:103820000022FD0A44EA47540A3002D5002001462E
:10383000E9E7010510196941DDE908450019694109
:10384000BDE8F04DA2E770B521F0004303430CD072
:10385000C1F30A550024D5EB040564EB0403D61725
:10386000AD1AB34102DB0020014670BD201841EBC8
:10387000025170BD2DE9F04D00231A461B1A8A41F2
:1038800003DB00200146BDE8F08DC1F30A52C1F30D
:10389000130141F480154FF0000BD10702D100183D
:1038A0006D41521E0027044640F2FF11384601EBDD
:1038B000620A3E468046024600204FF4801100F026
:1038C0006DF8C2197141BB1846EB0100B4EB030C53
:1038D00075EB000C04D3E41A65EB000517460E46A1
:1038E000241908F101006D4180463428E3DDF919FF
:1038F00046EB0600091BA84103D24FF0FF321346E6
:1039000001E0002213461BEB070046EB0A51BDE81D
:10391000F04DFFF73BBFC1F30A52C1F3130140F270
:10392000FF3341F480119A4202DA002001467047C9
:1039300040F233439A42A2F2334202DC524200F098
:103940002DB8FFF7CBBE000030B5041E71F10004A6
:1039500004DB4FF00044404264EB0101141E73F19C
:10396000000405DB1C464FF00043524263EB0403A6
:10397000994208BF904230BD064C074D06E0E06812
:1039800040F0010394E8070098471034AC42F6D3A6
:10399000FCF7B0FBE04A0008004B0008202A04DBDB
:1039A000203A21FA02F00021704721FA02F3D040B8
:1039B000C2F1200291400843194670470FB4054BED
:1039C00010B503A9044A029800F04CF910BC5DF848
:1039D00014FB0000F51E0008C8000020490050EA52
:1039E000C12018BF04204A0D18BF40F0010040F26A
:1039F000FF72B2EB515F08BF40F00200012808BF20
:103A0000052070472DE9F0414F1E00EBC701044629
:103A1000D1E9000115461E4637F006020DD02A46B0
:103A20003346FFF7EEFC7F1E04EBC703D3E9002308
:103A3000FFF740FC37F00602F1D1022F25D0042F0A
:103A400013D0062F18BFBDE8F0812A463346FFF792
:103A5000D8FCD4E90A23FFF72DFC2A463346FFF7AA
:103A6000D0FCD4E90823FFF725FC2A463346FFF7AC
:103A7000C8FCD4E90623FFF71DFC2A463346FFF7AE
:103A8000C0FCD4E90423FFF715FC2A463346FFF7B0
:103A9000B8FCD4E90223FFF70DFC2A463346FFF7B2
:103AA000B0FCD4E90023BDE8F041FFF703BC0122DC
:103AB000FFF7C9BEFFF7FEBB0022134610461146B2
:103AC000FFF711BD024A00201107FFF7BCBE00003E
:103AD00001FDFFFF02E008C8121F08C1002AFAD149
:103AE00070477047002001E001C1121F002AFBD17E
:103AF000704700000149086070470000CC000020BA
:103B00002DE9FF5FDDE90220010DDDF838B0024349
:103B100018D044F61050A1F2FF3141430D140F9814
:103B2000012820D0A5EB0B00401C5FEA000A4FF0F3
:103B30000004474EDFF81C91A046504616D5CAF146
:103B4000000728E00F98012443A2012808D0002193
:103B500000980F9BC0E90021C0E90243BDE8FF9F28
:103B60006FEA0B01F4E7CBF10000DEE7074612E055
:103B7000F80707D02246334640464946FFF741FC46
:103B8000804689462246334610461946FFF739FCDF
:103B900004460E467F10002FEAD1DDE90201BAF19A
:103BA000000F42464B4602DAFFF72BFC01E0FFF71D
:103BB0009AFC04460E460022284BFFF7C5FE03D8A8
:103BC0004FF0FF30014607E00022254B20463146EA
:103BD000FFF770FBFFF79FFE102409E0002C0ADBC3
:103BE0000A220023FFF749FD019B30321A55641E5B
:103BF00050EA0102F2D1641C019AC4F11103144489
:103C00000F9A012A03D0012208430DD10AE008438C
:103C100004D000204FF0110B0F9080E7A3EB0B05B1
:103C20006D1E0DE05B4504DD4FF0000205F101055E
:103C300004E003DA4FF00002A5F10105002AECD000
:103C400000980F99C0E90231C0E9004586E70000FD
:103C5000000024400000F03F300000000000F0436E
:103C60000000E03F2DE9FF4F95B09B468946064690
:103C700000250FE2252877D100242746F84A0121A4
:103C8000059400E0044316F8013F203B01FA03F0DD
:103C90001042F7D130782A2811D06FF02F033078F6
:103CA000A0F13002092A16D8059A44F0020402EB6A
:103CB000820203EB42021044761C0590EFE759F8AC
:103CC000042B0592002A03DA504244F40054059074
:103CD00044F00204761C30782E2816D116F8010F15
:103CE00044F004042A280DD06FF02F023078A0F1A0
:103CF0003003092B09D807EB870302EB4303C718EE
:103D0000761CF3E759F8047B761C30786C280FD0CA
:103D100006DC4C2817D068280DD06A2814D104E09E
:103D2000742810D07A280FD10DE044F400140AE072
:103D300044F4801401E044F440147278824202D1C9
:103D400004F58014761C761C307866280BD013DCC2
:103D5000582877D009DC002875D04528F6D04628A9
:103D6000F4D047281AD19DE118E0632835D06428A3
:103D700079D0652812D195E1702873D008DC6728C6
:103D8000F1D069286FD06E280DD06F2806D1B5E02C
:103D900073282CD0752875D0782874D05A46179976
:103DA00090476D1C75E1C4F30250022809D0032826
:103DB0000DD0D9F8001004280DD00D6009F10409C8
:103DC00067E1D9F80010EA17C1E90052F6E7D9F81F
:103DD00000100D80F2E70D70F0E719F8041B8DF864
:103DE000001000208DF80100EA46012003E059F898
:103DF00004AB4FF0FF3061074FF0000102D40DE03B
:103E000008F101018846B9420FDA8045F8DB1AF85B
:103E100008100029F4D108E008F101018846814228
:103E2000FADB1AF808100029F6D105985B46A0EBDA
:103E3000080721463846179A00F094FA284400EB08
:103E4000080507E04DE029E10DE01AF8010B5A469C
:103E500017999047B8F10108F7D25B4621463846DA
:103E6000179A13E142E00A220092C4F302524FF083
:103E7000000A022A08D059F804CB032A4FEAEC7151
:103E80000AD00DE029E02AE009F1070121F007023C
:103E9000F2E802C1914609E00FFA8CFC4FEAEC719E
:103EA000042A03D14FFA8CFC4FEAEC71002907DA9F
:103EB0000A460021DCF1000C61EB02012D2202E038
:103EC000220504D52B228DF80420012203E0E2070D
:103ED00001D02022F7E7904659E00A2102E01022A3
:103EE0000DE010214FF0000A00910BE010224FF07E
:103EF000000A44F004040827009203E008224FF06F
:103F0000000A0092C4F30252022A05D059F804CBE9
:103F10000021032A08D009E009F1070121F0070276
:103F2000F2E802C1914605E01FFA8CFC042A01D197
:103F30000CF0FF0C4FF00008220728D5702806D09F
:103F4000009B83F0100353EA0A0305D00EE04022E1
:103F50008DF80420012208E05CEA010206D030223C
:103F60008DF804208DF8050002229046009B83F016
:103F7000080353EA0A030AD15CEA010201D162078D
:103F800005D530228DF804204FF001087F1E5828F7
:103F900004D034A003900EA802900DE036A0F9E7FB
:103FA00053466046009AFFF768FB84460398825C9C
:103FB0000298401E029002705CEA0100F0D1029863
:103FC00006A9081A00F1200A600702D524F48034FB
:103FD00000E00127574502DDA7EB0A0000E00020C2
:103FE00000EB0A01009005984144401A0590E00357
:103FF00006D45B462146179A059800F0B3F90544AC
:10400000002706E001A85A46C05D179990476D1C2D
:104010007F1C4745F6DBE0030CD55B462146179A2B
:10402000059800F09FF9054404E030205A4617999E
:1040300090476D1C0099481E00900029F5DC08E0AF
:10404000029802995A460078491C029117999047A4
:104050006D1CBAF10001AAF1010AF1DC65E1000072
:10406000092801003031323334353637383961624E
:104070006364656600000000303132333435363712
:1040800038394142434445460000000000F058F9E9
:104090000544761C307800287FF4ECAD19B0284632
:1040A000BDE8F08F620700D4062709F1070222F06D
:1040B000070CFCE80223E14603F000485FEA080C25
:1040C00002D00FF2702C0DE05FEA045C02D50FF213
:1040D000682C07E05FEAC47C02D00FF2602C01E09C
:1040E000AFF2700C4FF0FF3823F00043CDF850C012
:1040F00065280CD006DC452809D046281DD0472865
:104100003DD13DE0662818D067287ED138E00021F7
:10411000112F01DB112000E0781CCDE9000106A978
:104120000EA8FFF7EDFCDDE90F010E9A03910021C7
:10413000009207F1010A04914DE04FF00040009712
:10414000CDE9011006A90EA8FFF7DAFCDDE90F02A0
:1041500003920E9B11990022DDF80CA000930492AB
:1041600011B9791C00EB010AB7EB0A0004D4C0F1C5
:10417000FF3007F1010A0490AAEB0700019044E028
:10418000012F00DA01270021112F01DD112000E0AD
:104190003846CDE9000106A90EA8FFF7B1FCDDE91C
:1041A0000F010E9A0391002104910092BA46210753
:1041B0000CD40399514500DA8A46BAF1010F05DDA6
:1041C000009AAAF10101515C302908D0B84202DA04
:1041D00010F1040F06DA0121CDE9011015E0AAF172
:1041E0000101E9E7002805DC049901440491AAEBE8
:1041F000000102E0411C514500DD8A460499401A45
:10420000401C01904FF000400290200704D4019818
:10421000504501DBCDF8048000208DF84F00029856
:104220000DF14F07B0F1004F25D02B200E900298D2
:104230004FF0020800280CDA404202902D200E9028
:1042400007E00A210298FFF702FA3031029007F8DE
:10425000011DB8F10001A8F10108F2DC0298002864
:10426000EFD1791E0E980870307800F0200040F0F1
:10427000450007F8020D12A8C01B00F107081498AA
:10428000007800B1012000EB0A01019801EBE07118
:1042900005984144401A401E0590E00306D45B4651
:1042A0002146179A059800F05DF8054414980078A7
:1042B00018B15A46179990476D1CE00324D55B4608
:1042C0002146179A059800F04DF805441CE0049823
:1042D000002807DBDDE90301884203DD0098405C2C
:1042E000179901E0179930205A469047049805F134
:1042F0000105401C04900198401E019004D12E201D
:104300005A46179990476D1CBAF10001AAF1010AAB
:10431000DDDC05E017F8010B5A46179990476D1C34
:10432000B8F10001A8F10108F4DC5B462146179AB8
:104330000598ABE62D0000002B00000020000000D7
:104340002DE9F041044600251E461746880404D492
:1043500005E039462020B0476D1C641EF9D528467B
:10436000BDE8F0812DE9F041044600251E46904647
:10437000C80301D5302700E02027880404D505E0D4
:1043800041463846B0476D1C641EF9D52846BDE845
:10439000F08100002DE9F04D8D4F21F0004A86B0EC
:1043A00005460C46BA452ADBAAEB070028430AD08B
:1043B0008848824501DC1AD1CDB106B02846BDE857
:1043C000F04DFFF774BB844A844B2846FFF719F879
:1043D00007460E46824A834B28462146FFF711F8CE
:1043E00006B03A463346BDE8F04DFEF763BF012004
:1043F000FFF780FB06B0BDE8F04DFFF75DBB7A48E4
:10440000824542DABAF1795F0BDA2846FFF7E6FA1D
:10441000042808BFFFF756FB284606B02146BDE832
:10442000F08D2A460B461046FEF7EBFF8346024608
:104430006E480E460B4606217844FFF7E3FA5A46CB
:104440003346FEF7DEFF804669488A465A463346C1
:1044500004217844FFF7D6FA5A463346FEF7D1FFD7
:1044600000223B46FEF726FF02460B4640465146D9
:10447000FFF739F82A462346FEF7C3FF06B02A465F
:104480002346BDE8F04DFEF715BF284624F0004155
:1044900000223D463B46FEF7B1FF4FF0FF32FFF7EB
:1044A000D2F90646024653480F460B460621784489
:1044B000FFF7A8FA32463B46FEF7A3FFCDE900011D
:1044C0004D4832463B4604217844FFF79BFA32467A
:1044D0003B46FEF796FF00222B46FEF7EBFE834697
:1044E00002913046394600F05DFA804643480D4659
:1044F000504517DCDDE900015A46029BFEF7F3FF49
:1045000042462B46FEF77DFF42462B46FEF7D2FE83
:104510000122FFF798F9304A304BFEF76CFF304A22
:10452000304B4CE04FF0000A52460B464046FEF737
:10453000C1FECDE9031052462B4610461946FEF740
:1045400060FF32463B46FEF759FFDDE90332FEF7D6
:10455000CAFF06460F46DDE900015A46029BFEF7F8
:10456000C2FF83460091012230463946FFF76BF9BE
:10457000194A1A4BFEF742FF06460F4601224046F3
:104580002946FFF760F95A46009BFEF73AFF32468C
:104590003B46FEF730FF06460F46012250462946AD
:1045A000FFF751F90E4DDFF858802A464346FEF7D3
:1045B00025FF32463B46FEF721FF2A464346FEF7DB
:1045C0001DFF002CD8BF81F0004106B0BDE8F08D82
:1045D0000000F03F0000F07F075C143326A6913CFA
:1045E000182D4454FB21F93F0000E03FB4050000C2
:1045F000CA0500003E050000540500003333EF3FBC
:10460000FB21E93F2DE9F84F04460D4621F000401B
:1046100000917349814211DC7249884201DC06D164
:104620002CB120462946BDE8F84FFFF740BA6E4846
:10463000002DCCBF6D496E49BDE8F88F6D498142B0
:1046400011DD6D498142D8BF4FF0FF366DDD204648
:104650002946FFF7C3F9042808BFFFF733FA2046BD
:104660002946BDE8F88F6549654F25F00045814230
:1046700033DD6449814219DD002632464FF0804324
:1046800020462946FEF716FE80468A46012220462D
:104690002946FFF7D8F800223B46FEF7ACFE42461B
:1046A0005346FEF720FF04460D463EE00126002259
:1046B000BA463B4620462946FEF7FCFD80460F469B
:1046C0000022534620462946FEF795FE42463B46C9
:1046D000FEF709FF04460D4627E04B4981421BDDEA
:1046E000DFF828A102260022534620462946FEF77D
:1046F00088FE00223B46FEF7DDFD80460F46002285
:10470000534620462946FEF776FE42463B46FEF7D4
:10471000EAFE04460D4608E0032622462B4600200A
:104720003B49FEF7E0FE04460D4622462B46104666
:104730001946FEF766FE8B46824602460B46FEF79A
:1047400060FE07460246334888460B4606217844F9
:10475000FFF758F952465B46FEF753FE82462E4855
:104760008B463A46434605217844FFF74BF93A46D3
:104770004346FEF746FE02460B46002E504659467B
:104780000CDAFEF797FD22462B46FEF73AFE01B003
:1047900022462B46BDE8F04FFEF730BEFEF78AFDFD
:1047A00022462B46FEF72DFE1C4A7A4402EBC60336
:1047B000D3E90023FEF71FFE22462B46FEF71BFE21
:1047C000174A7A4402EBC603D3E90023FEF716FE2C
:1047D000009A002AB8BF81F00041BDE8F88F0000C0
:1047E000000010440000F07F182D4454FB21F93FD5
:1047F000FB21F9BF0000DC3F0000203E0000F33F3A
:104800000000F03F0000E63F008003400000F83F5A
:104810000000F0BF5603000014030000B2020000C5
:104820007A0200002DE9F04D9446CCF1000423F00B
:1048300000464CEA0404524F46EAD4749A4688462D
:1048400021F00042BC4206D8454240EA050442EA53
:10485000D474BC4204D9BDE8F04D6246FFF72AB9D2
:10486000AAF14055A5F17F6555EA0C040BD002244E
:1048700004EAAA74434DDFF810E144EAD87452EA1E
:10488000000B04D00CE0BDE8F04DFFF7BBBE002CE0
:1048900014BF012CBDE8F08D022C30D0032C32D097
:1048A00056EA0C0B0AD0BE4220D1BA4209D126F0FA
:1048B000804622F080423346114617E000291ADB79
:1048C00025E0DFF8C8B0FB44002C04BFDBE90001A1
:1048D000BDE8F08D012C02BFDBE9000181F0004151
:1048E000BDE8F08D022C0AD0032C0CD0BA4212D1B4
:1048F000B8F1000F0BDA23482549BDE8F08D2846B2
:104900002449BDE8F08D28467146BDE8F08D1D486C
:104910002149BDE8F08D921B12153C2AC4BF1948ED
:104920001D490EDCBAF1000FBEBF12F13C0F002092
:10493000014606DB6246FEF7D6FD21F00041FFF797
:1049400061FE002C08BFBDE8F08D012C04BF81F092
:104950000041BDE8F08D114A114B022C07D0FEF743
:104960004AFD2A46BDE8F04D0A4BFEF744BDFEF76E
:1049700042FD2A46BDE8F04D064BFEF73FBD000064
:104980000000F07F182D4454FB2109C00E020000E6
:10499000FB21F9BFFB210940FB21F93F075C1433E0
:1049A00026A6A13C2DE9F04106460F46FEF762FF20
:1049B00004000D4618BF0120284320F00040C0F13C
:1049C0007F6000F1E040C00F0ED0301C18BF012006
:1049D000384320F00040C0F17F6000F1E040C00F9C
:1049E00004BF0120FFF786F820462946BDE8F08184
:1049F000555555555555C53F7D6FEB0312D6D4BF60
:104A00005544880E55C1C93F3B8F68B52882A4BF65
:104A100088B20175E0EF493F09F7FD0DE13D023F26
:104A20004B2D8A1C273A03C0C88A599CE52A0040AE
:104A300059018D1B6C06E6BF82922EB1C5B8B33FFB
:104A40004FBB610567ACDD3F182D4454FB21E93FA6
:104A50009BF681D20B73EF3F182D4454FB21F93F95
:104A6000E2652F227F2B7A3C075C143326A6813C1B
:104A7000BDCBF07A8807703C075C143326A6913CC6
:104A8000C4EB98999999C9BF711623FEC671BCBF32
:104A90006D9A74AFF2B0B3BF9AFDDE522DDEADBF9A
:104AA0002F6C6A2C44B4A2BF0D5555555555D53FB2
:104AB000FF8300922449C23F6E204CC5CD45B73FCD
:104AC000513DD0A0660DB13FEB0D76244B7BA93F45
:104AD00011DA22E33AAD903F000000000000000030
:104AE000004B000800000020D0000000D43A00086D
:104AF000D04B0008D000002010040000E43A000869
:104B00000000000001020304010203040607080973
:104B10000204060800A24A04000000000000000091
:104B2000010203040607080900000000000000005D
:104B3000000000000000803F0000000000000000B6
:104B40000000000000000000000000000000000065
:104B50000000000000000000000000000000000055
:104B60000000000000000000000000000000000045
:104B70000000000000000000000000000000000035
:104B80000000000000000000000000000000000025
:104B90000000000000000000000000000000000015
:104BA0000000000000000000000000000000000005
:104BB00000000000000000000000000000000000F5
:104BC00000000000000000000000000000000000E5
:04000005080000ED02
:00000001FF
