:020000040800F2
:1000000048050020010100081D0200081F02000829
:1000100023020008270200082B020008000000004D
:100020000000000000000000000000002F02000897
:100030003102000800000000330200083502000809
:100040001B0100081B0100081B0100081B01000820
:100050001B0100081B0100081B0100081B01000810
:100060001B0100081B0100081B0100081B01000800
:100070001B0100081B0100081B0100081B010008F0
:100080001B0100081B0100081B0100081B010008E0
:100090001B0100081B0100081B0100081B010008D0
:1000A0001B0100081B0100081B0100081B010008C0
:1000B0001B0100081B0100081B0100081B010008B0
:1000C0001B0100081B0100081B0100081B010008A0
:1000D0001B0100087F2000081B0100081B0100080D
:1000E0001B0100081B0100081B010008DFF80CD0F1
:1000F00003F04CFF00480047250100084805002098
:100100000648804706480047FEE7FEE7FEE7FEE7B1
:10011000FEE7FEE7FEE7FEE7FEE7FEE71B1D000841
:10012000ED00000888B000BF00BF00202D49086026
:100130002D49086001202D49086001F0C5FE01F03D
:100140006FFE4FF4E13001F031FF01F0FDFE02F0EF
:100150000BF802F04BF9002140F2E73003F02AF8E7
:1001600002F055FF02F056FD03F0EAF803F0F2F852
:1001700003F039F91EA003F057FF31E002F06DFDE6
:1001800004A802F0CDFB01A802F022FC1D4903984F
:1001900008601D490298086003F04BF91148006897
:1001A000012801D103F0E9F810480068012806D1C0
:1001B00001231A461946184603F0FDF910E00B48D2
:1001C000006868B91148B0F900301148B0F9002052
:1001D0001048B0F900101048B0F9000003F0EBF936
:1001E000CCE70000300000203C0000204000002050
:1001F00073746172742073756363657366756C21C3
:1002000000000000E8000020EC00002002010020B7
:1002100000010020FE000020FC000020704700BF0D
:10022000FEE700BFFEE700BFFEE700BFFEE7704746
:10023000704770477047000031490143314A1160EF
:10024000704770B5002100230F22C47804B32D4CF1
:10025000246804F4E064C4F5E064210AC1F10403F5
:10026000CA40447804FA03F1847814402143090118
:10027000254C0678A155047804F01F050124AC40F4
:1002800005786D11AD0005F1E025C5F8004109E0E4
:10029000047804F01F050124AC401C4D067876114B
:1002A00045F8264070BD1A4A0A400243154B1B1FF1
:1002B0001A60704739B1134A121D12680243114B7C
:1002C0001B1D1A6006E00F4A121D126882430D4B77
:1002D0001B1D1A607047042808D14FF0E0210969FE
:1002E00041F004014FF0E022116107E04FF0E021FE
:1002F000096921F004014FF0E0221161704700000C
:100300000000FA050CED00E000E400E080E100E010
:1003100080FFFF1F10B50446CC48844208D101215C
:10032000042000F02DFB0021042000F029FB46E012
:10033000C748844208D10121082000F021FB002198
:10034000082000F01DFB3AE0C248844208D1012198
:10035000102000F015FB0021102000F011FB2EE012
:10036000BD48844208D10121202000F009FB002172
:10037000202000F005FB22E0B848844208D101218A
:10038000402000F0FDFA0021402000F0F9FA16E0CC
:10039000B348844208D10121802000F0F1FA002105
:1003A000802000F0EDFA0AE0AE48844207D1012136
:1003B000801500F0E5FA0021A01500F0E1FA10BD6B
:1003C00010B50121084600F0DBFA0021012000F001
:1003D000D7FA10BD2DE9F041024600250026002085
:1003E00000230024002791F803C00CF00F0591F8BA
:1003F00003C00CF0100CBCF1000F03D091F802C048
:100400004CEA050591F800C0BCF1000F31D014682A
:1004100000202BE04FF0010C0CFA00F3B1F800C003
:100420000CEA03069E4220D183004FF00F0C0CFA19
:1004300003F7BC4305FA03FC4CEA040491F803C03B
:10044000BCF1280F06D14FF0010C0CFA00FCC2F8E9
:1004500014C00AE091F803C0BCF1480F05D14FF079
:10046000010C0CFA00FCC2F810C0401C0828D1D3C3
:100470001460B1F800C0BCF1FF0F34DD54680020F7
:100480002EE000F1080C4FF0010808FA0CF3B1F867
:1004900000C00CEA03069E4221D183004FF00F0CEE
:1004A0000CFA03F7BC4305FA03FC4CEA040491F888
:1004B00003C0BCF1280F05D100F1080C08FA0CF8B4
:1004C000C2F8148091F803C0BCF1480F07D100F1C5
:1004D000080C4FF0010808FA0CF8C2F81080401C14
:1004E0000828CED35460BDE8F0814FF6FF7101803B
:1004F000022181700421C170704702460020936878
:100500000B400BB1012000E00020704701468868D5
:1005100080B2704702460020D3680B400BB1012027
:1005200000E0002070470146C86880B27047016152
:100530007047416170470AB1016100E04161704755
:10054000C16070474FF480320A43826181618261E9
:1005500082698269704702460020434B18684FF653
:100560008073184040EA021008433F4B1860704700
:100570003E49C8617047F0B50A46002300240021B7
:10058000002500F00046B6F1004F02D1364EF16969
:1005900001E0354E7168C0F3034583B200F44016A4
:1005A000B6F5401F08D121F070612F4E766826F015
:1005B00070662D4F7E6012E000F48016B6F5801F45
:1005C00006D1032606FA05F4A14341F0706106E066
:1005D000460D360103FA06F6B14341F0706122B1CF
:1005E000460D360103FA06F6314300F00046B6F137
:1005F000004F02D11C4EF16101E01B4E7160F0BD55
:1006000030B500228B071C0F0F2303FA04F2164BA0
:1006100008338C1053F824309343134C08348D1056
:1006200044F8253023468C1053F824308C07240FCF
:1006300000FA04F423430C4C08348D1044F82530A0
:1006400030BD0A49DC3108607047000000080140F5
:10065000000C01400010014000140140001801404E
:10066000001C014000200140000001400000204229
:10067000DF48006840F00100DD4908600846406836
:10068000DC490840DA49486008460068DA49084011
:10069000D74908600846006820F4802008600846B2
:1006A000406820F4FE0048604FF41F0088607047E7
:1006B000CF49096821F48031CD4A1160114609689B
:1006C00021F480211160B0F5803F03D0B0F5802F78
:1006D0000ED106E0C649096841F48031C44A116070
:1006E00007E0C349096841F4A021C14A116000E054
:1006F00000BF00BF704710B5014600220023002054
:100700004A11012A02D1BA4C236806E0022A02D11A
:10071000B74C236A01E0B64C636A01F01F02012462
:1007200094401C400CB1012000E0002010BD38B501
:10073000002000900024002500BF3120FFF7DBFFE0
:1007400005460098401C00900098B0F5A06F01D0BD
:10075000002DF2D03120FFF7CEFF08B1012400E0D8
:100760000024204638BD01460020A14A106820F030
:10077000F80040EAC10010607047A0490860704767
:10078000024600209A4B586820F47C1042EA01038C
:100790001843974B58607047984908667047014660
:1007A0000020934A506820F00300084350607047CF
:1007B0008F48406800F00C007047014600208C4ACA
:1007C000506820F0F0000843506070470146002058
:1007D000874A506820F4E060084350607047014643
:1007E0000020834A506820F4605040EAC100506005
:1007F000704729B17E4A527A02437D4B5A7204E017
:100800007B4A527A82437A4B5A7270477B49D8317D
:100810000860704701460020754A506820F4404047
:100820000843506070470021714A20321170704AAD
:1008300082F82010012802D004280AD104E0012106
:100840006B4A2032117005E00521694A203211708F
:1008500000E000BF00BF7047694908607047644905
:10086000096A0143624A1162704765494439086068
:10087000704730B500210022002400235C4D6D68D4
:1008800005F00C0121B1042905D0082923D105E088
:100890005C4D056022E05C4D05601FE0544D6D68C5
:1008A00005F47012524D6D6805F48034022505EB95
:1008B00092421CB9554D554305600BE04C4D6D6897
:1008C00005F400351DB14F4D5543056002E04E4D16
:1008D0005543056002E04B4D056000BF00BF444D2D
:1008E0006D6805F0F0010909494D6B5C0568DD4054
:1008F00045603F4D6D6805F4E061090A444D6B5C4D
:100900004568DD4085603A4D6D6805F46051C90A5F
:100910003F4D6B5C4568DD40C560354D6D6805F445
:100920004041890B3B4D6B5CC568B5FBF3F5056138
:1009300030BD29B12E4A526902432D4B5A6104E061
:100940002B4A526982432A4B5A61704729B1284A7F
:1009500092690243264B9A6104E0254A92698243D8
:10096000234B9A61704729B1214AD2690243204B37
:10097000DA6104E01E4AD26982431D4BDA61704796
:1009800029B11B4AD2680243194BDA6004E0184AC5
:10099000D2688243164BDA60704729B1144A126953
:1009A0000243134B1A6104E0114A12698243104B4F
:1009B0001A61704712494039086070470F49C8648E
:1009C00070470B49C87170470948406A40F0807011
:1009D00007494862704701460020054A92680A406C
:1009E0000AB1012000E00020704701498872704779
:1009F000001002400000FFF8FFFFF6FE0000424238
:100A00008004424200127A000024F40000093D00F4
:100A1000000000201000002010B50446FB4884426E
:100A200009D101218803FFF7ABFF00214FF480407B
:100A3000FFF7A6FF32E0F648844209D101214804BD
:100A4000FFF7ABFF00214FF40030FFF7A6FF25E0D2
:100A5000F048844209D101218804FFF79EFF00215C
:100A60004FF48020FFF799FF18E0EB48844209D14A
:100A70000121C804FFF791FF00214FF40020FFF788
:100A80008CFF0BE0E548844208D101210805FFF7FF
:100A900084FF00214FF48010FFF77FFF10BD2DE988
:100AA000F04786B005460E460024A24600BFA14688
:100AB0000027B08900B100BF2F462C8A4CF6FF708A
:100AC0000440F08804432C82AC894EF6F3100440B5
:100AD000B08831890843718908430443AC81AC8AEA
:100AE0004FF6FF400440B0890443AC8201A8FFF7F1
:100AF000C0FEC648874202D1DDF810A001E0DDF853
:100B00000CA0A88900F4004040B10AEBCA0000EB39
:100B10000A1031684900B0FBF1F807E00AEBCA009F
:100B200000EB0A1031688900B0FBF1F86420B8FBD3
:100B3000F0F004012009642101FB1089A88900F468
:100B4000004040B1322000EBC900B0FBF1F000F0F2
:100B50000700044308E0322000EB09106421B0FBD9
:100B6000F1F000F00F0004432C8106B0BDE8F087DF
:100B70004FF41651016000218180C18001810C2158
:100B8000418100218181704710B502460020108A02
:100B90004FF2FF0318400B884C8823438C88234373
:100BA000CC8823431843108210BD0021018041806E
:100BB0008180C180704721B1828942F400528281D4
:100BC00004E082894DF6FF731A4082817047F0B5C8
:100BD0000346002400260025002040F66A17B9428B
:100BE00000D100BF1846C1F3421401F01F060127CF
:100BF00007FA06F5012C01D10C3004E0022C01D1DA
:100C0000103000E014301AB107682F43076002E08B
:100C10000768AF430760F0BD1AB1838A0B43838234
:100C200002E0838A8B4383827047028A4FF6F07317
:100C30001A400282028A0A430282704782894FF276
:100C4000FF731A40828182890A438281704721B1F1
:100C5000828942F00202828104E082894FF6FD73AC
:100C60001A4082817047028A4FF6DF731A4002826F
:100C7000028A0A430282704721B1028A42F480420A
:100C8000028204E0028A4BF6FF731A400282704728
:100C9000C1F308028280704701468888C0F30800CB
:100CA0007047818941F0010181817047028BD2B286
:100CB0000283028B42EA012202837047028B02F414
:100CC0007F420283028B0A430283704721B1828AEA
:100CD00042F02002828204E0828A4FF6DF731A40DB
:100CE0008282704721B1828A42F01002828204E03F
:100CF000828A4FF6EF731A408282704721B1828A4E
:100D000042F00802828204E0828A4FF6F7731A40AA
:100D10008282704721B1828942F40042828103E0DD
:100D20008289C2F30E028281704721B1828A42F425
:100D30000062828204E0828A4FF2FF731A4082824C
:100D40007047828A4FF6FB731A408282828A0A4376
:100D50008282704721B1828A42F00202828204E0DC
:100D6000828A4FF6FD731A40828270470246002045
:100D7000B1F5007F00D100BF13880B400BB10120FB
:100D800000E00020704701F40072B2F5007F00D14E
:100D900000BFCA430280704770B50246002400239A
:100DA0000025002040F66A16B14200D100BFC1F311
:100DB000421501F01F03012606FA03F3012D02D1AB
:100DC0009689334006E0022D02D1168A334001E0B5
:100DD000968A33400C12012606FA04F41688344031
:100DE00013B10CB1012000E0002070BD10B500224D
:100DF000002340F66A14A14200D100BF0A12012468
:100E00009440A3B2DC43048010BD000000380140D0
:100E10000044004000480040004C004000500040AA
:100E200010B50446FE48844208D10121C014FFF7E2
:100E3000A7FD0021E014FFF7A3FDC4E0B4F1804F4B
:100E400008D101210846FFF7A8FD00210120FFF786
:100E5000A4FDB8E0F348844208D101210220FFF745
:100E60009CFD00210220FFF798FDACE0EE48844293
:100E700008D101210420FFF790FD00210420FFF795
:100E80008CFDA0E0E948844208D101210820FFF749
:100E900084FD00210820FFF780FD94E0E4488442AF
:100EA00008D101211020FFF778FD00211020FFF765
:100EB00074FD88E0DF48844208D101212020FFF73B
:100EC0006CFD00212020FFF768FD7CE0DA488442B9
:100ED00008D101214014FFF753FD00216014FFF7F2
:100EE0004FFD70E0D548844209D10121C804FFF7C5
:100EF00047FD00214FF40020FFF742FD63E0D0489A
:100F0000844209D101210805FFF73AFD00214FF481
:100F10008010FFF735FD56E0CA48844209D101210F
:100F20004805FFF72DFD00214FF40010FFF728FDC5
:100F300049E0C548844208D101214020FFF72DFD3A
:100F400000214020FFF729FD3DE0C048844208D140
:100F500001218020FFF721FD00218020FFF71DFDEA
:100F600031E0BB48844208D101218015FFF715FD0F
:100F70000021A015FFF711FD25E0B648844209D1F4
:100F800001210804FFF7FCFC00214FF48030FFF73B
:100F9000F7FC18E0B048844209D101214804FFF76A
:100FA000EFFC00214FF40030FFF7EAFC0BE0AB4808
:100FB000844208D101218804FFF7E2FC00214FF4AC
:100FC0008020FFF7DDFC10BD00220288944B984280
:100FD0000ED0994B98420BD0B0F1804F08D0914B76
:100FE000984205D0904B984202D0904B984204D141
:100FF0004FF68F731A404B881A438D4B984207D097
:101000008C4B984204D04FF6FF431A40CB881A43CA
:1010100002808B8883850B880385814B98420BD097
:10102000854B984208D08B4B984205D08A4B98420A
:1010300002D08A4B984201D10B7A03860123838226
:10104000704770B5002400220023058C4FF6FE7611
:1010500035400584028C8388048B4FF68F752C40B5
:10106000B51E2C400D882C43751E2A400D892A433D
:101070004D882A436A4DA8420BD06F4DA84208D034
:10108000744DA84205D0744DA84202D0734DA842B9
:1010900013D14FF6F7752A404D892A434FF6FB7559
:1010A0002A408D882A434FF6FF652B404FF6FF55A7
:1010B0002B408D892B43CD892B4383800483CD889E
:1010C0008586028470BD70B5002400220023058C43
:1010D0004FF6EF7635400584028C8388048B48F602
:1010E000FF752C404FF6FF452C400D884FF6FF76DC
:1010F00006EA05252C434FF6DF752A400D8906EADE
:1011000005152A434D8806EA05152A43444DA84291
:1011100002D0494DA8421DD14FF67F752A404D8916
:101120004FF6FF7606EA05152A434FF6BF752A40AB
:101130008D8806EA05152A434FF6FF352B404FF2FE
:10114000FF752B408D8906EA85052B43CD8906EA7C
:1011500085052B4383800483CD880587028470BD79
:1011600070B5002400220023058C4FF6FF66354041
:101170000584028C8388848B4FF68F752C404FF644
:10118000FC752C400D882C434FF6FF552A400D89E5
:101190004FF6FF7606EA05252A434D8806EA05251F
:1011A0002A431F4DA84202D0234DA8421DD14FF221
:1011B000FF752A404D894FF6FF7606EA05252A433A
:1011C0004FF6FF352A408D8806EA05252A434EF65C
:1011D000FF752B404DF6FF752B408D8906EA0515EE
:1011E0002B43CD8906EA05152B4383808483CD8864
:1011F0008587028470BD70B5002200230024058C11
:101200004EF6FF7635400584038C8488828B48F641
:10121000FF752A404FF6FF452A400D8820E0000068
:10122000002C01400004004000080040000C004079
:10123000001000400014004000340140004C014008
:10124000005001400054014000180040001C0040C4
:10125000002000400040014000440140004801409F
:101260004FF6FF7606EA05252A434DF6FF752B401B
:101270000D8906EA05352B434D8806EA05352B43D3
:10128000FA4DA84202D0FA4DA84208D14BF6FF759C
:101290002C408D894FF6FF7606EA85152C43848015
:1012A0008283CD88A0F84050038470BD828B4FF2BA
:1012B000FF331A408283828B4FF6FF7303EA0123C8
:1012C0001A4382837047F0B50C4615460022002170
:1012D0000026078C4EF6FF7C07EA0C070784828BFA
:1012E000018C4FF6FF7707EA043640F6FF473A4095
:1012F0004FF6FF7707EA05273A434FF6FF7707EAED
:1013000003373A43D94FB8420ED0D94FB8420BD029
:10131000B0F1804F08D0D74FB84205D0D64FB84271
:1013200002D0D64FB84206D14DF6FF77394046F489
:101330008057394305E047F6FF57394044F480575A
:10134000394382830184F0BD828B4FF6F3731A40D8
:101350008283828B0A4382837047F0B50C46154620
:10136000002200210026078C4FF6FF6C07EA0C07CD
:101370000784828B018C4FF6FF7707EA04264FF62D
:101380000C773A404FF6FF7707EA03172F433A43AB
:10139000B64FB8420ED0B64FB8420BD0B0F1804F26
:1013A00008D0B44FB84205D0B34FB84202D0B34FC3
:1013B000B84206D14FF6FF57394046F4807739439B
:1013C00005E04FF2FF57394044F480773943828378
:1013D0000184F0BD028B4FF2FF331A400283028B6F
:1013E0004FF6FF7303EA01231A4302837047F0B5F7
:1013F0000C461546002200210026078C4FF6EF7C94
:1014000007EA0C070784028B018C4FF6FF7707EA87
:10141000041640F6FF473A404FF6FF7707EA0337D6
:101420003A434FF6FF7707EA05273A438F4FB84212
:101430000ED08F4FB8420BD0B0F1804F08D08D4FF7
:10144000B84205D08C4FB84202D08C4FB84206D17A
:101450004FF6DF77394046F01007394305E04FF685
:101460005F77394044F01007394302830184F0BDAF
:10147000028B4FF6F3731A400283028B0A430283F6
:101480007047F0B50C46154600220021068C4FF639
:10149000FE773E400684028B018C4FF60C7632407C
:1014A0007E1C06EA03162E433243704EB0420ED025
:1014B0006F4EB0420BD0B0F1804F08D06D4EB042AD
:1014C00005D06D4EB04202D06C4EB04206D14FF600
:1014D000FD76314044F00106314305E04FF6F576E4
:1014E000314044F00106314302830184F0BD70B500
:1014F00005460C465D4885420ED05D4885420BD0BE
:10150000B5F1804F08D05B48854205D05A488542E6
:1015100002D05A48854200D100E000BF208850B96F
:101520002389A28861882846FFF7ABFFE188284617
:10153000FFF79EFF25E0208804280AD12389A2888E
:1015400061882846FFF753FFE1882846FFF742FFEE
:1015500017E0208808280AD12389A28861882846B4
:10156000FFF7FBFEE1882846FFF7EEFE09E023893E
:10157000A28861882846FFF7A6FEE1882846FFF783
:1015800095FE70BD2DE9F04105460C460026012769
:10159000608808B9022600E00026A088012801D151
:1015A000022700E001272088A0B92389A28861884A
:1015B0002846FFF766FFE1882846FFF759FF238991
:1015C0003A4631462846FFF712FFE1882846FFF7E2
:1015D00001FF13E02389A28861882846FFF707FFEF
:1015E000E1882846FFF7F6FE23893A463146284629
:1015F000FFF747FFE1882846FFF73AFFBDE8F08193
:101600000A884B881A438B881A43CB881A430B8964
:101610001A434B891A438B891A43A0F84420704718
:101620004FF6FF71818000210180C18041800172ED
:1016300070470021018041808180C180018141810A
:101640008181C18170470021018041800121818019
:101650000021C1800181704700210180418081808B
:10166000C18001814181818170470000002C0140CF
:10167000003401400004004000080040000C00401D
:1016800021B1028842F00102028004E002884FF694
:10169000FE731A400280704731B1B0F8442042F422
:1016A0000042A0F8442005E0B0F84420C2F30E0246
:1016B000A0F8442070471AB183890B43838102E06C
:1016C00083898B43838170478182704741EA02039B
:1016D000A0F8483070471AB183890B43838102E038
:1016E00083898B438381704701894FF6F8721140DB
:1016F000018170470A46002101894FF68F73194016
:1017000011430181704730B504460D4629462046F5
:10171000FFF7F0FF208940F00700208130BD2DE960
:10172000F04104460D4616461F46602D06D13B4645
:10173000012231462046FFF75AFE05E03B460122D2
:1017400031462046FFF79DFE29462046FFF7D2FF8F
:10175000208940F007002081BDE8F08130B50C46BB
:1017600000210189C9B24FF6FF7505EA032515432B
:1017700025432943018130BD2DE9F04105460E4640
:1017800017469846002443463A4631462846FFF716
:10179000E5FF2C894FF6F870044044F007044FF63B
:1017A0008F70044044F070042C81BDE8F081F0B5E6
:1017B00004460D4616461F463B46324629462046FD
:1017C000FFF7CCFF208940F480402081F0BD0185E7
:1017D000828270470A46002101884FF68F731940B4
:1017E000114301807047F0B50C4615461E46002196
:1017F000002200230189028B038C4FF6F8773940D1
:1018000021434FF6FC473A4040F201173A434FF666
:10181000DD773B404FF6FF7707EA06172F433B4340
:10182000018102830384F0BD0A460021018B4FF63B
:101830008F7319401143018370470A460021018BC1
:1018400048F6FF7319404FF6FF7303EA022319436A
:10185000018370470A460021818B4FF68F73194030
:101860001143818370470A460021818B48F6FF733C
:1018700019404FF6FF7303EA02231943818370472F
:1018800021B1028842F08002028004E002884FF613
:101890007F731A400280704721B1828842F00402AF
:1018A000828004E082884FF6FB731A408280704782
:1018B00021B1828842F00802828004E082884FF6DB
:1018C000F7731A408280704721B1828842F001028A
:1018D000828004E082884FF6FE731A40828070474F
:1018E0000A460021018B4FF6F7731940114301831B
:1018F00070470A460021018B4FF2FF7319404FF6E3
:10190000FF7303EA02231943018370470A4600214B
:10191000818B4FF6F77319401143818370470A4654
:101920000021818B4FF2FF7319404FF6FF7303EADA
:1019300002231943818370470A460021018B4FF629
:10194000FB7319401143018370470A460021018B44
:101950004FF6FF3319404FF6FF7303EA0223194392
:10196000018370470A460021818B4FF6FB731940B3
:101970001143818370470A460021818B4FF6FF3364
:1019800019404FF6FF7303EA02231943818370471E
:101990000A460021018B4FF67F73194011430183E2
:1019A00070470A460021018BC1F30E014FF6FF7309
:1019B00003EA02231943018370470A460021818B01
:1019C0004FF67F7319401143818370470A46002107
:1019D000818BC1F30E014FF6FF7303EA0223194313
:1019E000818370470A460021018C4FF6FD73194030
:1019F0001143018470470A460021018C4FF6F773AA
:101A000019401143018470470A460021018C4FF6AA
:101A1000DF7319404FF6FF7303EA02131943018481
:101A200070470A460021018C4FF67F7319404FF62C
:101A3000FF7303EA02131943018470470A46002129
:101A4000018C4FF6FF5319404FF6FF7303EA022350
:101A50001943018470470A460021018C4FF2FF733D
:101A600019404FF6FF7303EA0223194301847047BC
:101A70000A460021018C4DF6FF7319404FF6FF73A3
:101A800003EA023319430184704730B5002301246F
:101A90008C40A3B2048C9C430484048C02FA01F5AC
:101AA000ADB22C43048430BD30B5002304248C40F7
:101AB000A3B2048C9C430484048C02FA01F5ADB2F9
:101AC0002C43048430BD70B5034600200024184622
:101AD000183001258D40ACB21D8CA5431D8409B181
:101AE000082909D100EB6100056825F07005056043
:101AF0000568154305600EE00D1FC5F34E0528442B
:101B0000056825F4E045056005684FF6FF7606EAAE
:101B100002263543056070BD21B1028842F0020201
:101B2000028004E002884FF6FD731A40028070477D
:101B300021B1028842F00402028004E002884FF6DC
:101B4000FB731A400280704721B1828842F0800204
:101B5000828004E082884FF67F731A40828070474B
:101B600002884FF6F7731A40028002880A43028007
:101B7000704782884FF68F731A40828082880A43AA
:101B80008280704702894FF6F8731A4002810289F9
:101B90000A430281704702894FF67F731A4002811F
:101BA00002890A43028170478184704781857047AA
:101BB000818670470187704781877047A0F8401081
:101BC000704702884FF6FF431A40028002880A439A
:101BD000028070470146888E70470146088F704723
:101BE0000146888F70470146B1F8400070470146B2
:101BF000888C70470146088D704702460020138A82
:101C00000B400BB1012000E000207047CA43028264
:101C1000704730B50246002000230024158A05EAEB
:101C20000103958905EA010413B10CB1012000E01C
:101C3000002030BDCA430282704700000CB500206E
:101C4000019000906C48006840F480306A49086058
:101C500000BF6948006800F4003000900198401C03
:101C60000190009818B90198B0F5A06FF1D16248C1
:101C7000006800F4003010B10120009001E0002065
:101C800000900098012843D15C48006840F01000A3
:101C90005A4908600846006820F0030008600846BA
:101CA000006840F0020008605348406852494860AC
:101CB0000846406848600846406840F480604860D4
:101CC0000846406820F47C1048600846406840F4AC
:101CD000E81048600846006840F08070086000BF67
:101CE0004548006800F000700028F9D0424840687C
:101CF00020F00300404948600846406840F0020078
:101D0000486000BF3C48406800F00C000828F9D14A
:101D10000CBD10B5FFF792FF10BD10B53648006836
:101D200040F00100344908600846406834490840E2
:101D30003149486008460068324908402E49086029
:101D40000846006820F4802008600846406820F4B7
:101D5000FE0048604FF41F008860FFF7DAFF4FF085
:101D600000602949086010BD10B500210020002244
:101D7000214B5B6803F00C0121B1042906D008292E
:101D800028D107E0214B224C236027E0214B204C37
:101D9000236023E0184B5B6803F47010164B5B68FC
:101DA00003F48032022303EB904022B91A4B4343E1
:101DB000174C23600DE0104B5B6803F4003323B134
:101DC000124B4343124C236003E0124B4343104C2D
:101DD000236003E00D4B0E4C236000BF00BF064B99
:101DE0005B68C3F303130D4CE15C094B1B68CB40EC
:101DF000074C236010BD000000100240002002408C
:101E00000000FFF8FFFFF6FE08ED00E000127A0088
:101E1000140000200024F40000093D0018000020F8
:101E20004FF0E020006920F004004FF0E02108614D
:101E30000920234908700846007800EB4001C1EBF7
:101E4000C0104FF6FF7101EAC0001E4908807047BC
:101E500001461C4A12884A434FF0E0235A6100228F
:101E60009A6101221A6100BF4FF0E022106900F070
:101E700001021AB100F48032002AF5D000224FF09E
:101E8000E0231A619A61704701460D4A12784A436D
:101E90004FF0E0235A6100229A6101221A6100BFCB
:101EA0004FF0E022106900F001021AB100F4803214
:101EB000002AF5D000224FF0E0231A619A617047A2
:101EC000280000202A00002010B5FEF7D1FB4FF4B7
:101ED0008030FEF7EDFBFEF72AFC012830D1002010
:101EE000FEF76BFC0020FEF77AFC4FF48060FEF7F3
:101EF0006DFC1448006840F0100012490860084664
:101F0000006820F0030008600846006840F0020006
:101F100008604FF4E0114FF44030FEF731FC01202F
:101F2000FEF73AFC00BF3920FEF7E5FB0028FAD0A7
:101F30000220FEF734FC00BFFEF73AFC0828FBD174
:101F400010BD00000020024008B501210820FEF766
:101F5000FDFC2020ADF8000003208DF802001020C9
:101F60008DF8030069461048FEF734FA08BD70B5D5
:101F700005460C460DE020200B4914310860204630
:101F8000FFF782FF20200849103108602046FFF744
:101F90007BFF2800A5F10101CDB2ECD12020024940
:101FA0001431086070BD0000000C014010B586B00F
:101FB0000446012144F20400FEF7C8FC4FF400700F
:101FC000ADF8140018208DF8170003208DF81600C6
:101FD00005A95D48FEF7FEF94FF48060ADF81400E6
:101FE00004208DF8170005A95748FEF7F3F901946E
:101FF0000020ADF80800ADF80A00ADF80C00ADF80F
:1020000010000C20ADF80E0001A95048FEF747FD66
:1020100025208DF8000003208DF801008DF80200C6
:1020200001208DF803006846FEF70BF9012240F20B
:1020300025514648FEF7CBFD01214448FEF7BBFD84
:1020400006B010BD70B504460D46E1B23F48FEF73C
:102050001FFE00BF40213D48FEF788FE0028F9D052
:10206000204670BD10B5044600BF20213748FEF75A
:102070007DFE0028F9D03548FEF70EFE10BD10B5E4
:1020800040F225513148FEF787FE002856D02F48F0
:10209000FEF702FE2E49088008460088302803D04B
:1020A0000846008831280BD129480088302803D100
:1020B00001202849086041E00020264908603DE0F1
:1020C00023480088702807D021480088692803D059
:1020D0001F48008864281AD100201F4908601C4846
:1020E0000088702803D100201C49086026E01848A9
:1020F0000088692803D10120184908601EE01448AF
:10210000008864281AD102201449086016E010489B
:1021100000781349104A126888540F480068401C20
:102120000D49086000200F4908600B48006804282A
:1021300004D10120086000200749086040F22551C1
:102140000248FEF753FE10BD000801400038014070
:102150002C00002040000020380000203C0000201F
:10216000340000203000002008B501210820FEF7CF
:10217000EDFB4FF44060ADF8000010208DF8030037
:1021800003208DF8020069469548FEF723F94FF4C5
:1021900040619348FEF7CBF90120924908609249CB
:1021A000C1F8AC0108BD10B58D48001D006820F4D1
:1021B00070408B49091D08600846006840F4405093
:1021C000086001208749091D08608749C1F8A801F6
:1021D0000420FFF759FE00208249091D08600420F1
:1021E000FFF752FE00208049C1F8A80110BD10B5CC
:1021F0007B48001D006820F470407949091D086083
:102200000846006840F440500860002075490860A6
:102210007549C1F8AC010420FFF736FE0120714971
:1022200008607149C1F8AC010420FFF72DFE10BD14
:1022300010B500246A48001D006820F47040684909
:10224000091D08600846006840F40040086001204D
:102250006449091D0860FFF717FE01206249C1F8B3
:10226000A801FFF711FE07E0601CC4B2FA2C03DDE1
:10227000FFF7BDFF012010BD5A487C3800680028D8
:10228000F2D15849086000BFF5E710B50020554964
:1022900008605348001D006820F470405049091D33
:1022A00008600846006840F44050086000204E492D
:1022B000C1F8AC010220FFF7E7FD012049490860A1
:1022C0000220FFF7E1FD00204749C1F8A80110BD39
:1022D00010B50020434908604148001D006820F403
:1022E00070403F49091D08600846006840F44050AE
:1022F000086001203C49C1F8AC010220FFF7C4FD91
:102300000120384908600220FFF7BEFD0020364951
:10231000C1F8A80110BD70B504463148001D006821
:1023200020F470402E49091D08600846006840F4FA
:102330004050086000202B49086000251EE0E0099D
:1023400020B101202749091D086003E0002025492C
:10235000091D08606006040E0220FFF795FD0120AC
:10236000204908600220FFF78FFD00201E49C1F8B8
:10237000A8010220FFF788FD681CC5B2082DDEDB2E
:10238000FFF756FF70BD70B500241548001D0068AA
:1023900020F470401249091D08600846006840F4A6
:1023A00000400860002516E000200E490860022069
:1023B000FFF76AFD01200C49C1F8A8016006040E70
:1023C00008487C38006808B1601CC4B20120FFF7DF
:1023D0005BFD681CC5B2082DE6DB204670BD000021
:1023E000000C0140A8812142008021420EB501214C
:1023F0000620FEF7B8FA6846FFF712F94FF6FF70AD
:10240000ADF804000020ADF80000ADF80600ADF80E
:1024100002006946FE48FEF7D7FD00221146FC483F
:10242000FFF7D5F90121FA48FFF776FB2021F8489C
:10243000FFF760F90721F648FFF7A4FB8021F44875
:10244000FFF7A9FB0121F248FFF71AFA4FF6FF70D8
:10245000ADF804004820ADF800000020ADF80600FB
:10246000ADF802006946EB48FEF7AEFD0121E948F0
:10247000FFF706FA0421E748FFF784FB0121E5484E
:10248000FFF756FB2021E348FFF773FB8021E1486B
:10249000FFF781FB0121DF48FFF7F2F80121DC485B
:1024A000FFF7EEF80EBD0020D9492431088800045A
:1024B000D84924310988084470472DE9FF4F91B06D
:1024C000814692461D46DDF878B0FFF7ECFFD24911
:1024D000086008460068D149096888420FD2CF4990
:1024E00009684FF6FF72511ACB4A1268881801F03A
:1024F0002EFBCB490B9001F05BF904460BE0C6497B
:102500000968C64A1268881A01F021FBC4490B9079
:1025100001F04EF90446C0480068C04908601F99A0
:10252000084601F013F959460690584601F00EF995
:1025300029460490284601F009F90390049901F016
:10254000ADF80590069901F0A9F8079001F02EFB6F
:10255000CDE9080102F05CFDCDE90A0101F06AFB5A
:102560000F9028460F9901F023F9054658460F9918
:1025700001F01EF983460F991F9801F019F91F9079
:10258000A8480168A848006801F0E0F80A90A74848
:102590000168A748006801F0D9F809900A9901F08C
:1025A000CFF84FF080410B9001F0D0F80E909F488B
:1025B00001689C48006801F0C9F80A909C480168CD
:1025C0009948006801F0C2F809900A9901F066F88C
:1025D0004FF080410B9001F0B9F80D9093480168DD
:1025E000006801F0B3F80B908E480168006801F0B4
:1025F000ADF809908E480168006801F0A7F80790CF
:1026000089480168006801F0A1F80690079901F077
:1026100097F80890099901F093F80A900B9901F046
:102620003DF80C900D991F9801F090F80B905846CA
:102630000C9901F08BF80A900B9901F081F806468D
:1026400028460C9901F082F80B900E991F9801F022
:102650007DF80A900B9901F073F8074658460E99D9
:1026600001F074F80B9028460D9901F06FF80A906C
:102670000B9901F065F880466E49304601F066F826
:102680000B906D4801680B9801F008F86A490860E2
:102690006849384601F05AF80B90684801680B9871
:1026A00000F0FCFF654908606249404601F04EF8C1
:1026B0000B90634801680B9800F0F0FF60490860D8
:1026C00031464FF0804001F041F849460A9000F051
:1026D000E5FF0B90584801680B9800F0DFFF81463A
:1026E00039464FF0804001F031F80A90129900F01D
:1026F000D5FF0B90514801680B9800F0CFFF129066
:1027000041464FF0804001F021F851460A9000F018
:10271000C5FF0B904A4801680B9800F0BFFF824646
:1027200051464248006801F011F809903D4812995D
:10273000006801F00BF807903D48006880F0004009
:102740004946059001F002F80690079900F0F8FF5D
:102750000890099900F0F4FF21460A9000F0F6FF76
:102760000B90314801680B9800F098FF2E490860E3
:102770002E481299006800F0E9FF51460990294857
:10278000006800F0E3FF079027480168484600F022
:10279000DDFF0690079900F081FF0890099900F08D
:1027A000CFFF21460A9000F0D1FF0B90204801682E
:1027B0000B9800F073FF1E4908601C4801684846EA
:1027C00000F0C4FF514609901948006800F0BEFFB0
:1027D000079015481299006800F0B8FF0690079915
:1027E00000F0AEFF0890099900F058FF21460A90CA
:1027F00000F0ACFF0B900B4801680B9800F04EFF07
:102800000849086008460168484600F09FFF19E043
:102810000008004000040040480000204400002060
:102820000024F449540000204C00002058000020EF
:10283000500000200AD7A33B5C000020600000206D
:10284000640000200990D0481299006800F07EFFD3
:1028500051460790CD48006800F078FF0690079930
:1028600000F01CFF0890099900F06AFF21460A90C9
:1028700000F06CFF0B90C64801680B9800F00EFF4B
:10288000C349086008460168006800F05FFF0690D1
:10289000C0480168006800F059FF0490BA48016818
:1028A000006800F053FF0290B8480168006800F02B
:1028B0004DFF0190029900F0F1FE0390049900F0A1
:1028C000EDFE0590069900F0E9FE079001F06EF923
:1028D000CDE9080102F09CFBCDE90A0101F0AAF95B
:1028E0000F90AA480F99006800F062FFA74908609E
:1028F000A5480F99006800F05BFFA3490860A54850
:102900000F99006800F054FFA2490860A0480F9991
:10291000006800F04DFF9E49086015B0BDE8F08FDB
:102920002DE9FF5F82469C48006801F03FF9804630
:102930009A4A9B4B01F021F806460022994B01F080
:102940008EF8044601F076F983469748006801F056
:102950002DF98046914A924B01F00FF8064600226D
:10296000904B01F07CF8044601F064F903908F4825
:10297000006801F01BF98046884A894B00F0FDFF92
:1029800006460022874B01F06AF8044601F052F92E
:1029900002908748006887490968CDE90010864899
:1029A0005A460368DDE90201FFF787FD77480068B2
:1029B000CAF8000074480068CAF804007548006846
:1029C000CAF8080072480068CAF80C00BDE8FF9F0A
:1029D0002DE9F04F8DB0824608A8FFF7A1FF4FF018
:1029E00080400B9900F0B2FE00900B9900F0AEFE13
:1029F00001904FF040400A9900F0A8FE00900A991B
:102A000000F0A4FE8346019900F09AFE81464FF043
:102A10007E5100F043FE804601F0C8F806460F469E
:102A20004FF08040089900F091FE01900B9900F062
:102A30008DFE81464FF08040099900F087FE01909D
:102A40000A9900F083FE8346494600F027FE80463F
:102A500001F0ACF832463B46CDE9020102F018FA2B
:102A60000022504BCDE9040100F087FF4B4A4C4B4C
:102A7000CDE9060100F0F3FF044601F0DBF8CAF8E7
:102A800000004FF08040089900F060FE03900A9922
:102A900000F05CFE05904FF04040099900F056FEB2
:102AA00003900B9900F052FE0490059900F0F6FD9A
:102AB000834601F07BF8CDE9060101F0A1FF81F02A
:102AC000004180460022374B00F057FF0646334A4C
:102AD000334B00F0C4FF044601F0ACF8CAF8040020
:102AE0004FF080400A9900F031FE00900A9900F002
:102AF0002DFE01904FF04040099900F027FE009014
:102B0000099900F023FE8346019900F019FE8146E1
:102B10004FF07E5100F0C2FD804601F047F8CDE94C
:102B200002014FF08040089900F010FE01900999D1
:102B300000F00CFE81464FF080400A9900F006FE3E
:102B400001900B9900F002FE8346494600F0A6FD75
:102B5000804601F02BF80646DDE9022302F098F9E1
:102B60000022104BCDE9040100F007FF04460B4A98
:102B70000B4B00F074FFCDE9060101F05BF8CAF8D9
:102B800008000DB0BDE8F08F500000204C00002080
:102B900058000020540000207C0000206E861BF0AE
:102BA000F921094000806640780000207400002070
:102BB00094000020900000208C00002070B5064694
:102BC0000C461546FFF7EFFA3046FFF7A4FB204608
:102BD000FFF7A1FB2846FFF79EFBFFF708FB70BD40
:102BE00070B504460D46FFF7DEFA2046FFF793FB6B
:102BF0002846FFF790FBFFF7D6FA611CC8B2FFF733
:102C00008AFBFFF7C0FB0646FFF762FBFFF7EFFA10
:102C1000304670BD10B500226B21D020FFF7CEFFEB
:102C2000C820FFF715F903226B21D020FFF7C6FF5C
:102C300007221921D020FFF7C1FF06221A21D02038
:102C4000FFF7BCFF08221B21D020FFF7B7FF0922A6
:102C50001C21D020FFF7B2FF10BD2DE9F04F93B03B
:102C60007521D020FFF7BCFFFE4908704421D02019
:102C7000FFF7B6FFFC4908704321D020FFF7B0FFF3
:102C8000F949487008460078497840EA012000B2C6
:102C9000F64908800846B0F9000000F05DFF804664
:102CA0000022F34B00F0DBFE0646F2480CC830462B
:102CB00000F05DFE044600F0BDFFEF4908604621CC
:102CC000D020FFF78DFFE84988704521D020FFF71D
:102CD00087FFE549C87008468078C97840EA012036
:102CE00000B2E64908800846B0F9000000F034FF61
:102CF00006460022DE4B00F0B2FE8046E0480CC8DB
:102D0000404600F034FE044600F094FFDD490860C0
:102D10004821D020FFF764FFD34908714721D02014
:102D2000FFF75EFFD049487108460079497940EACB
:102D3000012000B2D44908800846B0F9000000F034
:102D40000BFF80460022CA4B00F089FE0646CF48A2
:102D50000CC8304600F00BFE044600F06BFFCC4977
:102D600008603C21D020FFF73BFFBF4988713B2121
:102D7000D020FFF735FFBC49C87108468079C97972
:102D800040EA012000B2C34908800846B0F90000BB
:102D900000F0E2FE06460022BF4B00F060FE044653
:102DA00000F048FFBD4908603E21D020FFF718FF22
:102DB000AD4908723D21D020FFF712FFAA494872A1
:102DC0000846007A497A40EA012000B2B4490880F6
:102DD0000846B0F9000000F0BFFE06460022AE4BE8
:102DE00000F03DFE044600F025FFAE49086040219A
:102DF000D020FFF7F5FE9C4988723F21D020FFF7D5
:102E0000EFFE9949C8720846807AC97A40EA0120E3
:102E100000B2A54908800846B0F9000000F09CFE09
:102E2000064600229C4B00F01AFE044600F002FF0A
:102E30009E4908609B480168006800F087FC02908A
:102E40009A480168006800F081FC0190029900F046
:102E500025FC039000F0AAFECDE9040102F0D8F8A9
:102E6000804689468D48006800F0A0FE064642462E
:102E70004B4600F0F4FD044601F0FAFE00228C4BB4
:102E8000CDE9060100F079FD82468A4A8A4B00F0BE
:102E9000E6FD8A4A8A4BCDE9080100F068FD002270
:102EA000884BCDE90A0100F0DAFD0022804BCDE924
:102EB0000C0100F062FD0022834BCDE90E0100F011
:102EC00056FDCDE9100100F0B5FE80490860774855
:102ED0000168006800F03AFC8346704801680068A9
:102EE00000F034FC5946019000F0D8FB824600F017
:102EF0005DFECDE9020102F08BF8CDE904016948DD
:102F0000006800F053FE0646DDE9042300F0A7FD4B
:102F1000CDE9060101F0ACFE0022654BCDE90801C8
:102F200000F02BFD634A644BCDE90A0100F097FDE8
:102F3000674A684BCDE90C0100F019FD80465D4AF7
:102F40005242654B00F08BFD0022594BCDE90E013A
:102F500000F013FD044600225B4B00F008FDCDE9B4
:102F6000100100F067FE5D4908604E480168006886
:102F700000F0ECFB834649480168006800F0E6FB7E
:102F80005946019000F08AFB824600F00FFECDE921
:102F9000020102F03DF806460F464448006800F082
:102FA00005FE32463B46CDE9040100F058FD0446DB
:102FB00001F05EFE00223E4BCDE9060100F0DDFC93
:102FC0003C4A3D4BCDE9080100F049FD444A454BE0
:102FD000CDE90A0100F0CBFC4FF06632424BCDE95F
:102FE0000C0100F03CFD0022314BCDE90E0100F058
:102FF000C4FC80460022344B00F0B9FCCDE910013E
:1030000000F018FE3949086013B0BDE8F08F2DE9D3
:10301000F84F00250026A946AA46AB46002000909E
:10302000C820FEF731FF00246EE0FFF716FE1248BD
:103030000168284600F032FB054612480168304618
:1030400000F02CFB064612480168484600F026FBBB
:1030500081461E480168504600F020FB82461F480A
:10306000016845E0DC0000202C0100206800002001
:1030700000605040A8000020740000206A0000207A
:10308000B0000020780000206C000020B800002074
:103090007C0000206E0000200000D0408000002056
:1030A00070000020840000207200002088000020B2
:1030B000008066401F85EB51B81E094042E90B2194
:1030C000E70256C000106640008056408C00002089
:1030D000C6850321594456C04751664090000020E0
:1030E0003BAA9A20EA7456C0667666409400002097
:1030F000584600F0D3FA834625480168009800F04E
:10310000CDFA0090601CC4B2322C8EDB284600F051
:103110004DFD074600221F4B00F0A1FC1E4A03C2D2
:10312000304600F043FD074600221A4B00F097FCA2
:103130001A4A03C2484600F039FD07460022154BE3
:1031400000F08DFC164A03C2504600F02FFD0746E2
:103150000022104B00F083FC124A03C2584600F0D4
:1031600025FD074600220B4B00F079FC0E4A03C2F6
:10317000009800F01BFD07460022064B00F06FFC94
:103180000A4A03C201200A490860BDE8F88F00001E
:103190009400002000004940A8000020B00000205A
:1031A000B8000020C0000020C8000020D00000208F
:1031B000D80000203EB505460C4601210846FDF723
:1031C000D2FBADF80450ADF800400020ADF8060089
:1031D000ADF8020069464FF08040FDF7F5FE012191
:1031E0008807FEF74DFA3EBD08B501210420FDF722
:1031F000ADFB0120ADF8000018208DF8030003207E
:103200008DF8020069465848FDF7E4F808BD1FB57F
:103210006020ADF800000120ADF802000020ADF8FC
:10322000080069464FF08040FDF70BFF0821C806F3
:10323000FEF756FB01218807FEF722FA1FBD08B5ED
:1032400001210420FDF782FB0220ADF800001820C8
:103250008DF8030003208DF8020069464248FDF70F
:10326000B9F808BD1FB56020ADF800000120ADF829
:1032700002000020ADF8080069464FF08040FDF7DD
:1032800022FF0821C806FEF734FB01218807FEF75C
:10329000F7F91FBD08B501210420FDF757FB0420F5
:1032A000ADF8000018208DF8030003208DF802000F
:1032B00069462D48FDF78EF808BD1FB56020ADF8B2
:1032C00000000120ADF802000020ADF808006946BA
:1032D0004FF08040FDF744FF0821C806FEF716FBBB
:1032E00001218807FEF7CCF91FBD08B50121042094
:1032F000FDF72CFB0820ADF8000018208DF8030026
:1033000003208DF8020069461748FDF763F808BDF1
:103310001FB56020ADF800000120ADF802000020CC
:10332000ADF8080069464FF08040FDF764FF0821C2
:10333000C806FEF7F4FA01218807FEF7A1F91FBDC0
:1033400010B5FFF7A7FFFFF74FFFFFF778FFFFF775
:10335000CCFF10BD10B5FFF7B0FFFFF758FFFFF728
:1033600081FFFFF7D5FF10BD00080140B04A11688A
:1033700001600022AF4B1A6070472DE9FF47AE484D
:10338000006818B9AD48FFF7F1FF10E0AA480068DF
:10339000012804D1A948001DFFF7E8FF07E0A6486F
:1033A0000068022803D1A5480830FFF7DFFFA349D2
:1033B000886800F0FBFB04460D46A049486800F011
:1033C000F5FB06460F469D49086800F0EFFB804676
:1033D00042460B469AA0CDE90067CDE9024500F0D0
:1033E00023FEBDE8FF872DE9FF474FF07E5093494C
:1033F00008600020486088609448C860886800F0D1
:10340000D5FB04460D468D49486800F0CFFB0646C3
:103410000F468A49086800F0C9FB804642460B46C1
:103420008BA0CDE90067CDE9024500F0FDFDBDE8C8
:10343000FF8770B58948007800F089FB044688480A
:103440000168204600F07CF98649086084480068DD
:1034500000F0ACFB0446844A844B00F0D3FB0CD252
:103460007F48006800F0A2FB04467F4A804B00F0D2
:10347000B1FB02D200207F49086070494868784952
:10348000096800F063F904467A480168204600F0B4
:103490005AF97849086078497248006800F056F98E
:1034A0006649C860C868002100F0E0FB0AD26348A2
:1034B000C06880F000447149204600F0EFF85F4991
:1034C000C86006E05D49C8686C4900F0E7F85B49F0
:1034D000C8605A48C1686748006800F0D1FB03D251
:1034E0005648C068634908605448C168614800682C
:1034F00000F0C6FB05D25148C06880F000405D492D
:1035000008604E4988685E49096800F01FF9054661
:103510004A4908685349096800F018F906465548B1
:103520000168304600F0BAF80446294600F008F970
:10353000544908605448006800F000FB05465148B3
:103540000168284600F0FCF8044600F016FB00B2C3
:103550004E4908804C48006800F0F0FA054649489A
:103560000168284600F09AF8044600F006FB00B215
:10357000474908804448006800F0E0FA05464148A1
:103580000168284600F08AF8044600F0F6FA00B216
:10359000404908803C48006800F0D0FA05463948A8
:1035A0000168284600F0CCF8044600F0E6FA00B2C4
:1035B0003949088070BD2DE9F04104460D46164694
:1035C0001F46B4F57A7F01DB40F2E734B5F57A7F28
:1035D00001DB40F2E735B6F57A7F01DB40F2E736F2
:1035E000B7F57A7F01DB40F2E737002C00DA0024E0
:1035F000002D00DA0025002E00DA0026002F00DA68
:103600000027A9B24FF08040FEF7D2FAB1B24FF0D6
:103610008040FEF7CFFAA1B24FF08040FEF7CCFA1F
:10362000B9B24FF08040FEF7C9FABDE8F081000062
:1036300034000020300000203C0000203801002031
:1036400025662C25662C25660A000000000096439E
:1036500025662C25662C256600000000E000002071
:10366000E8000020F40000209A9999999999B9BF2F
:103670009999B93F18010020000020410000C8427C
:10368000740000200C01002004010020FC00002038
:10369000FE0000200001002002010020F0B480EABA
:1036A0000102D40F4200B2EB410F02D2024608469B
:1036B00011464A0042D0C30DDDB2C1F3C752AD1A64
:1036C000202D35DAC1F3160141F4000204B1524253
:1036D000C5F1200602FA06F12A411044B3EBD05F8F
:1036E00023D0C4B1012DA0EBC35009DCF0BC4FF0D6
:1036F000004202EAC352DBB200F5000000F03BBB1F
:10370000400000F1807000EBC350A0F1807040EAEF
:10371000D170490009E0490841EAC071A0EBC350EB
:1037200000F50000400800EBC350F0BC00F01ABBED
:103730006142012202EB4101001BF6E7F0BC704739
:1037400081F00041AAE780F00040A7E780EA01028B
:1037500010B502F00043400022D04A001FD0010EF5
:1037600001EB1261C0F35600C2F3560240F40000B0
:1037700042F40002A0FB022000047F39140400D0B0
:10378000401C50EA124001D44000491EC2B20C064F
:1037900004EBD010401C4008802A02D003E0002037
:1037A00010BD20F00100002900DA0020184310BDF0
:1037B00030B480EA010202F0004530F0004221F00E
:1037C000004013D090B1C30DD40DC2F31601C0F365
:1037D0001600E41A41F4000140F400027D349142E5
:1037E00001D3641C00E04900002C02DA30BC002048
:1037F00070474FF400000023914201D3891A03431C
:1038000040084FEA4101F7D151B1914202D14FF046
:10381000004105E002D24FF0010101E06FF001012B
:1038200003EBC450284430BC00F09CBA2DE9FE4F95
:10383000804681EA0300C00F0C46009021F0004151
:1038400023F00045B8EB0200A94105D240462146CD
:1038500090461C460B46024623F00040104347D0DA
:10386000270DC7F30A00C3F30A510290401A0190D2
:1038700040286BDAC3F3130040F4801B0098924693
:1038800020B10023D2EB030A63EB0B0B01985946DE
:10389000C0F14002504600F044FA06460D4650463C
:1038A0005946019A00F04CFA10EB080061410024DF
:1038B00087EA115284EAE7731A4340D0009A62B350
:1038C000019A012A4FEA075215DC001B61EB020145
:1038D0004FF0004202EA0752CDE90042001C41F5D8
:1038E000801132462B4600F083FA03B0BDE8F08F1A
:1038F00040462146F9E7001B61EB0201001C41F53F
:10390000801300185B412018A2F5001747EB030154
:1039100040EAD570B6196D4111E06D084FEA3606E0
:1039200045EAC0754FEA0752001B61EB0201001C1B
:1039300041F5801149084FEA3000001951413246E3
:103940002B4603B0BDE8F04F00F043BA00980122C7
:1039500040000023D0EB020263EBE07300982146A5
:103960004FEAE074B8EB000061EB0401E9E783F093
:1039700000435BE781F0004158E72DE9FE4F81EA03
:10398000030404F0004421F0004100944FF0000BC8
:1039900023F0004350EA01045ED052EA03045BD0F6
:1039A000C3F30A54C1F30A552C44A4F2F33401942E
:1039B000A0FB0254C1F3130141F48011C3F31303BC
:1039C00043F4801301FB024400FB034E840A970A70
:1039D00044EA815447EA8357A4FB076802958D0A9D
:1039E00005FB07854FEA932C04FB0C542705029D29
:1039F0004FEA065847EA1637B5EB08056EEB070C99
:103A0000870E920E47EA811742EA8312A7FB020152
:103A1000B6EB0B0164EB00042B0D43EA0C335E188C
:103A200044EB1C50DA465146E7FB0201C5F3130490
:103A30004FEA0B3343EA14534FEA0432019C43EA42
:103A40000603A4F10C040294009CCDE900B400F03C
:103A5000CFF903B0BDE8F08F00200146F9E72DE96A
:103A6000F04D81EA030404F0004B21F000451446B8
:103A70004FF0000A23F0004150EA050220D054EA3A
:103A800001021DD0C5F30A570246C5F31303C1F363
:103A90001300C1F30A5640F4801543F48013A7EBDA
:103AA0000608101BD64608F2FD3873EB050002D35A
:103AB00008F1010801E092185B41B8F1000F03DA48
:103AC00000200146BDE8F08D00204FF4801106462D
:103AD00084460EE0171B73EB050705D3121B63EB3F
:103AE000050306434CEA010C49084FEA30009218DE
:103AF0005B4150EA0107EDD152EA030012D082EA9D
:103B0000040083EA0501084305D0101BAB4106D22F
:103B10000122002306E000224FF0004302E06FF094
:103B2000010253101AEB06004CEB085110EB0A008F
:103B300041EB0B01BDE8F04D00F04BB9C10F80EA3D
:103B4000E0700844CA079623002100F014B99623B8
:103B50000022114600F00FB90EB5C10F80EAE070E7
:103B60000844CA07002140F233438DE80E000A469C
:103B70000B4600F03DF903B000BD00F0004220F01C
:103B80000040C10DC0F3160040F400007F2901DAA7
:103B900000207047962903DCC1F19601C84001E07E
:103BA00096398840002AF4D04042704700F0004225
:103BB00030F000400AD0C10D01F56071C0F316006D
:103BC00042EA0151C20840071143704700200146F4
:103BD0007047000030B5041E71F1000404DB4FF0A3
:103BE0000044404264EB0101141E73F1000405DB44
:103BF0001C464FF00043524263EB04038B4208BF64
:103C0000824230BD30B5041E71F1000404DB4FF078
:103C10000044404264EB0101141E73F1000405DB13
:103C20001C464FF00043524263EB0403994208BF25
:103C3000904230BD01F0004330B421F0004150EA21
:103C4000010206D00A0DA2F56072C1F31301002A29
:103C500002DC30BC00207047440F44EAC104C100BC
:103C6000E01830BC00EBC25000F07CB8002801DB4B
:103C7000C0F10040002901DBC1F1004181427047E1
:103C8000002801DBC0F10040002901DBC1F1004147
:103C90008842704730B50B4601460020202201249F
:103CA00009E021FA02F59D4205D303FA02F5491B0A
:103CB00004FA02F52844151EA2F10102F1DC30BD20
:103CC0002DE9F05F0546002092469B468846064651
:103CD000814640241BE0284641464746224600F0E4
:103CE00067F953465A46C01A914110D311461846F7
:103CF000224600F016F82D1A67EB01084F462246BF
:103D00000120002100F00DF817EB00094E41201EA4
:103D1000A4F10104DFDC484631462A464346BDE8AB
:103D2000F09F202A04DB203A00FA02F100207047BD
:103D30009140C2F1200320FA03F3194390407047E9
:103D4000202A06DBCB17203A41FA02F043EAE0735F
:103D500006E041FA02F3D040C2F12002914008434C
:103D6000194670470029A8BF7047401C490008BF8A
:103D700020F00100704710B4B0FA80FC00FA0CF09B
:103D800050EA010404BF10BC704749B1CCF12004D3
:103D900021FA04F411FA0CF118BF01212143084360
:103DA000A3EB0C01CB1D4FEA00614FEA102042BF8C
:103DB000002010BC704700EBC35010440029A4BF82
:103DC00010BC7047401C490008BF20F0010010BC27
:103DD000704710B5141E73F1000408DA401C41F15D
:103DE000000192185B411A4301D120F0010010BD7F
:103DF0002DE9F04D92469B4611B1B1FA81F202E0F5
:103E0000B0FA80F220329046FFF78BFF04460F464F
:103E100040EA0A0041EA0B0153465A46084313D0D0
:103E2000114653EA010019D0C8F14002504600F093
:103E3000BFF805460E46504659464246FFF771FF09
:103E4000084305D0012004E020463946BDE8F08D46
:103E50000020054346EAE0762C4337430A98630581
:103E6000E40AA0EB08000022FD0A44EA47540A30A5
:103E700002D500200146E9E7010510196941DDE995
:103E8000084500196941BDE8F04DA2E770B521F081
:103E9000004303430CD0C1F30A550024D5EB0405BD
:103EA00064EB0403D617AD1AB34102DB00200146D0
:103EB00070BD201841EB025170BD2DE9F04D00237B
:103EC0001A461B1A8A4103DB00200146BDE8F08D2B
:103ED000C1F30A52C1F3130141F480154FF0000BF6
:103EE000D10702D100186D41521E0027044640F24E
:103EF000FF11384601EB620A3E468046024600202A
:103F00004FF4801100F054F8C2197141BB1846EB10
:103F10000100B4EB030C75EB000C04D3E41A65EB61
:103F2000000517460E46241908F101006D41804630
:103F30003428E3DDF91946EB0600091BA84103D23A
:103F40004FF0FF32134601E0002213461BEB07003F
:103F500046EB0A51BDE8F04DFFF73BBFC1F30A52F3
:103F6000C1F3130140F2FF3341F480119A4202DAA7
:103F700000200146704740F233439A42A2F2334296
:103F800002DC524200F014B8FFF7CBBE064C074DDE
:103F900006E0E06840F0010394E807009847103419
:103FA000AC42F6D3FCF7A6F8505100087051000857
:103FB000202A04DB203A21FA02F00021704721FA7E
:103FC00002F3D040C2F120029140084319467047E5
:103FD00070B58C1810F8015B15F0070301D110F8CB
:103FE000013B2A1106D110F8012B03E010F8016BF8
:103FF00001F8016B5B1EF9D12B0705D40023521E7B
:104000000DD401F8013BFAE710F8013BCB1A921CE2
:1040100003E013F8015B01F8015B521EF9D5A142E0
:10402000D8D3002070BD00000FB4054B10B503A914
:10403000044A029800F04CF910BC5DF814FB000033
:104040004520000824010020490050EAC12018BF83
:1040500004204A0D18BF40F0010040F2FF72B2EB9D
:10406000515F08BF40F00200012808BF05207047DB
:104070002DE9F0414F1E00EBC7010446D1E90001D4
:1040800015461E4637F006020DD02A463346FFF786
:1040900074FC7F1E04EBC703D3E90023FFF7C6FBC4
:1040A00037F00602F1D1022F25D0042F13D0062FAE
:1040B00018BFBDE8F0812A463346FFF75EFCD4E91D
:1040C0000A23FFF7B3FB2A463346FFF756FCD4E931
:1040D0000823FFF7ABFB2A463346FFF74EFCD4E933
:1040E0000623FFF7A3FB2A463346FFF746FCD4E935
:1040F0000423FFF79BFB2A463346FFF73EFCD4E937
:104100000223FFF793FB2A463346FFF736FCD4E938
:104110000023BDE8F041FFF789BB0122FFF7B6BEDF
:10412000FFF784BB0022134610461146FFF797BCE9
:10413000024A00201107FFF7A9BE000001FDFFFFA2
:1041400002E008C8121F08C1002AFAD17047704760
:10415000002001E001C1121F002AFBD170470000BE
:104160000149086070470000280100202DE9FF5F29
:10417000DDE90220010DDDF838B0024318D044F625
:104180001050A1F2FF3141430D140F98012820D0A7
:10419000A5EB0B00401C5FEA000A4FF00004474EFD
:1041A000DFF81C91A046504616D5CAF1000728E05A
:1041B0000F98012443A2012808D0002100980F9BEA
:1041C000C0E90021C0E90243BDE8FF9F6FEA0B018F
:1041D000F4E7CBF10000DEE7074612E0F80707D06E
:1041E0002246334640464946FFF7C7FB804689468C
:1041F0002246334610461946FFF7BFFB04460E46DB
:104200007F10002FEAD1DDE90201BAF1000F42462A
:104210004B4602DAFFF7B1FB01E0FFF720FC044652
:104220000E460022284BFFF7EDFC03D84FF0FF307D
:10423000014607E00022254B20463146FFF7F6FAFB
:10424000FFF78CFE102409E0002C0ADB0A22002371
:10425000FFF736FD019B30321A55641E50EA010209
:10426000F2D1641C019AC4F1110314440F9A012A7B
:1042700003D0012208430DD10AE0084304D00020F6
:104280004FF0110B0F9080E7A3EB0B056D1E0DE0B7
:104290005B4504DD4FF0000205F1010504E003DA9F
:1042A0004FF00002A5F10105002AECD000980F990B
:1042B000C0E90231C0E9004586E700000000244063
:1042C0000000F03F300000000000F0430000E03F3D
:1042D0002DE9FF4F95B09B468946064600250FE223
:1042E000252877D100242746F84A0121059400E0CB
:1042F000044316F8013F203B01FA03F01042F7D1C6
:1043000030782A2811D06FF02F033078A0F13002D6
:10431000092A16D8059A44F0020402EB820203EB44
:1043200042021044761C0590EFE759F8042B0592E1
:10433000002A03DA504244F40054059044F0020489
:10434000761C30782E2816D116F8010F44F004049C
:104350002A280DD06FF02F023078A0F13003092BFE
:1043600009D807EB870302EB4303C718761CF3E772
:1043700059F8047B761C30786C280FD006DC4C286A
:1043800017D068280DD06A2814D104E0742810D002
:104390007A280FD10DE044F400140AE044F48014AC
:1043A00001E044F440147278824202D104F5801492
:1043B000761C761C307866280BD013DC582877D012
:1043C00009DC002875D04528F6D04628F4D04728C7
:1043D0001AD19DE118E0632835D0642879D065288A
:1043E00012D195E1702873D008DC6728F1D06928D4
:1043F0006FD06E280DD06F2806D1B5E073282CD071
:10440000752875D0782874D05A46179990476D1C36
:1044100075E1C4F30250022809D003280DD0D9F861
:10442000001004280DD00D6009F1040967E1D9F8E6
:104430000010EA17C1E90052F6E7D9F800100D8024
:10444000F2E70D70F0E719F8041B8DF8001000205A
:104450008DF80100EA46012003E059F804AB4FF063
:10446000FF3061074FF0000102D40DE008F10101B7
:104470008846B9420FDA8045F8DB1AF8081000299F
:10448000F4D108E008F1010188468142FADB1AF80C
:1044900008100029F6D105985B46A0EB08072146D5
:1044A0003846179A00F094FA284400EB080507E014
:1044B0004DE029E10DE01AF8010B5A461799904793
:1044C000B8F10108F7D25B4621463846179A13E146
:1044D00042E00A220092C4F302524FF0000A022A7C
:1044E00008D059F804CB032A4FEAEC710AD00DE04A
:1044F00029E02AE009F1070121F00702F2E802C1F0
:10450000914609E00FFA8CFC4FEAEC71042A03D1C2
:104510004FFA8CFC4FEAEC71002907DA0A460021B9
:10452000DCF1000C61EB02012D2202E0220504D532
:104530002B228DF80420012203E0E20701D0202283
:10454000F7E7904659E00A2102E010220DE0102121
:104550004FF0000A00910BE010224FF0000A44F0E7
:1045600004040827009203E008224FF0000A00929A
:10457000C4F30252022A05D059F804CB0021032AC1
:1045800008D009E009F1070121F00702F2E802C1B1
:10459000914605E01FFA8CFC042A01D10CF0FF0CB7
:1045A0004FF00008220728D5702806D0009B83F022
:1045B000100353EA0A0305D00EE040228DF80420D0
:1045C000012208E05CEA010206D030228DF80420C6
:1045D0008DF8050002229046009B83F0080353EA01
:1045E0000A030AD15CEA010201D1620705D5302233
:1045F0008DF804204FF001087F1E582804D034A005
:1046000003900EA802900DE036A0F9E753466046ED
:10461000009AFFF755FB84460398825C0298401E7F
:10462000029002705CEA0100F0D1029806A9081A13
:1046300000F1200A600702D524F4803400E001274D
:10464000574502DDA7EB0A0000E0002000EB0A015D
:10465000009005984144401A0590E00306D45B465B
:104660002146179A059800F0B3F90544002706E0A3
:1046700001A85A46C05D179990476D1C7F1C47459D
:10468000F6DBE0030CD55B462146179A059800F04F
:104690009FF9054404E030205A46179990476D1C55
:1046A0000099481E00900029F5DC08E00298029964
:1046B0005A460078491C0291179990476D1CBAF12F
:1046C0000001AAF1010AF1DC65E1000009280100FE
:1046D0003031323334353637383961626364656678
:1046E000000000003031323334353637383941423A
:1046F000434445460000000000F058F90544761C8C
:10470000307800287FF4ECAD19B02846BDE8F08F72
:10471000620700D4062709F1070222F0070CFCE823
:104720000223E14603F000485FEA080C02D00FF2D2
:10473000702C0DE05FEA045C02D50FF2682C07E0F4
:104740005FEAC47C02D00FF2602C01E0AFF2700C83
:104750004FF0FF3823F00043CDF850C065280CD04F
:1047600006DC452809D046281DD047283DD13DE02C
:10477000662818D067287ED138E00021112F01DB90
:10478000112000E0781CCDE9000106A90EA8FFF772
:10479000EDFCDDE90F010E9A03910021009207F173
:1047A000010A04914DE04FF000400097CDE901105F
:1047B00006A90EA8FFF7DAFCDDE90F0203920E9BB3
:1047C00011990022DDF80CA00093049211B9791C14
:1047D00000EB010AB7EB0A0004D4C0F1FF3007F187
:1047E000010A0490AAEB0700019044E0012F00DACF
:1047F00001270021112F01DD112000E03846CDE90D
:10480000000106A90EA8FFF7B1FCDDE90F010E9A21
:104810000391002104910092BA4621070CD4039918
:10482000514500DA8A46BAF1010F05DD009AAAF176
:104830000101515C302908D0B84202DA10F1040FAE
:1048400006DA0121CDE9011015E0AAF10101E9E73D
:10485000002805DC049901440491AAEB000102E060
:10486000411C514500DD8A460499401A401C0190C4
:104870004FF000400290200704D40198504501DB1E
:10488000CDF8048000208DF84F0002980DF14F07FD
:10489000B0F1004F25D02B200E9002984FF0020867
:1048A00000280CDA404202902D200E9007E00A21E9
:1048B0000298FFF7EFF93031029007F8011DB8F1C7
:1048C0000001A8F10108F2DC02980028EFD1791E5E
:1048D0000E980870307800F0200040F0450007F88E
:1048E000020D12A8C01B00F107081498007800B14F
:1048F000012000EB0A01019801EBE07105984144A9
:10490000401A401E0590E00306D45B462146179AE4
:10491000059800F05DF805441498007818B15A46DF
:10492000179990476D1CE00324D55B462146179AE2
:10493000059800F04DF805441CE00498002807DBBA
:10494000DDE90301884203DD0098405C179901E02E
:10495000179930205A469047049805F10105401CEC
:1049600004900198401E019004D12E205A461799B8
:1049700090476D1CBAF10001AAF1010ADDDC05E0E7
:1049800017F8010B5A46179990476D1CB8F10001B2
:10499000A8F10108F4DC5B462146179A0598ABE6BE
:1049A0002D0000002B000000200000002DE9F04148
:1049B000044600251E461746880404D405E03946FF
:1049C0002020B0476D1C641EF9D52846BDE8F08153
:1049D0002DE9F041044600251E469046C80301D546
:1049E000302700E02027880404D505E041463846FA
:1049F000B0476D1C641EF9D52846BDE8F081000063
:104A00002DE9F04D8D4F21F0004A86B005460C4649
:104A1000BA452ADBAAEB070028430AD0884882451A
:104A200001DC1AD1CDB106B02846BDE8F04DFFF744
:104A300074BB844A844B2846FEF79FFF07460E4608
:104A4000824A834B28462146FEF797FF06B03A4636
:104A50003346BDE8F04DFEF7E9BE0120FFF780FBCD
:104A600006B0BDE8F04DFFF75DBB7A48824542DAFB
:104A7000BAF1795F0BDA2846FFF7E6FA042808BF97
:104A8000FFF756FB284606B02146BDE8F08D2A46C2
:104A90000B461046FEF771FF834602466E480E46EF
:104AA0000B4606217844FFF7E3FA5A463346FEF7F1
:104AB00064FF804669488A465A4633460421784452
:104AC000FFF7D6FA5A463346FEF757FF00223B4619
:104AD000FEF7ACFE02460B4640465146FEF7BFFFCE
:104AE0002A462346FEF749FF06B02A462346BDE87C
:104AF000F04DFEF79BBE284624F0004100223D46C3
:104B00003B46FEF737FF4FF0FF32FFF7BFF906468F
:104B1000024653480F460B4606217844FFF7A8FA91
:104B200032463B46FEF729FFCDE900014D483246AB
:104B30003B4604217844FFF79BFA32463B46FEF79A
:104B40001CFF00222B46FEF771FE83460291304681
:104B5000394600F05DFA804643480D46504517DC63
:104B6000DDE900015A46029BFEF779FF42462B46DB
:104B7000FEF703FF42462B46FEF758FE0122FFF7E1
:104B800085F9304A304BFEF7F2FE304A304B4CE0AC
:104B90004FF0000A52460B464046FEF747FECDE96D
:104BA000031052462B4610461946FEF7E6FE3246E3
:104BB0003B46FEF7DFFEDDE90332FEF750FF064617
:104BC0000F46DDE900015A46029BFEF748FF834687
:104BD0000091012230463946FFF758F9194A1A4B1D
:104BE000FEF7C8FE06460F46012240462946FFF75B
:104BF0004DF95A46009BFEF7C0FE32463B46FEF793
:104C0000B6FE06460F46012250462946FFF73EF9FA
:104C10000E4DDFF858802A464346FEF7ABFE32467B
:104C20003B46FEF7A7FE2A464346FEF7A3FE002CAE
:104C3000D8BF81F0004106B0BDE8F08D0000F03F24
:104C40000000F07F075C143326A6913C182D4454D5
:104C5000FB21F93F0000E03FB8050000CE05000051
:104C600042050000580500003333EF3FFB21E93FC8
:104C70002DE9F84F04460D4621F00040009173499C
:104C8000814211DC7249884201DC06D12CB12046F8
:104C90002946BDE8F84FFFF740BA6E48002DCCBF5B
:104CA0006D496E49BDE8F88F6D49814211DD6D494E
:104CB0008142D8BF4FF0FF366DDD20462946FFF711
:104CC000C3F9042808BFFFF733FA20462946BDE898
:104CD000F88F6549654F25F00045814233DD644911
:104CE000814219DD002632464FF080432046294696
:104CF000FEF79CFD80468A46012220462946FFF7A2
:104D0000C5F800223B46FEF732FE42465346FEF708
:104D1000A6FE04460D463EE001260022BA463B466A
:104D200020462946FEF782FD80460F460022534664
:104D300020462946FEF71BFE42463B46FEF78FFE05
:104D400004460D4627E04B4981421BDDDFF828A1D0
:104D500002260022534620462946FEF70EFE002278
:104D60003B46FEF763FD80460F4600225346204631
:104D70002946FEF7FCFD42463B46FEF770FE044620
:104D80000D4608E0032622462B4600203B49FEF74D
:104D900066FE04460D4622462B4610461946FEF78F
:104DA000ECFD8B46824602460B46FEF7E6FD0746C3
:104DB0000246334888460B4606217844FFF758F9E7
:104DC00052465B46FEF7D9FD82462E488B463A4650
:104DD000434605217844FFF74BF93A464346FEF730
:104DE000CCFD02460B46002E504659460CDAFEF723
:104DF0001DFD22462B46FEF7C0FD01B022462B4684
:104E0000BDE8F04FFEF7B6BDFEF710FD22462B467B
:104E1000FEF7B3FD1C4A7A4402EBC603D3E9002334
:104E2000FEF7A5FD22462B46FEF7A1FD174A7A4460
:104E300002EBC603D3E90023FEF79CFD009A002A8B
:104E4000B8BF81F00041BDE8F88F000000001044B9
:104E50000000F07F182D4454FB21F93FFB21F9BFDE
:104E60000000DC3F0000203E0000F33F0000F03F68
:104E70000000E63F008003400000F83F0000F0BF64
:104E80005A03000018030000B60200007E02000072
:104E90002DE9F04D9446CCF1000423F000464CEA95
:104EA0000404524F46EAD4749A46884621F00042E0
:104EB000BC4206D8454240EA050442EAD474BC42EA
:104EC00004D9BDE8F04D6246FFF72AB9AAF1405572
:104ED000A5F17F6555EA0C040BD0022404EAAA74FC
:104EE000434DDFF810E144EAD87452EA000B04D0D5
:104EF0000CE0BDE8F04DFFF7BBBE002C14BF012C49
:104F0000BDE8F08D022C30D0032C32D056EA0C0BC9
:104F10000AD0BE4220D1BA4209D126F0804622F002
:104F200080423346114617E000291ADB25E0DFF8FE
:104F3000C8B0FB44002C04BFDBE90001BDE8F08DE4
:104F4000012C02BFDBE9000181F00041BDE8F08DDA
:104F5000022C0AD0032C0CD0BA4212D1B8F1000FA7
:104F60000BDA23482549BDE8F08D28462449BDE8E1
:104F7000F08D28467146BDE8F08D1D482149BDE8F9
:104F8000F08D921B12153C2AC4BF19481D490EDC36
:104F9000BAF1000FBEBF12F13C0F0020014606DB44
:104FA0006246FEF75CFD21F00041FFF761FE002C38
:104FB00008BFBDE8F08D012C04BF81F00041BDE8C1
:104FC000F08D114A114B022C07D0FEF7D0FC2A4677
:104FD000BDE8F04D0A4BFEF7CABCFEF7C8FC2A46F6
:104FE000BDE8F04D064BFEF7C5BC00000000F07FA9
:104FF000182D4454FB2109C012020000FB21F9BF07
:10500000FB210940FB21F93F075C143326A6A13C94
:105010002DE9F04106460F46FEF74FFF04000D460E
:1050200018BF0120284320F00040C0F17F6000F14C
:10503000E040C00F0ED0301C18BF0120384320F0D4
:105040000040C0F17F6000F1E040C00F04BF0120CC
:10505000FFF786F820462946BDE8F08100000000F1
:10506000555555555555C53F7D6FEB0312D6D4BFE9
:105070005544880E55C1C93F3B8F68B52882A4BFEF
:1050800088B20175E0EF493F09F7FD0DE13D023FB0
:105090004B2D8A1C273A03C0C88A599CE52A004038
:1050A00059018D1B6C06E6BF82922EB1C5B8B33F85
:1050B0004FBB610567ACDD3F182D4454FB21E93F30
:1050C0009BF681D20B73EF3F182D4454FB21F93F1F
:1050D000E2652F227F2B7A3C075C143326A6813CA5
:1050E000BDCBF07A8807703C075C143326A6913C50
:1050F000C4EB98999999C9BF711623FEC671BCBFBC
:105100006D9A74AFF2B0B3BF9AFDDE522DDEADBF23
:105110002F6C6A2C44B4A2BF0D5555555555D53F3B
:10512000FF8300922449C23F6E204CC5CD45B73F56
:10513000513DD0A0660DB13FEB0D76244B7BA93FCE
:1051400011DA22E33AAD903F0000000000000000B9
:1051500070510008000000202C010000D03F000822
:10516000945100082C0100201C040000504100084C
:10517000412D010203040410090607080902040670
:105180000884A24A0469180118D20103B4803F02BE
:0451900027C800002C
:04000005080000ED02
:00000001FF
